:020000040800F2
:1000000000000320E50B0108290C0108290C010858
:10001000290C0108290C0108290C01080000000026
:10002000000000000000000000000000290C010892
:10003000290C010800000000290C01085560000887
:10004000290C0108290C0108290C0108290C0108B8
:10005000290C0108290C0108290C0108290C0108A8
:10006000290C0108290C0108290C0108290C010898
:10007000290C010851940008717A0008B16E00083B
:10008000290C0108290C0108290C0108290C010878
:10009000290C0108290C0108290C0108290C010868
:1000A000290C0108290C0108290C0108290C010858
:1000B000290C0108290C0108290C0108290C010848
:1000C000290C0108290C0108290C0108290C010838
:1000D000290C01087D840008290C0108BD7800085E
:1000E000290C0108290C0108290C0108290C010818
:1000F000290C0108290C0108290C0108290C010808
:10010000290C0108290C0108290C0108290C0108F7
:10011000FD6C0008290C0108290C010839D40008DD
:10012000290C0108E19B0008290C0108290C010891
:10013000290C0108290C0108290C0108290C0108C7
:10014000290C0108290C0108290C0108290C0108B7
:10015000290C0108F1620008318600083D610008A1
:10016000290C0108290C0108290C0108290C010897
:10017000290C0108290C0108290C010800000000C5
:10018000290C0108290C0108290C0108290C010877
:10019000290C0108290C0108290C010800000000A5
:0C01A000290C0108290C0108290C010899
:1001AC0053B94AB9002908BF00281CBF4FF0FF31D2
:1001BC004FF0FF3000F00CB8ADF1080C6DE904CE37
:1001CC0013F0FEFBDDF804E0DDE9022304B0704718
:1001DC00704700BF0348044B834202D0034B03B16A
:1001EC0018477047F40A0020F40A002000000000B1
:1001FC000548064B1B1AD90F01EBA301491002D07D
:10020C00034B03B118477047F40A0020F40A00208E
:10021C000000000010B5064C237843B9FFF7DAFF55
:10022C00044B13B10448AFF300800123237010BDBD
:10023C00F80A0020000000001C3D010808B5054B21
:10024C001BB105490548AFF30080BDE80840FFF736
:10025C00CFBF00BF00000000FC0A00201C3D0108BD
:10026C002DE9F04FB2F808802DED028B08F1FF3329
:10027C00FE2B89B014466FD8814D824E5FFA88F8F8
:10028C00A5FB083508EBD51505F0FF056F1E6DB104
:10029C004FF00009B2461FFA89F1204611F086FB97
:1002AC0009F101094D450AF8010BF4D13378F02B13
:1002BC004ED0482B59D8482B4ED8DFE813F099086C
:1002CC004D004D004D004D004D004D004D004D00BA
:1002DC004D004D004D004D004D004D004D004D00AA
:1002EC004D004D004D004D004D004D004D004D009A
:1002FC004D004D004D004D004D004D004D004D008A
:10030C004D004D004D004D004D004D004D004D0079
:10031C004D004D004D004D004D004D004D004D0069
:10032C004D004D004D004D004D004D004D004D0059
:10033C004D004D004D004D004D004D004D0031085D
:10034C00E507C5066B064B05F60494044B04D7026F
:10035C00B8F1070F00F09581204611F057FA40B222
:10036C0009B0BDEC028BBDE8F08FFD2BF4D8F12B5E
:10037C0067D8A22B01F0D78040F28A80D02BEBD12A
:10038C00B8F1020FE8D9404B1B78002BE4D17278FE
:10039C00013AD2B2022ADFD8B178002942F00683A2
:1003AC001C203A4B02FB00F01D18185C18B1297682
:1003BC000021696029611C2101FB02310D7B002A9F
:1003CC0003F09C871E7BAE420AD118708868986037
:1003DC0048685860086949695961002118611976A3
:1003EC00012A17D093F82810A942B5D11C2002FB82
:1003FC0000F01918185C18778868586248681862F9
:10040C00086949691963022A4FF00001D86283F820
:10041C003410A1D093F84410A9429DD11C2102FBA9
:10042C0001F15A18595C90685568186483F83810B3
:10043C0010695169DD6300229864D96483F85020F7
:10044C008AE7F23B0B2B87D801A252F823F000BFAE
:10045C003108000865030008F90700086503000867
:10046C0065030008650300086503000865030008C0
:10047C000F0700086503000865030008A9060008BB
:10048C00818080803CA10020E60A002090010020A1
:10049C00A02B01F01580A12B7FF45EAFB8F1090FF2
:1004AC007FF65AAFB14AB24B127896F807901B7888
:1004BC00002A7FF451AF012B01F08686AD4B1B78DF
:1004CC00012B01F08D85AC4B1B78012B01F0818445
:1004DC00AA4B1B78012B7FF43FAFB9F1040F7FF4CB
:1004EC003BAFA74B96F808C01B7863457FF634AF3B
:1004FC00A44BA5490CEB8C0203EB4203002213F82E
:10050C00015F11F8010F854202F101027FF424AF63
:10051C00062AF4D19D4A1368002B3FF41DAF013B12
:10052C0013609B4B9B481A8801928CF0BF019A4A2E
:10053C0010F80CA0535C8AEA030383F03805974B40
:10054C00009313F801E096490888515D8EEA010E7C
:10055C00595D471C0B46C51C4FF44061BFB2ADB290
:10056C00B0FBF1FB01FB1B0B0595861C1FFA8BF5F1
:10057C00A8F10909B7FBF1FB01FB1B775FFA89F9BD
:10058C000295B6B2BDB2039589EA0E0E059DB6FB77
:10059C00F1F701FB1766B6B20496B5FBF1F601FB59
:1005AC00165512F80E605E407C4BAFB213F80EE09D
:1005BC007C4D029B4FF0A00B05F803B0039B05F894
:1005CC0003C0049B05F803A005F80790714F704B0E
:1005DC000AF1010A07F80CA009F1FF370297019FF5
:1005EC00DFF800C201371F80031D002703931CF89E
:1005FC0001AF009B8AEA0609039E3E44B6B2B6FBE5
:10060C00F1FB01FB1B66B6B2013705F806A012F828
:10061C0009608EEA060613F809E0029BBB42E6DA93
:10062C00A8F1050250FA82F292B2B2FBF1F901FB89
:10063C001922019BDFF8B0C192B203F03F07AE5410
:10064C00A8F10403DCF8002050FA83F39BB20132CA
:10065C00CCF80020B3FBF1F201FB12339BB2A8F1F2
:10066C00030805F803E0504B504A23F817004C4B95
:10067C0002F8078050FA88F018804D4B1022DA559A
:10068C006AE64C4AD6F80110B6F8053011604A48B3
:10069C004A4A5BBA0121038011705DE6B8F10F0F75
:1006AC007FF45AAE464B71781A7891427FF454AE6F
:1006BC005978B27891427FF44FAEF1789A789142A2
:1006CC007FF44AAED978327991427FF445AE717994
:1006DC001A7991427FF440AE5A79B3799A427FF4F9
:1006EC003BAE384A3849D6F80730D6F80B001060C4
:1006FC000B603648364B10F08DFE364B01221A70CB
:10070C002AE6B8F1010F3FF427AE7378324A334929
:10071C001768294A324E1288003B18BF01230B7010
:10072C0038462449737011F073FB00287FF414AE23
:10073C0041220621224810F0BBFF4122054602212E
:10074C00304610F0B5FF06460146284611F086F8F3
:10075C002946384611F010FB384611F087FB284625
:10076C0011F054F8304611F051F8F5E5E60A002086
:10077C00B80A00207808002038060020F803002072
:10078C008E260020981C00203CA10020F0030020A5
:10079C00BE350020902600206C5501086C540108D1
:1007AC00B6290020B829002040380020003800204D
:1007BC00C035002048A20020E40A00202CA0002014
:1007CC008CA2002040A2002044A2002050A20020B5
:1007DC0028A000203BA200204CA20020F01B0020EF
:1007EC006001002044A10020B8350020C44AC54B4C
:1007FC00117800221A721A7583F8202083F82C20A5
:10080C0000297FF4A9ADC04BC04AC14811701976BC
:10081C00C04A83F8341083F85010BF4B017011702C
:10082C00197099E5B8F12C0F7FF496ADBB4A777827
:10083C00BB4BD6F802501560BA4A1F70012FB37922
:10084C00137001F08682002F40F01D87002D00F000
:10085C001787072B00F21487DFE813F00215BF127D
:10086C008F126812E406A6177F173319B8F1030F1D
:10087C007FF672AD71780139C9B209293FF66CADBA
:10088C00B07896F80380831E012B41F25E82021F22
:10089C00534253414FEA830CA34A0B010393D054A8
:1008AC0002EB011080F801C0107992F814C0844456
:1008BC005FFA8CFC002941F01782084692F824302C
:1008CC006344DBB2844692F834001844C0B26346E9
:1008DC0092F844C084445FFA8CFC184692F8543069
:1008EC006344DBB2844692F864001844634692F881
:1008FC0074C06044C0B292F884C060445FFA80FB5C
:10090C00092908BF5B460399511891F804C092F865
:10091C0094100491E04547D2844808EB030E5FFA2B
:10092C008EFEA0FB0E90400908F163010090A1EB34
:10093C000C017E48C9B2A0FB01A900984FEA5919D5
:10094C004FF0640A0AFB10E00AFB191E5FFA80F9EB
:10095C005FFA8EF0ACEB080E5FFA8EF181450191D7
:10096C0022D8DFF8CCE10130C0B2CDE905530290BA
:10097C000EF10100494600900198009B45186B4808
:10098C00A0FB059040090AFB10500EEB40056D785A
:10099C0003F81150029B1EF810000EF811000131E3
:1009AC008B42E9D1DDE90553E04512D90499C1F137
:1009BC006401A1EB0B01A8EB0C00C9B25FFA80FE3D
:1009CC008E4541F2B88761445FFA81F8E04501F247
:1009DC00B087DFF858C108EB0300ACFB03E1C0B2F1
:1009EC0001384FF0640E49090EFB11318CFB00C924
:1009FC00039B4FEAE07CCCEB691C0EFB1C0CD31860
:100A0C00C9B24FF0000E614583F80480A3F802E0F0
:100A1C0031DC474BDFF838A103EB4101023303EB28
:100A2C004C0B0423581C8AFB00C981444FEAE07C20
:100A3C00CCEBE91CCCEB0C2CA0EB0C0016F800C09A
:100A4C00981CF35C003B18BF01234B70E64401F883
:100A5C0002CB8AFB003C8444C317C3EBEC13C3EBFF
:100A6C0003238B451FFA8EFEA0EB0303DAD1039B05
:100A7C001A44A2F802E02F4A2F4B16682F4A30492D
:100A8C0012884FF00109304683F8009011F0C0F93C
:100A9C0000287FF461AC013702F0358029492A4ADD
:100AAC004B4600E00346042B1ABF0878107082F8FE
:100ABC000080AB4203F1010001F1010102F10102DE
:100ACC00F0D19DB241220621204810F0F1FD4122C7
:100ADC00294605461C4810F0EBFD07460146284602
:100AEC0010F0BCFE2946304611F046F9304611F0A4
:100AFC00BDF9284610F08AFE384610F087FE2BE42C
:100B0C00E60A00205C1C002090010020548B002081
:100B1C00706A00208C490020A8280020B40A00200C
:100B2C00B80A00206C9B00209C0000201F85EB5114
:100B3C001C1A00204CA200209A0D0020E40A002070
:100B4C0048A200203CA100203CA000208CA2002048
:100B5C0081808080B8F1030F7FF4FEAB75786B1E3B
:100B6C00DBB2092B3FF6F8AB96F80290704A9FED7A
:100B7C00717A1768704A714907EE909AF8EE677AA5
:100B8C0002EB031367EE877A3846C3ED027A6C4B9F
:100B9C001A8811F03DF900287FF4DEAB694E6A48E3
:100BAC007570472341220621337086F8029010F0AD
:100BBC007FFD412205464146304610F079FD064640
:100BCC000146284610F04AFE2946384611F0D4F862
:100BDC00384611F04BF9284610F018FE304610F04C
:100BEC0015FEFFF7B9BBB8F1050F7FF4B5AB7778FD
:100BFC007B1EDBB2092B3FF6AFAB96F80290F57873
:100C0C004B4A96F804A01668504ADFED4A6A4B49E5
:100C1C0007EE909AB8EE677A07EE905A03EB43030F
:100C2C00F8EE677A02EB8303BAF10000444A18BF6E
:100C3C00012027EE267A67EEA67A1872128883EDC9
:100C4C00007A3046C3ED017A11F0E2F800287FF407
:100C5C0083ABDFF8F0B03C488BF80170462341229F
:100C6C0006218BF800308BF803508BF802908BF830
:100C7C0004A010F01DFD412205464146584610F0D7
:100C8C0017FD07460146284610F0E8FD2946304678
:100C9C0011F072F8304611F0E9F8284610F0B6FD64
:100CAC00384610F0B3FDFFF757BBB8F1020F7FF4D5
:100CBC0053AB7378013BDBB2092B3FF64DAB1C4AAF
:100CCC002349D2F800901E4A282000FB0313002071
:100CDC0083F8210012881949484611F099F8054605
:100CEC0000287FF439AB013703D0164B32881A80B9
:100CFC00454641220621144810F0DAFC41222946CF
:100D0C000546104810F0D4FC06460146284610F063
:100D1C00A5FD2946484611F02FF8484611F0A6F8D3
:100D2C00284610F073FD304610F070FDFFF714BB31
:100D3C004CA200208180803B9C00002048A2002017
:100D4C00E40A00203CA000208CA2002024000020FB
:100D5C00FC160020A8F10801C9B20C293FF6FCAA28
:100D6C0073780193013BDBB2092B3FF6F5AA012204
:100D7C00282717FB0327A94D0022EA5105EB07088A
:100D8C0096F80290C8F80420C8F80820F27896F873
:100D9C0006A0F07908EE102A72680092327907EEFC
:100DAC00102A72790292002940F0BF8603EB83026D
:100DBC0005EBC20251709A00D11805EBC1014FF03E
:100DCC00000C81F802C0D11805EBC1014FF0000CEA
:100DDC0081F803C0D11805EBC1014FF0000C81F86C
:100DEC0004C0D11805EBC1014FF0000C81F805C00F
:100DFC00D11805EBC1014FF0000C81F806C0D118D9
:100E0C0005EBC1014FF0000C81F807C0D11805EBC0
:100E1C00C1014FF0000C81F808C0D11805EBC101DD
:100E2C004FF0000C81F809C0D11805EBC1014FF04F
:100E3C00000C81F80AC0D11805EBC1014FF0000C71
:100E4C0081F80BC04FF0000BF8EE487AF7EE006A11
:100E5C0077EEA67ADFED725A02999FED726AC5EEB3
:100E6C00A76A02EB030CB1F1000E05EBCC0118BF25
:100E7C004FF0010E81F820E04FEACC0E81F80CB057
:100E8C0015F83CB005F80E904FF0010C81F821C01C
:100E9C00B8EE477AC1ED066A37EE467A27EE267A27
:100EAC0081ED077ABAF1000F40F02E8681F822A06E
:100EBC00002841F0E283282103FB01F105EB010E30
:100ECC00DFF880C18EF8250020314FF480702CF8AB
:100EDC000100554901EB0311F7EE006A097907EEA1
:100EEC00901AF8EE677A002177EEE67A67EE877A49
:100EFC00F5EEC07AF1EE10FA41F35482134405EB8F
:100F0C00C30377EEA67A1961C3ED057A474B4849BE
:100F1C00D3F800A0474B50461A8810F079FF0346CF
:100F2C0000287FF419AA3278434EE85962F307037C
:100F3C00019A62F30F2318EE102A69F3174362F338
:100F4C001F633360009B7360D8F80410D8F8082036
:100F5C0006F1080307C341220621384810F0A8FB0C
:100F6C00412205461421304610F0A2FB06460146EC
:100F7C00284610F073FC2946504610F0FDFE5046F2
:100F8C0010F074FF284610F041FC304610F03EFC87
:100F9C00FFF7E2B9B8F1020F7FF4DEA97378013BD9
:100FAC00DBB2092B3FF6D8A9204A2549D2F800908C
:100FBC00204A282000FB0313002083F8210012880C
:100FCC001B49484610F024FF054600287FF4C4A9AD
:100FDC00013703D0184B32881A804546412206212E
:100FEC00164810F065FB412229460546124810F0C0
:100FFC005FFB06460146284610F030FC2946484661
:10100C0010F0BAFE484610F031FF284610F0FEFBF7
:10101C00304610F0FBFBFFF79FB900BFFC16002019
:10102C000AD7233E000000439C0000204CA2002065
:10103C0048A20020E40A00203CA000208CA2002042
:10104C008C180020FF160020A8F10801C9B20C2949
:10105C003FF682A973780193013BDBB2092B3FF673
:10106C007BA90122282717FB0327D34D0022EA5125
:10107C0005EB070896F80290C8F80420C8F8082079
:10108C00F27896F806A0F07908EE102A72680092B1
:10109C00327907EE102A72790292002940F0CA8543
:1010AC0003EB830205EBC20251709A00D11805EBD9
:1010BC00C1014FF0000C81F802C0D11805EBC10141
:1010CC004FF0000C81F803C0D11805EBC1014FF0B3
:1010DC00000C81F804C0D11805EBC1014FF0000CD5
:1010EC0081F805C0D11805EBC1014FF0000C81F857
:1010FC0006C0D11805EBC1014FF0000C81F807C0F8
:10110C00D11805EBC1014FF0000C81F808C0D118C3
:10111C0005EBC1014FF0000C81F809C0D11805EBAB
:10112C00C1014FF0000C81F80AC0D11805EBC101C8
:10113C004FF0000C81F80BC04FF0000BF8EE487A22
:10114C00F7EE006A77EEA67ADFED9C5A02999FEDD6
:10115C009C6AC5EEA76A02EB030CB1F1000E05EB1D
:10116C00CC0118BF4FF0010E81F820E04FEACC0EF5
:10117C0081F80CB015F83CB005F80E904FF0010C4E
:10118C0081F821C0B8EE477AC1ED066A37EE467A8F
:10119C0027EE267A81ED077ABAF1000F40F01F8511
:1011AC0081F822A0002841F05C84282103FB01F186
:1011BC0005EB010EDFF834C28EF8250020314FF418
:1011CC0080702CF801007F4901EB0311F7EE006AE7
:1011DC00097907EE901AF8EE677A002177EEE67A35
:1011EC0067EE877AF5EEC07AF1EE10FA41F33982A8
:1011FC00134405EBC30377EEA67A1961C3ED057AA8
:10120C00714B7249D3F800A0714B50461A8810F0FC
:10121C00FFFD034600287FF49FA832786D4EE859F5
:10122C0062F30703019A62F30F2318EE102A69F395
:10123C00174362F31F633360009B7360D8F804108C
:10124C00D8F8082006F1080307C34122062162489A
:10125C0010F02EFA412205461421304610F028FADF
:10126C0006460146284610F0F9FA2946504610F079
:10127C0083FD504610F0FAFD284610F0C7FA3046B0
:10128C0010F0C4FAFFF768B8B8F1020F7FF464A845
:10129C007378013BDBB2092B3FF65EA84F4D4648F5
:1012AC00DFF844C103EB430105EB8105012603EB99
:1012BC008301282717FB0367CE0000EBC1030CEB5F
:1012CC0006010022DA611A612A60CA610A61444A85
:1012DC009A618A614FF0000E4FF07E5206F12008A1
:1012EC006A6085F808E04FF0200A3E4D5A6100F81C
:1012FC0006A04A6107EB000940F8085083F825E086
:10130C0013230CF806304FF0FF2240F20113C251A8
:10131C00C9F804204CF8083081F825E0FFF71CB818
:10132C00B8F1020F7FF418A87378013BDBB2092BDC
:10133C003FF612A8294D20482B4F03EB430105EB38
:10134C00810503EB8301CE004FF0010C4FF0280E0A
:10135C001EFB03CE00EBC103B9190022DA611A613E
:10136C002A60CA610A611E4A9A618A6106F12008E4
:10137C004FF07E524FF000096A6085F808904FF0EC
:10138C00200B184D5A6100F806B04A610EEB000AAA
:10139C0040F8085083F825900323BB554FF0FF22EB
:1013AC0040F2011340F80E20CAF8042047F8083028
:1013BC0081F825C0FEF7D0BF8C1800200AD7233E39
:1013CC00000000439C0000204CA2002048A20020FA
:1013DC00E40A00203CA000208CA200202400002065
:1013EC000AD7233D01010100FC1600208F180020B4
:1013FC00B8F1020F7EF6B0AF7B4B1D78002D7EF45A
:10140C00ABAF7278013AD2B2022A3EF6A5AF1C21DC
:10141C00764BB77802FB01F158185E5C002F41F057
:10142C00D0821EB100210776416001611C2101FBB5
:10143C0002310D7B002A01F06983187BA8420AD186
:10144C008868986048685860086949695961002142
:10145C001E7018611976012A19D093F82810A94228
:10146C007EF47AAF1C2002FB00F01918185C187778
:10147C008868586248681862086949691963022AC1
:10148C004FF00001D86283F834103EF465AF93F846
:10149C004410A9427EF460AF1C2102FB01F15A18E2
:1014AC00595C90685568186483F838101069516954
:1014BC00DD6300229864D96483F85020FEF74CBF9A
:1014CC00B8F1080F7EF448AF474B77781B78002BA8
:1014DC007EF442AF012F01F0FC80022F01F0DC8082
:1014EC00032F41F09780424AB778424B1770D6F8D9
:1014FC000350414A1D60012FF379137002F0A28052
:10150C00002F41F00382002D01F0FD81072B01F229
:10151C00FA81DFE813F0CB092F0F51122A120912AE
:10152C00E31198117011B8F1020F7EF615AF2E4B26
:10153C00324A19781278737800297EF40DAF12B9FB
:10154C00012B01F0EA822E4A127812B9022B01F01B
:10155C005583274A127812B9032B01F0AA83294A22
:10156C001278002A7EF4F8AE042B7EF4F5AE2648F1
:10157C0002210EF0E5FDA8F10208244B24485FFA85
:10158C0088F188461A4603EB410110F8015F22F8F6
:10159C00025B8A42F9D11F4D1F48AB600721C5F889
:1015AC001C800DF05FFD2A461B4807210DF08CFDB9
:1015BC00194807210DF0D2FD0422174807210DF020
:1015CC00E1FD164880210FF0B5FA102212480721D0
:1015DC000DF0E4FD104807210DF0CAFD104B01225F
:1015EC001A70FEF7B9BE00BFE60A00209001002079
:1015FC003806002034060020A4590020B80A002028
:10160C0078080020F8030020000C0240C4380020A9
:10161C003DA10020000400200064024000100140A5
:10162C00B428002091480FF095F9904804210FF050
:10163C0077FA8E4808210FF06DFA8C4840F205318C
:10164C000FF08CFA89484FF4A0610FF087FA8748A5
:10165C004FF442710FF082FA844829460FF0F2F9E8
:10166C00824800210FF040FA80484FF400510FF0EF
:10167C0043FA7E4800210FF02FFA7C480FF044FA11
:10168C007B4B00221A707B4B00251D7072B67A4B77
:10169C007A4A1D807A4B15804FF496721A60794BFA
:1016AC001D6062B6784B96F8078083F80080774B04
:1016BC00B768774A1F60B8F1010F337B137000F0E5
:1016CC004F87B8F1000F3FD1002F3AD0072B38D8F5
:1016DC00DFE813F06F13C7119711D716B5168E16D6
:1016EC00671608006B480FF035F96A4804210FF0B3
:1016FC0017FA684808210FF00DFA664840F20531D8
:10170C000FF02CFA63484FF4A0610FF027FA6148F0
:10171C004FF442710FF022FA5E4839460FF092F9FD
:10172C005C484FF480510FF0DFF95A484FF40051E8
:10173C000FF0E2F9574800210FF0CEF955480FF0A1
:10174C00E3F9554B00221A70544B00251D7072B6EC
:10175C00534B544A1D80544B15804FF496721A60AB
:10176C00524B1D6062B6524B96F80D8083F8008088
:10177C00504BD6F80E70504A1F60B8F1010FB37C75
:10178C00137000F06786B8F1000F3FD1002F3AD0EC
:10179C00072B38D8DFE813F033139613591334148E
:1017AC001214EC13C613080044480FF0D3F8434846
:1017BC0004210FF0B5F9414808210FF0ABF93F486F
:1017CC0040F205310FF0CAF93C484FF4A0610FF01C
:1017DC00C5F93A484FF442710FF0C0F93748394611
:1017EC000FF030F935484FF480510FF07DF9334844
:1017FC004FF400510FF080F9304800210FF06CF9D4
:10180C002E480FF081F92E4B00221A702D4B00251B
:10181C001D7072B62C4B2D4A1D802D4B15804FF42C
:10182C0096721A602B4B1D6062B62B4B96F8138088
:10183C0083F80080294B7769294A1F60B8F1010FA2
:10184C00337E137000F0C585B8F1000F7CD1002FEA
:10185C0077D0072B75D8DFE813F0C50C5B0F360F6C
:10186C00410E1F0EEE0DBD0D450000BF00140140D2
:10187C00628B0020618B002026A0002024A0002079
:10188C00BC0A002020A0002078080020740800204A
:10189C00887A0020004C00407E6A00207D6A00207F
:1018AC00427F0020407F00207C0800203C7F0020ED
:1018BC003806002034060020A459002000480040BF
:1018CC009A490020994900205E5E00205C5E002051
:1018DC003C060020585E0020F8030020F403002092
:1018EC00C0380020C6480FF035F8C54804210FF069
:1018FC0017F9C34808210FF00DF9C14840F2053122
:10190C000FF02CF9BE484FF4A0610FF027F9BC483A
:10191C004FF442710FF022F9B94839460FF092F8A2
:10192C00B7484FF480510FF0DFF8B5484FF4005131
:10193C000FF0E2F8B24800210FF0CEF8B0480FF0EB
:10194C00E3F8B04B00221A70AF4B00251D7072B635
:10195C00AE4BAF4A1D80AF4B15804FF496721A6098
:10196C00AD4B1D6062B6F37E9FEDAC7A707EB27E9D
:10197C0007EE903AAA4BF8EE677A93F82870187332
:10198C0067EE877A002187421A70C3ED017AC3EDA6
:10199C00047A996001F06F8193F8441081420CD164
:1019AC0083F8382000221A645A69DA640022C3EDE5
:1019BC000F7AC3ED127A83F85020B27F9FED977A9D
:1019CC00357F83F8285007EE902AF8EE677A0022CC
:1019DC0067EE877A5A628542727FC3ED087AC3ED4F
:1019EC000B7A1A7700F0EA848D4204D11A6BDA6410
:1019FC00002283F8502096F821209FED887AF17F01
:101A0C0083F8441007EE902AF8EE677A002267EE0E
:101A1C00877A1A64814296F82020C3ED0F7AC3EDC1
:101A2C00127A83F8382000F0DC85A94200F0E685B4
:101A3C0096F82230DFED797A7A4A02EE903A96F8EF
:101A4C00233003EE103A96F8243003EE903A96F8D1
:101A5C00253004EE103A96F8263004EE903A96F8BB
:101A6C00273005EE103A96F8283005EE903A96F8A5
:101A7C00293006EE103A96F82A3006EE903A96F88F
:101A8C002B3007EE103AF8EE622AB8EE433AF8EE35
:101A9C00633AB8EE444AF8EE644AB8EE455AF8EEAA
:101AAC00655AB8EE466AF8EE666AB8EE477A5E4B4F
:101ABC0062EEA72A23EE273A63EEA73A24EE274AD2
:101ACC0064EEA74A25EE275A65EEA75A26EE276A3A
:101ADC0066EEA76A67EE277A0021C3ED022A83ED32
:101AEC00063AC3ED0A3A83ED0E4AC3ED124A83ED72
:101AFC00165AC3ED1A5A83ED1E6AC3ED226AC3ED62
:101B0C00267A1170FEF728BC003818BF012081F826
:101B1C0025000EF1200E4548D94520F80EC081F85D
:101B2C0024C07FF4D6A9FFF7F1B903EB830C05EBC6
:101B3C00CC0C327A8CF8012001294FEA83023FF455
:101B4C003BA996F809E08CF802E002293FF43BA986
:101B5C0096F80AE08CF803E003293FF43BA996F8C9
:101B6C000BE08CF804E004293FF43BA996F80CE058
:101B7C008CF805E005293FF43BA996F80DE08CF8AC
:101B8C0006E006293FF43BA996F80EE08CF807E036
:101B9C0007293FF43BA902EB030C05EBCC0C96F8A0
:101BAC000FE08CF808E008293FF437A996F810E00C
:101BBC008CF809E009293FF437A996F811E08CF864
:101BCC000AE00A293FF437A996F812E08CF80BE0EA
:101BDC000C297FF437A996F813B0FFF735B9003804
:101BEC0018BF012081F825000EF1200E1048D945B0
:101BFC0020F80EC081F824C07FF4E5AAFFF700BBE3
:101C0C0000100140B6280020B52800207A3D0020A5
:101C1C00783D0020FC030020743D00208180803B37
:101C2C0090010020E60A00209C000020FE160020F7
:101C3C008E18002003EB830C05EBCC0C327A8CF85D
:101C4C00012001294FEA83023FF430AA96F809E0FB
:101C5C008CF802E002293FF430AA96F80AE08CF8DE
:101C6C0003E003293FF430AA96F80BE08CF804E06B
:101C7C0004293FF430AA96F80CE08CF805E005290D
:101C8C003FF430AA96F80DE08CF806E006293FF4F4
:101C9C0030AA96F80EE08CF807E007293FF430AA3A
:101CAC0002EB030C05EBCC0C96F80FE08CF808E07B
:101CBC0008293FF42CAA96F810E08CF809E00929C1
:101CCC003FF42CAA96F811E08CF80AE00A293FF4AC
:101CDC002CAA96F812E08CF80BE00C297FF42CAAB5
:101CEC0096F813B0FFF72ABA01293EF4E7AD92F843
:101CFC00243002296344DBB23EF4E5AD92F83400A3
:101D0C0003291844C0B23EF4E3AD92F844C0042950
:101D1C0084445FFA8CFC3EF4E1AD92F85430052912
:101D2C006344DBB23EF4DFAD92F86400062918443C
:101D3C00C0B200F0B48792F8743007290344DBB2C8
:101D4C0000F0A5871846FEF7D6BD4FF0030CFEF742
:101D5C00A3BD8A480EF0FEFD884804210EF0E0FE7B
:101D6C00864808210EF0D6FE844840F205310EF06C
:101D7C00F5FE82484FF4A0610EF0F0FE7F484FF460
:101D8C0042710EF0EBFE7E497C480EF05BFE7B4808
:101D9C0000210EF0A9FE794800210EF0ADFE0021C5
:101DAC0076480EF099FE75480EF0AEFE754A7649EF
:101DBC0000231370754A0B801370754A1770754A9F
:101DCC001380754A402111607449754A0B60137079
:101DDC0059E4B9F1030F7EF47BAB724B96F808C053
:101DEC001B7863457EF6B8AA6F4B70490CEB8C02DE
:101DFC0003EB4203002213F8015F11F8010F854237
:101E0C0002F101027EF4A8AA062AF4D1684A1368EA
:101E1C00002B3EF4A1AA013B1360664B66481A885E
:101E2C0001928CF0BF01654A10F80CA0535C8AEA51
:101E3C00030383F03805624B009313F801E061490A
:101E4C000888515D8EEA010E595D471C0B46C51C76
:101E5C004FF44061BFB2ADB2B0FBF1FB01FB1B0B09
:101E6C000595861C1FFA8BF5A8F10909B7FBF1FB48
:101E7C0001FB1B775FFA89F90295B6B2BDB20395E7
:101E8C0089EA0E0E059DB6FBF1F701FB1766B6B29B
:101E9C000496B5FBF1F601FB165512F80E605E4088
:101EAC00474BAFB213F80EE0474D029B4FF0A00B1F
:101EBC0005F803B0039B05F803C0049B05F803A0C9
:101ECC0005F807903C4F3B4B0AF1010A07F80CA0B0
:101EDC0009F1FF370297019FDFF8FCC001371F8023
:101EEC00031D002703931CF801AF009B8AEA060927
:101EFC00039E3E44B6B2B6FBF1FB01FB1B66B6B2C9
:101F0C00013705F806A012F809608EEA060613F8E8
:101F1C0009E0029BBB42E6DAA8F1050250FA82F214
:101F2C0092B2B2FBF1F901FB1922019BDFF8ACC0B4
:101F3C0092B203F03F07AE54A8F10403DCF8002082
:101F4C0050FA83F39BB20132CCF80020B3FBF1F2D0
:101F5C0001FB12339BB2A8F1030805F803E01B4BFD
:101F6C001B4A23F81700174B02F8078050FA88F029
:101F7C001880184B1022DA55FEF7EEB90014014008
:101F8C0040420F00568B002068980020558B002093
:101F9C00AD0A00206A980020B00A00206498002046
:101FAC003E8B0020724700207C3D00203CA100208D
:101FBC0030060020A2560020744700206C55010802
:101FCC006C5401089A4A00209C4A00202459002095
:101FDC00E4580020A456002044A100209C56002068
:101FEC00B9F1020F7EF46FAA684B96F808C01B7803
:101FFC0063457EF6B1A9664B66490CEB8C0203EB8C
:10200C004203002213F8015F11F8010F854202F11F
:10201C0001027EF4A1A9062AF4D15F4A1368002BB1
:10202C003EF49AA9013B13605C4B5D481A880192FF
:10203C008CF0BF015B4A10F80CA0535C8AEA0303D6
:10204C0083F03805584B009313F801E05749088882
:10205C00515D8EEA010E595D471C0B46C51C4FF4B1
:10206C004061BFB2ADB2B0FBF1FB01FB1B0B0595A0
:10207C00861C1FFA8BF5A8F10909B7FBF1FB01FBD4
:10208C001B775FFA89F90295B6B2BDB2039589EA5E
:10209C000E0E059DB6FBF1F701FB1766B6B2049662
:1020AC00B5FBF1F601FB165512F80E605E403E4B87
:1020BC00AFB213F80EE03E4D029B4FF0A00B05F8AB
:1020CC0003B0039B05F803C0049B05F803A005F8B7
:1020DC000790334F314B0AF1010A07F80CA009F1B4
:1020EC00FF370297019FDFF8D8C001371F80031D0F
:1020FC00002703931CF801AF009B8AEA0609039E94
:10210C003E44B6B2B6FBF1FB01FB1B66B6B201371F
:10211C0005F806A012F809608EEA060613F809E025
:10212C00029BBB42E6DAA8F1050250FA82F292B2A7
:10213C00B2FBF1F901FB1922019BDFF888C092B2C6
:10214C0003F03F07AE54A8F10403DCF8002050FA6A
:10215C0083F39BB20132CCF80020B3FBF1F201FB0C
:10216C0012339BB2A8F1030805F803E0114B124A95
:10217C0023F817000D4B02F8078050FA88F01880EE
:10218C000E4B1022DA55FEF7E7B800BF5668002058
:10219C00605E00203CA100207008002086770020A3
:1021AC00586800206C5501086C5401087E6B0020A7
:1021BC00806B0020087A0020C879002088770020E6
:1021CC0044A1002080770020B9F1010F7EF476A99C
:1021DC00C14B96F808C01B7863457EF679A9BF4BB6
:1021EC00BF490CEB8C0203EB4203002213F8015F96
:1021FC0011F8010F854202F101027EF469A9062A49
:10220C00F4D1B84A1368002B3EF462A9013B136069
:10221C008CF0BF01B44AB54BB54813F80CA0535C15
:10222C0000888AEA030383F03805B24B575D595C8A
:10223C005D5D0295A8F1090E851C5FFA8EFE794052
:10224C00ADB28EEA010100932B46C51C0191A9B2D7
:10225C0003914FF44061471CB0FBF1FB01FB1B0BDE
:10226C001FFA8BF5BFB20495B7FBF1FB039D01FB85
:10227C001B771FFA87FBB3FBF1F701FB1737CDF880
:10228C0014B01FFA87FBB5FBF1F701FB1755019B47
:10229C00CDF818B01FFA85FB974D029FCDF81CB0F6
:1022AC00B5F800B0D55C7D400195924D049FEB5C78
:1022BC00924D03936FF05F03EB55059F8B4B05F825
:1022CC0007C0069F05F807A0079F0AF1010A05F849
:1022DC0007E00EF1FF3703F80CA00297864BDFF8EE
:1022EC0078A2DDF80CE0019D071D0BF1010CCDE986
:1022FC000470A3F800C07F4B4FF0000C1AF8010FCC
:10230C00CDF800E080EA050E049D6544ADB2B5FB46
:10231C00F1F701FB1755ADB2784F785512F80E5006
:10232C00009813F80EE06840054602980CF1010C79
:10233C006045E3DADFF824A20598DAF80030A8F15A
:10234C00050C50FA8CFCCDE900E51FFA8CFC01332E
:10235C00A8F10402CAF80030BCFBF1F301FB13C373
:10236C003D4650FA82F29BB292B2019FEF54B2FBFF
:10237C00F1F301FB13239BB2009AEA540BF03F0ECE
:10238C005F4AA8F1030322F81E00594A50FA83F061
:10239C0010805C4A02F80E305B4B102203F80E20C2
:1023AC00FEF796B84FF0280202FB03534CBFC3ED67
:1023BC00047A1961C3ED056AFEF7A8BD1A701A6B91
:1023CC005A610022C3ED017AC3ED047A1A76FFF745
:1023DC000BBB4E480EF0BEFA4C4804210EF0A0FB8D
:1023EC004A4808210EF096FB484840F205310EF0A1
:1023FC00B5FB46484FF4A0610EF0B0FB43484FF4D8
:10240C0042710EF0ABFB424940480EF01BFB3F48BB
:10241C0029460EF069FB3D4829460EF06DFB3B4802
:10242C0029460EF059FB39480EF06EFB394B3A4AEF
:10243C001D703A4B15801D70394B83F80080394B59
:10244C001D80394B40221A60384A394B15601D707B
:10245C00FFF77ABA37480EF07DFA364804210EF0B1
:10246C005FFB344808210EF055FB324840F2053131
:10247C000EF074FB2F484FF4A0610EF06FFB2D484B
:10248C004FF442710EF06AFB21492A480EF0DAFA39
:10249C00284829460EF028FB264829460EF02CFB2E
:1024AC00244829460EF018FB22480EF02DFB224B37
:1024BC00224A1D70224B15801D70224B83F8008020
:1024CC00214B1D80214B40221A60214A214B156063
:1024DC001D70FFF79BB900BF3A890020447F002094
:1024EC003CA10020B00A00206C5501083C8900205A
:1024FC00628C00206C5401086A980020648C0020C7
:10250C00EC9A0020AC9A00206C980020001001403E
:10251C0040420F00AA280020BC350020A92800202A
:10252C00ED030020BE350020F0030020B83500205C
:10253C0092280020004800408E490020A056002020
:10254C008D4900202D060020A256002030060020C8
:10255C009C5600207649002044A10020649800205D
:10256C00AF480EF0F7F9AE4804210EF0D9FAAC489A
:10257C0008210EF0CFFAAA4840F205310EF0EEFA1F
:10258C00A7484FF4A0610EF0E9FAA5484FF4427148
:10259C000EF0E4FAA349A2480EF054FAA0482946DA
:1025AC000EF0A2FA9E4829460EF0A6FA9C4829463F
:1025BC000EF092FA9A480EF0A7FA9B4B9B4A1D70AC
:1025CC009B4B15801D709B4B83F800809A4B1D8094
:1025DC009A4B40221A609A4A9A4B15601D70FFF76D
:1025EC00B3B8D96C5961A8424FF00001C3ED017A20
:1025FC001A70C3ED047A19767FF41AAAD96C1A777B
:10260C000022C3ED087AC3ED0B7A196383F83420EA
:10261C00FFF70EBA042F7DF49FAE8B4A96F802801A
:10262C008A4BD6F803501560894A83F80080B8F1BC
:10263C00010FF379137001F05885B8F1000F40F0D9
:10264C004F82002D00F04982072B00F24682DFE812
:10265C0013F017021E0EEE0DC70D8E0D820E5C0EC2
:10266C00240D4FF0280202FB03534CBFC3ED047A38
:10267C001961C3ED056AFEF7C3BD282103FB01F107
:10268C0005EB010E73488EF825C020314FF4807C89
:10269C0020F801C0FEF71DBC6F4AB7786F4B17705E
:1026AC00D6F803506E4A1D60012FF379137000F0B9
:1026BC00E984002F5CD1002D57D0072B55D8DFE8CB
:1026CC0013F03407B10481045A0426009B077507E4
:1026DC00F505644AB778644B1770D6F80350634A13
:1026EC001D60012FF379137000F00386002F40F06A
:1026FC008380002D7DD0072B7BD8DFE813F0A80C4E
:10270C000D04C4039E034C004D05270504054448E5
:10271C000EF020F9424804210EF002FA404808213C
:10272C000EF0F8F93E4840F205310EF017FA3C482D
:10273C004FF4A0610EF012FA39484FF442710EF0CA
:10274C000DFA374829460EF07DF9354800210EF078
:10275C00CBF933484FF400510EF0CEF9304800213C
:10276C000EF0BAF92E480EF0CFF9414B00221A7038
:10277C00404A0023137072B63F4A404813804049C8
:10278C00404A03804FF496700860136062B63E4A6C
:10279C001370FDF7E1BD3D480EF0DCF83B48042119
:1027AC000EF0BEF9394808210EF0B4F9374840F262
:1027BC0005310EF0D3F935484FF4A0610EF0CEF987
:1027CC0032484FF442710EF0C9F9304829460EF0E8
:1027DC0039F92E4800210EF087F92C484FF400519E
:1027EC000EF08AF9294800210EF076F927480EF0F0
:1027FC008BF9274B00221A70264A0023137072B6ED
:10280C00254A264813802649264A03804FF49670A1
:10281C000860136062B6244A1370FDF79DBD00BFBB
:10282C00004C004040420F00726A00208477002068
:10283C00716A00206D080020867700207008002047
:10284C00807700205A6A0020F4030020F80300204F
:10285C00C0380020FF1600207808002074080020E3
:10286C00887A0020B80A0020B40A00206C9B002053
:10287C007E6A00207D6A0020427F0020407F00207D
:10288C007C0800203C7F0020706A0020001401406E
:10289C00628B0020618B002026A0002024A0002049
:1028AC00BC0A002020A00020548B0020B9480EF058
:1028BC0051F8B84804210EF033F9B64808210EF04F
:1028CC0029F9B44840F205310EF048F9B1484FF4FB
:1028DC00A0610EF043F9AF484FF442710EF03EF98F
:1028EC00AC4829460EF0AEF8AA4800210EF0FCF8D0
:1028FC00A84800210EF000F9A64800210EF0ECF8D3
:10290C00A4480EF001F9A44B00221A70A34A00232C
:10291C00137072B6A24AA3481380A349A34A03803A
:10292C004FF496700860136062B6A14A1370FDF7FD
:10293C0013BDA8EB0C00C1B201910CF163010CEBBF
:10294C000300A1EB08014FF0640CC9B2C0B2B1FB9B
:10295C00FCFE0CFB1E11B0FBFCFE0CFB1E00C9B2F6
:10296C005FFA80FB5945FEF434A8DFF88CE2029341
:10297C000EF1010000900198009B00EB01098D48BD
:10298C00A0FB09A040090CFB10900EEB400913F8BA
:10299C0011A089F801A01EF811900EF810908B452B
:1029AC0001F1FF31E7D1029BFEF713B8013904297D
:1029BC003DF6D2ACDFE811F0C8097B091209D60844
:1029CC00A80826B14FF07E510576416001611C21AB
:1029DC0001FB02310D7B002A01F08984187BA8428F
:1029EC000AD18868986048685860086949695961D3
:1029FC0000211E7018611976012A19D093F828103D
:102A0C00A9427DF4A9AC1C2002FB00F01918185C3B
:102A1C0018778868586248681862086949691963A8
:102A2C00022A4FF00001D86283F834103DF494ACC4
:102A3C0093F84410A9427DF48FAC1C2102FB01F1E8
:102A4C005A18595C90685568186483F838101069E6
:102A5C005169DD6300229864D96483F85020FDF736
:102A6C007BBC282103FB01F105EB010E52488EF8CB
:102A7C0025C020314FF4807C20F801C0FEF7A3BBA9
:102A8C004E480DF067FF4D4804210EF049F84B48B5
:102A9C0008210EF03FF8494840F205310EF05EF87F
:102AAC0046484FF4A0610EF059F844484FF4427177
:102ABC000EF054F8414829460DF0C4FF3F48002160
:102ACC000EF012F83D4800210EF016F83B4800219C
:102ADC000EF002F839480EF017F8394B00221A7034
:102AEC00384A0023137072B6374A38481380384975
:102AFC00384A03804FF496700860136062B6364A09
:102B0C001370FDF729BC0546FDF7DCBF93F82810C0
:102B1C00A9427EF4BCACFEF7A5BC30484FF4804112
:102B2C000DF00EFBA8F102082D4B2E485FFA88F130
:102B3C0088461A4603EB410110F8015F22F8025B4C
:102B4C008A42F9D1284D2948AB600621C5F81C8072
:102B5C000CF088FA2A46254806210CF0B5FA2348D1
:102B6C0006210CF0FBFA0522204806210CF00AFB8A
:102B7C001F4880210DF0DEFF10221C4806210CF0AE
:102B8C000DFB1A4806210CF0F3FA1A4B01221A70AD
:102B9C00FDF7E2BB004800409A490020994900200B
:102BAC005E5E00205C5E00203C060020585E00202B
:102BBC008C4900201F85EB518F180020001001401C
:102BCC00B6280020B52800207A3D0020783D002052
:102BDC00FC030020743D0020A828002000040240C3
:102BEC00709B00203DA10020C00A00200064024020
:102BFC0000140140608B00201C1A0020B9484FF4CF
:102C0C0080510DF09DFAA8F10208B74BB7485FFA56
:102C1C0088F188461A4603EB410110F8015F22F84F
:102C2C00025B9142F9D1B24DB248AB600421C5F8B8
:102C3C001C800CF017FA2A46AE4804210CF044FA1A
:102C4C00AC4804210CF08AFA04221146A9480CF075
:102C5C0099FAA94880210DF06DFF1022A548042196
:102C6C000CF09CFAA34804210CF082FAA34B01222D
:102C7C001A70FDF771BB5962596983F83450C3ED72
:102C8C00087A1A77C3ED0B7A1963FEF785BE92F8B2
:102C9C0084100B445FFA83FB0346FDF734BE92F8B5
:102CAC007410014492F8840001445FFA81FBFDF733
:102CBC002ABE93484FF400410DF042FAA8F10208E5
:102CCC00904B8A485FFA88F188461A4603EB41011B
:102CDC0010F8015F22F8025B8A42F9D18A4D8548CF
:102CEC00AB600321C5F81C800CF0BCF92A46814866
:102CFC0003210CF0E9F97F4803210CF02FFA042290
:102D0C007C4803210CF03EFA804880210DF012FF24
:102D1C001022784803210CF041FA764803210CF07C
:102D2C0027FA7B4B01221A70FDF716BB79480DF080
:102D3C0011FE784804210DF0F3FE764808210DF0C1
:102D4C00E9FE744840F205310DF008FF71484FF46C
:102D5C00A0610DF003FF6F484FF442710DF0FEFEC1
:102D6C006C4829460DF06EFE6A484FF480510DF008
:102D7C00BBFE68480021FEF77ABC66480DF0EAFD00
:102D8C00644804210DF0CCFE624808210DF0C2FE0F
:102D9C00604840F205310DF0E1FE5E484FF4A06151
:102DAC000DF0DCFE5B484FF442710DF0D7FE594834
:102DBC0029460DF047FE574800210DF095FE554869
:102DCC0000210DF099FE53484FF4C0610DF084FEC4
:102DDC0050480DF099FEFEF753BC4E480DF0BAFD6D
:102DEC004C4804210DF09CFE4A4808210DF092FE3F
:102DFC00484840F205310DF0B1FE46484FF4A06151
:102E0C000DF0ACFE43484FF442710DF0A7FE414863
:102E1C0029460DF017FE3F4800210DF065FE3D4898
:102E2C0000210DF069FE3B484FF480610DF054FE1B
:102E3C0038480DF069FEFEF723BC36480DF08AFDCC
:102E4C00344804210DF06CFE324808210DF062FE6E
:102E5C00304840F205310DF081FE2E484FF4A06150
:102E6C000DF07CFE2B484FF442710DF077FE294893
:102E7C0029460DF0E7FD27484FF480510DF034FE44
:102E8C0024480021ACE423480DF064FD21480421C2
:102E9C000DF046FE1F4808210DF03CFE1D4840F287
:102EAC0005310DF05BFE1B484FF4A0610DF056FE92
:102EBC0018484FF442710DF051FE164829460DF09A
:102ECC00C1FD144800210DF00FFE124800210DF039
:102EDC0013FE10484FF4C0610DF0FEFD0D480DF0CF
:102EEC0013FE86E4000802408C7A00203DA10020ED
:102EFC008008002000600240004C00407C6A0020EA
:102F0C0000040240A8590020400600200048004060
:102F1C009849002000140140C5480DF01BFDC44821
:102F2C0004210DF0FDFDC24808210DF0F3FDC04851
:102F3C0040F205310DF012FEBD484FF4A0610DF0CA
:102F4C000DFEBB484FF442710DF008FEB8482946FF
:102F5C000DF078FDB64800210DF0C6FDB4480021F7
:102F6C000DF0CAFDB2484FF480610DF0B5FDB048CC
:102F7C000DF0CAFD3DE4AF480DF0ECFCAD4804216A
:102F8C000DF0CEFDAB4808210DF0C4FDA94840F270
:102F9C0005310DF0E3FDA7484FF4A0610DF0DEFD07
:102FAC00A4484FF442710DF0D9FDA24829460DF00A
:102FBC0049FDA0484FF480510DF096FD9D4800212D
:102FCC00FFF7CABB9B480DF0C5FC9A4804210DF0D5
:102FDC00A7FD984808210DF09DFD964840F205315B
:102FEC000DF0BCFD93484FF4A0610DF0B7FD914876
:102FFC004FF442710DF0B2FD8E4829460DF022FDC2
:10300C008C4800210DF070FD8A4800210DF074FDF4
:10301C0088484FF4C0610DF05FFD86480DF074FDDB
:10302C00FFF7A3BB83480DF095FC824804210DF0FB
:10303C0077FD804808210DF06DFD7E4840F205318A
:10304C000DF08CFD7B484FF4A0610DF087FD7948A5
:10305C004FF442710DF082FD764829460DF0F2FCDA
:10306C00744800210DF040FD724800210DF044FD24
:10307C0070484FF480610DF02FFD6E480DF044FD4B
:10308C00FFF773BB6B480DF065FC6A4804210DF02B
:10309C0047FD684808210DF03DFD664840F20531BA
:1030AC000DF05CFD63484FF4A0610DF057FD6148D5
:1030BC004FF442710DF052FD5F495E480DF0C2FCB9
:1030CC005C4800210DF010FD5A4800210DF014FD54
:1030DC00002158480DF000FD56480DF015FD5749DC
:1030EC00574A5848177000230B70574A57490370BA
:1030FC000B80138056485749574A0B604025056092
:10310C001370FFF735BB4A480DF024FC48480421E6
:10311C000DF006FD464808210DF0FCFC444840F239
:10312C0005310DF01BFD42484FF4A0610DF016FD6A
:10313C003F484FF442710DF011FD3D4829460DF00A
:10314C0081FC3B484FF48051FFF745BB38480DF0EC
:10315C0001FC374804210DF0E3FC354808210DF043
:10316C00D9FC334840F205310DF0F8FC30484FF4EF
:10317C00A0610DF0F3FC2E484FF442710DF0EEFC03
:10318C002B4829460DF05EFC294800210DF0ACFCC3
:10319C0027484FF400519AE625480DF0DBFB2448F4
:1031AC0004210DF0BDFC224808210DF0B3FC204891
:1031BC0040F205310DF0D2FC1D484FF4A0610DF02A
:1031CC00CDFC1B484FF442710DF0C8FC1848294641
:1031DC000DF038FC164800210DF086FC14484FF415
:1031EC000051BDE61D480DF0B5FB1C4804210DF047
:1031FC0097FC1A4808210DF08DFC184840F2053157
:10320C000DF0ACFC15484FF4A0610DF0A7FC134871
:10321C004FF442710DF0A2FC104839460DF012FC2F
:10322C000E4800210DF060FC0C480021FEF780BB1D
:10323C0000140140004C004040420F00716A002015
:10324C006D080020726A00208677002084770020A9
:10325C0070080020807700205A6A0020001001407E
:10326C00C5480DF077FBC44804210DF059FCC24849
:10327C0008210DF04FFCC04840F205310DF06EFCFA
:10328C00BD484FF4A0610DF069FCBB484FF442718E
:10329C000DF064FCB84829460DF0D4FBB64800216B
:1032AC000DF022FCB4480021FEF7E1B9B3480DF053
:1032BC0051FBB24804210DF033FCB04808210DF04D
:1032CC0029FCAE4840F205310DF048FCAB484FF4F8
:1032DC00A0610DF043FCA9484FF442710DF03EFC87
:1032EC00A64829460DF0AEFBA4484FF48051FFF7D9
:1032FC002EBAA1480DF02EFB9F4804210DF010FCB6
:10330C009D4808210DF006FC9B4840F205310DF05C
:10331C0025FC99484FF4A0610DF020FC96484FF421
:10332C0042710DF01BFC964993480DF08BFB9248B3
:10333C0000210DF0D9FB904800210DF0DDFB0021A0
:10334C008D480DF0C9FB8C480DF0DEFB8D498E4A83
:10335C008E48177000230B708D4A8E4903700B80BA
:10336C0013808D488D498E4A0B6040250560137083
:10337C00FFF742BA8B480DF0EDFA8A4804210DF0A4
:10338C00CFFB884808210DF0C5FB864840F205317B
:10339C000DF0E4FB83484FF4A0610DF0DFFB814896
:1033AC004FF442710DF0DAFB7E4829460DF04AFBD2
:1033BC007C4800210DF098FB7A4800210DF09CFB15
:1033CC0078484FF480610DF087FB76480DF09CFB3C
:1033DC00FFF799BA74480DF0BDFA734804210DF04B
:1033EC009FFB714808210DF095FB6F4840F20531A9
:1033FC000DF0B4FB6C484FF4A0610DF0AFFB6A48C4
:10340C004FF442710DF0AAFB674839460DF01AFBD8
:10341C00654800210DF068FB63484FF400510DF036
:10342C006BFB61484FF4C0610DF056FB5E480DF02C
:10343C006BFBFEF786BA5C480DF08CFA5A480421F7
:10344C000DF06EFB584808210DF064FB564840F215
:10345C0005310DF083FB54484FF4A0610DF07EFB59
:10346C0051484FF442710DF079FB4F4839460DF03D
:10347C00E9FA4D4800210DF037FB4B484FF4005151
:10348C000DF03AFB48484FF480610DF025FB46489F
:10349C000DF03AFBFEF755BA43480DF05BFA424883
:1034AC0004210DF03DFB404808210DF033FB3E4854
:1034BC0040F205310DF052FB3B484FF4A0610DF08A
:1034CC004DFB39484FF442710DF048FB36483946F4
:1034DC000DF0B8FA34480021FEF725BA32480DF049
:1034EC0039FA314804210DF01BFB2F4808210DF04F
:1034FC0011FB2D4840F205310DF030FB2A484FF4FA
:10350C00A0610DF02BFB28484FF442710DF026FB07
:10351C00254839460DF096FA23484FF480510DF0AA
:10352C00E3FA21480021FEF703BA14480DF012FA11
:10353C00124804210DF0F4FA104808210DF0EAFAB3
:10354C000E4840F205310DF009FB0C484FF4A06118
:10355C000DF004FB09484FF442710DF0FFFA0748D7
:10356C0029460DF06FFA054800210DF0BDFA03480D
:10357C000021FFF7F1B800BF00140140004C0040DF
:10358C0040420F00558B0020AD0A0020568B0020C6
:10359C006A98002068980020B00A002064980020E7
:1035AC003E8B00200048004000100140BE480DF04A
:1035BC00D1F9BD4804210DF0B3FABB4808210DF038
:1035CC00A9FAB94840F205310DF0C8FAB6484FF4E3
:1035DC00A0610DF0C3FAB4484FF442710DF0BEFA7D
:1035EC00B14829460DF02EFAAF4800210DF07CFAB7
:1035FC00AD484FF4005109E5AB480DF0ABF9AA48C2
:10360C0004210DF08DFAA84808210DF083FAA64884
:10361C0040F205310DF0A2FAA3484FF4A0610DF071
:10362C009DFAA1484FF442710DF098FA9E48294634
:10363C000DF008FA9C4800210DF056FA9A484FF408
:10364C00005113E599480DF085F9984804210DF0C7
:10365C0067FA964808210DF05DFA944840F205315E
:10366C000DF07CFA91484FF4A0610DF077FA8F4879
:10367C004FF442710DF072FA8D498C480DF0E2F95D
:10368C008A4800210DF030FA884800210DF034FAF8
:10369C00002186480DF020FA84480DF035FA854952
:1036AC00854A8648177000230B70854A854903703C
:1036BC000B80138084488549854A0B604025056042
:1036CC001370FFF723B983480DF044F981480421A6
:1036DC000DF026FA7F4808210DF01CFA7D4840F2C7
:1036EC0005310DF03BFA7B484FF4A0610DF036FA32
:1036FC0078484FF442710DF031FA764839460DF0A6
:10370C00A1F9744800210DF0EFF97248002186E60A
:10371C0070480DF01FF96F4804210DF001FA6D4847
:10372C0008210DF0F7F96B4840F205310DF016FA4F
:10373C0068484FF4A0610DF011FA66484FF44271DD
:10374C000DF00CFA634839460DF07CF96148002104
:10375C000DF0CAF95F48002192E65F480DF0FAF8C7
:10376C005D4804210DF0DCF95B4808210DF0D2F91D
:10377C00594840F205310DF0F1F957484FF4A0616A
:10378C000DF0ECF954484FF442710DF0E7F9524842
:10379C0029460DF057F9504800210DF0A5F94E4877
:1037AC004FF40051FFF70DBB4B480DF0D3F84A48CE
:1037BC0004210DF0B5F9484808210DF0ABF9464845
:1037CC0040F205310DF0CAF943484FF4A0610DF0F9
:1037DC00C5F941484FF442710DF0C0F93E482946F5
:1037EC000DF030F93C4800210DF07EF93A484FF4C9
:1037FC000051FFF716BB2D480DF0ACF82B480421F7
:10380C000DF08EF9294808210DF084F9274840F273
:10381C0005310DF0A3F925484FF4A0610DF09EF988
:10382C0022484FF442710DF099F9204829460DF0C9
:10383C0009F91E484FF480510DF056F91B484FF40E
:10384C000051FFF757B819480DF084F817480421B8
:10385C000DF066F9154808210DF05CF9134840F29B
:10386C0005310DF07BF911484FF4A0610DF076F99C
:10387C000E484FF442710DF071F90C4829460DF0C9
:10388C00E1F80A4800210DF02FF908484FF40051D7
:10389C000DF032F905484FF4C0610DF01DF90348E5
:1038AC000DF032F9FFF72FB8004C004000480040F3
:1038BC0040420F008D4900202D0600208E4900202B
:1038CC00A2560020A0560020300600209C56002056
:1038DC00764900200010014000140140BB480DF057
:1038EC0039F8BA4804210DF01BF9B84808210DF03D
:1038FC0011F9B64840F205310DF030F9B3484FF4E8
:10390C00A0610DF02BF9B1484FF442710DF026F97E
:10391C00AE4829460DF096F8AC4800210DF0E4F8BD
:10392C00AA484FF4005149E5A8480DF013F8A748F0
:10393C0004210DF0F5F8A54808210DF0EBF8A3488B
:10394C0040F205310DF00AF9A0484FF4A0610DF0DA
:10395C0005F99E484FF442710DF000F99B48294639
:10396C000DF070F89948002166E798480CF0F2FFCA
:10397C00964804210DF0D4F8944808210DF0CAF8AB
:10398C00924840F205310DF0E9F890484FF4A061EF
:10399C000DF0E4F88D484FF442710DF0DFF88B48D0
:1039AC0029460DF04FF889484FF480510DF09CF8E2
:1039BC0086480021FEF79EBF84480CF0CBFF83485D
:1039CC0004210DF0ADF8814808210DF0A3F87F48D3
:1039DC0040F205310DF0C2F87C484FF4A0610DF0B7
:1039EC00BDF87A484FF442710DF0B8F87748294683
:1039FC000DF028F8754800210DF076F87348002179
:103A0C0046E773480CF0A6FF714804210DF088F8C6
:103A1C006F4808210DF07EF86D4840F205310DF02D
:103A2C009DF86B484FF4A0610DF098F868484FF47E
:103A3C0042710DF093F8664839460DF003F864486E
:103A4C0000210DF051F8624800210DF055F8604846
:103A5C004FF4C0610DF040F85D480DF055F8FDF7DE
:103A6C0070BE5B480CF076FF594804210DF058F8F5
:103A7C00574808210DF04EF8554840F205310DF02D
:103A8C006DF853484FF4A0610DF068F850484FF4AE
:103A9C0042710DF063F84E4839460CF0D3FF4C4898
:103AAC0000210DF021F84A4800210DF025F8484876
:103ABC004FF480610DF010F845480DF025F8FDF736
:103ACC0040BE44480CF046FF424804210DF028F853
:103ADC00404808210DF01EF83E4840F205310DF02B
:103AEC003DF83C484FF4A0610DF038F839484FF4DC
:103AFC0042710DF033F8374829460CF0A3FF3548D6
:103B0C004FF48051FDF7AEBDB8F1030F3CF424AC7B
:103B1C00314BF7781C2101FB023100200F73087622
:103B2C001946824200F1010016D00D7BBD4213D123
:103B3C001C2602FB06F69D19D5F808C0C1F808C072
:103B4C00D5F804C0C1F804C09E5D0E702E690E61DC
:103B5C006D694D6100250D76032801F11C01E0D142
:103B6C00FCF7FABBB8F1030F3CF4F6AB1C211A4B73
:103B7C00F07802FB01F158541944002048600861A8
:103B8C0000200F7B08761946824200F1010016D006
:103B9C000D7BBD4213D11C2602FB06F69D19D5F8F0
:103BAC0008C0C1F808C0D5F804C0C1F804C09E5DB7
:103BBC000E702E690E616D694D6100250D7603281E
:103BCC0001F11C01E0D1FCF7C7BB00BF004800406D
:103BDC00004C00400014014090010020B8F1040F8B
:103BEC007CF6BAAB1C20B14B02FB00F01918185C28
:103BFC0020B3F57807EE905A3579042807EE105A61
:103C0C0044D09FEDAB6ADFEDAB6A9FEDAB5AB8EEDB
:103C1C00477AF8EE677A27EE067A67EE867A76EEC2
:103C2C00C76A81ED027AC5EE265AC1ED017AC1ED63
:103C3C00055A1C2101FB0231002008761C2101FBD6
:103C4C0002319A4B0F7B00201946824200F1010091
:103C5C0016D00D7BBD4213D11C2602FB06F69D1916
:103C6C00D5F808C0C1F808C0D5F804C0C1F804C024
:103C7C009E5D0E702E690E616D694D6100250D768D
:103C8C00032801F11C01E0D1FCF766BBF8EE677A62
:103C9C009FED877A67EE877A0020F5EE407AF1EE99
:103CAC0010FA18BF4FF07E5048600861C1E7B8F1B8
:103CBC00030F3CF451AB1C217C4B02FB01F1595C12
:103CCC00D1B1F0789FED7A7A07EE900AF8EE677A28
:103CDC00042967EE877A06D1F5EE407AF1EE10FAF8
:103CEC0018BFF7EE007A1C2101FB02310020C1ED58
:103CFC00017AC1ED047A08761C2101FB02316B4B71
:103D0C000F7B00201946824200F1010016D00D7B7A
:103D1C00BD4213D11C2602FB06F69D19D5F808C02E
:103D2C00C1F808C0D5F804C0C1F804C09E5D0E707F
:103D3C002E690E616D694D6100250D76032801F128
:103D4C001C01E0D1FCF708BB1C21584B02FB01F114
:103D5C005818595C29B14FF07E5141600161002126
:103D6C0001761C2101FB0231504B0F7B00201946C0
:103D7C00824200F1010016D00D7BBD4213D11C26EE
:103D8C0002FB06F69D19D5F808C0C1F808C0D5F895
:103D9C0004C0C1F804C09E5D0E702E690E616D6981
:103DAC004D6100250D76032801F11C01E0D1FCF7D3
:103DBC00D3BA42480CF0CEFD404804210CF0B0FEC2
:103DCC003E4808210CF0A6FE3C4840F205310CF0B0
:103DDC00C5FE3A484FF4A0610CF0C0FE37484FF4D2
:103DEC0042710CF0BBFE354839460CF02BFE3348C3
:103DFC0000210CF079FE31480021FDF799BC3048C8
:103E0C000CF0A8FD2E4804210CF08AFE2C48082149
:103E1C000CF080FE2A4840F205310CF09FFE284839
:103E2C004FF4A0610CF09AFE25484FF442710CF04F
:103E3C0095FE234839460CF005FE214800210CF074
:103E4C0053FE1F480021FDF7D5BC1D480CF082FD28
:103E5C001B4804210CF064FE194808210CF05AFE92
:103E6C00174840F205310CF079FE15484FF4A0616B
:103E7C000CF074FE12484FF442710CF06FFE1048B7
:103E8C0039460CF0DFFD0E4800210CF02DFE0C48DD
:103E9C0000210CF031FE0A484FF4C0610CF01CFEFE
:103EAC0007480CF031FEFDF7AEBC00BF90010020BE
:103EBC008180803B5C8F823F17B7D138004C00402B
:103ECC0000480040BA480CF045FDB94804210CF0FC
:103EDC0027FEB74808210CF01DFEB54840F205310D
:103EEC000CF03CFEB2484FF4A0610CF037FEB04829
:103EFC004FF442710CF032FEAD4839460CF0A2FD85
:103F0C00AB4800210CF0F0FDA94800210CF0F4FDA9
:103F1C00A7484FF480610CF0DFFDA5480CF0F4FDD0
:103F2C00FDF771BCA2480CF015FDA14804210CF062
:103F3C00F7FD9F4808210CF0EDFD9D4840F205313E
:103F4C000CF00CFE9A484FF4A0610CF007FE984858
:103F5C004FF442710CF002FE954839460CF072FD9C
:103F6C00934800210CF0C0FD91484FF4005190E7AC
:103F7C008F480CF0EFFC8E4804210CF0D1FD8C48DE
:103F8C0008210CF0C7FD8A4840F205310CF0E6FD23
:103F9C0087484FF4A0610CF0E1FD85484FF4427165
:103FAC000CF0DCFD824839460CF04CFD80480021B9
:103FBC000CF09AFD7E484FF40051A7E77C480CF0BA
:103FCC00C9FC7B4804210CF0ABFD794808210CF0AE
:103FDC00A1FD774840F205310CF0C0FD74484FF458
:103FEC00A0610CF0BBFD72484FF442710CF0B6FDB1
:103FFC006F4839460CF026FD6D480021FDF7F5BBE6
:10400C006B480CF0A7FC6A4804210CF089FD684849
:10401C0008210CF07FFD664840F205310CF09EFD46
:10402C0063484FF4A0610CF099FD61484FF4427164
:10403C000CF094FD5E4839460CF004FD5C484FF4DE
:10404C0080510CF051FD5A480021FDF7D3BB594863
:10405C000CF080FC574804210CF062FD55480821F7
:10406C000CF058FD534840F205310CF077FD5148E7
:10407C004FF4A0610CF072FD4E484FF442710CF0FD
:10408C006DFD4C4829460CF0DDFC4A4800210CF033
:10409C002BFD48480021FEF7A3BB47480CF05AFC07
:1040AC00454804210CF03CFD434808210CF032FD3E
:1040BC00414840F205310CF051FD3F484FF4A061EE
:1040CC000CF04CFD3C484FF442710CF047FD3A4863
:1040DC0029460CF0B7FC38484FF480510CF004FD25
:1040EC0035484FF40051FEF7EFBC33480CF032FC6E
:1040FC00314839460CF014FD2F4808210CF00AFD0C
:10410C002D4840F205310CF029FD2B484FF4A061ED
:10411C000CF024FD28484FF442710CF01FFD274988
:10412C0025480CF08FFC244800210CF0DDFC2248C3
:10413C0000210CF0E1FC00211F480CF0CDFC1E48C6
:10414C000CF0E2FC1E491F4A1F4882F80080002335
:10415C000B701E4A1E4903700B8013801D481E49AC
:10416C001E4A0B60402505601370FEF7B9BC12485F
:10417C000CF0F0FB104804210CF0D2FC0E48082186
:10418C000CF0C8FC0C4840F205310CF0E7FC0A4876
:10419C004FF4A0610CF0E2FC07484FF442710CF0B4
:1041AC00DDFC054829460CF04DFC0348002195E741
:1041BC0000480040001401400010014040420F0034
:1041CC00A9280020ED030020AA280020BE350020DD
:1041DC00BC350020F0030020B835002092280020C8
:1041EC00BB480CF0B7FBBA4804210CF099FCB8485A
:1041FC0008210CF08FFCB64840F205310CF0AEFCF7
:10420C00B3484FF4A0610CF0A9FCB1484FF44271D3
:10421C000CF0A4FCAE4829460CF014FCAC484FF44E
:10422C0080510CF061FCAA480021FEF74DBCA84857
:10423C000CF090FBA64804210CF072FCA448082159
:10424C000CF068FCA24840F205310CF087FCA04849
:10425C004FF4A0610CF082FC9D484FF442710CF0BD
:10426C007DFC9B4829460CF0EDFB994800210CF095
:10427C003BFC974800210CF03FFC95484FF4C06183
:10428C000CF02AFC92480CF03FFCFEF726BC904840
:10429C000CF060FB8E4804210CF042FC8C48082189
:1042AC000CF038FC8A4840F205310CF057FC884879
:1042BC004FF4A0610CF052FC85484FF442710CF0A5
:1042CC004DFC834829460CF0BDFB814800210CF0C5
:1042DC000BFC7F4800210CF00FFC7D484FF48061F3
:1042EC000CF0FAFB7A480CF00FFCFEF7F6BB93F8D7
:1042FC002810A9427EF49CABFEF785BB93F82810DE
:10430C00A9427CF487A8FCF771B871480CF022FB29
:10431C006F4804210CF004FC6D4808210CF0FAFBEA
:10432C006B4840F205310CF019FC69484FF4A06160
:10433C000CF014FC66484FF442710CF00FFC64480E
:10434C0029460CF07FFB624800210CF0CDFB604845
:10435C004FF400518FE75E480CF0FCFA5C480421E6
:10436C000CF0DEFB5A4808210CF0D4FB584840F204
:10437C0005310CF0F3FB56484FF4A0610CF0EEFB4A
:10438C0053484FF442710CF0E9FB514829460CF0AC
:10439C0059FB4F4800210CF0A7FB4D484FF400513E
:1043AC0099E74C480CF0D6FA4A4804210CF0B8FBBB
:1043BC00484808210CF0AEFB464840F205310CF0A1
:1043CC00CDFB44484FF4A0610CF0C8FB41484FF4BE
:1043DC0042710CF0C3FB3F4839460CF033FB3D48AF
:1043EC0000210CF081FB3B484FF40051FFF72DBB33
:1043FC0038480CF0AFFA374804210CF091FB3548E3
:10440C0008210CF087FB334840F205310CF0A6FB79
:10441C0030484FF4A0610CF0A1FB2E484FF44271D0
:10442C000CF09CFB2B4839460CF00CFB2948002166
:10443C000CF05AFB27484FF40051FFF736BB2548C8
:10444C000CF088FA234804210CF06AFB214808215F
:10445C000CF060FB1F4840F205310CF07FFB1D484F
:10446C004FF4A0610CF07AFB1A484FF442710CF037
:10447C0075FB184839460CF0E5FA16480021FDF793
:10448C0052B914480CF066FA124804210CF048FB9F
:10449C00104808210CF03EFB0E4840F205310CF0A0
:1044AC005DFB0C484FF4A0610CF058FB09484FF42D
:1044BC0042710CF053FB074839460CF0C3FA05481F
:1044CC004FF480510CF010FB02480021FDF730B97D
:1044DC0000100140004C004090F83130DB0700D454
:1044EC00704710B50DF0D0FC084B0446186060B155
:1044FC00074940F2E1720DF02FFB30B90246054935
:10450C002046BDE810400DF0BBBC10BD4CA20020F5
:10451C0028A000206D020008144A154B154970B5EF
:10452C0014681A8820460DF073FC00B170BD41224E
:10453C00062111480DF0BCF84122054601210F4817
:10454C000DF0B6F80646014628460DF087F92946C7
:10455C0020460DF011FC20460DF088FC28460DF08D
:10456C0055F93046BDE870400DF050B94CA2002012
:10457C00E40A002048A200208CA2002030A00020D9
:10458C002DE9F04FA24BA34AA348197892F800C02A
:10459C00047883B0002940F0A28064B19F4BA04CFA
:1045AC001D68236841F28832EB1A934200F268814D
:1045BC0003B0BDE8F08FBCF1000F40F0DA80974BF0
:1045CC00974D1E682B68F31A012BF1D995490A688F
:1045DC00002AEDD0DFF894E2934BBEF80000934F25
:1045EC00DFF88CB200F03F0833F818305C1CA4B232
:1045FC00A7FB04A94FEAD92909EB4909A4EB8924A3
:10460C00A4B2DFF870921BF80440A9FB04A904EBD8
:10461C00D91404F0FF04DFF8609219F804A009F82B
:10462C0004C0BAF1000F40F09A80DFF850A21AF8DB
:10463C000890B9F1000F00F092807D4A7D4812F885
:10464C00082000924FF4804101930BF079FD009A01
:10465C00002A00F05A81019B00961946764B1846A9
:10466C0003EB420CA7FB01E6F60A06EB4606A1EBB0
:10467C00862601311BF8066020F8026B8445F1D1C7
:10468C00009E91B26D4F6E48F9610621BB600AF035
:10469C00E9FC3A466A4806210AF016FD68480621EC
:1046AC000AF05CFD0522664806210AF06BFD6548A0
:1046BC0080210CF03FFA1022614806210AF06EFDB1
:1046CC0006215F480AF054FD5F4A60492E600123C1
:1046DC0009F1FF390AF808900B55137068E75C4A2A
:1046EC00544814784FF4804100221A700BF028FDC6
:1046FC00E243D2B2574B5848995C4F4B805C5C807C
:10470C0081F03C024D4C9A800425D880AF224C4855
:10471C00A3600621E5611A800AF0A4FC22464848F1
:10472C0006210AF0D1FC464806210AF017FD0522A5
:10473C00434806210AF026FD424880210CF0FAF984
:10474C0010223F4806210AF029FD3D4806210AF0B7
:10475C000FFD3D4B01221A7003B0BDE8F08F3F4CAA
:10476C002368013A013001330A60AEF8000023607F
:10477C001EE73B4B2F481D7814704FF480410BF013
:10478C00DFFC384B1B78AB4240F2B980364A3148DB
:10479C0005EB850302EB4302274B56785E8086F0CF
:1047AC003F069478815D9C804C402B49D7788E5D78
:1047BC00DF8084F03F047E40075D0C5DDD81774037
:1047CC0016791E817440C65DCF5D664054795C815C
:1047DC006740845D92798E5D9A817C405640025D83
:1047EC000C5D72406540845C8A5C6C400A25005DFF
:1047FC00095DAA2442401C800920082423F81420B7
:10480C000E4C23F81010A3600D48E561062183E7D8
:10481C00558B0020568B0020AD0A002094A200205E
:10482C00588B002064980020EC9A0020ABAAAAAA0E
:10483C00AC9A002000040240709B0020C00A0020AB
:10484C000064024000140140608B0020AC990020F1
:10485C00AB0A00206C5501086C540108B00A00200A
:10486C00AC0A00203A890020447F00206898002080
:10487C00648C002081808080AC9800206C98002093
:10488C00234B24481E784FF480410BF059FC224BEB
:10489C0022485E80CC2286F0BF011A80204A214E2D
:1048AC00525CB36082F015029A801F4A525CDA8027
:1048BC0006210423F3610AF0D5FB32461748062182
:1048CC000AF002FC154806210AF048FC05221348A0
:1048DC0006210AF057FC154880210CF02BF9102208
:1048EC000E4806210AF05AFC0C4806210AF040FC3E
:1048FC000F4B256001221A7003B0BDE8F08FFF2129
:10490C00054B022501200A4678E7034B1146B9E610
:10491C00AA0A002000040240709B002000640240A0
:10492C006C550108C00A00206C54010800140140A9
:10493C00608B002070B5244A244B1078244A1B68E5
:10494C001568244A244C1278E271002160F30701A7
:10495C0063F30F21180A60F31741204A180C60F317
:10496C001F611B0EC4F80210A37112881C494FF46E
:10497C00D073284623800DF04BFA18B1194B012245
:10498C001A7070BD4122062117480CF091FE41228D
:10499C000346082120461C460CF08AFE01460646BA
:1049AC0020460CF05BFF214628460DF0E5F9284621
:1049BC000DF05CFA20460CF029FF30460CF026FF77
:1049CC00084B01221A7070BDB80A0020B40A0020EE
:1049DC004CA200206C9B00204C8B0020E40A002091
:1049EC0048A20020548B00208CA200202DE9F04F0F
:1049FC00B34BB44AB448197892F800C0047883B029
:104A0C00002940F0A28064B1B04BB14D1E682B68F8
:104A1C0041F28832F31A934200F28A8103B0BDE866
:104A2C00F08FBCF1000F40F0DA80A84BA84D1E6847
:104A3C002B68F31A012BF1D9A6490A68002AEDD08C
:104A4C00DFF8D8E2A44BBEF80000A44FDFF8D0B2D8
:104A5C0000F03F0833F818305C1CA4B2A7FB04A983
:104A6C004FEAD92909EB4909A4EB8924A4B2DFF850
:104A7C00B4921BF80440A9FB04A904EBD91404F06C
:104A8C00FF04DFF8A49219F804A009F804C0BAF1E5
:104A9C00000F40F09A80DFF894A21AF80890B9F150
:104AAC00000F00F092808E4A8E4812F80820009277
:104ABC004FF4805101930BF043FB009A002A00F055
:104ACC007C81019B00961946874B184603EB420CE0
:104ADC00A7FB01E6F60A06EB4606A1EB862601319A
:104AEC001BF8066020F8026B8445F1D1009E91B250
:104AFC007E4F7F48F9610421BB600AF0B3FA3A4655
:104B0C007B4804210AF0E0FA794804210AF026FBDC
:104B1C000422114676480AF035FB764880210CF0C9
:104B2C0009F81022724804210AF038FB042170485D
:104B3C000AF01EFB704A71492E60012309F1FF39FE
:104B4C000AF808900B55137068E76D4A654815789C
:104B5C004FF4805100221A700BF0F2FAEA43D2B2F1
:104B6C00684B6948995C604B805C5D8004245F4DA8
:104B7C00D88081F03C029A802146AF225C48AB6021
:104B8C001A80EC610AF06EFA2A46214658480AF05F
:104B9C009BFA214656480AF0E1FA2246214654482F
:104BAC000AF0F0FA534880210BF0C4FF1022214682
:104BBC004F480AF0F3FA4E4821460AF0D9FA4E4B08
:104BCC0001221A7003B0BDE8F08F504C2368013AF3
:104BDC00013001330A60AEF8000023601EE74C4B35
:104BEC0040481D7814704FF480510BF0A9FA494BD2
:104BFC001B78AB4240F2DB80474A424805EB850309
:104C0C0002EB4302384B56785E8086F03F06947870
:104C1C00815D9C804C403C49D7788E5DDF8084F070
:104C2C003F047E40075D0C5DDD81774016791E8167
:104C3C007440C65DCF5D664054795C816740845D8D
:104C4C0092798E5D9A817C405640025D0C5D72407B
:104C5C006540845C8A5C6C400A25005D095DAA2471
:104C6C0042401C800920082423F814201F4C23F8F0
:104C7C0010101F48A3600421E5610AF0F3F92246E5
:104C8C001B4804210AF020FA194804210AF066FA9C
:104C9C000422114616480AF075FA164880210BF0CA
:104CAC0049FF1022124804210AF078FA1048042116
:104CBC000AF05EFA104B01221A7003B0BDE8F08FB7
:104CCC00716A0020726A00206D08002094A20020F6
:104CDC00746A002080770020087A0020ABAAAAAA68
:104CEC00C8790020000802408C7A0020800800203F
:104CFC0000600240004C00407C6A0020C878002014
:104D0C006B0800206C5501086C54010870080020D9
:104D1C006C08002056680020605E0020847700201C
:104D2C00806B002081808080C877002088770020ED
:104D3C00234B24481C78244F4FF480510BF000FA7D
:104D4C00224B23485C80CC221A8084F0BF01214A7C
:104D5C00BB60525C82F015029A801F4A0424525C9C
:104D6C00DA802146FC610AF07DF93A462146184862
:104D7C000AF0AAF9214616480AF0F0F92246214613
:104D8C0013480AF0FFF9154880210BF0D3FE1022CE
:104D9C0021460F480AF002FA0D4821460AF0E8F9BC
:104DAC000F4B2E6001221A7003B0BDE8F08FFF216B
:104DBC00064B022501200A4656E7044B114697E69E
:104DCC006A08002000080240800800208C7A00202D
:104DDC00006002406C5501086C540108004C004006
:104DEC007C6A002070B5244A244B1078244A1B6836
:104DFC001568244A244C1278E271002160F30701F3
:104E0C0063F30F21180A60F31741204A180C60F362
:104E1C001F611B0EC4F80210A37112881C494FF4B9
:104E2C002873284623800CF0F3FF18B1194B01228C
:104E3C001A7070BD4122062117480CF039FC412232
:104E4C000346082120461C460CF032FC014606465F
:104E5C0020460CF003FD214628460CF08DFF284619
:104E6C000DF004F820460CF0D1FC30460CF0CEFCD2
:104E7C00084B01221A7070BD7808002074080020BD
:104E8C004CA20020887A0020686A0020E40A0020E6
:104E9C0048A20020706A00208CA200202DE9F04F5F
:104EAC00A24BA34AA348197892F800C0047883B0A7
:104EBC00002940F0A28064B19F4BA04C1D68236870
:104ECC0041F28832EB1A934200F2688103B0BDE8DC
:104EDC00F08FBCF1000F40F0DA80974B974D1E68B5
:104EEC002B68F31A012BF1D995490A68002AEDD0E9
:104EFC00DFF894E2934BBEF80000934FDFF88CB2CE
:104F0C0000F03F0833F818305C1CA4B2A7FB04A9CE
:104F1C004FEAD92909EB4909A4EB8924A4B2DFF89B
:104F2C0070921BF80440A9FB04A904EBD91404F0FB
:104F3C00FF04DFF8609219F804A009F804C0BAF174
:104F4C00000F40F09A80DFF850A21AF80890B9F1DF
:104F5C00000F00F092807D4A7D4812F808200092E4
:104F6C004FF4004101930BF0EBF8009A002A00F08B
:104F7C005A81019B00961946764B184603EB420C5E
:104F8C00A7FB01E6F60A06EB4606A1EB86260131E5
:104F9C001BF8066020F8026B8445F1D1009E91B29B
:104FAC006D4F6E48F9610321BB600AF05BF83A461D
:104FBC006A4803210AF088F8684803210AF0CEF801
:104FCC000422664803210AF0DDF8654880210BF0C5
:104FDC00B1FD1022614803210AF0E0F803215F487B
:104FEC000AF0C6F85F4A60492E60012309F1FF39C7
:104FFC000AF808900B55137068E75C4A544814780B
:10500C004FF4004100221A700BF09AF8E243D2B22E
:10501C00574B5848995C4F4B805C5C8081F03C024C
:10502C004D4C9A800425D880AF224C48A3600321B4
:10503C00E5611A800AF016F82246484803210AF066
:10504C0043F8464803210AF089F804224348032117
:10505C000AF098F8424880210BF06CFD10223F4872
:10506C0003210AF09BF83D4803210AF081F83D4BDF
:10507C0001221A7003B0BDE8F08F3F4C2368013A4F
:10508C00013001330A60AEF8000023601EE73B4B91
:10509C002F481D7814704FF400410BF051F8384B29
:1050AC001B78AB4240F2B980364A314805EB850398
:1050BC0002EB4302274B56785E8086F03F069478CD
:1050CC00815D9C804C402B49D7788E5DDF8084F0CD
:1050DC003F047E40075D0C5DDD81774016791E81B3
:1050EC007440C65DCF5D664054795C816740845DD9
:1050FC0092798E5D9A817C405640025D0C5D7240C7
:10510C006540845C8A5C6C400A25005D095DAA24BC
:10511C0042401C800920082423F814200E4C23F84C
:10512C001010A3600D48E561032183E78D49002031
:10513C008E4900202D06002094A2002090490020CA
:10514C009C56002024590020ABAAAAAAE45800209F
:10515C0000040240A85900204006002000600240D4
:10516C000048004098490020E45700202B060020FE
:10517C006C5501086C540108300600202C060020E8
:10518C00724700207C3D0020A05600209C4A002045
:10519C0081808080E4560020A4560020234B2448B4
:1051AC001E784FF400410AF0CBFF224B22485E8060
:1051BC00CC221A8086F0BF01204A214E525CB3608B
:1051CC0082F015029A801F4A0427525CDA80032170
:1051DC00F76109F047FF32461748032109F074FFC5
:1051EC001548032109F0BAFF3A461348032109F088
:1051FC00C9FF154880210BF09DFC10220E4803219D
:10520C0009F0CCFF0C48032109F0B2FF0F4B2560CD
:10521C0001221A7003B0BDE8F08FFF21054B022567
:10522C0001200A4678E7034B1146B9E62A0600200E
:10523C0000040240A8590020006002406C5501088F
:10524C00400600206C54010800480040984900209A
:10525C0070B5244A244B1078244A1B681568244ADC
:10526C00244C1278E271002160F3070163F30F21E3
:10527C00180A60F31741204A180C60F31F611B0ECB
:10528C00C4F80210A37112881C494FF468732846A5
:10529C0023800CF0BDFD18B1194B01221A7070BDA2
:1052AC004122062117480CF003FA4122034608213B
:1052BC0020461C460CF0FCF90146064620460CF034
:1052CC00CDFA214628460CF057FD28460CF0CEFDB1
:1052DC0020460CF09BFA30460CF098FA084B012251
:1052EC001A7070BD38060020340600204CA2002035
:1052FC00A459002084490020E40A002048A2002080
:10530C008C4900208CA200202DE9F04FA14BA24A21
:10531C00A248197892F800C0047883B0002940F0B4
:10532C00A18064B19E4B9F4C1D68236841F288326A
:10533C00EB1A934200F2668103B0BDE8F08FBCF12A
:10534C00000F40F0D880964B964D1E682B68F31AD0
:10535C00012BF1D994490A68002AEDD0DFF890E2CC
:10536C00924BBEF80000924FDFF888B200F03F0875
:10537C0033F818305C1CA4B2A7FB04A94FEAD92956
:10538C0009EB4909A4EB8924A4B2DFF86C921BF851
:10539C000440A9FB04A904EBD91404F0FF04DFF8C2
:1053AC005C9219F804A009F804C0BAF1000F40F09F
:1053BC009880DFF84CA21AF80890B9F1000F00F0B1
:1053CC0090807C4A7C4812F80820009202210193BC
:1053DC000AF0B6FE009A002A00F05881019B009654
:1053EC001946764B184603EB420CA7FB01E6F60A6E
:1053FC0006EB4606A1EB862601311BF8066020F869
:10540C00026B8445F1D1009E91B26D4F6D48F961EC
:10541C000721BB6009F026FE3A466A48072109F0CD
:10542C0053FE6848072109F099FE042265480721BC
:10543C0009F0A8FE644880210BF07CFB1022614827
:10544C00072109F0ABFE07215E4809F091FE5F4A87
:10545C005F492E60012309F1FF390AF808900B55BA
:10546C00137069E75B4A54481478022100221A70C1
:10547C000AF066FEE243D2B2574B5848995C4F4B48
:10548C00805C5C8081F03C024D4C9A800425D88075
:10549C00AF224C48A3600721E5611A8009F0E2FDB8
:1054AC0022464848072109F00FFE4648072109F01B
:1054BC0055FE04224348072109F064FE424880212E
:1054CC000BF038FB10223F48072109F067FE3D48DE
:1054DC00072109F04DFE3D4B01221A7003B0BDE8C7
:1054EC00F08F3F4C2368013A013001330A60AEF86B
:1054FC000000236020E73B4B2F481D7814700221DD
:10550C000AF01EFE384B1B78AB4240F2B980374A8A
:10551C00314805EB850302EB4302284B56785E803D
:10552C0086F03F069478815D9C804C402B49D7785F
:10553C008E5DDF8084F03F047E40075D0C5DDD8175
:10554C00774016791E817440C65DCF5D66405479F4
:10555C005C816740845D92798E5D9A817C40564077
:10556C00025D0C5D72406540845C8A5C6C400A256F
:10557C00005D095DAA2442401C800920082423F800
:10558C0014200F4C23F81010A3600E48E56107217E
:10559C0084E700BFA9280020AA280020ED030020E2
:1055AC0094A20020AC280020B83500204038002000
:1055BC00ABAAAAAA00380020000C0240C438002074
:1055CC00000400200064024000100140B4280020B8
:1055DC0000370020EB0300206C5501086C540108C7
:1055EC00F0030020EC0300208E260020981C0020E5
:1055FC00BC350020B8290020818080800036002036
:10560C00C0350020234B24481E7802210AF098FD57
:10561C00224B23485E80CC221A8086F0BF01214A9F
:10562C00214E525CB36082F015029A801F4A042707
:10563C00525CDA800721F76109F014FD32461848F4
:10564C00072109F041FD1648072109F087FD3A466C
:10565C001348072109F096FD154880210BF06AFAD2
:10566C0010220F48072109F099FD0D48072109F078
:10567C007FFD104B256001221A7003B0BDE8F08F3E
:10568C00FF21064B022501200A4678E7034B114601
:10569C00BBE600BFEA030020000C0240C438002027
:1056AC00006402406C550108000400206C54010891
:1056BC0000100140B428002070B5244A244B107807
:1056CC00244A1B681568244A244C1278E271002184
:1056DC0060F3070163F30F21180A60F31741204AA6
:1056EC00180C60F31F611B0EC4F80210A371128812
:1056FC001C494FF49463284623800CF089FB18B1A5
:10570C00194B01221A7070BD4122062117480BF06B
:10571C00CFFF41220346082120461C460BF0C8FF50
:10572C000146064620460CF099F8214628460CF016
:10573C0023FB28460CF09AFB20460CF067F8304609
:10574C000CF064F8084B01221A7070BDF8030020AD
:10575C00F40300204CA20020C0380020A028002018
:10576C00E40A002048A20020A82800208CA20020D7
:10577C002DE9F04F83B00AF0A3FA01200AF0B2FB36
:10578C0002200AF0AFFB10200AF0ACFB40200AF01C
:10579C00A9FBDFF858928C4F8C4E80200AF0A2FBAC
:1057AC004FF0FF0858200AF0A7FA09F1C80A0AF0CE
:1057BC0099FA1025444621E0B15C17F802804C4060
:1057CC000AF07EFA01200AF08DFB02200AF08AFB17
:1057DC0010200AF087FB40200AF084FB80200AF09E
:1057EC0081FB7B480121281809F102090AF004FB0E
:1057FC000AF078FACA4505F1080549D099F800B0C5
:10580C008BEA0404325D3C5D88EA02080AF058FA1F
:10581C0001200AF067FB02200AF064FB10200AF05A
:10582C0061FB40200AF05EFB80200AF05BFB6948BC
:10583C00594628180AF0E0FA0AF054FA99F80110BF
:10584C0088F001020029B7D116F8082001915440C4
:10585C0017F808800AF034FA01200AF043FB022002
:10586C000AF040FB10200AF03DFB40200AF03AFB06
:10587C0080200AF037FB56480199281809F10209D3
:10588C000AF0BAFA0AF02EFACA4505F10805B5D1A4
:10589C00DFF85C91504D99F800A08AEA040309F1F5
:1058AC001009F45C17F803B00AF00AFA01200AF0A8
:1058BC0019FB02200AF016FB10200AF013FB402003
:1058CC000AF010FB80200AF00DFB5146281F0AF04D
:1058DC0093FA0AF007FA19F80FAC84EA0A0388EA7B
:1058EC00030316F80380FC5C0AF0EAF901200AF0C5
:1058FC00F9FA02200AF0F6FA10200AF0F3FA402026
:10590C000AF0F0FA80200AF0EDFA514628460AF027
:10591C0073FA0AF0E7F919F80CAC8BEA08038AEA77
:10592C000303F25C17F8038054400AF0C9F9012014
:10593C000AF0D8FA02200AF0D5FA10200AF0D2FAAE
:10594C0040200AF0CFFA80200AF0CCFA5146281DEC
:10595C000AF052FA0AF0C6F9204B0C359D429AD146
:10596C000AF0AEF901200AF0BDFA02200AF0BAFAE8
:10597C0010200AF0B7FA40200AF0B4FA80200AF09E
:10598C00B1FA214616480AF037FA0AF0ABF90AF0D8
:10599C0097F901200AF0A6FA02200AF0A3FA1020C7
:1059AC000AF0A0FA40200AF09DFA80200AF09AFA38
:1059BC0041460C480AF020FA0AF094F90A4B0022EE
:1059CC001A7003B0BDE8F08F6C5401086C550108D7
:1059DC00FCFF0D08F8FF0D082C030E08A4030E089D
:1059EC0000000E0804000E089A0D00201C1A00205E
:1059FC009C0000202DE9F04F9D4A9E4C12782368A4
:105A0C0085B002929C4A12780192002B40F04281A0
:105A1C0002F03F0823688BB9DDE901329A4207D9BD
:105A2C0003F1010B944B83F800B005B0BDE8F08F87
:105A3C00924B00221A7005B0BDE8F08FDFF850923F
:105A4C008F4DB9F800208F4E8F4F9048013B23604B
:105A5C00A5FB02131B0903EB4303A2EBC3039BB28D
:105A6C0003EB430301324FF0010AA9F80020F218AE
:105A7C00514606F803A082F8018082F802A00AF0D1
:105A8C0051FF3B6853443B602368002BC4D0B9F8EA
:105A9C0000207E48013B2360A5FB02131B0903EB8E
:105AAC004303A2EBC3039BB203EB4303524406F83C
:105ABC0003A03344A9F800205146022283F8018048
:105ACC009A700AF02FFF3B6853443B602368002B0D
