:020000040800F2
:100000000000032021160108651601086516010885
:100010006516010865160108651601080000000054
:10002000000000000000000000000000651601084C
:10003000651601080000000065160108B9250008D2
:1000400065160108651601086516010865160108A0
:100050006516010865160108651601086516010890
:100060006516010865160108651601086516010880
:100070006516010825CC00086516010865160108FB
:100080006516010865160108651601086516010860
:100090006516010865160108651601086516010850
:1000A0006516010865160108651601086516010840
:1000B0006516010865160108651601086516010830
:1000C0006516010865160108651601086516010820
:1000D0006516010841A40008C9250008F59000082C
:1000E0006516010865160108651601086516010800
:1000F00065160108651601086516010865160108F0
:1001000065160108651601086516010865160108DF
:10011000A97D0008651601086516010839BC0008AC
:100120006516010885D400086516010865160108E2
:1001300065160108651601086516010865160108AF
:10014000651601086516010865160108651601089F
:100150006516010865160108651601085D6A000844
:10016000651601086516010865160108651601087F
:1001700065160108651601086516010800000000F3
:10018000651601086516010865160108651601085F
:1001900065160108651601086516010800000000D3
:0C01A000651601086516010865160108C7
:1001AC0010B5054C237833B9044B13B10448AFF3A5
:1001BC0000800123237010BD5C0A002000000000A9
:1001CC00A818010808B5034B1BB103490348AFF34A
:1001DC00008008BD00000000600A0020A81801087B
:1001EC0053B94AB9002908BF00281CBF4FF0FF3192
:1001FC004FF0FF3000F074B9ADF1080C6DE904CE8E
:10020C0000F006F8DDF804E0DDE9022304B07047E5
:10021C002DE9F047089D04468E46002B4DD18A42AD
:10022C00944669D9B2FA82F252B101FA02F3C2F1E0
:10023C00200120FA01F10CFA02FC41EA030E944071
:10024C004FEA1C48210CBEFBF8F61FFA8CF708FB92
:10025C0016E341EA034306FB07F199420AD91CEB6A
:10026C00030306F1FF3080F01F81994240F21C819C
:10027C00023E63445B1AA4B2B3FBF8F008FB1033E4
:10028C0044EA034400FB07F7A7420AD91CEB040419
:10029C0000F1FF3380F00A81A74240F207816444E9
:1002AC00023840EA0640E41B00261DB1D44000236E
:1002BC00C5E900433146BDE8F0878B4209D9002DD2
:1002CC0000F0EF800026C5E9000130463146BDE85C
:1002DC00F087B3FA83F6002E4AD18B4202D38242C6
:1002EC0000F2F980841A61EB030301209E46002D75
:1002FC00E0D0C5E9004EDDE702B9FFDEB2FA82F2CA
:10030C00002A40F09280A1EB0C014FEA1C471FFA27
:10031C008CFE0126200CB1FBF7F307FB131140EA0E
:10032C0001410EFB03F0884208D91CEB010103F1DB
:10033C00FF3802D2884200F2CB804346091AA4B29D
:10034C00B1FBF7F007FB101144EA01440EFB00FE71
:10035C00A64508D91CEB040400F1FF3102D2A645D6
:10036C0000F2BB800846A4EB0E0440EA03409CE775
:10037C00C6F12007B34022FA07FC4CEA030C20FA22
:10038C0007F401FA06F31C43F9404FEA1C4900FA42
:10039C0006F3B1FBF9F8200C1FFA8CFE09FB1811BF
:1003AC0040EA014108FB0EF0884202FA06F20BD932
:1003BC001CEB010108F1FF3A80F08880884240F282
:1003CC008580A8F102086144091AA4B2B1FBF9F0C6
:1003DC0009FB101144EA014100FB0EFE8E4508D9C1
:1003EC001CEB010100F1FF346CD28E456AD9023846
:1003FC00614440EA0840A0FB0294A1EB0E01A1422B
:10040C00C846A64656D353D05DB1B3EB080261EB98
:10041C000E0101FA07F722FA06F3F1401F43C5E972
:10042C00007100263146BDE8F087C2F12003D840A8
:10043C000CFA02FC21FA03F3914001434FEA1C47EA
:10044C001FFA8CFEB3FBF7F007FB10360B0C43EADC
:10045C00064300FB0EF69E4204FA02F408D91CEB8C
:10046C00030300F1FF382FD29E422DD9023863448A
:10047C009B1B89B2B3FBF7F607FB163341EA03412A
:10048C0006FB0EF38B4208D91CEB010106F1FF3879
:10049C0016D28B4214D9023E6144C91A46EA004670
:1004AC0038E72E46284605E70646E3E61846F8E602
:1004BC004B45A9D2B9EB020864EB0C0E0138A3E74B
:1004CC004646EAE7204694E74046D1E7D0467BE72C
:1004DC00023B614432E7304609E76444023842E7A4
:1004EC00704700BF1E4A2DE9F8431368002B34D027
:1004FC001C4D1D492C88DFF890E0013B136004F083
:10050C001F031A4AC85C32F81310194B00221A80C8
:10051C00AEF8002098B1DFF87480164F164E4FF4E9
:10052C00967CA6FB01935B090CFB13130131FB5C5E
:10053C0028F8123001329042F3D1AEF8000040F2AC
:10054C0007310E4811F024F80D4A0E4B0121197099
:10055C0013680C440B442C801360BDE8F88300BF77
:10056C00D0760020CC760020D87600208C76002027
:10057C00881100205C750020B5814E1B00440040A2
:10058C00480A0020387900208A110020300F002002
:10059C002DE9F04FA64B1C7883B05CB1A54BA64C53
:1005AC001D68236841F28832EB1A934270D803B06D
:1005BC00BDE8F08FA14B1D78002D43D1A04A1378D4
:1005CC00002B40F08C809B4A9B4C15682268AA1A21
:1005DC00012AECD99B490A68002AE8D0DFF8B0E27E
:1005EC00994EBEF8000000F01F0816F80890B9F1FB
:1005FC00000F1CD0954EDFF89CA236F818707E1CAC
:10060C00C6F308063AF816C0914EA6FB0CB6F609CE
:10061C00C6EB0626ACEB060CDFF87CB21FFA8CFCA2
:10062C001BF80C60002E00F0CA800BF80C30013A5D
:10063C000A60884A136801300133AEF80000136079
:10064C002560B4E7844A854815781C704FF48041C6
:10065C0010F082FAEA43D2B2814B8248995C824B09
:10066C00865C82485D8081F03C02814D0480AF2124
:10067C0019809A80DE8004227E482A8040F207315D
:10068C0010F086FF7C4B01221A7003B0BDE8F08F8E
:10069C007A4B72481E784FF4804110F05DFA734B20
:1006AC00744800221A80704BCC2286F0BF011A804D
:1006BC006B4A5E80525C6E4E82F015029A80694ADB
:1006CC00525CDA8040F207310423338010F060FF73
:1006DC00694B256001221A7003B0BDE8F08F684B9E
:1006EC005E481C7815704FF4804110F035FA654B5C
:1006FC005F491B785D4A0D80A342158059D9544B34
:10070C00614A574DA3FB040304EBD31303F0FF031F
:10071C0003EB830302EB4302534B57785F8087F064
:10072C003F07AA2096781880E85D9E8046404D4889
:10073C0092F803C0C75DA3F806C086F03F068CEAAA
:10074C00070715F806C0865D92F805E0DC818CEA97
:10075C00070C17791F817E4015F80C7010F80CC02F
:10076C00A3F80AE077409679EA5DC75D9E818CEA32
:10077C000E0C82EA0C027740AE5C825C7E405440E8
:10078C00AA5D5440825D2D5D045D6A400A200926F5
:10079C00082523F81520088023F81640354840F228
:1007AC00073110F0F5FE344B01221A7003B0BDE88E
:1007BC00F08FFF242C4B022001262246E9E7334B15
:1007CC00264833F818B04FF4804110F0C5F9284989
:1007DC00264B0E80CBF308001E80D0B1224BDFF8E5
:1007EC00BCC001914FF4967BB2B2ACFB021E4FEA37
:1007FC005E1E0BFB1E22C7F3080E013692B23AF8AE
:10080C001EE023F812E0B04207F10107ECD1019988
:10081C000880184840F2073110F0BAFE0A4B09F173
:10082C00FF3903F80890144B01221A7008E700BF37
:10083C00E80300204C750020483900203E39002088
:10084C003F390020382B0020802B0020F42A002078
:10085C0081808080DC010020CF0100200004024058
:10086C00E81D0108E81C0108E813002040160020D0
:10087C0042160020001401404C390020D101002008
:10088C00D0010020AA350020B42B0020402B0020E2
:10089C00342B0020F0250020F0290020B5814E1BC0
:1008AC002DE9F04F9A4B9B491A689B4B0C789B484F
:1008BC009C704FF4D0711980994997B00E780168EB
:1008CC000296D5B2C2F30727DE71C2F30746120EA9
:1008DC00DD701F715E7101929A71002900F0128116
:1008EC000139016084F01A028E488F49835C0A94A6
:1008FC0085F0EA0463408A5CC45CCB5C0B957A405F
:10090C0062407340845C8D5C019A0D9663406A4032
:10091C00C55CCC5C029E854B0C9755407440465D83
:10092C001A884D5D824B744002F1040911F804C021
:10093C00005DCDF83CC002F1030C1FFA8CFC02F1F7
:10094C0005086840541CCDF810C01FFA89FC02F150
:10095C00020E971D0E90CDF814C0A0B21FFA88FCA1
:10096C000446D61D1FFA8EF0CDF818C01FFA87FC6E
:10097C000390674602F108001FFA86FC664602F1F6
:10098C0009051FFA80FC02F10A01CDF81CC01FFA00
:10099C0085FCCDF820C01FFA81FCCDF824C0A3FB48
:1009AC0002C14D09CDE9105403980499059D129785
:1009BC00A3FB0589079D1396A3FB00CEA3FB04C4E0
:1009CC00A3FB018C0699A3FB05B0A3FB01B841095D
:1009DC00149108991198A3FB01B502F10B0A09991E
:1009EC001FFA8AFAA3FB07B7A3FB06B66409A3FB9D
:1009FC00011BA3FB0A134FF4967101FB140403981B
:100A0C004FEA5E1E01FB1E0E04984FEA5C1C01FBB4
:100A1C001C0C05984FEA591901FB190906984FEA65
:100A2C00581801FB180812987F0901FB1707139837
:100A3C005B09760901FB160615930798149B01FBBD
:100A4C00130005900898159B6D0901FB1505099875
:100A5C004FEA5B1B01FB1B0B109801FB13A301FB63
:100A6C0010211FFA88F01FFA89FA03901FFA86F9F1
:100A7C00BDF814002F4E05902F481FFA87F83788C1
:100A8C0006682C48CDF8108007F01F080137078046
:100A9C002A4F0136069627F81820244F284E039823
:100AAC0089B20C32A4B23A80A52777541FFA8EFE75
:100ABC00082131551FFA8CFCA02106F80E100121DB
:100ACC0006F80C100A9C0B9906F80A40315404984D
:100ADC000D9C05990C9F3754ADB206F80940019C4A
:100AEC0074549BB2029971551FFA8BFB154A0E9CDC
:100AFC000F9906F80B40F1540C2302F808300E4BFA
:100B0C00069E1E60104B01221A7017B0BDE8F08FC4
:100B1C00D4010020D8010020A02B0020480A00207E
:100B2C00EE250020E81D0108E81C0108887600204D
:100B3C00B5814E1BD4760020D07600208C76002018
:100B4C005C750020D8760020403900202DE9F04F4C
:100B5C00A64B1C7883B05CB1A54BA64C1D682368D2
:100B6C0041F28832EB1A934270D803B0BDE8F08F93
:100B7C00A14B1D78002D43D1A04A1378002B40F0D7
:100B8C008C809B4A9B4C15682268AA1A012AECD9C6
:100B9C009B490A68002AE8D0DFF8B0E2994EBEF80B
:100BAC00000000F01F0816F80890B9F1000F1CD0D7
:100BBC00954EDFF89CA236F818707E1CC6F308061A
:100BCC003AF816C0914EA6FB0CB6F609C6EB0626F3
:100BDC00ACEB060CDFF87CB21FFA8CFC1BF80C603B
:100BEC00002E00F0CA800BF80C30013A0A60884ADB
:100BFC00136801300133AEF8000013602560B4E7D0
:100C0C00844A854815781C704FF480510FF0A4FF6E
:100C1C00EA43D2B2814B8248995C824B865C824813
:100C2C005D8081F03C02814D0480AF2119809A8057
:100C3C00DE8004227E482A8040F2073110F0A8FCA6
:100C4C007C4B01221A7003B0BDE8F08F7A4B7248CE
:100C5C001E784FF480510FF07FFF734B74480022C5
:100C6C001A80704BCC2286F0BF011A806B4A5E80D2
:100C7C00525C6E4E82F015029A80694A525CDA80A0
:100C8C0040F207310423338010F082FC694B25605D
:100C9C0001221A7003B0BDE8F08F684B5E481C78D7
:100CAC0015704FF480510FF057FF654B5F491B785F
:100CBC005D4A0D80A342158059D9544B614A574D5A
:100CCC00A3FB040304EBD31303F0FF0303EB830335
:100CDC0002EB4302534B57785F8087F03F07AA2003
:100CEC0096781880E85D9E8046404D4892F803C087
:100CFC00C75DA3F806C086F03F068CEA070715F817
:100D0C0006C0865D92F805E0DC818CEA070C177949
:100D1C001F817E4015F80C7010F80CC0A3F80AE087
:100D2C0077409679EA5DC75D9E818CEA0E0C82EA6B
:100D3C000C027740AE5C825C7E405440AA5D54400D
:100D4C00825D2D5D045D6A400A200926082523F882
:100D5C001520088023F81640354840F2073110F072
:100D6C0017FC344B01221A7003B0BDE8F08FFF243E
:100D7C002C4B022001262246E9E7334B264833F858
:100D8C0018B04FF480510FF0E7FE2849264B0E8027
:100D9C00CBF308001E80D0B1224BDFF8BCC0019110
:100DAC004FF4967BB2B2ACFB021E4FEA5E1E0BFBFD
:100DBC001E22C7F3080E013692B23AF81EE023F851
:100DCC0012E0B04207F10107ECD1019908801848F4
:100DDC0040F2073110F0DCFB0A4B09F1FF3903F844
:100DEC000890144B01221A7008E700BF000600207F
:100DFC004C750020A84C00209E4C00209F4C0020DD
:100E0C00983E0020E03E0020543E002081808080EF
:100E1C00F4030020E903002000080240E81D01084B
:100E2C00E81C0108780A0020D00C0020D20C00200D
:100E3C00004C0040AC4C0020EB030020EA030020E7
:100E4C000A490020143F0020A03E0020943E0020C0
:100E5C0050390020503D0020B5814E1B2DE9F04F3C
:100E6C009A4B9B491A689B4B0C789B489C704FF48F
:100E7C0028711980994997B00E7801680296D5B2FD
:100E8C00C2F30727DE71C2F30746120EDD701F7125
:100E9C005E7101929A71002900F012810139016092
:100EAC0084F05A028E488F49835C0A9485F0EB04D7
:100EBC0063408A5CC45CCB5C0B957A4062407340A7
:100ECC00845C8D5C019A0D9663406A40C55CCC5C79
:100EDC00029E854B0C9755407440465D1A884D5DBB
:100EEC00824B744002F1040911F804C0005DCDF886
:100EFC003CC002F1030C1FFA8CFC02F1050868409F
:100F0C00541CCDF810C01FFA89FC02F1020E971D7B
:100F1C000E90CDF814C0A0B21FFA88FC0446D61D62
:100F2C001FFA8EF0CDF818C01FFA87FC03906746A5
:100F3C0002F108001FFA86FC664602F109051FFA49
:100F4C0080FC02F10A01CDF81CC01FFA85FCCDF81B
:100F5C0020C01FFA81FCCDF824C0A3FB02C14D09AF
:100F6C00CDE9105403980499059D1297A3FB0589AC
:100F7C00079D1396A3FB00CEA3FB04C4A3FB018C1B
:100F8C000699A3FB05B0A3FB01B84109149108997C
:100F9C001198A3FB01B502F10B0A09991FFA8AFA01
:100FAC00A3FB07B7A3FB06B66409A3FB011BA3FBBA
:100FBC000A134FF4967101FB140403984FEA5E1E5A
:100FCC0001FB1E0E04984FEA5C1C01FB1C0C0598DF
:100FDC004FEA591901FB190906984FEA581801FBF9
:100FEC00180812987F0901FB170713985B097609FB
:100FFC0001FB160615930798149B01FB1300059033
:10100C000898159B6D0901FB150509984FEA5B1BA8
:10101C0001FB1B0B109801FB13A301FB10211FFA02
:10102C0088F01FFA89FA03901FFA86F9BDF81400AC
:10103C002F4E05902F481FFA87F8378806682C48E2
:10104C00CDF8108007F01F08013707802A4F0136B2
:10105C00069627F81820244F284E039889B20C3294
:10106C00A4B23A80A52777541FFA8EFE0821315579
:10107C001FFA8CFCA02106F80E10022106F80C10A9
:10108C000A9C0B9906F80A40315404980D9C05995A
:10109C000C9F3754ADB206F80940019C74549BB2B6
:1010AC00029971551FFA8BFB154A0E9C0F9906F885
:1010BC000B40F1540C2302F808300E4B069E1E60B8
:1010CC00104B01221A7017B0BDE8F08FEC03002012
:1010DC00F0030020003F0020480A00204D3900207A
:1010EC00E81D0108E81C010888760020B5814E1B1C
:1010FC00D4760020D07600208C7600205C75002001
:10110C00D8760020A04C00202DE9F04FA64B1C787F
:10111C0083B05CB1A54BA64C1D68236841F28832A4
:10112C00EB1A934270D803B0BDE8F08FA14B1D7839
:10113C00002D43D1A04A1378002B40F08C809B4AA1
:10114C009B4C15682268AA1A012AECD99B490A689B
:10115C00002AE8D0DFF8B0E2994EBEF8000000F0AB
:10116C001F0816F80890B9F1000F1CD0954EDFF847
:10117C009CA236F818707E1CC6F308063AF816C006
:10118C00914EA6FB0CB6F609C6EB0626ACEB060C8C
:10119C00DFF87CB21FFA8CFC1BF80C60002E00F000
:1011AC00CA800BF80C30013A0A60884A1368013087
:1011BC000133AEF8000013602560B4E7844A85481B
:1011CC0015781C704FF400410FF0C6FCEA43D2B204
:1011DC00814B8248995C824B865C82485D8081F0B1
:1011EC003C02814D0480AF2119809A80DE8004225C
:1011FC007E482A8040F2073110F0CAF97C4B01225C
:10120C001A7003B0BDE8F08F7A4B72481E784FF419
:10121C0000410FF0A1FC734B744800221A80704BF4
:10122C00CC2286F0BF011A806B4A5E80525C6E4EF7
:10123C0082F015029A80694A525CDA8040F20731DA
:10124C000423338010F0A4F9694B256001221A7035
:10125C0003B0BDE8F08F684B5E481C7815704FF4F6
:10126C0000410FF079FC654B5F491B785D4A0D809E
:10127C00A342158059D9544B614A574DA3FB040323
:10128C0004EBD31303F0FF0303EB830302EB4302E2
:10129C00534B57785F8087F03F07AA2096781880C9
:1012AC00E85D9E8046404D4892F803C0C75DA3F8A8
:1012BC0006C086F03F068CEA070715F806C0865D67
:1012CC0092F805E0DC818CEA070C17791F817E40CF
:1012DC0015F80C7010F80CC0A3F80AE0774096795A
:1012EC00EA5DC75D9E818CEA0E0C82EA0C027740A7
:1012FC00AE5C825C7E405440AA5D5440825D2D5DA4
:10130C00045D6A400A200926082523F81520088068
:10131C0023F81640354840F2073110F039F9344BB8
:10132C0001221A7003B0BDE8F08FFF242C4B022071
:10133C0001262246E9E7334B264833F818B04FF420
:10134C0000410FF009FC2849264B0E80CBF3080016
:10135C001E80D0B1224BDFF8BCC001914FF4967BBC
:10136C00B2B2ACFB021E4FEA5E1E0BFB1E22C7F391
:10137C00080E013692B23AF81EE023F812E0B042A1
:10138C0007F10107ECD101990880184840F20731A8
:10139C0010F0FEF80A4B09F1FF3903F80890144BD2
:1013AC0001221A7008E700BF180800204C750020B5
:1013BC0008600020FE5F0020FF5F0020F851002035
:1013CC0040520020B4510020818080800C06002007
:1013DC000106002000040240E81D0108E81C010879
:1013EC008C110020E4130020E6130020004800407C
:1013FC000C60002003060020020600206A5C00201E
:10140C007452002000520020F4510020B04C0020F7
:10141C00B0500020B5814E1B2DE9F04F9A4B9B49E3
:10142C001A689B4B0C789B489C704FF46871198020
:10143C00994997B00E7801680296D5B2C2F3072786
:10144C00DE71C2F30746120EDD701F715E710192E0
:10145C009A71002900F012810139016084F09B021D
:10146C008E488F49835C0A9485F02B0463408A5C18
:10147C00C45CCB5C0B957A4062407340845C8D5CA1
:10148C00019A0D9663406A40C55CCC5C029E854B0C
:10149C000C9755407440465D1A884D5D824B7440E4
:1014AC0002F1040911F804C0005DCDF83CC002F152
:1014BC00030C1FFA8CFC02F105086840541CCDF893
:1014CC0010C01FFA89FC02F1020E971D0E90CDF888
:1014DC0014C0A0B21FFA88FC0446D61D1FFA8EF069
:1014EC00CDF818C01FFA87FC0390674602F108007C
:1014FC001FFA86FC664602F109051FFA80FC02F110
:10150C000A01CDF81CC01FFA85FCCDF820C01FFACB
:10151C0081FCCDF824C0A3FB02C14D09CDE91054C8
:10152C0003980499059D1297A3FB0589079D1396B3
:10153C00A3FB00CEA3FB04C4A3FB018C0699A3FB65
:10154C0005B0A3FB01B84109149108991198A3FBAC
:10155C0001B502F10B0A09991FFA8AFAA3FB07B726
:10156C00A3FB06B66409A3FB011BA3FB0A134FF4F0
:10157C00967101FB140403984FEA5E1E01FB1E0ECC
:10158C0004984FEA5C1C01FB1C0C05984FEA591996
:10159C0001FB190906984FEA581801FB1808129814
:1015AC007F0901FB170713985B09760901FB1606E7
:1015BC0015930798149B01FB130005900898159B35
:1015CC006D0901FB150509984FEA5B1B01FB1B0B11
:1015DC00109801FB13A301FB10211FFA88F01FFACE
:1015EC0089FA03901FFA86F9BDF814002F4E059066
:1015FC002F481FFA87F8378806682C48CDF81080DA
:10160C0007F01F08013707802A4F0136069627F886
:10161C001820244F284E039889B20C32A4B23A8079
:10162C00A52777541FFA8EFE082131551FFA8CFC22
:10163C00A02106F80E10032106F80C100A9C0B9939
:10164C0006F80A40315404980D9C05990C9F3754A8
:10165C00ADB206F80940019C74549BB202997155C5
:10166C001FFA8BFB154A0E9C0F9906F80B40F15490
:10167C000C2302F808300E4B069E1E60104B012204
:10168C001A7017B0BDE8F08F040600200806002081
:10169C0060520020480A0020AD4C0020E81D0108D3
:1016AC00E81C010888760020B5814E1BD4760020FA
:1016BC00D07600208C7600205C750020D876002037
:1016CC00006000202DE9F04FA44B1C7883B05CB176
:1016DC00A34BA44C1D68236841F28832EB1A934249
:1016EC006FD803B0BDE8F08F9F4B1D78002D43D110
:1016FC009E4A1378002B40F08A80994A994C1568C1
:10170C002268AA1A012AECD999490A68002AE8D059
:10171C00DFF8A8E2974EBEF8000000F01F0816F89C
:10172C000890B9F1000F1CD0934EDFF894A236F854
:10173C0018707E1CC6F308063AF816C08F4EA6FB2E
:10174C000CB6F609C6EB0626ACEB060CDFF874B249
:10175C001FFA8CFC1BF80C60002E00F0C7800BF8F5
:10176C000C30013A0A60864A136801300133AEF836
:10177C00000013602560B4E7824A834815781C701A
:10178C0002210FF0E9F9EA43D2B2804B8048995C10
:10179C00804B865C80485D8081F03C027F4D0480EC
:1017AC00AF2119809A80DE8004227D482A8040F285
:1017BC0007310FF0EDFE7B4B01221A7003B0BDE830
:1017CC00F08F794B70481E7802210FF0C5F9724BDF
:1017DC00734800221A806F4BCC2286F0BF011A800E
:1017EC006A4A5E80525C6D4E82F015029A80684A9D
:1017FC00525CDA8040F20731042333800FF0C8FECC
:10180C00684B256001221A7003B0BDE8F08F674B5E
:10181C005D481C78157002210FF09EF9644B5F49EE
:10182C001B785D4A0D80A342158059D9534B614AF0
:10183C00564DA3FB040304EBD31303F0FF0303EB9C
:10184C00830302EB4302534B57785F8087F03F07CB
:10185C00AA2096781880E85D9E8046404C4892F805
:10186C0003C0C75DA3F806C086F03F068CEA0707E5
:10187C0015F806C0865D92F805E0DC818CEA070C51
:10188C0017791F817E4015F80C7010F80CC0A3F866
:10189C000AE077409679EA5DC75D9E818CEA0E0C72
:1018AC0082EA0C027740AE5C825C7E405440AA5DBA
:1018BC005440825D2D5D045D6A400A20092608258E
:1018CC0023F81520088023F81640354840F20731DC
:1018DC000FF05EFE334B01221A7003B0BDE8F08F9F
:1018EC00FF242C4B022001262246E9E7324B2648E6
:1018FC0033F818B002210FF02FF92849264B0E802F
:10190C00CBF308001E80D0B1224BDFF8BCC0019194
:10191C004FF4967BB2B2ACFB021E4FEA5E1E0BFB81
:10192C001E22C7F3080E013692B23AF81EE023F8D5
:10193C0012E0B04207F10107ECD101990880184878
:10194C0040F207310FF024FE0A4B09F1FF3903F87E
:10195C000890144B01221A700CE700BF300A0020CB
:10196C004C750020687300205E7300205F730020AC
:10197C0058650020A06500201465002081808080BF
:10198C002408002019080020000C0240E81D010862
:10199C00E81C0108D40C00202C0F00202E0F002076
:1019AC00001001406C7300201B0800201A08002056
:1019BC00CA6F0020D46500206065002054650020AB
:1019CC001060002010640020B5814E1B2DE9F04FF3
:1019DC009A4B9B491A689B4B0C789B489C704FF414
:1019EC0094611980994997B00E7801680296D5B226
:1019FC00C2F30727DE71C2F30746120EDD701F71AA
:101A0C005E7101929A71002900F012810139016016
:101A1C0084F0DA028E488F49835C0A9485F0E904DD
:101A2C0063408A5CC45CCB5C0B957A40624073402B
:101A3C00845C8D5C019A0D9663406A40C55CCC5CFD
:101A4C00029E854B0C9755407440465D1A884D5D3F
:101A5C00824B744002F1040911F804C0005DCDF80A
:101A6C003CC002F1030C1FFA8CFC02F10508684023
:101A7C00541CCDF810C01FFA89FC02F1020E971D00
:101A8C000E90CDF814C0A0B21FFA88FC0446D61DE7
:101A9C001FFA8EF0CDF818C01FFA87FC039067462A
:101AAC0002F108001FFA86FC664602F109051FFACE
:101ABC0080FC02F10A01CDF81CC01FFA85FCCDF8A0
:101ACC0020C01FFA81FCCDF824C0A3FB02C14D0934
:101ADC00CDE9105403980499059D1297A3FB058931
:101AEC00079D1396A3FB00CEA3FB04C4A3FB018CA0
:101AFC000699A3FB05B0A3FB01B841091491089901
:101B0C001198A3FB01B502F10B0A09991FFA8AFA85
:101B1C00A3FB07B7A3FB06B66409A3FB011BA3FB3E
:101B2C000A134FF4967101FB140403984FEA5E1EDE
:101B3C0001FB1E0E04984FEA5C1C01FB1C0C059863
:101B4C004FEA591901FB190906984FEA581801FB7D
:101B5C00180812987F0901FB170713985B0976097F
:101B6C0001FB160615930798149B01FB13000590B7
:101B7C000898159B6D0901FB150509984FEA5B1B2D
:101B8C0001FB1B0B109801FB13A301FB10211FFA87
:101B9C0088F01FFA89FA03901FFA86F9BDF8140031
:101BAC002F4E05902F481FFA87F8378806682C4867
:101BBC00CDF8108007F01F08013707802A4F013637
:101BCC00069627F81820244F284E039889B20C3219
:101BDC00A4B23A80A52777541FFA8EFE08213155FE
:101BEC001FFA8CFCA02106F80E10042106F80C102C
:101BFC000A9C0B9906F80A40315404980D9C0599DF
:101C0C000C9F3754ADB206F80940019C74549BB23A
:101C1C00029971551FFA8BFB154A0E9C0F9906F809
:101C2C000B40F1540C2302F808300E4B069E1E603C
:101C3C00104B01221A7017B0BDE8F08F1C08002061
:101C4C0020080020C0650020480A00200D600020FC
:101C5C00E81D0108E81C010888760020B5814E1BA0
:101C6C00D4760020D07600208C7600205C75002085
:101C7C00D8760020607300202DE9F04F8F4BDFF8F1
:101C8C0050821B78D8F8004085B002938C4B1B789F
:101C9C000193002C00F00781DFF838A28949BAF8CB
:101CAC000050894EA1FB0520000900EB4000A5EB7C
:101CBC00C000864A80B200EB400037466B1C366889
:101CCC0002EB000E4FF0020C9BB204F1FF39AAF8A4
:101CDC000030C8F8009022F800C04FF0000C701CC7
:101CEC008EF802C03860B9F1000F00F0DC80A1FB67
:101CFC0003E0000900EB4000A3EBC0039BB203EB35
:101D0C004303D718A81C4FF4AA4E80B2A4F1020BBF
:101D1C00AAF80000C8F800B022F803E087F802C067
:101D2C00694FB31C3B60019B03F03F0EBBF1000FEE
:101D3C0000F0B980A1FB00731B0903EB4303A0EB7C
:101D4C00C30080B200EB4000DFF88C9102F800C0B9
:101D5C00104419F83E7080F802C0EB1C032C47703D
:101D6C009BB206F1030040F0B9804FF0000B38E154
:101D7C00A1FB0476360906EB4606A4EBC604A4B216
:101D8C0004EB4404BBF1030F1555144400F1030696
:101D9C0084F801E0A57003F10304A4B200F067819C
:101DAC00A1FB0476360906EB4606A4EBC604A4B2E6
:101DBC0004EB4404022615551444BBF1040FA67021
:101DCC0084F801E003F10404A4B200F1040600F06D
:101DDC004E81A1FB0476360906EB4606A4EBC6043D
:101DEC00A4B204EB4404032615551444BBF1050FAF
:101DFC00A67084F801E003F10504A4B200F1050615
:101E0C0000F03581A1FB0476360906EB4606A4EBFF
:101E1C00C604A4B204EB4404042615551444BBF1C7
:101E2C00060FA67084F801E003F10604A4B200F1D9
:101E3C00060600F01C81A1FB0476360906EB46066B
:101E4C00A4EBC604A4B204EB4404052615551444B3
:101E5C00BBF1070FA67084F801E003F10704A4B2EC
:101E6C0000F1070600F00381A1FB0476360906EBAE
:101E7C004606A4EBC604A4B204EB4404062615558E
:101E8C001444BBF10807A67084F801E003F10804C0
:101E9C00A4B200F1080640F01E810B4BC8F800708C
:101EAC00AAF800401E60DDE901329A4240F24481FA
:101EBC00034A0133137005B0BDE8F08FE025002014
:101ECC00DC230020ABAAAAAADC740020E474002056
:101EDC00400A0020E0740020E0230020A1FB0370E6
:101EEC00000900EB4000A3EBC00080B200EB400007
:101EFC0009EBCE0702F800C0104497F801B080F847
:101F0C0002C02B1D80F801B0042C4FEACE000390C8
:101F1C009BB206F104003FF428AFA1FB03B000090B
:101F2C0000EB4000A3EBC0039BB203EB4303B87878
:101F3C0002F803C01344052C587083F802C005F155
:101F4C0005039BB206F105003FF40FAFA1FB03B0F4
:101F5C00000900EB4000A3EBC0039BB203EB43036F
:101F6C00F87802F803C01344062C587083F802C0AA
:101F7C0005F106039BB206F106003FF4F6AEA1FB99
:101F8C0003B0000900EB4000A3EBC0039BB203EBD2
:101F9C004303387902F803C01344072C587083F8B4
:101FAC0002C005F107039BB206F107003FF4DDAE5A
:101FBC00A1FB03B0000900EB4000A3EBC0039BB2F4
:101FCC0003EB4303787902F803C01344B4F1080B14
:101FDC00587083F802C005F108039BB206F10800A3
:101FEC0047D1584AC8F800B0AAF80030164610601D
:101FFC00BBF1000F3FF457AF5349544AA1FB0345C3
:10200C002D0905EB4505A3EBC505ADB205EB450563
:10201C005C1C5719A4B20BF1FF394FF43E4CAAF8D3
:10202C000040C8F8009022F805C00025BD70471C80
:10203C003760B9F1000F3FF436AFA1FB04763609D7
:10204C0006EB4606A4EBC604A4B204EB4404161932
:10205C00BBF1020FB5704FF00105155503F10204E9
:10206C0086F801E0A4B200F102067FF481AE0027ED
:10207C0013E7A1FB03B1090901EB4101A3EBC1017A
:10208C0089B201EB4101B87902F801C0114405F1A4
:10209C000903B4F1090B487081F802C09BB206F138
:1020AC0009009ED0A4F10A0B274CF97906F10A001D
:1020BC00A4FB0364240904EB4404A3EBC404A4B2FE
:1020CC000A3504EB4404ABB2151902F804C069706C
:1020DC0085F802C085E7A1FB0461090901EB410108
:1020EC00A4EBC10189B201EB410107245554114401
:1020FC00BBF109078C7003F1090481F801E0A4B26B
:10210C0000F109063FF4C9AE0F4900F10A06A1FB24
:10211C000401090901EB4101A4EBC10189B20A33A5
:10212C0001EB41019CB2531855540822ABF10A073C
:10213C0083F801E09A70B0E6054B00221A7005B0E6
:10214C00BDE8F08FDC740020ABAAAAAAE4740020CE
:10215C00ED2500202DE9F84FDFF81CB13F48404D2C
:10216C00404EDFF81881FF270EF074F80BF1C80908
:10217C004FF0100A3C460CE016F80C3015F80C70B9
:10218C000BF1020B5C400EF0B3F8D9450AF1080ACA
:10219C0025D09BF80010344881EA0403504416F80B
:1021AC0003C0EC5C87EA0C070EF0A2F89BF8013038
:1021BC0087F0010C01210AEB0800002BDCD116F88A
:1021CC0007C0EF5D0AEB080019460BF1020B84EA1D
:1021DC000C040EF08DF8D9450AF1080AD9D1DFF8B4
:1021EC00A090DFF8A0B099F8001081EA0403ABF1DD
:1021FC000400EC5C16F803800EF07AF899F80110E4
:10220C0088EA010887EA0807584616F8078015F887
:10221C0007A00EF06DF899F8041084EA010288EA20
:10222C0002020BF10400B45CAF5C0EF061F80F4BD2
:10223C000BF10C0B9B458AEA040409F11009D2D16D
:10224C00214606480EF054F8094839460EF050F86D
:10225C00084B00221A70BDE8F88F00BF000002087E
:10226C00E81C0108E81D0108F8FF0108A403020896
:10227C0004000208341A00206C190020FCFF01082D
:10228C00780000202C030208B84B1B78092B00F2B5
:10229C0025812DE9F04FB6490A6889B0002A00F073
:1022AC002181013A0A60B34AB3481288049200EBC8
:1022BC000312B24D92F804A0B14E0AF10202520080
:1022CC00D2B2019282F07F025C1CA95CB25C81F0FC
:1022DC0073011B01E4B2C05C039482EA04036A5CE0
:1022EC0005905A40735CA95C16F802B0A34A4340AF
:1022FC004B40A449D25C09888AEA0B040D4682EA59
:10230C00040C9F4CDFF88CB2CDF81CC005F105090C
:10231C0014F803C0CDF818C04F1C8E1CC81C1FFA33
:10232C0089F904310295ABFB05C8BFB2ABFB09536D
:10233C00B6B280B289B2ABFB07CEABFB0024ABFBD1
:10234C00062C5B09ABFB01524FF4967505FB1399F8
:10235C00029B4FEA5C1C4FEA58184FEA5E1E640958
:10236C00520905FB1C6605FB1E7705FB140005FBDB
:10237C00183E05FB1211844D804B844CA5FB0AC200
:10238C00079D13F805C0069B83EA0C0C7C4BBFB26F
:10239C004FF064081FFA8EFE52095B5D019DB6B2C8
:1023AC0008FB12A24FF0A50804F80E8080B2E55588
:1023BC004827A75589B2039E26541FFA89F9059818
:1023CC00605412F0FF0204F809A000F0CA80520019
:1023DC00D0B2029ADFF8D0910590911DC21DD2B2F5
:1023EC0001926B4A126889B2072009EB4206871CDE
:1023FC003D46777819F812A002F1010E8CF0010815
:10240C007646002F77D05D4F17F8086073405C4E0E
:10241C00E8B216F808C0ABFB01564FF49678760973
:10242C0008FB16164A1CB6B24FF0010592B2A55520
:10243C00ABFB0256760908FB16228AEA030392B21A
:10244C004F4E04F802A0FA5CF35C8CEA020C4E4A84
:10245C0082FB0E264FEAEE72C2EB6612019E02312F
:10246C006425B04289B205FB12E2BED148490A602C
:10247C00059ABDF8041002F108000632C7B202F04A
:10248C00FE0200F0FE00029D3E4E28442A442944E0
:10249C00404D308092B289B2A5FB02E0A5FB01E56C
:1024AC006D094FF4967E40090EFB15110EFB1022A0
:1024BC00394E029D92B289B204F802C0635433685B
:1024CC002C4901333360049B03F01F0201330B8052
:1024DC00324B23F81250324B9F5406E0314B002202
:1024EC001A7070470133DBB20393204B039A1A70B6
:1024FC0009B0BDE8F08F214A12F80C20E8B2ABFB12
:10250C00015E53404FF496781D4A4FEA5E1E08FB5D
:10251C001E1E12F80CC01FFA8EFE4A1C92B204F852
:10252C000E70ABFB02577F0908FB172292B283EAAD
:10253C000A0304F802A0114AD25C8CEA020C104A7D
:10254C00D35C114A82FB0627F217C2EB6712642593
:10255C0005FB1262019E0231864289B27FF445AFBF
:10256C0084E708200746072106228CE7D4170020B1
:10257C00480A0020D476002078000020E81D0108CD
:10258C00E81C0108887600201F85EB515C75002043
:10259C0068190020B5814E1BD07600208C76002067
:1025AC00D8760020351A00206C190020024A1368D6
:1025BC0001331360704700BF4C750020F8B54149DA
:1025CC0041480FF001F808BB40493F480EF0FCFFB2
:1025DC0000B9F8BD3D493C483D4D0FF00DF83D4B61
:1025EC002C881B88A34264D93B4B3748A3FB0413AC
:1025FC004FF496725B0902FB13439BB2374A0134CA
:10260C0032F813100EF0A6FF2C80F8BD2D492E4881
:10261C000EF0F2FF01212C480EF0A4FF0221064619
:10262C0029480EF09FFF0321074627480EF09AFF1A
:10263C000021054624480EF095FF0121044622484E
:10264C000EF098FF3E43204802210EF093FF3543D5
:10265C001D4803210EF08EFF2C431B4800210EF069
:10266C0089FFE4B218480EF079FF002CACD11C495C
:10267C001C4C1D4A0B6824681460002BA4D01B4C06
:10268C00013B22880B60144BA3FB02534FF4967151
:10269C005B0901FB13231649013222800A680132BF
:1026AC00B0F5807F9BB20A60124A28BF0020D0543C
:1026BC008AE7054840F207310EF078FF0E4B0022F6
:1026CC001A70F8BD0503050000440040070307001D
:1026DC00881100208A110020B5814E1B300F00207C
:1026EC00500A00204C7500203479002030790020ED
:1026FC002C790020FC7700203879002010B51E4B77
:10270C001E481F4990F800E01E481F4C1A464FF017
:10271C00F00C02F801CBB0F800C008688988C3F847
:10272C0001009180204683F807E0A3F808C00EF062
:10273C0025FE204604210EF007FF204608210EF04E
:10274C00FDFE204640F205310EF022FF20460F49D7
:10275C000EF08CFE204600210EF0DAFE2046002101
:10276C000EF0DEFE204600210EF0CAFE2046BDE82B
:10277C0010400EF0DDBE00BF507500203F0A002057
:10278C00A4740020540A00200044004040420F0072
:10279C009D4A1368FBB12DE9F04F9C4D9C492C8848
:1027AC009C4E013B13609C4BA3FB04034FF49672AD
:1027BC005B0902FB13439BB295B0CA5C33785BB9DF
:1027CC00A52A1FD0954A1368013401332C8013605D
:1027DC0015B0BDE8F08F7047012BF3D190490B7801
:1027EC00012B4AD0022B1CD0032B58D0042BE9D13F
:1027FC008C4B1B781BB18C4B5B78934259D00023CC
:10280C003370DFE7864901220A70884932700B70F9
:10281C0087490B708349844B0A7043F67F321A80C8
:10282C00D0E7DFF808C283489CF800307E4EA0FB4E
:10283C0003E0377803EBD0100133DBB257408CF850
:10284C000030DFF8F8C11CF80780DFF8E4C19CF811
:10285C0000E096F801C08CEA080C86F800C0DFF89E
:10286C00E0C11CF80770777000F0FF00724E9E45B7
:10287C003254A7D103230B70A4E76D4B6F4E1A7023
:10288C00694B18785F785040365C7E401E706C4EF9
:10289C00305C5870002AEDD002230B7092E7624B2B
:1028AC001B78934202D05F4B00221A7004230B70EA
:1028BC0088E75F4B93F80080B8F1000F9FD05E4A19
:1028CC001378002B47D1B8F1020F98D95D4B1878CB
:1028DC00002894D151780139C9B202298FD8977840
:1028EC00594B1C2201FB02F2002F40F03B83985CF9
:1028FC001A4420B14FF07E501776506010611C22A4
:10290C0001FB02F21344504893F80CC083180022C8
:10291C001746914202F1010218D090F80CE0E645FE
:10292C0014D1D3F808E0C0F808E0D3F804E0C0F8FC
:10293C0004E093F800E080F800E0D3F810E0C0F871
:10294C0010E0D3F814E0C0F814E00776032A00F185
:10295C001C00DED153E7D02B00F06881A02B00F0D7
:10296C00AB82A12B00F0C681A22B00F0F983FA2BCD
:10297C0000F06883F22B01F07184F42B01F03484A5
:10298C00412B01F0DA83402B01F07A83422B02F0C9
:10299C00A583432B02F06A83442B02F08981452BDB
:1029AC0002F0DE80462B02F02186472B02F05A857E
:1029BC00482B7FF424AFB8F1030F7FF620AF1E49EC
:1029CC0091F801C00CF1FF3C5FFA8CFCBCF1090FD3
:1029DC003FF615AF8B781D48C9784FEA0C12022BC5
:1029EC008354009202F0E886032B00F02E85042B12
:1029FC0000F02B85009BC31800225A700022DFF8D0
:102A0C004CE01346914628E02C79002028790020D0
:102A1C00FC770020F9770020B5814E1B500A00206E
:102A2C004E0A00204F0A00204C0A0020F7770020A5
:102A3C00F877002081808080F8760020E81D01085E
:102A4C00E81C0108460A002018010020780000202C
:102A5C009C45A8BF91460EF1100E9EF804A00133C0
:102A6C0052440A2BD2B2F3D1009BCDF80490C31878
:102A7C001B799942C0F0E483DFF874C299420ED9F5
:102A8C00C2F16402A1EB030ED2B25FFA8EF991454A
:102A9C0041F278811A44D1B2994201F27181019FBD
:102AAC00009B18443B460B446422DBB203F1FF3914
:102ABC004FF0000EB7FBF2F302FB1373A0F802E029
:102ACC005FFA83FE0CEB4E0E017199FBF2FCDBB24C
:102ADC0002FB1C9C4FF0FF0B042222E07A4F02F108
:102AEC00010999FBFBFACAEB0A2AA9EB0A0917F8A8
:102AFC0002A017F809900EF8029CBAF1000A18BF50
:102B0C004FF0010A0EF801ACB0F802A0D144023229
:102B1C00A0F8029092FBFBF9C9EB09290133A2EB57
:102B2C00090263450EF1020ED8DD684A6848136845
:102B3C004FF0010C80F800C0002B3FF460AE013B5D
:102B4C001360644B03931888634A02924FF4967B8C
:102B5C0000F1010AB0FBFBF90BFB19091FFA89F311
:102B6C001FFA8AFA0493BAFBFBF30BFB13AA1FFAA6
:102B7C008AF788F07F0C0597584A594F12F80CE0E9
:102B8C00584B049A17F80CA001974FF0FF0CB8FBA8
:102B9C00FCFCC4440CF0FF074FF0A50C03F802C07A
:102BAC00059A009703F802804B4A06941288049207
:102BBC007A1E05928EF03B09484A4FF0000C14E047
:102BCC00414F17F80C8088EA090EB4FBFBF90BFB9C
:102BDC001944A4B212F80E9003F80480019C8AEAFE
:102BEC00090914F80EA00CF1010C059F0CF1020E52
:102BFC005FFA8EFE00EB0E04BC45A4B200F3F0832A
:102C0C00BCF1030FDCD100EB0E04A4B2B4FBFBFE51
:102C1C000BFB1E4481EA0908A4B212F8089019555E
:102C2C00019C8AEA090914F808A0DCE7B8F1020F44
:102C3C007FF6E5AD2C4B93F800C0BCF1000F7FF490
:102C4C00DEAD214B5A78013AD2B2022A3FF6D7AD0B
:102C5C009878002840F040871C21244B02FB01F19E
:102C6C005F5C19441FB108760020486008611C2184
:102C7C0002FB01F10B441D4893F80CC043180021D2
:102C8C000F468A4201F1010118D090F80CE0E6459C
:102C9C0014D1D3F808E0C0F808E0D3F804E0C0F889
:102CAC0004E093F800E080F800E0D3F810E0C0F8FE
:102CBC0010E0D3F814E0C0F814E00776032900F113
:102CCC001C00DED19BE500BFF8760020480A0020EE
:102CDC00341A002088760020D4760020E81D0108E4
:102CEC00E81C01085C750020460A00201801002031
:102CFC006C190020B8F1090F7FF681ADB34B1B782E
:102D0C00002B7FF47CADB24BB24A1B7892F807B023
:102D1C00012B03F03583B04B1B78012B03F03C8265
:102D2C00AE4B1B78012B03F05381AD4B1B78012B61
:102D3C007FF465ADBBF1040F7FF461ADA94AA549E1
:102D4C00127891F808C062457FF659ADFF22BCFBA2
:102D5C00F2F26244A448D1B201EB810100EB4101D3
:102D6C0002F0FF0A9B4AC85CD25C904203F101035B
:102D7C007FF445AD072BF5D19C490A68002A3FF436
:102D8C003EAD013A9A4F0A608CF0BF00994A395C0B
:102D9C000097A8F1090312F80A80974A019288EA71
:102DAC00010181F03801105C12F801B017F801E054
:102DBC00924909884F1C01F102090297C9F30807CF
:102DCC000597C1F3080703974F1CDBB2C7F308073D
:102DDC0058400497BDF8087002978EEA000E844F95
:102DEC00874817F80E7012F80EE0039A8BEA070763
:102DFC004FF0A00B20F812B0049A20F812C0059ADC
:102E0C0020F812807B4A08F1010802F80A8001F1CF
:102E1C0003097C4ADFF82482B2F800B0C9F3080930
:102E2C000A1D20F819304FF0000C013B039218F8E2
:102E3C0001AB009A8AEA0709039F6744C7F30807A6
:102E4C000CF1010C20F817A012F80970019A6345D7
:102E5C008EEA070712F809E0E9DA1FFA83FC029BF5
:102E6C00DFF8DC810CF1050213FA82F911FA82F217
:102E7C00D8F80030C2F30802013320F81270614A0E
:102E8C00C8F800300BF01F030BF1010BA2F800B0D7
:102E9C005D4A0CF1070C22F81310584A11FA8CF108
:102EAC0011805A4AC9F3080922F813C0584A20F86D
:102EBC0019E01021D154A2E4B8F1080F7FF49FACB3
:102ECC00DFF8089199F80090B9F1000F7FF497ACF6
:102EDC00404B5B78012B00F08185022B40F01A846B
:102EEC003C493D4B91F802B083F800B0494A4A4B3B
:102EFC00D1F803A0CF79C2F800A0BBF1010F1F706D
:102F0C0000F0CC83BBF1000F1DD1BAF1000F17D02C
:102F1C00002F00F07A83012F00F05C83022F00F069
:102F2C003E83032F00F01F83042F00F00583052F31
:102F3C0000F0DC82062F00F0B382072F00F08A82AB
:102F4C00364B00221A70364A364900231370364A23
:102F5C000B601380354A36491380364A0B70402378
:102F6C0013604CE49F5C1A441FB110760020506033
:102F7C0010611C2201FB02F213442F4893F80CC081
:102F8C00831800221746914202F1010218D090F8E2
:102F9C000CE0E64514D1D3F808E0C0F808E0D3F80B
:102FAC0004E0C0F804E093F800E080F800E0D3F807
:102FBC0010E0C0F810E0D3F814E0C0F814E0077685
:102FCC00032A00F11C00DED119E400BF460A0020E0
:102FDC00D8010020F8760020F0030020080600201D
:102FEC0020080020CA6F0020D4650020240800208F
:102FFC00E81D0108D0700020E81C010810650020B5
:10300C00106000205C6500201465002060650020C5
:10301C00A0650020EC0300204D390020114C00204D
:10302C00944C0020984C0020964C00209C4C002086
:10303C00A04C0020FC050020180100200177002086
:10304C0058650020B8F1010F3FF4D9AB9D4B9E4A57
:10305C0059789E4B9E48003918BF0121197013688E
:10306C004170002B3FF4CBAB00780290013B136016
:10307C0080F0FB07974A9848D35DC75DDFF8B0B284
:10308C004B4083F0210312F803C0C35C0093934AB6
:10309C0087EA0C03924F1288B7F800A0DBF8007097
:1030AC00019302F101094FF4967301371FFA89F964
:1030BC0002F10208CBF80070B2FBF3F703FB172701
:1030CC001FFA88F802F1030E1FFA87FBB9FBF3F71E
:1030DC0003FB17971FFA8EFE02F1040C1FFA87F9F7
:1030EC00B8FBF3F703FB17871FFA8CFC501D1FFA74
:1030FC0087F8BEFBF3F703FB17E780B21FFA87FED6
:10310C00BCFBF3F703FB17C71FFA87FCB0FBF3F705
:10311C0003FB1703724F0AF01F000AF1010AA7F80C
:10312C0000A0704F9BB227F810206C4F039306320F
:10313C006D4B3A80A52703F80B70022703F8097032
:10314C00029F03F80870019F03F80E1003F80C702F
:10315C00039F664A0099D95506231354FFF74FBBBA
:10316C00B8F1020F7FF64BABDFF8C89199F800303D
:10317C00002B7FF444AB5E4B93F800B0514B93F8AB
:10318C0001A0BBF1000F03D1BAF1010F00F0D68002
:10319C00584B1F78002F40F0F880BAF1020F40F026
:1031AC00F48055484FF480510DF0D6FC534B5449E4
:1031BC0054481F80A8F10202D2B23B46013A11F8E2
:1031CC00017B20F8137001339A42F8DA4E4B4F48CA
:1031DC00013240F207311A800EF0DAF94C4A99F8B4
:1031EC00003001211170002B7FF409AB494B1F7883
:1031FC00002F7FF404ABBAF1040F7FF400AB464808
:10320C0002210DF0A9FC454B3D4945481F80A8F112
:10321C000202D2B2013A3B4611F8017B20F813703E
:10322C0001339A42F8DA3F4B3F48013240F2073102
:10323C001A800EF0ADF93D4B01221A70FFF7DFBA80
:10324C00019FDFF8F4C001EB07094FF0640A5FFA45
:10325C0089F901F1630EB9FBFAFBAEEB030E0AFB25
:10326C001B99A3EB010B5FFA8BF75FFA8EFE5FFAEB
:10327C0089FB0397D9460CEB4B07BEFBFAFB0AFB09
:10328C001BEE02975FFA8EF7049713E0039F09EB8E
:10329C00070EBEFBFAFB0AFB1BEE0CEB4E0B029F60
:1032AC009BF801B007F801BC1CF81EE007F802EC13
:1032BC0009F10109029F02370297049FB945E5DD28
:1032CC00FFF7DCBBF8760020480A00206D73002065
:1032DC003C0A0020E81D0108E81C01088876002043
:1032EC00D47600208C7600205C750020D8760020E7
:1032FC00D8010020F003002000080240D00C002070
:10330C00FA760020780A0020D20C0020004C0040F5
:10331C00AC4C002020080020000C02402C0F002098
:10332C00D40C00202E0F0020001001406C730020E4
:10333C00D0760020460A00206C1900204FF4804102
:10334C00C4480DF009FCC44BC4499F1CC44BA3F8E2
:10335C0000B0A8F10203DBB25A46013B17F8010B8F
:10336C0021F8120001329342F8DABE4ABE4801330A
:10337C0040F2073113800EF00BF9BC4A99F800307B
:10338C0001211170002B7FF43AAAB94B1F78002F42
:10339C007FF42CAFBAF1030F7FF428AFAD484FF494
:1033AC0000410DF0D9FBB34BB349B4481F80A8F1D1
:1033BC000202D2B2013A3B4611F8017B20F813709D
:1033CC0001339A42F8DAAE4BAE48013240F2073183
:1033DC001A800EF0DDF8AC4B01221A70FFF70FBA11
:1033EC00009FDFF8B4E2069CB91C50FA81F107F19A
:1033FC00040C89B2FA1C4FF49677B1FBF7F807FB73
:10340C00181150FA82F289B292B203F80190B2FB11
:10341C00F7F107FB112292B2029903F802A0DEF831
:10342C0000300133CEF80030049B03F01F0201334F
:10343C000B80964B23F81200039B50FA8CF01880EB
:10344C00934B03F802C0FFF7DAB9009A8218537055
:10345C00FFF7D4BA8F480DF091FF8E4804210EF07F
:10346C0073F88C4808210EF069F88A4840F205314F
:10347C000EF08EF8874851460DF0F8FF85484FF452
:10348C0080510EF045F883484FF400510EF048F887
:10349C00804800210EF034F87E480EF049F84FE5D4
:1034AC007C480DF06BFF7B4804210EF04DF87948F9
:1034BC0008210EF043F8774840F205310EF068F819
:1034CC00744851460DF0D2FF724800210EF020F8DE
:1034DC0070484FF400510EF023F86E484FF4C06161
:1034EC000EF00EF86B480EF023F829E569480DF044
:1034FC0045FF684804210EF027F8664808210EF0B5
:10350C001DF8644840F205310EF042F8614851460E
:10351C000DF0ACFF5F4800210DF0FAFF5D484FF451
:10352C0000510DF0FDFF5B484FF480610DF0E8FF9A
:10353C0058480DF0FDFF03E556480DF01FFF5548A8
:10354C0039460EF001F8534808210DF0F7FF5148A9
:10355C0040F205310EF01CF84E4851460DF086FF36
:10356C004C4800218DE74B480DF008FF49480421D9
:10357C000DF0EAFF474808210DF0E0FF454840F206
:10358C0005310EF005F8434851460DF06FFF4148E8
:10359C004FF480510DF0BCFF3E48002176E73D48CA
:1035AC000DF0ECFE3B4804210DF0CEFF394808210C
:1035BC000DF0C4FF374840F205310DF0E9FF3548F6
:1035CC0051460DF053FF334800210DF0A1FF314857
:1035DC00002180E72F480DF0D1FE2E4804210DF07C
:1035EC00B3FF2C4808210DF0A9FF2A4840F2053101
:1035FC000DF0CEFF274851460DF038FF254800212D
:10360C000DF086FF234800218BE722480DF0B6FE13
:10361C00204804210DF098FF1E4808210DF08EFF64
:10362C001C4840F205310DF0B3FF514619480DF01E
:10363C001DFF394617480DF06BFF394615480DF044
:10364C006FFF144839460DF05BFF12480DF070FF08
:10365C0076E400BF00040240F8760020E813002056
:10366C004016002042160020001401404C39002066
:10367C0008060020E4130020FA7600208C110020AC
:10368C00E6130020004800400C6000208C760020DF
:10369C00D8760020004C0040D07600209E480DF0DB
:1036AC006DFE9D4804210DF04FFF9B4841460DF0E7
:1036BC0045FF994840F205310DF06AFF964897494D
:1036CC000DF0D4FE944849460DF022FF924849462D
:1036DC000DF026FF904849460DF012FF8E480DF074
:1036EC0027FF8F4B8F4A83F800908F4BC2F80090C6
:1036FC0083F800908D4B8E4A83F800B08D4B82F886
:10370C000090A3F800908C4BA3F800908B4B2022D8
:10371C001A6018E4032B7DD189498A4B91F802B0C9
:10372C0083F800B0884A894BD1F803A0CF79C2F84E
:10373C0000A0BBF1010F1F7030D0BBF1000F1DD1E9
:10374C00BAF1000F17D0002F01F0B780012F01F054
:10375C009980022F01F07B80032F01F05C80042FF5
:10376C0001F04280052F01F01880062F00F0EE8743
:10377C00072F00F0C487764B00221A70754A7649E1
:10378C0000231370754A0B601380754A75491380BA
:10379C00754A0B7040231360FFF731B873480DF076
:1037AC00EDFD724804210DF0CFFE704841460DF03E
:1037BC00C5FE6E4840F205310DF0EAFE6B485749E4
:1037CC000DF054FE694849460DF0A2FE6748494683
:1037DC000DF0A6FE654849460DF092FE63480DF0CB
:1037EC00A7FE634B634A83F80090634BC2F80090CA
:1037FC0083F80090614B624A83F800B0614B82F809
:10380C000090A3F80090604BA3F800905F4B20222F
:10381C001A60B3E7042B7EF4F2AF49495C4B91F884
:10382C00028083F800805B4A5B4BD1F80390CF7920
:10383C00C2F80090B8F1010F1F7030D0B8F1000F32
:10384C001DD1B9F1000F17D0002F01F06481012FA9
:10385C0001F04681022F01F02881032F01F00A812B
:10386C00042F01F0E180052F01F0B780062F01F045
:10387C008D80072F01F04680484B00221A70484A71
:10388C00484900231370484A0B601380474A484943
:10389C001380484A0B7040231360FEF7B0BF4648B4
:1038AC00DFF82C91454F0DF069FD434804210DF0D4
:1038BC004BFE414808210DF041FE3F4840F20531D6
:1038CC000DF066FE15493C480DF0D0FD3A4800213C
:1038DC000DF01EFE384800210DF022FE0021364866
:1038EC000DF00EFE34480DF023FE354BDFF8E4E00E
:1038FC00DFF8E4C033483449344A83F800800023AD
:10390C0089F800308EF80030ACF800303B80036052
:10391C000B7020231360B2E7004C004040420F00B4
:10392C009F4C0020983E00209E4C0020000600205A
:10393C000F4A0020943E00209C3E0020F4030020FF
:10394C00F87600200806002004060020AD4C00206C
:10395C00715F0020F45F0020F85F0020F65F00200C
:10396C00FC5F00200060002014080020004800408C
:10397C00FF5F0020F8510020FE5F00201808002097
:10398C006F5D0020F4510020FC5100200C0600203B
:10399C00200800201C0800200D600020D17200209F
:1039AC005473002058730020567300205C73002061
:1039BC00607300202C0A0020001001405C65002080
:1039CC00300A002058650020CF7000202408002009
:1039DC005F7300205E73002054650020A749A84B3C
:1039EC0091F802B083F800B0A64AA74BD1F803A017
:1039FC00CF79C2F800A0BBF1010F1F7030D0BBF122
:103A0C00000F1DD1BAF1000F17D0002F00F01D834D
:103A1C00012F00F0FF82022F00F0D982032F00F05B
:103A2C00BA82042F00F0A082052F00F07782062FB7
:103A3C0000F04E82072F00F02582944B00221A7062
:103A4C00934A944900231370934A0B601380934A52
:103A5C0093491380934A0B7040231360FEF7CFBE3B
:103A6C0091480DF08BFC904804210DF06DFD8E48B3
:103A7C0041460DF063FD8C4840F205310DF088FD98
:103A8C0089488A490DF0F2FC874849460DF040FD03
:103A9C00854849460DF044FD834849460DF030FDFC
:103AAC0081480DF045FD824B824A83F80090824B91
:103ABC00C2F8009083F80090804B814A83F800B0E4
:103ACC00804B82F80090A3F800907F4BA3F80090F5
:103ADC007E4B20221A60B3E7012800F08A8102286D
:103AEC0000F0FE8003286ED0042835D005287EF423
:103AFC0086AEB8F1030F3EF482AE604B93F803C070
:103B0C00734B1C2000FB0230002180F80CC00176A6
:103B1C000F468A4201F1010118D093F80CE0E645FA
:103B2C0014D1D0F808E0C3F808E0D0F804E0C3F8EA
:103B3C0004E090F800E083F800E0D0F810E0C3F85F
:103B4C0010E0D0F814E0C3F814E01F76032903F159
:103B5C001C03DED1FEF753BEB8F1030F3EF44FAE9B
:103B6C00464B5B49D8781C2302FB03F3C8540B4427
:103B7C0000205860186193F80CC000201876074696
:103B8C00824200F1010018D091F80CE0E64514D106
:103B9C00D3F808E0C1F808E0D3F804E0C1F804E079
:103BAC0093F800E081F800E0D3F810E0C1F810E0E1
:103BBC00D3F814E0C1F814E00F76032801F11C01CE
:103BCC00DED1FEF71CBEB8F1040F7EF618AE1C2138
:103BDC003F4B02FB01F1585C194410B3274F9FED8A
:103BEC003D6A3879DFED3C6ADFED3C5A07EE900A0E
:103BFC00F878F8EE677A07EE100A67EE867AB8EE78
:103C0C00477A76EEE76A27EE067A85EEA66A0020FA
:103C1C00087681ED017A81ED047AC1ED027A81EDAD
:103C2C00056A1C2102FB01F10B44294893F80CC0D6
:103C3C00431800210F468A4201F1010118D090F877
:103C4C000CE0E64514D1D3F808E0C0F808E0D3F84E
:103C5C0004E0C0F804E093F800E080F800E0D3F84A
:103C6C0010E0C0F810E0D3F814E0C0F814E00776C8
:103C7C00032900F11C00DED1FEF7C1BDF87600204F
:103C8C00D8010020D4010020EE250020B1380020FE
:103C9C003439002038390020363900203C390020D6
:103CAC0040390020E40300200014014040420F0082
:103CBC003F390020382B00203E390020E80300203B
:103CCC00AF360020342B00203C2B0020DC010020E0
:103CDC00180100208180803B5C8F823F17B7D13860
:103CEC00B8F1030F3EF48BAD1C21C64B02FB01F166
:103CFC00595CC1B1C4489FEDC57AC07807EE900AF3
:103D0C00F8EE677A042967EE877A00F0AC801C2104
:103D1C0001FB0231C1ED017AC1ED047A1C2101FBDA
:103D2C000231002008761C2102FB01F10B44B5483E
:103D3C0093F80CC0431800210F468A4201F101018F
:103D4C0018D090F80CE0E64514D1D3F808E0C0F890
:103D5C0008E0D3F804E0C0F804E093F800E080F841
:103D6C0000E0D3F810E0C0F810E0D3F814E0C0F88D
:103D7C0014E00776032900F11C00DED1FEF73FBDED
:103D8C00A1EB030E5FFA8EF2019F029203F1630224
:103D9C00521A3B44D2B25FFA83FE6423B2FBF3FBAC
:103DAC00BEFBF3F903FB1B2B03FB19EE5FFA8BF243
:103DBC005FFA8EF7934603970CEB420212E0029FD8
:103DCC0092F803A00BEB070EBEFBF3F903FB19EE05
:103DDC000CEB4E090BF1FF3B89F801A092F8029015
:103DEC000CF81E90039FBB45A2F10202E7DAFEF726
:103DFC0056BE1C21834B02FB01F1585C194428B1BF
:103E0C004FF07E5081F818C0486008611C2102FBFD
:103E1C0001F10B447B4893F80CC0431800210F466A
:103E2C008A4201F1010118D090F80CE0E64514D15A
:103E3C00D3F808E0C0F808E0D3F804E0C0F804E0D8
:103E4C0093F800E080F800E0D3F810E0C0F810E040
:103E5C00D3F814E0C0F814E00776032900F11C0035
:103E6C00DED1FEF7CCBCF5EE407A1C2101FB023111
:103E7C00F1EE10FA4FF0000018BF4FF07E50486082
:103E8C0008614BE762480DF079FA614804210DF0A6
:103E9C005BFB5F4808210DF051FB5D4840F205319A
:103EAC000DF076FB5A4851460DF0E0FA58484FF4A5
:103EBC0080510DF02DFB56484FF400510DF030FBA6
:103ECC00534800210DF01CFB51480DF031FBB4E5BB
:103EDC004F480DF053FA4E4804210DF035FB4C4879
:103EEC0008210DF02BFB4A4840F205310DF050FB38
:103EFC00474851460DF0BAFA454800210DF008FB31
:103F0C0043484FF400510DF00BFB41484FF4C06196
:103F1C000DF0F6FA3E480DF00BFB8EE53C480DF02B
:103F2C002DFA3B4804210DF00FFB394808210DF008
:103F3C0005FB374840F205310DF02AFB3448514659
:103F4C000DF094FA324800210DF0E2FA30484FF4AB
:103F5C0000510DF0E5FA2E484FF480610DF0D0FAC7
:103F6C002B480DF0E5FA68E529480DF007FA2848CA
:103F7C0039460DF0E9FA264808210DF0DFFA2448FD
:103F8C0040F205310DF004FB214851460DF06EFA5C
:103F9C001F4800218DE71E480DF0F0F91C48042144
:103FAC000DF0D2FA1A4808210DF0C8FA184840F260
:103FBC0005310DF0EDFA164851460DF057FA14483C
:103FCC004FF480510DF0A4FA1148002176E7104807
:103FDC000DF0D4F90E4804210DF0B6FA0C48082166
:103FEC000DF0ACFA0A4840F205310DF0D1FA084850
:103FFC0051460DF03BFA064800210DF089FA0448B1
:10400C00002180E718010020F87600208180803B99
:10401C000014014083480DF0B1F9824804210DF0E1
:10402C0093FA804808210DF089FA7E4840F2053158
:10403C000DF0AEFA7B4851460DF018FA7948002184
:10404C000DF066FA7748002183E776480DF096F973
:10405C00744804210DF078FA724808210DF06EFABC
:10406C00704840F205310DF093FA6E4851460DF050
:10407C00FDF96C4800210DF04BFA6A4800211DE750
:10408C00B8F1020F7EF4BBAB674B5B78013BDBB244
:10409C00092B3EF6B4AB6548DFF89CC1644F282170
:1040AC0001FB03F24FF0010E4FF00C0909FB0379F1
:1040BC0011FB03E187180CEB02034FF00008C7F863
:1040CC001C80C7F81080C9F80080C3F81C80C3F8A6
:1040DC001080DFF88481C3F8188000934318019393
:1040EC00009BC7F818804FF07E5A02F12008C7F8E1
:1040FC0014A0C3F814A0C9F804A04E4B4FF0000A4A
:10410C004FF0200B00F802B089F808A040F80830F6
:10411C00019B87F825A04FF0FF2940F80190C3F8C8
:10412C0004900321009B0CF8021040F201124CF891
:10413C00082083F825E0FEF762BBB8F1020F7EF48D
:10414C005EAB394B5A78013AD2B2092A3EF657ABDC
:10415C0037483649374F28234FF0010C4FF00C09E4
:10416C0009FB020913FB02CC02FB03F3324AC81809
:10417C001A444FF0000EC0F81CE0C0F810E0C9F86B
:10418C0000E0C2F81CE0C2F810E0DFF8CCE0C0F8A8
:10419C0018E0C2F818E003F120084FF07E5EC0F87A
:1041AC0014E0C9F804E0C2F814E04FF0200A4FF014
:1041BC00000E01F803A089F808E041F808704FF0F0
:1041CC00FF2980F825E01C4841F80C9001EB0C0B02
:1041DC001321C15440F20113CBF8049040F808307D
:1041EC0082F825E0FEF70BBB144B00221A721A75ED
:1041FC0083F8202083F82C20114B1B78002B7EF4A5
:10420C00FEAA104A137682F8343082F850300E4AE7
:10421C0013700E4A13700E4A13700E4A1370FEF789
:10422C00EEBA00BF00140140F876002044160020BE
:10423C000000002001010100D8170020AC23002051
:10424C00460A00201801002040390020A04C002014
:10425C0000600020607300200AD7233DB8F12C0FBA
:10426C007EF4CDAAD049D14B91F801A083F800A0DF
:10427C00CF4AD04BD1F8029091F80680C2F800904A
:10428C00BAF1010F83F8008002F08C81BAF1000FB3
:10429C0025D1B9F1000F1FD0B8F1000F01F08583C3
:1042AC00B8F1010F01F06783B8F1020F01F04983F7
:1042BC00B8F1030F01F02A83B8F1040F01F0F68274
:1042CC00B8F1050F01F0CB82B8F1060F01F0A08216
:1042DC00B8F1070F01F07582B74B00221A70B24F7C
:1042EC00B64ADFF83C8397F8079082F800904FF0BD
:1042FC00000AB34ADFF82CE3DFF82CC3B14BB24809
:10430C00B24988F800A097F80C80D7F808B082F86A
:10431C000080B9F1010F4FF04002AEF800A0ACF8EC
:10432C0000A0C0F800A0C1F800B01A6002F0FD8037
:10433C00B9F1000F25D1BBF1000F1FD0B8F1000F60
:10434C0001F02D84B8F1010F01F00F84B8F1020FC8
:10435C0001F0F183B8F1030F01F0D283B8F1040F2F
:10436C0001F0B283B8F1050F01F08783B8F1060FA5
:10437C0001F05C83B8F1070F01F03183944B0022FC
:10438C001A70894F934ADFF8A48297F80D9082F83F
:10439C0000904FF0000A904ADFF894E2DFF894C2E4
:1043AC008E4B8F488F4988F800A097F81280D7F869
:1043BC000EB082F80080B9F1010F4FF04002AEF858
:1043CC0000A0ACF800A0C0F800A0C1F800B01A60C2
:1043DC0002F06681B9F1000F25D1BBF1000F1FD09F
:1043EC00B8F1000F01F0DB84B8F1010F01F0BD84CE
:1043FC00B8F1020F01F09F84B8F1030F01F0808433
:10440C00B8F1040F01F06084B8F1050F01F03584A8
:10441C00B8F1060F01F00A84B8F1070F01F0D98347
:10442C00714B00221A70604F704ADFF80C8297F8BB
:10443C00139082F800904FF0000A6D4ADFF8FCE10F
:10444C00DFF8FCC16B4B6C486C4988F800A097F8FE
:10445C001880D7F814B082F80080B9F1010F4FF032
:10446C004002AEF800A0ACF800A0C0F800A0C1F863
:10447C0000B01A6000F00781B9F1000F25D1BBF133
:10448C00000F1FD0B8F1000F01F08885B8F1010FB3
:10449C0001F06A85B8F1020F01F04C85B8F1030FF9
:1044AC0001F02885B8F1040F01F00885B8F1050F6B
:1044BC0001F0DD84B8F1060F01F0B284B8F1070FFA
:1044CC0001F087844E4B00221A704E4A4E49DFF899
:1044DC0074E1DFED4E6A9FED4E7A002313704D4A66
:1044EC000B6013804C4A13804C4A194640231360CE
:1044FC004FF0FF0C724619238846981C90FBFCF970
:10450C00C9EB0929284F82ED027AA0EB090017F8B4
:10451C0003A0385C82F80CA007EE900A581CF8EE49
:10452C00677A90FBFCF9C9EB0929A0EB090067EE4F
:10453C00A67A385C1070C2ED017AC2ED047A70462E
:10454C004FF00009494509F1010919D090F80CB058
:10455C00D34515D1D2F808B0C0F808B0D2F804B0E1
:10456C00C0F804B092F800B080F800B0D2F810B0E7
:10457C00C0F810B0D2F814B0C0F814B080F818809D
:10458C00B9F1030F00F11C00DCD101310333032915
:10459C0093FBFCF0C0EB002002F11C02A3EB000328
:1045AC00ABD19FED1A7A4FE0F8760020D8010020AD
:1045BC00D4010020EE250020B1380020F0030020AB
:1045CC004D390020E403002038390020EC03002092
:1045DC00114C002008060020AD4C0020FC050020EA
:1045EC00984C002004060020715F00202008002059
:1045FC000D60002014080020F85F00201C0800202B
:10460C00D172002054730020587300208180803BAD
:10461C0000000000567300205C7300202C0A002060
:10462C0034390020363900203C390020944C0020CD
:10463C00964C00209C4C0020F45F0020F65F00207C
:10464C00FC5F002018010020C24800214FF0FF0C35
:10465C00C14AD25C07EE902AF8EE677A013167EE18
:10466C00877A01330A2993FBFCF2C2EB0222C0EDDC
:10467C00027AA3EB020300F11000E9D1B74B002240
:10468C001A70FEF7BCB8B6480CF078FEB44804219A
:10469C000CF05AFFB24808210CF050FFB04840F221
:1046AC0005310CF075FFAE48AE490CF0DFFEAC489E
:1046BC0051460CF02DFFAA4851460CF031FFA8488A
:1046CC0051460CF01DFFA6480CF032FFA64BA74A32
:1046DC0083F800A0A64BC2F800A083F800A0A54B5D
:1046EC00A54A83F80090A54B82F800A0A3F800A07F
:1046FC00A34BA3F800A0A34B20221A60E5E6A24826
:10470C000CF03CFEA04804210CF01EFF9E48082132
:10471C000CF014FF9C4840F205310CF039FF9A481C
:10472C0051460CF0A3FE98484FF480510CF0F0FE6B
:10473C0095484FF400510CF0F3FE934800210CF017
:10474C00DFFE91480CF0F4FEFFF715B88E480CF024
:10475C0015FE8D4804210CF0F7FE8B4808210CF057
:10476C00EDFE894840F205310CF012FF86485146A7
:10477C000CF07CFE844800210CF0CAFE82484FF4F9
:10478C0000510CF0CDFE80484FF4C0610CF0B8FE27
:10479C007D480CF0CDFEFEF7EEBF7B480CF0EEFD35
:1047AC00794804210CF0D0FE774808210CF0C6FEA5
:1047BC00754840F205310CF0EBFE734851460CF095
:1047CC0055FE714800210CF0A3FE6F484FF40051C8
:1047DC000CF0A6FE6C484FF480610CF091FE6A4818
:1047EC000CF0A6FEFEF7C7BF67480CF0C7FD664885
:1047FC0039460CF0A9FE644808210CF09FFE624873
:10480C0040F205310CF0C4FE5F4851460CF02EFE10
:10481C005D4800218AE75C480CF0B0FD5A48042141
:10482C000CF092FE584808210CF088FE564840F2D5
:10483C0005310CF0ADFE544851460CF017FE5248B1
:10484C004FF480510CF064FE4F48002173E74E4842
:10485C000CF094FD4C4804210CF076FE4A480821DB
:10486C000CF06CFE484840F205310CF091FE4648C5
:10487C0051460CF0FBFD444800210CF049FE424827
:10488C0000217EE740480CF079FD3F4804210CF0F4
:10489C005BFE3D4808210CF051FE3B4840F20531CF
:1048AC000CF076FE384851460CF0E0FD36480021FD
:1048BC000CF02EFE344800218AE733480CF05EFDE4
:1048CC00314804210CF040FE2F4808210CF036FE34
:1048DC002D4840F205310CF05BFE51462A480CF095
:1048EC00C5FD394628480CF013FE394626480CF015
:1048FC0017FE254839460CF003FE23480CF018FE31
:10490C00FEF739BF16480CF039FD154804210CF0A0
:10491C001BFE134808210CF011FE114840F2053122
:10492C000CF036FE49460E480CF0A0FD0C484FF436
:10493C0080510CF0EDFD0A484FF400510CF0F0FDE5
:10494C00074800210CF0DCFD05480CF0F1FDFEF7EA
:10495C0093BF00BF78000020F8760020460A0020A4
:10496C000010014040420F005F730020586500208A
:10497C005E730020300A0020CF70002054650020A8
:10498C005C6500202408002000480040BC480CF066
:10499C00F5FCBB4804210CF0D7FDB94808210CF0FC
:1049AC00CDFDB74840F205310CF0F2FDB448494654
:1049BC000CF05CFDB24841460CF0AAFDB0484FF437
:1049CC0000510CF0ADFDAE484FF4C0610CF098FDF9
:1049DC00AB480CF0ADFDFEF74FBFA9480CF0CEFC78
:1049EC00A74804210CF0B0FDA54808210CF0A6FD49
:1049FC00A34840F205310CF0CBFDA14849460CF020
:104A0C0035FD9F4841460CF083FD9D484FF4005105
:104A1C000CF086FD9A484FF480610CF071FD9848BB
:104A2C000CF086FDFEF728BF95480CF0A7FC9448C7
:104A3C0039460CF089FD924808210CF07FFD904816
:104A4C0040F205310CF0A4FD8D4849460CF00EFDEA
:104A5C0041468B480CF05CFD4FF4005188480CF03B
:104A6C005FFD874841460CF04BFD85480CF060FD1E
:104A7C00FEF702BF82480CF081FC814804210CF047
:104A8C0063FD7F4808210CF059FD7D4840F205314B
:104A9C000CF07EFD7A4849460CF0E8FC4FF480514E
:104AAC0077480CF035FD4146D8E775480CF066FCAC
:104ABC00734804210CF048FD714808210CF03EFDB0
:104ACC006F4840F205310CF063FD6D4849460CF01F
:104ADC00CDFC6B4841460CF01BFD6948414670E724
:104AEC0067480CF04BFC664804210CF02DFD644823
:104AFC0008210CF023FD624840F205310CF048FD12
:104B0C005F4849460CF0B2FC5D4841460CF000FD94
:104B1C005B4841467CE75A480CF030FC584804216D
:104B2C000CF012FD564808210CF008FD544840F2D8
:104B3C0005310CF02DFD494651480CF097FC3946D7
:104B4C004F480CF0E5FC39464D480CF0E9FC4C485C
:104B5C0039460CF0D5FC4A480CF0EAFCFEF78CBE4A
:104B6C00B8F1020F7DF44BAE464A92F8019009F170
:104B7C00FF32D2B2092A3DF642AE434943482827B8
:104B8C0007FB02110268002781F82170002A3DF40E
:104B9C0036AE013A02603E4ADFF810B111883D4A48
:104BAC0089F0A10A12F80A2082F0700002903A48AB
:104BBC00008800900A1DDBF8000092B203920130CD
:104BCC004A1DCBF8000092B23448049201F1010E58
:104BDC004FF4967210F80AA0B1FBF2F01FFA8EFE99
:104BEC0002FB101001F1020CCDF804A01FFA8CFC92
:104BFC00CF1C1FFA80FABEFBF2F002FB10E0BFB232
:104C0C001FFA80FEBCFBF2F002FB10C01FFA80FC06
:104C1C00B7FBF2F002FB1070039F1FFA80FBB7FB8F
:104C2C00F2F002FB107087B20397049FB7FBF2F00F
:104C3C0002FB1072009F07F01F000090164801370E
:104C4C0007800098164F92B2049227F81010104F5C
:104C5C00144A06313980A52702F80A7002F80E8032
:104C6C0002F80C3002F80B90DDE90203D054049BDF
:104C7C000198D0540C49009A06238B54FDF7BFBD04
:104C8C0000100140F8760020D8170020480A0020B8
:104C9C0088760020E81D0108D4760020E81C010865
:104CAC008C7600205C750020D8760020D076002011
:104CBC00A8F108085FFA88F30C2B00933DF69FAD22
:104CCC00BB4F7B7806935A1ED2B2092A3DF697AD9C
:104CDC0002EB8200C000B74900F1010E002341F83D
:104CEC000E308E4497F802C0FF780497B04FCEF880
:104CFC0004303F790597AE4FCEF8083097F805B0E1
:104D0C0097F8068097F807900844A94F07EB030A19
:104D1C00009F9F42C6BF9AF808A080F801A0002708
:104D2C0003F10103D8BF47700C2B00F10100ECD14B
:104D3C00DDED047A9FEDA06AB8EE677AF7EE007AA3
:104D4C0037EE277A2820C6EE076A02FB00F00B1814
:104D5C00012783F8217083F82470BBF1000718BF7A
:104D6C00012783F82070B8F1000718BF012783F8DA
:104D7C002270B9F1000718BF0127DDED057A9FED10
:104D8C008F7A83F82570F8EE677A002777EEC77A6A
:104D9C00C3ED066A27EEA67A83F8237083ED077AB3
:104DAC000B5C01F800C0B8F1000F01D09C451CD081
:104DBC00834B03EB0213F7EE006A1B7907EE903A74
:104DCC00F8EE677A002077EEE67A67EE877AF5EEF2
:104DDC00C07AF1EE10FA40F32F83282303FB021262
:104DEC0077EEA67A1061C2ED057A764A1368002B2D
:104DFC003DF405AD013B1360069B734F734A049859
:104E0C00009783F06E01CDF81CE07B5C515C019245
:104E1C008CEA030383F0D0034140F85CD35C059F1C
:104E2C0041407B40684F785C515C43408BEA010108
:104E3C00F85CD35C41406648039007466248405C8E
:104E4C00515C88EA0303434038885F4FFF5C89EA72
:104E5C0001014F40D15C0991431C99B2831C1FFA8C
:104E6C0083FEC31C1FFA83FA031D0291014698B2FC
:104E7C000E904B1D084699B2831D9BB21093C31D17
:104E8C000F9199B200F108039BB2129300F1090340
:104E9C00119199B213914FF496710890B0FBF1F304
:104EAC0001FB130302989BB20A93B0FBF1F301FBD5
:104EBC0013039BB20B930E98BEFBF1F301FB13E3B0
:104ECC001FFA83FEBAFBF1F301FB13A3CDF830E01C
:104EDC001FFA83FEB0FBF1F301FB13030F98CDF81F
:104EEC0034E01FFA83FEB0FBF1F301FB13031098BF
:104EFC00CDF838E01FFA83FEB0FBF1F301FB13038E
:104F0C001198CDF83CE01FFA83FEB0FBF1F301FBE6
:104F1C0013031298CDF840E01FFA83FEB0FBF1F3B7
:104F2C0001FB13031398CDF844E01FFA83FEB0FB8A
:104F3C00F1F301FB1303274802902348CDF848E016
:104F4C001FFA83FECDF84CE010F807E00998224BCD
:104F5C0012F807A0069A80EA0E0E0A98A5271F548D
:104F6C000B9814271F540C9844271F540D981A544F
:104F7C000E9A0F9803F802C0049A1A54109A059FBF
:104F8C009F54119A129803F802B0139A03F80080F8
:104F9C0003F80290089A0F4802F10A0C02F1160766
:104FAC00B0F800B01FFA8CFCBFB2104616E000BF80
:104FBC00F8760020D81700200AD7233E00000043C3
:104FCC0078000020480A0020E81D0108E81C0108B0
:104FDC0088760020D47600205C750020079AD04695
:104FEC0012F801AB07928AEA0E09BCFBF1FE01FB39
:104FFC001ECE009A1FFA8EFE0CF1010C03F80EA0C7
:10500C001FFA8CFC12F809E0019A674512F809A006
:10501C0088EA0E0EE2D1DFF8C080D8F80020013209
:10502C00C8F80020B7FBF1F201FB127200F1170C6B
:10503C0092B21FFA8CFC03F802E0BCFBF1F201FB0C
:10504C0012C292B2182103F802A0029A0BF01F03AD
:10505C000BF1010BA2F800B0184A22F81300039AC6
:10506C0018301080164AD154FDF7C9BBB8F1020FA5
:10507C007DF4C5AB134A92F8019009F1FF32D2B21C
:10508C00092A3DF6BCAB10491048282707FB021132
:10509C000268002781F82170002A3DF4B0AB013A78
:1050AC0002600B4ADFF830B011880A4A89F0210AF5
:1050BC0012F80A2082F0720078E500BF8C7600208E
:1050CC00D8760020F876002044160020480A0020EC
:1050DC0088760020E81D0108D0760020A8F1080889
:1050EC005FFA88F30C2B00933DF689ABB84F7B78B5
:1050FC0006935A1ED2B2092A3DF681AB02EB82000E
:10510C00C000B44900F1010E002341F80E308E446A
:10511C0097F802C0FF780497AD4FCEF804303F7972
:10512C000597AB4FCEF8083097F805B097F8068086
:10513C0097F807900844A64F07EB030A009F9F427D
:10514C00C6BF9AF808A080F801A0002703F101035C
:10515C00D8BF47700C2B00F10100ECD1DDED047AC7
:10516C009FED9D6AB8EE677AF7EE007A37EE277AF4
:10517C002820C6EE076A02FB00F00B18012783F803
:10518C00217083F82470BBF1000718BF012783F846
:10519C002070B8F1000718BF012783F82270B9F10D
:1051AC00000718BF0127DDED057A9FED8C7A83F897
:1051BC002570F8EE677A002777EEC77AC3ED066A9A
:1051CC0027EEA67A83F8237083ED077A0B5C01F83F
:1051DC0000C0B8F1000F01D09C451CD0804B03EBF4
:1051EC000213F7EE006A1B7907EE903AF8EE677A35
:1051FC00002077EEE67A67EE877AF5EEC07AF1EE6C
:10520C0010FA40F32481282303FB021277EEA67ACE
:10521C001061C2ED057A734A1368002B3DF4EFAAB6
:10522C00013B1360069B704A704F0498009283F008
:10523C00EE010197535C795CCDF81CE08CEA03031A
:10524C0083F0D2034140D05CFB5C41400598434065
:10525C00505C795C43408BEA0101D05CFB5C644A96
:10526C00039241406048405C795C88EA0303434008
:10527C0010885D4AD75C89EA01014F405B49CB5CE1
:10528C000893431C1FFA83FE831C72461FFA83FE8D
:10529C00C31C1FFA83FA031D9BB20293431D99B2E0
:1052AC00831D9BB20F93C31D0E9199B200F108039D
:1052BC009BB2119300F10903109199B212914FF422
:1052CC009671B0FBF1F301FB13039BB20993B2FB94
:1052DC00F1F301FB13239BB20A93BEFBF1F301FB29
:1052EC0013E31FFA83FEBAFBF1F301FB13A3CDF812
:1052FC002CE01FFA83FECDF830E0029AB2FBF1F3FA
:10530C0001FB13230E9A1FFA83FEB2FBF1F301FB90
:10531C0013230F9ACDF834E01FFA83FEB2FBF1F39E
:10532C0001FB1323109ACDF838E01FFA83FEB2FB71
:10533C00F1F301FB1323119ACDF83CE01FFA83FE25
:10534C00B2FBF1F301FB1323129ACDF840E01FFAE4
:10535C0083FEB2FBF1F301FB1323264A0292224A8D
:10536C00CDF844E01FFA83FECDF848E012F807E0D0
:10537C00089A214B82EA0E0E1C4A12F807A0099AD1
:10538C00A5279F540A9A14279F540B9A42279F547F
:10539C000C9F069ADA550D9F049A03F807C00E9FCE
:1053AC00DA550F9F059ADA55109F124A03F807B089
:1053BC00119FB2F800B003F80780129F00F10A0C9D
:1053CC0003F8079000F116071FFA8CFCBFB215E02A
:1053DC00F8760020441600200AD7233E0000004334
:1053EC0078000020480A0020E81D0108E81C01088C
:1053FC0088760020D47600205C750020079AD04671
:10540C0012F801AB07928AEA0E09BCFBF1FE01FB14
:10541C001ECE009A1FFA8EFE0CF1010C03F80EA0A2
:10542C001FFA8CFC12F809E0019A674512F809A0E2
:10543C0088EA0E0EE2D1EEE54FF0280303FB0212D0
:10544C004CBFC2ED047A1061C2ED056ACDE44FF099
:10545C00280303FB02124CBFC2ED047A1061C2EDAB
:10546C00056AD8E6B8F1030F7DF4C9A9534991F840
:10547C0001A00AF1FF32D2B2092A3DF6C0A98978FF
:10548C009FED4F7A009107EE901AF8EE677A4D492E
:10549C004D4867EE877A01EB0212C2ED027A026880
:1054AC00002A3DF4ACA94949DFF838C1DFF838B11E
:1054BC008AF02107013A0260CA5D00981CF8077057
:1054CC00424082F02102885C41491CF80220098884
:1054DC00029287EA00023F4803924A1D008801901D
:1054EC0092B2DBF8000005928A1D92B2069201F18D
:1054FC0001094FF4967201301FFA89F9CBF80000BC
:10550C0001F1020EB1FBF2F002FB10101FFA8EFE3D
:10551C0001F1030C1FFA80FBB9FBF2F002FB1090B7
:10552C001FFA8CFC0F1D1FFA80F9BEFBF2F002FB78
:10553C0010E0BFB21FFA80FEBCFBF2F002FB10C001
:10554C001FFA80FCB7FBF2F002FB107087B20497D5
:10555C00059FB7FBF2F002FB107087B20597069F10
:10556C00B7FBF2F002FB1072019F07F01F000190D5
:10557C001848013707800198174F92B227F810107E
:10558C00134F06920731154A3980A52702F80B7084
:10559C00049F02F8098002F80E30009B02F80CA060
:1055AC00D355059F0398D0550698029B13540C496C
:1055BC00019A07238B54FDF722B900BFF87600201F
:1055CC008180803B78000020480A0020E81D0108FB
:1055DC0088760020D47600208C7600205C75002024
:1055EC00D8760020E81C0108D0760020B8F1050F11
:1055FC007DF405A9B84890F801A00AF1FF32D1B2A8
:10560C0009293DF6FCA88278009207EE902AC27810
:10561C00DFEDB26A90F804900192B8EE677A07EE6B
:10562C00902AAF48AF4AF8EE677A0C2707FB0122A5
:10563C0027EE267AB9F1000767EEA67A016882EDAB
:10564C00007A18BF0127C2ED017A177200293DF4C8
:10565C00D6A8013901608AF0E307A349A34811F8E1
:10566C0007C0C25D009FDFF8A0B27A4082F0410211
:10567C00019F8CEA070710F802C08A5C8CEA0707C6
:10568C0089EA020210F807C0CF5D8CEA0202805C46
:10569C008A5C0392964A87EA0001049111880A1DDC
:1056AC0090B24A1D92B207928A1D069090B2CA1D02
:1056BC0092B2099201F10802089090B20A908D48BA
:1056CC0000880290DBF800004FF4967201F1010E95
:1056DC0001301FFA8EFECBF8000001F1020CB1FB79
:1056EC00F2F002FB10101FFA8CFCCF1C1FFA80FB8F
:1056FC00BEFBF2F002FB10E0BFB21FFA80FEBCFB57
:10570C00F2F002FB10C01FFA80FCB7FBF2F002FBB8
:10571C001070069F80B20590B7FBF2F002FB107080
:10572C00079F80B20690B7FBF2F002FB107087B2B5
:10573C000797089FB7FBF2F002FB107087B208972F
:10574C00099FB7FBF2F002FB107087B209970A9F12
:10575C00B7FBF2F002FB1072029800F01F070297E1
:10576C00471C644807800298634F92B227F81010C8
:10577C005F4F0A920931614A3980A52702F80B70F4
:10578C00059802F80E8002F80C30069B009F02F878
:10579C0000A0D754079B019FD754089F049802F888
:1057AC000790099F039BD0550A9855491354029AA8
:1057BC0009238B54FDF723B8831803225A70FDF785
:1057CC001DB950480BF0DAFD4E4804210BF0BCFE1D
:1057DC004C4808210BF0B2FE4A4840F205310BF060
:1057EC00D7FE494647480BF041FE4FF480514548DF
:1057FC000BF08EFE4FF4005142480BF091FE4148E5
:10580C0000210BF07DFE3F480BF092FEFEF764BDCD
:10581C003C480BF0B3FD3B4804210BF095FE394896
:10582C0008210BF08BFE374840F205310BF0B0FE2F
:10583C00344849460BF01AFE002132480BF068FE42
:10584C004FF400512F480BF06BFE2E484FF4C06103
:10585C000BF056FE2B480BF06BFEFEF73DBD2948B6
:10586C000BF08CFD274804210BF06EFE2548082117
:10587C000BF064FE234840F205310BF089FE214801
:10588C0049460BF0F3FD00211E480BF041FE4FF48E
:10589C0000511C480BF044FE1A484FF480610BF089
:1058AC002FFE18480BF044FEFEF716BD15480BF002
:1058BC0065FD144841460BF047FE124808210BF0D9
:1058CC003DFE104840F205310BF062FE49460D4892
:1058DC000BF0CCFD00218AE7F87600208180803B1C
:1058EC00480A002000000020E81C0108E81D0108FF
:1058FC0088760020D47600208C7600205C75002001
:10590C00D876002000140140D0760020C4480BF05B
:10591C0035FDC34804210BF017FEC14808210BF0DC
:10592C000DFEBF4840F205310BF032FEBC48494633
:10593C000BF09CFD4FF48051B9480BF0E9FD0021B0
:10594C005AE7B7480BF01AFDB54804210BF0FCFDE3
:10595C00B34808210BF0F2FDB14840F205310BF0D1
:10596C0017FEAF4849460BF081FD0021AC480BF007
:10597C00CFFD002166E7AA480BF000FDA8480421E2
:10598C000BF0E2FDA64808210BF0D8FDA44840F22C
:10599C0005310BF0FDFDA24849460BF067FD0021D7
:1059AC009F480BF0B5FD002173E79D480BF0E6FC1A
:1059BC009B4804210BF0C8FD994808210BF0BEFD53
:1059CC00974840F205310BF0E3FD954849460BF042
:1059DC004DFD414692480BF09BFD41460CE791482A
:1059EC000BF0CCFC8F4804210BF0AEFD8D48082148
:1059FC000BF0A4FD8B4840F205310BF0C9FD894832
:105A0C0059460BF033FD4FF4805186480BF080FD66
:105A1C004FF4005183480BF083FD824800210BF0BA
:105A2C006FFD80480BF084FDFEF7A8BC7D480BF0A1
:105A3C00A5FC7C4804210BF087FD7A4808210BF06B
:105A4C007DFD784840F205310BF0A2FD75485946B2
:105A5C000BF00CFD002173480BF05AFD4FF4005174
:105A6C0070480BF05DFD6F484FF4C0610BF048FDC2
:105A7C006C480BF05DFDFEF781BC6A480BF07EFCB8
:105A8C00684804210BF060FD664808210BF056FDB8
:105A9C00644840F205310BF07BFD624859460BF02F
:105AAC00E5FC49465F480BF033FD4FF400515D486F
:105ABC000BF036FD5B484FF480610BF021FD59482B
:105ACC000BF036FDFEF75ABC56480BF057FC554808
