:020000040800F2
:1000000000000320F53801083939010839390108A1
:10001000393901083939010839390108000000006F
:100020000000000000000000000000003939010855
:100030003939010800000000393901083929000860
:1000400039390108393901083939010839390108C4
:1000500039390108393901083939010839390108B4
:1000600039390108393901083939010839390108A4
:1000700039390108BDC50008199B000881870008AF
:1000800039390108CD2A0008393901083939010800
:100090003939010839390108393901083939010874
:1000A0003939010839390108393901083939010864
:1000B0003939010839390108393901083939010854
:1000C0003939010839390108393901083939010844
:1000D0003939010809AD000849290008719900085B
:1000E0003939010839390108393901083939010824
:1000F0003939010839390108393901083939010814
:100100003939010839390108393901083939010803
:10011000D985000839390108393901086D06010807
:100120003939010821CD0008393901083939010868
:1001300039390108393901083939010839390108D3
:1001400039390108393901083939010839390108C3
:1001500039390108E9730008B1AE0008417200089E
:1001600039390108393901083939010839390108A3
:10017000393901083939010839390108000000000E
:100180003939010839390108393901083939010883
:1001900039390108393901083939010800000000EE
:0C01A000393901083939010839390108E2
:1001AC0053B94AB9002908BF00281CBF4FF0FF31D2
:1001BC004FF0FF3000F00CB8ADF1080C6DE904CE37
:1001CC0013F090FCDDF804E0DDE9022304B0704785
:1001DC00704700BF0348044B834202D0034B03B16A
:1001EC0018477047240B0020240B0020000000004F
:1001FC000548064B1B1AD90F01EBA301491002D07D
:10020C00034B03B118477047240B0020240B00202C
:10021C000000000010B5064C237843B9FFF7DAFF55
:10022C00044B13B10448AFF300800123237010BDBD
:10023C00240B002000000000403E010808B5054BCF
:10024C001BB105490548AFF30080BDE80840FFF736
:10025C00CFBF00BF00000000280B0020403E01086B
:10026C002849F8B50B68002B4AD02748274C028840
:10027C00274E013B0B6002F01F03511CE75C254A23
:10028C00018032F8132097B1234D244C314606EBF4
:10029C00470C4FF49660A4FB02E3DB0900FB13232D
:1002AC000132EB5C21F8023B6145F4D1BFB21C4C2E
:1002BC001C48A6600621E76112F0A6F922461948EF
:1002CC00062112F0D3F91748062112F019FA04226C
:1002DC001448062112F028FA1348802113F0B2FAC0
:1002EC0010221048062112F02BFA0E48062112F0AB
:1002FC0011FA0E4A0E49136801200344087013606A
:10030C00F8BD00BF1CA6002020A6002024A60020BB
:10031C0084A6002044A600206CA10020B5814E1BB1
:10032C00F40A00200060024000440040EC0A002067
:10033C005CA100202DE9F04FA24BA34AA3481978E9
:10034C0092F800C0047883B0002940F0A28064B118
:10035C009F4BA04C1D68236841F28832EB1A9342E4
:10036C0000F2688103B0BDE8F08FBCF1000F40F0E3
:10037C00DA80974B974D1E682B68F31A012BF1D935
:10038C0095490A68002AEDD0DFF894E2934BBEF849
:10039C000000934FDFF88CB200F03F0833F81830B0
:1003AC005C1CA4B2A7FB04A94FEAD92909EB4909A3
:1003BC00A4EB8924A4B2DFF870921BF80440A9FBCB
:1003CC0004A904EBD91404F0FF04DFF8609219F8C7
:1003DC0004A009F804C0BAF1000F40F09A80DFF8CD
:1003EC0050A21AF80890B9F1000F00F092807D4AE3
:1003FC007D4812F8082000924FF48041019312F0CE
:10040C0033FD009A002A00F05A81019B0096194690
:10041C00764B184603EB420CA7FB01E6F60A06EBFB
:10042C004606A1EB862601311BF8066020F8026B0C
:10043C008445F1D1009E91B26D4F6E48F961062151
:10044C00BB6012F0E1F83A466A48062112F00EF948
:10045C006848062112F054F905226648062112F06C
:10046C0063F96548802113F0EDF9102261480621EB
:10047C0012F066F906215F4812F04CF95F4A6049A8
:10048C002E60012309F1FF390AF808900B551370FF
:10049C0068E75C4A544814784FF4804100221A7083
:1004AC0012F0E2FCE243D2B2574B5848995C4F4BE6
:1004BC00805C5C8081F03C024D4C9A800425D88095
:1004CC00AF224C48A3600621E5611A8012F09CF81B
:1004DC0022464848062112F0C9F84648062112F077
:1004EC000FF905224348062112F01EF942488021DB
:1004FC0013F0A8F910223F48062112F021F93D48CB
:10050C00062112F007F93D4B01221A7003B0BDE829
:10051C00F08F3F4C2368013A013001330A60AEF88A
:10052C00000023601EE73B4B2F481D7814704FF4DE
:10053C00804112F099FC384B1B78AB4240F2B980E9
:10054C00364A314805EB850302EB4302274B5678BC
:10055C005E8086F03F069478815D9C804C402B49F0
:10056C00D7788E5DDF8084F03F047E40075D0C5DA4
:10057C00DD81774016791E817440C65DCF5D664083
:10058C0054795C816740845D92798E5D9A817C4060
:10059C005640025D0C5D72406540845C8A5C6C4028
:1005AC000A25005D095DAA2442401C80092008240C
:1005BC0023F814200E4C23F81010A3600D48E561AD
:1005CC00062183E7818B0020828B0020AD0A00205E
:1005DC0044AB0020848B002090980020189B0020B6
:1005EC00ABAAAAAAD89A0020000402409C9B002027
:1005FC00C00A002000640240001401408C8B0020D3
:10060C00D8990020AB0A002090560108905501089B
:10061C00B00A0020AC0A002066890020707F002000
:10062C0094980020908C002081808080D8980020A5
:10063C0098980020234B24481E784FF4804112F0E8
:10064C0013FC224B22485E80CC2286F0BF011A801C
:10065C00204A214E525CB36082F015029A801F4AE8
:10066C00525CDA8006210423F36111F0CDFF32468F
:10067C001748062111F0FAFF1548062112F040F830
:10068C0005221348062112F04FF81548802113F06B
:10069C00D9F810220E48062112F052F80C48062107
:1006AC0012F038F80F4B256001221A7003B0BDE828
:1006BC00F08FFF21054B022501200A4678E7034BFA
:1006CC001146B9E6AA0A0020000402409C9B0020B7
:1006DC000064024090560108C00A002090550108A1
:1006EC00001401408C8B00202DE9F04F9D4A9E4B4D
:1006FC0015789E4A19689E489E4C4FF4D07313800F
:10070C000023CEB265F30703C1F3072766F30F236B
:10071C00C1F3074C67F317436CF31F6395B0C2F832
:10072C000230036824780294090ED471CDF800C00D
:10073C0001919171002B00F00E81013B85F01A02A2
:10074C0003608D488D49835C8C5C0A96734083F002
:10075C00EA037C40C25C019E09956240CC5C0B971D
:10076C0063465C40835C8A5C63407240C55CCE5CD3
:10077C00029C834B55406640445D4D5D1B88814A0D
:10078C00744003F10B08005D095D0D9185EA0001D1
:10079C000C91591C1FFA81FC991C67461FFA81FCAD
:1007AC00D91C64461FFA81FC191D66461FFA81FC90
:1007BC00591D65461FFA81FC991DCDF80CC01FFA16
:1007CC0081FCD91DCDF810C01FFA81FC03F1080182
:1007DC00CDF814C01FFA81FC03F10901CDF818C043
:1007EC001FFA81FC03F10A01CDF81CC01FFA81FC31
:1007FC00A2FB0301C8093946A2FB011ECDE90E0775
:10080C00CDF820C0A2FB0610A2FB041C109412957C
:10081C001196039E049C2946A2FB0117A2FB04150A
:10082C00059CA2FB0616A2FB04140699A2FB0191DF
:10083C00C90913910799A2FB01A908991FFA88F815
:10084C00A2FB01BA0F99A2FB082B4FEADE1E4FF454
:10085C00966202FB1E1E10994FEADC1C02FB1C1C4C
:10086C001199C00902FB10110F9112991398FF09ED
:10087C0002FB17170399F60902FB16160499ED09EA
:10088C0002FB15150599E40902FB1414069902FBE9
:10089C00101106910799BDF83C004FEAD91902FBDB
:1008AC00191908994FEADA1A02FB1A1A0E994FEA2B
:1008BC00DB1B02FB1B8B02FB11321FFA87F8B1B258
:1008CC00AFB203910497BDF818102F4F06912F4922
:1008DC003D88A4B205940C682B4905F01F06013520
:1008EC000D802B4D294925F81630254D92B2671CE9
:1008FC000C33284C2B801FFA8EFEA525A5541FFA0D
:10090C008CFC082204F80E20A02204F80C20099D6F
:10091C00214B0F600122225404F80850039D0A9ABF
:10092C006255049D0B9A6255059D0098069A605578
:10093C001FFA89F90198A0541FFA8AFA029A04F84E
:10094C0009201FFA8BFB0D9A0C9804F80A0004F886
:10095C000B200C229A55114B01221A7015B0BDE8D0
:10096C00F08F00BFB80A0020B40A0020788B00205A
:10097C00EC0A0020989B0020905601089055010825
:10098C006AA10020B5814E1B22A600201CA60020C7
:10099C0044A600206CA1002024A60020808B0020FF
:1009AC002DE9F04FB34BB44AB448197892F800C013
:1009BC00047883B0002940F0A28064B1B04BB14DF3
:1009CC001E682B6841F28832F31A934200F28A8136
:1009DC0003B0BDE8F08FBCF1000F40F0DA80A84BFB
:1009EC00A84D1E682B68F31A012BF1D9A6490A6889
:1009FC00002AEDD0DFF8D8E2A44BBEF80000A44FDB
:100A0C00DFF8D0B200F03F0833F818305C1CA4B209
:100A1C00A7FB04A94FEAD92909EB4909A4EB8924BE
:100A2C00A4B2DFF8B4921BF80440A9FB04A904EBB0
:100A3C00D91404F0FF04DFF8A49219F804A009F803
:100A4C0004C0BAF1000F40F09A80DFF894A21AF8B3
:100A5C000890B9F1000F00F092808E4A8E4812F87F
:100A6C00082000924FF48051019312F0FDF9009A86
:100A7C00002A00F07C81019B00961946874B184692
:100A8C0003EB420CA7FB01E6F60A06EB4606A1EBCC
:100A9C00862601311BF8066020F8026B8445F1D1E3
:100AAC00009E91B27E4F7F48F9610421BB6011F02A
:100ABC00ABFD3A467B48042111F0D8FD794804215E
:100ACC0011F01EFE04221146764811F02DFE7648D8
:100ADC00802112F0B7FE10227248042111F030FE72
:100AEC000421704811F016FE704A71492E600123E2
:100AFC0009F1FF390AF808900B55137068E76D4A35
:100B0C00654815784FF4805100221A7012F0ACF938
:100B1C00EA43D2B2684B6948995C604B805C5D805B
:100B2C0004245F4DD88081F03C029A802146AF228C
:100B3C005C48AB601A80EC6111F066FD2A462146D8
:100B4C00584811F093FD2146564811F0D9FD224624
:100B5C002146544811F0E8FD5348802112F072FEF2
:100B6C00102221464F4811F0EBFD4E48214611F062
:100B7C00D1FD4E4B01221A7003B0BDE8F08F504CE2
:100B8C002368013A013001330A60AEF8000023609B
:100B9C001EE74C4B40481D7814704FF4805112F0F6
:100BAC0063F9494B1B78AB4240F2DB80474A424821
:100BBC0005EB850302EB4302384B56785E8086F0DA
:100BCC003F069478815D9C804C403C49D7788E5D83
:100BDC00DF8084F03F047E40075D0C5DDD81774053
:100BEC0016791E817440C65DCF5D664054795C8178
:100BFC006740845D92798E5D9A817C405640025D9F
:100C0C000C5D72406540845C8A5C6C400A25005D1A
:100C1C00095DAA2442401C800920082423F81420D2
:100C2C001F4C23F810101F48A3600421E56111F03C
:100C3C00EBFC22461B48042111F018FD1948042135
:100C4C0011F05EFD04221146164811F06DFD164898
:100C5C00802112F0F7FD10221248042111F070FDD2
:100C6C001048042111F056FD104B01221A7003B0EC
:100C7C00BDE8F08F9D6A00209E6A00206D08002060
:100C8C0044AB0020A06A0020AC770020347A00200E
:100C9C00ABAAAAAAF479002000080240B87A002076
:100CAC008008002000600240004C0040A86A002030
:100CBC00F47800206B08002090560108905501082C
:100CCC00700800206C080020826800208C5E0020D8
:100CDC00B0770020AC6B002081808080F4770020FE
:100CEC00B4770020234B24481C78244F4FF48051B8
:100CFC0012F0BAF8224B23485C80CC221A8084F084
:100D0C00BF01214ABB60525C82F015029A801F4AD7
:100D1C000424525CDA802146FC6111F075FC3A46E1
:100D2C002146184811F0A2FC2146164811F0E8FCA7
:100D3C0022462146134811F0F7FC1548802112F089
:100D4C0081FD102221460F4811F0FAFC0D48214676
:100D5C0011F0E0FC0F4B2E6001221A7003B0BDE8BD
:100D6C00F08FFF21064B022501200A4656E7044B63
:100D7C00114697E66A08002000080240800800200F
:100D8C00B87A002000600240905601089055010886
:100D9C00004C0040A86A00202DE9F04F9D4A9E4B64
:100DAC0015789E4A19689E489E4C4FF42873138000
:100DBC000023CEB265F30703C1F3072766F30F23B5
:100DCC00C1F3074C67F317436CF31F6395B0C2F87C
:100DDC000230036824780294090ED471CDF800C057
:100DEC0001919171002B00F00E81013B85F05A02AC
:100DFC0003608D488D49835C8C5C0A96734083F04C
:100E0C00EB037C40C25C019E09956240CC5C0B9765
:100E1C0063465C40835C8A5C63407240C55CCE5C1C
:100E2C00029C834B55406640445D4D5D1B88814A56
:100E3C00744003F10B08005D095D0D9185EA00011A
:100E4C000C91591C1FFA81FC991C67461FFA81FCF6
:100E5C00D91C64461FFA81FC191D66461FFA81FCD9
:100E6C00591D65461FFA81FC991DCDF80CC01FFA5F
:100E7C0081FCD91DCDF810C01FFA81FC03F10801CB
:100E8C00CDF814C01FFA81FC03F10901CDF818C08C
:100E9C001FFA81FC03F10A01CDF81CC01FFA81FC7A
:100EAC00A2FB0301C8093946A2FB011ECDE90E07BE
:100EBC00CDF820C0A2FB0610A2FB041C10941295C6
:100ECC001196039E049C2946A2FB0117A2FB041554
:100EDC00059CA2FB0616A2FB04140699A2FB019129
:100EEC00C90913910799A2FB01A908991FFA88F85F
:100EFC00A2FB01BA0F99A2FB082B4FEADE1E4FF49E
:100F0C00966202FB1E1E10994FEADC1C02FB1C1C95
:100F1C001199C00902FB10110F9112991398FF0936
:100F2C0002FB17170399F60902FB16160499ED0933
:100F3C0002FB15150599E40902FB1414069902FB32
:100F4C00101106910799BDF83C004FEAD91902FB24
:100F5C00191908994FEADA1A02FB1A1A0E994FEA74
:100F6C00DB1B02FB1B8B02FB11321FFA87F8B1B2A1
:100F7C00AFB203910497BDF818102F4F06912F496B
:100F8C003D88A4B205940C682B4905F01F06013569
:100F9C000D802B4D294925F81630254D92B2671C32
:100FAC000C33284C2B801FFA8EFEA525A5541FFA56
:100FBC008CFC082204F80E20A02204F80C20099DB9
:100FCC00214B0F600222225404F80850039D0A9A08
:100FDC006255049D0B9A6255059D0098069A6055C2
:100FEC001FFA89F90198A0541FFA8AFA029A04F898
:100FFC0009201FFA8BFB0D9A0C9804F80A0004F8D0
:10100C000B200C229A55114B01221A7015B0BDE819
:10101C00F08F00BF7808002074080020946A00202C
:10102C00EC0A0020B47A0020905601089055010873
:10103C006AA10020B5814E1B22A600201CA6002010
:10104C0044A600206CA1002024A600209C6A00204D
:10105C002DE9F04FA24BA34AA348197892F800C08F
:10106C00047883B0002940F0A28064B19F4BA04C5F
:10107C001D68236841F28832EB1A934200F26881B2
:10108C0003B0BDE8F08FBCF1000F40F0DA80974B55
:10109C00974D1E682B68F31A012BF1D995490A68F4
:1010AC00002AEDD0DFF894E2934BBEF80000934F8A
:1010BC00DFF88CB200F03F0833F818305C1CA4B297
:1010CC00A7FB04A94FEAD92909EB4909A4EB892408
:1010DC00A4B2DFF870921BF80440A9FB04A904EB3E
:1010EC00D91404F0FF04DFF8609219F804A009F891
:1010FC0004C0BAF1000F40F09A80DFF850A21AF841
:10110C000890B9F1000F00F092807D4A7D4812F8EA
:10111C00082000924FF40041019311F0A5FE009AB3
:10112C00002A00F05A81019B00961946764B18460E
:10113C0003EB420CA7FB01E6F60A06EB4606A1EB15
:10114C00862601311BF8066020F8026B8445F1D12C
:10115C00009E91B26D4F6E48F9610321BB6011F096
:10116C0053FA3A466A48032111F080FA6848032181
:10117C0011F0C6FA04226648032111F0D5FA65482D
:10118C00802112F05FFB10226148032111F0D8FA84
:10119C0003215F4811F0BEFA5F4A60492E600123BB
:1011AC0009F1FF390AF808900B55137068E75C4A8F
:1011BC00544814784FF4004100221A7011F054FE78
:1011CC00E243D2B2574B5848995C4F4B805C5C80E1
:1011DC0081F03C024D4C9A800425D880AF224C48BB
:1011EC00A3600321E5611A8011F00EFA22464848EB
:1011FC00032111F03BFA4648032111F081FA042235
:10120C004348032111F090FA4248802112F01AFB56
:10121C0010223F48032111F093FA3D48032111F0AD
:10122C0079FA3D4B01221A7003B0BDE8F08F3F4CA8
:10123C002368013A013001330A60AEF800002360E4
:10124C001EE73B4B2F481D7814704FF4004111F0F2
:10125C000BFE384B1B78AB4240F2B980364A314812
:10126C0005EB850302EB4302274B56785E8086F034
:10127C003F069478815D9C804C402B49D7788E5DDD
:10128C00DF8084F03F047E40075D0C5DDD8177409C
:10129C0016791E817440C65DCF5D664054795C81C1
:1012AC006740845D92798E5D9A817C405640025DE8
:1012BC000C5D72406540845C8A5C6C400A25005D64
:1012CC00095DAA2442401C800920082423F814201C
:1012DC000E4C23F81010A3600D48E561032183E741
:1012EC00B9490020BA4900202D06002044AB00204B
:1012FC00BC490020C856002050590020ABAAAAAA0D
:10130C001059002000040240D4590020400600204F
:10131C000060024000480040C449002010580020E2
:10132C002B0600209056010890550108300600202D
:10133C002C0600209E470020A83D0020CC56002003
:10134C00C84A00208180808010570020D056002091
:10135C00234B24481E784FF4004111F085FD224B9D
:10136C0022485E80CC221A8086F0BF01204A214E92
:10137C00525CB36082F015029A801F4A0427525CBB
:10138C00DA800321F76111F03FF932461748032147
:10139C0011F06CF91548032111F0B2F93A461348D3
:1013AC00032111F0C1F91548802112F04BFA1022DB
:1013BC000E48032111F0C4F90C48032111F0AAF9CD
:1013CC000F4B256001221A7003B0BDE8F08FFF218E
:1013DC00054B022501200A4678E7034B1146B9E676
:1013EC002A06002000040240D4590020006002406C
:1013FC009056010840060020905501080048004016
:10140C00C44900202DE9F04F9D4A9E4B15789E4A09
:10141C0019689E489E4C4FF4687313800023CEB21B
:10142C0065F30703C1F3072766F30F23C1F3074CDA
:10143C0067F317436CF31F6395B0C2F8023003686F
:10144C0024780294090ED471CDF800C001919171E9
:10145C00002B00F00E81013B85F09B0203608D4850
:10146C008D49835C8C5C0A96734083F02B037C4023
:10147C00C25C019E09956240CC5C0B9763465C4054
:10148C00835C8A5C63407240C55CCE5C029C834B7F
:10149C0055406640445D4D5D1B88814A744003F1A4
:1014AC000B08005D095D0D9185EA00010C91591C3A
:1014BC001FFA81FC991C67461FFA81FCD91C6446F3
:1014CC001FFA81FC191D66461FFA81FC591D6546E1
:1014DC001FFA81FC991DCDF80CC01FFA81FCD91D97
:1014EC00CDF810C01FFA81FC03F10801CDF814C02F
:1014FC001FFA81FC03F10901CDF818C01FFA81FC19
:10150C0003F10A01CDF81CC01FFA81FCA2FB0301F8
:10151C00C8093946A2FB011ECDE90E07CDF820C043
:10152C00A2FB0610A2FB041C109412951196039EAC
:10153C00049C2946A2FB0117A2FB0415059CA2FBE7
:10154C000616A2FB04140699A2FB0191C90913917A
:10155C000799A2FB01A908991FFA88F8A2FB01BA06
:10156C000F99A2FB082B4FEADE1E4FF4966202FB8A
:10157C001E1E10994FEADC1C02FB1C1C1199C009A1
:10158C0002FB10110F9112991398FF0902FB171708
:10159C000399F60902FB16160499ED0902FB1515C1
:1015AC000599E40902FB1414069902FB101106912B
:1015BC000799BDF83C004FEAD91902FB1919089993
:1015CC004FEADA1A02FB1A1A0E994FEADB1B02FBDE
:1015DC001B8B02FB11321FFA87F8B1B2AFB2039129
:1015EC000497BDF818102F4F06912F493D88A4B2CF
:1015FC0005940C682B4905F01F0601350D802B4D09
:10160C00294925F81630254D92B2671C0C33284C0D
:10161C002B801FFA8EFEA525A5541FFA8CFC0822E0
:10162C0004F80E20A02204F80C20099D214B0F6019
:10163C000322225404F80850039D0A9A6255049D13
:10164C000B9A6255059D0098069A60551FFA89F908
:10165C000198A0541FFA8AFA029A04F809201FFA7A
:10166C008BFB0D9A0C9804F80A0004F80B200C2242
:10167C009A55114B01221A7015B0BDE8F08F00BFBE
:10168C003806002034060020B0490020EC0A002067
:10169C00D059002090560108905501086AA10020ED
:1016AC00B5814E1B22A600201CA6002044A60020BB
:1016BC006CA1002024A60020B84900202DE9F04F91
:1016CC00A14BA24AA248197892F800C0047883B0C2
:1016DC00002940F0A18064B19E4B9F4C1D6823688B
:1016EC0041F28832EB1A934200F2668103B0BDE8F6
:1016FC00F08FBCF1000F40F0D880964B964D1E68D1
:10170C002B68F31A012BF1D994490A68002AEDD001
:10171C00DFF890E2924BBEF80000924FDFF888B2EF
:10172C0000F03F0833F818305C1CA4B2A7FB04A9E6
:10173C004FEAD92909EB4909A4EB8924A4B2DFF8B3
:10174C006C921BF80440A9FB04A904EBD91404F017
:10175C00FF04DFF85C9219F804A009F804C0BAF190
:10176C00000F40F09880DFF84CA21AF80890B9F1FD
:10177C00000F00F090807C4A7C4812F80820009200
:10178C000221019311F070FB009A002A00F058819D
:10179C00019B00961946764B184603EB420CA7FBAF
:1017AC0001E6F60A06EB4606A1EB862601311BF88C
:1017BC00066020F8026B8445F1D1009E91B26D4F0A
:1017CC006D48F9610721BB6010F01EFF3A466A486C
:1017DC00072110F04BFF6848072110F091FF0422FD
:1017EC006548072110F0A0FF6448802112F02AF808
:1017FC0010226148072110F0A3FF07215E4810F06A
:10180C0089FF5F4A5F492E60012309F1FF390AF80D
:10181C0008900B55137069E75B4A54481478022101
:10182C0000221A7011F020FBE243D2B2574B5848F9
:10183C00995C4F4B805C5C8081F03C024D4C9A80F3
:10184C000425D880AF224C48A3600721E5611A809B
:10185C0010F0DAFE22464848072110F007FF4648F0
:10186C00072110F04DFF04224348072110F05CFFC4
:10187C004248802111F0E6FF10223F48072110F06A
:10188C005FFF3D48072110F045FF3D4B01221A70C8
:10189C0003B0BDE8F08F3F4C2368013A01300133AF
:1018AC000A60AEF80000236020E73B4B2F481D7800
:1018BC001470022111F0D8FA384B1B78AB4240F26D
:1018CC00B980374A314805EB850302EB4302284BBC
:1018DC0056785E8086F03F069478815D9C804C4003
:1018EC002B49D7788E5DDF8084F03F047E40075D06
:1018FC000C5DDD81774016791E817440C65DCF5D2D
:10190C00664054795C816740845D92798E5D9A81E2
:10191C007C405640025D0C5D72406540845C8A5C84
:10192C006C400A25005D095DAA2442401C800920F8
:10193C00082423F814200F4C23F81010A3600E4831
:10194C00E561072184E700BFD5280020D6280020B8
:10195C00ED03002044AB0020D8280020E435002003
:10196C006C380020ABAAAAAA2C380020000C02402C
:10197C00F0380020000400200064024000100140F8
:10198C00E02800202C370020EB03002090560108A3
:10199C0090550108F0030020EC030020BA2600202B
:1019AC00C41C0020E8350020E429002081808080C0
:1019BC002C360020EC350020234B24481E780221C5
:1019CC0011F052FA224B23485E80CC221A8086F00A
:1019DC00BF01214A214E525CB36082F015029A80FD
:1019EC001F4A0427525CDA800721F76110F00CFEC5
:1019FC0032461848072110F039FE1648072110F01E
:101A0C007FFE3A461348072110F08EFE15488021C0
:101A1C0011F018FF10220F48072110F091FE0D480D
:101A2C00072110F077FE104B256001221A7003B0CD
:101A3C00BDE8F08FFF21064B022501200A4678E70E
:101A4C00034B1146BBE600BFEA030020000C02402A
:101A5C00F038002000640240905601080004002079
:101A6C009055010800100140E02800202DE9F04FAE
:101A7C009D4A9E4B15789E4A19689E489E4C4FF481
:101A8C00946313800023CEB265F30703C1F30727D9
:101A9C0066F30F23C1F3074C67F317436CF31F6313
:101AAC0095B0C2F80230036824780294090ED47100
:101ABC00CDF800C001919171002B00F00E81013B1B
:101ACC0085F0DA0203608D488D49835C8C5C0A9644
:101ADC00734083F0E9037C40C25C019E099562402F
:101AEC00CC5C0B9763465C40835C8A5C63407240C1
:101AFC00C55CCE5C029C834B55406640445D4D5D9D
:101B0C001B88814A744003F10B08005D095D0D913F
:101B1C0085EA00010C91591C1FFA81FC991C67463F
:101B2C001FFA81FCD91C64461FFA81FC191D6646FC
:101B3C001FFA81FC591D65461FFA81FC991DCDF8D1
:101B4C000CC01FFA81FCD91DCDF810C01FFA81FC06
:101B5C0003F10801CDF814C01FFA81FC03F109014F
:101B6C00CDF818C01FFA81FC03F10A01CDF81CC096
:101B7C001FFA81FCA2FB0301C8093946A2FB011E16
:101B8C00CDE90E07CDF820C0A2FB0610A2FB041C69
:101B9C00109412951196039E049C2946A2FB0117E2
:101BAC00A2FB0415059CA2FB0616A2FB04140699C5
:101BBC00A2FB0191C90913910799A2FB01A90899EC
:101BCC001FFA88F8A2FB01BA0F99A2FB082B4FEA67
:101BDC00DE1E4FF4966202FB1E1E10994FEADC1CAF
:101BEC0002FB1C1C1199C00902FB10110F911299D8
:101BFC001398FF0902FB17170399F60902FB161637
:101C0C000499ED0902FB15150599E40902FB14145E
:101C1C00069902FB101106910799BDF83C004FEA9A
:101C2C00D91902FB191908994FEADA1A02FB1A1A88
:101C3C000E994FEADB1B02FB1B8B02FB11321FFAC6
:101C4C0087F8B1B2AFB203910497BDF818102F4FBB
:101C5C0006912F493D88A4B205940C682B4905F0D8
:101C6C001F0601350D802B4D294925F81630254DC1
:101C7C0092B2671C0C33284C2B801FFA8EFEA525C4
:101C8C00A5541FFA8CFC082204F80E20A02204F89C
:101C9C000C20099D214B0F600422225404F808509B
:101CAC00039D0A9A6255049D0B9A6255059D0098F6
:101CBC00069A60551FFA89F90198A0541FFA8AFAFE
:101CCC00029A04F809201FFA8BFB0D9A0C9804F861
:101CDC000A0004F80B200C229A55114B01221A70A1
:101CEC0015B0BDE8F08F00BFF8030020F40300200E
:101CFC00CC280020EC0A0020EC380020905601087B
:101D0C00905501086AA10020B5814E1B22A6002027
:101D1C001CA6002044A600206CA1002024A60020B4
:101D2C00D42800202DE9F04F83B010F05DFE012087
:101D3C0010F06CFF022010F069FF102010F066FF0D
:101D4C00402010F063FFDFF858928C4F8C4E8020AF
:101D5C0010F05CFF4FF0FF08582010F061FE09F105
:101D6C00C80A10F053FE1025444621E0B15C17F868
:101D7C0002804C4010F038FE012010F047FF02208A
:101D8C0010F044FF102010F041FF402010F03EFFF7
:101D9C00802010F03BFF7B480121281809F1020933
:101DAC0010F0BEFE10F032FECA4505F1080549D010
:101DBC0099F800B08BEA0404325D3C5D88EA0208B5
:101DCC0010F012FE012010F021FF022010F01EFF77
:101DDC00102010F01BFF402010F018FF802010F096
:101DEC0015FF69485946281810F09AFE10F00EFE9F
:101DFC0099F8011088F001020029B7D116F80820D3
:101E0C000191544017F8088010F0EEFD012010F0FD
:101E1C00FDFE022010F0FAFE102010F0F7FE40201C
:101E2C0010F0F4FE802010F0F1FE564801992818AD
:101E3C0009F1020910F074FE10F0E8FDCA4505F135
:101E4C000805B5D1DFF85C91504D99F800A08AEAED
:101E5C00040309F11009F45C17F803B010F0C4FD89
:101E6C00012010F0D3FE022010F0D0FE102010F054
:101E7C00CDFE402010F0CAFE802010F0C7FE514667
:101E8C00281F10F04DFE10F0C1FD19F80FAC84EABC
:101E9C000A0388EA030316F80380FC5C10F0A4FD27
:101EAC00012010F0B3FE022010F0B0FE102010F054
:101EBC00ADFE402010F0AAFE802010F0A7FE514687
:101ECC00284610F02DFE10F0A1FD19F80CAC8BEA91
:101EDC0008038AEA0303F25C17F80380544010F0FD
:101EEC0083FD012010F092FE022010F08FFE1020D6
:101EFC0010F08CFE402010F089FE802010F086FE41
:101F0C005146281D10F00CFE10F080FD204B0C35B6
:101F1C009D429AD110F068FD012010F077FE02204E
:101F2C0010F074FE102010F071FE402010F06EFEC8
:101F3C00802010F06BFE2146164810F0F1FD10F0D9
:101F4C0065FD10F051FD012010F060FE022010F034
:101F5C005DFE102010F05AFE402010F057FE80203D
:101F6C0010F054FE41460C4810F0DAFD10F04EFD16
:101F7C000A4B00221A7003B0BDE8F08F905501088F
:101F8C0090560108FCFF0D08F8FF0D082C030E08F5
:101F9C00A4030E0800000E0804000E08C60D002055
:101FAC00481A00209C000020BB4B1B78092B00F228
:101FBC002A812DE9F04FB9490A6889B0002A00F04E
:101FCC002681013A0A60B648B64AB74E1488039483
:101FDC0000EB03125C1C92F804A00AF102025200FE
:101FEC00D5B2019585F07F02B04DA95CB25C81F051
:101FFC0073011B01E4B2C05C029482EA04036A5CC4
:10200C00715C04905A404140AB5CB25C34464B402E
:10201C00A74EE95CB6F800B0A64D8AEA020281EA46
:10202C0002080BF1010E0BF1020C0BF103070BF183
:10203C0004061FFA8EFE1FFA8CFCBFB2B6B2CDF8A6
:10204C00188014F80380CDF81480A5FB0B234FEAFD
:10205C00D3190BF10500A5FB0E31A5FB0C32A5FB2A
:10206C000743A5FB0654934D80B2A5FB00584FEADD
:10207C00D8184FF4966505FB1800C90905FB11E14A
:10208C001FFA80F8DB098C4805FB1373E4098FB247
:10209C0005FB146407979EB2069F8249A0FB0A3089
:1020AC00824BD20905FB12C213F807C0059B83EAC9
:1020BC000C0C7D4B4009DB5D642707FB10A0039FD4
:1020CC0005FB19B91FFA84FE01377C4C0F801FFAEF
:1020DC0089F9A52704F80970079F0199E15592B277
:1020EC004821A154029AA25510F0FF00049A04F85A
:1020FC000E2004F808A000F0CA804000C7B2FA1DF8
:10210C00D2B201926E4ADFF8CC911268CDE904B7D5
:10211C000BF1060189B2072009EB420602F1010816
:10212C0096F801E019F812608CF0010A00F1020B2C
:10213C004746BEF1000F73D05C4F17F80A705F4032
:10214C00594B13F80AC05B4BA3FB01E3DB0905FBFE
:10215C0013139BB24FF0010E04F803E04A1C554BCD
:10216C0092B2A3FB02E3DB0905FB132292B2774088
:10217C00A654514A4D4B82FB08264FEAE872DB5DB0
:10218C00C2EB6612642606FB1282019E5FFA8BF08C
:10219C008CEA030C444B02318642DB5D89B2BBD125
:1021AC00DDE904B746490A6007F10801BA1DC9B256
:1021BC00304602F0FE020D463D4F039E5D443D80CD
:1021CC005A443C4F3F4D92B25844A7FB02E880B2B0
:1021DC00A7FB00E74FEAD8184FF4966E0EFB1822B7
:1021EC0092B2FF090EFB170004F802C082B206F08F
:1021FC001F06A3542B6801332B60334B23F816B006
:10220C00324B995506E0324B00221A70704701335D
:10221C00DBB20293204B029A1A7009B0BDE8F08F22
:10222C00224A12F80C80234AA2FB01A2D20905FB18
:10223C00121283EA080892B21B4B04F802E013F85E
:10224C000CC01C4A4B1C9BB2A2FB03E2D20905FB3F
:10225C00123388EA0608154A9BB25FFA8BF0E654F3
:10226C0012F80830144A82FB0726FA17C2EB6612E2
:10227C00642606FB1272019E8CEA030C0A4B023197
:10228C00B04213F8083089B27FF446AF88E70825CE
:10229C002946072006228FE7C40D0020EC0A0020F7
:1022AC009C00002022A600209055010890560108A1
:1022BC006AA10020B5814E1B1F85EB516CA100203B
:1022CC00BC0D00201CA6002044A6002024A6002043
:1022DC00C50D0020481A00202DE9F04F9D4A9E4C58
:1022EC001278236885B002929C4A12780192002BD6
:1022FC0040F0428102F03F0823688BB9DDE90132DE
:10230C009A4207D903F1010B944B83F800B005B046
:10231C00BDE8F08F924B00221A7005B0BDE8F08F2B
:10232C00DFF850928F4DB9F800208F4E8F4F9048A8
:10233C00013B2360A5FB02131B0903EB4303A2EB38
:10234C00C3039BB203EB430301324FF0010AA9F81C
:10235C000020F218514606F803A082F8018082F89A
:10236C0002A011F067F93B6853443B602368002BD3
:10237C00C4D0B9F800207E48013B2360A5FB0213B2
:10238C001B0903EB4303A2EBC3039BB203EB430315
:10239C00524406F803A03344A9F800205146022207
:1023AC0083F801809A7011F045F93B6853443B6007
:1023BC002368002BA2D0B9F800206D48013B2360A4
:1023CC00A5FB02131B0903EB4303A2EBC3039BB254
:1023DC0003EB4303524406F803A03344A9F800204E
:1023EC005146032283F801809A7011F023F93B685F
:1023FC0053443B602368002B80D0B9F800205C4824
:10240C00013B2360A5FB02131B0903EB4303A2EB67
:10241C00C3039BB203EB4303524406F803A03344BB
:10242C00A9F800205146042283F801809A7011F01B
:10243C0001F93B6853443B602368002B3FF45EAFCB
:10244C00B9F800204A48013B2360A5FB02131B0985
:10245C0003EB4303A2EBC3039BB203EB43035244D2
:10246C0006F803A03344A9F800205146052283F84E
:10247C0001809A7011F0DEF83B6853443B6023688E
:10248C00002B3FF43BAFB9F800203948013B2360E7
:10249C00A5FB02131B0903EB4303A2EBC3039BB283
:1024AC0003EB4303524406F803A03344A9F800207D
:1024BC005146062283F801809A7011F0BBF83B68F4
:1024CC0053443B602368002B3FF418AFB9F800204D
:1024DC002748013B2360A5FB02131B0903EB4303B5
:1024EC00A2EBC3039BB203EB4303524406F803A0D5
:1024FC003344A9F800205146072283F801809A70D2
:10250C0011F098F83B6853443B602368002B3FF470
:10251C00F5AEB9F800201648013B2360A5FB023547
:10252C002D0905EB4505A2EBC5039BB203EB430359
:10253C00524406F803A01E4451460823B370A9F870
:10254C00002086F8018011F075F83B6853443B601D
:10255C00D4E600BFAE0D002000000020AD0D002021
:10256C00AC0D0020ABAAAAAA600B0020580B0020CF
:10257C00001400405E0B0020DFF860B3D24DBBF8B6
:10258C000010D24FD24EA5FB0102120902EB4202FF
:10259C00A1EBC20292B202EB42020131ABF8001085
:1025AC00B918013B4FF0020C4FF0000A2360C948E8
:1025BC0027F802C081F802A0012111F03BF8316824
:1025CC00013131602168002900F0A981BBF800C0FD
:1025DC00C04801392160A5FB0CE1090901EB41015F
:1025EC00ACEBC10189B201EB41010CF1010CABF870
:1025FC0000C04FF4AA4E07EB010C27F801E00121B3
:10260C008CF802A011F016F83168019B0131316091
:10261C00216803F03F0800293FF46EAEBBF80000C0
:10262C00AD4B01392160A5FB00C1090901EB41014A
:10263C00A0EBC10189B201EB4101013007F801A007
:10264C003944ABF8000013F83800487081F802A048
:10265C00A048012110F0EEFF316801313160216892
:10266C0000293FF449AEBBF800009B4B01392160B7
:10267C00A5FB00C1090901EB4101A0EBC10189B225
:10268C0001EB410103EBC80907F801A00130394403
:10269C00ABF8000099F80100487081F802A08D4851
:1026AC00012110F0C7FF31680131316021684FEA18
:1026BC00C802039200293FF41FAEBBF800C099F882
:1026CC00020001392160A5FB0CE1090901EB410174
:1026DC00ACEBC10189B201EB41010CF1010C07F823
:1026EC0001A03944ABF800C0487081F802A07948C9
:1026FC00012110F09FFF3168013131602168002900
:10270C003FF4FAADBBF800C099F803000139216021
:10271C00A5FB0CE1090901EB4101ACEBC10189B24C
:10272C0001EB41010CF1010C07F801A03944ABF8A5
:10273C0000C0487081F802A06648012110F07AFFB1
:10274C00316801313160216800293FF4D5ADBBF807
:10275C0000C099F8040001392160A5FB0CE10909BE
:10276C0001EB4101ACEBC10189B201EB41010CF170
:10277C00010C07F801A03944ABF800C0487081F88F
:10278C0002A05448012110F055FF3168013131602D
:10279C00216800293FF4B0ADBBF800C099F80500E2
:1027AC0001392160A5FB0CE1090901EB4101ACEBFE
:1027BC00C10189B201EB41010CF1010C07F801A038
:1027CC003944ABF800C0487081F802A0414801219F
:1027DC0010F030FF316801313160216800293FF47D
:1027EC008BADBBF800C099F8060001392160A5FB40
:1027FC000C152D0905EB4501ACEBC10189B201EBC0
:10280C0041010CF1010C07F801A03944ABF800C0F0
:10281C00487081F802A02F48012110F00BFF32689C
:10282C00013232602268002A3FF466AD013A226020
:10283C00BBF80020244D0399274B501CABF800002B
:10284C00A5FB02C0000900EB4000A2EBC00292B253
:10285C0002EB42021944B818C97941704FF00009D3
:10286C0080F8029001211B4807F8029010F0E2FE5C
:10287C003268013232602268002A3FF43DADBBF869
:10288C0000101448013A2260A5FB01C2120902EBA8
:10289C004202A1EBC20292B202EB42020131ABF84E
:1028AC000010B9184FF43E4C27F802C081F8029082
:1028BC00012110F0BFFE3268013232602268002A1A
:1028CC003FF41CAD0CE000BFABAAAAAA600B002021
:1028DC00580B002000140040AC0B00205E0B0020B5
:1028EC00BBF800101048013A2260A5FB01252D0908
:1028FC0005EB4505A1EBC50292B202EB4202BB18F7
:10290C000131ABF80010012183F8029083F80180AB
:10291C00B95410F08FFE336801333360ECE4019B43
:10292C0003F03F08E8E400BF00140040024A1368BB
:10293C0001331360704700BF44AB002070B55149A0
:10294C00514810F0ADFF054600286ED14F494E4856
:10295C0010F0A6FF064600285ED14D494A4810F0FB
:10296C009FFF044600284ED147484FF4427110F0A7
:10297C0097FFC8B94749444810F092FF38BB45EA65
:10298C0006000443E4B254BB43493F4810F088FFAF
:10299C00002837D0414A1368002B4FD1BDE8704056
:1029AC003D49394810F092BF3748002110F050FFD4
:1029BC00354843F2080110F04BFF33484FF4427195
:1029CC0010F084FF3349304810F06AFF38B12E48BC
:1029DC00032110F03DFF2F492B4810F077FF304CAE
:1029EC002E483049304D314A002323804FF49674E1
:1029FC0004600B60244828492B80137010F050FFA2
:102A0C000028C7D170BD2048032110F021FF2049B8
:102A1C001D4810F05BFFA7E71B48022110F018FFC0
:102A2C001A49194810F052FF97E71748012110F086
:102A3C000FFF1449144810F049FF87E71849124852
:102A4C000C88013B1360631C0B8010F0F7FE184BD5
:102A5C00144AA3FB04135B094FF4967101FB134456
:102A6C00A4B21449136821F81400134813490068E0
:102A7C0008600133BDE8704007490348136010F04B
:102A8C0025BF00BF00050100004400400005020006
:102A9C00000503000503030005030500F00A0020F0
:102AAC003AAB002034AB002038AB002055A10020FD
:102ABC00B5814E1BDCA8002044AB002058A100209F
:102ACC0008B50948202206210FF04CFE00B908BDBC
:102ADC00064B05484FF0000C83F800C02022BDE8DF
:102AEC00084006210FF064BF006002405CA100208A
:102AFC0010B5234B2348244990F800E02348244C7C
:102B0C001A464FF0F00C02F801CBB0F800C0086880
:102B1C00C3F8010089889180204683F807E0A3F868
:102B2C0008C010F09FFD2046042110F081FE2046C5
:102B3C00082110F077FE204640F2053110F096FE89
:102B4C0020464FF4A06110F091FE20464FF44271E4
:102B5C0010F08CFE20460F4910F0FCFD20460021A1
:102B6C0010F04AFE2046002110F04EFE20460021B7
:102B7C0010F03AFE2046BDE8104010F04DBE00BFEC
:102B8C0060A100201E0B00203CAB00201C0B002081
:102B9C000044004040420F0081490A6802B381485A
:102BAC00013A2DE9F04F03880A607F4AA2FB0352D9
:102BBC004FF496745209591C04FB12339BB27B4C94
:102BCC007B4A018032F81320237893B04BB9A52AA5
:102BDC0049D0784A13680133136013B0BDE8F08F05
:102BEC007047012BF5D174490B78012B4AD0022B7D
:102BFC0014D0032B69D0042BEBD1704B7048714966
:102C0C001B7890F800A049782BB1B2F5807F28BFD3
:102C1C000022914267D000232370DAE76A4D6B4B98
:102C2C002878684C6A4EA3FB0073B2F5807F00EBEA
:102C3C00D31328BF002203F0FF03D2B2F25423783F
:102C4C005A40644B01309E5C634BC0B228709D5C53
:102C5C005B4B1A78637866706B4082422370B8D1F4
:102C6C0003230B70B5E754485549574D0B7001229F
:102C7C0002702B705148534B227043F67F31027017
:102C8C001980A6E7FF2A12D84E484D4CD3B22370B8
:102C9C00047863404F4CE55C4F4CE35C44784570E2
:102CAC0063400370002ADBD002230B7091E7454B85
:102CBC0049481A78474D845CAD5C5A7840485D7041
:102CCC0062401A7000230370CAE73E4BB2F5807F56
:102CDC001B7828BF0022934202D0384B00221A7076
:102CEC0004230B7075E7BAF1000F94D0384D2B7894
:102CFC00002B41D1BAF1020F8DD9384B1E78002E22
:102D0C0089D169780139C9B2022984D81C22344B83
:102D1C00AD7801FB02F298189A5C002D43F06980A3
:102D2C001AB100220576426002611C2202FB0132BC
:102D3C002B4B177B00201A46814200F1010016D064
:102D4C00157BBD4213D11C2601FB06F69D19D5F847
:102D5C0008C0C2F808C0D5F804C0C2F804C09E5D13
:102D6C0016702E6916616D6955610025157603285C
:102D7C0002F11C02E0D14EE7482B33D83F2B7FF6F3
:102D8C004AAF413B072B04F29480DFE813F0CD15DA
:102D9C0029149E13CF11361163106018161600BF3C
:102DAC0034AB002038AB0020B5814E1B55A1002060
:102DBC00DCA80020F00A0020EA0A0020E40A002027
:102DCC0053A10020E80A002054A1002081808080BB
:102DDC0054A000209055010890560108180B0020B3
:102DEC0090010020D02B00F08D8540F28880F42BD0
:102DFC0000F04E81FA2B40F02481BAF1010F3FF420
:102E0C000AAF6878B04BB14AB149003818BF0120FD
:102E1C00187013684870002B3FF4FDAE91F80090C9
:102E2C00DFF820B3AB49DBF80070DFF81CA3013BE3
:102E3C00136089F0FB05A84ABAF80080535D4D5D1C
:102E4C00434083F021030137D65CA44ACB5C128843
:102E5C00009385EA06014FF4966302F1010E02F12C
:102E6C00020CD61C1FFA8EFE1FFA8CFCB6B2151D76
:102E7C00CBF80070B2FBF3F703FB1727ADB21FFAC8
:102E8C0087FBBEFBF3F703FB17EEBCFBF3F703FB6F
:102E9C0017CCB6FBF3F703FB1766B7B20191B5FB82
:102EAC00F3F6511D03FB165589B2ADB28C4E02954B
:102EBC00B1FBF3F503FB151308F01F05894926F840
:102ECC001520864E063232801FFA8EFEA5261FFA7A
:102EDC008CFC01F80B60022601F80E6001F80C90D6
:102EEC00C855DDE901679BB27F4A0098CE5508F1C1
:102EFC000108C85406235355AAF800808BE6A12B71
:102F0C0000F00687A22B5ED1BAF1020F7FF683AEDA
:102F1C00764B774A197812786B7800297FF47BAE60
:102F2C0012B9012B00F03D85724A157815B9022BA8
:102F3C0000F06E84704A157815B9032B00F0A58447
:102F4C006E4A1578002D7FF466AE042B7FF463AEC9
:102F5C006B486C4E02210FF087FFAAF10203DBB223
:102F6C006948013B2A463146013210F8015F21F8CD
:102F7C00025B9342F8DA654D6548AE6001339BB253
:102F8C000721EB610FF040FB2A46614807210FF047
:102F9C006DFB5F4807210FF0B3FB04225C4807214F
:102FAC000FF0C2FB5B48802110F04CFC10225848FB
:102FBC0007210FF0C5FB564807210FF0ABFB564B12
:102FCC0001221A7027E6A02B7FF425AEBAF1080F68
:102FDC007FF421AE454B95F801801E78002E7FF4CE
:102FEC001AAEB8F1010F03F0DF81B8F1020F03F054
:102FFC00B781B8F1030F43F08B81484A95F80280F2
:10300C003D4BD5F803701760454A83F80080B8F142
:10301C00010FEB79137003F03B81B8F1000F42F014
:10302C00FF87002F02F0F987072B02F2F687DFE803
:10303C0013F067183818F918D318B2188C18081828
:10304C00C517F22B7FF4E7ADBAF12C0F7FF4E3AD8B
:10305C00344A6F78264BD5F802601660324A1F70DE
:10306C00012FAB79137000F0D080002F40F0A080BE
:10307C00002E00F09A80072B00F29780DFE813F007
:10308C009B0EC10E760E4F0E2D0EFC0DC40D660060
:10309C00164B264A1B7800211172117582F82010EC
:1030AC0082F82C10002B7FF4B6AD214A214922481E
:1030BC000B701376214982F8343082F85030204A54
:1030CC0003700B701370A6E51C1C0020EC0A00208A
:1030DC006001002090550108905601086AA100205B
:1030EC0044A600206CA1002024A60020180B002070
:1030FC00B80A00207808002038060020F8030020C9
:10310C00000C0240F038002055A0002000040020E4
:10311C000064024000100140E0280020340600202A
:10312C00D0590020B40A0020989B0020881C002055
:10313C0090010020808B00209C6A0020B849002060
:10314C00D42800201CA6002022A60020A04810F0A5
:10315C0089FA9F48042110F06BFB9D48082110F060
:10316C0061FB9B4840F2053110F080FB98484FF40E
:10317C00A06110F07BFB96484FF4427110F076FB87
:10318C009348314610F0E6FA91484FF4805110F014
:10319C0033FB8F484FF4005110F036FB8C48002164
:1031AC0010F022FB8A4810F037FB8A4B00221A7071
:1031BC00894B8A4995F80780894AAF6800261E809A
:1031CC00884B0E701E60884B884983F80080884BB2
:1031DC0016801F60874A2B7B0B70B8F1010F4FF4E0
:1031EC009671116000F0B480B8F1000F7FD1002F00
:1031FC007AD0072B78D8DFE813F0BC0CE20C970CD4
:10320C00700C4E0C1D0CEC0B4800714810F02AFA97
:10321C006F48042110F00CFB6D48082110F002FBE4
:10322C006B4840F2053110F021FB69484FF4A06166
:10323C0010F01CFB66484FF4427110F017FB6E49FE
:10324C00634810F087FA6248002110F0D5FA604804
:10325C00002110F0D9FA00215D4810F0C5FA5C4845
:10326C0010F0DAFA654A664900231370654A0B8040
:10327C001370654A1770654A1380654A40211160C6
:10328C006449654A0B60137092E7644810F0EAF9E0
:10329C006248042110F0CCFA6048082110F0C2FA00
:1032AC005E4840F2053110F0E1FA5C484FF4A06141
:1032BC0010F0DCFA59484FF4427110F0D7FA574825
:1032CC00394610F047FA55484FF4805110F094FAF3
:1032DC0052484FF4005110F097FA5048002110F06A
:1032EC0083FA4E4810F098FA4D4B00221A704D4B51
:1032FC004D4995F80D804D4AD5F80E7000261E806C
:10330C004B4B0E701E604B4B4B4983F800804B4B64
:10331C0016801F604A4AAB7C0B70B8F1010F4FF45A
:10332C009671116000F0FD80B8F1000F40F0CC8078
:10333C00002F00F0C680072B00F2C380DFE813F0EB
:10334C00F90A240BD40AAD0A8B0A5A0A290A9200EC
:10335C00324810F087F93148042110F069FA2F48EF
:10336C00082110F05FFA2D4840F2053110F07EFA7A
:10337C002A484FF4A06110F079FA28484FF44271B2
:10338C0010F074FA1C49254810F0E4F92348314632
:10339C0010F032FA2148314610F036FA1F48314607
:1033AC0010F022FA1D4810F037FA264B264A1E70F0
:1033BC00264B16801E70264B83F80080254B1E80F2
:1033CC00254B40221A60254A254B16601E708EE74D
:1033DC00001401408E8B002052A000208D8B002009
:1033EC0050A000204CA0002078080020B47A0020C7
:1033FC0074080020BC0A002040420F00828B002081
:10340C0094980020818B0020AD0A00209698002013
:10341C00B00A0020909800206A8B0020004C0040DD
:10342C00AA6A00206E7F0020A96A00206C7F002011
:10343C00687F002038060020D05900203406002078
:10344C007C0800209E6A0020B07700209D6A002036
:10345C006D080020B277002070080020AC770020A7
:10346C00866A0020AC4810F0FDF8AB48042110F03F
:10347C00DFF9A948082110F0D5F9A74840F2053129
:10348C0010F0F4F9A4484FF4A06110F0EFF9A24841
:10349C004FF4427110F0EAF99F48394610F05AF98E
:1034AC009D484FF4805110F0A7F99B484FF4005100
:1034BC0010F0AAF99848002110F096F9964810F0EF
:1034CC00ABF9964B00221A70954B964995F81380E0
:1034DC00954A6F6900261E80944B0E701E60944BAB
:1034EC00944983F80080944B16801F60934A2B7E7E
:1034FC000B70B8F1010F4FF49671116000F0488118
:10350C00B8F1000F7FD1002F7AD0072B78D8DFE8E5
:10351C0013F0F5081B09D008A90867083608050838
:10352C0048007D4810F09EF87B48042110F080F98B
:10353C007948082110F076F9774840F2053110F0FF
:10354C0095F975484FF4A06110F090F972484FF45A
:10355C00427110F08BF97A496F4810F0FBF86E4805
:10356C00314610F049F96C48314610F04DF96A4873
:10357C00314610F039F9684810F04EF9714B724A27
:10358C001E70724B16801E70714B83F80080714B4D
:10359C001E80714B40221A60704A714B16601E706F
:1035AC0092E7704810F05EF86E48042110F040F974
:1035BC006C48082110F036F96A4840F2053110F0D9
:1035CC0055F968484FF4A06110F050F965484FF474
:1035DC00427110F04BF96348394610F0BBF8614862
:1035EC004FF4805110F008F95E484FF4005110F080
:1035FC000BF95C48002110F0F7F85A4810F00CF960
:10360C00594B00221A70594B594A5A4F9FED5A7A0E
:10361C0000201870594B10801880594B4FF496723B
:10362C001A60584B4FF00009186039461922FF26D2
:10363C008446931C93FBF6FECEEB0E2EA3EB0E03EF
:10364C0015F80280EB5CC1F8089007EE903A531C19
:10365C00F8EE677A93FBF6FECEEB0E2EA3EB0E0381
:10366C0067EE877AEB5C0B70C1ED017AC1ED047AE1
:10367C0081F80C803B464FF0000E86450EF1010E92
:10368C0019D093F80CA0C24515D1D1F808A0C3F8F5
:10369C0008A0D1F804A0C3F804A091F800A083F806
:1036AC0000A0D1F810A0C3F810A0D1F814A0C3F852
:1036BC0014A083F818C0BEF1030F03F11C03DCD176
:1036CC0001300332032892FBF6F3C3EB032301F121
:1036DC001C01A2EB0302ACD12B489FED277A0021F1
:1036EC00FF26AB5C07EE903AF8EE677A013167EE95
:1036FC00877A01320A2992FBF6F3C3EB0323C0ED60
:10370C00027AA2EB030200F11000EAD11F4B002257
:10371C001A70FFF780BA00BF00480040C64900206D
:10372C008A5E0020C5490020885E0020845E00204F
:10373C00F8030020EC380020F40300203C060020A5
:10374C0040420F00BA490020CC560020B949002055
:10375C002D060020CE56002030060020C856002032
:10376C00A249002000100140E2280020E12800209E
:10377C00A43D0020900100208180803BA63D0020CC
:10378C00FC030020A03D00209C000020180B002012
:10379C00B9480FF067FFB848042110F049F8B64853
:1037AC00082110F03FF8B44840F2053110F05EF8F3
:1037BC00B1484FF4A06110F059F8AF484FF4427182
:1037CC0010F054F8AD49AC480FF0C4FFAA4831468C
:1037DC0010F012F8A848314610F016F8A6483146F9
:1037EC0010F002F8A44810F017F8A54BA54A1E706B
:1037FC00A54B16801E70A54B83F80080A44B1E8031
:10380C00A44B40221A60A44AA44B16601E70FAE620
:10381C00A348A44E4FF480510FF026FBAAF10203EB
:10382C00DBB2A148013B2A463146013210F8015F58
:10383C0021F8025B9342F8DA9C4D9D48AE6001334F
:10384C009BB20421EB610EF0DFFE2A46984804215E
:10385C000EF00CFF964804210EF052FF0422114684
:10386C0093480EF061FF934880210FF0EBFF10227C
:10387C008F4804210EF064FF8D4804210EF04AFF9E
:10388C008D4B01221A70FFF7C6B98C488C4E4FF441
:10389C0000410FF0E9FAAAF10203DBB28248013BC6
:1038AC002A463146013210F8015F21F8025B93423F
:1038BC00F8DA844D7E48AE6001339BB20321EB6194
:1038CC000EF0A2FE2A467A4803210EF0CFFE78486D
:1038DC0003210EF015FF0422754803210EF024FF7E
:1038EC00794880210FF0AEFF1022714803210EF0B1
:1038FC0027FF6F4803210EF00DFF744B01221A7045
:10390C00FFF789B9BAF1020F7FF685A9704B1B78C6
:10391C00002B7FF480A96A78013AD2B2022A3FF6D2
:10392C007AA9A87890BB1C216A4B02FB01F15D5C63
:10393C0025B1194408760020486008611C2101FB60
:10394C000231644B0F7B00201946904200F10100BC
:10395C0016D00D7BBD4213D11C2602FB06F69D1919
:10396C00D5F808C0C1F808C0D5F804C0C1F804C027
:10397C009E5D0E702E690E616D694D6100250D7690
:10398C00032801F11C01E0D1FFF745B901380428E7
:10399C003FF641A9DFE810F07F013201DD00AA00FB
:1039AC00420046484C4E4FF480410FF05DFAAAF1AC
:1039BC000203DBB23C48013B31460022013210F8D5
:1039CC00015F21F8025B9342F8DA444D4448AE6043
:1039DC0001339BB20621EB610EF016FE2A464048DD
:1039EC0006210EF043FE3E4806210EF089FE05220C
:1039FC003B4806210EF098FE3A4880210FF022FF3A
:103A0C001022374806210EF09BFE354806210EF099
:103A1C0081FE354B01221A70FFF7FDB8BAF1030F86
:103A2C003FF4F9A82B4BEF781C2101FB023100204D
:103A3C000F7308761946904200F1010016D00D7BE9
:103A4C00BD4213D11C2602FB06F69D19D5F808C001
:103A5C00C1F808C0D5F804C0C1F804C09E5D0E7052
:103A6C002E690E616D694D6100250D76032801F1FB
:103A7C001C01E0D1FFF7CFB80010014040420F000D
:103A8C00D6280020E8350020D5280020ED030020A2
:103A9C00EA350020F0030020E4350020BE28002089
:103AAC0000080240B87A002055A0002080080020B1
:103ABC0000600240004C0040A86A00200004024054
:103ACC00D45900204006002000480040C449002082
:103ADC00180B0020900100209C9B0020C00A0020A5
:103AEC0000640240001401408C8B0020BAF1030FDB
:103AFC003FF491A81C21824BE87802FB01F1585449
:103B0C00194400204860086100200F7B0876194694
:103B1C00904200F1010016D00D7BBD4213D11C2642
:103B2C0002FB06F69D19D5F808C0C1F808C0D5F8F7
:103B3C0004C0C1F804C09E5D0E702E690E616D69E3
:103B4C004D6100250D76032801F11C01E0D1FFF732
:103B5C0062B8BAF1040F7FF65EA81C20684B02FB1A
:103B6C0000F01918185C08B328799FED666ADFED30
:103B7C00666ADFED665A07EE900AE878F8EE677A27
:103B8C0007EE100A67EE867AB8EE477A76EEE76AA9
:103B9C0027EE067A85EEA66A0020087681ED017A7A
:103BAC0081ED047AC1ED027A81ED056A1C2101FBDD
:103BBC000231534B0F7B00201946904200F101005B
:103BCC0016D00D7BBD4213D11C2602FB06F69D19A7
:103BDC00D5F808C0C1F808C0D5F804C0C1F804C0B5
:103BEC009E5D0E702E690E616D694D6100250D761E
:103BFC00032801F11C01E0D1FFF70DB8BAF1030F56
:103C0C003FF409A81C213E4B02FB01F1595CD1B1D8
:103C1C00E8789FED3C7A07EE900AF8EE677A042973
:103C2C0067EE877A06D1F5EE407AF1EE10FA18BFFE
:103C3C00F7EE007A1C2101FB02310020C1ED017A64
:103C4C00C1ED047A08761C2101FB02312C4B0F7B51
:103C5C0000201946904200F1010016D00D7BBD42A8
:103C6C0013D11C2602FB06F69D19D5F808C0C1F825
:103C7C0008C0D5F804C0C1F804C09E5D0E702E6952
:103C8C000E616D694D6100250D76032801F11C0153
:103C9C00E0D1FEF7C0BF1C21194B02FB01F15818F3
:103CAC00595C29B14FF07E514160016100210176D0
:103CBC001C2101FB0231124B0F7B00201946904254
:103CCC0000F1010016D00D7BBD4213D11C2602FB66
:103CDC0006F69D19D5F808C0C1F808C0D5F804C07F
:103CEC00C1F804C09E5D0E702E690E616D694D6148
:103CFC0000250D76032801F11C01E0D1FEF78BBFE6
:103D0C00900100208180803B5C8F823F17B7D138B7
:103D1C00BAF1090F7EF67FAF7A4A7B4B127895F891
:103D2C0007801B78002A7EF476AF012B00F0068307
:103D3C00764B1B78012B00F00782754B1B78012BFF
:103D4C0000F00881734B1B78012B7EF464AFB8F143
:103D5C00040F7EF460AF704B95F808C01B78634578
:103D6C007EF659AF6D4B6E490CEB8C0203EB4203A4
:103D7C00002213F8015F11F8010F854202F10102D4
:103D8C007EF449AF062AF4D1664A1368002B3EF440
:103D9C0042AF013B1360644A64491388644A11F8CA
:103DAC000C80644D00958CF0BF00AAF1090E115CDB
:103DBC002D5C6148019288EA010181F0380100888C
:103DCC0012F801905B4A02935FFA8EFE8EEA0505AB
:103DDC0089EA0509471C555C03954FF44061BFB255
:103DEC00861CB0FBF1FB01FB1B0B1FFA8BF2B6B26E
:103DFC00B7FBF1FB01FB1B7704921FFA87FB4C4AC4
:103E0C00B6FBF1F7C51C01FB1766ADB2B6B2069650
:103E1C00B5FBF1F601FB165512F80960039ACDF8C3
:103E2C0014B05640434AAFB212F80990434D049A6D
:103E3C004FF0A00B05F802B0059A05F802C0069ADF
:103E4C0005F8028005F807E0384F0EF1FF3208F153
:103E5C00010807F80C8003921F46334ADFF8ECC0C8
:103E6C0001371780021D0492314A0027CE461CF8F8
:103E7C00019F009B89EA0608049E3E44B6B2B6FB3D
:103E8C00F1FB01FB1B66B6B2013705F8069013F87F
:103E9C000890039B12F80860BB428EEA0606E5DA2E
:103EAC00AAF1050250FA82F292B2B2FBF1F801FBD0
:103EBC001822029BDFF898E092B203F03F07AE5451
:103ECC00AAF10403DEF8002050FA83F39BB201320E
:103EDC00CEF80020B3FBF1F201FB12339BB2AAF136
:103EEC00030C05F80390164B164A23F81700124BD7
:103EFC0050FA8CF01880144B02F807C01022DA55D7
:103F0C00FEF789BE180B0020B80A002078080020A4
:103F1C0038060020F8030020BA260020C41C00201C
:103F2C0054A00020F0030020EA350020BC2600201D
:103F3C009056010890550108E2290020E429002040
:103F4C006C3800202C380020EC3500205CA00020C0
:103F5C00E4350020B8F1030F7FF4F4AE6B4B95F809
:103F6C0008C01B7863457EF656AE694B69490CEB6D
:103F7C008C0203EB4203002213F8015F11F8010FCE
:103F8C00854202F101027EF446AE062AF4D1624A61
:103F9C001368002B3EF43FAE013B13605F4A60494F
:103FAC001388604A11F80C805F4D00958CF0BF00AF
:103FBC00AAF1090E115C2D5C5C48019288EA0101A2
:103FCC0081F03801008812F80190574A02935FFA89
:103FDC008EFE8EEA050589EA0509471C555C03959A
:103FEC004FF44061BFB2861CB0FBF1FB01FB1B0B15
:103FFC001FFA8BF2B6B2B7FBF1FB01FB1B770492F5
:10400C001FFA87FB474AB6FBF1F7C51C01FB176685
:10401C00ADB2B6B20696B5FBF1F601FB165512F829
:10402C000960039ACDF814B056403F4AAFB212F86B
:10403C0009903F4D049A4FF0A00B05F802B0059A79
:10404C0005F802C0069A05F8028005F807E0344F1F
:10405C000EF1FF3208F1010807F80C8003921F469D
:10406C002E4ADFF8DCC001371780021D04922D4A5E
:10407C000027CE461CF8019F009B86EA0908049E87
:10408C003E44B6B2B6FBF1FB01FB1B66B6B2013780
:10409C0005F8069013F80890039B12F80860BB42D1
:1040AC008EEA0606E5DAAAF1050250FA82F292B21D
:1040BC00B2FBF1F801FB1822029BDFF888E092B208
:1040CC0003F03F07AE54AAF10403DEF8002050FAC7
:1040DC0083F39BB20132CEF80020B3FBF1F201FB6B
:1040EC0012339BB2AAF1030C05F80390114B124A40
:1040FC0023F817000D4B50FA8CF018800F4B02F878
:10410C0007C01022DA55FEF786BD00BF9E4700207F
:10411C00A83D002054A0002030060020CE560020E0
:10412C00A04700209056010890550108C64A00206F
:10413C00C84A00205059002010590020D0560020A9
:10414C005CA00020C8560020B8F1020F7FF4F5AD3A
:10415C006B4B95F808C01B7863457EF65CAD694BDC
:10416C0069490CEB8C0203EB4203002213F8015F4C
:10417C0011F8010F854202F101027EF44CAD062AC2
:10418C00F4D1624A1368002B3EF445AD013B136039
:10419C005F4A60491388604A11F80C805F4D0095A6
:1041AC008CF0BF00AAF1090E115C2D5C5C480192E9
:1041BC0088EA010181F03801008812F80190574A11
:1041CC0002935FFA8EFE8EEA050589EA0509471C03
:1041DC00555C03954FF44061BFB2861CB0FBF1FBFC
:1041EC0001FB1B0B1FFA8BF2B6B2B7FBF1FB01FB09
:1041FC001B7704921FFA87FB474AB6FBF1F7C51CE5
:10420C0001FB1766ADB2B6B20696B5FBF1F601FB33
:10421C00165512F80960039ACDF814B056403F4A6F
:10422C00AFB212F809903F4D049A4FF0A00B05F86D
:10423C0002B0059A05F802C0069A05F8028005F846
:10424C0007E0344F0EF1FF3208F1010807F80C803B
:10425C0003921F462E4ADFF8DCC001371780021D7F
:10426C0004922D4A0027CE461CF8019F009B89EA38
:10427C000608049E3E44B6B2B6FBF1FB01FB1B667E
:10428C00B6B2013705F8069013F80890039B12F8A4
:10429C000860BB428EEA0606E5DAAAF1050250FA7E
:1042AC0082F292B2B2FBF1F801FB1822029BDFF80A
:1042BC0088E092B203F03F07AE54AAF10403DEF893
:1042CC00002050FA83F39BB20132CEF80020B3FBEE
:1042DC00F1F201FB12339BB2AAF1030C05F8039027
:1042EC00114B124A23F817000D4B50FA8CF0188022
:1042FC000F4B02F807C01022DA55FEF78CBC00BF3A
:10430C00826800208C5E002054A0002070080020E1
:10431C00B27700208468002090560108905501085F
:10432C00AA6B0020AC6B0020347A0020F4790020BA
:10433C00B47700205CA00020AC770020B8F1010F0E
:10434C007FF4F6ACB74B2E7A1B78B3427FF6FAACFF
:10435C00B54BB64906EB860203EB4203002213F879
:10436C00017F11F8010F874202F101027FF4EAACE0
:10437C00062AF4D1AE4A1368002B3FF4E3AC013BA0
:10438C0086F0BF001360AB4AAB4B115C13F8069080
:10439C00134689EA0101A94A009281F03801175CA1
:1043AC00A7480193AAF1090C5FFA8CF213F801C02B
:1043BC00A24B0088595C039157404FF440618CEA42
:1043CC00070700F1010E02921FFA8EFE3A46B0FB6F
:1043DC00F1FBC71C01FB1B0BBBB200F1020C1FFA5B
:1043EC008BF7BEFBF1FB01FB1BEE1FFA8CFC1FFADB
:1043FC008EFECDF814E0BCFBF1FE01FB1ECC1FFAC7
:10440C008CFC0497CDF818C0B3FBF1FC01FB1C37F6
:10441C001FFA87FC8B4FCDF81CC0B7F800E0854F16
:10442C00864B17F802C0039F87EA0C0B13F802C0E7
:10443C00049F854BCDF80CC04FF0A00C03F807C0BF
:10444C00059F029ADE55069F03F80790079FDA55E1
:10445C00794A7C4F09F1010902F80690029ADFF8BB
:10446C00FC91013A0EF1010602923E80039E714AC4
:10447C00CDE903E04FF0000C071D19F801EF019690
:10448C0007EB0C06B6B28BEA0E00B6FBF1FB01FB98
:10449C001B666D4B12F800B0B6B20CF1010C03F8B0
:1044AC0006E0019E009B86EA0B0B1E5C02986045A1
:1044BC00E3DADDE903E00EF03F0CDFF8A4E1374668
:1044CC00DEF80030AAF1050650FA86F6B6B20133D2
:1044DC00AAF10402CEF80030B6FBF1F301FB136332
:1044EC0050FA82F2584E9BB292B206F803B0B2FB6D
:1044FC00F1F301FB13239BB2544AF75422F81C002E
:10450C00AAF103034E4A50FA83F01080504A02F885
:10451C000C30504B102203F80C2013E44E480FF0D3
:10452C00A1F84D4804210FF083F94B4808210FF0F6
:10453C0079F9494840F205310FF098F946484FF4A3
:10454C00A0610FF093F944484FF442710FF08EF9CB
:10455C00414839460FF0FEF83F4800210FF04CF966
:10456C003D484FF400510FF04FF93B484FF4C061F8
:10457C000FF03AF938480FF04FF9FFF741B83648C9
:10458C000FF070F8344804210FF052F9324808212A
:10459C000FF048F9304840F205310FF067F92E481A
:1045AC004FF4A0610FF062F92B484FF442710FF0F9
:1045BC005DF9294839460FF0CDF8274800210FF056
:1045CC001BF925484FF400510FF01EF922484FF407
:1045DC0080610FF009F920480FF01EF9FFF710B8B1
:1045EC001D480FF03FF81C4804210FF021F91A4820
:1045FC0008210FF017F9184840F205310FF036F981
:10460C0015484FF4A0610FF031F913484FF4427183
:10461C000FF02CF9104839460FF09CF80E48002189
:10462C00FEF7E0BF66890020707F002054A00020B8
:10463C00B00A0020905601086889002090550108A6
:10464C008E8C002096980020908C0020189B0020C7
:10465C00D89A002098980020001001405CA00020FF
:10466C0090980020C6480EF0FDFFC54804210FF0BD
:10467C00DFF8C34808210FF0D5F8C14840F20531E6
:10468C000FF0F4F8BE484FF4A0610FF0EFF8BC48FF
:10469C004FF442710FF0EAF8B94839460FF05AF866
:1046AC00B7484FF480510FF0A7F8B5480021FEF73A
:1046BC009EBFB3480EF0D6FFB14804210FF0B8F8F6
:1046CC00AF4808210FF0AEF8AD4840F205310FF0BD
:1046DC00CDF8AB484FF4A0610FF0C8F8A8484FF4E0
:1046EC0042710FF0C3F8A64839460FF033F8A448CE
:1046FC0000210FF081F8A248002134E7A0480EF009
:10470C00B1FF9F4804210FF093F89D4808210FF04A
:10471C0089F89B4840F205310FF0A8F898484FF4FF
:10472C00A0610FF0A3F896484FF442710FF09EF879
:10473C00934839460FF00EF8914800210FF05CF8C1
:10474C008F480021FEF753BF8D480EF08BFF8C482D
:10475C0004210FF06DF88A4808210FF063F888489F
:10476C0040F205310FF082F885484FF4A0610FF04C
:10477C007DF883484FF442710FF078F88048394641
:10478C000EF0E8FF7E4800210FF036F87C4800213F
:10479C001AE77C480EF066FF7A4804210FF048F8BF
:1047AC00784808210FF03EF8764840F205310FF0BA
:1047BC005DF874484FF4A0610FF058F871484FF44D
:1047CC0042710FF053F86F4839460EF0C3FF6D4835
:1047DC0000210FF011F86B484FF400510FF014F852
:1047EC0068484FF4C0610EF0FFFF66480FF014F8F4
:1047FC00FEF767BE63480EF035FF624804210FF0E8
:10480C0017F8604808210FF00DF85E4840F20531AA
:10481C000FF02CF85B484FF4A0610FF027F85948C3
:10482C004FF442710FF022F8564839460EF092FFC1
:10483C00544800210EF0E0FF52484FF400510EF0A6
:10484C00E3FF50484FF480610EF0CEFF4D480EF060
:10485C00E3FFFEF736BE4B480EF004FF4948042137
:10486C000EF0E6FF474808210EF0DCFF454840F209
:10487C0005310EF0FBFF43484FF4A0610EF0F6FF3C
:10488C0040484FF442710EF0F1FF3E4839460EF0AD
:10489C0061FF3C480021FEF706BE3A480EF0E2FEEE
:1048AC00384804210EF0C4FF364808210EF0BAFF38
:1048BC00344840F205310EF0D9FF32484FF4A06174
:1048CC000EF0D4FF2F484FF442710EF0CFFF2D485D
:1048DC0039460EF03FFF2B484FF480510EF08CFF01
:1048EC0028480021FEF7E4BD26480EF0BBFE254803
:1048FC0004210EF09DFF234808210EF093FF214860
:10490C0040F205310EF0B2FF1E484FF4A0610EF0DC
:10491C00ADFF1C484FF442710EF0A8FF1948394600
:10492C000EF018FF174800210EF066FF1548002105
:10493C0054E714480EF096FE124804210EF078FF4E
:10494C00104808210EF06EFF0E4840F205310EF0B3
:10495C008DFF0C484FF4A0610EF088FF09484FF40E
:10496C0042710EF083FF074839460EF0F3FE0548FE
:10497C0000210EF041FF03480021FEF799BD00BF56
:10498C000010014000480040B8480EF06BFEB748DC
:10499C0004210EF04DFFB54808210EF043FFB3483B
:1049AC0040F205310EF062FFB0484FF4A0610EF0FA
:1049BC005DFFAE484FF442710EF058FFAB483946DC
:1049CC000EF0C8FEA94800210EF016FFA7480021E2
:1049DC0035E7A7480EF046FEA54804210EF028FF47
:1049EC00A34808210EF01EFFA14840F205310EF03D
:1049FC003DFF9F484FF4A0610EF038FF9C484FF4E8
:104A0C0042710EF033FF9A4839460EF0A3FE9848D7
:104A1C0000210EF0F1FE96484FF400510EF0F4FE1A
:104A2C0093484FF4C0610EF0DFFE91480EF0F4FE97
:104A3C00FEF75ABC8E480EF015FE8D4804210EF080
:104A4C00F7FE8B4808210EF0EDFE894840F2053147
:104A5C000EF00CFF86484FF4A0610EF007FF84485F
:104A6C004FF442710EF002FF814839460EF072FE8F
:104A7C007F4800210EF0C0FE7D484FF400510EF02F
:104A8C00C3FE7B484FF480610EF0AEFE78480EF00A
:104A9C00C3FEFEF729BC76480EF0E4FD74480421F1
:104AAC000EF0C6FE724808210EF0BCFE704840F2B3
:104ABC0005310EF0DBFE6E484FF4A0610EF0D6FE11
:104ACC006B484FF442710EF0D1FE694839460EF036
:104ADC0041FE67480021FEF7F9BB65480EF0C2FDA8
:104AEC00634804210EF0A4FE614808210EF09AFEE2
:104AFC005F4840F205310EF0B9FE5D484FF4A061FD
:104B0C000EF0B4FE5A484FF442710EF0AFFE584806
:104B1C0039460EF01FFE56484FF480510EF06CFED5
:104B2C0053480021FEF7D7BB51480EF09BFD50486F
:104B3C0004210EF07DFE4E4808210EF073FE4C4809
:104B4C0040F205310EF092FE49484FF4A0610EF090
:104B5C008DFE47484FF442710EF088FE44483946AA
:104B6C000EF0F8FD424800210EF046FE40480021B0
:104B7C0054E73F480EF076FD3D4804210EF058FEF8
:104B8C003B4808210EF04EFE394840F205310EF03C
:104B9C006DFE37484FF4A0610EF068FE34484FF4B8
:104BAC0042710EF063FE324839460EF0D3FD3048A8
:104BBC0000210EF021FE2E480021FEF78CBB2C4864
:104BCC000EF050FD2A4804210EF032FE2848082130
:104BDC000EF028FE264840F205310EF047FE244820
:104BEC004FF4A0610EF042FE21484FF442710EF0DA
:104BFC003DFE1F4839460EF0ADFD1D4800210EF05C
:104C0C00FBFD1B4800213AE71A480EF02BFD194812
:104C1C0004210EF00DFE174808210EF003FE154876
:104C2C0040F205310EF022FE12484FF4A0610EF056
:104C3C001DFE10484FF442710EF018FE0D4831461F
:104C4C000EF088FD0B4800210EF0D6FD09484FF4FC
:104C5C0000510EF0D9FD07484FF4C0610EF0C4FDB1
:104C6C0004480EF0D9FDFEF7A0BA00BF0048004082
:104C7C00004C00400014014074480EF0F3FC7348E3
:104C8C0004210EF0D5FD714808210EF0CBFD6F48C4
:104C9C0040F205310EF0EAFD6C484FF4A0610EF0C5
:104CAC00E5FD6A484FF442710EF0E0FD674831466D
:104CBC000EF050FD654800210EF09EFD63484FF448
:104CCC0000510EF0A1FD61484FF480610EF08CFD97
:104CDC005E480EF0A1FDFEF768BA5C480EF0C2FC0F
:104CEC005A4804210EF0A4FD584808210EF09AFDF4
:104CFC00564840F205310EF0B9FD54484FF4A0610E
:104D0C000EF0B4FD51484FF442710EF0AFFD4F4818
:104D1C0031460EF01FFD4D480021FEF738BA4B48C6
:104D2C000EF0A0FC494804210EF082FD47480821F2
:104D3C000EF078FD454840F205310EF097FD4348E2
:104D4C004FF4A0610EF092FD40484FF442710EF00A
:104D5C008DFD3E4831460EF0FDFC3C484FF4805131
:104D6C000EF04AFD39480021FEF716BA37480EF00E
:104D7C0079FC364804210EF05BFD344808210EF016
:104D8C0051FD324840F205310EF070FD2F484FF4C2
:104D9C00A0610EF06BFD2D484FF442710EF066FDD4
:104DAC002A4831460EF0D6FC284800210EF024FD8E
:104DBC00264800214DE725480EF054FC23480421D9
:104DCC000EF036FD214808210EF02CFD1F4840F254
:104DDC0005310EF04BFD1D484FF4A0610EF046FD61
:104DEC001A484FF442710EF041FD184831460EF04E
:104DFC00B1FC164800210EF0FFFC14480021FEF710
:104E0C00CBB912480EF02EFC104804210EF010FD08
:104E1C000E4808210EF006FD0C4840F205310EF04C
:104E2C0025FD0A484FF4A0610EF020FD07484FF411
:104E3C0042710EF01BFD054831460EF08BFC034809
:104E4C0000210EF0D9FC014800213AE70014014082
:104E5C008180803BBAF1050F7DF4DDAE95F80190B1
:104E6C0009F1FF32D2B2092A3DF6D5AEAB785FED2F
:104E7C00086A95F80480A24907EE903A1F46EB7831
:104E8C00B8EE677A07EE903A1E46F8EE677A9D4BBD
:104E9C000C2000FB023327EE267AB8F1000067EEF7
:104EAC00A67A0A6883ED007A18BF0120C3ED017A57
:104EBC001872002A3DF4AFAE013A0A6089F0E300A3
:104ECC009149924A0B5C155C01967B4083F041033F
:104EDC007540C85C8E4EDFF850B23688029668403A
:104EEC00D55C0B5C105CDBF80060009788EA05056C
:104EFC006B400136C95CD35C0393864BCBF80060E6
:104F0C0080EA010204921A88D31D9BB2079302F126
:104F1C0008039BB2089302F1010E4FF4966302F161
:104F2C00020CD71C151DB2FBF3F61FFA8EFE03FB09
:104F3C0016261FFA8CFCBFB2ADB2501D80B21FFA00
:104F4C0086FBBEFBF3F603FB16EEBCFBF3F603FB92
:104F5C0016CCB7FBF3F603FB1677B5FBF3F603FBA6
:104F6C001655AEB2911DB0FBF3F503FB150089B2DB
:104F7C0080B20590B1FBF3F003FB10110798029D72
:104F8C0089B20691B0FBF3F103FB1101089889B2C9
:104F9C000791B0FBF3F103FB110305F01F01681C33
:104FAC005B4D28805C489BB220F81120594808932F
:104FBC0009325A4B02801FFA8EFEA5201FFA8CFC78
:104FCC0003F80B00BFB2462003F80EA003F80C0048
:104FDC00009803F8079098550598019E1E54069E5C
:104FEC00049D03F80680079E03989D55089D4C4A26
:104FFC00585509235354FDF70EBEBAF1020F7DF438
:10500C000AAE95F8018008F1FF33DBB2092B3DF6AF
:10501C0002AE444A3A49282000FB03220B680020C8
:10502C0082F82100002B3DF4F6ADDFF8FCB0394AD4
:10503C00DBF800601288013B0B60354B88F0A1094E
:10504C00B3F800E0304B013613F80930CBF80060B0
:10505C002E4E83F0700116F8096000964FF496639B
:10506C0002F1010C971CD51CB2FBF3F61FFA8CFC59
:10507C0003FB1626BFB2ADB2101D80B21FFA86F923
:10508C000191BCFBF3F6511D03FB16CCB7FBF3F6F9
:10509C0003FB1677B5FBF3F603FB165589B2AEB2DC
:1050AC00B0FBF3F503FB1500194D1FFA80FBB1FBA8
:1050BC00F3F003FB10130EF01F000EF1010EA5F818
:1050CC0000E0154D154925F81020124D06321FFA37
:1050DC008CFC2A80A52501F80950114A01F80CA076
:1050EC00BFB29BB24525CD5501F80680019D01F854
:1050FC000B50009ECE5406231354FDF78CBD00BFFD
:10510C00EC0A00202400002090560108905501085C
:10511C0022A600206AA1002044A600206CA1002039
:10512C0024A60020281700201CA60020AAF10800A5
:10513C00C0B20C283DF66FAD6B78591EC9B2092967
:10514C009B463DF668ADCD4A01EB8106F60006F1B3
:10515C00010CB3180593002342F80C3002EB0C073A
:10516C00EE787B6002962E7903966E790496059EF6
:10517C00DFF834C395F802A095F8069095F80780EF
:10518C00BB6035469842C8BF1CF8037003F101039D
:10519C00D8BF00270C2B05F8017FF3D1DDED027A87
:1051AC009FEDB76A0596F8EE677AB7EE007A77EE60
:1051BC00877A9DED037A049EC6EE276A282301FBAD
:1051CC0003F3D018371E18BF0127012580F8207073
:1051DC0080F82150D75C02F803A0B8EE477ADFEDD7
:1051EC00A97AC0ED066A37EE677A27EE267A80ED4B
:1051FC00077AB9F1000F40F06B8580F82290B8F176
:10520C00000F40F05C8580F8258020339E484FF4D9
:10521C008075C5529D4B03EB0113F7EE006A1B79A9
:10522C0007EE903AF8EE677A002077EEE67A67EEB2
:10523C00877AF5EEC07AF1EE10FA40F38F852823C9
:10524C0003FB012377EEA67A1861C3ED057A904A29
:10525C001368002B3DF4DFAC8E4E049FDFF84CC27C
:10526C0001968BF06E00013B315C13608A4B00930E
:10527C008AEA01011D5C029881F0D0014540705C06
:10528C0068405D5C03994D40315C69401D5C705C0D
:10529C007D4068405D5C315C185C89EA05056940BD
:1052AC0088EA0000775CBCF80050784003467A48E6
:1052BC00465C0796A91C1FFA81FEE91C5A461FFA88
:1052CC0081FB291D8EB2691D89B20691A91D89B277
:1052DC000E91E91D8FB205F1080189B2109105F10B
:1052EC0009010F978FB24FF496611197681CB5FBAB
:1052FC00F1F701FB175780B2BFB20897B0FBF1F77B
:10530C0001FB170080B20990BEFBF1F001FB10EE1F
:10531C001FFA8EFEBBFBF1F001FB10BBB6FBF1F0EC
:10532C0001FB1060069ECDF828E01FFA8BFECDF82D
:10533C002CE01FFA80FEB6FBF1F001FB1060CDF8FB
:10534C0030E01FFA80FECDF834E00E9EB6FBF1F093
:10535C0001FB10600F9E1FFA80FEB6FBF1F001FB03
:10536C001060109ECDF838E01FFA80FEB6FBF1F00D
:10537C0001FB1060119ECDF83CE01FFA80FEB6FBDD
:10538C00F1F001FB1060454ECDF840E01FFA80FEB5
:10539C00CDF844E0B6F800E03E4E4148F75C079E7D
:1053AC00CDF818E077401E463B4B13F806E0089EFC
:1053BC004FF0A50B00F806B0099E4FF0140B00F847
:1053CC0006B00A9E4FF0440B00F806B00B9E8255B7
:1053DC000C9E029A00F806A00D9E82550E9E039A12
:1053EC0082550F9E049A8255109A2C4E00F802900A
:1053FC00119A00F80280069A02F10108A6F80080C2
:10540C0005F1160905F10A08059E224A1FFA88F8CB
:10541C001FFA89F916F801BF8BEA070AB8FBF1F7F6
:10542C0001FB1787BFB208F1010800F807B01FFA9B
:10543C0088F812F80A70C8458EEA070713F80AE0D4
:10544C00E8D1069BDFF8689003F01F0205F1170303
:10545C009EB2D9F800300133C9F80030B8FBF1F333
:10546C0001FB13839BB2C754B6FBF1F301FB13632F
:10547C009BB20C4900F803E01CE000BF2817002089
:10548C000AD7233E000000432B1700209C0000206D
:10549C00EC0A0020905601089055010822A6002025
:1054AC006CA1002044A600205CA000206AA1002072
:1054BC001CA6002005F11803ACF800303E4B21F877
:1054CC00125018219954FDF7A6BBBAF1020F7DF4C6
:1054DC00A2AB95F8018008F1FF33DBB2092B3DF646
:1054EC009AAB364A3649282000FB03220B68002071
:1054FC0082F82100002B3DF48EABDFF8E0B0314A8E
:10550C00DBF800601288013B0B602F4B88F02109FF
:10551C00B3F800E02D4B013613F80930CBF80060DE
:10552C002B4E83F0720116F8096000964FF49663C7
:10553C0002F1010C971CD51CB2FBF3F61FFA8CFC84
:10554C0003FB1626BFB2ADB2101D80B21FFA86F94E
:10555C000191BCFBF3F6511D03FB16CCB7FBF3F624
:10556C0003FB1677B5FBF3F603FB165589B2AEB207
:10557C00B0FBF3F503FB1500134D1FFA80FBB1FBD9
:10558C00F3F003FB10130EF01F000EF1010EA5F843
:10559C0000E0104D104925F810200A4D06321FFA74
:1055AC008CFC2A80A52501F80950034A01F80CA0AF
:1055BC00BFB29BB2432596E524A60020B818002064
:1055CC00EC0A00206AA1002022A6002090560108B7
:1055DC009055010844A600206CA100201CA60020B8
:1055EC00AAF10800C0B20C283DF615AB6B78591E19
:1055FC00C9B209299B463DF60EABBF4A01EB8106A9
:10560C00F60006F1010CB3180593002342F80C3098
:10561C0002EB0C07EE787B6002962E7903966E797E
:10562C000496059EDFF8F8C295F802A095F806904E
:10563C0095F80780BB6035468342B8BF1CF80370F1
:10564C0003F10103A8BF00270C2B05F8017FF3D150
:10565C00DDED027A9FEDA96A0596F8EE677AB7EE52
:10566C00007A77EE877A9DED037A049EC6EE276A60
:10567C00282301FB03F3D018371E18BF012701257F
:10568C0080F8207080F82150D75C02F803A0B8EEA7
:10569C00477ADFED9B7AC0ED066A37EE677A27EE24
:1056AC00267A80ED077AB9F1000F40F09E8280F8DF
:1056BC002290B8F1000F40F0908280F825802033C2
:1056CC0090484FF48075C5528F4B03EB0113F7EEE6
:1056DC00006A1B7907EE903AF8EE677A002077EEB5
:1056EC00E67A67EE877AF5EEC07AF1EE10FA40F3BF
:1056FC006A82282303FB012377EEA67A1861C3ED97
:10570C00057A824A1368002B3DF485AA804E049FCB
:10571C00DFF810C201968BF0EE00013B315C136098
:10572C007C4B00938AEA01011D5C029881F0D20146
:10573C004540705C68405D5C03994D40315C69404C
:10574C001D5C705C7D4068405D5C315C185C89EA76
:10575C000505694088EA0000775CBCF80050784089
:10576C0003466C48465C0796A91C1FFA81FEE91C8F
:10577C005A461FFA81FB291D8EB2691D89B206910A
:10578C00A91D89B20E91E91D8FB205F1080189B2EC
:10579C00109105F109010F978FB24FF49661119793
:1057AC00681CB5FBF1F701FB175780B2BFB2089725
:1057BC00B0FBF1F701FB170080B20990BEFBF1F0D2
:1057CC0001FB10EE1FFA8EFEBBFBF1F001FB10BBD0
:1057DC00B6FBF1F001FB1060069ECDF828E01FFA35
:1057EC008BFECDF82CE01FFA80FEB6FBF1F001FB2E
:1057FC001060CDF830E01FFA80FECDF834E00E9E3C
:10580C00B6FBF1F001FB10600F9E1FFA80FEB6FB99
:10581C00F1F001FB1060109ECDF838E01FFA80FE0D
:10582C00B6FBF1F001FB1060119ECDF83CE01FFAC5
:10583C0080FEB6FBF1F001FB1060374ECDF840E076
:10584C001FFA80FECDF844E0B6F800E0304E334845
:10585C00F75C079ECDF818E077401E462D4B13F8E9
:10586C0006E0089E4FF0A50B00F806B0099E4FF01D
:10587C00140B00F806B00A9E4FF0420B00F806B06D
:10588C000B9E82550C9E029A00F806A00D9E825526
:10589C000E9E039A82550F9E049A8255109A1E4EA4
:1058AC0000F80290119A00F80280069A02F10108A1
:1058BC00A6F8008005F1160905F10A08059E144AA0
:1058CC001FFA88F81FFA89F916F801BF8BEA070A44
:1058DC00B8FBF1F701FB1787BFB208F1010800F81C
:1058EC0007B01FFA88F812F80A70C8458EEA070745
:1058FC0013F80AE0E8D1A4E5B81800200AD7233E33
:10590C0000000043BB1800209C000020EC0A002083
:10591C00905601089055010822A600206CA1002089
:10592C005CA000206AA10020BAF1020F7DF473A9DB
:10593C006B78013BDBB2092B3DF66DA9C44EC54813
:10594C00DFF834C30C2101FB03660127282111FB6E
:10595C00037701FB03F3C5180CEB03010022EA618A
:10596C002A613260CA610A61BB4AAA618A6103F189
:10597C0020084FF07E524FF0000E07EB00096A61D1
:10598C0072604A6186F808E04FF0FF22B34E4FF088
:10599C00200A00F803A040F8086085F825E0C25101
:1059AC00C9F8042013220CF8032040F201134CF820
:1059BC00083081F825E0FDF72EB9BAF1030F7DF61A
:1059CC002AA96E78013EF6B2092E3DF624A9AA78D2
:1059DC00E978931E012B40F28F81101F4342434103
:1059EC009B00DFF898E2300100900EF800200EEBDF
:1059FC0006127746537000221046134697F804C0DF
:105A0C009E42A8BF0246013360440A2BC0B207F184
:105A1C001007F3D1009B73441B799942C0F0F880B6
:105A2C00DFF85CC299420ED9C0F16400A1EB030807
:105A3C00C0B25FFA88F6864240F262811844C1B265
:105A4C00994200F25B81009B9E448B186420DBB270
:105A5C005F1EB2FBF0F300FB1323DAB20CEB420C2B
:105A6C0013468EF8041097FBF0F24FF0FF0800FB82
:105A7C0012770022042018E0461C96FBF8F9C9EBBB
:105A8C000929A6EB09060133AE5D0CF8026C16442D
:105A9C00B2B22E5C003E18BF012602300CF8016C2D
:105AAC0090FBF8F6C6EB0626801BBB42AEF8022034
:105ABC000CF1020CE0DD6A4B6A4A01201870136885
:105ACC00002B3DF4A8A8DFF8BCC1674FBCF8006000
