:020000040800F2
:100000000C020020891F0008D51F0008D51F00081A
:10001000D51F0008D51F0008D51F000800000000EC
:10002000000000000000000000000000D51F0008D4
:10003000D51F000800000000D51F0008CD010008F2
:1000400000000000D51F0008D51F0008D51F0008BC
:10005000D51F0008D51F0008D51F0008D51F0008B0
:10006000D51F0008D51F0008D51F0008D51F0008A0
:10007000D51F0008D51F0008D51F0008D51F000890
:10008000D51F0008D51F000800000000D51F00087C
:10009000D51F0008D51F0008D51F0008D51F000870
:1000A000D51F0008D51F0008D51F0008D51F000860
:1000B000E903000800000000D51F00080000000050
:1000C000D51F000800000000D51F0008D51F00083C
:1000D000D51F000800000000000000000000000024
:1000E0000000000000000000D51F00080000000014
:1000F0000000000000000000000000000000000000
:10010000D51F00080000000000000000D51F0008F7
:1001100000000000000000000000000000000000DF
:1001200000000000000000000000000000000000CF
:1001300000000000000000000000000000000000BF
:10014000000000000000000000000000D51F0008B3
:1001500053B94AB9002908BF00281CBF4FF0FF312E
:100160004FF0FF3000F00CB8ADF1080C6DE904CE93
:1001700002F03EF8DDF804E0DDE9022304B0704748
:10018000704700BF074B591E1A5C095C41EA022107
:100190009A1E033B125C185C42EA012240EA0220EC
:1001A000704700BF2B0200204FF0E023054A5A6140
:1001B000054AF02182F8231000229A6107221A6171
:1001C000704700BF1E48010000ED00E0024A1368BE
:1001D00001331360704700BF64090020F8B5144B69
:1001E0006FF03A02D3F8E017D3F8AC07D3F8B06752
:1001F000D3F8B4774FF6FF73FFF7AAFF38461446DB
:100200001D466FF03A024FF6FF733146FFF7A0FF2D
:10021000084862406B400021013100F8012B06299B
:100220004FEA122242EA03624FEA1323F4D1F8BDE7
:1002300000F0FF1F5D09002008B540F2115001F0E9
:10024000EBFC0823032200214FF0904001F02AFC30
:100250000823002202214FF0904001F001FCBDE88C
:100260000840082201214FF0904001F056BC08B52B
:1002700040F2115001F0D0FC0423032200214FF082
:10028000904001F00FFC0423002202214FF0904027
:1002900001F0E6FBBDE80840042201214FF0904048
:1002A00001F03BBC08B500221C20114601F066FCA1
:1002B000BDE8084040F2117001F0AEBC10B540F24C
:1002C000115001F0A9FC1023032200214FF09040AF
:1002D00001F0E8FBBDE810401023002201214FF09F
:1002E000904001F0BDBB10214FF0904001F013BCD5
:1002F000037810B55940044C044B5A5C4378615C58
:1003000042704B40037010BDC6250008C62400088B
:1003100073B5124C2246552102F8011B104908689A
:100320008988C4F8010091800122227262720D4A0C
:1003300000251288E571ADF80420264614F8011B4B
:1003400001A80135FFF7D4FF0A2DF7D19DF804303D
:10035000B3729DF80530F37202B070BD1402002034
:100360005D090020AC24000837B50C4B0C4C1D78FF
:100370000C4B65701B88ADF804305F2101A821701B
:10038000FFF7B6FF2946FFF7B3FF9DF80430A370CF
:100390009DF80530E37003B030BD00BF06000020BB
:1003A00024020020AC24000837B50C4B0C4C1D78FF
:1003B0000C4B65701B88ADF80430332101A8217007
:1003C000FFF796FF2946FFF793FF9DF80430A370CF
:1003D0009DF80530E37003B030BD00BF060000207B
:1003E00020020020AC240008F8B56549654801F0FA
:1003F000A1FD064640B1634840F2017101F07DFD68
:100400005F49604801F0ACFD5F495E4801F092FD34
:10041000074640B15B4840F2027101F06EFD5A4957
:10042000584801F09DFD5949564801F083FD0546A5
:1004300040B1544840F2037101F05FFD5349514807
:1004400001F08EFD52494F4801F074FD044640B161
:100450004C484FF4E06101F050FD4D49494801F02E
:100460007FFD4C49474801F065FDD0B1454840F259
:10047000037101F042FD4749424801F071FD72B637
:10048000454A00231360454A1360454A4FF4807182
:100490001180444A138062B6434A1370434A137072
:1004A00005E03E4335432C43E4B2002CE7D14049FC
:1004B000344801F03FFD10B3394A1388DBB13749A6
:1004C00030480C68013B1380631C5A42D2B2DBB245
:1004D00058BF53420B6001F00CFD364B23F814005B
:1004E000324B01221A70344B1A68344B1A602D4A71
:1004F0001388013313802E49224801F031FD304921
:10050000204801F017FDC0B12E4D2F4B2C881B88C1
:10051000A34226D94FF49672B4FBF2F302FB1343C5
:100520009BB22A4A174832F81310013401F0DDFC5F
:100530002C802349134801F013FD2549114801F08F
:10054000F9FCE0B10F48062101F0E9FC10214FF061
:10055000904001F0E0FABDE8F8401D49094801F07B
:10056000FFBC0848072101F0DAFC0648062101F02B
:10057000CCFC0E4A00231370164A1370D9E7F8BD5D
:1005800000020107004400400002020700020307C6
:100590000800000705000307540700205807002043
:1005A0000A000020500700202A0300203903002001
:1005B000050005075C0700206409002034030020C3
:1005C00007000707F6040020F4040020F8040020C8
:1005D000060006073803002010B5174C204601F02E
:1005E00005FC2046042101F078FC2046082101F09A
:1005F0006CFC2046052101F088FC20464FF4007178
:1006000001F083FC2046082101F07FFC20460B49C5
:1006100001F008FC2046002101F03AFC20460021B0
:1006200001F042FC2046002101F026FC2046BDE8F6
:10063000104001F045BC00BF0044004040420F00A4
:100640002DE9F04F764B1A8885B0002A31D072B66A
:100650001A88013A1A8062B67248734F01684B1CBF
:100660005A42D2B2DBB258BF534203606F4B33F8E9
:1006700011403B78002B58D1FF2C14D8AA2CE1B2A2
:100680001AD16B49032008706A496B480B706B499B
:100690000B706B4B01221A70FF233A70037043708A
:1006A0002146FFF725FE72B6664A13880133138090
:1006B00062B605B0BDE8F08FCC290FD102223A70A6
:1006C0005B4A13705B4A5C4813705C4A13705C4B66
:1006D00001221A70FF2303704370E2E7AF2901D1B2
:1006E0000322ECE7A02901D10422E8E7552905D12E
:1006F00005223A704E4A0B201070E3E7332904D1EB
:1007000005223A7003204A4AF6E75F2906D10523FD
:100710003B70474B03221A700023D3E75029C2D104
:1007200006233B700222424BF5E7013B052BBAD86A
:10073000DFE813F03805C705F3040600E505EE050C
:100740003B4D2978B9B9404BFF2C1E7809D93A485E
:10075000FFF7CEFD16B13A4B00221A7001232B7021
:10076000A1E7E4B234482146FFF7C2FDA642F5D026
:10077000FF2CF3D0EFE70139082994D801A353F8EF
:1007800021F000BFA9070008C1070008A70600085C
:10079000A7060008A7060008A7060008EB07000840
:1007A0001312000855080008B4F5807F274B224833
:1007B00028BF0024E1B21970FFF79AFD0223CEE7AB
:1007C000FF2C1E4B08D900211B481970FFF790FD24
:1007D000174B08221A7066E7E1B217481970FFF745
:1007E00087FD002CF4D00723B9E712480378B4F54D
:1007F000807F28BF0024FF22B3FBF2F21A440133AA
:10080000DDB2E1B202F0FF02114C05700A48A154BA
:10081000FFF76EFD094B1B78AB427FF444AFD7E77F
:1008200050070020540700202A0300205C07002006
:1008300029030020280300200100002027030020B6
:10084000000000200A000020060000201202002004
:1008500028020020D14BD24A4FF0000883F80080D4
:100860001278D04B5B78002A00F0C381B4F5807F0A
:1008700028BF44469C4240F0BC81CB4BCB49CC4A7C
:100880001B780978B2F900200091002B00F0AB81B1
:100890008A4200F0A881C74C94F80090B9F1F50F96
:1008A00040F0AA81C44B93F800B0BBF1FF0F00F0F9
:1008B0009A81C24A1388002B00F09581C049C14E2D
:1008C000D1F800A0013B13800AF10103B8EB030249
:1008D00002F01F0203F01F0358BF53420B60BA4BD4
:1008E000BA4A1D881288ADF80C204FF4967403A8FC
:1008F0005021FFF7FDFCB5FBF4F204FB125292B25B
:100900005021B1545946FFF7F3FC6A1C92B2B2FB76
:10091000F4F104FB112292B206F802B0DFF8C0B283
:100920009BF800100191FFF7E3FCAA1C92B2B2FB06
:10093000F4FC04FB1C22019992B2B15401318BF8F2
:1009400000101321FFF7D4FCEA1C92B2B2FBF4F1C1
:1009500004FB112292B21321B1544946FFF7C8FC9F
:100960002A1D92B2B2FBF4F104FB112292B20121D2
:1009700006F80290FFF7BCFC6A1D92B2B2FBF4F1DC
:1009800004FB112292B24FF00109414606F8029091
:10099000FFF7AEFCAA1D92B2B2FBF4F104FB1122E8
:1009A00092B2442106F80280FFF7A2FCEA1D92B23F
:1009B000B2FBF4F104FB112292B24421B154494636
:1009C000FFF796FC05F1080292B2B2FBF4F104FBCA
:1009D000112292B2494606F80290FFF789FC05F110
:1009E000090292B2B2FBF4F104FB112292B2414629
:1009F00006F80290FFF77CFC05F10A0292B2B2FB06
:100A0000F4F104FB112292B2672106F80280FFF78D
:100A10006FFC05F10B0292B2B2FBF4F104FB112260
:100A200092B26721B1546421FFF762FC05F10C0218
:100A300092B2B2FBF4F104FB112292B26421B154E0
:100A40003321FFF755FC05F10D0292B2B2FBF4F130
:100A500004FB112292B24FF03308322106F80280D3
:100A6000FFF746FC05F10E0292B2B2FBF4F104FB73
:100A7000112292B23221B1546621FFF739FC05F1FF
:100A80000F0292B2B2FBF4F104FB112292B2662182
:100A9000B1544146FFF72CFC05F1100292B2B2FBB3
:100AA000F4F104FB112292B2414606F80280FFF7EE
:100AB0001FFC05F1110292B2B2FBF4F104FB11220A
:100AC00092B2302106F80280FFF712FC05F1120203
:100AD00092B2B2FBF4F104FB112292B23021B15474
:100AE0006B21FFF705FC05F1130292B2B2FBF4F1A2
:100AF00004FB112292B26B21B1543821FFF7F8FBAD
:100B000005F1140292B2B2FBF4F104FB112292B28D
:100B10003821B1547521FFF7EBFB05F1150292B2B4
:100B2000B2FBF4F104FB112292B27521B1543621CB
:100B3000FFF7DEFB05F1160292B2B2FBF4F104FB03
:100B4000112292B23621B15405F1170292B2B2FBD2
:100B5000F4F104FB112292B29DF80C10B15405F18E
:100B6000180292B2B2FBF4F104FB112292B2164BBE
:100B70009DF80D10B15405F119021A80144B23F899
:100B80001A50144B192203F80A20134B102203F8B1
:100B90000A20124A13884B4424E000BF3903002086
:100BA0000000002001000020270300201202002086
:100BB0000400002028020020060000200800002079
:100BC000700400203C0300203A030020AC240008FD
:100BD000B404002094040020740400206804002061
:100BE000130200201380B94B01221A70B84B009AEF
:100BF0001A8000233B7056E5B9F1FB0FF3D1012BAE
:100C00000BD1BFF34F8FB349B34BCA6802F4E06214
:100C10001343CB60BFF34F8FFEE7072BE3D9B4F844
:100C20000110002940F01181182BDCD1AB4BE27987
:100C30001970B4F80510A37AB1F5884FD3D1012A01
:100C4000D1D1012BCFD194F80CB094F80DA094F829
:100C50000E9094F80F8094F810E094F811C0A67CE0
:100C6000E57C207D617DA27DE37DBBF1670FBAD17C
:100C7000BAF1640FB7D1B9F1330FB4D1B8F1320F73
:100C8000B1D1BEF1660FAED1BCF1330FABD1332E73
:100C9000A9D1302DA7D16B28A5D13829A3D1752A88
:100CA000A1D1362B9FD172B600F06AFE202000F051
:100CB0007DFE102000F07AFE042000F077FE8848C8
:100CC00000F098FE202000F071FE102000F06EFE73
:100CD000042000F06BFE00F061FE62B6B4F8033051
:100CE000804A5BBA1380804B4FF00209A3F8009052
:100CF0007E4B93F800A0BAF1FF0F00F0A2807C4A6F
:100D00001388002B00F09D807A49DFF804B2D1F8F7
:100D10000080BBF80050784E013B138008F10103BE
:100D20005A4202F01F0203F01F0358BF53420B60E8
:100D3000724B4FF4967403A81B88ADF80C30502109
:100D4000FFF7D6FAB5FBF4F304FB13539BB2502222
:100D50005146F254FFF7CCFA6B1C9BB2B3FBF4F292
:100D600004FB12339BB206F803A0DFF8A8A19AF89F
:100D700000100191FFF7BCFA05EB09039BB2B3FB2E
:100D8000F4F204FB123301999BB2F15401318AF859
:100D900000100321FFF7ACFAEB1C9BB2B3FBF4F29B
:100DA00004FB12339BB20322FB21F254FFF7A0FA9B
:100DB0002B1D9BB2B3FBF4F204FB12339BB2FB225C
:100DC0000021F254FFF794FA6B1D9BB2B3FBF4F2CF
:100DD00004FB12339BB200224946F254FFF788FA13
:100DE000AB1D9BB2B3FBF4F204FB12339BB206F8CB
:100DF0000390EB1D9BB2B3FBF4F204FB12339BB2E6
:100E00009DF80C20F25405F108039BB2B3FBF4F2F9
:100E100004FB12339BB29DF80D20F25405F1090337
:100E2000ABF80030364B23F81850364B092203F844
:100E30000820354B102203F80820344A1388013368
:100E40001380264B01221A70CDE6274E4DBA328808
:100E5000ADB2AA427FF4C7AED4F803801F48DC1FAE
:100E60000022C4F38504B1F5807F027098FA88F8F7
:100E700004F1FF3450D1154624E04FEA850909F109
:100E80000700FFF77FF9064672B600F079FD2020D3
:100E900000F08CFD102000F089FD042000F086FD9C
:100EA000314609EB080000F0C1FD202000F07EFD76
:100EB000102000F07BFD042000F078FD00F06EFDB6
:100EC00062B60135A542D8DD8DE600BF2D030020B6
:100ED0000400002000ED00E00400FA050C020020F0
:100EE00000280008100200200E020020060000204A
:100EF00008000020700400203C030020AC240008FF
:100F0000B40400209404002074040020680400202D
:100F10003A03002013020020C8F30903D3B972B6C4
:100F200000F02EFD202000F041FD102000F03EFDDD
:100F3000042000F03BFD404600F05CFD202000F066
:100F400035FD102000F032FD042000F02FFD00F0F0
:100F500025FD62B64FF00009A14540F3B780B44BC0
:100F60001B88AB42B34B93F800A01ABF0135ADB25A
:100F70000125BAF1FF0F35803FF463AFAE4A138805
:100F8000002B3FF45EAFAD49DFF8E8B2D1F8009036
:100F9000BBF80060DFF8E082013B138009F1010338
:100FA0005A4202F01F0203F01F0358BF53420B6066
:100FB000A34B4FF4967403A81B88ADF80C30502156
:100FC000FFF796F9B6FBF4F304FB13639BB25022D0
:100FD000514608F80320FFF78BF9731C9BB2B3FB53
:100FE000F4F204FB12339BB208F803A0DFF88CA2E2
:100FF0009AF800100191FFF77BF9B31C9BB2B3FB89
:10100000F4F204FB123301999BB208F8031001318A
:101010008AF800100321FFF76BF9F31C9BB2B3FBB6
:10102000F4F204FB12339BB20322FB2108F80320E5
:10103000FFF75EF9331D9BB2B3FBF4F204FB1233EE
:101040009BB24FEA152AFB22514608F80320FFF70E
:101050004FF9731D9BB2B3FBF4F204FB12339BB246
:10106000EDB2294608F803A0FFF742F9B31D9BB281
:10107000B3FBF4F204FB12339BB208F80350F31DE8
:101080009BB2B3FBF4F204FB12339BB29DF80C202D
:1010900008F8032006F108039BB2B3FBF4F204FB4B
:1010A00012339BB29DF80D2008F8032006F10903C6
:1010B000ABF80030634B23F81960634B092203F847
:1010C0000920624B102203F80920B6E64FEA890B8B
:1010D0000BF10700FFF756F8824672B600F050FC9D
:1010E000202000F063FC102000F060FC042000F0E1
:1010F0005DFC51460BEB080000F098FC202000F04E
:1011000055FC102000F052FC042000F04FFC00F0D1
:1011100045FC62B609F101091EE74D4B1978C9B9C2
:10112000444BFF2C1D7805D94A48FFF7E1F865B913
:10113000FFF74EBBE4B247482146FFF7D9F8A54276
:101140003FF446ABFF2C3FF443AB434B00221A70F5
:10115000FFF73EBB082907D13E4BB4F5807F1B78D3
:1011600028BF0024A3425BE009297FF49CAA3B4BE3
:10117000394900221A700978364B5B7800293FF410
:1011800038ADB4F5807F28BF14469C427FF431AD62
:10119000334B197800293FF42CAD324901200870F7
:1011A0001A7026E52A4E3378032B23D12E4F294877
:1011B0003D780622B5FBF2F302FB1353DBB22B4A58
:1011C000B4F5807FD35C28BF0024E1B28B4218BF06
:1011D000214B05F1010518BF0022EDB218BF1A70AE
:1011E000FFF786F8062D3D707FF45DAA002333706B
:1011F000FFF759BA5BB9B4F5807F1D4B154828BF7E
:101200000024E1B21970FFF773F80823EFE7082B09
:1012100036D1104BB4F5807F1B7828BF00249C4248
:101220001EBF0D4B00221A70094B0922FFF7D2BADC
:10123000100200200600002008000020700400209A
:10124000AC240008B404002094040020740400209E
:1012500029030020010000200000002039030020A5
:101260002B0300202C030020280300205D09002010
:10127000120200203A0300203C0300201302002049
:10128000092B7FF410AA2A4B2A4A00251D701278D8
:10129000294B5B78002A3FF4ACACB4F5807F28BFC3
:1012A0002C469C427FF4A5AC244B1A78244B1A7030
:1012B000FFF75AF8FFF778F8224B1D70224B1D708C
:1012C00097E4224B197800293FF42AAF0829A0D0CF
:1012D00009297FF4E8A9164B00221A70154A164B0B
:1012E00012785B78002A3FF484ACB4F5807F28BF85
:1012F00000249C427FF47DAC114BFF2250E7134A3F
:101300001378012B7FF675AC013B1370FFF7CBB957
:101310000E4A1378012BF7D8FF2C98BF02344FF0F8
:10132000050394BFE4B202243B701470FFF7BBB90D
:1013300039030020000000200100002012020020DC
:10134000060000202D0300205C0900202903002056
:10135000714B2DE9F74F1B78704F3C78002B40F014
:10136000AD80002C40F0AA806D4B6E4D1B786E4E08
:10137000FF2B00F0B9806D4B1A78E2B110214FF0CD
:1013800090401C7000F0C5FB694A6A4B11781980C7
:10139000517859809178D2789980DA80664B674885
:1013A00004221A80664B07211C8000F0AEFD3368D2
:1013B0002B6001233B70D6F800A02B68AAEB030337
:1013C000012B58D95F490B88002B54D05E4ADFF8B7
:1013D00098B114681BF80490B9F1000F7FD05B48F6
:1013E00030F8140001905A4890F80080B8F1000FCE
:1013F00014D04FF0000C013B01340B8080F800C08A
:10140000BCEB040303F01F0304F01F0458BF5C424D
:101410001460504A1388013313802CE04E4B4FF078
:1014200090401B5D0093102100F073FB424BDFF8EE
:1014300004C1A3F80080009BDFF830E15A1E4FF48E
:10144000967043469A423CDAB8F1000F02D03A4B0C
:10145000009A1A803A4B3948002207211A8009F174
:10146000FF3900F052FD3D4A0BF804900123137040
:10147000C5F800A03B7033682A689B1AB3F57A7FE1
:101480001CD910214FF0904000F043FB344A294B07
:1014900011781980517859809178D278DA809980C2
:1014A000254B04221A80264B2448002207211A804B
:1014B00000F02BFD33682B6001233B7003B0BDE8C7
:1014C000F08F01995918B1FBF0F800FB18114FF09B
:1014D00001081EF801102CF813100133B2E7013B8C
:1014E00001340B8063428DE733682A689B1AB3F599
:1014F0007A7FE3D910214FF0904000F00AFB194A9F
:101500000C49234612F8010B21F8130001330C2B70
:10151000F8D1094A1380C6E73903002038030020B8
:101520000600002030030020640900202D03002065
:1015300024020020F8040020F404002000440040AD
:10154000F6040020680400206C040020B40400208D
:101550002C03002008000020940400202B0300200E
:101560002002002014020020740400203C0300200C
:101570000D4B0E4A19681368CB1A012B10B511D9FF
:1015800072B60B48002303600A4803600A484FF410
:10159000807404800948038062B6094811600370B2
:1015A0000848037010BD00BF640900203403002008
:1015B00054070020580700200A0000205007002090
:1015C0002A030020390300204B4B1B782DE9F347F9
:1015D000002B00F08E80494B93F80090B9F1FF0F7B
:1015E00000F08780464A1388002B00F0828045492E
:1015F000DFF830810F68B8F80050434E013B13808C
:101600007B1C5A4202F01F0203F01F0358BF5342D3
:101610000B603E4B4FF4967401A81B88ADF8043064
:101620005021FEF765FEB5FBF4F304FB13539BB2A8
:1016300050224946F254FEF75BFE6B1C9BB2B3FB93
:10164000F4F204FB12339BB206F80390DFF8D89053
:1016500099F800A05146FEF74BFEAB1C9BB2B3FBC2
:10166000F4F204FB12339BB2012106F803A00AF145
:10167000010A89F800A0FEF73BFEEB1C9BB2B3FB0E
:10168000F4F204FB12339BB20122F254204B93F884
:1016900000904946FEF72CFE2B1D9BB2B3FBF4F2E3
:1016A00004FB12339BB206F803906B1D9BB2B3FB95
:1016B000F4F204FB12339BB29DF80420F254AB1DEC
:1016C0009BB2B3FBF4F204FB12339BB29DF80520EE
:1016D000F254EB1DA8F800300E4B23F817500E4BB8
:1016E0000722DA550D4B1022DA550D4A13880133C3
:1016F000138002B0BDE8F0875C09002006000020DE
:1017000008000020700400203C030020AC240008E6
:1017100007000020B404002094040020740400207A
:10172000680400203A03002013020020064BD3F87F
:101730000028013207D072B6D3F8002882F3088857
:10174000D3F8043818477047002000085A4B1B781C
:101750002DE9F74F002B00F0AC80584B93F800A018
:10176000BAF1FF0F00F0A580554A1388002B00F056
:10177000A0805449DFF86C81B1F800905249B8F864
:1017800000500F68514E013B13807B1C5A4202F0FF
:101790001F0203F01F0358BF53420B604C4B4FF422
:1017A000967401A81B88ADF804305021FEF7A0FD07
:1017B000B5FBF4F304FB13539BB250225146F25491
:1017C000FEF796FD6B1C9BB2B3FBF4F204FB1233E5
:1017D0009BB206F803A0DFF810A19AF800B05946B2
:1017E000FEF786FDAB1C9BB2B3FBF4F204FB123395
:1017F0009BB2032106F803B00BF1010B8AF800B08D
:10180000FEF776FDEB1C9BB2B3FBF4F204FB123344
:101810009BB20322FB21F254FEF76AFD2B1D9BB203
:10182000B3FBF4F204FB12339BB24FEA192AFB22FA
:101830005146F254FEF75CFD6B1D9BB2B3FBF4F214
:1018400004FB12339BB25FFA89F9494606F803A0FC
:10185000FEF74EFDAB1D9BB2B3FBF4F204FB12335B
:101860009BB206F80390EB1D9BB2B3FBF4F204FBB2
:1018700012339BB29DF80420F25405F108039BB289
:10188000B3FBF4F204FB12339BB29DF80520F25433
:1018900005F10903A8F800300E4B23F817500E4B42
:1018A0000922DA550D4B1022DA550D4A13880133FF
:1018B000138003B0BDE8F08F0C020020060000206A
:1018C000080000200E020020700400203C030020CD
:1018D000AC240008B4040020940400207404002008
:1018E000680400203A0300201302002008B5FEF728
:1018F0005BFCFEF773FCFEF79FFCFEF7B8FCFEF7FF
:10190000D1FCFEF7DBFCFEF7EEFCFEF701FDFEF777
:101910002BFDFEF749FDBDE80840FEF75DBE000067
:101920002DE9F0470025DFF848802F462E4643F684
:10193000972940F6B73AD8F80040A31BB3F5FA6FE1
:1019400002D3FFF741FE2646E31B4B4502D9FFF7C2
:10195000EDFE2746631B534502D9FFF7F7FE2546E8
:10196000FEF76EFEFFF7F4FCFFF702FEE3E700BFB1
:101970006409002008B5FFF7B9FFFFF7D1FF0000A9
:10198000044B1A69120641BF034A5A6002F18832B9
:101990005A6070470020024023016745024A1369DC
:1019A00043F080031361704700200240014BD86070
:1019B000704700BF00200240074BDA68D10707D408
:1019C000DA68D20606D4D868C0F3800040007047B9
:1019D00001207047032070470020024010B50446E4
:1019E000FFF7EAFF012804F1FF3402D1002CF7D100
:1019F000042010BD38B505464FF47020FFF7EEFF08
:101A000088B9094C236943F00203236165612369A6
:101A100043F0400323614FF47020FFF7DFFF236999
:101A200023F00203236138BD0020024070B5054653
:101A30004FF470200E46FFF7D1FF68B9074C2369B9
:101A400043F0010323614FF470202E60FFF7C6FFBF
:101A5000236923F00103236170BD00BF0020024011
:101A60002DE9F0430568C46800264FF0010E4FF0E1
:101A700003080EFA06F71F420DD0770008FA07FC9C
:101A800001FA07F925EA0C0524EA0C0402FA07F723
:101A900049EA05053C430136102EEAD10560C460D1
:101AA000BDE8F08301294168F0B50CBF19439943A3
:101AB0004FF6FF744160A242816815D1C46B0022C9
:101AC00001274FF0030C07FA02F61E421CBF550017
:101AD0000CFA05F502F101021CBF29433443102A18
:101AE000F1D18160C463F0BD002401274FF0030CE5
:101AF00007FA04F51D4207D065000CFA05F621EA45
:101B0000060102FA05F529430134102CF0D1816059
:101B1000E9E78161704781627047F0B5066A456AFE
:101B200000234FF0010C4FF00F0E0CFA03F4144297
:101B300007D09C000EFA04F726EA070601FA04F41F
:101B400026430133082BF0D100234FF0010C4FF056
:101B50000F0E03F108040CFA04F4144207D09C00A1
:101B60000EFA04F725EA070501FA04F425430133C8
:101B7000082BEED106624562F0BD000010B51D4C89
:101B8000E36803F4E063B3F5A06F08D020D8B3F5A1
:101B9000407F26D0B3F5806F26D0174BE360022339
:101BA0001C46C4F10404A140C3F104040F23E34024
:101BB0001340124A0B431B011118DBB281F80033AA
:101BC0004109012300F01F00834042F8213010BD7D
:101BD000B3F5C06F0BD0B3F5E06FDED10423002462
:101BE000DFE700230424DCE701230324D9E70323F0
:101BF0000124D6E700ED00E00005FA0500E100E071
:101C000021F06041034B21F07F0101439960BFF354
:101C10004F8F704700ED00E0830903F1804303F527
:101C2000043300F01F001968012282400A431A6041
:101C30007047830903F1804303F5043300F01F006C
:101C40001A680121814022EA01021A607047FFF7F9
:101C5000E3BFFFF7EEBF0000F0B55D4B89B005466E
:101C600004AC03F110061F4618685968224603C2E7
:101C70000833B3421446F7D1716838696B4603C321
:101C800003C354494B68C3F38103022B44D14A6810
:101C90004868CB6A0601C2F383424FEAD37334D457
:101CA000002B30D102324B68C86ADC0332D5CB6AD4
:101CB000400003F00F0354BF474848480133B0FBCE
:101CC000F3F35A434B68C3F3031320336B4413F805
:101CD000104C4B68C3F3022320336B4422FA04F404
:101CE00013F8206C4B68C3F3C22320336B4413F802
:101CF000183C24FA03F0062D10D8DFE805F0641232
:101D0000141017464F002132CDE70BB91132CAE744
:101D10003132C8E7324BD4E72F4AD3E7002009B06D
:101D2000F0BD2046FBE724FA06F0F8E70B6BDA0576
:101D300007D40B6B2B4813F4803F2B4B08BF18467E
:101D4000EDE74A680B6BC2F38132022A4FEAD37384
:101D50000FD0032A14D0012A06D00BB94008DEE7C1
:101D60000320B4FBF0F0DAE70BB98008D7E70520D1
:101D7000F7E71BB90623B0FBF3F0D0E70720F0E745
:101D80000BB9C008CBE70920EBE70B6B13F0400F52
:101D900048F2120018BF4FF40040C0E70B6B9B07DE
:101DA000BDD00B6B03F00303012B0CD00B6B03F0C6
:101DB0000303022B09D00B6B074803F00303032B2B
:101DC00018BF0020ABE71046A9E74FF40040A6E794
:101DD000AE2400080010024000127A00006CDC0201
:101DE00000093D00003FAB01809FD50008B50C4BBA
:101DF00098420DD003F57443984210D140F20E3052
:101E0000FFF725FF40F20E30BDE80840FFF721BF85
:101E100040F21140FFF71BFF40F21140F4E708BD0C
:101E20000044004038B5134B984204460D4618D084
:101E300003F57443984216D10620FFF70DFF226880
:101E400012044FEA550310D503EB4003B3FBF5F141
:101E5000C1F3420321F00F010904090C0B43E360B5
:101E600038BD0220E9E70020E9E70344B3FBF5F3BE
:101E70009BB2F4E700440040036823F001030360D1
:101E8000036823F4C063036003680B430360704777
:101E9000036823F001030360036823F480530360A5
:101EA00003680B4303607047036823F0010303607A
:101EB000436823F44053436043680B4343607047D7
:101EC000036843F0010303607047036823F00803CD
:101ED000036003680B4303607047036823F0040347
:101EE000036003680B4303607047C1F3080181621C
:101EF0007047406AC0F308007047026A01F01F0192
:101F000001238B401343036270478A0910B501F027
:101F10001F01145801238B402343135010BD10B5EB
:101F20008C090122235801F01F018A4023EA020391
:101F3000235010BDC1F3891310B51C588B0D1A58CE
:101F4000C1F30440012303FA00F0104006D001F071
:101F50001F018B40234214BF0120002010BD000050
:101F6000084B994206D1D0F8D03023F40043C0F892
:101F7000D0307047026AC1F3044101238B40134300
:101F80000362704709340F34DFF830D0002103E0DA
:101F90000B4B5B58435004310A480B4B42189A4292
:101FA000F6D30A4A02E0002342F8043B084B9A4267
:101FB000F9D300F011F8FFF7DDFC70470C020020A8
:101FC000D8260008000000200C0000200C02002091
:101FD00068090020FEE700007E4BDA6902F0060285
:101FE000062A82B047D0DA69900444D57A4A7B4900
:101FF00059605A6099609A601A6942F020021A6129
:102000001A6942F040021A61DA68D107FCD41A69F1
:1020100022F020021A611A6942F010021A61DA698C
:1020200012F0060F6E4A40F0C780A5231380694B5B
:102030006B4AD969090A01F0DF015180D969C1F3FE
:1020400007419180D969090ED180196AC9B21181FD
:10205000196AC1F307215181DA68D207FCD41A69E1
:1020600022F010021A611A6922F400721A611A69C8
:1020700042F080021A615B4AD2F8883043F4700360
:10208000C2F88830584B1A6842F001021A601A6888
:102090009007FCD55A6842F080025A6000220192F3
:1020A000019A4F2A40F290805A6842F090025A609A
:1020B00000220192019A4F2A40F289805A6822F048
:1020C00003025A601A6822F0867222F480321A6083
:1020D0005968464A0A405A605A6822F0084222F477
:1020E00074125A60DA6A22F0404222F00F02DA6279
:1020F0001A6B22F4817222F001021A631A6B22F425
:1021000080321A631A6B22F000421A635A6B22F073
:1021100001025A63D3F8C02022F48032C3F8C020F1
:1021200000229A60C3F8CC201A6842F480321A6008
:102130004FF400621968890301D4013AFAD11A6890
:10214000900333D55A685A605A6842F400525A6074
:102150005A6842F480625A605A6822F0036222F49C
:1021600070225A60DA6A22F0404222F00F02DA62EC
:102170005A6842F0016242F480325A60DA6A42F0F0
:102180000102DA62DA6ADA621A6842F080721A6070
:102190001A689101FCD55A6822F003025A605A6805
:1021A00042F002025A605A681207FCD500214FF033
:1021B000006002B0FFF724BDDB6903F00603022BC9
:1021C0007FF435AFBB2331E7019A013267E7019A0B
:1021D00001326EE700200240AB89EFCD2301674555
:1021E00000F8FF1F00ED00E0001002400C00FF08A7
:1021F0002DE9F047089D0C46002B4ED194468C45A6
:102200008646B2FA82F262D94AB1C2F12003914005
:1022100020FA03F30CFA02FC194300FA02FE4FEA1B
:102220001C471FFA8CF6B1FBF7F44FEA1E4307FB7D
:10223000141143EA014304FB06F199420AD91CEB4D
:10224000030304F1FF3080F01381994240F21081C2
:10225000023C6344591A1FFA8EF3B1FBF7F007FBF7
:10226000101143EA014300FB06F69E420AD91CEB1B
:10227000030300F1FF3180F0FD809E4240F2FA80BE
:10228000634402389B1B40EA044000211DB1D34047
:102290000022C5E90032BDE8F0878B4205D90DB1B7
:1022A000C5E9000100210846F5E7B3FA83F10029EA
:1022B00046D1A34202D39042C0F0F180861A64EB6B
:1022C00003030120002DE6D0C5E90063E3E7002AFF
:1022D00040F09180A1EB0C044FEA1C481FFA8CF7E8
:1022E0000121B4FBF8F64FEA1E4308FB164443EA0B
:1022F000044307FB06F0984208D91CEB030306F1E0
:10230000FF3402D2984200F2CE8026461C1A1FFAF1
:102310008EF3B4FBF8F008FB104443EA044300FBDF
:1023200007F79F4208D91CEB030300F1FF3402D2E8
:102330009F4200F2B1802046DB1B40EA0640A5E741
:10234000C1F120068B4022FA06F71F4320FA06FC53
:1023500004FA01F343EA0C03F44000FA01F8380CE4
:102360004FEA1349B4FBF0FE1FFA87FC00FB1E4442
:1023700049EA04440EFB0CF9A14502FA01F20AD91C
:102380003C190EF1FF3A80F08580A14540F2828031
:10239000AEF1020E3C44A4EB09041FFA83F9B4FB2E
:1023A000F0F300FB134449EA044403FB0CFCA4458E
:1023B00007D93C1903F1FF3068D2A44566D9023B26
:1023C0003C4443EA0E40A0FB0293A4EB0C049C4265
:1023D000CE469C4652D34FD055B1B8EB0E0364EBBA
:1023E0000C0404FA06F6CB40CC401E43C5E9006459
:1023F0000021BDE8F087C2F1200320FA03F10CFAB6
:1024000002FC24FA03F394400C434FEA1C4800FA00
:1024100002FE1FFA8CF7B3FBF8F008FB1031230C17
:1024200043EA014300FB07F1994208D91CEB03037F
:1024300000F1FF362CD299422AD9023863445B1A44
:10244000A4B2B3FBF8F108FB113344EA034401FBE7
:1024500007F3A34208D91CEB040401F1FF3613D2A1
:10246000A34211D902396444E41A41EA004138E731
:102470000446EFE6084605E7C845ADD2B9EB020EC3
:1024800063EB070C0138A7E73146EDE7034698E711
:102490003046D4E7D6467EE7634402384CE706462A
:1024A000234608460EE7023E63442FE7FFFF000085
:1024B00000000000000001020304060708090000F4
:1024C00000000102030400C0C101C30302C2C6062A
:1024D00007C705C5C404CC0C0DCD0FCFCE0E0ACA5C
:1024E000CB0BC90908C8D81819D91BDBDA1A1EDEAC
:1024F000DF1FDD1D1CDC14D4D515D71716D6D2125C
:1025000013D311D1D010F03031F133F3F23236F66B
:10251000F737F53534F43CFCFD3DFF3F3EFEFA3A1B
:102520003BFB39F9F83828E8E929EB2B2AEAEE2EAB
:102530002FEF2DEDEC2CE42425E527E7E62622E21B
:10254000E323E12120E0A06061A163A3A26266A66B
:10255000A767A56564A46CACAD6DAF6F6EAEAA6ADB
:102560006BAB69A9A86878B8B979BB7B7ABABE7E2B
:102570007FBF7DBDBC7CB47475B577B7B67672B2DB
:10258000B373B17170B0509091519353529296566B
:102590005797559594549C5C5D9D5F9F9E5E5A9A9B
:1025A0009B5B99595898884849894B8B8A4A4E8E2B
:1025B0008F4F8D4D4C8C448485458747468682429B
:1025C00043834181804000C1814001C0804101C0FE
:1025D000804100C1814001C0804100C1814000C1F3
:1025E000814001C0804101C0804100C1814000C1E3
:1025F000814001C0804100C1814001C0804101C0D3
:10260000804100C1814001C0804100C1814000C1C2
:10261000814001C0804100C1814001C0804101C0B2
:10262000804100C1814000C1814001C0804101C0A2
:10263000804100C1814001C0804100C1814000C192
:10264000814001C0804101C0804100C1814000C182
:10265000814001C0804100C1814001C0804101C072
:10266000804100C1814000C1814001C0804101C062
:10267000804100C1814001C0804100C1814000C152
:10268000814001C0804100C1814001C0804101C042
:10269000804100C1814001C0804100C1814000C132
:1026A000814001C0804101C0804100C1814000C122
:1026B000814001C0804100C1814001C0804101C012
:0826C000804100C181400000CF
:0426C800F8B500BFA2
:0426CC00F8B500BF9E
:0826D00020FBFF7F0100000068
:0C26D80001FFFF00FFFFFFF220000001E7
:0400000508001F8947
:020000040800F2
:102800007402002069760008B5760008B5760008E5
:10281000B5760008B5760008B5760008000000001F
:10282000000000000000000000000000B576000875
:10283000B576000800000000B5760008A929000858
:1028400000000000B5760008B5760008B5760008EF
:10285000B5760008B5760008B5760008B5760008AC
:10286000B5760008B576000809670008B576000857
:10287000B5760008B5760008B5760008B57600088C
:10288000B5760008B576000800000000B5760008AF
:10289000B5760008B5760008B5760008B57600086C
:1028A000B5760008B5760008B5760008B57600085C
:1028B000D92B000800000000B576000800000000D9
:1028C000B576000800000000B5760008B57600086F
:1028D000B5760008000000000000000000000000C5
:1028E0000000000000000000B576000800000000B5
:1028F00000000000000000000000000000000000D8
:10290000B57600080000000000000000B576000861
:1029100000000000000000000000000000000000B7
:1029200000000000000000000000000000000000A7
:102930000000000000000000000000000000000097
:10294000000000000000000000000000B576000854
:1029500053B94AB9002908BF00281CBF4FF0FF3106
:102960004FF0FF3000F00CB8ADF1080C6DE904CE6B
:1029700004F0AEFFDDF804E0DDE9022304B07047A7
:10298000704700BF4FF0E023054A5A61054AF02125
:1029900082F8231000229A6107221A61704700BF53
:1029A0001E48010000ED00E0024A13680133136085
:1029B000704700BFBC0A0020F8B5144B6FF03A0214
:1029C000D3F8E017D3F8AC07D3F8B067D3F8B477EF
:1029D0004FF6FF73FFF7BCFF384614461D466FF0F5
:1029E0003A024FF6FF733146FFF7B2FF08486240E4
:1029F0006B400021013100F8012B06294FEA122219
:102A000042EA03624FEA1323F4D1F8BD00F0FF1F3E
:102A1000B50A002008B503494FF0006004F02AF918
:102A200062B608BD0028000808B540F2115004F055
:102A30002DF90823032200214FF0904004F06CF898
:102A40000823002202214FF0904004F043F8BDE833
:102A50000840082201214FF0904004F098B808B5D2
:102A600040F2115004F012F90423032200214FF028
:102A7000904004F051F80423002202214FF09040CE
:102A800004F028F8BDE80840042201214FF09040EE
:102A900004F07DB808B500221C20114604F0A8F807
:102AA000BDE8084040F2117004F0F0B810B540F2F3
:102AB000115004F0EBF81023032200214FF0904056
:102AC00004F02AF8BDE810401023002201214FF045
:102AD000904003F0FFBF10214FF0904004F055B834
:102AE000037810B55940044C044B5A5C4378615C40
:102AF00042704B40037010BD98860008988500080E
:102B000073B5124C2246552102F8011B1049086882
:102B10008988C4F8010091800122227262720D4AF4
:102B200000251288E571ADF80420264614F8011B33
:102B300001A80135FFF7D4FF0A2DF7D19DF8043025
:102B4000B3729DF80530F37202B070BD6E030020C1
:102B5000B50A00208C7B000837B50C4B0C4C1D7857
:102B60000C4B65701B88ADF804305F2101A8217003
:102B7000FFF7B6FF2946FFF7B3FF9DF80430A370B7
:102B80009DF80530E37003B030BD00BF6A0000203F
:102B90007E0300208C7B000837B50C4B0C4C1D7855
:102BA0000C4B65701B88ADF80430332101A82170EF
:102BB000FFF796FF2946FFF793FF9DF80430A370B7
:102BC0009DF80530E37003B030BD00BF6A000020FF
:102BD0007A0300208C7B0008F8B56549654804F04D
:102BE00019FD064640B1634840F2017104F0F5FC5E
:102BF0005F49604804F024FD5F495E4804F00AFD27
:102C0000074640B15B4840F2027104F0E6FC5A49C5
:102C1000584804F015FD5949564804F0FBFC054698
:102C200040B1544840F2037104F0D7FC5349514875
:102C300004F006FD52494F4804F0ECFC044640B154
:102C40004C484FF4E06104F0C8FC4D49494804F099
:102C5000F7FC4C49474804F0DDFCD0B1454840F250
:102C6000037104F0BAFC4749424804F0E9FC72B62B
:102C7000454A00231360454A1360454A4FF480716A
:102C80001180444A138062B6434A1370434A13705A
:102C900005E03E4335432C43E4B2002CE7D14049E4
:102CA000344804F0B7FC10B3394A1388DBB1374914
:102CB00030480C68013B1380631C5A42D2B2DBB22D
:102CC00058BF53420B6004F084FC364B23F81400C9
:102CD000324B01221A70344B1A68344B1A602D4A59
:102CE0001388013313802E49224804F0A9FC30498F
:102CF000204804F08FFCC0B12E4D2F4B2C881B8830
:102D0000A34226D94FF49672B4FBF2F302FB1343AD
:102D10009BB22A4A174832F81310013404F055FCCC
:102D20002C802349134804F08BFC2549114804F0FA
:102D300071FCE0B10F48062104F061FC10214FF056
:102D4000904003F022FFBDE8F8401D49094804F017
:102D500077BC0848072104F052FC0648062104F01D
:102D600044FC0E4A00231370164A1370D9E7F8BDCD
:102D700000020107004400400002020700020307AE
:102D80000800000705000307AC080020B008002079
:102D90006E000020A8080020840400209104002078
:102DA00005000507B4080020BC0A00208C040020A0
:102DB000070007074E0600204C06002050060020A2
:102DC000060006079004002010B5174C204604F0BA
:102DD0007DFB2046042104F0F0FB2046082104F08E
:102DE000E4FB2046052104F000FC20464FF400716E
:102DF00004F0FBFB2046082104F0F7FB20460B49BA
:102E000004F080FB2046002104F0B2FB20460021A4
:102E100004F0BAFB2046002104F09EFB2046BDE8EA
:102E2000104004F0BDBB00BF0044004040420F0012
:102E30002DE9F04F764B1A888FB0002A31D072B648
:102E40001A88013A1A8062B6724801684B1C5A42CD
:102E5000D2B2DBB258BF534203606F4A6F4B33F8B4
:102E600011401378002B58D1FF2C14D8AA2CE1B2B2
:102E70001AD1012111706A4A03201070694A6A4808
:102E800013706A4A13706A4B1970FF230370437002
:102E90002146FFF725FE72B6664A13880133138078
:102EA00062B60FB0BDE8F08FCC290FD102201070B0
:102EB0005B4A13705B4A5C4813705C4A13705C4B4E
:102EC00001221A70FF2303704370E2E7AF2901D19A
:102ED0000320ECE7A02901D10420E8E7552905D11A
:102EE000052010704E4A0B201070E3E7332904D1FF
:102EF000052010704A4A0320F6E75F2906D1052312
:102F00001370474B03221A700023D3E75029C2D114
:102F100006231370424B0222F5E7013B052BBAD87A
:102F2000DFE813F0F30D4C0EA60D0600720E7B0EBB
:102F30003B4D2978B9B9404BFF2C1E7809D93A4846
:102F4000FFF7CEFD16B13A4B00221A7001232B7009
:102F5000A1E7E4B234482146FFF7C2FDA642F5D00E
:102F6000FF2CF3D0EFE70139082994D801A353F8D7
:102F700021F000BF992F0008B12F0008972E0008FC
:102F8000972E0008972E0008972E0008DB2F0008C8
:102F9000AF4A000845300008B4F5807F274B22482F
:102FA00028BF0024E1B21970FFF79AFD0223CEE793
:102FB000FF2C1E4B08D900211B481970FFF790FD0C
:102FC000174B08221A7066E7E1B217481970FFF72D
:102FD00087FD002CF4D00723B9E712480378B4F535
:102FE000807F28BF0024FF22B3FBF2F21A44013392
:102FF000DDB2E1B202F0FF02114C05700A48A154A3
:10300000FFF76EFD094B1B78AB427FF444AFD7E767
:10301000A8080020AC08002084040020B408002088
:103020008304002082040020650000208104002029
:10303000640000206E0000206A0000206C03002065
:10304000820300206F4A70490023137009786F4A89
:103050005278002900F0D280B4F5807F28BF1C464A
:10306000944240F0CB806A4A6A4916786A4A0978E5
:10307000B2F900200491002E00F0BA808A4200F0DC
:10308000B780664F3C78002C40F0E880022E40F07C
:10309000AF80634B93F800A0BAF1FF0F00F0A5805A
:1030A000604A1388002B00F0A0805F49DFF8A891E8
:1030B000D1F800B0013B13800BF101035A4202F03A
:1030C0001F0203F01F0358BF53420B60574B584A6F
:1030D000B3F800801288ADF834204FF496750DA82F
:1030E0005021FFF7FDFCB8FBF5F205FB128292B20E
:1030F000502109F802105146FFF7F2FC08F10102D5
:1031000092B2B2FBF5F105FB112292B209F802A0CE
:10311000DFF840A19AF800100191FFF7E1FC08F1F7
:10312000020292B2B2FBF5FC05FB1C22019992B29D
:1031300009F8021001318AF800103146FFF7D0FC7F
:1031400008F1030292B2B2FBF5F105FB112292B233
:1031500009F802607E78374A731E5942594111704E
:103160002146FFF7BDFC08F1040292B2B2FBF5F173
:1031700005FB112292B2314609F80240FFF7B0FC7C
:1031800008F1050292B2B2FBF5F105FB112292B2F1
:10319000264B09F8026008F1060292B2B2FBF5F183
:1031A00005FB112292B29DF8341009F8021008F1C3
:1031B000070292B2B2FBF5F105FB112292B29DF823
:1031C000351009F8021008F108021A801A4B23F88A
:1031D0001B801A4B082203F80B20194B102203F80E
:1031E0000B20184A138801331380174B00221A70E2
:1031F000164B01221A70084B049A1A80144B0022B5
:10320000E0E600BF9104002064000020650000207B
:10321000810400206C03002068000020820300204D
:103220006A0000206C000020C805002092040020E5
:103230008C7B0008280000200C060020EC050020F4
:10324000CC050020C00500201900002087040020C4
:10325000840400206D03002094040020E32C00F27D
:103260004D81DF2C00F241810A2C00F0F786D02C32
:10327000BED1022EBCD1BB4B7F781E78DFF81CA3D9
:103280009FEDB97A002F40F09181B84BFF2E1F704F
:1032900000F06481B64A1388002B00F09380B54992
:1032A000DFF8FCB2D1F80090BBF80050DFF8E48200
:1032B000013B138009F101035A4202F01F0203F09F
:1032C0001F0358BF53420B60AB4B4FF496740DA8CD
:1032D0001B88ADF834305021FFF702FCB5FBF4F346
:1032E00004FB13539BB25022314608F80320FFF72A
:1032F000F7FB6B1C9BB2B3FBF4F204FB12339BB2E3
:1033000008F803609D4B19780191FFF7E9FBAA1CAF
:1033100092B2B2FBF4FC04FB1C220199974B92B2CF
:1033200008F80210013119700221FFF7D9FBEB1CDC
:103330009BB2B3FBF4F204FB12339BB20222394678
:1033400008F80320FFF7CCFB2B1D9BB2B3FBF4F274
:1033500004FB12339BB2394608F80370FFF7C0FB39
:103360006B1D9BB2B3FBF4F204FB12339BB208F863
:103370000370AB1D9BB2B3FBF4F204FB12339BB2A0
:103380009DF8342008F80320EB1D9BB2B3FBF4F248
:1033900004FB12339BB29DF8352008F8032005F199
:1033A0000803ABF80030764B23F81950754B082210
:1033B00003F80920744B102203F80920734A13887C
:1033C000013313806A4A724BCAF800301388002B0D
:1033D0003FF40BAF6749DFF8C891D1F80080B9F826
:1033E00000506C4F013B138008F101035A4202F078
:1033F0001F0203F01F0358BF53420B605E4B4FF494
:1034000096740DA81B88ADF834305021FFF768FB87
:10341000B5FBF4F304FB13539BB250223146FA542C
:10342000FFF75EFB6B1C9BB2B3FBF4F204FB1233A1
:103430009BB2FE54514E96F800A05146FFF750FB48
:10344000AB1C9BB2B3FBF4F204FB12339BB2022120
:1034500007F803A00AF1010A86F800A0FFF740FB75
:10346000EB1C9BB2B3FBF4F204FB12339BB20222BF
:10347000D021FA54FFF734FB2B1D9BB2B3FBF4F2BF
:1034800004FB12339BB2D0220121FA54FFF728FB30
:103490006B1D9BB2B3FBF4F204FB12339BB201220F
:1034A000FA54AB1D9BB2B3FBF4F204FB12339BB294
:1034B0009DF83420FA54EB1D9BB2B3FBF4F204FBED
:1034C00012339BB29DF83520FA5405F10803A9F890
:1034D00000302B4B23F818502A4B082203F8082001
:1034E000294B102203F808207BE6E13C022C00F275
:1034F0001181DFE814F0AF0368040F0504F10C0339
:10350000DBB2072B3FF674AEF43C072C3FF670AEEF
:1035100001A353F824F000BF393500083D470008E7
:10352000F1310008F1310008F1310008F1310008F3
:10353000F5410008274A0008174ADFF868A0DFF8BD
:10354000689000231372074A1678FF2E40F0028716
:10355000CAF80030012389F8003049E68AED007A84
:1035600043E600BF6A0000208180803B28000020E5
:103570006C000020C80500208C7B00086D03002033
:103580000C060020EC050020CC050020C005002022
:103590008180803B9404002034030020240000201C
:1035A00092040020880200201800002007EE907A84
:1035B000F8EE677AFF2E67EE877ACAED007A3FF45D
:1035C00014AE4B4A1388002B3FF40FAE4949DFF885
:1035D0003CA1D1F80090BAF80050DFF83481013BEB
:1035E000138009F101035A4202F01F0203F01F0386
:1035F00058BF53420B60404B4FF496740DA81B8884
:10360000ADF834305021FFF76BFAB5FBF4F304FB4F
:1036100013539BB25022314608F80320FFF760FA9B
:103620006B1C9BB2B3FBF4F204FB12339BB208F8A1
:103630000360324E96F800B05946FFF751FAAB1CC2
:103640009BB2B3FBF4F204FB12339BB2022108F8E5
:1036500003B00BF1010B86F800B0FFF741FAEB1C49
:103660009BB2B3FBF4F204FB12339BB20222D021D3
:1036700008F80320FFF734FA2B1D9BB2B3FBF4F2DA
:1036800004FB12339BB2D022394608F80320FFF71F
:1036900027FA6B1D9BB2B3FBF4F204FB12339BB20F
:1036A00008F80370AB1D9BB2B3FBF4F204FB1233BA
:1036B0009BB29DF8342008F80320EB1D9BB2B3FBAE
:1036C000F4F204FB12339BB29DF8352008F8032076
:1036D00005F10803AAF80030094B23F81950094BEB
:1036E000082203F80920084B102203F8092078E586
:1036F0006C000020C80500208C7B00086D030020B2
:103700000C060020EC050020CC05002092040020CF
:1037100094040020F51EEDB2032097F802B0B5FB2B
:10372000F0F303EB4303ED1AEDB2BBF1000F40F0F1
:103730004981052E7FF65CAD002D7FF459AD97F8D9
:1037400001A00AF1FF395FFA89F981453FF650ADD2
:103750008E492A4651F8043BFF2B03D8DBB29D4229
:1037600038BF1D460132042AF4D1894B93F800B0CA
:10377000BBF1FF0F00F00481864A1388002B00F094
:10378000FF808548DFF83482013B1380036805938E
:103790005A1C514201F01F0102F01F0258BF4A4259
:1037A00002607E4A16887E4A4FF496740DA81288ED
:1037B000ADF834205021FFF793F9B6FBF4F204FB87
:1037C000126292B2502108F802105946FFF788F9A8
:1037D000721C92B2B2FBF4F104FB112292B208F80F
:1037E00002B0DFF8DCB19BF800100191FFF778F927
:1037F000B21C92B2B2FBF4FC04FB1C2292B20199FF
:1038000008F802106A1C023505EB4505EDB20131DE
:10381000D3B28BF8001029460193FFF761F9F21C2F
:1038200092B2B2FBF4F104FB112292B2E02108F84B
:103830000250FFF755F9321D92B2B2FBF4F104FBCE
:10384000112292B2E02108F802105146FFF748F920
:10385000721D92B2B2FBF4F104FB112292B201216B
:1038600008F802A0FFF73CF9B21D92B2B2FBF4F1E6
:1038700004FB112297F804A0FD787F7992B2012110
:1038800008F802104FEA0A2242EA0542454942EA94
:10389000070309EB8902029301EB82030393059B63
:1038A0004FF0070B00220199914237DD0693DDE9C5
:1038B00002130DA843F8221029460592FFF710F9CC
:1038C0000BEB060189B2B1FBF4FC04FB1C1189B2BD
:1038D00008F801505146FFF703F90BF1010156FAC0
:1038E00081F189B2B1FBF4FC04FB1C1189B208F828
:1038F00001A03946FFF7F4F80BF1020156FA81F105
:1039000089B2B1FBF4F004FB101189B2DDE90523A3
:103910000BF1030B08F801705FFA8BFB0132052AEB
:10392000C1D10BEB06024FF4967192B2B2FBF1F0EB
:1039300001FB102292B29DF8340008F802000BF14E
:10394000010256FA82F292B2B2FBF1F001FB1022B0
:1039500092B29DF8351008F802100BF1020B0F4AD5
:1039600056FA8BF11180104A22F813600F4A02F8C0
:1039700003B00F4A1021D1540E4A1388013313802B
:103980000D4B002203F8092032E400BF04000020A0
:103990006A0000206C000020C8050020920400206E
:1039A0008C7B00088C0200200C060020EC05002017
:1039B000CC050020C00500201A000020940400203F
:1039C0006D030020052E7FF613AC002D7FF410ACA4
:1039D00097F8018008F1FF33DBB2032B03933FF626
:1039E00007AC0BF1FF33DBB2042B02933FF600ACC4
:1039F0008A4B93F80090B9F1FF0F00F0D18088490D
:103A00000A88002A00F0CC80029B864F013AC3F15D
:103A100005030A80DBB28449B41EE4B2B4FBF0F4BF
:103A20009C4228BF1C460B68019301335A4202F0A6
:103A30001F0203F01F0358BF53420B607B4B1E88CD
:103A40007B4B4FF4967A0DA81B88ADF8343050218B
:103A5000FFF746F8B6FBFAF30AFB13639BB250225A
:103A60004946FA54FFF73CF8731C9BB2B3FBFAF2D9
:103A70000AFB12339BB207F80390DFF8D49199F850
:103A800000100591FFF72CF8B31C9BB2B3FBFAF2C0
:103A90000AFB123305999BB2F954013189F80010E1
:103AA00004F1010909EB49095FFA89F94946FFF771
:103AB00017F8F31C9BB2B3FBFAF20AFB12339BB26A
:103AC000E02107F80390FFF70BF8331D9BB2B3FB1F
:103AD000FAF20AFB12339BB2E0224146FA54FEF797
:103AE000FFFF731D9BB2B3FBFAF20AFB12339BB2CA
:103AF000594607F80380FEF7F3FFB31D9BB2B3FBF3
:103B0000FAF20AFB12339BB2039A07F803B00523BB
:103B1000B4FBF3F303EB8303E41AE4B2631E0893EC
:103B2000F71D02EB8202434B0992BFB24FF4967924
:103B300007F10108B7FBF9F209FB127292B21FFA02
:103B400088F80792B8FBF9F209FB12881FFA88F28D
:103B50000692BA1C92B20592089A0337AA42BFB2E3
:103B600024DA304B07999DF834205A5406999DF871
:103B700035205A5404EB44042C4A019906F10903F8
:103B800023441380019A2C4B23F812602B4B0934E9
:103B90009C542B4B10225A542A4A13880133138009
:103BA000294B039900225A54FFF722BBD97893F886
:103BB00004B093F805A00B93029BDFF868800A918C
:103BC000EA180520099BB2FBF0F000EB8000121A06
:103BD0004FEA0B201A4440EA01401C4B40EA0A001D
:103BE00043F822000DA8FEF77BFF079B0A9908F80F
:103BF00003105946FEF774FF069B514608F803B0C0
:103C0000FEF76EFF059BB3FBF9F109FB113189B299
:103C10000B9B08F801A00135033387E76A000020F9
:103C20006C00002094040020C805002092040020AD
:103C30008C7B0008820300200C060020EC0500208D
:103C4000CC050020C00500201A0000208C020020B6
:103C50006D030020022E7FF4CBAAA14B93F800A0A5
:103C6000BAF1FF0F3FF4C4AA9E4A1388002B3FF419
:103C7000BFAA9D49DFF894B2D1F80090BBF800507C
:103C8000DFF88482013B138009F101035A4202F0FC
:103C90001F0203F01F0358BF53420B60934B4FF4B6
:103CA00096740DA81B88ADF834305021FEF718FF2C
:103CB000B5FBF4F304FB13539BB25022514608F8B2
:103CC0000320FEF70DFF6B1C9BB2B3FBF4F204FB69
:103CD00012339BB208F803A0DFF834A29AF8001060
:103CE0000191FEF7FDFEAB1C9BB2B3FBF4F204FBAB
:103CF000123301999BB208F8031001318AF80010C1
:103D00003146FEF7EDFEEB1C9BB2B3FBF4F204FB75
:103D100012339BB2E12108F80360FEF7E1FE2B1D90
:103D20009BB27E78B3FBF4F204FB12339BB2E12228
:103D3000314608F80320FEF7D3FE6B1D9BB2B3FBA0
:103D4000F4F204FB12339BB206F0010208F80360A0
:103D5000674B760803F8012B0122013206F00101BE
:103D6000052A03F8011B4FEA5606F6D1AB1D4FF4A6
:103D700096729BB2B3FBF2F102FB11339BB29DF83A
:103D8000341008F80310EB1D9BB2B3FBF2F102FBF9
:103D900011339BB29DF8352008F8032005F1080384
:103DA000ABF80030534B23F81950534B082203F85B
:103DB0000920524B102203F80920514A138801337D
:103DC0001380FFF715BA022E7FF412AA444B93F822
:103DD00000A0BAF1FF0F3FF40BAA424A1388002B50
:103DE0003FF406AA4049DFF824B1D1F80090BBF8AF
:103DF0000050DFF81481013B138009F101035A429E
:103E000002F01F0203F01F0358BF53420B60374BF1
:103E10004FF496740DA81B88ADF834305021FEF78E
:103E20005FFEB5FBF4F304FB13539BB250225146E3
:103E300008F80320FEF754FE6B1C9BB2B3FBF4F2B0
:103E400004FB12339BB208F803A0DFF8C4A09AF871
:103E500000100191FEF744FEAB1C9BB2B3FBF4F2E1
:103E600004FB123301999BB208F8031001318AF860
:103E700000103146FEF734FEEB1C9BB2B3FBF4F2AC
:103E800004FB12339BB2E22108F80360FEF728FE20
:103E90002B1D9BB27E78B3FBF4F204FB12339BB272
:103EA000E222314608F80320FEF71AFE6B1D9BB292
:103EB000B3FBF4F204FB12339BB206F0010208F8E4
:103EC0000360104B760803F8012B0122013206F043
:103ED0000101052A03F8011B4FEA5606F6D145E712
:103EE0006A0000206C000020C80500208C7B0008C0
:103EF0001E0000200C060020EC050020CC05002050
:103F0000C0050020DD02002094040020920400205F
:103F10006D030020022E7FF46BA997F8019009F140
:103F2000FF33DBB2032B3FF663A9A14A1360A14B19
:103F300093F800A0BAF1FF0F3FF45AA99E4A1388E4
:103F4000002B3FF455A99D49DFF8A0B2D1F80080BD
:103F5000BBF800509A4F013B138008F101035A420D
:103F600002F01F0203F01F0358BF53420B60954B32
:103F70004FF496740DA81B88ADF834305021FEF72D
:103F8000AFFDB5FBF4F304FB13539BB25022514633
:103F9000FA54FEF7A5FD6B1C9BB2B3FBF4F204FBD5
:103FA00012339BB207F803A0DFF844A29AF800107E
:103FB0000191FEF795FDAB1C9BB2B3FBF4F204FB41
:103FC000123301999BB2F95401318AF8001031463D
:103FD000FEF786FDEB1C9BB2B3FBF4F204FB12333D
:103FE0009BB2E321FE54FEF77BFD2B1D9BB2B3FB7E
:103FF000F4F204FB12339BB2E3224946FA54FEF773
:104000006FFD6B1D9BB2B3FBF4F204FB12339BB24A
:1040100007F80390AB1D9BB2B3FBF4F204FB123321
:104020009BB29DF83420FA54EB1D9BB2B3FBF4F223
:1040300004FB12339BB29DF83520FA5405F10803B6
:10404000ABF80030604B23F81850604B082203F89F
:1040500008205F4B102203F80820AEE6022E7FF402
:10406000C7A85C4A97F8019082F800905A4A5B48CA
:1040700013705B4B01221A705A4B1A685A4B20215D
:104080001A6002F080FD4B4B93F800A0BAF1FF0FCD
:104090003FF4AEA8484A1388002B3FF4A9A847492B
:1040A000DFF848810F68B8F80050454E013B138097
:1040B0007B1C5A4202F01F0203F01F0358BF5342F9
:1040C0000B60404B4FF496740DA81B88ADF834304C
:1040D0005021FEF705FDB5FBF4F304FB13539BB22F
:1040E00050225146F254FEF7FBFC6B1C9BB2B3FB13
:1040F000F4F204FB12339BB206F803A0DFF8F0A041
:104100009AF800B05946FEF7EBFCAB1C9BB2B3FB30
:10411000F4F204FB12339BB2022106F803B00BF158
:10412000010B8AF800B0FEF7DBFCEB1C9BB2B3FB83
:10413000F4F204FB12339BB202220A21F254FEF77E
:10414000CFFC2B1D9BB2B3FBF4F204FB12339BB2EA
:104150000A224946F254FEF7C3FC6B1D9BB2B3FB27
:10416000F4F204FB12339BB206F80390AB1D9BB232
:10417000B3FBF4F204FB12339BB29DF83420F254EB
:10418000EB1D9BB2B3FBF4F204FB12339BB29DF820
:104190003520F25405F10803A8F800300A4B23F843
:1041A00017500A4B0822DA55094B1022DA5504E65B
:1041B000840200206A0000206C000020C805002056
:1041C000940400208C7B00080C060020EC050020E5
:1041D000CC05002001000020000000200004004861
:1041E00079020020BC0A0020740200209204002002
:1041F0006D030020022E7EF4FBAF97F801804B4B3D
:10420000B8F1000818BF4FF0010883F80080484B50
:1042100000221A60474B01221A70474B93F800A006
:10422000BAF1FF0F3EF4E4AF444A1388002B3EF48A
:10423000DFAF4349DFF818B1D1F80090BBF8005068
:10424000404F013B138009F101035A4202F01F0263
:1042500003F01F0358BF53420B603B4B4FF496745F
:104260000DA81B88ADF834305021FEF739FCB5FBA2
:10427000F4F304FB13539BB250225146FA54FEF759
:104280002FFC6B1C9BB2B3FBF4F204FB12339BB20A
:1042900007F803A0DFF8B4A09AF800100191FEF728
:1042A0001FFCAB1C9BB2B3FBF4F204FB123301996D
:1042B0009BB2F95401318AF800103146FEF710FC28
:1042C000EB1C9BB2B3FBF4F204FB12339BB2FA215A
:1042D000FE54FEF705FC2B1D9BB2B3FBF4F204FB6E
:1042E00012339BB2FA224146FA54FEF7F9FB6B1DDA
:1042F0009BB2B3FBF4F204FB12339BB207F80380CA
:10430000AB1D9BB2B3FBF4F204FB12339BB29DF8DE
:104310003420FA54EB1D9BB2B3FBF4F204FB1233CE
:104320009BB29DF83520FA5438E500BF800200208A
:104330007C020020020000206A0000206C000020A7
:10434000C8050020940400208C7B00086D03002029
:1043500092040020CF4A1388002B00F08E80CE49B3
:10436000DFF860B3D1F80080BBF80050CB4F013BC1
:10437000138008F101035A4202F01F0203F01F03E9
:1043800058BF53420B60C64B4FF496740DA81B8860
:10439000ADF834305021FEF7A3FBB5FBF4F304FB7A
:1043A00013539BB250223146FA54FEF799FB6B1C13
:1043B0009BB2B3FBF4F204FB12339BB2FE54B94B35
:1043C00019780191FEF78CFBAA1C92B2B2FBF4FCA7
:1043D00004FB1C220199B34B92B2B95401311970FC
:1043E0000221FEF77DFBEB1C9BB2B3FBF4F204FB56
:1043F00012339BB202220A21FA54FEF771FB2B1DE5
:104400009BB2B3FBF4F204FB12339BB20A22FA54C0
:10441000A54B19780191FEF763FB6B1D9BB2B3FBB3
:10442000F4F204FB12339BB20199F954AB1D9BB219
:10443000B3FBF4F204FB12339BB29DF83420FA5420
:10444000EB1D9BB2B3FBF4F204FB12339BB29DF85D
:104450003520FA5405F10803ABF80030934B23F8EC
:104460001850934B082203F80820924B102203F8AF
:104470000820914A1388013313800025CAF80050A0
:10448000DFF810A2012389F80030BAF80030002BC1
:1044900000F0B1808049DFF82C92D1F800B0B9F873
:1044A0000040DFF8F881013BAAF800300BF101036E
:1044B000EA1A02F01F0203F01F0358BF53420B60B9
:1044C000774B4FF496770DA81B88ADF83430502108
:1044D000FEF706FBB4FBF7F307FB13439BB2502236
:1044E000314608F80320FEF7FBFA631C9BB2B3FBCE
:1044F000F7F207FB12339BB2B7EE007A08F80360BD
:10450000684B19780191FEF7EBFAA21C92B2B2FB4C
:10451000F7FC07FB1C220199624B92B208F80210CB
:10452000013119700221FEF7DBFAE31C9BB2B3FBE9
:10453000F7F207FB12339BB20222D02108F80320C6
:10454000FEF7CEFA231D9BB2B3FBF7F207FB123343
:104550009BB2D02208F80320584BD3ED007AF4EE3A
:10456000C77AF1EE10FA0ED89FED557A67EE877A8A
:10457000F5EEC07AF1EE10FAA2BFFCEEE77ACDEDCF
:10458000017A9DF8045029460DA8FEF7A9FA631D8B
:104590004FF496729BB2B3FBF2F102FB11339BB264
:1045A00008F80350A31D9BB2B3FBF2F102FB1133D9
:1045B0009BB29DF8341008F80310E31D9BB2B3FBC7
:1045C000F2F102FB11339BB29DF8352008F803206D
:1045D00004F10803A9F80030344B23F81B40344B96
:1045E000082203F80B20334B102203F80B20324A29
:1045F000138801331380BAF80030002B3EF4F8AD75
:104600002549DFF8C090D1F80080B9F80050234F59
:10461000013BAAF8003008F101035A4202F01F02E0
:1046200003F01F0358BF53420B601D4B4FF49674A9
:104630000DA81B88ADF834305021FEF751FAB5FBB8
:10464000F4F304FB13539BB250223146FA54FEF7A5
:1046500047FA6B1C9BB2B3FBF4F204FB12339BB220
:10466000FE54104E96F800A05146FEF739FAAB1CE6
:104670009BB2B3FBF4F204FB12339BB2022107F8A6
:1046800003A00AF1010A86F800A0FEF729FAEB1C44
:104690001AE000BF6C000020C80500209404002030
:1046A0008C7B00086D030020010000200C06002018
:1046B000EC050020CC050020C005002024000020CF
:1046C00000007F43920400209BB2B3FBF4F204FB92
:1046D00012339BB202220021FA54FEF701FA2B1D7D
:1046E0009BB2B3FBF4F204FB12339BB20022FA54E8
:1046F000D34B1E783146FEF7F3F96B1D9BB2B3FB2B
:10470000F4F204FB12339BB2FE54AB1D9BB2B3FB1D
:10471000F4F204FB12339BB29DF83420FA54EB1DE3
:104720009BB2B3FBF4F204FB12339BB29DF835202D
:10473000FA5405F10803A9F8003083E4C14B93F85B
:104740000090B9F1FF0F3EF453ADBF4A1388002B20
:104750003EF44EADBD49DFF810830F68B8F8005045
:10476000BB4E013B13807B1C5A4202F01F0203F038
:104770001F0358BF53420B60B64B4FF496740DA8FD
:104780001B88ADF834305021FEF7AAF9B5FBF4F3DD
:1047900004FB13539BB250224946F254FEF7A0F992
:1047A0006B1C9BB2B3FBF4F204FB12339BB206F812
:1047B0000390DFF8B89299F800A05146FEF790F9FF
:1047C000AB1C9BB2B3FBF4F204FB12339BB213217C
:1047D00006F803A00AF1010A89F800A0FEF780F9A3
:1047E000EB1C9BB2B3FBF4F204FB12339BB213221B
:1047F000F521F254FEF774F92B1D9BB2B3FBF4F2D2
:1048000004FB12339BB2F5220021F254FEF768F943
:104810006B1D9BB2B3FBF4F204FB12334FF00009A3
:104820009BB2494606F80390FEF75AF9AB1D9BB2BE
:10483000B3FBF4F204FB12339BB2442106F803905D
:10484000FEF74EF9EB1D9BB2B3FBF4F204FB1233FF
:104850009BB244220121F254FEF742F905F108030C
:104860009BB2B3FBF4F204FB12334FF001099BB28D
:10487000494606F80390FEF733F905F109039BB2A8
:10488000B3FBF4F204FB12339BB2022106F803904F
:10489000FEF726F905F10A039BB2B3FBF4F204FB21
:1048A00012339BB202226721F254FEF719F905F187
:1048B0000B039BB2B3FBF4F204FB12339BB26722EF
:1048C0006421F254FEF70CF905F10C039BB2B3FB23
:1048D000F4F204FB12339BB264223321F254FEF74C
:1048E000FFF805F10D039BB2B3FBF4F204FB1233A6
:1048F0009BB24FF03309322106F80390FEF7F0F82F
:1049000005F10E039BB2B3FBF4F204FB12339BB22E
:1049100032226621F254FEF7E3F805F10F039BB251
:10492000B3FBF4F204FB12339BB266224946F25405
:10493000FEF7D6F805F110039BB2B3FBF4F204FBCB
:1049400012339BB2494606F80390FEF7C9F805F109
:1049500011039BB2B3FBF4F204FB12339BB2302180
:1049600006F80390FEF7BCF805F112039BB2B3FB07
:10497000F4F204FB12339BB230226B21F254FEF7A7
:10498000AFF805F113039BB2B3FBF4F204FB12334F
:104990009BB26B223821F254FEF7A2F805F1140302
:1049A0009BB2B3FBF4F204FB12339BB238227521A5
:1049B000F254FEF795F805F115039BB2B3FBF4F240
:1049C00004FB12339BB275223621F254FEF788F8AD
:1049D00005F116039BB2B3FBF4F204FB12339BB256
:1049E0003622F25405F117039BB2B3FBF4F204FB39
:1049F00012339BB29DF83420F25405F118039BB298
:104A0000B3FBF4F204FB12339BB29DF83520F25451
:104A100005F11903A8F800300F4B192223F817509D
:104A20000E4BFFF7C0BBBFF34F8F0D490D4BCA684C
:104A300002F4E0621343CB60BFF34F8FFEE700BF89
:104A4000280000206A0000206C000020C80500201B
:104A5000940400208C7B00080C060020EC0500204C
:104A600000ED00E00400FA05920400206D03002030
:104A7000744B1978C9B9744BFF2C1D7805D973484C
:104A8000FEF72EF865B9FEF79BBAE4B26F482146EF
:104A9000FEF726F8A5423EF493AAFF2C3EF490AA16
:104AA0006B4B00221A70FEF78BBA08290ED1674BA8
:104AB000B4F5807F1B7828BF00249C421EBF644B46
:104AC00000221A705F4B0922FEF77CBA09297EF496
:104AD000E2A9604B5E4900221A7009785B4B5B7853
:104AE00000293EF48BABB4F5807F28BF14469C426E
:104AF0007EF484AB584B197800293EF47FAB5749BC
:104B0000012008701A70FEF779BB4E4E3378032BE4
:104B100023D1534F4D483D780622B5FBF2F302FBFB
:104B20001353DBB24F4AB4F5807FD35C28BF002417
:104B3000E1B28B4218BF464B05F1010518BF0022B8
:104B4000EDB218BF1A70FDF7CBFF062D3D707EF455
:104B5000A2A900233370FEF79EB95BB9B4F5807F3C
:104B6000414B3A4828BF0024E1B21970FDF7B8FF65
:104B70000823EFE7082B9AD0092B7EF48CA9354B3C
:104B8000334A00251D701278304B5B78002A3EF4C2
:104B900035ABB4F5807F28BF2C469C427EF42EAB0B
:104BA000314B1A78284B1A70FDF7D6FFFDF7F4FF4A
:104BB0002E4B1D702E4B1D70FEF720BB214B19781C
:104BC00000293FF458AF082907D1204BB4F5807F66
:104BD0001B7828BF0024A34270E709297EF45BA953
:104BE0001C4B00221A701A4A184B12785B78002A64
:104BF0003EF404ABB4F5807F28BF00249C427EF4D1
:104C0000FDAA114BFF227DE70E4A1378012B7EF699
:104C1000F5AA013B1370FEF73EB90A490B78012B48
:104C200003D9013B0B70FEF736B9FF2C98BF023455
:104C30004FF0050394BFE4B2022413700C70FEF72A
:104C40002AB900BF830400206A000020650000200C
:104C500064000020910400208504002086040020C8
:104C600082040020B50A00206C0300208704002085
:104C7000B40A0020714B2DE9F74F1B78704F3C7838
:104C8000002B40F0AD80002C40F0AA806D4B6E4DA3
:104C90001B786E4EFF2B00F0B9806D4B1A78E2B195
:104CA00010214FF090401C7001F06DFF694A6A4B73
:104CB00011781980517859809178D2789980DA806A
:104CC000664B674804221A80664B07211C8002F05D
:104CD0008CFC33682B6001233B70D6F800A02B6856
:104CE000AAEB0303012B58D95F490B88002B54D042
:104CF0005E4ADFF898B114681BF80490B9F1000F10
:104D00007FD05B4830F8140001905A4890F800803A
:104D1000B8F1000F14D04FF0000C013B01340B80B0
:104D200080F800C0BCEB040303F01F0304F01F0471
:104D300058BF5C421460504A1388013313802CE042
:104D40004E4B4FF090401B5D0093102101F01BFF74
:104D5000424BDFF804C1A3F80080009BDFF830E18C
:104D60005A1E4FF4967043469A423CDAB8F1000F4F
:104D700002D03A4B009A1A803A4B39480022072158
:104D80001A8009F1FF3902F030FC3D4A0BF804901B
:104D900001231370C5F800A03B7033682A689B1A82
:104DA000B3F57A7F1CD910214FF0904001F0EBFE53
:104DB000344A294B11781980517859809178D278EA
:104DC000DA809980254B04221A80264B2448002241
:104DD00007211A8002F009FC33682B6001233B7025
:104DE00003B0BDE8F08F01995918B1FBF0F800FB52
:104DF00018114FF001081EF801102CF813100133A0
:104E0000B2E7013B01340B8063428DE733682A68C7
:104E10009B1AB3F57A7FE3D910214FF0904001F04F
:104E2000B2FE194A0C49234612F8010B21F813006F
:104E300001330C2BF8D1094A1380C6E791040020F6
:104E4000900400206A00002088040020BC0A002092
:104E5000870400207E030020500600204C0600201E
:104E6000004400404E060020C0050020C40500207C
:104E70000C060020860400206C000020EC050020B9
:104E8000850400207A0300206E030020CC0500205A
:104E9000940400200D4B0E4A19681368CB1A012B9D
:104EA00010B511D972B60B48002303600A4803609D
:104EB0000A484FF4807404800948038062B60948A8
:104EC000116003700848037010BD00BFBC0A0020C9
:104ED0008C040020AC080020B00800206E000020E8
:104EE000A808002084040020910400204B4B1B786C
:104EF0002DE9F347002B00F08E80494B93F800908A
:104F0000B9F1FF0F00F08780464A1388002B00F0AC
:104F100082804549DFF830810F68B8F80050434E71
:104F2000013B13807B1C5A4202F01F0203F01F0357
:104F300058BF53420B603E4B4FF4967401A81B8838
:104F4000ADF804305021FDF7CBFDB5FBF4F304FBC5
:104F500013539BB250224946F254FDF7C1FD6B1C1E
:104F60009BB2B3FBF4F204FB12339BB206F803903E
:104F7000DFF8D89099F800A05146FDF7B1FDAB1CC1
:104F80009BB2B3FBF4F204FB12339BB2012106F88F
:104F900003A00AF1010A89F800A0FDF7A1FDEB1CAE
:104FA0009BB2B3FBF4F204FB12339BB20122F25426
:104FB000204B93F800904946FDF792FD2B1D9BB2C4
:104FC000B3FBF4F204FB12339BB206F803906B1DA3
:104FD0009BB2B3FBF4F204FB12339BB29DF80420A6
:104FE000F254AB1D9BB2B3FBF4F204FB12339BB241
:104FF0009DF80520F254EB1DA8F800300E4B23F865
:1050000017500E4B0722DA550D4B1022DA550D4A78
:1050100013880133138002B0BDE8F087B40A002082
:105020006A0000206C000020C805002094040020C5
:105030008C7B00086B0000200C060020EC05002093
:10504000CC050020C0050020920400206D03002044
:105050001FB50C4C40F2116001F018FE204601F023
:10506000FFFE0023642269462046CDE90033029208
:105070008DF80C3001F048FF204601F0D5FF04B058
:1050800010BD00BF0044014010B50D4C40F212505D
:1050900001F0FCFD20464FF480730322002101F053
:1050A0003BFD2046002202214FF4807301F012FDE7
:1050B00020464FF48072BDE81040022101F067BD28
:1050C0000004004830B54FF4A06085B001F0DEFD6B
:1050D0001B4B1C4A1A601C4B1C4C0FCB6D4685E8C1
:1050E0000F002A462046002101F0BCFF0022114695
:1050F000204602F0EBF820466022002102F0C0F8C2
:1051000008222046002102F0EFF82046012101F09C
:105110009FFF4FF48071204601F096FF204601F07A
:1051200083FF012211460A2001F062FD022001F0F6
:10513000BFFB0221084601F01DFC05B030BD00BFD9
:105140004400002034440140907B000800440140AA
:105150001FB540F2017001F099FD114801F080FE89
:10516000104B114A1B68B3FBF2F3013B0022B3F56D
:10517000803F28BF1346ADF8003069464FF6FE73F6
:105180000748ADF80220019202938DF80C2001F03F
:10519000BBFE034801F048FF05B05DF804FB00BF0B
:1051A000000400407000002000BD010513B540F26E
:1051B000115001F06BFD4023032200214FF090407D
:1051C00001F0AAFC0D4C4023002201214FF0904039
:1051D00001F080FC40214FF0904001F0D6FC4FF4EC
:1051E000803300216A462046CDE9003102F0C8F83C
:1051F000204601F019FF02B010BD00BF00040040BE
:10520000074B93ED007A074BD3ED007A064BB4EED3
:10521000E77AF1EE10FACCBF012200221A70704733
:1052200054030020500300204000002070B56E4859
:10523000022101F000FF002800F0BB806B4E6A489D
:105240003588002102F031F9402304460322002171
:105250004FF0904001F060FC4023002201214FF00C
:10526000904001F037FC40214FF0904001F08DFC60
:105270005D48022101F0E5FE72B6402300220221C2
:105280004FF0904001F026FC4023032200214FF014
:10529000904001F041FC402201214FF0904001F08C
:1052A00076FC4FF08043D3F82434B3F5803F28BF19
:1052B0000023338062B64E4B4E484F494F4A1B780D
:1052C000D0ED007A91ED006AD2ED004A002B71D04A
:1052D000B4F5803F28BF0024A4B2A54269D0F5EE02
:1052E000C07AF1EE10FA64DD641BA4B207EE104A36
:1052F000B8EE477A424BDFED435A93ED005A424DE8
:10530000424C77EE676A66EEA66A66EEA56ADFED46
:10531000405AE5EE256AC6EEA75AC3ED006AF2EEE2
:10532000006A3C4BF4EEE65AF1EE10FAC3ED005A77
:1053300004DDF4EEC77AF1EE10FA22D400232B70CC
:10534000F0EE006AF4EEE65AF1EE10FA324DDFEDBF
:10535000335A9FED335A1DD52B780133DBB2642BC2
:105360002B7019D10023237066EE056AE7EE256ADB
:10537000C1ED006A67EE857AE7EE257AC0ED007A26
:1053800017E02B780133DBB2642B2B7004BF0123B1
:105390002370D5E700232B702378002BE4D067EE31
:1053A000256A204BE4EE856A1B78C2ED006A002B6B
:1053B000E0D170BDB4F5803F28BF00249FED1A7A7C
:1053C000DFED1A6A641BA4B267EE877A07EE104A13
:1053D000B8EE477AE7EE267AC0ED007AC1ED007AA2
:1053E000C2ED007AE5E700BF000400405C03002046
:1053F0004A030020580300205403002050030020DB
:105400004C0300200AD7233C490300204B03002013
:10541000A4707D3F440300204803002017B7D13813
:1054200072F97F3F4000002077BE7F3F6F12833AC2
:10543000044B1A78044B197891421EBF1A7000224F
:105440001A7270474B030020340300202DE9F04FFF
:105450005B4BDFF89CA11B7885B000939AF808306D
:10546000002B40F0A580574F01233B707B709AF8CA
:105470000030BB70544B1E78FF2E00F096805349CD
:105480000B88002B00F09180514CDFF86881D4F834
:1054900000B0013B0B800BF10101484200F01F00FE
:1054A00001F01F0158BF41424A4B21604A491D8803
:1054B0000988ADF80C104FF4967403A85021FDF73D
:1054C0000FFBB5FBF4F104FB115189B24FF0500C06
:1054D00008F801C03146FDF703FB691C89B2B1FB36
:1054E000F4FC04FB1C1189B208F801603B4E96F8ED
:1054F00000904946FDF7F4FAA91C89B2B1FBF4FC0F
:1055000004FB1C1189B208F8019009F1010903217B
:1055100086F80090FDF7E4FAE91C89B2B1FBF4F0DB
:1055200004FB101189B20320B946EE1D2F1D08F8A7
:105530000100BFB2B6B219F8011B019103A8FDF733
:10554000CFFAB7FBF4F004FB1070013780B2BFB2A2
:10555000019908F80010BE42EDD1B6FBF4F104FB4E
:105560001166B6B29DF80C1008F8061005F1080196
:1055700089B2B1FBF4F004FB101189B29DF80D0063
:10558000144B08F8010005F109011980144921F8AC
:105590001B501449092001F80B001349102001F891
:1055A0000B0012490B8801330B8001238AF8083065
:1055B000009B034A0133137005B0BDE8F08F00BFB4
:1055C00040030020310300206A0000206C0000200E
:1055D000C8050020920400208C7B00086D03002089
:1055E0000C060020EC050020CC050020C0050020A2
:1055F0003403002094040020024A137883F001034E
:1056000013707047DC0200202DE9F04FDFF8708343
:10561000D04FD14CDFF84CA3DFF8689385B018F871
:10562000013B002B40F0B080A4F1180572B601F0E8
:10563000E1F9202001F0F4F9102001F0F1F9042043
:1056400001F0EEF9284601F00FFA202001F0E8F908
:10565000102001F0E5F9042001F0E2F901F0D8F999
:1056600062B672B601F0C6F9202001F0D9F9102017
:1056700001F0D6F9042001F0D3F90121284601F008
:105680000FFA202001F0CCF9102001F0C9F9042014
:1056900001F0C6F901F0BCF962B60121BAF8003098
:1056A000ADF80C3003A8FDF71BFAA4F11405BB46B6
:1056B0005BF8046B03A8C6F30741FDF711FAC6F3C4
:1056C0000721FDF70DFAF1B2FDF70AFA72B601F003
:1056D00091F9202001F0A4F9102001F0A1F9042093
:1056E00001F09EF93146284601F0DAF9202001F058
:1056F00097F9102001F094F9042001F091F901F0DC
:1057000087F962B60435A542D2D19DF80C5072B625
:1057100001F070F9202001F083F9102001F080F9E8
:10572000042001F07DF92946204601F0B9F9202036
:1057300001F076F9102001F073F9042001F070F9FE
:1057400001F066F962B69DF80D5072B601F052F99B
:10575000202001F065F9102001F062F9042001F029
:105760005FF92946201D01F09BF9202001F058F92E
:10577000102001F055F9042001F052F901F048F928
:1057800062B6012308F8013C04F580644C4507F13A
:1057900014077FF444AF714D2C78002C40F0D78073
:1057A00072B601F027F9202001F03AF9102001F03B
:1057B00037F9042001F034F9694801F055F9202047
:1057C00001F02EF9102001F02BF9042001F028F946
:1057D00001F01EF962B672B601F00CF9202001F05A
:1057E0001FF9102001F01CF9042001F019F9012122
:1057F0005B4801F055F9202001F012F9102001F06A
:105800000FF9042001F00CF901F002F962B6554BD2
:1058100001211B88ADF80C3003A8FDF761F9524B4C
:10582000D3ED007A514BB7EE007AF4EEC77AF1EE81
:1058300010FA1E780ED89FED4E7A67EE877AF5EE55
:10584000C07AF1EE10FAA2BFFCEEE77ACDED017A54
:105850009DF80440214603A8FDF742F93146FDF7C3
:105860003FF972B601F0C6F8202001F0D9F81020F7
:1058700001F0D6F8042001F0D3F82146384801F0B1
:105880000FF9202001F0CCF8102001F0C9F8042015
:1058900001F0C6F801F0BCF862B672B601F0AAF8E1
:1058A000202001F0BDF8102001F0BAF8042001F02A
:1058B000B7F831462F4801F0F3F8202001F0B0F896
:1058C000102001F0ADF8042001F0AAF801F0A0F8D2
:1058D00062B69DF80C4072B601F08CF8202001F001
:1058E0009FF8102001F09CF8042001F099F821465F
:1058F000214801F0D5F8202001F092F8102001F0A5
:105900008FF8042001F08CF801F082F862B69DF85F
:105910000D4072B601F06EF8202001F081F81020E1
:1059200001F07EF8042001F07BF82146134801F0D5
:10593000B7F8202001F074F8102001F071F804206D
:1059400001F06EF801F064F862B601232B7005B027
:10595000BDE8F08F8C02002018C00008190000205C
:1059600000D000088C7B00082400002028000020C4
:1059700000007F4308D000080CD0000810D00008B9
:105980001A00002018D000082DE9F04F874B1B7833
:1059900085B0002B00F00281854B1E68854B93F883
:1059A0000080B8F1FF0F00F0ED80834A1388002BD0
:1059B00000F0E8808149824FD1F800B0013B1380AC
:1059C0000BF101035A4202F01F0203F01F0358BFFC
:1059D00053420B607B4B1D887B4B4FF4967403A89E
:1059E0001B88ADF80C305021FDF77AF8B5FBF4F3C5
:1059F00004FB13539BB250224146FA54FDF770F852
:105A00006B1C9BB2B3FBF4F204FB12339BB207F89E
:105A10000380DFF8CC8198F800904946FDF760F8E4
:105A2000AB1C9BB2B3FBF4F204FB12339BB212210A
:105A300007F8039009F1010988F80090FDF750F884
:105A4000EB1C9BB2B3FBF4F204FB12339BB21222A9
:105A5000E021FA54FDF744F8711C2B1DB1F5807F4D
:105A60009BB228BF0021B3FBF4F204FB12339BB2BC
:105A70005FFA81F8E0224146FA54FDF731F86B1DD8
:105A80009BB2B3FBF4F204FB12339BB2012107F883
:105A90000380FDF725F8AB1D9BB2B3FBF4F204FBCA
:105AA00012339BB20122FA54484A142305F1070825
:105AB00005F1160903FB06221FFA88F81FFA89F977
:105AC00052F804AB019203A8CAF307410091FDF715
:105AD00007F8B8FBF4FC04FB1C8C1FFA8CFC009943
:105AE00007F80C10CAF307210091FCF7F9FF08F141
:105AF000010C1FFA8CFCBCFBF4FE04FB1ECC1FFA4D
:105B00008CFC009907F80C105FFA8AF10091FCF701
:105B1000E7FF08F102039BB208F10308B3FBF4F0BE
:105B200004FB10339BB21FFA88F80099F954C14561
:105B3000019AC5D1B9FBF4F304FB13991FFA89F953
:105B40009DF80C3007F8093005F117039BB2B3FB41
:105B5000F4F204FB12339BB29DF80D20FA54194B5A
:105B600005F118021A801A4B23F81B50194B182202
:105B700003F80B20184B102203F80B20174A138848
:105B800001331380022E0CDC0136734203F0030351
:105B900006F0030658BF5E42054B1E6005B0BDE827
:105BA000F08F024A00231370F8E700BF18000020AE
:105BB000880200206A0000206C000020C805002038
:105BC00094040020920400208C7B00088C020020AA
:105BD0000C060020EC050020CC050020C0050020AC
