:020000040800F2
:1000000000000320592000089D2000089D200008C2
:100010009D2000089D2000089D2000080000000091
:100020000000000000000000000000009D2000080B
:100030009D200008000000009D200008B90A00086B
:100040009D2000089D2000089D2000089D2000089C
:100050009D2000089D2000089D2000089D2000088C
:100060009D2000089D2000089D2000089D2000087C
:100070009D2000089D2000089D2000089D2000086C
:100080009D2000089D2000089D2000089D2000085C
:100090009D2000089D2000089D2000089D2000084C
:1000A0009D2000089D2000089D2000089D2000083C
:1000B0009D2000089D2000089D2000089D2000082C
:1000C0009D2000089D2000089D2000089D2000081C
:1000D0009D2000089D2000089D2000089D2000080C
:1000E0009D2000089D2000089D2000089D200008FC
:1000F0009D2000089D2000089D2000089D200008EC
:100100009D2000089D2000089D2000089D200008DB
:100110009D2000089D2000089D2000089D200008CB
:100120009D2000089D2000089D2000089D200008BB
:100130009D2000089D2000089D2000089D200008AB
:100140009D2000089D2000089D2000089D2000089B
:100150009D2000089D2000089D2000089D2000088B
:100160009D2000089D2000089D2000089D2000087B
:100170009D2000089D2000089D2000080000000030
:100180009D2000089D2000089D2000089D2000085B
:100190009D2000089D2000089D2000080000000010
:0C01A0009D2000089D2000089D20000804
:1001AC00034613F8012B002AFBD1181A01387047AB
:1001BC0053B94AB9002908BF00281CBF4FF0FF31C2
:1001CC004FF0FF3000F00CB8ADF1080C6DE904CE27
:1001DC0006F0C2FBDDF804E0DDE9022304B0704751
:1001EC00704700BF0348044B834202D0034B03B15A
:1001FC00184770470C0000200C0000200000000085
:10020C000548064B1B1AD90F01EBA301491002D06C
:10021C00034B03B1184770470C0000200C00002062
:10022C000000000010B5064C237843B9FFF7DAFF45
:10023C00044B13B10448AFF300800123237010BDAD
:10024C001000002000000000206C000808B5054BD1
:10025C001BB105490548AFF30080BDE80840FFF726
:10026C00CFBF00BF0000000014000020206C00086D
:10027C002DE9F04F14461289531EFE2B83B000F269
:10028C00AC807F4B7F4D5FFA82F9A3FB093809EBF9
:10029C00D81818F0FF080AD02F460026B1B2204615
:1002AC0002F060FE0136B04507F8010BF6D12B7851
:1002BC00F02B00F09980F52B00F0A680FB2B40F082
:1002CC008C80B9F1010F00F03183B9F1070F40F2C6
:1002DC008480B5F80130002B40F0EE80B9F1180F96
:1002EC007BD1694A01921146EA790B70B5F8051079
:1002FC00AB7AB1F5414F70D1012A6ED1012B6CD183
:10030C0095F80CB095F80DA095F80E9095F80F8017
:10031C002F7C6E7C95F812E095F813C0287D697DD2
:10032C00AA7DEB7DBBF1670F57D1BAF1640F54D1A5
:10033C00B9F1330F51D1B8F1320F4ED1662F4CD1E8
:10034C00342E4AD1BEF1350F47D1BCF1300F44D118
:10035C00762842D1672940D1742A3ED1362B3CD124
:10036C0072B601F015FB012001F024FC022001F013
:10037C0021FC102001F01EFC402001F01BFC802011
:10038C0001F018FC102001F01FFB012001F012FC01
:10039C00022001F00FFC102001F00CFC402001F0B9
:1003AC0009FC802001F006FC01F004FB62B6374A20
:1003BC00B5F8033036491768364A5BBA0B80364BB2
:1003CC0012883649022538461D8003F037F800287C
:1003DC0000F0B882019A01231370204602F0B6FC9B
:1003EC0040B203B0BDE8F08FB9F1070FF5D12B4A3D
:1003FC00D5F80110B5F8053011602648284A5BBACB
:10040C00012103801170E8E7204A224B156823492B
:10041C001A88284603F012F80028DED1214E224A11
:10042C00224B2348C6E9002303F17363214A03F5E9
:10043C0050533333C6E9022347F2674236233282E4
:10044C0006214122B37402F09BFB41220346132187
:10045C0030461E4602F094FB07460146304602F039
:10046C009DFC3146284602F09DFF284603F014F807
:10047C00304602F06BFC384602F068FCADE700BF7A
:10048C0081808080400100202C00002098020020F8
:10049C0030000020000000202E000020440200202C
:1004AC003200002040000020F50100C1010100676E
:1004BC009C02002064333266DFF87C835EBAB8F8A5
:1004CC000020B6B2B24288D1D04A01921146D5F87A
:1004DC0003204FF0000AB3F5807F81F800A017BA13
:1004EC0000F0C280082A00F00481C94B9A4200F047
:1004FC002881C84B9A4200F03881C74B9A4200F0D1
:10050C005C81B2F5847F00F04481B2F5027F00F08B
:10051C009581B2F5816F00F06481B2F5C16F00F086
:10052C00C98140F608039A4200F0B08140F60823D6
:10053C009A4200F04B8240F608439A4200F0328215
:10054C0040F608639A4200F0198242F208039A427C
:10055C0000F0008242F208439A4200F0D38142F646
:10056C0008039A4200F0BA8142F608439A4200F01E
:10057C007981A9F1070212F0FC0FC2F385093CD076
:10058C007F1BA64D4FF0000BAB7A6A7A95F807A04B
:10059C0042EA03222B7A43EA02234AEA032A72B67E
:1005AC0001F0F6F9012001F005FB022001F002FB3D
:1005BC00102001F0FFFA402001F0FCFA802001F03D
:1005CC00F9FA5146781901F07FFA012001F0F2FA9C
:1005DC00022001F0EFFA102001F0ECFA402001F0BB
:1005EC00E9FA802001F0E6FA01F0E4F962B60BF1C9
:1005FC00010BD94505F10405C6D1894B1B88B342C3
:10060C0075D0751CADB2874B87491F68874BA8F80E
:10061C0000501A88384602F011FF00287FF4DAAE39
:10062C00834E8448B570FB232D0A757041223370BC
:10063C00062102F0A5FA412205460321304602F0BC
:10064C009FFA06460146284602F0A8FB2946384682
:10065C0002F0A8FE384602F01FFF284602F076FB97
:10066C00304602F073FBB5E6A9F1070212F0FC0F5D
:10067C00C2F385083FF4B1AE7F1B684DAB7A6A7A42
:10068C00EE7942EA03222B7A43EA022346EA032656
:10069C0072B601F07DF9012001F08CFA022001F014
:1006AC0089FA102001F086FA402001F083FA8020AC
:1006BC0001F080FA3146781901F006FA012001F0B8
:1006CC0079FA022001F076FA102001F073FA40203A
:1006DC0001F070FA802001F06DFA01F06BF962B64E
:1006EC000AF1010AD04505F10405C7D175E60125CB
:1006FC0089E772B601F04CF9012001F05BFA022097
:10070C0001F058FA102001F055FA402001F052FA8D
:10071C00802001F04FFA504601F056F9012001F00B
:10072C0049FA022001F046FA102001F043FA402069
:10073C0001F040FA802001F03DFA01F03BF962B67D
:10074C0017E772B601F024F9012001F033FA022008
:10075C0001F030FA102001F02DFA402001F02AFAB5
:10076C00802001F027FA0820D6E772B601F010F9C4
:10077C00012001F01FFA022001F01CFA102001F0F8
:10078C0019FA402001F016FA802001F013FA10201B
:10079C00C2E772B601F0FCF8012001F00BFA02205E
:1007AC0001F008FA102001F005FA402001F002FADD
:1007BC00802001F0FFF92020AEE772B601F0E8F8D6
:1007CC00012001F0F7F9022001F0F4F9102001F0FA
:1007DC00F1F9402001F0EEF9802001F0EBF918203E
:1007EC009AE772B601F0D4F8012001F0E3F9022087
:1007FC0001F0E0F9102001F0DDF9402001F0DAF908
:10080C00802001F0D7F9302086E700BF2C000020B3
:10081C0008004000080080000800C00040010020D3
:10082C00300000209802002044020020000000202C
:10083C00400000209C0200202E00002072B601F027
:10084C00A7F8012001F0B6F9022001F0B3F910204D
:10085C0001F0B0F9402001F0ADF9802001F0AAF9C7
:10086C00282059E772B601F093F8012001F0A2F9A3
:10087C00022001F09FF9102001F09CF9402001F0BA
:10088C0099F9802001F096F9782045E772B601F0CD
:10089C007FF8012001F08EF9022001F08BF9102075
:1008AC0001F088F9402001F085F9802001F082F9EF
:1008BC00402031E772B601F06BF8012001F07AF9B3
:1008CC00022001F077F9102001F074F9402001F0BA
:1008DC0071F9802001F06EF938201DE772B601F035
:1008EC0057F8012001F066F9022001F063F910209D
:1008FC0001F060F9402001F05DF9802001F05AF917
:10090C00702009E772B601F043F8012001F052F9AA
:10091C00022001F04FF9102001F04CF9402001F0B9
:10092C0049F9802001F046F96820F5E6BFF34F8FB6
:10093C003049314BCA6802F4E0621343CB60BFF319
:10094C004F8FFEE72D4E2E48B570FB23412206211A
:10095C0033806EE672B601F01BF8012001F02AF923
:10096C00022001F027F9102001F024F9402001F0B9
:10097C0021F9802001F01EF96020CDE672B601F05D
:10098C0007F8012001F016F9022001F013F91020EC
:10099C0001F010F9402001F00DF9802001F00AF966
:1009AC005820B9E672B600F0F3FF012001F002F90D
:1009BC00022001F0FFF8102001F0FCF8402001F0BB
:1009CC00F9F8802001F0F6F85020A5E672B600F098
:1009DC00DFFF012001F0EEF8022001F0EBF810200F
:1009EC0001F0E8F8402001F0E5F8802001F0E2F891
:1009FC00482091E600ED00E00400FA0540000020DC
:100A0C009C020020144A154B154970B514681A88BD
:100A1C00204602F013FD00B170BD412206211148A1
:100A2C0002F0AEF84122054601210F4802F0A8F869
:100A3C0006460146284602F0B1F92946204602F046
:100A4C00B1FC204602F028FD284602F07FF9304622
:100A5C00BDE8704002F07AB9980200200000002036
:100A6C00440200209C0200203400002090F8393011
:100A7C00DB0700D4704710B502F036FD084B044676
:100A8C00186060B1074940F2E17202F05BFB30B9CB
:100A9C00024605492046BDE8104002F007BD10BDD6
:100AAC0098020020480200207D020008024A1368C8
:100ABC0001331360704700BFA402002010B584B04E
:100ACC0001F09AFC01F002FE19491A4A1A481B4C13
:100ADC0008601B4B4FF6FF7010600620B3F804C083
:100AEC0084F838001868174BC4F832000293164B80
:100AFC000193002300932046A4F836C0134B01F059
:100B0C0063FE134BE362204601F03AFF1149204685
:100B1C0001F064FF04F0EAFE204604F0F7FE2046E4
:100B2C0001F034FF204604B0BDE8104003F09CBD3A
:100B3C00500200204C020020A9FE2F5E540200201F
:100B4C009C02002025680008B5100008480200200F
:100B5C00506C0008790A00084FF0E022954996483D
:100B6C002DE9F8435061F020002481F82300934BC9
:100B7C00946107211161D3F8201AD3F8100AD3F825
:100B8C00148AD3F8189A8E4F8E4E8F4D6FF03A020E
:100B9C004FF6FF73FFF70CFB4846414691469846CB
:100BAC006FF03A024FF6FF73FFF702FB874988EAB2
:100BBC00030389EA02020B714FF440601B0A0A60BE
:100BCC004B7101F097F902231A462146384601F081
:100BDC00A9F8022319462246384600F0F1FF0222FA
:100BEC000B21384601F014F94FF4406001F082F902
:100BFC00214604230222384601F094F804232246AD
:100C0C000221384600F0DCFF04220B21384601F0AB
:100C1C00FFF840F6024001F06DF902231A46214616
:100C2C00304601F07FF8022319462246304600F088
:100C3C00C7FF02220B21304601F0EAF84FF4406066
:100C4C0001F058F9214680230222384601F06AF857
:100C5C00802322460221384600F0B2FF80220B216D
:100C6C00384601F0D5F840F6024001F043F9214630
:100C7C0010230222304601F055F81023224602219F
:100C8C00304600F09DFF10220B21304601F0C0F8D9
:100C9C0040F6024001F02EF9214620230222304674
:100CAC0001F040F8202322460221304600F088FF54
:100CBC0020220B21304601F0ABF840F6014001F048
:100CCC0019F9214628464FF40063022201F02AF854
:100CDC004FF4006322462846022100F071FF4FF4C6
:100CEC0000620B21284601F093F840F6014001F018
:100CFC0001F9214628464FF48053022201F012F8E4
:100D0C004FF4805322462846022100F059FF4FF43D
:100D1C0080520B21284601F07BF840F6014001F08F
:100D2C00E9F8214628464FF40053022200F0FAFF5E
:100D3C004FF4005322462846022100F041FF4FF4A5
:100D4C0000520B21284601F063F841F20E1001F01D
:100D5C00D1F84FF4000001F06DF940F6194001F0A4
:100D6C00C9F840F61A4001F0C5F840F61B4001F0F6
:100D7C00C1F800F0CFF900F0EDF9224621464FF40E
:100D8C00904000F0ABFB102000F062FD104D114CB8
:100D9C00FFF794FE10481149114A4FF0FF330360DE
:100DAC002B60104B2360FD20F22308701370BDE8FC
:100DBC00F88300BF00ED00E03E0D03000070FF1F44
:100DCC000000024000080240000402409C02002087
:100DDC00440200203C00002040020020380000208B
:100DEC0034000020F00001012DE9F04F85B0002403
:100DFC006A4F0194A246A146A04626462546684B5A
:100E0C00D3F800B0ABEB0502B2F57A7F80F091809D
:100E1C00ABEB0602632A7ED8ABEB08014EF65F22E1
:100E2C00914200F28280ABEB0902B2F5FA7F6ED2EE
:100E3C00019BABEB0302B2F5FA6F61D2ABEB0A018B
:100E4C0043F6972291420BD9564B1A68013206D0C1
:100E5C0072B6544B1A6882F308885A689047DA467F
:100E6C00ABEB040140F6B732914203D94E4B1A78E2
:100E7C0092B95C4600F068FD012802D94B4800F09D
:100E8C00D3F83B78002BBAD0484803F0DDFD00289E
:100E9C005AD100233B70B2E7454B46491C68464B80
:100EAC001A88464B20461B88029302F0C7FA00288A
:100EBC00DFD1434A029B937011461B0A5370FB22ED
:100ECC000A7040484122062101F05AFE412202904C
:100EDC0003213B4801F054FE01460390029801F0B7
:100EEC005DFF0299204602F05DFA204602F0D4FA2A
:100EFC00029801F02BFF039A104601F027FFB8E788
:100F0C002A4803F0A1FDC0B9CDF804B096E703F070
:100F1C003BFDD9468CE704F0C7FDABEB08014EF660
:100F2C005F2291425E467FF67EAF03F023FCD846EB
:100F3C0079E704F025F85D466AE7234B1A78002A16
:100F4C00E2D0FFF75FFDDFE7194B1A49D3F800B089
:100F5C00194B58461A8802F071FA002899D141228F
:100F6C000621184801F00CFE41220290042117487A
:100F7C0001F006FE01460390029801F00FFF029962
:100F8C00584602F00FFA584602F086FA029801F021
:100F9C00DDFE039B184601F0D9FE7AE732000020F3
:100FAC00A4020020008000082C0000205402002025
:100FBC009802002044020020000000202E00002097
:100FCC00400000209C020020020000203C00002079
:100FDC0008B5FFF7C1FDFFF707FF00BF114B1868FD
:100FEC000368002B00DAFEE770B50C46012100F017
:100FFC0037FC064684B1002562896168701905F0DA
:10100C009DFC638924681D44002CF5D129460020E1
:10101C0000F060F9002070BD2146002000F05AF964
:10102C00002070BDF00200202DE9F0411D4D022181
:10103C008046286800F014FC05210446286800F05E
:10104C000FFC4FF4C1720646A1B2002001F00CFD5A
:10105C000746F8B10446002562896068711905F0ED
:10106C006DFC638924681D44002CF5D12146204673
:10107C0000F0E0F8D8F8103041463846984704465E
:10108C0010B92046BDE8F081384601F05FFE2046DD
:10109C00BDE8F08101464FF0FF3400F0CBF820465C
:1010AC00BDE8F081EC02002038B50446154B164A19
:1010BC00E36216496161062344F2474004F13201B0
:1010CC006087A26184F83830002000F075F940F296
:1010DC00DC522E23228684F839304FF4E00000F0E5
:1010EC004FF84FF460200A4C00F04AF804F1500518
:1010FC002046103400F0DEFBAC42F9D100F036F99A
:10110C00002038BD586C0008E90F0008A9530008EE
:10111C00CC3E002008B540F2194000F0F9FE40F238
:10112C00194000F003FF0A4B002200200021C3E904
:10113C000C01C3E90022C3E90222C3E90422C3E97A
:10114C000622C3E90822C3E90A229A6308BD00BF3C
:10115C00A80200200849094B0A6842F001020A6003
:10116C0001E0013B02D00A68D207FAD4024B18689E
:10117C00C04300F00100704700900240FFFF0400E4
:10118C00B0F5E00F70B437D0214C2249224B234AE2
:10119C00CC604FF000401C6044F2F4512346204DCB
:1011AC00DC6400242C601F4D18602C6002F58E55F9
:1011BC0002F5BE541C35103403F110069D635960C2
:1011CC0003F140059A6018615961186259621863FD
:1011DC005963186459649C6403F1200002F2F454BE
:1011EC0003F1300102F6E832C3E90640DE60DD634C
:1011FC00C3E90A2170BC70470B4C064A0B4B1461B7
:10120C004FF480101C600A4A00212346C7E700BF38
:10121C00CC3E002000900240EC020020B8200020C0
:10122C00E4020020E80200207C3E0020F0020020B6
:10123C00F402002070B4244C23681A68002A05DBE1
:10124C0028B302F40345B5F5407F02D0002070BCF2
:10125C0070471E4D2E68B601C2F30D4501D596069A
:10126C0000D4043D8D42F1D88DB19B68012D1B78C3
:10127C0003700BD0411E2944024623689B6801333E
:10128C001B1A9B5C02F8013F8A42F6D12368104A74
:10129C004FF0004119605169080603D580200021E8
:1012AC00506191605A68510403D5DB6823600120BA
:1012BC00CDE7120401D5064BF7E7054A1268C2F3D5
:1012CC00840210321344F1E7EC020020008002404B
:1012DC000090024030B5234C23681A68002A33DB97
:1012EC0040F2F455A9422FD8B8B1B1B19B6802783D
:1012FC001A7001290FD000EB010E0EF1FF3E0246D1
:10130C0023689B6801331B1A134412F801CF83F82E
:10131C0000C07245F4D123681A68134D42F0304274
:10132C00C3E900216969686901F0040100F020003B
:10133C00014303D0002269616A601A68D10205D5A5
:10134C00DB682360012030BD002030BD920202D545
:10135C00054B1B69F5E7044A1268C2F3840210328C
:10136C001344EEE7F0020020009002400F481049B1
:10137C000268104B42F0080202608A6942F4801243
:10138C008A6101E0013B02D08A69D202FAD4084B8F
:10139C0006499A6942F400529A610A6842F00402C2
:1013AC000A609A6942F002029A617047008002401A
:1013BC0000900240FFFF0400034B8A88C2500433A4
:1013CC000A68C250704700BF4080024010B5374BCE
:1013DC0082B001201C6900F0B7FD354B354A03443F
:1013EC00934224F01C043FD244F008042F49324BA2
:1013FC000C610A6922F47F4222F0C3024FF40040D0
:10140C0042F0030248610A6101E0013B02D00A6923
:10141C00D407FAD4254B1B6913F001032DD1264AAE
:10142C0001930192019B2BB1019B013B0193019B09
:10143C00002BF9D11D49204B0A6922F47F4222F07E
:10144C00C30242F001020A6101E0013B02D00A69C9
:10145C00D007FAD4154B1A69D2070DD45869C0437A
:10146C00C0F3C03002B010BD144B154A0344934274
:10147C0006D844F00C04B9E75B69002002B010BD3B
:10148C00104B114A03449342B0D3104B104A0344FF
:10149C00934202D844F00404A8E70E4B0E4A0344CE
:1014AC009342EAD844F01004A0E700BF0080024049
:1014BC0000D3CEFEC0E1E400FFFF040040F1E9FDE3
:1014CC003F787D0100796CFC005A6202001F0AFA19
:1014DC007FF0FA02802E0FF7804A5D05F0B583B0DD
:1014EC0006460D461446FFF771FF78B9934B0090F2
:1014FC000093009B2BB1009B013B0093009B002BA6
:10150C00F9D1FFF763FF002800F048818C4A8D4B1E
:10151C0011680B401360002353609360D360916992
:10152C004FF64170014041F0800187489161D361D1
:10153C0087698649394041F00871816101688449A5
:10154C000160012E00F02D811369F10823F47F4313
:10155C00700823F0C30301F4807100F4005043F0D1
:10156C0003030143516113617A4B01E0013B02D04B
:10157C001169CF07FAD4724B1B6913F0010340F0C9
:10158C000D816FF07F4201930192019B2BB1019B66
:10159C00013B0193019B002BF9D1694A136823F499
:1015AC00B0431E4316606E050BD51368664943F4B1
:1015BC00806313608A6905F0806322F080621343B4
:1015CC008B615F49644A4B681C434C601368D807B5
:1015DC0013D50C685368614824F0007424F080041F
:1015EC0018402043584C0860A1699B0821F0C001A9
:1015FC0003F0C0030B43A36113689F0709D552493D
:10160C0090680B6823F0E06323F4803303430B6092
:10161C0013685E0709D54C49D0680B6823F47E0328
:10162C0023F47C5303430B6013681D0709D546490B
:10163C0010690B6823F4404323F0020303430B604F
:10164C001368DC0607D54049454B8C69506923402B
:10165C0003438B611368980612D53B4C9369A069C0
:10166C00404920F08070194020F004000143A16132
:10167C00216803F0800321F080010B432360136881
:10168C00590607D52E49D069CB695B0C5B04034323
:10169C00CB6113681F0617D5294C136AA0694FF646
:1016AC004171084023F47F4121F041010143264858
:1016BC00A161D0F880101B0A21F0770103F07703A9
:1016CC000B43C0F880301368DE0503D51C4B516A00
:1016DC00996013689D0503D5194B916AD9601368FD
:1016EC005C0509D51649D06A4B6823F4FB6323F0DB
:1016FC00060303434B601368180509D51049106B9A
:10170C000B6823F4913323F0700303430B601368CD
:10171C00D90407D50A49506B0B6823F440030343E3
:10172C000B6013689B0406D50549926B0B6823F478
:10173C00602313430B60012003B0F0BDFFFF8F004B
:10174C00008002400F8130FD00900240233FDEF804
:10175C000060C102FFFF0400A8020020800000020C
:10176C00E73FDEFD04000001364B9C4516D01169A5
:10177C0021F47F4121F0C30141F003014FF480506B
:10178C0050611161304901E0013B02D00A69D00778
:10179C00FAD42D4F396911F001011AD0002003B091
:1017AC00F0BD2A4E274F9C461169264B314041F023
:1017BC004101116101E0013B02D01069C107FAD46B
:1017CC00136953695B070CF1010CCDD4BC45EBD10B
:1017DC00E4E71E4EDFF86CE03A691A4B324042F0F7
:1017EC0041023A6101E0013B02D03869C207FAD4E8
:1017FC003B697B69980601F1010102D47145EBD17B
:10180C00CCE7104B9942C9D03A690F4922F47F4278
:10181C0022F0C30242F4F06242F001023A6101E0AC
:10182C00013B02D00A69D207FAD4074B1A695B69EB
:10183C00C3F38006DB074FEAC6263FF5AEAE46F48F
:10184C008046AAE6FFFF0400008002403C00FFFF38
:10185C00024A536803435360704700BF0080024044
:10186C00052921D8DFE801F0050309161A03806861
:10187C0070470068C0F3C30070470368C3F30D40A2
:10188C0004280FD90A4A1268920101D59B060AD482
:10189C00043870474068C0F30C007047C088C0F330
:1018AC000C007047002070474FF0FF30704700BFAE
:1018BC0000800240436823F000434360704700BF40
:1018CC001E4A136859684FF0004010B41860480461
:1018DC000BD51B48016800292AD00B68CC68146012
:1018EC000BB303605DF8044B704709040BD5144B24
:1018FC0014481968C06810600029F3D00A685DF8B4
:10190C00044B1A6070470F490D4C0968206810335E
:10191C00C1F384010B4413600028E3D01030206025
:10192C005DF8044B704710315DF8044B0160704753
:10193C00DB685DF8044B1360704700BFEC020020BD
:10194C00E40200200090024008B50F4B1B681B6896
:10195C00002B14DB03F40342B2F5407F0BD103F0F0
:10196C002102212A07D0094A12689201C3F30D40C3
:10197C0007D4043808BDFFF7A3FF012008BD0020E1
:10198C0008BD9B06F5D508BDEC0200200080024086
:10199C00054BD3F8102C002A05DA0449044AC3F885
:1019AC00041CC3F8042C7047003002402301674527
:1019BC00AB89EFCD034AD2F8103C43F00043C2F898
:1019CC00103C7047003002403E496FF03043D1F874
:1019DC000C2C12F4803F4BD112F4807F4CD112F0BE
:1019EC00800F4ED112F0400F50D112F0100F58D181
:1019FC0092075DD4012B3DD0D1F8103C23F0F803B5
:101A0C0010B4C1F8103CD1F8103C2E4C034343F0F9
:101A1C000203C1F8103CD1F8103C43F480336FF052
:101A2C003042C1F8103CD4F80C0CC10333D4C305BC
:101A3C0002F1FF3233D4040638D441063DD4C30638
:101A4C003DD410F0020018BF0620002A08BF072062
:101A5C001C4B5DF8044BD3F8102C22F00202C3F897
:101A6C00102CD3F8102C22F0F802C3F8102C70476D
:101A7C00013BACD107207047012B14BF022007207B
:101A8C007047012B14BF032007207047012B14BF94
:101A9C00042007207047013AC5D10720D8E702205F
:101AAC00D3E7012B14BF0520072070470320CCE798
:101ABC00012B14BF0620072070470420C5E7052022
:101ACC00C3E700BF0030024030B4394C6FF03043F4
:101ADC00D4F80C2CD5033FD4D50542D4150646D4E6
:101AEC00550649D4D50652D4920757D4012B35D07C
:101AFC00D4F8103C2E4D23F44073C4F8103CD4F8A9
:101B0C00103C43F40073C4F8103CD4F8103C43F080
:101B1C000103C4F8103C6FF030420160D5F80C0C96
:101B2C00C3032ED4C50502F1FF322ED4040633D4E0
:101B3C00410638D4C30638D410F0020018BF062072
:101B4C00002A08BF07201A4AD2F8103C23F00103E0
:101B5C0030BCC2F8103C7047013BB9D1072030BCF7
:101B6C007047012B14BF0220072030BC7047012B9B
:101B7C0014BF03200720F2E7012B14BF0420072019
:101B8C00EDE7013ACAD10720DDE70220D8E7012BA7
:101B9C0014BF05200720E2E70320D1E7012B14BF77
:101BAC0006200720DBE70420CAE70520C8E700BFB2
:101BBC0000300240014BC3F80C0C7047003002405F
:101BCC0013F0010F30B40568C46806D025F0030C7F
:101BDC0024F003044CEA0105144313F0020F07D060
:101BEC0025F00C0C24F00C044CEA810544EA820428
:101BFC0013F0040F07D025F0300C24F030044CEA1D
:101C0C00011544EA021413F0080F07D025F0C00C9C
:101C1C0024F0C0044CEA811544EA821413F0100F2E
:101C2C0007D025F4407C24F440744CEA012544EAA6
:101C3C00022413F0200F07D025F4406C24F44064E8
:101C4C004CEA812544EA822413F0400F07D025F496
:101C5C00405C24F440544CEA013544EA023413F05D
:101C6C00800F07D025F4404C24F440444CEA8135D5
:101C7C0044EA823413F4807F07D025F4403C24F4EA
:101C8C0040344CEA014544EA024413F4007F07D087
:101C9C0025F4402C24F440244CEA814544EA824447
:101CAC0013F4806F07D025F4401C24F440144CEA44
:101CBC00015544EA025413F4006F07D025F4400C8C
:101CCC0024F440044CEA815544EA825413F4805FB6
:101CDC0007D025F0407C24F040744CEA016544EABE
:101CEC00026413F4005F07D025F0406C24F04064CC
:101CFC004CEA816544EA826413F4804F07D025F0E6
:101D0C00405C24F040544CEA017544EA02741B0414
:101D1C0044BF61F39F7562F39F740560C46030BC6F
:101D2C00704700BF012941680CBF194399434160BA
:101D3C00816813F0010F1CBF21F00301114313F054
:101D4C00020F1CBF21F00C0141EA820113F0040FB9
:101D5C001CBF21F0300141EA021113F0080F1CBF27
:101D6C0021F0C00141EA821113F0100F1CBF21F4C5
:101D7C00407141EA022113F0200F1CBF21F4406195
:101D8C0041EA822113F0400F1CBF21F4405141EA7B
:101D9C00023113F0800F1CBF21F4404141EA823123
:101DAC0013F4807F1CBF21F4403141EA024113F44B
:101DBC00007F1CBF21F4402141EA824113F4806F63
:101DCC001CBF21F4401141EA025113F4006F1CBFF7
:101DDC0021F4400141EA825113F4805F1CBF21F0D1
:101DEC00407141EA026113F4005F1CBF21F04061B5
:101DFC0041EA826113F4804F1CBF21F0405141EA4B
:101E0C0002711B0448BF62F39F718160704700BF71
:101E1C0010B4046A436A12F0010F1CBF24F00F04C3
:101E2C000C4312F0020F1CBF24F0F00444EA01141E
:101E3C0012F0040F1CBF24F4706444EA012412F065
:101E4C00080F1CBF24F4704444EA013412F0100F44
:101E5C001CBF24F4702444EA014412F0200F1CBF70
:101E6C0024F4700444EA015412F0400F1CBF24F017
:101E7C00706444EA016412F0800F18BF61F31F74A0
:101E8C0012F4807F1CBF23F00F030B4312F4007F6E
:101E9C001CBF23F0F00343EA011312F4806F1CBF44
:101EAC0023F4706343EA012312F4006F1CBF23F484
:101EBC00704343EA013312F4805F1CBF23F4702398
:101ECC0043EA014312F4005F1CBF23F4700343EA9E
:101EDC00015312F4804F1CBF23F0706343EA01637B
:101EEC00120448BF61F31F7304625DF8044B436234
:101EFC00704700BF830903F1804303F50E3300F0F4
:101F0C001F001968012282400A431A60704700BF03
:101F1C00830903F1804303F50E3300F01F001968A9
:101F2C00012282400A431A60704700BF830903F103
:101F3C00804303F50E3300F01F001A680121814025
:101F4C0022EA01021A60704710B5364C844694E8B8
:101F5C000F0088B00DF1200E10340EE90F0094E83C
:101F6C0003006B4683E8030002AB83E803002E4AB0
:101F7C00D2F80838C3F38103012B4ED0022B43D186
:101F8C00D2F80408D2F80418D2F80438D2F804288D
:101F9C00264CC3F3014312F4800F03F10103C1F388
:101FAC0088124FEA430300F03F01214818BF204636
:101FBC00B0FBF1F002FB00F0B0FBF3F01A4BD3F8DE
:101FCC000818D3F80828D3F80838C1F303112031C6
:101FDC006944C2F38222C3F342332032203311F816
:101FEC00101C6A446B4412F8202C13F8183C20FA8D
:101FFC0001F1BCF1030F12D8DFE80CF0040C02085D
:10200C0021FA02F008B010BD0948D7E721FA03F015
:10201C0008B010BD084608B010BD0448CEE700203B
:10202C00F0E700BF386C00080030024040787D01BA
:10203C000024F400044AD2F8043823F400030343C8
:10204C00C2F80438704700BF00300140002103E0A3
:10205C000A4B5B584350043109480A4B42189A42C8
:10206C00F6D3094A02E0002313600432074B9A426C
:10207C00F9D300F00FF8FEF7ABFF7047746D000852
:10208C00000000200C00002010000020A0210120E6
:10209C00FEE700005B495C4AD1F8883010B443F489
:1020AC007003C1F88830D2F8003843F0010383B0D4
:1020BC00C2F80038D2F800389907FBD5D2F80838A6
:1020CC00002143F08003C2F808380191019B4F2B8B
:1020DC0005D8019B01330193019B4F2BF9D94A4A37
:1020EC00D2F80838002143F09003C2F80838019167
:1020FC00019B4F2B05D8019B01330193019B4F2B67
:10210C00F9D94149414CD1F8083823F00303C1F8FF
:10211C000838D1F8002822F0847222F48032C1F8F9
:10212C000028D1F80028002022F48022C1F80028D1
:10213C00C1F80808D1F80828C1F80448C1F80C08FF
:10214C00D1F8002842F480324FF6FF73C1F8002812
:10215C0001E0013B03D0D1F800289203F9D52A4BBA
:10216C00D3F8002894034CD5D3F8402828492948A3
:10217C0042F08052C3F840280A6842F440420A6098
:10218C00D3F80828C3F80828D3F8082842F40042EA
:10219C00C3F80828D3F8082842F4A052C3F808283A
:1021AC00C3F80408D3F8002842F08072C3F8002862
:1021BC00D3F800289001FBD5154A136843F48033FB
:1021CC0013605368D903FCD51368114943F40033E9
:1021DC0013604B689A03FCD50B4AD2F8083823F0ED
:1021EC000303C2F80838D2F8083843F00203C2F8E7
:1021FC000838D2F808381B07FBD503B05DF8044B40
:10220C007047FEE700ED00E0003002401030002483
:10221C00007000401964400940BA80B2704700BF9A
:10222C0000BA704730B510F001044FF0000C06D026
:10223C00614529DD10F8013B013963F31F2C01299D
:10224C002ADD02394D0805F1010E00EB4E0E00237C
:10225C0030F8022B70451344FAD1C5EBC57501EB70
:10226C004501012905BF9EF8002062F3070C0CEB19
:10227C00030013FA8CF083B203EB104398B200EB1B
:10228C00134014B980B230BD604603029BB2C0F358
:10229C000720184380B230BD86460023E1E700BF1B
:1022AC002DE9F843089C1B6824689046220C12FA0E
:1022BC0084F414FA83F404EB1344A3B203EB144335
:1022CC009CB2894604EB1344E0B1054600276E89A5
:1022DC0068683146FFF7A6FF204484B2F30704EB8D
:1022EC00104406D523029BB2C4F3072487F00107E0
:1022FC001C432D68002DEAD127B123029BB2C4F3F5
:10230C0007241C434846FFF787FF05464046FFF766
:10231C0083FF2844204483B203EB104398B200EBB4
:10232C001340C04380B2BDE8F88300BFFFF7B8BFCD
:10233C0030B510F001044FF0000505D039B310F89A
:10234C00013B013963F31F25012928DD02394FEACE
:10235C00510E0EF1010C00EB4C0C002330F8022B4B
:10236C0060451344FAD1CEEBCE7E01EB4E01012930
:10237C0005BF9CF8002062F30705ED1813FA85F5EC
:10238C00ABB203EB154399B201EB134124B10B0231
:10239C009BB2C1F307211943C94388B230BD8446AF
:1023AC000023E4E720B3F8B5002705463C466E89C8
:1023BC0068683146FFF736FF0444A3B203EB1444BC
:1023CC00F30706D523029BB2C4F3072487F0010759
:1023DC001C432D68002DEAD13FB1200280B2C4F31A
:1023EC0007242043C04380B2F8BDE443A0B2F8BD3B
:1023FC004FF6FF70704700BF0B4B0C490C4830B4C4
:10240C0023F0030303F520420A4C03604FF42045EC
:10241C000A60002001211D601871236011714FF0BA
:10242C00A02330BC13607047433F0020383F00208E
:10243C00343F00203C3F0020002866D0830764D145
:10244C00324A1168A0F1080399425ED82DE9F04395
:10245C002F4C246800F10C02944254D310F8042C35
:10246C00002A50D030F8082C30F806CCB2F5204FAA
:10247C0049D8BCF5204F46D85D1AADB2654501EB85
:10248C000C0903D031F80C60AE423CD101EB020ECA
:10249C00744503D0BEF80260AE4234D11D4F002605
:1024AC0000F8046C3E689E4284BF3B601E46734538
:1024BC0017D09EF80480B8F1000F12D1744510D0DB
:1024CC00BEF8002020F8082CB64504BF3B601E4621
:1024DC00B2F5204F05D08C18658030F806CC01EB96
:1024EC000C0999450FD099F8040060B9B34208BFA4
:1024FC00C7F80090B2F5204F18BF8918A9F8002032
:10250C0018BFA1F802C0BDE8F08370473C3F002023
:10251C00383F0020343F0020CB1C23F003039BB238
:10252C000B2B3BD9B3F5204F3BD8994239D82E4AC7
:10253C001268824237D82D490968814233D970B567
:10254C00A0F1080130F808EC891A89B2AEF1080C38
:10255C00ACEB010C1FFA8CFC9C4542D31DD002EB5A
:10256C000E04257905BB224D32F80EE02E6801F1E0
:10257C00080C63449BB2A64202EB030408BF2C6018
:10258C0061800021A4F800E0217120F8083C21882A
:10259C00B1F5204F01D011444B8070BD0C239942F2
:1025AC00C5D900207047704703F11404A4B2A445A8
:1025BC00F3D30F4D01F1080423449BB22E68D418B9
:1025CC00A64288BF2C600025257122F803E06180AB
:1025DC0020F8083CD15AB1F5204FDED00A44538084
:1025EC0070BD002070BD00BF3C3F0020383F002074
:1025FC00343F0020002855D02DE9F04100F1030EA6
:10260C002EF0030E1FFA8EFEBEF10B0F29D9BEF56C
:10261C00204F23D8704521D8294B2A4E196835688C
:10262C00A5EB010C1FFA8CF3CEF52047BB429C4660
:10263C0014D26FF0070806E0CB5A1A44724513D235
:10264C009F429C460AD9C818A8EB03020479002CB7
:10265C00F2D031F803C063469F42F4D80020BDE8A5
:10266C00F0814FF00C0ED5E70EF11407BA4206D2EA
:10267C0001230371854216D00830BDE8F0810EF1BC
:10268C000802624492B28F183C718B520123A7F856
:10269C0002C0028003718B5AB3F5204FEAD00B4471
:1026AC005A80E7E77047084A0346146803E01B8822
:1026BC000B441A790AB19C42F9D13360DCE700BFB4
:1026CC003C3F0020343F0020383F0020F0B5124D35
:1026DC00124B134E05F11C0E0A240027033355F838
:1026EC00042B376023F003036CB10021B2F804C053
:1026FC000A4600E003460132A242196003EB0C00CB
:10270C001946F7D13360AE4504D02A68D2E90236B7
:10271C00D488E3E7F0BD00BF6C6C0008C81E012034
:10272C00C41E0120062808D8054B53F82030DB685E
:10273C00186818B102681A6070470020704700BF13
:10274C006C6C0008062807D831B1044B53F82030C4
:10275C00DB681A680A601960704700BF6C6C00086F
:10276C006FF00B00704700BF30B50D4641682B6809
:10277C008B4283B001D103B030BD044611601046CA
:10278C0001A9019300F0C0FE94F839302A68626008
:10279C0003F00501052906D0E369002BEBD0204698
:1027AC00984703B030BD002AF6D01A0705D49B0613
:1027BC00F2D5204603F0E6F8EEE7211D204602F0A4
:1027CC00EBFE94F83930F2E72DE9F04383B0DDF8F5
:1027DC002C9000286BD0B9F1000F68D01F460A9BD3
:1027EC0003620C9B3B4C03613B4B0E46904600290D
:1027FC0008BF1E46002A08BF9846002F08BF1F4678
:10280C00227880F83C20002343608360C36080F80A
:10281C003930436283623268304903860546C361AE
:10282C0003644161002A4CD018461946D8F80020A0
:10283C00904218BFAA603A68934218BFEA60002918
:10284C0039D02846C847034688BB254E95F83C101E
:10285C003068FF2904BF85F83C30194670B1034637
:10286C0001E01B6853B193F83C208A42F9D1013145
:10287C00C9B2FF2913D085F83C10F0E7FE2918BF28
:10288C004B1C95F83920286014BFDBB20023237051
:10289C009306356007D4284603B0BDE8F0830021C9
:1028AC0085F83C10DBE7284603F030F8F3E700200E
:1028BC0003B0BDE8F08301AA31462846FFF754FF68
:1028CC00BFE7314601AAFFF74FFFD5E9020301210B
:1028DC00ACE700BF5B200120506D00086D2700089D
:1028EC0060200120F0B5254D002914BF0E462E4660
:1028FC00002A14BF17462F46002B18BF1D463368FD
:10290C0083B004466BB100223B68A1688B4218BFB0
:10291C00A3602B68E1688B4218BFE3603AB103B047
:10292C00F0BD6A463146FFF71FFF0122ECE76368F2
:10293C0032689A42F3D001A96846CDE9003200F022
:10294C00E3FD94F839303268626003F00501052923
:10295C0007D132B11A070AD49B0602D5204603F0E0
:10296C0011F8E369002BDAD020469847D7E7211DF0
:10297C00204602F011FE94F83930EDE7506D000856
:10298C00014B1860704700BF5C200120C8B110B526
:10299C0090F83930D907044612D4C26943F00103C8
:1029AC0080F8393012B1904794F8393003F00502B1
:1029BC00052A05D162681AB11A0708D49B0601D4FE
:1029CC0010BD70472046BDE8104002F0DBBF211D52
:1029DC00204602F0E1FD94F83930EFE700B1C16117
:1029EC00704700BF024658B1064B186810B907E093
:1029FC00006830B190F83C300133DBB29342F7D130
:102A0C00704770476020012038B558B3002405E0AA
:102A1C00036998470134E4B2C5B12846837B013B76
:102A2C00DBB2837393B9427B0568037B9207EFD4C7
:102A3C0003F00F03022B0BD0012B0ED0002BE9D18E
:102A4C000134FFF7F9FCE4B2002DE6D1204638BD85
:102A5C0001460620FFF776FEDCE701460520FFF76E
:102A6C0071FED7E70446F1E72DE9F843002661F340
:102A7C000F06B2F5C17F884661F31F4641D014465C
:102A8C0009D822F04003012B9DB22AD04FF0000947
:102A9C004846BDE8F883B2F5207FF7D1C31C01F19D
:102AAC00030828F0030823F0030343449BB20546B4
:102ABC00434503F1100080B2E8D38045E6D8FFF718
:102ACC0099FD81460028E3D02B4A4319C0E90262E4
:102ADC001333002123F00303C0E900134846BDE87B
:102AEC00F8830520FFF71EFE81460028D0D0002376
:102AFC0004734373C581C0E9003386604846BDE862
:102B0C00F88300261D4D0746B14640F2DC5407E021
:102B1C001FFA81F83060B8F1000FB9D006460027D3
:102B2C000620FFF7FFFDFB1C23F00303E31A9BB207
:102B3C004345074428BF43461337A8EB0301002243
:102B4C0027F0030788B1C0E90027A0F8088043816B
:102B5C00C560B9F1000FDBD1A8EB03031FFA83F8B2
:102B6C008146B8F1000FD9D192E7B9F1000F8DD0A1
:102B7C004846FFF749FF89E7800001008200010009
:102B8C0070B50025064661F30F050520144661F368
:102B9C001F45FFF7C7FD38B10023C0E900360122FD
:102BAC00856004734373C28170BD00BF10B50330E0
:102BBC0020F0030C1846002361F30F03BDF80CE062
:102BCC00029C61F31F43614471450BD804B164440A
:102BDC000021C0E90143016001230221027341730A
:102BEC00C38110BD002010BD38B504460089884251
:102BFC0028D96289914211D9218124688B1A628962
:102C0C00081A99B28A4280B208D2238903442381DC
:102C1C002468891A628989B28A42F6D3237B0025FB
:102C2C0061F30F05180761F31F4504D1914202D0DF
:102C3C00637B9B0707D52068A56008B1FFF7E4FE0E
:102C4C000023236038BD63681B1B1944204689B2DE
:102C5C00FFF762FC0446EEE770B1B1F5803F0BD292
:102C6C0061B103898AB213449BB29A4204D890F999
:102C7C000CC0BCF1000F03DB012070470020704733
:102C8C0010B4446800F1100C611A614509D3B0F816
:102C9C000AC0416062444281038100205DF8044B0C
:102CAC0070470120FAE700BFA0B1B1F5803F11D207
:102CBC0091B143898AB29A420CD810B444680C443E
:102CCC00018944609B1A8A1A438102815DF8044B86
:102CDC0000207047012070470020704700291ADB44
:102CEC0000B359B303898AB213449BB29A4219D8E0
:102CFC0010B490F90CC04468BCF1000FA4EB0101B6
:102D0C001EDBB0F80AC0416062444281038100209E
:102D1C005DF8044B704728B1438949421FFA81FC86
:102D2C009C4501D9012070474268114402894160D9
:102D3C00A3EB0C03A2EB0C02438102810020704731
:102D4C0000F1100C6145DCD20120E1E708B1FFF77E
:102D5C005BBE7047034630B100201B68013080B267
:102D6C00002BFAD17047704710B1837B013383730A
:102D7C00704700BF80B179B1036843B10289B1F8E3
:102D8C0008C06244028118461B68002BF6D10A89E0
:102D9C000389016013440381704700BFA0B191B156
:102DAC00036843B10289B1F808C062440281184635
:102DBC001B68002BF6D10A89038901601344038137
:102DCC008B7B01338B7370470029F9D1704700BF9F
:102DDC0000287AD02DE9F0410D4600296DD00289EA
:102DEC000B899A42804668D30026438937466C8902
:102DFC00D8F804006968DB1BA41B9C4228BF1C4646
:102E0C0031443844224603F099FD6B892644B34281
:102E1C00274414D9B8F80A2097423CD02A899A4200
:102E2C0019D0B8F80A30B8F808209A42DFD1D8F88F
:102E3C000020002ADBD06FF00500BDE8F081B8F867
:102E4C000A302D68BB4215D06DB169892A8991422F
:102E5C004FF00006E7D12B68002BE2D06FF0050095
:102E6C00EBE7B8F80A30B8F808209A421AD00020DC
:102E7C00BDE8F081D8F80080B8F1000F1BD0002D10
:102E8C00EFD06A892B899A424FF0000618D0B8F817
:102E9C000A303746C7E7D8F80080B8F1000F0CD0DD
:102EAC000027BBE7D8F80030002B0CBF00206FF0D8
:102EBC000500BDE8F081002DD9D06FF00F00D7E7E9
:102ECC002B683746002BACD0C8E76FF00F0070476B
:102EDC002DE9F041054660B30F4671B3164682B337
:102EEC004FF00008B5F80AC007EB080053B1634572
:102EFC00A3EB0C0206D32D6893B2002DF2D1404601
:102F0C00BDE8F081ACEB0304A4B2B44228BF344654
:102F1C006968361B224619444444B6B203F00EFDD0
:102F2C001FFA84F82D68002EE9D00023002DD9D18A
:102F3C00E5E780464046BDE8F08188464046BDE85E
:102F4C00F0819046DBE700BF38B515460A46298963
:102F5C00FFF78AFD044610B12946FFF739FF2046DA
:102F6C0038BD00BF18B90AE0006899B230B1438986
:102F7C008B42A1EB0303F7D94368585C7047704749
:102F8C002DE9F04F4389072B87B0044640F2998016
:102F9C00DFF8AC91D0F804A0D9F814008846D9F821
:102FAC00001003F0C5F80546BAF80000FFF734F935
:102FBC000746BAF80200FFF72FF95E4BD3F800B0C2
:102FCC000246BBF1000F00F0B180D9E9043C0026A9
:102FDC000393CDF814B05B46D9F804E00494304662
:102FEC00D34604E0D9681846002970D00B46598A9C
:102FFC009142F7D193F808A0BAF1000F05D09EF8D2
:10300C003C100131C9B28A45ECD11968002D44D06D
:10301C0049B1BCF1FF3F64D0D8F8084081EA0C0AF2
:10302C001AEA040FDED193F810A01AF0040F04D1A1
:10303C00002E69D0BCF1FF3F59D0998AB942D1D149
:10304C00596811B1039CA142CCD1DA46DDE9044B9D
:10305C0028B1384A1360DA68C260C3F80CB01E4657
:10306C00BAF8063043B1344B00932289043B11214A
:10307C002046FFF75BF920BB08212046FFF714FE22
:10308C00F8B9BEB1356AE5B1706A2C4B009722468F
:10309C003146A84707B0BDE8F08F09B16145A1D111
:1030AC00197C4907C9D4998A002E08BF1E46B9421B
:1030BC0098D1C5E72DB9D9F8143003F0F003E02B03
:1030CC0028D1204607B0BDE8F04FFFF73FBE049C67
:1030DC00DA46002EC4D1D8F804309C45F1D1002634
:1030EC00BEE793F810A01AF0040FA6D166B1D8F879
:1030FC0004A034685445A0D08A4508BF1E46998A5E
:10310C00B9427FF46FAF9BE7998AB9421E467FF4B0
:10311C0069AF95E7B9F80C100831204609B2FFF7F2
:10312C00DDFD0321204602F01DFBCAE7D9F814C0CF
:10313C00D1E700BF64200120303F00202C3F00204D
:10314C001C3F0020394BF0B5002914BF0C461C461F
:10315C00002865D0364E3768F7B1B84218BF3946EB
:10316C0002D143E0884241D0C9680029FAD1AAB102
:10317C0025683B4615B929E0DB68FBB18342FBD0DF
:10318C00B3F812C09445F7D11C68A54201D0002CAD
:10319C00F2D16FF00700F0BD0ABB3946DFF894E0BE
:1031AC00BEF800204FF6FF739A424FF4804532D0A0
:1031BC00013292B22FBB2568AEF800200560428226
:1031CC0081B10020F0BDDB68002BF7D09842FAD01B
:1031DC005C8A9442DDD0DB68002BF7D1EEE72368E4
:1031EC0003604282C76030600020EBE70121BEE73C
:1031FC00013DADB2BDB14FF6FF739A42D8D14FF439
:10320C0040423B4602E0DB68002BD4D0B3F812C03E
:10321C009445F8D1ECE74FF44042002FF1D1CAE7C6
:10322C006FF00F00F0BDAEF80020B2E7506D000853
:10323C0064200120040000202DE9F04F85B0DDE969
:10324C000EBA002800F087800D46002900F083801C
:10325C001746002A7FD0BAF1000F7CD0BBF1000FCB
:10326C0079D0428A99460446002A5BD02A894FF6C7
:10327C00F7739A4272D808212846FFF7EDFC002814
:10328C0041D12E46608AD6F80480FEF7C5FFA8F817
:10329C0000004846FEF7C0FF0023A8F8020088F89B
:1032AC00063088F80730237C1A0708D53B6803F0F2
:1032BC00F003E02B03D1737B43F004037373308969
:1032CC00FEF7AAFFA8F80400237CDB0734D53B6883
:1032DC0003F0F003E02B0CBF637FE37ACDF808B06A
:1032EC00A27A0092112001903A465146304602F0E3
:1032FC00A3FEAE42804602D03046FFF727FD404683
:10330C0005B0BDE8F08F4FF4207208212220FFF7A2
:10331C00ABFB064610B32B89002BB3D02946FFF725
:10332C003DFDAFE70146FFF70DFF804600289DD01D
:10333C00404605B0BDE8F08F328900975346112105
:10334C003046FEF7F3FF4FF6FF73002818BF034615
:10335C00A8F80630BBE76FF00F08D0E74FF0FF3846
:10336C00CDE700BF70B582B0069CA8B1A1B19AB1EF
:10337C0094B1056835B9251DCDE90045FFF75CFF13
:10338C0002B070BD05F0F00CBCF1E00FF3D0666834
:10339C00B54204D10546EFE76FF00F00F0E76FF090
:1033AC000300EDE7002843D0F0B50D4683B00029AB
:1033BC003BD00446007AA68A271D58BB636803F0ED
:1033CC00F003E02B0CD1207F38BBA36943B11A4A20
:1033DC001268934204D004F1180002F091FB18B962
:1033EC00384602F08DFBE8B1216851B9031DCDE9D7
:1033FC0000033A46334629462046FFF71DFF03B02B
:10340C00F0BD01F0F003E02BF0D04368994209D1F4
:10341C002346ECE7FFF7E6FAE5E7FFF7E3FA0028C7
:10342C00E2D1DDE76FF00300E9E76FF00F00E6E7AC
:10343C006FF00F00704700BF4C6D000818B370B5EB
:10344C000D4619B31646428A0446B2B111492A6890
:10345C00237C62600A68A68243F00403237442B1A1
:10346C00944208D0134601E09C4204D0DB68002B48
:10347C00FAD1E2600C60002070BD0146FFF762FEDD
:10348C000028E3D070BD6FF00F0070476FF00F0095
:10349C0070BD00BF6420012038B1037C002223F0F2
:1034AC0004034260828202720374704708B1C0E95F
:1034BC0008127047014698B10A4A136883420AD031
:1034CC0033B11A46DB681BB18B42FAD1CB68D3609F
:1034DC000020FFF737B9C36813600020FFF732B93B
:1034EC00704700BF6420012010B50020FFF71AF9C7
:1034FC00044630B12822002103F018FAFF23E372AE
:10350C006377204610BD00BF88B102687AB171B1F3
:10351C000B6863B10A4B1B684BB110B41C68944226
:10352C0006D0DB68002BF9D15DF8044B704770476F
:10353C000A681A60DB68002BF6D00268EEE700BF61
:10354C00642001202DE9F84300286CD00E46002998
:10355C0069D0174605464FF420724FF49A71362005
:10356C009946FFF781FA804600285CD0032F3FD0A4
:10357C00B379C3B32E4B1B68D8F8044033604FF4B7
:10358C009A720021204603F0D1F940F201132380F6
:10359C0095F83830A3703068FEF742FE4FF4C873CC
:1035AC00FB40DB0760603BD4032F35D0D5F83230BD
:1035BC00E361EB8E2384632384F8EC3084F8EF30E2
:1035CC0040F23513A4F8F0306FF07D0384F8ED3041
:1035DC0084F8F2700322532384F8EE304046A9F8A5
:1035EC000020BDE8F883124A136801331360C3E767
:1035FC007379032BBCD044684FF49A720021204697
:10360C0003F094F940F20113238095F83830A3703D
:10361C003068FEF705FE60607379043B012BC5D85A
:10362C006B68E360C2E74FF000084046BDE8F883E2
:10363C0008000020002800F08180416A00297DD01C
:10364C0010B58B6A00225C1C82B04A8206D01E33F5
:10365C00B3F5701F5BD34FF6FF738B82CB6A5A1C8A
:10366C001BD01E33B3F5701F42D30B6B4FF6FF729A
:10367C005C1C4A81CA815DD01E33B3F5701F65D3C3
:10368C008A810A8200234B81CB79C3B991F91C3012
:10369C000A7F002B53DBFF2312E00A6B4B89541C6F
:1036AC002FD01E32B2F5701F3DD23B2A5BD80122BF
:1036BC008A810A82002BE5D1CB79002BE6D00B6AEC
:1036CC004A6ACDE9003222B9CA69134043F08073CB
:1036DC0001934B790A2B04D00A220023A1F8052070
:1036EC000B8101AB6A461C31FFF7FCF802B010BD30
:1036FC003B2B31D8012213464A810A6BCB81541CD7
:10370C00CFD18A899A42D7D8002AD5D0BAE73B2B99
:10371C0083BF1E4AA2FB03235B0901238B82CB6A66
:10372C005A1C9ED1B9E74FF6FF7293428A810A82E6
:10373C00C2D1A7E78A89002ABED0A3E77047BF2A67
:10374C004FF6FF7388BF6FF07F43B9E73B2B14D85C
:10375C0001238B810B8295E70C4AA2FB0323C3F355
:10376C004F131A46C8E7094CA4FB0242C2F34F128E
:10377C009A428A810A829FD884E7044AA2FB0323D7
:10378C00C3F34F138B810B827CE700BF8988888839
:10379C0038B51D4DEA78002304460362436212B12A
:1037AC001A4BDB6883622B79002B29D0174B1B69D2
:1037BC006A79E36252B1154B5B692363AB790A6991
:1037CC00E2616BB9E371EB79A3B938BDA36AC3EBC2
:1037DC00C303DB082363AB790A69E261002BF1D0E8
:1037EC000A4B9869FEF71CFD0123E371EB7920620B
:1037FC00002BEAD0054BD869FEF712FD606238BD8C
:10380C00A36A5B08D4E700BF702001207820012058
:10381C002DE9F04F446A62790023062A89B00646E6
:10382C00E36103D00622A4F8052023810DF11E03C9
:10383C00012221463046FFF785FE0546002860D060
:10384C004368BDF81E20F033511C89B239209854BE
:10385C000220585402EB0008D01D80B2B6F830A0FC
:10386C000390D71C02F10800BFB280B21FFA88F88F
:10387C00111D89B2049002F1050E02F1090002F14A
:10388C00060C4FEA1A2B03F808B01FFA80F903F85C
:10389C0007A01FFA8EFE37271FFA8CFC5F54CDF859
:1038AC00149001214FF0030903F80E9003F80C104B
:1038BC000399049F03F8019002F10A001C21D955C9
:1038CC0080B2059FFF214328D95507D8C2F13A028F
:1038DC00184492B2002103F029F8442000F1F001C1
:1038EC0089B22846FFF780F9144A154B10680193EA
:1038FC00144A009643232946FFF79EFC2846FFF7FF
:10390C0025FAA379FF2B13D00133DAB2052AA27161
:10391C000ED84FF47A73934003F2F3130A4A9BB216
:10392C00A2FB03235B090020238109B0BDE8F08FC3
:10393C0078230020238109B0BDE8F08F6C20012092
:10394C00506D00084C6D0008D34D62102DE9F04FFE
:10395C00466A7379032B89B0804604D00322002376
:10396C00A6F8052033810DF11E0303223146404693
:10397C00FFF7E8FD0746002800F09480BDF81E50C4
:10398C00446805F1010CA81CF0341FFA8CFC80B2C1
:10399C00E91C4FF0020E89B24FF039092A1D04F8C8
:1039AC00059092B204F80CE06B1D04F800E0402086
:1039BC0060549BB23221A1540422E254F069FEF708
:1039CC002FFC05F106091FFA89F905F1070E05F11F
:1039DC000B031FFA8EFE9BB205F1080C05F10901D1
:1039EC004FEA106B04F809B089B203934FEA1049FF
:1039FC001FFA8CFC05F10A0205F10C0304F80E9079
:103A0C0092B29BB24FEA102E04F80CE0049360546F
:103A1C0005F10D033721A1541FFA83FA039ACDF84F
:103A2C0014A004994FF0030A04F802A00122625476
:103A3C0005F10E03059A9BB204F802A01C22E25475
:103A4C0005F10F0AD8F82C901FFA8AFAADF81EA0CF
:103A5C00B9F1000F04D04846FCF7A2FB00283ED178
:103A6C000AF1010080B2FF23432804F80A3007D87A
:103A7C00CAF14302204492B2002102F057FF4420C5
:103A8C0000F1F00189B23846FFF7AEF8274B284A0F
:103A9C001868CDF8008043233946FFF763FC38469D
:103AAC00FFF754F9B379FF2B14D00133DBB2092B98
:103ABC00B3710FD8C3EB431203EB8203DB001D4A37
:103ACC0003F2F3139BB2A2FB03235B09338109B00E
:103ADC00BDE8F08F1423338109B0BDE8F08FCAF133
:103AEC00410C05F110039BB260454FF00C0204F839
:103AFC000A2028BF604605F1110AE0541FFA8AFA21
:103B0C00411E0028ACD009EB000CAAEB090A484670
:103B1C0000EB0A0310F8012B9BB26045E254F7D17D
:103B2C0012350D441FFA85FA9AE700BF6C2001206C
:103B3C004C6D0008D34D6210002800F014812DE963
:103B4C00F04F466A89B00746002E00F00781737962
:103B5C00012B04D001220023A6F8052033810DF19E
:103B6C001E03032231463846FFF7ECFC8046002842
:103B7C0000F0E180BDF81E5044686B1CF0349BB221
:103B8C00392262550222E254A818B7F830C0E91C59
:103B9C0080B289B22A1D6B1D4FEA1C2E92B29BB2C9
:103BAC0004F800E04FF0040904F801C03221A154DC
:103BBC0004F80390F069FEF733FB05F1060A1FFACF
:103BCC008AFA05F1070E4FEA106B1FFA8EFE05F10B
:103BDC00080C05F1090104F80AB01FFA8CFC4FEA35
:103BEC00104A89B205F10A0205F10B0304F80EA084
:103BFC0092B24FEA102E9BB204F80CE060543621BE
:103C0C00A15404F80390B069FEF70AFB05F10C0906
:103C1C001FFA89F905F10D0E05F111031FFA8EFE3D
:103C2C009BB205F10E0C05F10F014FEA106B04F875
:103C3C0009B089B203934FEA10491FFA8CFC05F1C5
:103C4C00100205F1120304F80E9092B29BB24FEAE7
:103C5C00102E04F80CE00493605405F11303372183
:103C6C00A1541FFA83FA039ACDF814A004994FF0CB
:103C7C00030A04F802A00122625405F11403059A08
:103C8C009BB204F802A01C22E25405F1150AD7F8E5
:103C9C002C901FFA8AFAADF81EA0B9F1000F27D0AC
:103CAC004846FCF77DFA18B3CAF1410C05F116032E
:103CBC009BB260454FF00C0204F80A2028BF604606
:103CCC0005F1170AE0541FFA8AFA411E80B109EB7C
:103CDC00000CAAEB090A484600EB0A0310F8012B6A
:103CEC009BB28445E254F7D118350D441FFA85FA7E
:103CFC000AF1010080B2FF23432804F80A3007D8E8
:103D0C00CAF14302204492B2002102F00FFE44207B
:103D1C0000F1F00189B24046FEF766FF124A134BE0
:103D2C0010680193124A009743234146FFF784FA27
:103D3C004046FFF70BF8B379FF2B12D00133DAB200
:103D4C00052AB2710DD84FF47A73934003F2F31332
:103D5C00084A9BB2A2FB03235B09338109B0BDE87F
:103D6C00F08F7823F9E770476C200120506D000824
:103D7C004C6D0008D34D6210994B2DE9F04F5D68E6
:103D8C0053686E6A89B01446002E00F09F80327919
:103D9C00002A00F09B8062892B2A40F297801A78C7
:103DAC00022A40F0938095F838205AB395F83200E7
:103DBC00197F884240F08A80012A23D0587F95F8D9
:103DCC003310884240F08280022A1BD0987F95F8ED
:103DDC00341088427AD1032A14D0D87F95F8351044
:103DEC00884273D1042A0DD093F8200095F8361030
:103DFC0088426BD1052A05D095F8371093F821200D
:103E0C00914263D15868FEF70BFA336898425DD142
:103E1C00DFF8D4B10022CBE9002263892B2B55D9D2
:103E2C00B4F808A0CDE9035690462746F022CDF809
:103E3C00088054463D4605E02D688AB29CB2002DA0
:103E4C0043D06B899A42A2EB0301A4EB0303F3D298
:103E5C009442D5F8048040F20381164605920197EE
:103E6C0018F80620FF2A00F0FA80B31C9BB2B3426C
:103E7C00C0F091816889711C814280F2E78008EB67
:103E8C00060C9CF801903B2A26D8DFE802F03E99FC
:103E9C002587252525252525252525252525252564
:103EAC0025252525252525252525252525252525B6
:103EBC0025252525252525252525252525252525A6
:103ECC002578BDAFD02525256A403C46204609B053
:103EDC00BDE8F04FFEF73ABF4E444FF6FD729642E6
:103EEC0000F359814B449EB28642C0F0B580361A1D
:103EFC00201AB6B284B2A64280F04D812D68002DF6
:103F0C0000F04981D5F80480AAE78EB2ECE7B9F14C
:103F1C00040F40F040814FF6F972964200F23B815B
:103F2C000636B6B24F464FF0050A1BF80A100022AF
:103F3C0007920029D8D13A4607A92846FEF7C8FFB0
:103F4C00B84240F02881B9F1040F00F02B819DF8A4
:103F5C001C00244A012342F82A000BF80A30688915
:103F6C00C2E7B9F1040F40F016814FF6F972964290
:103F7C0000F211810636B6B24F46CA46D5E7B9F102
:103F8C00040F40F008814FF6F972964200F203815B
:103F9C000636B6B24F464FF0030AC6E7B9F1030F27
:103FAC0040F2F9804E444FF6FD72964200F3F380D6
:103FBC0009EB03060427B6B24FF0070AB946B4E77B
:103FCC00B9F1040F40F0E7804FF6F972964200F217
:103FDC00E2800636B6B24F464FF0060AA5E700BFA0
:103FEC001C3F00207820012070200120B9F1010F26
:103FFC0040F0D1804FF6FE72914200F0CC80033637
:10400C00B6B24F46CA4690E7B9F1010F40F0C380F3
:10401C00059AF02A40F0BF804FF6FE72914200F0F4
:10402C00BA800336B6B24F464FF0000A7DE7B9F1BD
:10403C00040F40F0B0804FF6F972964200F2AB805C
:10404C000636B6B24F464FF0020A6EE72F680FB332
:10405C007F6897F8009016E7A642FFF401AF019F26
:10406C009BF8003063B18A4B1B680022012B8BF844
:10407C00002000F09480022B06D0032B00F08D80E2
:10408C00029B002B00F09280002302936C242C22C4
:10409C007B89CFE63B2A7BD801A656F822F000BFDD
:1040AC00173F0008A34100089D410008A3410008E8
:1040BC009D4100089D4100089D4100089D4100085C
:1040CC009D4100089D4100089D4100089D4100084C
:1040DC009D4100089D4100089D4100089D4100083C
:1040EC009D4100089D4100089D4100089D4100082C
:1040FC009D4100089D4100089D4100089D4100081C
:10410C009D4100089D4100089D4100089D4100080B
:10411C009D4100089D4100089D4100089D410008FB
:10412C009D4100089D4100089D4100089D410008EB
:10413C009D4100089D4100089D4100089D410008DB
:10414C009D4100089D4100089D4100089D410008CB
:10415C009D4100089D4100089D4100089D410008BB
:10416C009D4100089D4100089D410008A3410008A5
:10417C00A3410008A3410008A34100089D41000889
:10418C009D4100089D410008A3410008A34100087F
:10419C004FF00009A6E6019C98E601230293EC245B
:1041AC006C2275E70798FEF73BF8D2E69BF80130D6
:1041BC00DDF80880DDE903563C46002B3FF486AE63
:1041CC00334A7F681379052B1AD0062B27D0022B84
:1041DC007FF47CAE7379062B7FF478AE9BF80230BB
:1041EC006E6A002B3FF472AE9068A6F80880FEF75A
:1041FC0017F8B0613B69F3612846FFF79DFC65E653
:10420C007379012B25D0033B022B3FF65FAE686A16
:10421C003946FFF7BDFA2846FFF70CFA56E67379D4
:10422C00DA1E022A02D9012B7FF450AE6B6A5A793E
:10423C000C2A04D00C210022A3F805101A81154B6E
:10424C0028461A461946FEF74DFB2846FFF7E0FABA
:10425C003CE6686A3946FFF79BFA95F839301B073C
:10426C00D9D56E6A7379082B04D00823A6F80530CB
:10427C00A6F80880002206F11C01284600F0C0FFB9
:10428C00B379FF2B1CBF0133B371012333811DE6BE
:10429C0078200120506D0008002872D02DE9F04FD5
:1042AC00456A85B0044615B16B79082B02D005B070
:1042BC00BDE8F08F0A68EB699A42F8D10C234FF0F5
:1042CC000009A5F80530A5F808900DF10E0304229D
:1042DC002946FFF737F9804600284AD0BDF80E6012
:1042EC004768731CF0379BB23222BA550422FA5439
:1042FC00E869FDF795FF06F1020A1FFA8AFA06F142
:10430C00030E1FFA8EFE06F1040C721D4FEA106BA1
:10431C0007F80AB092B21FFA8CFCB31DF11D4FEADC
:10432C00104A07F80EA09BB289B24FEA102E07F87C
:10433C000CE04329B8544FF0FF02FA5407D8C6F1E9
:10434C003D02781892B2494602F0F0FA4421F0315D
:10435C0089B24046FEF748FC0A4A0B4B10680193A1
:10436C000A4A009443234146FEF766FF4046FEF797
:10437C00EDFCAB79FF2B1CBF0133AB7114232B81EC
:10438C0095E770476C200120506D00084C6D0008BB
:10439C002DE9F04F476A7B79052B87B0064604D090
:1043AC0005220023A7F805203B810DF116030322FB
:1043BC0039463046FFF7C6F88046002800F0B0803A
:1043CC00BDF8165044686B1CF0349BB23922625510
:1043DC000222E25405EB020EB6F830A005F1030CF4
:1043EC001FFA8CFC1FFA8EFE281D691DEB1D89B26D
:1043FC009BB205F108094FEA1A2B80B2AA1D04F8EA
:10440C000EB092B204F80CA002934FF0370C1FFAC6
:10441C0089F34FF0030904F800C0039304F80190EA
:10442C00029B0121A154039A04F803901C23A3546A
:10443C0005F1090AD6F82C901FFA8AFAADF816A0E5
:10444C00B9F1000F04D04846FBF7AAFE002841D171
:10445C000AF1010080B2FF23432804F80A3007D880
:10446C00CAF14302204492B2002102F05FFA4420C8
:10447C0000F1F00189B24046FEF7B6FB2A4B0096DC
:10448C00186807F1180243234146FEF76BFF0446F8
:10449C004046FEF75BFCBB79FF2B15D00133DBB23A
:1044AC00092BBB7110D8C3EB431203EB82031B0126
:1044BC001E4A03F2F3139BB2A2FB03235B092046B3
:1044CC003B8107B0BDE8F08F282320463B8107B025
:1044DC00BDE8F08FCAF1410C05F10A039BB26045AF
:1044EC004FF00C0204F80A2028BF604605F10B0AB5
:1044FC00E0541FFA8AFA411E0028A9D009EB000CDF
:10450C00AAEB090A484600EB0A0310F8012B9BB2F0
:10451C008445E254F7D10C350D441FFA85FA97E720
:10452C004FF0FF34B7E700BF6C200120D34D621071
:10453C002DE9F047446A84B064B3627952B3002326
:10454C00A16903910A2AC4E90633C4E90833C4E912
:10455C000B330546A362C4F80E30C4F812301CD0DD
:10456C00043A012A19D93D4B28461A461946FEF73A
:10457C00B9F963791BB10023A4F8053023812379A1
:10458C0043B1374B1D78013DEDB21D70002D5ED04F
:10459C000023237104B0BDE8F0870DF10A03072254
:1045AC0021462846FEF7CEFF07460028DBD0BDF893
:1045BC000A60436803F1F008731C9BB2362208F8BA
:1045CC000620042208F803200398FDF729FE06F1C3
:1045DC0002091FFA89F906F1030E1FFA8EFE06F185
:1045EC00040C721D4FEA106A08F809A092B21FFA67
:1045FC008CFCB31DF11D4FEA104908F80E909BB2CC
:10460C0089B24FEA102E08F80CE0432908F8020092
:10461C004FF0FF0208F8032008D8C6F13D0208EB62
:10462C00010092B2002102F081F94421F0313846A8
:10463C0089B2FEF7D9FA0B4B0095186803AA4323ED
:10464C003946FEF78FFE3846FEF780FB8BE7054EAA
:10465C003068FEF72FFF35609AE700BF506D0008F9
:10466C00682001206C200120002878D02DE9F04131
:10467C0090F83930DB0704466ED5038E466AB3F5E5
:10468C00107F55D306B3374F33793D7823B3013DB3
:10469C00EDB23D70002D4ED034220021304602F098
:1046AC0045F90123337194F83930013513F00403C3
:1046BC003D7035D17279022A03D00222A6F805206A
:1046CC0033810020BDE8F0813420FDF793FF0646CE
:1046DC0070B3244F60623D7834220021304602F0E2
:1046EC0025F9002DDDD1FEF7FFFEDFF88480C8F838
:1046FC000000E8B1427A1C4942F020024272442286
:10470C00FEF720FD1849D8F800004322FEF796FE6C
:10471C002A46D8F800001549FEF7C8FE3D78C0E7D8
:10472C002046FFF775F80028CBD02046FFF700FF96
:10473C004FF0FF30C6E7DFF83880D8F80000FEF7FE
:10474C00B9FEC8F800503D7834220021304602F002
:10475C00EDF8002DC7D0A4E76FF00F00B2E76FF0B3
:10476C000F00704768200120506D0008853D00083F
:10477C006C2001202DE9F04F7F4B1D6887B0D5B11F
:10478C006C6AACB163799BB1A18A29B1628A01329E
:10479C0092B29142628211D0228A1AB1511E012A20
:1047AC00218212D0E2891AB1511E012AE18115D061
:1047BC002D68002DE4D107B0BDE8F08F2846FFF737
:1047CC00B7FE2846FFF750FFF2E703F0FB02012A81
:1047DC0015D00A2B13D0042BEAD115E003F0FB0201
:1047EC00012A01D00A2BE3D12846FFF7D1FDA3897A
:1047FC00628A9B1A012BC4BF5B10E381D8E70422A9
:10480C000023A4F8052023810DF116030322214671
:10481C002846FEF797FE8046002800F08D80BDF8F4
:10482C00167046687B1CF0369BB23922F255022278
:10483C00F25407EB020EB5F830A007F1030C1FFA87
:10484C008CFC1FFA8EFE381D791DFB1D89B29BB2A4
:10485C0007F108094FEA1A2B80B2BA1D06F80EB000
:10486C0092B206F80CA002934FF0370C1FFA89F3A2
:10487C004FF0030906F800C0039306F80190029B61
:10488C000121B154039A06F803901C23B35407F189
:10489C00090AD5F82C901FFA8AFAADF816A0B9F1CE
:1048AC00000F28D04846FBF77BFC034618B3CAF12F
:1048BC004100984207F10A0228BF184692B20C2315
:1048CC0006F80A3007F10B0AB0541FFA8AFA411E97
:1048DC0088B148444B46AAEB090A03EB0A0213F8C9
:1048EC0001CB92B2984206F802C0F6D107F10C0344
:1048FC000B441FFA83FA0AF1010080B2FF2343280C
:10490C0006F80A3007D8CAF14302304492B20021AB
:10491C0002F00CF8442000F1F00189B24046FEF799
:10492C0063F9164B00951868154A43234146FEF768
:10493C0019FD4046FEF70AFAA379FF2B1AD0013372
:10494C00DBB2092BA37115D8C3EB431203EB820323
:10495C00DB000C4A03F2F3139BB2A2FB03235B09AB
:10496C00A28A618A2381531A012B7FF721AF5B1036
:10497C0023821DE71423F3E7602001206C20012023
:10498C004C6D0008D34D621038B52E4B1C6824B901
:10499C0026E0013B2B81246814B3656A002DFAD004
:1049AC002B89012BF5D8F6D16B7900220C2B2A819F
:1049BC0017D0013B072BEED801A252F823F000BF11
:1049CC00134A0008A3490008054A0008A349000837
:1049DC00A3490008EF490008A3490008F74900085B
:1049EC0038BD2046FEF714FFD5E7AB79012B1AD959
:1049FC002046FEF71FFECEE7AB79012B20460FD9E0
:104A0C00FEF706FFC7E7AB79052B204602D8FFF768
:104A1C0093F8C0E7FFF78CFD2046FFF725FEBAE7B9
:104A2C00FEF794FFB7E7002205F11C01204600F0C9
:104A3C00E7FBAB79FF2B1CBF0133AB7101232B813F
:104A4C00A9E700BF6020012058B1406A48B1407905
:104A5C000A2805D0043801288CBF0020012070479B
:104A6C00012070472DE9F04F9F4D85B08B46914644
:104A7C000646002800F0D880002A00F039814FF05B
:104A8C00000C0A272A46CDF80CC00297BE463946C0
:104A9C006446E246A8460A29137D3BD053B13568DB
:104AAC00506885423BD0012B5ED0538A9C459CBFFD
:104ABC009C46A6460134A3B20A2B24B200F099817D
:104ACC000A2900F0998145460197D0468A460EE0A6
:104ADC000129224432D005EBC202538A9C459CBF6B
:104AEC009C46A6460134A3B20A2B24B238D004EB60
:104AFC00440305EBC3036200197D0029F2D058680A
:104B0C0037688742E4D19B689945E1D1204605B0CE
:104B1C00BDE8F08F4BB1556830688542C3D19068C1
:104B2C008145F3D0012BC0D11EE0631C9BB20A2B34
:104B3C002DD01BB2214618321C46ACE705EBC20344
:104B4C0055F832205B8AC2B1984598BF9846019BB4
:104B5C0098BF234601340193A3B20A2B24B2C6D1C9
:104B6C00019F51460C4613E01368002B51D0538A19
:104B7C009A459CBF9A4627469CE7039A9A4288BF5F
:104B8C0013460393029B98BF23460293AAE745461C
:104B9C00BBF1010F40F0A4800A2C11D0670026B1A4
:104BAC003B1905EBC30332685A60274405EBC70772
:104BBC00002320467B82C7F8089005B0BDE8F08F33
:104BCC00BEF10A0F23D1029B0A2B1ED10A2F00F033
:104BDC0087803C4604EB44084FEAC808670055F848
:104BEC00080020B1FEF7B2F8002345F808303B1955
:104BFC0005EBC3033D490022C3E9012208681A757D
:104C0C005A828A88D8601A82C9E71C46E2E7744641
:104C1C00E0E7538A0398984288BF03460393029BAC
:104C2C0098BF2346029345E70A272A4680468446C6
:104C3C000297BE46394604460A29137D23D033B168
:104C4C00012B34D0538A834224BF1846A646631CDA
:104C5C009CB20A2C1BB285D00A2900F0C18003EB50
:104C6C00430205EBC202147D34B1012C17D0528AD9
:104C7C0090429CBF10469E4601339AB20A2A1BB240
:104C8C00EDD10C4684E7002BDAD1631C9BB20A2BC6
:104C9C003FF47EAF1BB2214618321C46CCE7146899
:104CAC00528A64B194459CBF1F469446E4E713684E
:104CBC006BB1538A9C459CBF9C462746C7E79045E1
:104CCC0098BF9046029A98BF1A460292D4E7538A2C
:104CDC00984598BF9846029B98BF23460293B6E727
:104CEC004FF0FF3412E700BF9C200120546D0008E8
:104CFC000A272946904692460297BE46BC46144661
:104D0C000192BCF10A0F087D33D058B133684A6860
:104D1C009A423FF4FBAE012847D04B8A434524BF4F
:104D2C009846A6460134A3B20A2B24B25FD0BCF13C
:104D3C000A0F58D05246CDF80CC0DDF804A09446AA
:104D4C000BE0012825D05B8A98459CBF9846A64667
:104D5C000134A3B20A2B24B223D004EB440305EB99
:104D6C00C303187D0028F3D031685A689142E8D10A
:104D7C00CCE620B14B6832689A42CCD1C6E6631CB3
:104D8C009BB20A2B3FF404AF1BB2A44618311C464D
:104D9C00B7E718685B8A80B19C459CBF9C46274648
:104DAC00D6E7DDF80CC06446F2E60B686BB14B8AB3
:104DBC00534524BF9A462746B4E79A4598BF9A466E
:104DCC00029B98BF23460293C2E74B8A019A9342F7
:104DDC0028BF1A46029B019228BF23460293A1E7E3
:104DEC0018321C4628E7234618311C4689E76446CE
:104DFC00CEE645460C46CBE6234618321C464AE620
:104E0C002DE9F04F5A4F02EB420807EBC80885B06A
:104E1C0098F81430022B05460E4612D0182303FBCB
:104E2C00027202F10C0405F132094FF40063009395
:104E3C004A4623463146284601F040FD05B0BDE800
:104E4C00F08FB8F81230B3F58E7F49D8B3F5877F61
:104E5C00E4D302EB4202D20002F10C0304320392BF
:104E6C001C214FF420720E20DC19FDF7FDFD05F11D
:104E7C00320983460028D8D0D0F804A00120FDF7D1
:104E8C00CBF9AAF80600D5F83230CAF80830394BFD
:104E9C00B9F80420AAF80C201A689B88CAF81220CA
:104EAC00AAF816306B68039ACAF80E30BB58CAF8C9
:104EBC001830314BCAF8003040F20643AAF80430DF
:104ECC0040F6060300934A4623465946284601F00D
:104EDC00F5FC5846FDF73AFF032388F81430A4E795
:104EEC0002EB4202D4001C214FF420720E20FDF77D
:104EFC00BBFD05F13209221D8346B0B3D0F804A0E6
:104F0C0003920120FDF788F9AAF80600D5F8323093
:104F1C00CAF80830174BB9F80410AAF80C10196825
:104F2C009B88CAF81210AAF816306B68039ACAF854
:104F3C000E30BB58CAF818300F4BCAF8003040F28C
:104F4C000643AAF8043040F6060300934A460B4B7E
:104F5C005946284601F0B2FC5846FDF7F7FE0C34D2
:104F6C0003233C4488F814305FE70C343C445CE782
:104F7C009C200120546D0008000108005C6D0008A5
:104F8C002DE9F04F364CDFF8DC8083B004F1F007EC
:104F9C0000260AE0012D27D0032D5ED0042D01D16F
:104FAC00022323751834BC421BD0257D002DF9D06B
:104FBC00638A01339BB2B3F5967F6382EAD3206890
:104FCC0010B1FDF7C3FE2660D8F80000B8F8043025
:104FDC0026756682E0602382C4E901661834BC42FF
:104FEC00E3D103B0BDE8F08F042BE8D84FF4207266
:104FFC001C210E20D4F808A0FDF736FD0AF1320B67
:10500C0081460028CED02846D9F80450FDF704F983
:10501C00E880DAF83230AB60124BBAF836201968F7
:10502C009B88AA81C5F81210EB82DAF80430C5F817
:10503C000E306368AB610C4B2B6040F20643AB80C7
:10504C0040F6060300935A46084B5046494601F079
:10505C0035FC4846FDF77AFEA4E704232375A1E747
:10506C009C200120546D0008000108005C6D0008B4
:10507C0000297DD02DE9F04746683388B3F5807F51
:10508C0084B0044602D13379062B05D0204604B0F7
:10509C00BDE8F047FDF75ABE7379042BF6D173883F
:1050AC00082BF3D14F68D6F80E00B36903900D4668
:1050BC0006F10808002F56D09F4240F08F80002840
:1050CC0000F094800127BA46294601F031F8814658
:1050DC00C0BB039B03F0F003E02B33D051462A46B0
:1050EC0003A8FFF7BFFC031E2CDB434903EB430271
:1050FC0001EBC20C02208CF814004FF0180E0C209F
:10510C00CCF8085013FB0E03D8F80000C8500B4421
:10511C00B8F804009880D200ACF8129051F802A0B4
:10512C00BAF1000F0ED04FF4006341F802902846FC
:10513C00009305F132024346514601F0BFFB504645
:10514C00FDF704FEF388B3F5807F12D0B3F5007F32
:10515C0003D103A92846FFF79FF82046FDF7F6FD7B
:10516C0004B0BDE8F08700283BD04FF0020AABE753
:10517C007047002FF1D04FF420721C210E20FDF748
:10518C0073FC05F1320907460028E6D04668022078
:10519C00FDF742F8F080D5F83230B360EB8EB38176
:1051AC00D8F80030C6F81230B8F80430F3826968C9
:1051BC00C6F80E100399B1611049316040F20641F6
:1051CC00B18040F6060100914A46434628463946CE
:1051DC0001F074FB3846FDF7B9FDBEE70027002847
:1051EC00C3D1F388B3F5807FB0D1B6E7F388B3F5BC
:1051FC00807FABD1BFE700BF9C20012000010800DD
:10520C002DE9F04F044685B008680D462146164638
:10521C0000F08EFF002840F0B0802B6803F0F00205
:10522C00E02A00F0AA80002B00F0A7802246012182
:10523C002846FFF717FC0028C0F28B80C7B2DFF8B6
:10524C00588107EB470308EBC3037A0003921A7DDE
:10525C0004F13209002A48D101221A751C214FF49D
:10526C0020720E209C60FDF7FFFB8246002800F0A8
:10527C0087800120DAF804B0FCF7CEFFABF806000B
:10528C00D4F83230CBF808303F4BB9F80420ABF8E7
:10529C000C201A689B88CBF81220ABF81630636888
:1052AC00CBF80E302B68CBF81830384BCBF80030DD
:1052BC0040F20643ABF8043040F6060300934A462E
:1052CC00334B5146204601F0F9FA5046FDF73EFDAE
:1052DC0000203EB17B003B4408EBC3031B7D012B3C
:1052EC0026D806D005B0BDE8F08F002E35D0012AA7
:1052FC001ED1334602E01B68002B3AD01A7B5206B3
:10530C00F9D532464FF420710E20FDF71DFE0646EE
:10531C0066B3039B3B4458F8330008B1FDF716FD08
:10532C00039B3B44002048F8336005B0BDE8F08F88
:10533C002046184C1823277003FB07834FF4006496
:10534C004A4631460C33009401F0B8FA05B0BDE87A
:10535C00F08F40B205B0BDE8F08F4FF420721C21E5
:10536C000E20FDF781FB8246002882D14FF0FF30E2
:10537C00B8E73046FDF7F8FCCAE76FF00F00B1E76D
:10538C004FF0FF30A5E700BF546D00080001080086
:10539C005C6D0008982001209C2001202DE9F04133
:1053AC00044684B00E4610682146154600F0C0FE37
:1053BC00002840F09780296801F0F003E02B73D0AF
:1053CC006368A2684B40134284460AD08AB24FF6F7
:1053DC00A9639A4205D0E168002900F0D38004F15A
:1053EC000C05DFF8B081694B98F8002002EB420005
:1053FC0003EBC00090F814E0BEF1010F02D98768EE
:10540C00A74271D01A7D012A02D99A68944275D0AC
:10541C0093F82C20012A02D91A6A944277D093F877
:10542C004420012A02D99A6B944276D093F85C20DE
:10543C00012A02D91A6D944275D093F87420012A6E
:10544C0002D99A6E944274D093F88C20012A03D915
:10545C00D3F88020944272D093F8A420012A03D967
:10546C00D3F89820944270D093F8BC20012A03D929
:10547C00D3F8B02094426FD093F8D420012A03D9EA
:10548C00D3F8C82094426ED093F8EC20012A03D9AB
:10549C00D3F8E020A2426DD032462946204604B013
:1054AC00BDE8F041FFF7ACBE6B78EA78A9788DF8CF
:1054BC000D2003F07F0301205E228DF80B30ADF838
:1054CC0008008DF80C1002AB8DF80A204FF4006226
:1054DC000092314604F13202204601F0EFF904B09B
:1054EC00BDE8F0812A4BF1E7406881428AD1314610
:1054FC00204604B0BDE8F041FFF782BC5A689142E7
:10550C0086D162463146204688F800C0F1E7DA6958
:10551C00914284D14FF0010CF3E75A6B914285D143
:10552C004FF0020CEDE7DA6C914286D14FF0030C90
:10553C00E7E75A6E914287D14FF0040CE1E7DA6F3E
:10554C00914289D14FF0050CDBE7D3F894209142BE
:10555C008AD14FF0060CD4E7D3F8AC2091428BD112
:10556C004FF0070CCDE7D3F8C42091428CD14FF00B
:10557C00080CC6E7D3F8DC30994208BF4FF0090C91
:10558C008AD1BEE76FF00300A9E700BF9C20012081
:10559C005C6D0008982001202DE9F0414FF4207239
:1055AC0082B0074688460E201C21FDF75DFA68B3D1
:1055BC00446805460120FCF72FFEE080D7F8323016
:1055CC00A360144BFA8E19689B88A281C4F8121040
:1055DC00E3827B68C4F80E30D8F80030A3610E4B20
:1055EC00236040F6060140F2064307F13206A38021
:1055FC0032460A4B00913846294601F05FF928469D
:10560C00FDF7A4FB002002B0BDE8F0814FF0FF30A5
:10561C00F9E700BF546D0008000108005C6D00083C
:10562C002DE9F0434D4FD7F8088098F8004004F06E
:10563C000F04A400132C85B0054613D94389032B02
:10564C0010D943681B78082B0CD1786900F0F00353
:10565C00E02B07D00E46396800F06AFD10B92B8993
:10566C00072B05D8284605B0BDE8F043FDF76EBB07
:10567C002846FCF797FE0028F4D104F10E094946A0
:10568C002846FDF7E9FA00285CD02B89191989B254
:10569C008B42E7D84FF420720E20FDF7E5F98146D6
:1056AC000028DFD0428904F108039A4251D34146C5
:1056BC004068224601F042F921464846FDF7F4FACB
:1056CC00002846D129464846FDF782FB002840D1E8
:1056DC002846FDF73BFB4D4621462846D5F804905D
:1056EC00FDF7BAFA0028BDD1D7E90432D5F8048009
:1056FC00C8F80C20C8F81030B9F8023089F800004E
:10570C004FF6F77293428CBF093308339BB2FF27D5
:10571C0021460024A9F80230404688F8087088F821
:10572C000A4088F80B40FCF703FE0123A8F80A0096
:10573C000B490094CDE9013622463B46284600F041
:10574C003BFB8FE749462846FDF7AEFA0028C3D04D
:10575C0088E74846FDF7FAFA84E700BF1C3F0020B3
:10576C00303F0020F0B54FF4207287B007460E464C
:10577C0022202421FDF778F980B344687B68667099
:10578C00032200272270676019685A68DE68054694
:10579C00986820616661A160E260986919695A692C
:1057AC00E2612062A161DB68059305A800F0A8F90D
:1057BC00064680B16989A770E7702046FCF7B8FDF2
:1057CC000123608005AACDE901360097FF233946F5
:1057DC00284600F0F1FA2846FDF7B8FA07B0F0BDFC
:1057EC00F0B54FF4207287B007460E4622202421D4
:1057FC00FDF73AF980B344687B6866700B2200278A
:10580C002270676019685A68DE68054698682061DE
:10581C006661A160E260986919695A69E261206267
:10582C00A161DB68059305A800F06AF9064680B112
:10583C006989A770E7702046FCF77AFD0123608028
:10584C0005AACDE901360097FF233946284600F01A
:10585C00B3FA2846FDF77AFA07B0F0BD2DE9F0410E
:10586C00204B88B01C6806948846164607460821CB
:10587C004FF420723620FDF7F7F880B345687B684B
:10588C000693162ED8F804306B6004BF012388F8F9
:10589C0008302E704FF0000604464FF008016E7071
:1058AC00AE70EE70284614BFDFF83C8008F1040897
:1058BC00FCF73EFD688040F29440079004200223E0
:1058CC00049007A8CDE90063039002970123424698
:1058DC0006A9204600F0EAFA2046FDF737FA08B090
:1058EC00BDE8F081506D00088C2101200349044B68
:1058FC000448054A08601A60704700BF90210120D7
:10590C008C210120E0000001E000000270B5866AE5
:10591C0004463EB31A4D3046296801E0006880B158
:10592C0042688A42FAD1027B0132D2B20221417220
:10593C000273236C1BB112490122204698470020A8
:10594C0070BD0320FCF7EEFE48B1002282600273AA
:10595C0032682968C0E9002101223060E6E74FF087
:10596C00FF3070BD0320FCF7DDFE0028F7D0044AA1
:10597C00866012684260067306600122A062D5E759
:10598C0090210120836A83B11B6873B1022001212D
:10599C0003E0012A0AD01B683BB15A7A022AF8D1DB
:1059AC00588159721B68002BF7D170475A89013AFC
:1059BC0092B2042AEFD958815972F3E7806A30B158
:1059CC000A6801E0006810B143689342FAD170474D
:1059DC00F8B54389072B04461CD947680D46384651
:1059EC0019461646FCF7A4FCA0B9A86A90B1316818
:1059FC00034601E01B686BB15A688A42FAD13A78C7
:105A0C00112A0CD0162A05D15A7A012A04BF4FF458
:105A1C0000729A602046BDE8F840FDF797B9214A1C
:105A2C00126891427A6813D0002AF3D0597A7A78A6
:105A3C00022905D00129EDD1598909B19142E9D941
:105A4C005208012A38BF012201215A815972E1E71B
:105A5C00E2B97D780DB90A257D700368002BD9D089
:105A6C00012005E0012A16D01B68002BD2D07D78CE
:105A7C005A7A022A4FEA5501F4D1012938BF012183
:105A8C0059815872F0E700680028C3D043689342EC
:105A9C00F9D10346CAE75A89002AEED0AA42E3D9C3
:105AAC00EBE700BF90210120F8B5134B1D6815B32F
:105ABC00124F0226AC6A14B91AE02468C4B1628988
:105ACC00531E9BB2002AF8D06381002BF5D1637A68
