:020000040800F2
:1000000010020020891F0008D51F0008D51F000816
:10001000D51F0008D51F0008D51F000800000000EC
:10002000000000000000000000000000D51F0008D4
:10003000D51F000800000000D51F0008CD010008F2
:1000400000000000D51F0008D51F0008D51F0008BC
:10005000D51F0008D51F0008D51F0008D51F0008B0
:10006000D51F0008D51F0008D51F0008D51F0008A0
:10007000D51F0008D51F0008D51F0008D51F000890
:10008000D51F0008D51F000800000000D51F00087C
:10009000D51F0008D51F0008D51F0008D51F000870
:1000A000D51F0008D51F0008D51F0008D51F000860
:1000B000E903000800000000D51F00080000000050
:1000C000D51F000800000000D51F0008D51F00083C
:1000D000D51F000800000000000000000000000024
:1000E0000000000000000000D51F00080000000014
:1000F0000000000000000000000000000000000000
:10010000D51F00080000000000000000D51F0008F7
:1001100000000000000000000000000000000000DF
:1001200000000000000000000000000000000000CF
:1001300000000000000000000000000000000000BF
:10014000000000000000000000000000D51F0008B3
:1001500053B94AB9002908BF00281CBF4FF0FF312E
:100160004FF0FF3000F00CB8ADF1080C6DE904CE93
:1001700002F03EF8DDF804E0DDE9022304B0704748
:10018000704700BF074B591E1A5C095C41EA022107
:100190009A1E033B125C185C42EA012240EA0220EC
:1001A000704700BF2F0200204FF0E023054A5A613C
:1001B000054AF02182F8231000229A6107221A6171
:1001C000704700BF1E48010000ED00E0024A1368BE
:1001D00001331360704700BF68090020F8B5144B65
:1001E0006FF03A02D3F8E017D3F8AC07D3F8B06752
:1001F000D3F8B4774FF6FF73FFF7AAFF38461446DB
:100200001D466FF03A024FF6FF733146FFF7A0FF2D
:10021000084862406B400021013100F8012B06299B
:100220004FEA122242EA03624FEA1323F4D1F8BDE7
:1002300000F0FF1F6009002008B540F2115001F0E6
:10024000EBFC0823032200214FF0904001F02AFC30
:100250000823002202214FF0904001F001FCBDE88C
:100260000840082201214FF0904001F056BC08B52B
:1002700040F2115001F0D0FC0423032200214FF082
:10028000904001F00FFC0423002202214FF0904027
:1002900001F0E6FBBDE80840042201214FF0904048
:1002A00001F03BBC08B500221C20114601F066FCA1
:1002B000BDE8084040F2117001F0AEBC10B540F24C
:1002C000115001F0A9FC1023032200214FF09040AF
:1002D00001F0E8FBBDE810401023002201214FF09F
:1002E000904001F0BDBB10214FF0904001F013BCD5
:1002F000037810B55940044C044B5A5C4378615C58
:1003000042704B40037010BDC6250008C62400088B
:1003100073B5124C2246552102F8011B104908689A
:100320008988C4F8010091800122227262720D4A0C
:1003300000251288E571ADF80420264614F8011B4B
:1003400001A80135FFF7D4FF0A2DF7D19DF804303D
:10035000B3729DF80530F37202B070BD1802002030
:1003600060090020AC24000837B50C4B0C4C1D78FC
:100370000C4B65701B88ADF804305F2101A821701B
:10038000FFF7B6FF2946FFF7B3FF9DF80430A370CF
:100390009DF80530E37003B030BD00BF06000020BB
:1003A00028020020AC24000837B50C4B0C4C1D78FB
:1003B0000C4B65701B88ADF80430332101A8217007
:1003C000FFF796FF2946FFF793FF9DF80430A370CF
:1003D0009DF80530E37003B030BD00BF060000207B
:1003E00024020020AC240008F8B56549654801F0F6
:1003F000A1FD064640B1634840F2017101F07DFD68
:100400005F49604801F0ACFD5F495E4801F092FD34
:10041000074640B15B4840F2027101F06EFD5A4957
:10042000584801F09DFD5949564801F083FD0546A5
:1004300040B1544840F2037101F05FFD5349514807
:1004400001F08EFD52494F4801F074FD044640B161
:100450004C484FF4E06101F050FD4D49494801F02E
:100460007FFD4C49474801F065FDD0B1454840F259
:10047000037101F042FD4749424801F071FD72B637
:10048000454A00231360454A1360454A4FF4807182
:100490001180444A138062B6434A1370434A137072
:1004A00005E03E4335432C43E4B2002CE7D14049FC
:1004B000344801F03FFD10B3394A1388DBB13749A6
:1004C00030480C68013B1380631C5A42D2B2DBB245
:1004D00058BF53420B6001F00CFD364B23F814005B
:1004E000324B01221A70344B1A68344B1A602D4A71
:1004F0001388013313802E49224801F031FD304921
:10050000204801F017FDC0B12E4D2F4B2C881B88C1
:10051000A34226D94FF49672B4FBF2F302FB1343C5
:100520009BB22A4A174832F81310013401F0DDFC5F
:100530002C802349134801F013FD2549114801F08F
:10054000F9FCE0B10F48062101F0E9FC10214FF061
:10055000904001F0E0FABDE8F8401D49094801F07B
:10056000FFBC0848072101F0DAFC0648062101F02B
:10057000CCFC0E4A00231370164A1370D9E7F8BD5D
:1005800000020107004400400002020700020307C6
:100590000800000705000307580700205C0700203B
:1005A0000A000020540700202E0300203D030020F5
:1005B00005000507600700206809002038030020B7
:1005C00007000707FA040020F8040020FC040020BC
:1005D000060006073C03002010B5174C204601F02A
:1005E00005FC2046042101F078FC2046082101F09A
:1005F0006CFC2046052101F088FC20464FF4007178
:1006000001F083FC2046082101F07FFC20460B49C5
:1006100001F008FC2046002101F03AFC20460021B0
:1006200001F042FC2046002101F026FC2046BDE8F6
:10063000104001F045BC00BF0044004040420F00A4
:100640002DE9F04F764B1A8885B0002A31D072B66A
:100650001A88013A1A8062B67248734F01684B1CBF
:100660005A42D2B2DBB258BF534203606F4B33F8E9
:1006700011403B78002B58D1FF2C14D8AA2CE1B2A2
:100680001AD16B49032008706A496B480B706B499B
:100690000B706B4B01221A70FF233A70037043708A
:1006A0002146FFF725FE72B6664A13880133138090
:1006B00062B605B0BDE8F08FCC290FD102223A70A6
:1006C0005B4A13705B4A5C4813705C4A13705C4B66
:1006D00001221A70FF2303704370E2E7AF2901D1B2
:1006E0000322ECE7A02901D10422E8E7552905D12E
:1006F00005223A704E4A0B201070E3E7332904D1EB
:1007000005223A7003204A4AF6E75F2906D10523FD
:100710003B70474B03221A700023D3E75029C2D104
:1007200006233B700222424BF5E7013B052BBAD86A
:10073000DFE813F03805C705F3040600E505EE050C
:100740003B4D2978B9B9404BFF2C1E7809D93A485E
:10075000FFF7CEFD16B13A4B00221A7001232B7021
:10076000A1E7E4B234482146FFF7C2FDA642F5D026
:10077000FF2CF3D0EFE70139082994D801A353F8EF
:1007800021F000BFA9070008C1070008A70600085C
:10079000A7060008A7060008A7060008EB07000840
:1007A0001312000855080008B4F5807F274B224833
:1007B00028BF0024E1B21970FFF79AFD0223CEE7AB
:1007C000FF2C1E4B08D900211B481970FFF790FD24
:1007D000174B08221A7066E7E1B217481970FFF745
:1007E00087FD002CF4D00723B9E712480378B4F54D
:1007F000807F28BF0024FF22B3FBF2F21A440133AA
:10080000DDB2E1B202F0FF02114C05700A48A154BA
:10081000FFF76EFD094B1B78AB427FF444AFD7E77F
:1008200054070020580700202E03002060070020F6
:100830002D0300202C030020010000202B030020AA
:10084000000000200A000020060000201602002000
:100850002C020020D14BD24A4FF0000883F80080D0
:100860001278D04B5B78002A00F0C381B4F5807F0A
:1008700028BF44469C4240F0BC81CB4BCB49CC4A7C
:100880001B780978B2F900200091002B00F0AB81B1
:100890008A4200F0A881C74C94F80090B9F1F50F96
:1008A00040F0AA81C44B93F800B0BBF1FF0F00F0F9
:1008B0009A81C24A1388002B00F09581C049C14E2D
:1008C000D1F800A0013B13800AF10103B8EB030249
:1008D00002F01F0203F01F0358BF53420B60BA4BD4
:1008E000BA4A1D881288ADF80C204FF4967403A8FC
:1008F0005021FFF7FDFCB5FBF4F204FB125292B25B
:100900005021B1545946FFF7F3FC6A1C92B2B2FB76
:10091000F4F104FB112292B206F802B0DFF8C0B283
:100920009BF800100191FFF7E3FCAA1C92B2B2FB06
:10093000F4FC04FB1C22019992B2B15401318BF8F2
:1009400000101321FFF7D4FCEA1C92B2B2FBF4F1C1
:1009500004FB112292B21321B1544946FFF7C8FC9F
:100960002A1D92B2B2FBF4F104FB112292B20121D2
:1009700006F80290FFF7BCFC6A1D92B2B2FBF4F1DC
:1009800004FB112292B24FF00109414606F8029091
:10099000FFF7AEFCAA1D92B2B2FBF4F104FB1122E8
:1009A00092B23B2106F80280FFF7A2FCEA1D92B248
:1009B000B2FBF4F104FB112292B23B21B1540D21A0
:1009C000FFF796FC05F1080292B2B2FBF4F104FBCA
:1009D000112292B20D21B1544946FFF789FC05F16D
:1009E000090292B2B2FBF4F104FB112292B2414629
:1009F00006F80290FFF77CFC05F10A0292B2B2FB06
:100A0000F4F104FB112292B2672106F80280FFF78D
:100A10006FFC05F10B0292B2B2FBF4F104FB112260
:100A200092B26721B1546421FFF762FC05F10C0218
:100A300092B2B2FBF4F104FB112292B26421B154E0
:100A40003321FFF755FC05F10D0292B2B2FBF4F130
:100A500004FB112292B24FF03308322106F80280D3
:100A6000FFF746FC05F10E0292B2B2FBF4F104FB73
:100A7000112292B23221B1546621FFF739FC05F1FF
:100A80000F0292B2B2FBF4F104FB112292B2662182
:100A9000B1544146FFF72CFC05F1100292B2B2FBB3
:100AA000F4F104FB112292B2414606F80280FFF7EE
:100AB0001FFC05F1110292B2B2FBF4F104FB11220A
:100AC00092B2302106F80280FFF712FC05F1120203
:100AD00092B2B2FBF4F104FB112292B23021B15474
:100AE0006B21FFF705FC05F1130292B2B2FBF4F1A2
:100AF00004FB112292B26B21B1543821FFF7F8FBAD
:100B000005F1140292B2B2FBF4F104FB112292B28D
:100B10003821B1547521FFF7EBFB05F1150292B2B4
:100B2000B2FBF4F104FB112292B27521B1543621CB
:100B3000FFF7DEFB05F1160292B2B2FBF4F104FB03
:100B4000112292B23621B15405F1170292B2B2FBD2
:100B5000F4F104FB112292B29DF80C10B15405F18E
:100B6000180292B2B2FBF4F104FB112292B2164BBE
:100B70009DF80D10B15405F119021A80144B23F899
:100B80001A50144B192203F80A20134B102203F8B1
:100B90000A20124A13884B4424E000BF3D03002082
:100BA00000000020010000202B030020160200207E
:100BB000040000202C020020060000200800002075
:100BC00074040020400300203E030020AC240008F1
:100BD000B804002098040020780400206C04002051
:100BE000170200201380B94B01221A70B84B009AEB
:100BF0001A8000233B7056E5B9F1FB0FF3D1012BAE
:100C00000BD1BFF34F8FB349B34BCA6802F4E06214
:100C10001343CB60BFF34F8FFEE7072BE3D9B4F844
:100C20000110002940F01181182BDCD1AB4BE27987
:100C30001970B4F80510A37AB1F56C5FD3D10D2A01
:100C4000D1D1012BCFD194F80CB094F80DA094F829
:100C50000E9094F80F8094F810E094F811C0A67CE0
:100C6000E57C207D617DA27DE37DBBF1670FBAD17C
:100C7000BAF1640FB7D1B9F1330FB4D1B8F1320F73
:100C8000B1D1BEF1660FAED1BCF1330FABD1332E73
:100C9000A9D1302DA7D16B28A5D13829A3D1752A88
:100CA000A1D1362B9FD172B600F06AFE202000F051
:100CB0007DFE102000F07AFE042000F077FE8848C8
:100CC00000F098FE202000F071FE102000F06EFE73
:100CD000042000F06BFE00F061FE62B6B4F8033051
:100CE000804A5BBA1380804B4FF00209A3F8009052
:100CF0007E4B93F800A0BAF1FF0F00F0A2807C4A6F
:100D00001388002B00F09D807A49DFF804B2D1F8F7
:100D10000080BBF80050784E013B138008F10103BE
:100D20005A4202F01F0203F01F0358BF53420B60E8
:100D3000724B4FF4967403A81B88ADF80C30502109
:100D4000FFF7D6FAB5FBF4F304FB13539BB2502222
:100D50005146F254FFF7CCFA6B1C9BB2B3FBF4F292
:100D600004FB12339BB206F803A0DFF8A8A19AF89F
:100D700000100191FFF7BCFA05EB09039BB2B3FB2E
:100D8000F4F204FB123301999BB2F15401318AF859
:100D900000100321FFF7ACFAEB1C9BB2B3FBF4F29B
:100DA00004FB12339BB20322FB21F254FFF7A0FA9B
:100DB0002B1D9BB2B3FBF4F204FB12339BB2FB225C
:100DC0000021F254FFF794FA6B1D9BB2B3FBF4F2CF
:100DD00004FB12339BB200224946F254FFF788FA13
:100DE000AB1D9BB2B3FBF4F204FB12339BB206F8CB
:100DF0000390EB1D9BB2B3FBF4F204FB12339BB2E6
:100E00009DF80C20F25405F108039BB2B3FBF4F2F9
:100E100004FB12339BB29DF80D20F25405F1090337
:100E2000ABF80030364B23F81850364B092203F844
:100E30000820354B102203F80820344A1388013368
:100E40001380264B01221A70CDE6274E4DBA328808
:100E5000ADB2AA427FF4C7AED4F803801F48DC1FAE
:100E60000022C4F38504B1F5807F027098FA88F8F7
:100E700004F1FF3450D1154624E04FEA850909F109
:100E80000700FFF77FF9064672B600F079FD2020D3
:100E900000F08CFD102000F089FD042000F086FD9C
:100EA000314609EB080000F0C1FD202000F07EFD76
:100EB000102000F07BFD042000F078FD00F06EFDB6
:100EC00062B60135A542D8DD8DE600BF31030020B2
:100ED0000400002000ED00E00400FA0510020020EC
:100EE0000028000814020020120200200600002042
:100EF000080000207404002040030020AC240008F7
:100F0000B804002098040020780400206C0400201D
:100F10003E03002017020020C8F30903D3B972B6BC
:100F200000F02EFD202000F041FD102000F03EFDDD
:100F3000042000F03BFD404600F05CFD202000F066
:100F400035FD102000F032FD042000F02FFD00F0F0
:100F500025FD62B64FF00009A14540F3B780B44BC0
:100F60001B88AB42B34B93F800A01ABF0135ADB25A
:100F70000125BAF1FF0F35803FF463AFAE4A138805
:100F8000002B3FF45EAFAD49DFF8E8B2D1F8009036
:100F9000BBF80060DFF8E082013B138009F1010338
:100FA0005A4202F01F0203F01F0358BF53420B6066
:100FB000A34B4FF4967403A81B88ADF80C30502156
:100FC000FFF796F9B6FBF4F304FB13639BB25022D0
:100FD000514608F80320FFF78BF9731C9BB2B3FB53
:100FE000F4F204FB12339BB208F803A0DFF88CA2E2
:100FF0009AF800100191FFF77BF9B31C9BB2B3FB89
:10100000F4F204FB123301999BB208F8031001318A
:101010008AF800100321FFF76BF9F31C9BB2B3FBB6
:10102000F4F204FB12339BB20322FB2108F80320E5
:10103000FFF75EF9331D9BB2B3FBF4F204FB1233EE
:101040009BB24FEA152AFB22514608F80320FFF70E
:101050004FF9731D9BB2B3FBF4F204FB12339BB246
:10106000EDB2294608F803A0FFF742F9B31D9BB281
:10107000B3FBF4F204FB12339BB208F80350F31DE8
:101080009BB2B3FBF4F204FB12339BB29DF80C202D
:1010900008F8032006F108039BB2B3FBF4F204FB4B
:1010A00012339BB29DF80D2008F8032006F10903C6
:1010B000ABF80030634B23F81960634B092203F847
:1010C0000920624B102203F80920B6E64FEA890B8B
:1010D0000BF10700FFF756F8824672B600F050FC9D
:1010E000202000F063FC102000F060FC042000F0E1
:1010F0005DFC51460BEB080000F098FC202000F04E
:1011000055FC102000F052FC042000F04FFC00F0D1
:1011100045FC62B609F101091EE74D4B1978C9B9C2
:10112000444BFF2C1D7805D94A48FFF7E1F865B913
:10113000FFF74EBBE4B247482146FFF7D9F8A54276
:101140003FF446ABFF2C3FF443AB434B00221A70F5
:10115000FFF73EBB082907D13E4BB4F5807F1B78D3
:1011600028BF0024A3425BE009297FF49CAA3B4BE3
:10117000394900221A700978364B5B7800293FF410
:1011800038ADB4F5807F28BF14469C427FF431AD62
:10119000334B197800293FF42CAD324901200870F7
:1011A0001A7026E52A4E3378032B23D12E4F294877
:1011B0003D780622B5FBF2F302FB1353DBB22B4A58
:1011C000B4F5807FD35C28BF0024E1B28B4218BF06
:1011D000214B05F1010518BF0022EDB218BF1A70AE
:1011E000FFF786F8062D3D707FF45DAA002333706B
:1011F000FFF759BA5BB9B4F5807F1D4B154828BF7E
:101200000024E1B21970FFF773F80823EFE7082B09
:1012100036D1104BB4F5807F1B7828BF00249C4248
:101220001EBF0D4B00221A70094B0922FFF7D2BADC
:101230001402002006000020080000207404002092
:10124000AC240008B8040020980400207804002092
:101250002D03002001000020000000203D0300209D
:101260002F030020300300202C0300206009002001
:10127000160200203E030020400300201702002039
:10128000092B7FF410AA2A4B2A4A00251D701278D8
:10129000294B5B78002A3FF4ACACB4F5807F28BFC3
:1012A0002C469C427FF4A5AC244B1A78244B1A7030
:1012B000FFF75AF8FFF778F8224B01221D70224BF6
:1012C0006EE7224B197800293FF42AAF0829A0D0F5
:1012D00009297FF4E8A9164B00221A70154A164B0B
:1012E00012785B78002A3FF484ACB4F5807F28BF85
:1012F00000249C427FF47DAC114BFF2250E7134A3F
:101300001378012B7FF675AC013B1370FFF7CBB957
:101310000E4A1378012BF7D8FF2C98BF02344FF0F8
:10132000050394BFE4B202243B701470FFF7BBB90D
:101330003D030020000000200100002016020020D4
:1013400006000020310300200C0000202D030020A7
:10135000714B2DE9F74F1B78704F3C78002B40F014
:10136000AD80002C40F0AA806D4B6E4D1B786E4E08
:10137000FF2B00F0B9806D4B1A78E2B110214FF0CD
:1013800090401C7000F0C5FB694A6A4B11781980C7
:10139000517859809178D2789980DA80664B674885
:1013A00004221A80664B07211C8000F0AEFD3368D2
:1013B0002B6001233B70D6F800A02B68AAEB030337
:1013C000012B58D95F490B88002B54D05E4ADFF8B7
:1013D00098B114681BF80490B9F1000F7FD05B48F6
:1013E00030F8140001905A4890F80080B8F1000FCE
:1013F00014D04FF0000C013B01340B8080F800C08A
:10140000BCEB040303F01F0304F01F0458BF5C424D
:101410001460504A1388013313802CE04E4B4FF078
:1014200090401B5D0093102100F073FB424BDFF8EE
:1014300004C1A3F80080009BDFF830E15A1E4FF48E
:10144000967043469A423CDAB8F1000F02D03A4B0C
:10145000009A1A803A4B3948002207211A8009F174
:10146000FF3900F052FD3D4A0BF804900123137040
:10147000C5F800A03B7033682A689B1AB3F57A7FE1
:101480001CD910214FF0904000F043FB344A294B07
:1014900011781980517859809178D278DA809980C2
:1014A000254B04221A80264B2448002207211A804B
:1014B00000F02BFD33682B6001233B7003B0BDE8C7
:1014C000F08F01995918B1FBF0F800FB18114FF09B
:1014D00001081EF801102CF813100133B2E7013B8C
:1014E00001340B8063428DE733682A689B1AB3F599
:1014F0007A7FE3D910214FF0904000F00AFB194A9F
:101500000C49234612F8010B21F8130001330C2B70
:10151000F8D1094A1380C6E73D0300203C030020B0
:101520000600002034030020680900203103002059
:1015300028020020FC040020F804002000440040A1
:10154000FA0400206C04002070040020B80400207D
:101550003003002008000020980400202F03002002
:1015600024020020180200207804002040030020FC
:101570000D4B0E4A19681368CB1A012B10B511D9FF
:1015800072B60B48002303600A4803600A484FF410
:10159000807404800948038062B6094811600370B2
:1015A0000848037010BD00BF680900203803002000
:1015B000580700205C0700200A0000205407002084
:1015C0002E0300203D0300204B4B1B782DE9F347F1
:1015D000002B00F08E80494B93F80090B9F1FF0F7B
:1015E00000F08780464A1388002B00F0828045492E
:1015F000DFF830810F68B8F80050434E013B13808C
:101600007B1C5A4202F01F0203F01F0358BF5342D3
:101610000B603E4B4FF4967401A81B88ADF8043064
:101620005021FEF765FEB5FBF4F304FB13539BB2A8
:1016300050224946F254FEF75BFE6B1C9BB2B3FB93
:10164000F4F204FB12339BB206F80390DFF8D89053
:1016500099F800A05146FEF74BFEAB1C9BB2B3FBC2
:10166000F4F204FB12339BB2012106F803A00AF145
:10167000010A89F800A0FEF73BFEEB1C9BB2B3FB0E
:10168000F4F204FB12339BB20122F254204B93F884
:1016900000904946FEF72CFE2B1D9BB2B3FBF4F2E3
:1016A00004FB12339BB206F803906B1D9BB2B3FB95
:1016B000F4F204FB12339BB29DF80420F254AB1DEC
:1016C0009BB2B3FBF4F204FB12339BB29DF80520EE
:1016D000F254EB1DA8F800300E4B23F817500E4BB8
:1016E0000722DA550D4B1022DA550D4A13880133C3
:1016F000138002B0BDE8F0870C0000200600002037
:10170000080000207404002040030020AC240008DE
:1017100007000020B804002098040020780400206E
:101720006C0400203E03002017020020064BD3F873
:101730000028013207D072B6D3F8002882F3088857
:10174000D3F8043818477047002000085A4B1B781C
:101750002DE9F74F002B00F0AC80584B93F800A018
:10176000BAF1FF0F00F0A580554A1388002B00F056
:10177000A0805449DFF86C81B1F800905249B8F864
:1017800000500F68514E013B13807B1C5A4202F0FF
:101790001F0203F01F0358BF53420B604C4B4FF422
:1017A000967401A81B88ADF804305021FEF7A0FD07
:1017B000B5FBF4F304FB13539BB250225146F25491
:1017C000FEF796FD6B1C9BB2B3FBF4F204FB1233E5
:1017D0009BB206F803A0DFF810A19AF800B05946B2
:1017E000FEF786FDAB1C9BB2B3FBF4F204FB123395
:1017F0009BB2032106F803B00BF1010B8AF800B08D
:10180000FEF776FDEB1C9BB2B3FBF4F204FB123344
:101810009BB20322FB21F254FEF76AFD2B1D9BB203
:10182000B3FBF4F204FB12339BB24FEA192AFB22FA
:101830005146F254FEF75CFD6B1D9BB2B3FBF4F214
:1018400004FB12339BB25FFA89F9494606F803A0FC
:10185000FEF74EFDAB1D9BB2B3FBF4F204FB12335B
:101860009BB206F80390EB1D9BB2B3FBF4F204FBB2
:1018700012339BB29DF80420F25405F108039BB289
:10188000B3FBF4F204FB12339BB29DF80520F25433
:1018900005F10903A8F800300E4B23F817500E4B42
:1018A0000922DA550D4B1022DA550D4A13880133FF
:1018B000138003B0BDE8F08F100200200600002066
:1018C00008000020120200207404002040030020C1
:1018D000AC240008B80400209804002078040020FC
:1018E0006C0400203E0300201702002008B5FEF71C
:1018F0005BFCFEF773FCFEF79FFCFEF7B8FCFEF7FF
:10190000D1FCFEF7DBFCFEF7EEFCFEF701FDFEF777
:101910002BFDFEF749FDBDE80840FEF75DBE000067
:101920002DE9F0470025DFF848802F462E4643F684
:10193000972940F6B73AD8F80040A31BB3F5FA6FE1
:1019400002D3FFF741FE2646E31B4B4502D9FFF7C2
:10195000EDFE2746631B534502D9FFF7F7FE2546E8
:10196000FEF76EFEFFF7F4FCFFF702FEE3E700BFB1
:101970006809002008B5FFF7B9FFFFF7D1FF0000A5
:10198000044B1A69120641BF034A5A6002F18832B9
:101990005A6070470020024023016745024A1369DC
:1019A00043F080031361704700200240014BD86070
:1019B000704700BF00200240074BDA68D10707D408
:1019C000DA68D20606D4D868C0F3800040007047B9
:1019D00001207047032070470020024010B50446E4
:1019E000FFF7EAFF012804F1FF3402D1002CF7D100
:1019F000042010BD38B505464FF47020FFF7EEFF08
:101A000088B9094C236943F00203236165612369A6
:101A100043F0400323614FF47020FFF7DFFF236999
:101A200023F00203236138BD0020024070B5054653
:101A30004FF470200E46FFF7D1FF68B9074C2369B9
:101A400043F0010323614FF470202E60FFF7C6FFBF
:101A5000236923F00103236170BD00BF0020024011
:101A60002DE9F0430568C46800264FF0010E4FF0E1
:101A700003080EFA06F71F420DD0770008FA07FC9C
:101A800001FA07F925EA0C0524EA0C0402FA07F723
:101A900049EA05053C430136102EEAD10560C460D1
:101AA000BDE8F08301294168F0B50CBF19439943A3
:101AB0004FF6FF744160A242816815D1C46B0022C9
:101AC00001274FF0030C07FA02F61E421CBF550017
:101AD0000CFA05F502F101021CBF29433443102A18
:101AE000F1D18160C463F0BD002401274FF0030CE5
:101AF00007FA04F51D4207D065000CFA05F621EA45
:101B0000060102FA05F529430134102CF0D1816059
:101B1000E9E78161704781627047F0B5066A456AFE
:101B200000234FF0010C4FF00F0E0CFA03F4144297
:101B300007D09C000EFA04F726EA070601FA04F41F
:101B400026430133082BF0D100234FF0010C4FF056
:101B50000F0E03F108040CFA04F4144207D09C00A1
:101B60000EFA04F725EA070501FA04F425430133C8
:101B7000082BEED106624562F0BD000010B51D4C89
:101B8000E36803F4E063B3F5A06F08D020D8B3F5A1
:101B9000407F26D0B3F5806F26D0174BE360022339
:101BA0001C46C4F10404A140C3F104040F23E34024
:101BB0001340124A0B431B011118DBB281F80033AA
:101BC0004109012300F01F00834042F8213010BD7D
:101BD000B3F5C06F0BD0B3F5E06FDED10423002462
:101BE000DFE700230424DCE701230324D9E70323F0
:101BF0000124D6E700ED00E00005FA0500E100E071
:101C000021F06041034B21F07F0101439960BFF354
:101C10004F8F704700ED00E0830903F1804303F527
:101C2000043300F01F001968012282400A431A6041
:101C30007047830903F1804303F5043300F01F006C
:101C40001A680121814022EA01021A607047FFF7F9
:101C5000E3BFFFF7EEBF0000F0B55D4B89B005466E
:101C600004AC03F110061F4618685968224603C2E7
:101C70000833B3421446F7D1716838696B4603C321
:101C800003C354494B68C3F38103022B44D14A6810
:101C90004868CB6A0601C2F383424FEAD37334D457
:101CA000002B30D102324B68C86ADC0332D5CB6AD4
:101CB000400003F00F0354BF474848480133B0FBCE
:101CC000F3F35A434B68C3F3031320336B4413F805
:101CD000104C4B68C3F3022320336B4422FA04F404
:101CE00013F8206C4B68C3F3C22320336B4413F802
:101CF000183C24FA03F0062D10D8DFE805F0641232
:101D0000141017464F002132CDE70BB91132CAE744
:101D10003132C8E7324BD4E72F4AD3E7002009B06D
:101D2000F0BD2046FBE724FA06F0F8E70B6BDA0576
:101D300007D40B6B2B4813F4803F2B4B08BF18467E
:101D4000EDE74A680B6BC2F38132022A4FEAD37384
:101D50000FD0032A14D0012A06D00BB94008DEE7C1
:101D60000320B4FBF0F0DAE70BB98008D7E70520D1
:101D7000F7E71BB90623B0FBF3F0D0E70720F0E745
:101D80000BB9C008CBE70920EBE70B6B13F0400F52
:101D900048F2120018BF4FF40040C0E70B6B9B07DE
:101DA000BDD00B6B03F00303012B0CD00B6B03F0C6
:101DB0000303022B09D00B6B074803F00303032B2B
:101DC00018BF0020ABE71046A9E74FF40040A6E794
:101DD000AE2400080010024000127A00006CDC0201
:101DE00000093D00003FAB01809FD50008B50C4BBA
:101DF00098420DD003F57443984210D140F20E3052
:101E0000FFF725FF40F20E30BDE80840FFF721BF85
:101E100040F21140FFF71BFF40F21140F4E708BD0C
:101E20000044004038B5134B984204460D4618D084
:101E300003F57443984216D10620FFF70DFF226880
:101E400012044FEA550310D503EB4003B3FBF5F141
:101E5000C1F3420321F00F010904090C0B43E360B5
:101E600038BD0220E9E70020E9E70344B3FBF5F3BE
:101E70009BB2F4E700440040036823F001030360D1
:101E8000036823F4C063036003680B430360704777
:101E9000036823F001030360036823F480530360A5
:101EA00003680B4303607047036823F0010303607A
:101EB000436823F44053436043680B4343607047D7
:101EC000036843F0010303607047036823F00803CD
:101ED000036003680B4303607047036823F0040347
:101EE000036003680B4303607047C1F3080181621C
:101EF0007047406AC0F308007047026A01F01F0192
:101F000001238B401343036270478A0910B501F027
:101F10001F01145801238B402343135010BD10B5EB
:101F20008C090122235801F01F018A4023EA020391
:101F3000235010BDC1F3891310B51C588B0D1A58CE
:101F4000C1F30440012303FA00F0104006D001F071
:101F50001F018B40234214BF0120002010BD000050
:101F6000084B994206D1D0F8D03023F40043C0F892
:101F7000D0307047026AC1F3044101238B40134300
:101F80000362704709340F34DFF830D0002103E0DA
:101F90000B4B5B58435004310A480B4B42189A4292
:101FA000F6D30A4A02E0002342F8043B084B9A4267
:101FB000F9D300F011F8FFF7DDFC704710020020A4
:101FC000D826000800000020100000201002002089
:101FD0006C090020FEE700007E4BDA6902F0060281
:101FE000062A82B047D0DA69900444D57A4A7B4900
:101FF00059605A6099609A601A6942F020021A6129
:102000001A6942F040021A61DA68D107FCD41A69F1
:1020100022F020021A611A6942F010021A61DA698C
:1020200012F0060F6E4A40F0C780A5231380694B5B
:102030006B4AD969090A01F0DF015180D969C1F3FE
:1020400007419180D969090ED180196AC9B21181FD
:10205000196AC1F307215181DA68D207FCD41A69E1
:1020600022F010021A611A6922F400721A611A69C8
:1020700042F080021A615B4AD2F8883043F4700360
:10208000C2F88830584B1A6842F001021A601A6888
:102090009007FCD55A6842F080025A6000220192F3
:1020A000019A4F2A40F290805A6842F090025A609A
:1020B00000220192019A4F2A40F289805A6822F048
:1020C00003025A601A6822F0867222F480321A6083
:1020D0005968464A0A405A605A6822F0084222F477
:1020E00074125A60DA6A22F0404222F00F02DA6279
:1020F0001A6B22F4817222F001021A631A6B22F425
:1021000080321A631A6B22F000421A635A6B22F073
:1021100001025A63D3F8C02022F48032C3F8C020F1
:1021200000229A60C3F8CC201A6842F480321A6008
:102130004FF400621968890301D4013AFAD11A6890
:10214000900333D55A685A605A6842F400525A6074
:102150005A6842F480625A605A6822F0036222F49C
:1021600070225A60DA6A22F0404222F00F02DA62EC
:102170005A6842F0016242F480325A60DA6A42F0F0
:102180000102DA62DA6ADA621A6842F080721A6070
:102190001A689101FCD55A6822F003025A605A6805
:1021A00042F002025A605A681207FCD500214FF033
:1021B000006002B0FFF724BDDB6903F00603022BC9
:1021C0007FF435AFBB2331E7019A013267E7019A0B
:1021D00001326EE700200240AB89EFCD2301674555
:1021E00000F8FF1F00ED00E0001002400C00FF08A7
:1021F0002DE9F047089D0C46002B4ED194468C45A6
:102200008646B2FA82F262D94AB1C2F12003914005
:1022100020FA03F30CFA02FC194300FA02FE4FEA1B
:102220001C471FFA8CF6B1FBF7F44FEA1E4307FB7D
:10223000141143EA014304FB06F199420AD91CEB4D
:10224000030304F1FF3080F01381994240F21081C2
:10225000023C6344591A1FFA8EF3B1FBF7F007FBF7
:10226000101143EA014300FB06F69E420AD91CEB1B
:10227000030300F1FF3180F0FD809E4240F2FA80BE
:10228000634402389B1B40EA044000211DB1D34047
:102290000022C5E90032BDE8F0878B4205D90DB1B7
:1022A000C5E9000100210846F5E7B3FA83F10029EA
:1022B00046D1A34202D39042C0F0F180861A64EB6B
:1022C00003030120002DE6D0C5E90063E3E7002AFF
:1022D00040F09180A1EB0C044FEA1C481FFA8CF7E8
:1022E0000121B4FBF8F64FEA1E4308FB164443EA0B
:1022F000044307FB06F0984208D91CEB030306F1E0
:10230000FF3402D2984200F2CE8026461C1A1FFAF1
:102310008EF3B4FBF8F008FB104443EA044300FBDF
:1023200007F79F4208D91CEB030300F1FF3402D2E8
:102330009F4200F2B1802046DB1B40EA0640A5E741
:10234000C1F120068B4022FA06F71F4320FA06FC53
:1023500004FA01F343EA0C03F44000FA01F8380CE4
:102360004FEA1349B4FBF0FE1FFA87FC00FB1E4442
:1023700049EA04440EFB0CF9A14502FA01F20AD91C
:102380003C190EF1FF3A80F08580A14540F2828031
:10239000AEF1020E3C44A4EB09041FFA83F9B4FB2E
:1023A000F0F300FB134449EA044403FB0CFCA4458E
:1023B00007D93C1903F1FF3068D2A44566D9023B26
:1023C0003C4443EA0E40A0FB0293A4EB0C049C4265
:1023D000CE469C4652D34FD055B1B8EB0E0364EBBA
:1023E0000C0404FA06F6CB40CC401E43C5E9006459
:1023F0000021BDE8F087C2F1200320FA03F10CFAB6
:1024000002FC24FA03F394400C434FEA1C4800FA00
:1024100002FE1FFA8CF7B3FBF8F008FB1031230C17
:1024200043EA014300FB07F1994208D91CEB03037F
:1024300000F1FF362CD299422AD9023863445B1A44
:10244000A4B2B3FBF8F108FB113344EA034401FBE7
:1024500007F3A34208D91CEB040401F1FF3613D2A1
:10246000A34211D902396444E41A41EA004138E731
:102470000446EFE6084605E7C845ADD2B9EB020EC3
:1024800063EB070C0138A7E73146EDE7034698E711
:102490003046D4E7D6467EE7634402384CE706462A
:1024A000234608460EE7023E63442FE7FFFF000085
:1024B00000000000000001020304060708090000F4
:1024C00000000102030400C0C101C30302C2C6062A
:1024D00007C705C5C404CC0C0DCD0FCFCE0E0ACA5C
:1024E000CB0BC90908C8D81819D91BDBDA1A1EDEAC
:1024F000DF1FDD1D1CDC14D4D515D71716D6D2125C
:1025000013D311D1D010F03031F133F3F23236F66B
:10251000F737F53534F43CFCFD3DFF3F3EFEFA3A1B
:102520003BFB39F9F83828E8E929EB2B2AEAEE2EAB
:102530002FEF2DEDEC2CE42425E527E7E62622E21B
:10254000E323E12120E0A06061A163A3A26266A66B
:10255000A767A56564A46CACAD6DAF6F6EAEAA6ADB
:102560006BAB69A9A86878B8B979BB7B7ABABE7E2B
:102570007FBF7DBDBC7CB47475B577B7B67672B2DB
:10258000B373B17170B0509091519353529296566B
:102590005797559594549C5C5D9D5F9F9E5E5A9A9B
:1025A0009B5B99595898884849894B8B8A4A4E8E2B
:1025B0008F4F8D4D4C8C448485458747468682429B
:1025C00043834181804000C1814001C0804101C0FE
:1025D000804100C1814001C0804100C1814000C1F3
:1025E000814001C0804101C0804100C1814000C1E3
:1025F000814001C0804100C1814001C0804101C0D3
:10260000804100C1814001C0804100C1814000C1C2
:10261000814001C0804100C1814001C0804101C0B2
:10262000804100C1814000C1814001C0804101C0A2
:10263000804100C1814001C0804100C1814000C192
:10264000814001C0804101C0804100C1814000C182
:10265000814001C0804100C1814001C0804101C072
:10266000804100C1814000C1814001C0804101C062
:10267000804100C1814001C0804100C1814000C152
:10268000814001C0804100C1814001C0804101C042
:10269000804100C1814001C0804100C1814000C132
:1026A000814001C0804101C0804100C1814000C122
:1026B000814001C0804100C1814001C0804101C012
:0826C000804100C181400000CF
:0426C800F8B500BFA2
:0426CC00F8B500BF9E
:0826D00020FBFF7F0100000068
:1026D80001FFFF00FFFFFFF22000000101000000E2
:0400000508001F8947
:020000040800F2
:1028000068030020B5B9000801BA000801BA000841
:1028100001BA000801BA000801BA0008000000006F
:1028200000000000000000000000000001BA0008E5
:1028300001BA00080000000001BA0008B929000828
:102840000000000001BA000801BA000801BA00083F
:1028500001BA000801BA000801BA000801BA00086C
:1028600001BA000801BA00081DA9000801BA000851
:1028700001BA000801BA000801BA000801BA00084C
:1028800001BA000801BA00080000000001BA0008FF
:1028900001BA00082158000801BA0008795500085B
:1028A00001BA000801BA000801BA0008F968000876
:1028B000E92B00080000000001BA00080000000039
:1028C000E55600080000000001BA000801BA00083F
:1028D00001BA000800000000000000000000000035
:1028E000000000000000000001BA00080000000025
:1028F00000000000000000000000000000000000D8
:1029000001BA0008000000000000000001BA000841
:1029100000000000000000000000000000000000B7
:1029200000000000000000000000000000000000A7
:102930000000000000000000000000000000000097
:1029400000000000000000000000000001BA0008C4
:1029500053B94AB9002908BF00281CBF4FF0FF3106
:102960004FF0FF3000F00CB8ADF1080C6DE904CE6B
:1029700009F054F9DDF804E0DDE9022304B0704702
:10298000704700BF02440346934200D1704703F8EA
:10299000011BF9E74FF0E023054A5A61054AF0218F
:1029A00082F8231000229A6107221A61704700BF43
:1029B0001E48010000ED00E0024A13680133136075
:1029C000704700BFAC1F0020F8B5144B6FF03A02FF
:1029D000D3F8E017D3F8AC07D3F8B067D3F8B477DF
:1029E0004FF6FF73FFF7B4FF384614461D466FF0ED
:1029F0003A024FF6FF733146FFF7AAFF08486240DC
:102A00006B400021013100F8012B06294FEA122208
:102A100042EA03624FEA1323F4D1F8BD00F0FF1F2E
:102A2000A41F002008B503494FF0006008F088FBA0
:102A300062B608BD0028000808B540F2115008F041
:102A40008BFB0823032200214FF0904008F0BCF9D3
:102A50000823002202214FF0904008F093F9BDE8CE
:102A60000840082201214FF0904008F0EEB908B567
:102A700040F2115008F070FB0423032200214FF0B4
:102A8000904008F0A1F90423002202214FF0904069
:102A900008F078F9BDE80840042201214FF0904089
:102AA00008F0D3B908B500221C20114608F006FB37
:102AB000BDE8084040F2117008F04EBB10B540F27E
:102AC000115008F049FB1023032200214FF09040E1
:102AD00008F07AF9BDE810401023002201214FF0E0
:102AE000904008F04FB910214FF0904008F0A5B980
:102AF000037810B55940044C044B5A5C4378615C30
:102B000042704B40037010BD98CC000898CB000871
:102B100073B5124C2246552102F8011B1049086872
:102B20008988C4F8010091800122227262720D4AE4
:102B300000251288E571ADF80420264614F8011B23
:102B400001A80135FFF7D4FF0A2DF7D19DF8043015
:102B5000B3729DF80530F37202B070BD5C180020AE
:102B6000A41F00206CBF000837B50C4B0C4C1D781F
:102B70000C4B65701B88ADF804305F2101A82170F3
:102B8000FFF7B6FF2946FFF7B3FF9DF80430A370A7
:102B90009DF80530E37003B030BD00BF5C0100203C
:102BA0006C1800206CBF000837B50C4B0C4C1D781E
:102BB0000C4B65701B88ADF80430332101A82170DF
:102BC000FFF796FF2946FFF793FF9DF80430A370A7
:102BD0009DF80530E37003B030BD00BF5C010020FC
:102BE000681800206CBF0008F8B56549654808F012
:102BF000B7FE064640B1634840F2017108F093FE0B
:102C00005F49604808F0C2FE5F495E4808F0A8FED0
:102C1000074640B15B4840F2027108F084FE5A4911
:102C2000584808F0B3FE5949564808F099FE054641
:102C300040B1544840F2037108F075FE53495148C1
:102C400008F0A4FE52494F4808F08AFE044640B1FD
:102C50004C484FF4E06108F066FE4D49494808F0E1
:102C600095FE4C49474808F07BFED0B1454840F2FC
:102C7000037108F058FE4749424808F087FE72B6D3
:102C8000454A00231360454A1360454A4FF480715A
:102C90001180444A138062B6434A1370434A13704A
:102CA00005E03E4335432C43E4B2002CE7D14049D4
:102CB000344808F055FE10B3394A1388DBB1374960
:102CC00030480C68013B1380631C5A42D2B2DBB21D
:102CD00058BF53420B6008F022FE364B23F8140015
:102CE000324B01221A70344B1A68344B1A602D4A49
:102CF0001388013313802E49224808F047FE3049DB
:102D0000204808F02DFEC0B12E4D2F4B2C881B887B
:102D1000A34226D94FF49672B4FBF2F302FB13439D
:102D20009BB22A4A174832F81310013408F0F3FD19
:102D30002C802349134808F029FE2549114808F042
:102D40000FFEE0B10F48062108F0FFFD10214FF003
:102D5000904008F072F8BDE8F8401D49094808F0B5
:102D600015BE0848072108F0F0FD0648062108F0C6
:102D7000E2FD0E4A00231370164A1370D9E7F8BD1E
:102D8000000201070044004000020207000203079E
:102D900008000007050003079C1D0020A01D00205F
:102DA00060010020981D0020721900208119002068
:102DB00005000507A41D0020AC1F00207C19002081
:102DC000070007073E1B00203C1B0020401B002083
:102DD000060006078019002010B5174C204608F0A1
:102DE0001BFD2046042108F08EFD2046082108F036
:102DF00082FD2046052108F09EFD20464FF400711B
:102E000008F099FD2046082108F095FD20460B4961
:102E100008F01EFD2046002108F050FD204600214C
:102E200008F058FD2046002108F03CFD2046BDE892
:102E3000104008F05BBD00BF0044004040420F005E
:102E40002DE9F04F764B1A888BB0002A31D072B63C
:102E50001A88013A1A8062B6724801684B1C5A42BD
:102E6000D2B2DBB258BF534203606F4A6F4B33F8A4
:102E700011401378002B58D1FF2C14D8AA2CE1B2A2
:102E80001AD1012111706A4A03201070694A6A48F8
:102E900013706A4A13706A4B1970FF2303704370F2
:102EA0002146FFF725FE72B6664A13880133138068
:102EB00062B60BB0BDE8F08FCC290FD102201070A4
:102EC0005B4A13705B4A5C4813705C4A13705C4B3E
:102ED00001221A70FF2303704370E2E7AF2901D18A
:102EE0000320ECE7A02901D10420E8E7552905D10A
:102EF000052010704E4A0B201070E3E7332904D1EF
:102F0000052010704A4A0320F6E75F2906D1052301
:102F10001370474B03221A700023D3E75029C2D104
:102F200006231370424B0222F5E7013B052BBAD86A
:102F3000DFE813F04A0DA20DDD0C0600C80DD10D1F
:102F40003B4D2978B9B9404BFF2C1E7809D93A4836
:102F5000FFF7CEFD16B13A4B00221A7001232B70F9
:102F6000A1E7E4B234482146FFF7C2FDA642F5D0FE
:102F7000FF2CF3D0EFE70139082994D801A353F8C7
:102F800021F000BFA92F0008C12F0008A72E0008BC
:102F9000A72E0008A72E0008A72E0008EB2F000878
:102FA0006D49000855300008B4F5807F274B224852
:102FB00028BF0024E1B21970FFF79AFD0223CEE783
:102FC000FF2C1E4B08D900211B481970FFF790FDFC
:102FD000174B08221A7066E7E1B217481970FFF71D
:102FE00087FD002CF4D00723B9E712480378B4F525
:102FF000807F28BF0024FF22B3FBF2F21A44013382
:10300000DDB2E1B202F0FF02114C05700A48A15492
:10301000FFF76EFD094B1B78AB427FF444AFD7E757
:10302000981D00209C1D002072190020A41D002066
:103030007119002070190020570100206F1900201D
:1030400056010020600100205C0100205A18002079
:1030500070180020A34AA449002313700978A34ADA
:10306000527800297ED0B4F5807F28BF1C46944258
:1030700078D19F4A9F4914789F4A0978B2F9002075
:103080000591002C68D08A4266D09C4D2E78F42E93
:103090006BD19B4A1372137582F8203082F82C3062
:1030A000984A1388002B45D09749DFF890820F6823
:1030B000B8F80040954D013B13807B1C5A4202F04A
:1030C0001F0203F01F0358BF53420B60904B09A827
:1030D0001B88ADF82430A521FFF70AFDC4F30803CF
:1030E000A5220121EA54FFF703FD631CC3F3080383
:1030F00001223146EA54FFF7FBFCA31CC3F308038B
:103100009DF82420EE54E31CC3F30803EA54231D66
:10311000C3F308039DF82520EA54631DA8F8003086
:103120007C4B23F817407C4B0522DA557B4A1388E9
:10313000013313807A4A002313707A4A13607A4A63
:1031400001211170794A517301330A2B02F11002E7
:10315000F9D1774B00221A60764B01221A70664B28
:10316000059A1A80744B002234E7482E3AD82F2E45
:10317000F2D9303E182EEFD801A353F826F000BF45
:10318000253200085931000859310008593100082A
:1031900059310008593100085931000859310008E7
:1031A00059310008593100085931000859310008D7
:1031B00059310008593100085931000859310008C7
:1031C000AF340008233400083D35000801390008F9
:1031D000533A0008E73D00080D3F0008DF400008B3
:1031E0008D42000806F10E03DBB2092BB4D8F23E83
:1031F000092EB1D801A353F826F000BFED33000823
:103200005931000859310008E545000859310008D6
:10321000593100085931000859310008413300087C
:10322000D7480008374A1388002B95D03649434FBA
:103230000E683D88DFF8D480013B1380731C5A422E
:1032400002F01F0203F01F0358BF53420B60304BC4
:10325000A5211B88ADF8243009A804F1FF39FFF738
:1032600047FC5FFA89F9C5F30803A522494608F827
:103270000320FFF73DFC6B1CC3F30803012208F891
:1032800003901E4B02F1010B55FA8BFA9145CAF3DC
:10329000080A1ADA9DF8243008F80A30A31C55FAF7
:1032A00083F3C3F3080303349DF8252008F80320B3
:1032B00055FA84F33B80174B23F81650164B9C5558
:1032C000164A13880133138046E713F8011F09A833
:1032D000CDE90113FFF70CFC019908F80A10029BD5
:1032E0005A46CFE7811900205601002057010020DF
:1032F0006F1900205A1800205A0100207018002071
:103300009415002040010020841200207E1000202F
:103310006CBF0008A8120020881200207E12002036
:103320007803002070030020790300207C00002037
:103330007403002075190020721900207C100020F1
:10334000022C7FF409AFB14A1388002B3FF404AF7D
:10335000AF49DFF8F892D1F80080B9F80060AD4FBE
:10336000013B138008F101035A4202F01F0203F0EF
:103370001F0358BF53420B60A74B09A81B88ADF829
:103380002430A521FFF7B4FBC6F30803A52221468C
:10339000FA54FFF7ADFB731CC3F30803FA21FC5486
:1033A000FFF7A6FB6C78B31CC3F30803FA2221468F
:1033B000FA54FFF79DFBF31CC3F308039DF8242088
:1033C000FC54331DC3F30803FA54731DC3F30803FD
:1033D0009DF82520FA54B31DA9F800308F4B23F82F
:1033E00018608F4B062203F8082069E70B2C7FF446
:1033F000B3AE8C498C4A9FED8D7A002311F8010FF2
:1034000007EE900AF8EE677A013367EE877A0A2BA7
:10341000C2ED027A02F11002F0D1854B00221A703F
:103420009AE6022C7FF498AE6B78013BDBB2092B55
:103430003FF692AE7F4A804CDFF814E20C2101FB8C
:103440000322282000FB03F7002100264FF07E55C1
:103450001160556016724FF0200CE21904F807C095
:10346000DFF8F0C1C2F820E011615561C2F818C060
:10347000D16182F82560012210FB03231A19E6545A
:103480004FF0FF10FF23A2F80130C2F80300D37100
:103490006A4A1320D319D05540F2011219615D61B7
:1034A000C3F818C0D9611A6283F8256054E6022C6B
:1034B0007FF452AE6B78013BDBB2092B3FF64CAE8A
:1034C0005C4A5D4EDFF88CE10C2101FB03222820D1
:1034D00000FB03F500214FF07E540027116054607B
:1034E00017724FF0200C721906F805C0DFF860C1A2
:1034F000C2F820C04FF0010C10FB03C311615461EE
:10350000C2F818E0D16182F825709A19F7544FF08B
:10351000FF10FF23A2F80130C2F80300D371474A1D
:1035200003205319505540F2011219615C61C3F830
:1035300018E0D9611A6283F825C00DE6083CE4B2B0
:103540000C2C3FF609AE6B780193591EC9B20929BC
:103550003FF602AEEB783848029301EB81072B79F6
:103560000393FF006B7995F8069095F8078095F81E
:1035700002A004937E1C3518002383510744304E6B
:103580006B60AB603846A342B8BFF55C03F1010342
:10359000A8BF00250C2B00F8015FF4D1DDED027A05
:1035A0009FED287A2448049AF8EE677AF7EE006ACD
:1035B00077EEA67A282487EE276A4C430319161E55
:1035C000055D00F804A018BF0126012483F82140FE
:1035D00083F82060DDED037A83ED066AB8EE677A42
:1035E000DFED197A37EE677A27EE067A83ED077AF0
:1035F000B9F1000F30D183F82290B8F1000F00F03C
:103600003D8183F8239040F2011439E1400100200C
:10361000841200207E1000206CBF0008A812002039
:1036200088120020701800207C0000208180803BE0
:103630006201002004000020040D0020740B002013
:10364000781800200AD7233E000000437C10002099
:10365000010101000AD7233DB8F1000618BF012679
:10366000AA4583F825605C8483F8244040F00981F2
:10367000984B93F800B0BBF1FF0F3FF46DAD964946
:103680000B88002B3FF468AD944C954E013B0B80AA
:1036900023680793591C484200F01F0001F01F01E6
:1036A00058BF41428F4B21608F491D880988ADF872
:1036B00024104FF4967409A85021FFF719FAB5FBAE
:1036C000F4F104FB115189B24FF0500C06F801C01F
:1036D0005946FFF70DFA691C89B2B1FBF4FC04FBF3
:1036E0001C1189B206F801B0DFF810B29BF8001087
:1036F0000691FFF7FDF905F1020C1FFA8CFCBCFBEB
:10370000F4FE04FB1ECC06991FFA8CFC06F80C1084
:1037100001318BF800101421FFF7EAF9E91C89B296
:10372000B1FBF4FC04FB1C1189B24FF0140C06F839
:1037300001C04221FFF7DCF9291D89B2B1FBF4FC7D
:1037400004FB1C1189B24FF0420C06F801C001992C
:10375000FFF7CEF9691D89B2B1FBF4FC04FB1C1123
:1037600089B2019B73545146FFF7C2F9A91D89B272
:10377000B1FBF4FC04FB1C1189B206F801A002990C
:10378000FFF7B6F9EA1D92B2B2FBF4F104FB112285
:1037900092B2029B0399B354FFF7AAF905F108020C
:1037A00092B2B2FBF4F104FB112292B2039B049992
:1037B000B354FFF79DF905F1090292B2B2FBF4F19F
:1037C00004FB112292B2049BB3544946FFF790F9CF
:1037D00005F10A0292B2B2FBF4F104FB112292B29B
:1037E000414606F80290FFF783F905F10B0292B209
:1037F000B2FBF4F104FB112292B205F10C0906F8B8
:103800000280079B05F118081FFA89F91FFA88F84A
:1038100017F801AF0193514609A8FFF769F9B9FB01
:10382000F4F204FB129209F1010992B21FFA89F92C
:10383000C84506F802A0019BEAD1B8FBF4F204FBEC
:1038400012881FFA88F89DF8242006F8082005F150
:10385000190292B2B2FBF4F104FB112292B29DF86C
:103860002510B1541F4905F11A020A801F4A22F897
:1038700013501F4A1A21D1541E4AA1E283F8238013
:103880009C841D4B03EB011300241B7907EE903A37
:10389000F8EE677A282377EEE67A67EE877AF5EE18
:1038A000C07AF1EE10FA07DD03FB010377EEA67A8A
:1038B0001C61C3ED057ADBE651BF03FB010003FB8E
:1038C0000103C3ED047AC3ED056A5CBF0461C0ED7A
:1038D000056ACDE65C0100205E010020B81A0020D8
:1038E00084190020821900206CBF0008FC1A0020F7
:1038F000DC1A0020BC1A00207C0000205B1800208D
:10390000022C7FF429AC95F8019009F1FF33DBB26A
:10391000092B3FF621AC924A282101FB0323002208
:1039200083F821208F4B93F800A0BAF1FF0F3FF4EA
:1039300013AC8D4A1388002B3FF40EAC8B49DFF893
:1039400058B2D1F80080BBF80060894F013B13806A
:1039500008F101035A4202F01F0203F01F0358BF8F
:1039600053420B60834B4FF4967509A81B88ADF842
:1039700024305021FFF7BCF8B6FBF5F305FB1363C9
:103980009BB250225146FA54FFF7B2F8731C9BB217
:10399000B3FBF5F205FB12339BB207F803A0DFF887
:1039A000FCA19AF800100191FFF7A2F8B31C9BB29A
:1039B000B3FBF5F205FB123301999BB2F9540131C7
:1039C0008AF800102146FFF793F8F31C9BB2B3FB73
:1039D000F5F205FB12339BB24321FC54FFF788F844
:1039E000331D9BB2B3FBF5F205FB12339BB24322AE
:1039F000FA544946FFF77CF8731D9BB2B3FBF5F20E
:103A000005FB12339BB207F80390B31D9BB2B3FBC7
:103A1000F5F205FB12339BB29DF82420FA54F31DF6
:103A20009BB2B3FBF5F205FB12339BB29DF8252048
:103A3000FA5406F10803ABF800304F4B23F8186036
:103A40004E4B082203F808204D4B102203F80820A3
:103A5000B8E1083CE4B20C2C3FF67EAB6B780193E6
:103A6000591EC9B209293FF677AB01EB8107EB7804
:103A700044480293FF002B7995F8069095F807804B
:103A800095F802A003937E1C6B79049335180022ED
:103A9000825107443C4E6A60AA6038469442C8BFCF
:103AA000B55C02F10102D8BF00250C2A00F8015FC5
:103AB000F4D1DDED027A9FED357A3248049BF8EEC1
:103AC000677AF7EE006A77EEA67A282487EE276AEF
:103AD0004C4302191E1E055D00F804A018BF012604
:103AE000012482F8214082F82060DDED037A82ED26
:103AF000066AB8EE677ADFED267A37EE677A27EE48
:103B0000067A82ED077AB9F1000F49D182F8229046
:103B1000B8F1000F1ED182F8238094841D4A02EB75
:103B200001120024137907EE903AF8EE677A282202
:103B300077EEE67A67EE877AF5EEC07AF1EE10FA64
:103B400040F3438102FB010277EEA67A1461C2EDD5
:103B5000057A30E082F8239040F20114DDE700BFDF
:103B6000040D00205C0100205E010020B81A002036
:103B7000841900206CBF0008FC1A0020DC1A002009
:103B8000BC1A0020740B0020781800200AD7233EAE
:103B9000000000437C000020821900205B180020F8
:103BA000B8F1000618BF0126AA4582F825605484A2
:103BB00082F82440B2D1C84A92F800B0BBF1FF0F9E
:103BC0003FF4CAAAC5490A88002A3FF4C5AAC44CD2
:103BD000C44BC54E1D88013A0A8022680792511CC9
:103BE000484200F01F0001F01F0158BF4142216010
:103BF000BE490988ADF824104FF4967409A85021E5
:103C0000FEF776FFB5FBF4F104FB115189B24FF0DA
:103C1000500C06F801C05946FEF76AFF691C89B2CC
:103C2000B1FBF4FC04FB1C1189B206F801B0DFF80B
:103C3000D4B29BF800100691FEF75AFF05F1020C72
:103C40001FFA8CFCBCFBF4FE04FB1ECC06991FFA89
:103C50008CFC06F80C1001318BF800101421FEF7D3
:103C600047FFE91C89B2B1FBF4FC04FB1C1189B2CB
:103C70004FF0140C06F801C04421FEF739FF291D4E
:103C800089B2B1FBF4FC04FB1C1189B24FF0440C67
:103C900006F801C00199FEF72BFF691D89B2B1FB3F
:103CA000F4FC04FB1C1189B2019B73545146FEF7CE
:103CB0001FFFA91D89B2B1FBF4FC04FB1C1189B2E2
:103CC00006F801A00299FEF713FFEB1D9BB2B3FBB0
:103CD000F4F104FB11339BB2029A0399F254FEF7FC
:103CE00007FF05F108039BB2B3FBF4F104FB1133AA
:103CF0009BB2039A0499F254FEF7FAFE05F1090308
:103D00009BB2B3FBF4F104FB11339BB2049AF2545F
:103D10004946FEF7EDFE05F10A039BB2B3FBF4F151
:103D200004FB11339BB2414606F80390FEF7E0FE18
:103D300005F10B039BB2B3FBF4F104FB11339BB20F
:103D400005F10C0906F80380079A05F118081FFA17
:103D500089F91FFA88F817F801AF0192514609A8AE
:103D6000FEF7C6FEB9FBF4F304FB139309F1010956
:103D70009BB21FFA89F9C84506F803A0019AEAD157
:103D8000B8FBF4F304FB13881FFA88F89DF824307D
:103D900006F8083005F119039BB2B3FBF4F104FBFC
:103DA00011339BB29DF82510F1544E4905F11A03C9
:103DB0000B804F4B23F812504E4B1A2199544E4B07
:103DC000102199544D4AFFF77CBA51BF02FB010004
:103DD00002FB0102C2ED047AC2ED056A5CBF046118
:103DE000C0ED056AE7E6022C7FF4B6A995F80190CC
:103DF00009F1FF33DBB2092B3FF6AEA9404A282177
:103E000001FB0323002283F82120334B93F800A009
:103E1000BAF1FF0F3FF4A0A9304A1388002B3FF4FA
:103E20009BA92F49DFF8BCB0D1F80080BBF8006037
:103E30002D4F013B138008F101035A4202F01F028B
:103E400003F01F0358BF53420B60284B4FF4967585
:103E500009A81B88ADF824305021FEF749FEB6FBB7
:103E6000F5F305FB13639BB250225146FA54FEF75B
:103E70003FFE731C9BB2B3FBF5F205FB12339BB202
:103E800007F803A0DFF87CA09AF800100191FEF774
:103E90002FFEB31C9BB2B3FBF5F205FB1233019965
:103EA0009BB2F95401318AF800102146FEF720FE3A
:103EB000F31C9BB2B3FBF5F205FB12339BB2452119
:103EC000FC54FEF715FE331D9BB2B3FBF5F205FB68
:103ED00012339BB245228BE55C0100205E0100207D
:103EE000B81A002082190020841900206CBF000835
:103EF000FC1A0020DC1A0020BC1A0020B01A002096
:103F0000740B00205B1800208180803B052C7FF41F
:103F100023A995F801A00AF1FF32D2B2092A3FF68F
:103F20001BA995F80290EB781FED097A019307EE33
:103F3000909AF8EE677AC84B95F8048067EE877A16
:103F40000C2101FB0233C3ED007ADDED017AF8EEBE
:103F5000677AB8F1000267EE877A18BF0122C3EDD5
:103F6000017A1A72BD4B93F800B0BBF1FF0F3FF41A
:103F7000F3A8BB4A1388002B3FF4EEA8B948BA4F08
:103F8000013B1380036803935A1C514201F01F0147
:103F900002F01F0258BF4A420260B449B44A09887D
:103FA0001688ADF824104FF4967509A85021FEF735
:103FB0009FFDB6FBF5F105FB116189B24FF0500C86
:103FC00007F801C05946FEF793FD711C89B2B1FB99
:103FD000F5FC05FB1C1189B207F801B0DFF8A8B2A7
:103FE0009BF800100291FEF783FD06F1020C1FFA08
:103FF0008CFCBCFBF5FE05FB1ECC02991FFA8CFC69
:1040000007F80C1001318BF800102146FEF770FD07
:10401000F11C89B2B1FBF5FC05FB1C1189B27C5483
:104020004621FEF765FD311D89B2B1FBF5F405FBB4
:10403000141189B246247C545146FEF759FD711D76
:1040400089B2B1FBF5F405FB141189B207F801A0A0
:104050004946FEF74DFDB11D89B2B1FBF5F405FBF4
:10406000141189B207F801900199FEF741FDF11D85
:1040700089B2B1FBF5F405FB141189B2019B7B54A5
:104080004146FEF735FD06F1080189B2B1FBF5F0B6
:1040900005FB101189B2764A07F8018006F1090183
:1040A00089B2B1FBF5F005FB101189B29DF824002F
:1040B000785406F10A0189B2B1FBF5F005FB101145
:1040C00089B29DF82500785406F10B011180039BFD
:1040D000684A0B2122F81360674AFFF7CCBB032C18
:1040E0007FF43AA895F8019009F1FF33DBB2092B70
:1040F0003FF632A895F802809FED607A604A07EE9D
:10410000908AF8EE677A02EB031367EE877AC3EDC5
:10411000027A524B93F800A0BAF1FF0F3FF41CA8AB
:104120004F4A1388002B3FF417A84E494E4FD1F841
:1041300000B0013B13800BF101035A4202F01F0251
:1041400003F01F0358BF53420B60494B474A1E8878
:104150001288ADF824204FF4967509A85021FEF777
:10416000C7FCB6FBF5F205FB126292B25021B954BE
:104170005146FEF7BDFC721C92B2B2FBF5F105FB95
:10418000112292B207F802A0DFF8FCA09AF8001002
:104190000191FEF7ADFCB21C92B2B2FBF5FC05FB3F
:1041A0001C22019992B2B95401318AF800102146BB
:1041B000FEF79EFCF21C92B2B2FBF5F105FB112258
:1041C00092B24721BC54FEF793FC321D92B2B2FB6F
:1041D000F5F105FB112292B24721B9544946FEF789
:1041E00087FC721D92B2B2FBF5F105FB112292B26F
:1041F000414607F80290FEF77BFCB21D92B2B2FB7B
:10420000F5F105FB112292B2194B07F80280F21D5D
:1042100092B2B2FBF5F105FB112292B29DF8241087
:10422000B95406F1080292B2B2FBF5F105FB112276
:1042300092B29DF82510B95406F109021A800D4B6F
:1042400023F81B600C4B092203F80B200D4B1022A6
:1042500003F80B20B6E500BF040000205C0100203D
:104260005E010020B81A0020841900206CBF0008ED
:1042700082190020FC1A0020DC1A00208180803B7B
:104280007C000020BC1A00205B180020032C7EF666
:1042900063AF68780138C0B209283EF65DAFA978EF
:1042A00095F803908B1E012B40F2D3800B1F5A42CE
:1042B0005A419200BE4B03EB00154FEA001C6A7096
:1042C000002203F80C10154611469B461E798842C1
:1042D000A8BF2A46013135440A29EDB203F1100383
:1042E000F4D10BEB0C031B799945C0F0B4809945D0
:1042F00000F2EB806421B2FBF1F301FB13234A448B
:10430000D2B2013AE34492FBF1F601FB1622A9492D
:10431000A74EDFF8CCC28BF80490DDB201EB45016B
:104320000027042306EB00164FF0FF0EAA42778009
:1043300001F1020180F20A819F4B01221A709F4B0A
:104340001D78FF2D3EF408AF9D4A1388002B3EF4E4
:1043500003AF9C499C4FD1F80080013B138008F1CA
:1043600001035A4202F01F0203F01F0358BF5342D9
:104370000B60964B1E88964B4FF4967B1B88ADF8CE
:10438000243009A85021FEF7B3FBB6FBFBF20BFB70
:10439000126292B25021B9542946FEF7A9FB721C51
:1043A00092B2B2FBFBF10BFB112292B2BD54894DCC
:1043B00095F800A05146FEF79BFBB21C92B2B2FBEF
:1043C000FBF10BFB112292B2214607F802A00AF181
:1043D000010A85F800A0FEF78BFBF21C92B2B2FB3B
:1043E000FBF10BFB112292B24FF0000ABC54FF22EA
:1043F000B4FBF2F2144404F0FF04631E01930AF1CB
:104400000405019B56FA85F5ADB25345B5FBFBF1AA
:104410000BFB1155ADB280F2B5809DF824207A5582
:10442000621D56FA82F292B2B2FBFBF10BFB112233
:1044300092B29DF82530BB540634644A56FA84F390
:104440001380654B23F81860644B03F80840FFF7AE
:10445000FBBA03222EE709EB02016426C9B2B1FBC5
:10446000F6F706FB1711A3EB0907FFB2039709F153
:104470006307FF1AFFB2B7FBF6F806FB1877DFF801
:1044800034815FFA81FE08EB4E015FFA87FA0191F1
:104490000199F24501F102010191FFF628AF039F56
:1044A0007744B7FBF6F106FB1171029108EB41016D
:1044B000019F497807F8011C029918F811700199B9
:1044C0000EF1010E01F8027CE2E7C5F16405A9EBEB
:1044D0000301EDB2C9B2A94205D91D445FFA85F9BD
:1044E0004B45BFF407AF03F16301A9EB030EA1EB4A
:1044F000090113446425C9B2DBB2B1FBF5F6DFF85C
:10450000B480B3FBF5F705FB161105FB1733CEB2EC
:10451000DBB25FFA8EFE019308EB4601019BB342CA
:10452000A1F102013FF7E6AECF7806EB0E0A3B465B
:10453000BAFBF5F705FB17A708EB470A013E8AF817
:10454000013091F802A008F817A0E7E71CF8030073
:10455000003818BF012001F8010C581C90FBFEF830
:10456000C8EB0828A0EB080002331CF8000001F893
:10457000020C384487B293FBFEF0C0EB00201B1AFC
:104580000135D3E6BAF1030F08D1494609A8FEF771
:10459000AFFA494679550AF1010A30E7104B09A8EC
:1045A00013F80A100291FEF7A3FA0299F2E700BF8E
:1045B0007C000020940E00207A0300205C01002083
:1045C0005E010020B81A0020841900208219002002
:1045D0006CBF00085B180020FC1A0020DC1A0020C9
:1045E00070180020D14B93F80090B9F1FF0F3EF402
:1045F000B3ADCF4A1388002B3EF4AEADCD49DFF802
:1046000060830F68B8F80050CB4E013B13807B1CD1
:104610005A4202F01F0203F01F0358BF53420B60BF
:10462000C64B4FF4967409A81B88ADF8243050216E
:10463000FEF75EFAB5FBF4F304FB13539BB2502272
:104640004946F254FEF754FA6B1C9BB2B3FBF4F2EA
:1046500004FB12339BB206F80390DFF8089399F835
:1046600000A05146FEF744FAAB1C9BB2B3FBF4F238
:1046700004FB12339BB2132106F803A00AF1010ACE
:1046800089F800A0FEF734FAEB1C9BB2B3FBF4F2FE
:1046900004FB12339BB21322F521F254FEF728FAE1
:1046A0002B1D9BB2B3FBF4F204FB12339BB2F52239
:1046B0000021F254FEF71CFA6B1D9BB2B3FBF4F21F
:1046C00004FB12334FF000099BB2494606F80390F1
:1046D000FEF70EFAAB1D9BB2B3FBF4F204FB1233F0
:1046E0009BB23B2106F80390FEF702FAEB1D9BB24A
:1046F000B3FBF4F204FB12339BB23B220D21F254C4
:10470000FEF7F6F905F108039BB2B3FBF4F204FBE4
:1047100012339BB24FF00D09042106F80390FEF707
:10472000E7F905F109039BB2B3FBF4F204FB123382
:104730009BB204224946F254FEF7DAF905F10A0366
:104740009BB2B3FBF4F204FB12339BB2672106F871
:104750000390FEF7CDF905F10B039BB2B3FBF4F226
:1047600004FB12339BB267226421F254FEF7C0F9B6
:1047700005F10C039BB2B3FBF4F204FB12339BB2C2
:1047800064223321F254FEF7B3F905EB09039BB21F
:10479000B3FBF4F204FB12339BB24FF03309322126
:1047A00006F80390FEF7A4F905F10E039BB2B3FBE4
:1047B000F4F204FB12339BB232226621F254FEF76C
:1047C00097F905F10F039BB2B3FBF4F204FB12332C
:1047D0009BB266224946F254FEF78AF905F11003AE
:1047E0009BB2B3FBF4F204FB12339BB2494606F8CA
:1047F0000390FEF77DF905F111039BB2B3FBF4F2D0
:1048000004FB12339BB2302106F80390FEF770F9D7
:1048100005F112039BB2B3FBF4F204FB12339BB21B
:1048200030226B21F254FEF763F905F113039BB2BA
:10483000B3FBF4F204FB12339BB26B223821F25427
:10484000FEF756F905F114039BB2B3FBF4F204FB37
:1048500012339BB238227521F254FEF749F905F163
:1048600015039BB2B3FBF4F204FB12339BB2752227
:104870003621F254FEF73CF905F116039BB2B3FB67
:10488000F4F204FB12339BB23622F25405F1170303
:104890009BB2B3FBF4F204FB12339BB29DF82420CD
:1048A000F25405F118039BB2B3FBF4F204FB12338C
:1048B0009BB29DF82520F25405F11903A8F80030A9
:1048C0001F4B23F817501F4B1922DA551E4B10228D
:1048D000DA55FFF777BABFF34F8F1C491C4BCA68F4
:1048E00002F4E0621343CB60BFF34F8FFEE7194B36
:1048F0001978002938D10D4BFF2C1D7805D91648A1
:10490000FEF7F6F865B9FEF763BBE4B2124821463C
:10491000FEF7EEF8A5423EF45BABFF2C3EF458AB3D
:104920000E4B00221A70FEF753BB00BF5C01002043
:104930005E010020B81A0020841900206CBF000816
:10494000FC1A0020DC1A0020BC1A002000ED00E058
:104950000400FA05711900205701002056010020BB
:10496000821900205B18002008290ED1644BB4F591
:10497000807F1B7828BF00249C421EBF614B002211
:104980001A70614B0922FEF725BB09297EF48BAA18
:104990005E4B5C4900221A700978594B5B780029FC
:1049A0003EF4E0ABB4F5807F28BF14469C427EF411
:1049B000D9AB574B197800293EF4D4AB55490120A7
:1049C00008701A70FEF7CEBB4F4E3378032B23D1FD
:1049D000514F4B483D780622B5FBF2F302FB1353CF
:1049E000DBB24E4AB4F5807FD35C28BF0024E1B22D
:1049F0008B4218BF434B05F1010518BF0022EDB2F1
:104A000018BF1A70FEF774F8062D3D707EF44BAA9D
:104A100000233370FEF747BA5BB9B4F5807F404B93
:104A2000374828BF0024E1B21970FEF761F8082367
:104A3000EFE7082B9AD0092B7EF435AA334B314A85
:104A400000251D7012782E4B5B78002A3EF48AAB4D
:104A5000B4F5807F28BF2C469C427EF483AB304B5C
:104A60001A78304B1A70FEF77FF8FEF79DF82E4B40
:104A700001221D702D4BA4E7234B197800293FF428
:104A80003AAF082907D11E4BB4F5807F1B7828BFA9
:104A90000024A34271E709297EF405AA1B4B0022DA
:104AA0001A70184A164B12785B78002A3EF45AABFB
:104AB000B4F5807F28BF00249C427EF453AB194B91
:104AC000FF227EE7104A1378012B7EF64BAB013BA9
:104AD0001370FEF7E8B90C490B78012B03D9013BA1
:104AE0000B70FEF7E0B9FF2C98BF02344FF00503BE
:104AF00094BFE4B2022413700C70FEF7D4B900BF67
:104B00005701002056010020711900208119002052
:104B1000731900207419002070190020A41F0020B0
:104B20005A1800205C010020751900206201002045
:104B3000714B2DE9F74F1B78704F3C78002B40F0FC
:104B4000AD80002C40F0AA806D4B6E4D1B786E4EF0
:104B5000FF2B00F0B9806D4B1A78E2B110214FF0B5
:104B600090401C7006F067F9694A6A4B1178198009
:104B7000517859809178D2789980DA80664B67486D
:104B800004221A80664B07211C8006F0D4FE33688D
:104B90002B6001233B70D6F800A02B68AAEB03031F
:104BA000012B58D95F490B88002B54D05E4ADFF89F
:104BB00098B114681BF80490B9F1000F7FD05B48DE
:104BC00030F8140001905A4890F80080B8F1000FB6
:104BD00014D04FF0000C013B01340B8080F800C072
:104BE000BCEB040303F01F0304F01F0458BF5C4236
:104BF0001460504A1388013313802CE04E4B4FF061
:104C000090401B5D0093102106F015F9424BDFF830
:104C100004C1A3F80080009BDFF830E15A1E4FF476
:104C2000967043469A423CDAB8F1000F02D03A4BF4
:104C3000009A1A803A4B3948002207211A8009F15C
:104C4000FF3906F078FE3D4A0BF8049001231370FB
:104C5000C5F800A03B7033682A689B1AB3F57A7FC9
:104C60001CD910214FF0904006F0E5F8344A294B4A
:104C700011781980517859809178D278DA809980AA
:104C8000254B04221A80264B2448002207211A8033
:104C900006F051FE33682B6001233B7003B0BDE882
:104CA000F08F01995918B1FBF0F800FB18114FF083
:104CB00001081EF801102CF813100133B2E7013B74
:104CC00001340B8063428DE733682A689B1AB3F581
:104CD0007A7FE3D910214FF0904006F0ACF8194AE2
:104CE0000C49234612F8010B21F8130001330C2B59
:104CF000F8D1094A1380C6E78119002080190020E5
:104D00005C01002078190020AC1F002075190020DC
:104D10006C180020401B00203C1B00200044004079
:104D20003E1B0020B01A0020B41A0020FC1A0020FC
:104D3000741900205E010020DC1A00207319002085
:104D4000681800205C180020BC1A0020841900207C
:104D50000D4B0E4A19681368CB1A012B10B511D9E7
:104D600072B60B48002303600A4803600A484FF4F8
:104D7000807404800948038062B60948116003709A
:104D80000848037010BD00BFAC1F00207C19002034
:104D90009C1D0020A01D002060010020981D002007
:104DA00072190020811900204B4B1B782DE9F34725
:104DB000002B00F08E80494B93F80090B9F1FF0F63
:104DC00000F08780464A1388002B00F08280454916
:104DD000DFF830810F68B8F80050434E013B138074
:104DE0007B1C5A4202F01F0203F01F0358BF5342BC
:104DF0000B603E4B4FF4967401A81B88ADF804304D
:104E00005021FDF775FEB5FBF4F304FB13539BB281
:104E100050224946F254FDF76BFE6B1C9BB2B3FB6C
:104E2000F4F204FB12339BB206F80390DFF8D8903B
:104E300099F800A05146FDF75BFEAB1C9BB2B3FB9B
:104E4000F4F204FB12339BB2012106F803A00AF12D
:104E5000010A89F800A0FDF74BFEEB1C9BB2B3FBE7
:104E6000F4F204FB12339BB20122F254204B93F86C
:104E700000904946FDF73CFE2B1D9BB2B3FBF4F2BC
:104E800004FB12339BB206F803906B1D9BB2B3FB7D
:104E9000F4F204FB12339BB29DF80420F254AB1DD4
:104EA0009BB2B3FBF4F204FB12339BB29DF80520D6
:104EB000F254EB1DA8F800300E4B23F817500E4BA0
:104EC0000722DA550D4B1022DA550D4A13880133AB
:104ED000138002B0BDE8F087620100205C01002071
:104EE0005E010020B81A0020841900206CBF000861
:104EF0005D010020FC1A0020DC1A0020BC1A0020F2
:104F0000B01A0020821900205B18002008B540F27A
:104F1000115006F021F94FF48063032200214FF075
:104F2000904005F051FF4FF48063002202214FF0C2
:104F3000904005F027FFBDE808404FF4806204214F
:104F40004FF0904005F081BF08B540F2115006F0D7
:104F500003F94FF40073032200214FF0904005F055
:104F600033FF4FF40073002202214FF0904005F010
:104F700009FFBDE808404FF4007204214FF0904053
:104F800005F063BF10B50F4C40F2157006F0E4F861
:104F900020460D49002205F089FF00231A461946D4
:104FA000204606F005F8204606F021F800221146BA
:104FB000172006F083F8BDE81040012200212020D0
:104FC00006F07CB800540040801A060010B5134A61
:104FD000134B1178527819705A70124B124C0222EE
:104FE0001A60124BC4221A70114B01221A70114B15
:104FF0000022204640F209111A8006F00CF82046E3
:105000004FF4857106F007F820464FF4847106F0DE
:1050100002F82046BDE8104005F0EEBF5401002024
:105020005618002050180020005400405818002046
:105030005918002054180020134A002310B513708B
:10504000124A134C09211160124AC4211170124AEC
:105050001370124A20464FF48061138005F0B3FFAD
:10506000204640F2091105F0D6FF20464FF4857125
:1050700005F0D1FF20464FF4847105F0CCFF2046A7
:10508000BDE8104005F0B8BF4018002050180020BF
:1050900000540040581800205918002054180020CF
:1050A0002DE9F04F774B1B7887B0002B00F0E7809D
:1050B000754D9FED767AC2232B70754BDB885BBAFA
:1050C0009BB207EE903AF8EE677A67EE877AFCEECD
:1050D000E77A17EE903A9BB26B701B0AAB706D4B80
:1050E00093F80090B9F1FF0F00F09B806A4A138893
:1050F000002B00F096806948DFF8CCA1D0F800B012
:10510000674F013B13800BF10102514201F01F0177
:10511000644B02F01F0258BF4A420260624A1E8876
:105120001288ADF814204FF4967405A85021FDF7AD
:10513000DFFCB6FBF4F204FB126292B250210AF8D3
:1051400002104946FDF7D4FC721C92B297F8008019
:10515000B2FBF4F104FB112292B241460AF802902C
:10516000FDF7C6FCB21C92B2B2FBF4F104FB1122B3
:1051700092B203210AF8028008F1010887F8008042
:10518000FDF7B6FCF21C92B2B2FBF4F104FB112263
:1051900092B2032106F10408F71D0AF802101FFA63
:1051A00088F82A46BFB212F8011B05A8CDE9011202
:1051B000FDF79EFCB8FBF4F004FB108008F1010839
:1051C00080B21FFA88F801990AF800104745029A40
:1051D000E9D1B7FBF4F204FB1277BFB29DF81420BB
:1051E0000AF8072006F1080292B2B2FBF4F104FBC0
:1051F000112292B29DF815102A4B0AF8021006F1FE
:1052000009021A80294A22F81B60294A092102F85A
:105210000B10284A102102F80B10274A138801337B
:105220001380C0232B701A4BDFED246AB3F80330D0
:105230005BBA9BB207EE903AB8EE677ADFED207A60
:10524000E7EE267A9FED1F7A67EE877AF5EEC07A51
:10525000F1EE10FAA9BFFCEEE77A002317EE903AC0
:105260009BB26B70B9F1FF0F4FEA1323AB702DD1D6
:10527000074AC5232B7053786B701378AB7007B057
:10528000BDE8F08F401800204118002000401C3E6F
:10529000441800205C0100205E010020B81A0020A4
:1052A0005B180020821900206CBF0008FC1A002047
:1052B000DC1A0020BC1A0020B01A002000002F3B8E
:1052C000000034C20000C84284190020DFF8A0B2F8
:1052D000BBF80030002B00F097809B48DFF894A2C9
:1052E0009A4F013BABF80030036801935A1C5142BE
:1052F00001F01F01964B02F01F0258BF4A420260A4
:10530000944A1E881288ADF814204FF4967405A8AC
:105310005021FDF7EDFBB6FBF4F204FB126292B2F2
:1053200050210AF802104946FDF7E2FB721C92B2C6
:1053300097F80080B2FBF4F104FB112292B24146CF
:105340000AF80290FDF7D4FBB21C92B2B2FBF4F162
:1053500004FB112292B203210AF8028008F101082D
:1053600087F80080FDF7C4FBF21C92B2B2FBF4F1A7
:1053700004FB112292B203210AF8021006F104087C
:10538000F71D754A019B1FFA88F8BFB212F8011B7E
:10539000039305A8CDE90112FDF7AAFBB8FBF4F0D1
:1053A00004FB108008F1010880B21FFA88F8019907
:1053B0000AF800104745DDE90223E7D1B7FBF4F214
:1053C00004FB1277BFB29DF814200AF8072006F1FB
:1053D000080292B2B2FBF4F104FB112292B29DF8E2
:1053E00015100AF802105A4906F109020A805B4AB0
:1053F00022F813605A4A0921D1545A4A1021D15433
:10540000594A138801331380584AC5232B705378A7
:105410006B701378AB70BBF80030002B3FF42FAFEC
:1054200049494B4FD1F800A03E88DFF84881474CEE
:10543000013BABF800300AF101035A4202F01F02AF
:1054400003F01F0358BF53420B60424BDFF808B113
:105450001B88ADF814304FF4967505A85021FDF760
:1054600047FBB6FBF5F305FB13639BB2502249469D
:1054700008F80320FDF73CFB731C9BB2B3FBF5F26D
:1054800005FB12339BB208F8039094F8009049464C
:10549000FDF72EFBB31C9BB2B3FBF5F205FB1233F9
:1054A0009BB2032108F8039009F1010984F80090E8
:1054B000FDF71EFBF31C9BB2B3FBF5F205FB1233A9
:1054C0009BB20322341D06F1070908F80320A4B299
:1054D0001FFA89F91BF8011B019105A8FDF708FBCC
:1054E000B4FBF5F305FB134301349BB2A4B201995D
:1054F00008F803104C45EDD1B4FBF5F305FB13445C
:10550000A4B29DF8143008F8043006F108039BB2E9
:10551000B3FBF5F205FB12339BB29DF8152008F89A
:10552000032006F109033B800C4B23F81A600C4B57
:10553000092203F80A200B4B102203F80A200A4A1A
:105540001388013313809AE6B81A00205B180020F4
:10555000821900206CBF000841180020FC1A0020AE
:10556000DC1A0020BC1A0020B01A002044180020C9
:105570005E010020841900204E4B4F491B784F4894
:1055800070B5002B3FD005F05BFD40B16FF001021C
:105590004B4B4A481978BDE8704005F020BD494999
:1055A000464805F04DFD28B146494448BDE87040E5
:1055B00005F070BD4449414805F042FD70B1434DCE
:1055C000434B2C881B68A34209DD04F00103414AC8
:1055D0003A48D15C013405F019FD2C8070BD374884
:1055E00005F00FFD35484FF4847105F01EFD33487A
:1055F0004FF4857105F019FDBDE870402F4840F269
:10560000091105F012BD05F01BFD044608B1012289
:10561000BEE72C4929482E4E05F012FD054638B14B
:105620003368012BC0D12548214605F0CCFCBBE7EF
:1056300029492248346805F003FD0028CED0022C09
:105640001ED11E48294605F0BEFC204D1B48013CDA
:1056500034602C8805F0DCFC0923B4FBF3F303EB86
:10566000C303E31A1D4A1C499BB2082CD05404BF43
:105670001B4B012204F1010408BF1A702C8094E72F
:10568000012CE2D10D4805F0BCFC29460B4805F081
:10569000A0FC0A484FF4847105F0C7FC07484FF49A
:1056A000857105F0C2FC054840F2091105F0BDFC0A
:1056B000CBE700BF59180020090100050054004045
:1056C0005818002009010105090107055418002098
:1056D0005018002056180020090106054418002023
:1056E0004018002010B50F4C0F49204605F0D2FCA1
:1056F00020460E4905F0CEFC20460D4905F0CAFCB7
:1057000020460C4905F0C6FC20460B4905F0C2FCBA
:1057100020460A4905F0BEFC20460949BDE8104074
:1057200005F0B8BC0054004008010A0508010F0547
:1057300008010E0508010B05080109050801080507
:1057400008010C0510B540F2115005F005FD4FF4AD
:105750000043032201214FF0904005F035FBBDE8E6
:1057600010404FF40043002201214FF0904005F01B
:1057700009BB00001FB540F2116005F0EDFC1048B8
:1057800005F0D4FD0F4B104A1B68B3FBF2F3013B4D
:105790000022B3F5803F28BF1346ADF800306946BC
:1057A00009230748ADF80220019202938DF80C20DE
:1057B00005F010FE024805F09DFE05B05DF804FB03
:1057C000004401406401002040420F004FF40041BA
:1057D0004FF0904005F02FBB30B5421EC31D002096
:1057E00012F8014F082145086040C0074CBF85F002
:1057F0008C00284601394FEA5404F4D19A42EFD183
:1058000030BD000008B500221146152005F056FCF9
:10581000BDE808400148012105F073BE0044014085
:105820002DE9F041A748012105F074FE002800F0A1
:105830000182A54B1B78022B4ED1A44D2B78022B55
:105840001DD1A34A137873B94FF400414FF0904033
:1058500005F0F3FA9E4B01221A70BDE8F041994819
:10586000012105F060BE302B40F0CA804FF40041AA
:105870004FF0904005F0DFFA944B0322ECE7032B46
:1058800013D1934A1378372B40F0BA804FF400417C
:105890004FF0904005F0D3FA8C4B08B90422DBE7B7
:1058A0008C4A012111700E22D6E7042BD5D1884CE9
:1058B0002378612B7BD14FF400414FF0904005F0ED
:1058C000BEFA20B10023237005232B70C5E7814B5E
:1058D00002221A707D4BE6E7002B32D17B4B1B78FE
:1058E000002BBAD17A4D7C4F2C783B78CCB97B4ECB
:1058F0003478072C12D84FF400414FF0904005F057
:105900009CFA774B1B78234113F0010F0CBF072340
:10591000012301343B7034700123D6E76B4B052221
:105920009AE79C4208D14FF400414FF0904005F0B7
:1059300082FA01342C7090E7082CFAD1644B0022D3
:105940008AE7012B35D1614A1378012B85D1604C50
:105950002378002B3FF478AF012B08D14FF400419E
:105960004FF0904005F067FA594B022274E7022B82
:1059700014D14FF400414FF0904005F060FA574ABF
:10598000574913780D78003818BF012098402843F4
:10599000013313700870032323705EE7082B06D1D0
:1059A0004E4B1B78082BC9D10C231370C6E701336B
:1059B000F2E7032B7FF451AF444C2378022B3FF4E2
:1059C00040AF0B2B3FF649AF01A252F823F000BFC6
:1059D0002B5A00085B5800085B58000883580008E1
:1059E000075A00085B5800085B5800088B5A0008EB
:1059F000E95A00081F5B0008A75B0008D95B000894
:105A00000133137029E7324D2B78612B0BD14FF402
:105A100000414FF0904005F012FA00283FF457AFD4
:105A200000232B70B8E701334FE7294EDFF8A88039
:105A3000357898F80030D5B9284F3D78072D14D81F
:105A40004FF400414FF0904005F0F7F9244B1B78DC
:105A50002B4113F0010F0CBF0723012388F80030FE
:105A6000013501233D703370F7E6072394E79D422B
:105A700008D14FF400414FF0904005F0DCF90135BA
:105A80003570EAE6082DFAD158E7114D2B78002B36
:105A90003FF4DAAE012B3FF461AF022B0CD14FF48F
:105AA00000414FF0904005F0CAF90E4B003818BF86
:105AB00001201870032308E7082BB4D100222A70B4
:105AC0006AE700BF00440140331600204601002071
:105AD00030160020C4150020DA150020D91500204A
:105AE000DB150020CC150020534D2B78002B3FF404
:105AF000ABAE012B3FF432AF022B0AD14FF4004181
:105B00004FF0904005F09BF900384C4B18BF012036
:105B1000CFE7082B87D100232B7009233CE7484BA4
:105B20001878464B1D78C0B1002D7FF4F7AE454B79
:105B3000454A1978454B1B7803F00703D25C444D66
:105B4000287043480078002829D00A4301213E48A4
:105B5000C254404B19700A231EE73A4B3A4A19784F
:105B60003A4B1B7803F00703D25C002DE7D13A488B
:105B70003A4D00782D78A8420DD2114214BF01256C
:105B80000025334E3570002DDBD1354D08282870A7
:105B9000D7D8344DD4E70CBF01250025F1E722EA20
:105BA00001020721D3E7244D2B78002B3FF44CAEA4
:105BB000284A16789E4208D14FF400414FF0904099
:105BC000013605F038F92E7047E6082B7FF42BAF2D
:105BD00000232B700B23DFE61A481F4E0278337820
