:020000040800F2
:1000000008020020D11700081D1800081D1800085C
:100010001D1800081D1800081D1800080000000029
:100020000000000000000000000000001D18000893
:100030001D180008000000001D180008CD01000870
:10004000000000001D1800081D1800081D180008F9
:100050001D1800081D1800081D1800081D180008AC
:100060001D1800081D1800081D1800081D1800089C
:100070001D1800081D1800081D1800081D1800088C
:100080001D1800081D180008000000001D180008B9
:100090001D1800081D1800081D1800081D1800086C
:1000A0001D1800081D1800081D1800081D1800085C
:1000B000DD020008000000001D180008000000001C
:1000C0001D180008000000001D1800081D18000879
:1000D0001D180008000000000000000000000000E3
:1000E00000000000000000001D18000800000000D3
:1000F0000000000000000000000000000000000000
:100100001D18000800000000000000001D18000875
:1001100000000000000000000000000000000000DF
:1001200000000000000000000000000000000000CF
:1001300000000000000000000000000000000000BF
:100140000000000000000000000000001D18000872
:1001500053B94AB9002908BF00281CBF4FF0FF312E
:100160004FF0FF3000F00CB8ADF1080C6DE904CE93
:1001700001F062FCDDF804E0DDE9022304B0704721
:10018000704700BF074B591E1A5C095C41EA022107
:100190009A1E033B125C185C42EA012240EA0220EC
:1001A000704700BF110200204FF0E023054A5A615A
:1001B000054AF02182F8231000229A6107221A6171
:1001C000704700BF1E48010000ED00E0024A1368BE
:1001D00001331360704700BF68070020F8B5144B67
:1001E0006FF03A02D3F8E017D3F8AC07D3F8B06752
:1001F000D3F8B4774FF6FF73FFF7AAFF38461446DB
:100200001D466FF03A024FF6FF733146FFF7A0FF2D
:10021000084862406B400021013100F8012B06299B
:100220004FEA122242EA03624FEA1323F4D1F8BDE7
:1002300000F0FF1F6007002008B540F2115001F0E8
:100240000FF90823032200214FF0904001F052F8EB
:100250000823002202214FF0904001F029F8BDE868
:100260000840082201214FF0904001F07AB808B50B
:1002700040F2115001F0F4F80423032200214FF062
:10028000904001F037F80423002202214FF0904003
:1002900001F00EF8BDE80840042201214FF0904023
:1002A00001F05FB808B500221C20114601F08AF861
:1002B000BDE8084040F2117001F0D2B8037810B5E3
:1002C0005940044C044B5A5C4378615C42704B408B
:1002D000037010BD0E1E00080E1D0008F8B557492A
:1002E000574801F04BFA064640B1554840F20171BB
:1002F00001F027FA5149524801F056FA5149504845
:1003000001F03CFA074640B14D4840F2027101F05D
:1003100018FA4C494A4801F047FA4B49484801F05D
:100320002DFA054640B1464840F2037101F009FA42
:100330004549434801F038FA4449414801F01EFA62
:10034000044640B13E484FF4E06101F0FAF93F49FC
:100350003B4801F029FA3E49394801F00FFAB8B19B
:10036000374840F2037101F0ECF93949344801F0A3
:100370001BFA72B6374A00231360374A1360374AB4
:1003800020211180364A138062B6364A137005E088
:100390003E4335432C43E4B2002CEAD1324928488D
:1003A00001F0ECF908B32D4A1388D3B12A49244847
:1003B0000C68013B1380631C5A4202F01F0203F0D9
:1003C0001F0358BF53420B6001F0B7F9274B23F8C6
:1003D0001400274B1A68274B1A60214A13880133EF
:1003E00013802149164801F0DFF92349144801F030
:1003F000C5F910B3214D224B2C881B88A34214D978
:100400004FF49672B4FBF2F302FB13439BB21D4A06
:100410000B4832F81310013401F08BF92C80BDE841
:10042000F8401549064801F0BFB90548072101F019
:100430009AF9154B00221A70F1E7F8BD0002010786
:100440000044004000020207000203070800000702
:1004500005000307180700201C07002006000020E5
:10046000140700200F0300200500050720070020C7
:10047000680700201003002007000707BA040020C7
:10048000B8040020BC0400201403002038B51F4B22
:100490001F4C1A46F02102F8011B1E490868898882
:1004A000C3F801000025918020460122DD711A72F7
:1004B0005A7201F0BFF82046042101F032F92046BB
:1004C000082101F026F92046052101F042F92046D5
:1004D0004FF4007101F03DF92046082101F039F98F
:1004E00020464FF4E13101F0C1F82946204601F0E1
:1004F000F3F82946204601F0FBF82046294601F092
:10050000DFF82046BDE8384001F0FEB815030020B2
:1005100000440040600700203E4B2DE9F74F1A8849
:10052000002A2ED072B61A88013A1A8062B63A486A
:100530003A4F01684B1C5A4202F01F0203F01F039E
:1005400058BF53420360364B33F811403B78DBB958
:10055000A52C10D13349344801220A7033493A702E
:100560000B7033490B70334B21461A70FF23037015
:100570004370FFF7A3FE72B62F4A1388013313802E
:1005800062B603B0BDE8F08F012BF4D1254E33786D
:10059000012B13D1FF2C264B07D9002122481970BB
:1005A000FFF78CFE03233370E5E7E1B21E481970B4
:1005B000FFF784FE002CF5D00223F4E7022B19D1BB
:1005C0001A480378B4F5807F28BF0024FF22B3FBCC
:1005D000F2F21A440133DDB2E1B202F0FF02174C2D
:1005E00005701148A154FFF769FE114B1B78AB420F
:1005F000C1D1D7E7032B23D10B4BB4F5807F1B78F8
:1006000028BF00249C421EBF0A4B00221A700423FC
:10061000C9E700BF14070020180700200F030020BF
:100620002007002003000020010000200E0300200E
:100630000D03002000000020060000200E02002014
:10064000042B98D1BF49C04BC04A09781D78527815
:10065000002900F06381B4F5807F28BF0024944214
:1006600040F05C81002D00F05981B94C94F800A055
:10067000BAF1F50F40F05581B64A1388002B00F00F
:100680004D81B549DFF8F092D1F80080B9F80050FB
:10069000B24E013B138008F101035A4202F01F02DF
:1006A00003F01F0358BF53420B60AD4B4FF49674D9
:1006B00001A81B88ADF80430A521FFF7FFFDB5FBAD
:1006C000F4F304FB13539BB2A5221321F254FFF75A
:1006D000F5FD6B1C9BB2B3FBF4F204FB12339BB22F
:1006E00013225146F254FFF7E9FDAB1C9BB2B3FB5A
:1006F000F4F204FB12339BB2012106F803A0FFF7CA
:10070000DDFDEB1C9BB2B3FBF4F204FB12339BB296
:100710004FF0010B002106F803B0FFF7CFFD2B1DB2
:100720009BB2B3FBF4F204FB12339BB24FF0000A0E
:10073000352106F803A0FFF7C1FD6B1D9BB2B3FB8B
:10074000F4F204FB12339BB235220221F254FFF77C
:10075000B5FDAB1D9BB2B3FBF4F204FB12339BB2AD
:1007600002225946F254FFF7A9FDEB1D9BB2B3FBE1
:10077000F4F204FB12339BB2514606F803B0FFF7C4
:100780009DFD05F108039BB2B3FBF4F204FB1233A9
:100790009BB2672106F803A0FFF790FD05F109035E
:1007A0009BB2B3FBF4F204FB12339BB267226421C9
:1007B000F254FFF783FD05F10A039BB2B3FBF4F299
:1007C00004FB12339BB264223321F254FFF776FD0F
:1007D00005F10B039BB2B3FBF4F204FB12339BB2A3
:1007E0004FF0330A322106F803A0FFF767FD05F149
:1007F0000C039BB2B3FBF4F204FB12339BB2322224
:100800006621F254FFF75AFD05F10D039BB2B3FBCD
:10081000F4F204FB12339BB266225146F254FFF706
:100820004DFD05F10E039BB2B3FBF4F204FB123352
:100830009BB2514606F803A0FFF740FD05F10F03F8
:100840009BB2B3FBF4F204FB12339BB2302106F8E7
:1008500003A0FFF733FD05F110039BB2B3FBF4F2E5
:1008600004FB12339BB230226B21F254FFF726FDBA
:1008700005F111039BB2B3FBF4F204FB12339BB2FC
:100880006B223821F254FFF719FD05F112039BB2D8
:10089000B3FBF4F204FB12339BB238227521F254FD
:1008A000FFF70CFD05F113039BB2B3FBF4F204FB5D
:1008B00012339BB275223621F254FFF7FFFC05F18B
:1008C00014039BB2B3FBF4F204FB12339BB2362247
:1008D000F25405F115039BB2B3FBF4F204FB12339F
:1008E0009BB29DF80420F25405F116039BB2B3FBB2
:1008F000F4F204FB12339BB29DF80520F25405F18B
:100900001703A9F80030174B23F81850164B17227D
:1009100003F80820154A13885B44138000233B70BA
:1009200029E6BAF1FB0FF9D1012D27D1BFF34F8F83
:100930000F49104BCA6802F4E0621343CB60BFF367
:100940004F8FFEE7000000200D0300200100002073
:100950000E02002004000020540400202203002086
:10096000F41C000878040020580400204E040020E5
:1009700000ED00E00400FA0520030020072DCDD98A
:10098000B4F80110002940F0E480182DC6D1914B35
:10099000E2791970B4F80510A37AB1F5545FBDD1AE
:1009A000022ABBD1012BB9D194F80CB094F80DA058
:1009B00094F80E9094F80F8094F810E094F811C019
:1009C000A67CE57C207D617DA27DE37DBBF1670F88
:1009D000A4D1BAF1640FA1D1B9F1330F9ED1B8F10E
:1009E000320F9BD1BEF1660F98D1BCF1330F95D178
:1009F000332E93D1302D91D16B288FD138298DD1C1
:100A0000752A8BD1362B89D172B600F0E1FB2020FC
:100A100000F0F4FB102000F0F1FB042000F0EEFBEE
:100A20006D4800F00FFC202000F0E8FB102000F0E3
:100A3000E5FB042000F0E2FB00F0D8FB62B6B4F85E
:100A40000330664A5BBA1380654B664A4FF0020A70
:100A5000A3F800A01388002B77D06349DFF8A0919A
:100A6000D1F80080B9F80050604E013B138008F1C6
:100A700001035A4202F01F0203F01F0358BF534202
:100A80000B605B4B4FF4967401A81B88ADF80430E3
:100A9000A521FFF713FCB5FBF4F304FB13539BB242
:100AA000A5220321F254FFF709FC6B1C9BB2B3FB98
:100AB000F4F204FB12339BB20322FB21F254FFF742
:100AC000FDFB05EB0A039BB2B3FBF4F204FB12330C
:100AD0009BB2FB220021F254FFF7F0FBEB1C9BB210
:100AE000B3FBF4F204FB12339BB200225146F254E2
:100AF000FFF7E4FB2B1D9BB2B3FBF4F204FB1233B4
:100B00009BB206F803A06B1D9BB2B3FBF4F204FB8F
:100B100012339BB29DF80420F254AB1D9BB2B3FB81
:100B2000F4F204FB12339BB29DF80520F254EB1D46
:100B3000A9F800302F4B23F818502F4B072203F849
:100B400008202E4A138801331380224B01221A7089
:100B5000E4E6234E91FA91F832881FFA88F842456C
:100B60007FF4DCAE1B48D4F80340073D0022C5F3F8
:100B70008505B1F5807F027024BA05F1FF3541D1BA
:100B8000164624E04FEA860909F10700FFF7FAFA52
:100B9000804672B600F01CFB202000F02FFB1020D6
:100BA00000F02CFB042000F029FB414609EB040077
:100BB00000F064FB202000F021FB102000F01EFB61
:100BC000042000F01BFB00F011FB62B60136B542B9
:100BD000D8DAA3E608020020002800080C02002052
:100BE0000A020020040000205404002022030020F8
:100BF000F41C000878040020580400204E04002053
:100C000020030020C4F30903D3B972B600F0E0FA60
:100C1000202000F0F3FA102000F0F0FA042000F099
:100C2000EDFA204600F00EFB202000F0E7FA10203D
:100C300000F0E4FA042000F0E1FA00F0D7FA62B61E
:100C40004FF000094D4580F28C80594B594A1B8862
:100C5000434518BF08F10104138814BFA4B201244E
:100C60003480002B3FF471AF5349DFF85CA1D1F819
:100C70000090BAF80060DFF85481013B138009F15D
:100C800001035A4202F01F0203F01F0358BF5342F0
:100C90000B604A4B4FF4967501A81B88ADF80430E1
:100CA000A521FFF70BFBB6FBF5F305FB13639BB226
:100CB000A522032108F80320FFF700FB731C9BB259
:100CC000B3FBF5F205FB12339BB20322FB2108F8BC
:100CD0000320FFF7F3FAB31C9BB2B3FBF5F205FB5D
:100CE00012339BB24FEA142BFB22594608F803201B
:100CF000FFF7E4FAF31C9BB2B3FBF5F205FB1233EA
:100D00009BB2E4B2214608F803B0FFF7D7FA331DCF
:100D10009BB2B3FBF5F205FB12339BB208F803401C
:100D2000731D9BB2B3FBF5F205FB12339BB29DF82A
:100D3000042008F80320B31D9BB2B3FBF5F205FBBA
:100D400012339BB29DF8052008F80320F31DAAF882
:100D500000301B4B23F819601A4B072203F80920B7
:100D6000EFE64FEA890B0BF10700FFF70BFA82461B
:100D700072B600F02DFA202000F040FA102000F0AA
:100D80003DFA042000F03AFA51460BEB040000F063
:100D900075FA202000F032FA102000F02FFA04201B
:100DA00000F02CFA00F022FA62B609F1010949E7D5
:100DB0000C0200200400002054040020F41C000851
:100DC0007804002058040020200300202203002083
:100DD0002DE9F041234C2278002A35D1224B198885
:100DE000002931D072B619880139198062B61F4DB9
:100DF000DFF894C02968DFF894E04B1C584200F0FB
:100E00001F0003F01F0358BF43422B60184B33F8F9
:100E10001170184B585C1849461E0A8013464FF44F
:100E200096759E4212DA02B10880144B14480022D3
:100E300007211A8000F08DFC0123237072B6114A3D
:100E400013880133138062B6BDE8F081FA18B2FB53
:100E5000F5F805FB18221EF802202CF813200133A8
:100E60000122DEE7140300204E040020500400207D
:100E70007804002058040020B8040020BA040020A0
:100E80000044004004000020BC0400202203002095
:100E90000B4B0C4A19681368CB1A012B10B50ED9ED
:100EA00072B60948002303600848036008482024FC
:100EB00004800848038062B607481160037010BDC3
:100EC0006807002010030020180700201C070020DE
:100ED00006000020140700200F0300202DE9F04F2A
:100EE0003C4A138885B0002B71D03B493B4FD1F869
:100EF00000903E88DFF8F880DFF8F8B0013B1380FF
:100F000009F101035A4202F01F0203F01F0358BF08
:100F100053420B60324B4FF496741B88ADF80C3083
:100F2000A52103A8FFF7CAF9B6FBF4F304FB13638A
:100F30009BB2A5220A2108F80320FFF7BFF9731C12
:100F40009BB2B3FBF4F204FB12339BB20A2206F10C
:100F5000020A06F10C0508F803201FFA8AFAADB25E
:100F60001BF8011B019103A8FFF7A8F9BAFBF4F3E2
:100F700004FB13A30AF1010A9BB21FFA8AFA019932
:100F800008F803105545EBD1B5FBF4F304FB1355FA
:100F9000ADB29DF80C3008F8053006F10D039BB298
:100FA000B3FBF4F204FB12339BB29DF80D2008F85A
:100FB000032006F10E033B800A4B23F819600A4B0D
:100FC0000E2203F80920094A13880133138005B063
:100FD000BDE8F08F0400002054040020200300200E
:100FE000F41C000878040020580400204E0400205F
:100FF0002203002015030020064BD3F800280132FD
:1010000007D072B6D3F8002882F30888D3F80438E2
:101010001847704700200008434B1B782DE9F34721
:10102000002B7ED0414A1388002B7AD04049DFF84C
:101030001C81B1F800903F49B8F800500F683E4E4F
:10104000013B13807B1C5A4202F01F0203F01F0376
:1010500058BF53420B60394B4FF4967401A81B885C
:10106000ADF80430A521FFF729F9B5FBF4F304FB33
:1010700013539BB2A5220321F254FFF71FF96B1CF7
:101080009BB2B3FBF4F204FB12339BB20322FB21AD
:10109000F254FFF713F9AB1C9BB2B3FBF4F204FB61
:1010A00012339BB24FEA192AFB225146F254FFF742
:1010B00005F9EB1C9BB2B3FBF4F204FB12339BB2B9
:1010C0005FFA89F9494606F803A0FFF7F7F82B1DE8
:1010D0009BB2B3FBF4F204FB12339BB206F803900D
:1010E0006B1D9BB2B3FBF4F204FB12339BB29DF871
:1010F0000420F254AB1D9BB2B3FBF4F204FB123399
:101100009BB29DF80520F254EB1DA8F800300C4B63
:1011100023F817500B4B0722DA550B4A138801337B
:10112000138002B0BDE8F087080200200400002010
:101130000A0200205404002022030020F41C0008AE
:1011400078040020580400204E04002020030020D2
:1011500008B5FFF729F8FFF741F8FFF76DF8FFF73B
:1011600086F8FFF79FF8BDE80840FFF78FB9000049
:101170002DE9F0470025DFF848802F462E4642F241
:101180000F7943F6972AD8F80040A31B4B4502D9A4
:10119000FFF7A4FE2646E31B534502D9FFF72CFFB9
:1011A0002746621B40F6B7339A4202D9FFF734FF55
:1011B0002546FFF7B1F9FFF70BFEFFF769FEE2E7FF
:1011C0006807002008B5FFF7C3FFFFF7D1FF000055
:1011D000044B1A69120641BF034A5A6002F1883271
:1011E0005A6070470020024023016745024A136994
:1011F00043F080031361704700200240014BD86028
:10120000704700BF00200240074BDA68D10707D4BF
:10121000DA68D20606D4D868C0F380004000704770
:1012200001207047032070470020024010B504469B
:10123000FFF7EAFF012804F1FF3402D1002CF7D1B7
:10124000042010BD38B505464FF47020FFF7EEFFBF
:1012500088B9094C236943F002032361656123695E
:1012600043F0400323614FF47020FFF7DFFF236951
:1012700023F00203236138BD0020024070B505460B
:101280004FF470200E46FFF7D1FF68B9074C236971
:1012900043F0010323614FF470202E60FFF7C6FF77
:1012A000236923F00103236170BD00BF00200240C9
:1012B0002DE9F0430568C46800264FF0010E4FF099
:1012C00003080EFA06F71F420DD0770008FA07FC54
:1012D00001FA07F925EA0C0524EA0C0402FA07F7DB
:1012E00049EA05053C430136102EEAD10560C46089
:1012F000BDE8F08301294168F0B50CBF194399435B
:101300004FF6FF744160A242816815D1C46B002280
:1013100001274FF0030C07FA02F61E421CBF5500CE
:101320000CFA05F502F101021CBF29433443102ACF
:10133000F1D18160C463F0BD002401274FF0030C9C
:1013400007FA04F51D4207D065000CFA05F621EAFC
:10135000060102FA05F529430134102CF0D1816011
:10136000E9E7F0B5066A456A00234FF0010C4FF03B
:101370000F0E0CFA03F4144207D09C000EFA04F787
:1013800026EA070601FA04F426430133082BF0D1BC
:1013900000234FF0010C4FF00F0E03F108040CFA7C
:1013A00004F4144207D09C000EFA04F725EA07055E
:1013B00001FA04F425430133082BEED1066245629D
:1013C000F0BD000010B51D4CE36803F4E063B3F515
:1013D000A06F08D020D8B3F5407F26D0B3F5806F3A
:1013E00026D0174BE36002231C46C4F10404A1403D
:1013F000C3F104040F23E3401340124A0B431B01C3
:101400001118DBB281F800334109012300F01F00FD
:10141000834042F8213010BDB3F5C06F0BD0B3F557
:10142000E06FDED104230024DFE700230424DCE79F
:1014300001230324D9E703230124D6E700ED00E0CC
:101440000005FA0500E100E021F06041034B21F0C6
:101450007F0101439960BFF34F8F704700ED00E0BB
:10146000830903F1804303F5043300F01F0019687A
:10147000012282400A431A607047830903F18043C6
:1014800003F5043300F01F001A680121814022EAAD
:1014900001021A607047FFF7E3BFFFF7EEBF0000DD
:1014A000F0B55D4B89B0054604AC03F110061F464C
:1014B00018685968224603C20833B3421446F7D16C
:1014C000716838696B4603C303C354494B68C3F35F
:1014D0008103022B44D14A684868CB6A0601C2F3F3
:1014E00083424FEAD37334D4002B30D102324B689D
:1014F000C86ADC0332D5CB6A400003F00F0354BF47
:10150000474848480133B0FBF3F35A434B68C3F3F1
:10151000031320336B4413F8104C4B68C3F30223BE
:1015200020336B4422FA04F413F8206C4B68C3F3A5
:10153000C22320336B4413F8183C24FA03F0062D21
:1015400010D8DFE805F06412141017464F0021325E
:10155000CDE70BB91132CAE73132C8E7324BD4E7D5
:101560002F4AD3E7002009B0F0BD2046FBE724FA5C
:1015700006F0F8E70B6BDA0507D40B6B2B4813F476
:10158000803F2B4B08BF1846EDE74A680B6BC2F350
:101590008132022A4FEAD3730FD0032A14D0012AD2
:1015A00006D00BB94008DEE70320B4FBF0F0DAE721
:1015B0000BB98008D7E70520F7E71BB90623B0FB76
:1015C000F3F0D0E70720F0E70BB9C008CBE709201C
:1015D000EBE70B6B13F0400F48F2120018BF4FF40B
:1015E0000040C0E70B6B9B07BDD00B6B03F0030300
:1015F000012B0CD00B6B03F00303022B09D00B6BF8
:10160000074803F00303032B18BF0020ABE7104685
:10161000A9E74FF40040A6E7F61C000800100240BE
:1016200000127A00006CDC0200093D00003FAB01B3
:10163000809FD50008B50C4B98420DD003F574433C
:10164000984210D140F20E30FFF725FF40F20E30E5
:10165000BDE80840FFF721BF40F21140FFF71BFF34
:1016600040F21140F4E708BD0044004038B5134B88
:10167000984204460D4618D003F57443984216D19B
:101680000620FFF70DFF226812044FEA550310D51C
:1016900003EB4003B3FBF5F1C1F3420321F00F016B
:1016A0000904090C0B43E36038BD0220E9E7002080
:1016B000E9E70344B3FBF5F39BB2F4E700440040D1
:1016C000036823F001030360036823F4C06303602D
:1016D00003680B4303607047036823F00103036052
:1016E000036823F48053036003680B43036070476F
:1016F000036823F001030360436823F4405343600D
:1017000043680B4343607047036843F00103036081
:101710007047036823F00803036003680B4303600A
:101720007047036823F00403036003680B430360FE
:101730007047C1F3080181627047406AC0F3080036
:101740007047026A01F01F0101238B4013430362BB
:1017500070478A0910B501F01F01145801238B400E
:101760002343135010BD10B58C090122235801F0FA
:101770001F018A4023EA0203235010BDC1F38913DD
:1017800010B51C588B0D1A58C1F30440012303FAFD
:1017900000F0104006D001F01F018B40234214BF1F
:1017A0000120002010BD0000084B994206D1D0F85E
:1017B000D03023F40043C0F8D0307047026AC1F340
:1017C000044101238B4013430362704709340F34F3
:1017D000DFF830D0002103E00B4B5B58435004315D
:1017E0000A480B4B42189A42F6D30A4A02E00023F9
:1017F00042F8043B084B9A42F9D300F011F8FFF786
:10180000E1FC704708020020201F000800000020B3
:1018100008000020080200206C070020FEE70000FE
:101820007E4BDA6902F00602062A82B047D0DA69F6
:10183000900444D57A4A7B4959605A6099609A600D
:101840001A6942F020021A611A6942F040021A61D4
:10185000DA68D107FCD41A6922F020021A611A69E9
:1018600042F010021A61DA6912F0060F6E4A40F077
:10187000C780A5231380694B6B4AD969090A01F017
:10188000DF015180D969C1F307419180D969090EFF
:10189000D180196AC9B21181196AC1F30721518136
:1018A000DA68D207FCD41A6922F010021A611A69A8
:1018B00022F400721A611A6942F080021A615B4ACE
:1018C000D2F8883043F47003C2F88830584B1A6855
:1018D00042F001021A601A689007FCD55A6842F07B
:1018E00080025A6000220192019A4F2A40F29080B1
:1018F0005A6842F090025A6000220192019A4F2ADF
:1019000040F289805A6822F003025A601A6822F075
:10191000867222F480321A605968464A0A405A6038
:101920005A6822F0084222F474125A60DA6A22F0ED
:10193000404222F00F02DA621A6B22F4817222F026
:1019400001021A631A6B22F480321A631A6B22F0B6
:1019500000421A635A6B22F001025A63D3F8C02086
:1019600022F48032C3F8C02000229A60C3F8CC2051
:101970001A6842F480321A604FF4006219688903D1
:1019800001D4013AFAD11A68900333D55A685A60E3
:101990005A6842F400525A605A6842F480625A60AF
:1019A0005A6822F0036222F470225A60DA6A22F046
:1019B000404222F00F02DA625A6842F0016242F4B9
:1019C00080325A60DA6A42F00102DA62DA6ADA6276
:1019D0001A6842F080721A601A689101FCD55A6840
:1019E00022F003025A605A6842F002025A605A68B2
:1019F0001207FCD500214FF0006002B0FFF724BDB4
:101A0000DB6903F00603022B7FF435AFBB2331E71C
:101A1000019A013267E7019A01326EE70020024025
:101A2000AB89EFCD2301674500F8FF1F00ED00E013
:101A3000001002400C00FF082DE9F047089D0C46FD
:101A4000002B4ED194468C458646B2FA82F262D97A
:101A50004AB1C2F12003914020FA03F30CFA02FCD0
:101A6000194300FA02FE4FEA1C471FFA8CF6B1FB3D
:101A7000F7F44FEA1E4307FB141143EA014304FB4A
:101A800006F199420AD91CEB030304F1FF3080F000
:101A90001381994240F21081023C6344591A1FFAA3
:101AA0008EF3B1FBF7F007FB101143EA014300FB93
:101AB00006F69E420AD91CEB030300F1FF3180F0C9
:101AC000FD809E4240F2FA80634402389B1B40EA4C
:101AD000044000211DB1D3400022C5E90032BDE819
:101AE000F0878B4205D90DB1C5E9000100210846F8
:101AF000F5E7B3FA83F1002946D1A34202D390421D
:101B0000C0F0F180861A64EB03030120002DE6D0BB
:101B1000C5E90063E3E7002A40F09180A1EB0C04E3
:101B20004FEA1C481FFA8CF70121B4FBF8F64FEA84
:101B30001E4308FB164443EA044307FB06F09842A1
:101B400008D91CEB030306F1FF3402D2984200F2DD
:101B5000CE8026461C1A1FFA8EF3B4FBF8F008FB61
:101B6000104443EA044300FB07F79F4208D91CEBEB
:101B7000030300F1FF3402D29F4200F2B1802046FD
:101B8000DB1B40EA0640A5E7C1F120068B4022FAA4
:101B900006F71F4320FA06FC04FA01F343EA0C039C
:101BA000F44000FA01F8380C4FEA1349B4FBF0FE98
:101BB0001FFA87FC00FB1E4449EA04440EFB0CF9A3
:101BC000A14502FA01F20AD93C190EF1FF3A80F060
:101BD0008580A14540F28280AEF1020E3C44A4EB28
:101BE00009041FFA83F9B4FBF0F300FB134449EA3C
:101BF000044403FB0CFCA44507D93C1903F1FF3056
:101C000068D2A44566D9023B3C4443EA0E40A0FB9F
:101C10000293A4EB0C049C42CE469C4652D34FD078
:101C200055B1B8EB0E0364EB0C0404FA06F6CB4096
:101C3000CC401E43C5E900640021BDE8F087C2F135
:101C4000200320FA03F10CFA02FC24FA03F3944077
:101C50000C434FEA1C4800FA02FE1FFA8CF7B3FB54
:101C6000F8F008FB1031230C43EA014300FB07F1B5
:101C7000994208D91CEB030300F1FF362CD299429C
:101C80002AD9023863445B1AA4B2B3FBF8F108FB0B
:101C9000113344EA034401FB07F3A34208D91CEBC8
:101CA000040401F1FF3613D2A34211D9023964446E
:101CB000E41A41EA004138E70446EFE6084605E742
:101CC000C845ADD2B9EB020E63EB070C0138A7E7AC
:101CD0003146EDE7034698E73046D4E7D6467EE73F
:101CE000634402384CE70646234608460EE7023EA8
:101CF00063442FE7FFFF0000000000000000010226
:101D0000030406070809000000000102030400C0E4
:101D1000C101C30302C2C60607C705C5C404CC0C73
:101D20000DCD0FCFCE0E0ACACB0BC90908C8D818E3
:101D300019D91BDBDA1A1EDEDF1FDD1D1CDC14D4F3
:101D4000D515D71716D6D21213D311D1D010F03023
:101D500031F133F3F23236F6F737F53534F43CFC33
:101D6000FD3DFF3F3EFEFA3A3BFB39F9F83828E8E3
:101D7000E929EB2B2AEAEE2E2FEF2DEDEC2CE424B3
:101D800025E527E7E62622E2E323E12120E0A06023
:101D900061A163A3A26266A6A767A56564A46CACF3
:101DA000AD6DAF6F6EAEAA6A6BAB69A9A86878B863
:101DB000B979BB7B7ABABE7E7FBF7DBDBC7CB47473
:101DC00075B577B7B67672B2B373B17170B0509023
:101DD00091519353529296565797559594549C5CB3
:101DE0005D9D5F9F9E5E5A9A9B5B99595898884863
:101DF00049894B8B8A4A4E8E8F4F8D4D4C8C448433
:101E0000854587474686824243834181804000C1A1
:101E1000814001C0804101C0804100C1814001C0BA
:101E2000804100C1814000C1814001C0804101C0AA
:101E3000804100C1814000C1814001C0804100C19A
:101E4000814001C0804101C0804100C1814001C08A
:101E5000804100C1814000C1814001C0804100C17A
:101E6000814001C0804101C0804100C1814000C16A
:101E7000814001C0804101C0804100C1814001C05A
:101E8000804100C1814000C1814001C0804101C04A
:101E9000804100C1814000C1814001C0804100C13A
:101EA000814001C0804101C0804100C1814000C12A
:101EB000814001C0804101C0804100C1814001C01A
:101EC000804100C1814000C1814001C0804100C10A
:101ED000814001C0804101C0804100C1814001C0FA
:101EE000804100C1814000C1814001C0804101C0EA
:101EF000804100C1814000C1814001C0804100C1DA
:101F0000814001C0804101C0804100C1814000008A
:041F1000F8B500BF61
:041F1400F8B500BF5D
:081F180020FBFF7F0100000027
:081F200001FFFF012000200079
:04000005080017D107
:020000040800F2
:10280000CC020020AD700008F9700008F9700008D3
:10281000F9700008F9700008F97000080000000065
:10282000000000000000000000000000F970000837
:10283000F970000800000000F9700008A9290008DC
:1028400000000000F9700008F9700008F970000835
:10285000F9700008F9700008F9700008F9700008B4
:10286000F9700008F97000085D600008F970000850
:10287000F9700008F9700008F9700008F970000894
:10288000F9700008F970000800000000F9700008F5
:10289000F9700008F9700008F97000082157000865
:1028A000F9700008F9700008F9700008F970000864
:1028B000CD2A000800000000F970000800000000A8
:1028C0007958000800000000F9700008F97000084D
:1028D000F970000800000000000000000000000087
:1028E0000000000000000000F97000080000000077
:1028F00000000000000000000000000000000000D8
:10290000F97000080000000000000000F9700008E5
:1029100000000000000000000000000000000000B7
:1029200000000000000000000000000000000000A7
:102930000000000000000000000000000000000097
:10294000000000000000000000000000F970000816
:1029500053B94AB9002908BF00281CBF4FF0FF3106
:102960004FF0FF3000F00CB8ADF1080C6DE904CE6B
:1029700004F0D0FCDDF804E0DDE9022304B0704788
:10298000704700BF4FF0E023054A5A61054AF02125
:1029900082F8231000229A6107221A61704700BF53
:1029A0001E48010000ED00E0024A13680133136085
:1029B000704700BF200A0020F8B5144B6FF03A02B0
:1029C000D3F8E017D3F8AC07D3F8B067D3F8B477EF
:1029D0004FF6FF73FFF7BCFF384614461D466FF0F5
:1029E0003A024FF6FF733146FFF7B2FF08486240E4
:1029F0006B400021013100F8012B06294FEA122219
:102A000042EA03624FEA1323F4D1F8BD00F0FF1F3E
:102A1000180A002008B503494FF0006003F022FFB8
:102A200062B608BD0028000808B540F2115003F056
:102A300025FF0823032200214FF0904003F056FDAC
:102A40000823002202214FF0904003F02DFDBDE845
:102A50000840082201214FF0904003F088BD08B5DE
:102A600040F2115003F00AFF0423032200214FF02B
:102A7000904003F03BFD0423002202214FF09040E0
:102A800003F012FDBDE80840042201214FF0904000
:102A900003F06DBD08B500221C20114603F0A0FE16
:102AA000BDE8084040F2117003F0E8BE037810B5AD
:102AB0005940044C044B5A5C4378615C42704B4073
:102AC000037010BDDC800008DC7F0008F8B55749B2
:102AD000574804F0C1FA064640B1554840F201712A
:102AE00004F09DFA5149524804F0CCFA514950483B
:102AF00004F0B2FA074640B14D4840F2027104F0CA
:102B00008EFA4C494A4804F0BDFA4B49484804F053
:102B1000A3FA054640B1464840F2037104F07FFA3B
:102B20004549434804F0AEFA4449414804F094FA58
:102B3000044640B13E484FF4E06104F070FA3F496A
:102B40003B4804F09FFA3E49394804F085FAB8B191
:102B5000374840F2037104F062FA3949344804F00E
:102B600091FA72B6374A00231360374A1360374A26
:102B700020211180364A138062B6364A137005E070
:102B80003E4335432C43E4B2002CEAD13249284875
:102B900004F062FA08B32D4A1388D3B12A492448B5
:102BA0000C68013B1380631C5A4202F01F0203F0C1
:102BB0001F0358BF53420B6004F02DFA274B23F834
:102BC0001400274B1A68274B1A60214A13880133D7
:102BD00013802149164804F055FA2349144804F09B
:102BE0003BFA10B3214D224B2C881B88A34214D9E9
:102BF0004FF49672B4FBF2F302FB13439BB21D4AEF
:102C00000B4832F81310013404F001FA2C80BDE8AF
:102C1000F8401549064804F035BA0548072104F084
:102C200010FA154B00221A70F1E7F8BD00020107F7
:102C300000440040000202070002030708000007EA
:102C400005000307D0090020D4090020CA00002095
:102C5000CC090020C705002005000507D809002081
:102C6000200A0020C805002007000707720700207F
:102C70007007002074070020CC05002038B51F4BDA
:102C80001F4C1A46F02102F8011B1E49086889886A
:102C9000C3F801000025918020460122DD711A72DF
:102CA0005A7204F035F92046042104F0A8F92046B0
:102CB000082104F09CF92046052104F0B8F92046CB
:102CC0004FF4007104F0B3F92046082104F0AFF985
:102CD00020464FF4E13104F037F92946204604F04C
:102CE00069F92946204604F071F92046294604F086
:102CF00055F92046BDE8384004F074B9CD050020F0
:102D000000440040180A00202DE9F04F8F4B1A882C
:102D10008DB0002A2ED072B61A88013A1A8062B697
:102D20008B4801684B1C5A4202F01F0203F01F033C
:102D300058BF53420360874B33F8115086490B78D4
:102D4000DBB9A52D10D101220A70844984480A708C
:102D500084490B7084490B70844B29461A70FF23F9
:102D600003704370FFF7A2FE72B6814A13880133E5
:102D7000138062B60DB0BDE8F08F012BF4D1774E11
:102D80003378012B13D1FF2D774B07D900217448DD
:102D90001970FFF78BFE03233370E5E7E9B2704843
:102DA0001970FFF783FE002DF5D00223F4E7022B04
:102DB0001AD16C486F4C0378B5F5807F4FF0FF0255
:102DC000B3FBF2F21A4428BF002502F0FF020133E0
:102DD000E9B2A154DCB204706148FFF767FE624BB0
:102DE0001B78A342C0D1D6E7032B0CD15C4BB5F5C1
:102DF000807F1B7828BF00259D421EBF5B4B0022B1
:102E00001A700423C8E7042BAED1574B574A1C78DD
:102E10001278534B5B78002A00F09480B5F5807FE0
:102E200028BF00259D4240F08D80002C00F08A8054
:102E3000504D2E78002E40F0B380022C40F082805E
:102E40004D4A1388002B7AD04C49DFF84CB1D1F8A9
:102E500000A0BBF80080DFF84491013B13800AF129
:102E600001035A4202F01F0203F01F0358BF5342EE
:102E70000B60434B4FF496770BA81B88ADF82C30B2
:102E8000A521FFF713FEB8FBF7F307FB13839BB2F3
:102E9000A522214609F80320FFF708FE08F10103E7
:102EA0009BB2B3FBF7F207FB12339BB2314609F832
:102EB00003406C78631E5A425A41324B1A70FFF736
:102EC000F5FD08F102039BB2B3FBF7F207FB1233E7
:102ED0009BB2214609F80360FFF7E8FD08F1030300
:102EE0009BB2B3FBF7F207FB12339BB209F8034026
:102EF00008F104039BB2B3FBF7F207FB12339BB25A
:102F00009DF82C2009F8032008F105039BB2B3FBC0
:102F1000F7F207FB12339BB29DF82D2009F803202E
:102F200008F10603ABF80030174B23F81A80174B53
:102F3000062203F80A20164A138801331380154B22
:102F400000221A70044B00221A700DE7CC090020F1
:102F5000D0090020D8090020C7050020C7000020A4
:102F6000C5000020C6050020C5050020C4000020C3
:102F7000CA000020C6040020C80000200C07002062
:102F8000D07500086C0000203007002010070020DA
:102F90000607002055000020D8050020DA05002093
:102FA000E32E00F2FC80DF2E00F2F0800A2E00F00B
:102FB000F286D02EC6D1022CC4D1874F95F801805D
:102FC0003B88DFF83C929FED857AB8F1000F40F026
:102FD000B182834A82F80080002B6CD08149DFF8EF
:102FE0001CA2D1F800B0013B3B800BF101035A4217
:102FF00002F01F0203F01F0358BF53427A4A0B60CE
:103000007A4B16881B88ADF82C304FF496750BA8B8
:10301000A521FFF74BFDB6FBF5F305FB13639BB250
:10302000A5210AF803102146FFF740FD731C9BB24F
:10303000B3FBF5F105FB11339BB241460AF803409F
:10304000FFF734FDB31C9BB2B3FBF5F105FB113365
:103050009BB241460AF80380FFF728FDF31C9BB2A0
:10306000B3FBF5F105FB11339BB25F4A0AF803800D
:10307000331D9BB2B3FBF5F105FB11339BB29DF8F9
:103080002C100AF80310731D9BB2B3FBF5F105FB7E
:1030900011339BB29DF82D100AF80310B31D138055
:1030A000534B23F81B60534B062203F80B20524A64
:1030B0001388013313803B8889ED007A002B3FF49D
:1030C0003EAF4849DFF820814C4EB8F80050013B34
:1030D0003B800F687B1C5A4202F01F0203F01F0363
:1030E00058BF53420B60414B4FF496740BA81B889A
:1030F000ADF82C30A521FFF7D9FCB5FBF4F304FBA8
:1031000013539BB2A5220221F254FFF7CFFC6B1C94
:103110009BB2B3FBF4F204FB12339BB20222D02128
:10312000F254FFF7C3FCAB1C9BB2B3FBF4F204FBFD
:1031300012339BB2D0220121F254FFF7B7FCEB1CF3
:103140009BB2B3FBF4F204FB12339BB20122F254A4
:103150002B1D9BB2B3FBF4F204FB12339BB29DF820
:103160002C20F2546B1D9BB2B3FBF4F204FB123320
:103170009BB29DF82D20F254AB1DA8F800301C4BDB
:1031800023F817501B4B0622DA55D4E6E13E022EF7
:1031900000F24382DFE816F065041605860506F1A5
:1031A0000C03DBB2072B3FF6CDAEF43E072E3FF605
:1031B000C9AE01A353F826F005320008893F000884
:1031C000452F0008452F0008452F0008452F00080F
:1031D000E13E00081D420008C80000208180803BBD
:1031E0006C0000200C070020D8050020D0750008D6
:1031F000300700201007002006070020DA05002015
:1032000068000020BC4BBD4E00221A721A7583F86C
:10321000202083F82C203388002B6DD0B849DFF8AC
:103220000493D1F80080B9F80050B64F013B3380C9
:1032300008F101035A4202F01F0203F01F0358BFB6
:1032400053420B60B04B4FF496740BA81B88ADF83B
:103250002C30A521FFF72AFCB5FBF4F304FB135334
:103260009BB2A5220221FA54FFF720FC6B1C9BB2F3
:10327000B3FBF4F204FB12339BB202220A21FA548C
:10328000FFF714FCAB1C9BB2B3FBF4F204FB12334C
:103290009BB20A22FA549D4B93F800A05146FFF7C7
:1032A00005FCEB1C9BB2B3FBF4F204FB12339BB2A4
:1032B00007F803A02B1D9BB2B3FBF4F204FB1233FF
:1032C0009BB29DF82C20FA546B1D9BB2B3FBF4F219
:1032D00004FB12339BB29DF82D20FA54AB1DA9F8C4
:1032E00000308B4B23F818508A4B062203F8082035
:1032F000894A138801331380884B00241C60884B53
:1033000001221A703388002B00F08A807C49854F97
:10331000D1F800903D88DFF8EC81013B338009EB68
:103320000203E21A02F01F0203F01F0358BF5342C8
:103330000B60754B4FF4967A1B88ADF82C300BA8B8
:10334000A521FFF7B3FBB5FBFAF30AFB13539BB2BE
:10335000A522022108F80320FFF7A8FB6B1C9BB2F3
:10336000B3FBFAF20AFB12339BB20222D02108F817
:103370000320FFF79BFBAB1C9BB2B3FBFAF20AFBEB
:1033800012339BB2D02208F80320674BD3ED007AAA
:10339000B7EE007AF4EEC77AF1EE10FA0ED89FED90
:1033A000637A67EE877AF5EEC07AF1EE10FAA2BF83
:1033B000FCEEE77ACDED007A9DF8004021460BA89F
:1033C000FFF774FBEB1C4FF496729BB2B3FBF2F168
:1033D00002FB11339BB208F803402B1D9BB2B3FBD9
:1033E000F2F102FB11339BB29DF82C1008F8031088
:1033F0006B1D9BB2B3FBF2F102FB11339BB29DF844
:103400002D2008F80320AB1D3B80414B23F81950B9
:10341000404B062203F809203F4A138801331380EA
:103420003388002B3FF48EAD3549DFF8F8800F6804
:10343000B8F80050013B33807B1C5A4202F01F0257
:1034400003F01F0358BF53420B602F4B2D4E1B88B8
:10345000ADF82C304FF496740BA8A521FFF726FB8E
:10346000B5FBF4F304FB13539BB2A5220221F254E3
:10347000FFF71CFB6B1C9BB2B3FBF4F204FB123393
:103480009BB202220021F254FFF710FBAB1C9BB24F
:10349000B3FBF4F204FB12339BB20022F254244B30
:1034A00093F800904946FFF701FBEB1C9BB2B3FB7E
:1034B000F4F204FB12339BB206F803902B1D9BB26F
:1034C000B3FBF4F204FB12339BB29DF82C20F254B0
:1034D0006B1D9BB2B3FBF4F204FB12339BB29DF85D
:1034E0002D20F254AB1DA8F80030094B23F81750DB
:1034F000084B0622DA5547E388040020C800002064
:103500000C070020DA050020D0750008A10000207B
:10351000300700201007002006070020EC020020E2
:1035200054000020D80500206800002000007F43E0
:103530006C00002007EE908AF8EE677A67EE877AD3
:10354000C9ED007A002B3FF4FAACBD49DFF808B3AF
:10355000D1F800A0DFF8FC92013B3B800AF10103A7
:103560005A4202F01F0203F01F0358BF53420B6080
:10357000B44BBBF800701B88ADF82C304FF4967537
:103580000BA8A521FFF792FAB7FBF5F305FB137320
:103590009BB2A522214609F80320FFF787FA7B1C7E
:1035A0009BB2B3FBF5F205FB12339BB2314609F82F
:1035B0000340FFF77BFABB1C9BB2B3FBF5F205FBA4
:1035C00012339BB2414609F80360FFF76FFAFB1C08
:1035D0009BB2B3FBF5F205FB12339BB209F80380F3
:1035E0003B1D9BB2B3FBF5F205FB12339BB29DF87A
:1035F0002C2009F803207B1D9BB2B3FBF5F205FBE1
:1036000012339BB29DF82D2009F80320BB1DABF8A7
:1036100000308D4B23F81A7089E4A4F1030A5FFA95
:103620008AFA032095F80280BAFBF0F303EB430318
:10363000AAEB030A5FFA8AFAB8F1000F40F016818C
:10364000052C7FF67FACBAF1000F7FF47BAC95F8C8
:10365000019009F1FF385FFA88F880453FF672ACB7
:103660007A4950460C46002254F8043BFF2B03D8FD
:10367000DBB29A4538BF9A460132042AF4D10130B0
:10368000042801F11001EDD1714A1388002B00F0DC
:10369000D1806B486F4F013B138002680392531C2B
:1036A000594201F01F0103F01F0358BF4B42036052
:1036B000694B1E88634B4FF496740BA81B88ADF8BA
:1036C0002C30A521FFF7F2F9B6FBF4F304FB1363EA
:1036D0009BB2A521F9540AF101030AF1020A0AEB8F
:1036E0004A0A5FFA8AFADBB251460093FFF7DEF925
:1036F000731C9BB2B3FBF4F104FB11339BB2E021CA
:1037000007F803A0FFF7D2F9B31C9BB2B3FBF4F1A7
:1037100004FB11339BB2E021F9544946FFF7C6F987
:10372000F31C9BB2B3FBF4F104FB11339BB20121F8
:1037300007F80390FFF7BAF9331D9BB2B3FBF4F11E
:1037400004FB113395F804A095F8039095F805B0A3
:10375000039A9BB20121F9544FEA0A2343EA094331
:1037600043EA0B033D49019308EB480301EB0313C4
:103770000293052500230099994232DD0492DDE988
:1037800001120BA842F8231049460393FFF78EF964
:10379000A91989B2B1FBF4FC04FB1C1189B207F82A
:1037A00001905146FFF782F9691C56FA81F189B2FE
:1037B000B1FBF4FC04FB1C1189B207F801A05946C7
:1037C000FFF774F9A91C56FA81F189B2B1FBF4F044
:1037D00004FB101189B2DDE90332033507F801B0AB
:1037E000EDB201330C2BC6D1AB194FF496719BB2DD
:1037F000B3FBF1F001FB10339BB29DF82C00F854A1
:103800006B1C56FA83F39BB2B3FBF1F001FB103350
:103810009BB29DF82D10F95402350F4B56FA85F1E5
:103820001980094B23F812600D4B9D540D4A1388E3
:10383000013313800C4B002203F80820FFF782BBF2
:103840000C070020D075000830070020040000207D
:10385000C8000020DA050020D8050020F002002072
:10386000100700200607002056000020052C7FF6D8
:1038700069ABBAF1000F7FF465AB6F787B1EDBB2EA
:10388000032B03933FF65EAB08F1FF33DBB20B2B48
:1038900000933FF657ABBF490A88002A00F0A48086
:1038A000013AC3F10C030A80DBB2BB49BB4E023CB8
:1038B000E4B2B4FBF0F49C4228BF1C460B680193B1
:1038C00001335A4202F01F0203F01F0358BF534254
:1038D0000B60B34B1D88B34B4FF496790BA81B8834
:1038E000ADF82C30A52104F1010BFFF7DFF8B5FB93
:1038F000F9F30BEB4B0B09FB13539BB25FFA8BFBFA
:10390000A5225946F254FFF7D1F86B1C9BB2B3FBCA
:10391000F9F209FB12339BB2E02106F803B0FFF77E
:10392000C5F8AB1C9BB2B3FBF9F209FB12339BB297
:10393000E0223946F254FFF7B9F8EB1C9BB2B3FB17
:10394000F9F209FB12339BB24146F754FFF7AEF888
:103950002B1D9BB2B3FBF9F209FB12339BB206F8A5
:1039600003800C23B4FBF3F203FB12445FFA84F9E7
:1039700009F1FF320792039ADFF844826C1D5A4323
:10398000A4B208924FF49677661CB4FBF7F207FBDB
:10399000124292B2B6B20492B6FBF7F207FB12667D
:1039A000B2B20592A21C92B20692079A0334524513
:1039B000A4B21FDA794B04999DF82C205A5405992A
:1039C0009DF82D205A54764909EB4903EA1D1A4403
:1039D0000A80754A019922F81150744A07335354EA
:1039E000734A138801331380724B039900225A548F
:1039F000FFF7A8BA98F805200292009A98F804B048
:103A000098F80310654E09915244B2FBF3F003FBA2
:103A10001022089B4FEA0B201A44029B40EA014007
:103A20001843654B43F822000BA8FFF73FF8049BAF
:103A30000999F1545946FFF739F8059B029906F8A0
:103A400003B0FFF733F8069BB3FBF7F107FB113127
:103A500089B2029B73540AF1010A08F103080C238E
:103A600090E7032C7FF46EAA4A4A1388002B3FF498
:103A700069AA49494A4FD1F800903E88DFF81C8175
:103A8000013B138009F101035A4202F01F0203F0C7
:103A90001F0358BF53420B60424B4FF4967A1B886A
:103AA000ADF82C300BA8A521FFF700F8B6FBFAF310
:103AB0000AFB13639BB2A522214608F80320FEF7F8
:103AC000F5FF731C9BB2B3FBFAF20AFB12339BB2F5
:103AD000E12108F80340FEF7E9FFB31C9BB2B3FBFA
:103AE000FAF20AFB12339BB2E12208F8032000210C
:103AF000324A8B461BF0070F17D105EBEB01631C15
:103B0000344449780292DBB20BA8A4B2019300912D
:103B1000FEF7CCFFB4FBFAF00AFB1044A4B2019B01
:103B20000099029A08F804101C460BF1010B01F0F1
:103B30000103BBF10C0F02F8013B4FEA5101D9D14F
:103B4000A3194FF496729BB2B3FBF2F102FB11334F
:103B50009BB29DF82C1008F80310631C56FA83F3EF
:103B60009BB2B3FBF2F102FB11339BB29DF82D2007
:103B700008F80320023456FA84F33B800A4B23F8FA
:103B800019600A4B03F80940094A1388013313806E
:103B9000FFF7D8B9C80000200C070020DA05002084
:103BA000D8050020D075000830070020100700203D
:103BB0000607002056000020F00200205A000020D6
:103BC000C6040020032C7FF4BDA9B74A1388002B3C
:103BD0003FF4B8A9B549B64FD1F800903E88DFF858
:103BE000E082013B138009F101035A4202F01F02F7
:103BF00003F01F0358BF53420B60AE4B4FF4967A4D
:103C00001B88ADF82C300BA8A521FEF74FFFB6FBA3
:103C1000FAF30AFB13639BB2A522214608F803209E
:103C2000FEF744FF731C9BB2B3FBFAF20AFB12339C
:103C30009BB2E22108F80340FEF738FFB31C9BB2A9
:103C4000B3FBFAF20AFB12339BB2E22208F803201C
:103C50000021994A8B461BF0070F17D105EBEB01AA
:103C6000631C344449780292DBB20BA8A4B20193DE
:103C70000091FEF71BFFB4FBFAF00AFB1044A4B25C
:103C8000019B0099029A08F804101C460BF1010BE5
:103C900001F00103BBF10C0F02F8013B4FEA5101A7
:103CA000D9D14DE7022C7FF44DA995F801A00AF176
:103CB000FF33DBB2032B3FF645A9804A13607A4AF3
:103CC0001388002B3FF43EA97849DFF8E491D1F83E
:103CD0000080B9F800607A4F013B138008F10103BE
:103CE0005A4202F01F0203F01F0358BF53420B60F9
:103CF000704B4FF496751B88ADF82C300BA8A5219E
:103D0000FEF7D4FEB6FBF5F305FB13639BB2A522C9
:103D10002146FA54FEF7CAFE731C9BB2B3FBF5F2C0
:103D200005FB12339BB2E321FC54FEF7BFFEB31C2C
:103D30009BB2B3FBF5F205FB12339BB2E322FA54BC
:103D40005146FEF7B3FEF31C9BB2B3FBF5F205FB45
:103D500012339BB207F803A0331D9BB2B3FBF5F2FD
:103D600005FB12339BB29DF82C20FA54731D9BB2B5
:103D7000B3FBF5F205FB12339BB29DF82D20FA54EC
:103D8000B31DA9F800304F4B23F818604E4B0622A4
:103D900003F80820F8E6022C7FF4D4A84B4B95F8E2
:103DA00001B083F800B04A4B00221A70494B01223F
:103DB0001A70494B1A68494B21464FF090401A60DF
:103DC00002F0CBFB384A1388002B3FF4BBA83749DD
:103DD000DFF8DCA0D1F80090BAF80070DFF8E080DE
:103DE000013B138009F101035A4202F01F0203F064
:103DF0001F0358BF53420B602E4B4FF496750BA810
:103E00001B88ADF82C30A521FEF750FEB7FBF5F36B
:103E100005FB13739BB2A522214608F80320FEF789
:103E200045FE7B1C9BB2B3FBF5F205FB12339BB244
:103E3000314608F80340FEF739FEBB1C9BB2B3FBCA
:103E4000F5F205FB12339BB2594608F80360FEF702
:103E50002DFEFB1C9BB2B3FBF5F205FB12339BB2AC
:103E600008F803B03B1D9BB2B3FBF5F205FB123320
:103E70009BB29DF82C2008F803207B1D9BB2B3FB5E
:103E8000F5F205FB12339BB29DF82D2008F80320B4
:103E9000BB1DAAF800300B4B23F819700A4B062201
:103EA00003F8092070E600BFC80000200C070020BE
:103EB000D8050020D0750008B1030020E8020020DA
:103EC000DA0500203007002010070020A1000020A4
:103ED000A000002080040020200A00207804002098
:103EE000022C7FF42FA895F801A0D24BBAF1000A5A
:103EF00018BF4FF0010A83F800A0CF4B00221A60D0
:103F0000CE4B01221A70CE4A1388002B3FF41AA818
:103F1000CC49DFF84C93D1F80080B9F80060CA4F63
:103F2000013B138008F101035A4202F01F0203F023
:103F30001F0358BF53420B60C44B4FF496751B8848
:103F4000ADF82C300BA8A521FEF7B0FDB6FBF5F3BC
:103F500005FB13639BB2A5222146FA54FEF7A6FD8A
:103F6000731C9BB2B3FBF5F205FB12339BB2FA2133
:103F7000FC54FEF79BFDB31C9BB2B3FBF5F205FBB3
:103F800012339BB2FA22DAE6AD4A1388002B3EF4D4
:103F9000D9AFAC49DFF8C8820F68B8F80050AA4E14
:103FA000013B13807B1C5A4202F01F0203F01F03E7
:103FB00058BF53420B60A54B4FF496740BA81B8857
:103FC000ADF82C30A521FEF771FDB5FBF4F304FB31
:103FD00013539BB2A5221321F254FEF767FD6B1C0D
:103FE0009BB2B3FBF4F204FB12339BB21322F52114
:103FF000F254FEF75BFDAB1C9BB2B3FBF4F204FB87
:1040000012339BB2F5220021F254FEF74FFDEB1C58
:104010009BB2B3FBF4F204FB12334FF000099BB2E6
:10402000494606F80390FEF741FD2B1D9BB2B3FBFA
:10403000F4F204FB12339BB2352106F80390FEF72D
:1040400035FD6B1D9BB2B3FBF4F204FB12339BB244
:1040500035220221F254FEF729FDAB1D9BB2B3FBC2
:10406000F4F204FB12339BB202220421F254FEF755
:104070001DFDEB1D9BB2B3FBF4F204FB12339BB2AC
:1040800004220D21F254FEF711FD05F108039BB245
:10409000B3FBF4F204FB12339BB20D226721F254FE
:1040A000FEF704FD05F109039BB2B3FBF4F204FB38
:1040B00012339BB267226421F254FEF7F7FC05F13C
:1040C0000A039BB2B3FBF4F204FB12339BB26422EB
:1040D0003321F254FEF7EAFC05F10B039BB2B3FB6C
:1040E000F4F204FB12339BB24FF03309322106F88D
:1040F0000390FEF7DBFC05F10C039BB2B3FBF4F27B
:1041000004FB12339BB232226621F254FEF7CEFC3E
:1041100005F10D039BB2B3FBF4F204FB12339BB227
:1041200066224946F254FEF7C1FC05F10E039BB22C
:10413000B3FBF4F204FB12339BB2494606F803903A
:10414000FEF7B4FC05F10F039BB2B3FBF4F204FBE2
:1041500012339BB2302106F80390FEF7A7FC05F15D
:1041600010039BB2B3FBF4F204FB12339BB2302278
:104170006B21F254FEF79AFC05F111039BB2B3FBDD
:10418000F4F204FB12339BB26B223821F254FEF797
:104190008DFC05F112039BB2B3FBF4F204FB123366
:1041A0009BB238227521F254FEF780FC05F113030F
:1041B0009BB2B3FBF4F204FB12339BB2752236219F
:1041C000F254FEF773FC05F114039BB2B3FBF4F257
:1041D00004FB12339BB23622F25405F115039BB255
:1041E000B3FBF4F204FB12339BB29DF82C20F25483
:1041F00005F116039BB2B3FBF4F204FB12339BB23E
:104200009DF82D20F25405F11703A8F80030104B4B
:10421000172223F817500F4BFFF76CB9BFF34F8FDE
:104220000D490E4BCA6802F4E0621343CB60BFF342
:104230004F8FFEE7E4020020E00200200300002090
:10424000C80000200C070020DA050020D075000807
:10425000300700201007002000ED00E00400FA0500
:10426000D80500202DE9F041234C2278002A35D1D1
:10427000224B1988002931D072B61988013919806A
:1042800062B61F4DDFF894C02968DFF894E04B1C3C
:10429000584200F01F0003F01F0358BF43422B6039
:1042A000184B33F81170184B585C1849461E0A8099
:1042B00013464FF496759E4212DA02B10880144BF1
:1042C0001448002207211A8002F0B1FE0123237056
:1042D00072B6114A13880133138062B6BDE8F081CB
:1042E000FA18B2FBF5F805FB18221EF802202CF88C
:1042F000132001330122DEE7CC0500200607002051
:104300000807002030070020100700207007002059
:104310007207002000440040C800002074070020FD
:10432000DA0500200B4B0C4A19681368CB1A012BD5
:1043300010B50ED972B6094800230360084803601F
:104340000848202404800848038062B607481160AA
:10435000037010BD200A0020C8050020D0090020ED
:10436000D4090020CA000020CC090020C705002085
:104370002DE9F04F3C4A138885B0002B71D03B49A2
:104380003B4FD1F800903E88DFF8F880DFF8F8B0B6
:10439000013B138009F101035A4202F01F0203F0AE
:1043A0001F0358BF53420B60324B4FF496741B8867
:1043B000ADF80C30A52103A8FEF778FBB6FBF4F3AB
:1043C00004FB13639BB2A5220A2108F80320FEF721
:1043D0006DFB731C9BB2B3FBF4F204FB12339BB274
:1043E0000A2206F1020A06F10C0508F803201FFA5A
:1043F0008AFAADB21BF8011B019103A8FEF756FB28
:10440000BAFBF4F304FB13A30AF1010A9BB21FFAEF
:104410008AFA019908F803105545EBD1B5FBF4F37E
:1044200004FB1355ADB29DF80C3008F8053006F1C9
:104430000D039BB2B3FBF4F204FB12339BB29DF865
:104440000D2008F8032006F10E033B800A4B23F8E9
:1044500019600A4B0E2203F80920094A1388013318
:10446000138005B0BDE8F08FC80000200C070020C5
:10447000D8050020D0750008300700201007002064
:1044800006070020DA050020CD0500201FB50C4CE2
:1044900040F2116002F0F2F9204602F0D9FA00234E
:1044A000642269462046CDE9003302928DF80C3033
:1044B00002F022FB204602F0AFFB04B010BD00BFAB
:1044C0000044014008B540F2115002F0D7F94023F2
:1044D000032200214FF0904002F008F84023002210
:1044E00002214FF0904001F0DFFFBDE8084040227C
:1044F00005214FF0904002F03AB8000030B54FF47B
:10450000A06085B002F0BAF91B4B1C4A1A601C4B24
:104510001C4C0FCB6D4685E80F002A462046002133
:1045200002F08EFB00221146204602F0BDFC204620
:104530006022002102F092FC08222046002102F0B5
:10454000C1FC2046012102F072FB4FF4807120462D
:1045500002F069FB204602F05FFB012211460A20AF
:1045600002F03EF9022001F08DFE0221084601F022
:10457000EBFE05B030BD00BFA40000203444014074
:10458000D47500080044014010B50A4C40F21250A6
:1045900002F074F920464FF480730322002101F0E9
:1045A000A5FF20464FF48073BDE810400122002192
:1045B00001F07ABF0004004810B540F2115002F03B
:1045C0005DF94FF40043032200214FF0904001F0C9
:1045D0008DFFBDE810404FF40043012200214FF051
:1045E000904001F061BF000010B5094C40F212503C
:1045F00002F044F9204620230322002101F076FF37
:1046000020462023BDE810400122002101F04CBFCC
:104610000004004810B5094C40F2125002F02EF987
:10462000204610230322002101F060FF20461023C2
:10463000BDE810400122002101F036BF000400480F
:10464000F8B5264C264D27482E6827784FF4807100
:1046500001F087FFB0FA80F0400987421CBF0023B9
:1046600020704FF400414FF0904018BF2372277B19
:1046700018BF66602E6801F074FFB0FA80F0400940
:1046800087421CBF002320734FF0200115481CBF38
:1046900023752661277E2E6801F063FFB0FA80F053
:1046A000400987421CBF002320764FF010010D48BF
:1046B0001CBFE66184F820302D6894F8246001F076
:1046C00050FFB0FA80F0400986421FBF002384F8F3
:1046D0002400A56284F82C30F8BD00BF88040020B7
:1046E000200A0020000400482DE9F04F4A4BDFF873
:1046F0004C911B780C2203F0030802FB08F209EB33
:10470000020187B0097A019300297ED1434D19F83F
:104710000220AA70012129704144697040490A8829
:10472000002A6CD03F4C404BD4F800B01F88DFF813
:1047300010A1013A0A800BF10101484200F01F006C
:1047400001F01F0158BF4142216038490988ADF886
:1047500014104FF4967405A8A521FEF7A7F9B7FB2E
:10476000F4F104FB117189B2A5260AF80160032156
:10477000FEF79CF9791C89B2B1FBF4F004FB10112F
:1047800089B203202B46BE1C7D1D0AF80100B6B27B
:10479000ADB213F8011B05A8CDE90213FEF786F9A7
:1047A000B6FBF4F004FB1060013680B2B6B2029999
:1047B0000AF80010B542039BEBD1B5FBF4F104FB02
:1047C0001155ADB29DF814100AF80510B91D89B243
:1047D000B1FBF4F004FB101189B29DF81500124BE7
:1047E0000AF80100F91D1980114921F81B701149BF
:1047F000072001F80B0010490A8801320A800C22B8
:1048000002FB0899012389F80830019B024A013311
:10481000137007B0BDE8F08F8104002082040020EF
:10482000C80000200C070020D8050020D075000823
:104830003007002010070020060700208804002011
:10484000DA05002010B540F2115002F017F80223EB
:10485000032200214FF0904001F048FEBDE81040D7
:104860000223002201214FF0904001F01DBE000004
:104870001C490B78F0B483B11B4B1C4A1B681268AF
:104880009B1A1B4A127893422AD900230B70F0BC62
:1048900002214FF0904001F062BE1648164E1A46B3
:1048A0000C2505FB02F410F8017B345DB3B90CB1A3
:1048B00087F001030132042A03F0010300F8014CE0
:1048C000EFD16BB101230B70074B1A68074BF0BC9B
:1048D00002214FF090401A6001F03FBE0123E9E74A
:1048E000F0BC704780040020200A002078040020DB
:1048F000A10000207C0400208804002037B5524C21
:104900002378002B40F09E8072B601F05DFD2020E0
:1049100001F070FD102001F06DFD042001F06AFD32
:104920004A4801F08BFD202001F064FD102001F0C9
:1049300061FD042001F05EFD01F054FD62B672B627
:1049400001F042FD202001F055FD102001F052FD44
:10495000042001F04FFD01213C4801F08BFD202097
:1049600001F048FD102001F045FD042001F042FD5A
:1049700001F038FD62B6364B01A81B88ADF8043053
:104980000121FEF793F8334B1D782946FEF78EF888
:1049900072B601F019FD202001F02CFD102001F06D
:1049A00029FD042001F026FD29462B4801F062FD77
:1049B000202001F01FFD102001F01CFD042001F05B
:1049C00019FD01F00FFD62B69DF8045072B601F0BA
:1049D000FBFC202001F00EFD102001F00BFD042057
:1049E00001F008FD29461D4801F044FD202001F09A
:1049F00001FD102001F0FEFC042001F0FBFC01F0A1
:104A0000F1FC62B69DF8055072B601F0DDFC202085
:104A100001F0F0FC102001F0EDFC042001F0EAFCB4
:104A200029460F4801F026FD202001F0E3FC10206C
:104A300001F0E0FC042001F0DDFC01F0D3FC62B6E3
:104A40000123237003B030BDA000002000BC00088B
:104A5000D0750008A100002004BC000808BC0008B4
:104A60000CBC0008154BF7B5D3F8005CD3F8044C28
:104A7000D3F8087CD3F80C6C114BFF2D94BF29465A
:104A800000211B88ADF80430C9B201A8FEF70EF86A
:104A9000B4F5807F28BF0024E4B22146FEF706F873
:104AA0009DF80430BB4207D19DF80530B34203D1D5
:104AB000012D04BF034B1C7003B0F0BD00B0000813
:104AC000D0750008A100002010B540F2115001F08F
:104AD000D5FE4FF48073032200214FF0904001F087
:104AE00005FDBDE810404FF48073002201214FF016
:104AF000904001F0D9BC4FF480714FF0904001F02C
:104B00002CBD4FF480714FF0904001F028BD0000A3
:104B1000024A137883F0010313707047B00300203A
:104B20002DE9F04FDFF87083D04FD14CDFF84CA364
:104B3000DFF8689385B018F8013B002B40F0B08097
:104B4000A4F1340572B601F03FFC202001F052FCC4
:104B5000102001F04FFC042001F04CFC284601F02D
:104B60006DFC202001F046FC102001F043FC0420E5
:104B700001F040FC01F036FC62B672B601F024FC94
:104B8000202001F037FC102001F034FC042001F05B
:104B900031FC0121284601F06DFC202001F02AFCA7
:104BA000102001F027FC042001F024FC01F01AFC85
:104BB00062B60121BAF80030ADF80C3003A8FDF759
:104BC00075FFA4F13005BB465BF8046B03A8C6F380
:104BD0000741FDF76BFFC6F30721FDF767FFF1B251
:104BE000FDF764FF72B601F0EFFB202001F002FC3C
:104BF000102001F0FFFB042001F0FCFB31462846A9
:104C000001F038FC202001F0F5FB102001F0F2FB50
:104C1000042001F0EFFB01F0E5FB62B60435A5428C
:104C2000D2D19DF80C5072B601F0CEFB202001F0DD
:104C3000E1FB102001F0DEFB042001F0DBFB294644
:104C4000204601F017FC202001F0D4FB102001F0D9
:104C5000D1FB042001F0CEFB01F0C4FB62B69DF84D
:104C60000D5072B601F0B0FB202001F0C3FB102004
:104C700001F0C0FB042001F0BDFB2946201D01F01E
:104C8000F9FB202001F0B6FB102001F0B3FB04205B
:104C900001F0B0FB01F0A6FB62B6012308F8013C6D
:104CA00004F580644C4507F130077FF444AF714D43
:104CB0002C78002C40F0D78072B601F085FB2020C4
:104CC00001F098FB102001F095FB042001F092FB0D
:104CD000694801F0B3FB202001F08CFB102001F0AB
:104CE00089FB042001F086FB01F07CFB62B672B602
:104CF00001F06AFB202001F07DFB102001F07AFB1F
:104D0000042001F077FB01215B4801F0B3FB202078
:104D100001F070FB102001F06DFB042001F06AFB34
:104D200001F060FB62B6554B01211B88ADF80C30D9
:104D300003A8FDF7BBFE524BD3ED007A514BB7EE03
:104D4000007AF4EEC77AF1EE10FA1E780ED89FEDD5
:104D50004E7A67EE877AF5EEC07AF1EE10FAA2BFCE
:104D6000FCEEE77ACDED017A9DF80440214603A8D8
:104D7000FDF79CFE3146FDF799FE72B601F024FB6B
:104D8000202001F037FB102001F034FB042001F05B
:104D900031FB2146384801F06DFB202001F02AFB51
:104DA000102001F027FB042001F024FB01F01AFB86
:104DB00062B672B601F008FB202001F01BFB102048
:104DC00001F018FB042001F015FB31462F4801F0DB
:104DD00051FB202001F00EFB102001F00BFB042002
:104DE00001F008FB01F0FEFA62B69DF80C4072B6C5
:104DF00001F0EAFA202001F0FDFA102001F0FAFAA1
:104E0000042001F0F7FA2146214801F033FB20206D
:104E100001F0F0FA102001F0EDFA042001F0EAFAB6
:104E200001F0E0FA62B69DF80D4072B601F0CCFADE
:104E3000202001F0DFFA102001F0DCFA042001F05C
:104E4000D9FA2146134801F015FB202001F0D2FACF
:104E5000102001F0CFFA042001F0CCFA01F0C2FAE0
:104E600062B601232B7005B0BDE8F08FF002002080
:104E700034C000085500002000D00008D07500089C
:104E8000680000206C00002000007F4308D000086C
:104E90000CD0000810D000085600002034D00008C4
:104EA0002DE9F04F724B1B7885B0002B00F0D880B5
:104EB000704B714A1D681388002B00F0C5806F4944
:104EC000DFF8D481D1F800B0013B13800BF101036E
:104ED0005A4202F01F0203F01F0358BF53420B60F7
:104EE000674B1E88674B4FF4967403A81B88ADF878
:104EF0000C30A521FDF7DAFDB6FBF4F304FB1363D8
:104F00009BB2A522272108F80320FDF7CFFD731CD3
:104F10009BB2B3FBF4F204FB12339BB22722E021D5
:104F200008F80320FDF7C2FD691CB31CB1F5807FB2
:104F30009BB228BF0021B3FBF4F204FB12339BB2F7
:104F4000CFB2E022394608F80320FDF7AFFDF31C8D
:104F50009BB2B3FBF4F204FB12339BB2012108F8BD
:104F60000370FDF7A3FD331D9BB2B3FBF4F204FB0A
:104F700012339BB2012208F80320434A3023771DE5
:104F800006F1290903FB0522BFB21FFA89F952F87D
:104F900004AB019203A8CAF307410091FDF786FD17
:104FA000B7FBF4FC04FB1C7C1FFA8CFC009908F88E
:104FB0000C10CAF307210091FDF778FD07F1010CF1
:104FC0001FFA8CFCBCFBF4FE04FB1ECC1FFA8CFC0D
:104FD000009908F80C105FFA8AF10091FDF766FD60
:104FE000BB1C9BB20337B3FBF4F004FB10339BB242
:104FF000BFB2009908F80310B945019AC7D1B9FBAF
:10500000F4F304FB13991FFA89F99DF80C3008F8A2
:10501000093006F12A039BB2B3FBF4F204FB12330E
:105020009BB29DF80D2008F80320154B06F12B02CA
:105030001A80164B23F81B60154B2B2203F80B200C
:10504000144A138801331380022D0CDC01356B42A6
:1050500003F0030305F0030558BF5D42054B1D60D7
:1050600005B0BDE8F08F024A00231370F8E700BFD7
:1050700054000020EC020020C80000200C07002093
:10508000D8050020D0750008F0020020300700206D
:105090001007002006070020DA0500202DE9F04F58
:1050A000DFF81C813F4D404CB8F8009085B0264693
:1050B00003A856F804ABADF80C90BAF1FF0F94BFFB
:1050C00051460021C9B2FDF7F1FCAB4604F13403AF
:1050D00056F8047B4BF8047B03A8C7F30741019300
:1050E000FDF7E4FCC7F30721FDF7E0FCF9B2FDF79B
:1050F000DDFC019B9E42EBD19DF80C003168A36B57
:105100009DF80D20884201D19A4208D027492A46AD
:10511000002301330C2B42F8041BFAD102E0BAF150
:10512000010FF3D1224B04F580649C4205F1300558
:10513000BDD12768B8F80030ADF80C30FF2F94BF10
:105140003E460026F6B203A83146FDF7AFFCD4E98F
:1051500001583146E468FDF7A9FCB5F5807F28BF0A
:105160000025EDB22946FDF7A1FC9DF80C30434522
:1051700015D19DF80D30A34211D1012F0FD107EEAB
:10518000906A9FED0C7A0C4BF8EE677A67EE877A9F
:10519000C3ED007A6B1E5D425D41084B1D7005B08A
:1051A000BDE8F08FF002002000C00008777777009C
:1051B00000D000088180803B680000206C00002047
:1051C000D075000808B540F2115001F057FB4FF4BC
:1051D0008063032200214FF0904001F087F94FF4E3
:1051E0008063002202214FF0904001F05DF9BDE89C
:1051F00008404FF4806204214FF0904001F0B7B9AD
:1052000008B540F2115001F039FB4FF4007303224E
:1052100000214FF0904001F069F94FF40073002233
:1052200002214FF0904001F03FF9BDE808404FF4F3
:10523000007204214FF0904001F099B910B50F4C65
:1052400040F2157001F01AFB20460D49002201F0D2
:10525000BFF900231A461946204601F03BFA2046C2
:1052600001F057FA00221146172001F0B9FABDE803
:10527000104001220021202001F0B2BA0054004069
:10528000801A060010B5124B124C1A78124B1A7085
:10529000124A01231360124A80211170114A1370BF
:1052A000114B0022204640F209111A8001F045FA04
:1052B00020464FF4857101F040FA20464FF4847186
:1052C00001F03BFA2046BDE8104001F027BA00BFCC
:1052D0000200002000540040DA020020D402002026
:1052E000DB020020DC020020D802002010B5124BA7
:1052F000124C1A78124B1A70124A01231360124A88
:1053000080211170114A1370114B0022204640F287
:1053100009111A8001F011FA20464FF4857101F04D
:105320000CFA20464FF4847101F007FA2046BDE8DC
:10533000104001F0F3B900BF01000020005400400C
:10534000DA020020D4020020DB020020DC02002070
:10535000D8020020134A002310B51370124A134CD0
:1053600002211160124A80211170124A1370124AF0
:1053700020464FF48061138001F0B7F9204640F2D7
:10538000091101F0DAF920464FF4857101F0D5F9E1
:1053900020464FF4847101F0D0F92046BDE810405A
:1053A00001F0BCB9CC020020D4020020005400401F
:1053B000DB020020DC020020D80200202DE9F04FA3
:1053C000504B1B7885B0002B00F098804E4ADFEDE3
:1053D0004F6AC02313704E4B1B885BBA23F0030344
:1053E0009BB207EE903AB8EE677ADFED4A7AE7EEC5
:1053F000267A9FED497A67EE877AF5EEC07AF1EE6C
:1054000010FAA9BFFCEEE77A002317EE903A9BB2A0
:1054100053701B0A9370414A1388002B6ED0404989
:10542000404FD1F800903E88DFF80C81DFF8D8B00B
:10543000013B138009F101035A4202F01F0203F0FD
:105440001F0358BF53420B60374B4FF496741B88B1
:10545000ADF80C30A52103A8FDF728FBB6FBF4F34B
:1054600004FB13639BB2A522032108F80320FDF778
:105470001DFB731C9BB2B3FBF4F204FB12339BB213
:10548000032206F1020A751D08F803201FFA8AFAA2
:10549000ADB21BF8011B019103A8FDF707FBBAFB96
:1054A000F4F304FB13A30AF1010A9BB21FFA8AFA70
:1054B000019908F803105545EBD1B5FBF4F304FB53
:1054C0001355ADB29DF80C3008F80530B31D9BB2F2
:1054D000B3FBF4F204FB12339BB29DF80D2008F8E5
:1054E0000320F31D3B80114B23F81960104B07225A
:1054F00003F809200F4A13880133138005B0BDE873
:10550000F08F00BFCC020020CD02002052B82F3B0C
:10551000D002002066663BC20000C842C8000020DE
:105520000C070020D8050020D075000830070020A7
:105530001007002006070020DA05002010B5124BE6
:10554000124C1A78124B1A70124A01231360124A35
:1055500080211170114A1370114B0022204640F235
:1055600009111A8001F0E9F820464FF4857101F025
:10557000E4F820464FF4847101F0DFF82046BDE8DE
:10558000104001F0CBB800BF0000002000540040E4
:10559000DA020020D4020020DB020020DC0200201E
:1055A000D80200202DE9F04F504B1B7885B0002B1E
:1055B00000F098804E4ADFED4F6AC22313704E4BC5
:1055C0001B885BBA23F003039BB207EE903AB8EE58
:1055D000677AF9EE087AE7EE267A9FED487A67EE69
:1055E000877AF5EEC07AF1EE10FAA9BFFCEEE77A01
:1055F000002317EE903A9BB253701B0A9370404AF7
:105600001388002B6ED03F493F4FD1F800903E8861
:10561000DFF80881DFF8D8B0013B138009F10103FE
:105620005A4202F01F0203F01F0358BF53420B609F
:10563000364B4FF496741B88ADF80C30A52103A8A7
:10564000FDF734FAB6FBF4F304FB13639BB2A52217
:10565000032108F80320FDF729FA731C9BB2B3FB62
:10566000F4F204FB12339BB2032206F1020A751D09
:1056700008F803201FFA8AFAADB21BF8011B01914A
:1056800003A8FDF713FABAFBF4F304FB13A30AF122
:10569000010A9BB21FFA8AFA019908F803105545CE
:1056A000EBD1B5FBF4F304FB1355ADB29DF80C3010
:1056B00008F80530B31D9BB2B3FBF4F204FB1233C0
:1056C0009BB29DF80D2008F80320F31D3B80104B82
:1056D00023F819600F4B072203F809200E4A13889C
:1056E0000133138005B0BDE8F08F00BFCC0200206D
:1056F000CD0200200000FA3AD00200200000C8428B
:10570000C80000200C070020D8050020D075000834
:10571000300700201007002006070020DA050020CF
:10572000494B4A491B784A4870B5002B3DD001F0DF
:1057300019F840B16FF00102464B45481978BDE8B1
:10574000704000F0DEBF4449414801F00BF828B139
:1057500041493F48BDE8704001F02EB83F493C4800
:1057600001F000F860B13E4D3E4B2C881B68A3420F
:1057700007DD3D4B36481978013400F0D9FF2C8005
:1057800070BD334800F0CFFF31484FF4847100F012
:10579000DEFF2F484FF4857100F0D9FFBDE870405F
:1057A0002B4840F2091100F0D2BF00F0DBFF0446A5
:1057B00008B10122C0E7284925482A4E00F0D2FF4F
:1057C000054638B13368012BC2D12148214600F08B
:1057D0008CFFBDE725491E48346800F0C3FF002850
:1057E000CED0022C16D11A48294600F07EFF1C4D5F
:1057F0001748013C34602C8800F09CFF04F0010342
:105800001B4A1A49D054012C04BF1A4B1C70013496
:105810002C809EE7012CEAD10D4800F084FF294638
:105820000B4800F068FF0A484FF4847100F08FFFC6
:1058300007484FF4857100F08AFF054840F20911CE
:1058400000F085FFD3E700BFDC020020090100055E
:1058500000540040DB020020090101050901070591
:10586000D8020020D4020020DA0200200901060537
:10587000D0020020CC02002010B50F4C0F4920466A
:1058800000F09AFF20460E4900F096FF20460D4991
:1058900000F092FF20460C4900F08EFF20460B4995
:1058A00000F08AFF20460A4900F086FF2046094999
:1058B000BDE8104000F080BF0054004008010A0518
:1058C00008010F0508010E0508010B05080109056F
:1058D0000801080508010C052DE9F743DFF83891A8
:1058E000454D0023F42289F8002089F801301A463A
:1058F00019460C24012604FB01F0285C20B106FAAD
:1059000001F31A43D2B2034601310429F3D10BB19A
:1059100089F80120394A1388002B69D03849DFF80B
:10592000FC800F68B8F80050364E013B13807B1C9A
:105930005A4202F01F0203F01F0358BF53420B608C
:10594000314B4FF4967401A81B88ADF80430A521A3
:10595000FDF7ACF8B5FBF4F304FB13539BB2A5229F
:105960000221F254FDF7A2F86B1C9BB2B3FBF4F2D8
:1059700004FB12339BB20222F421F254FDF796F895
:10598000AB1C9BB299F80190B3FBF4F204FB123309
:105990009BB2F4224946F254FDF788F8EB1C9BB207
:1059A000B3FBF4F204FB12339BB206F803902B1DF9
:1059B0009BB2B3FBF4F204FB12339BB29DF80420BC
:1059C000F2546B1D9BB2B3FBF4F204FB12339BB297
:1059D0009DF80520F254AB1DA8F800300B4B23F8BE
:1059E00017500B4B0622DA550A4A138801331380ED
:1059F00003B0BDE8F08300BF88040020C800002089
:105A00000C070020DA050020D075000830070020C0
:105A1000100700200607002050040020D8050020B1
:105A20002DE9F84FA54BDFEDA67A93F800C0A54B02
:105A3000A54D93F800E0A54BA54CD3ED005AA54B1E
:105A40009FEDA56A1B68DFF8C882DFF8C892A348FB
:105A5000302265EEA75A02FB03442F4600220C2693
:105A600055F8041BBCF1000F72D018F80230002B5F
:105A70006ED019F8023013B1BEF1000F6FD054F898
:105A80002230C3F3074A07EE10AAC3F3072ADBB29A
:105A900006EE90AA07EE903AB8EEC77AF8EEE66AFC
:105AA000F8EEE77A27EE257A66EEA56A67EEA57A24
:105AB000013206FB01010C2A81ED007AC1ED016A79
:105AC000C1ED027ACCD1DFF850C29CF80060002E04
:105AD00000F0D080824D9FED836A2968782391FB86
:105AE000F3F203FB1212804B03EB8203D3ED006A47
:105AF000FCEEE67A4FF03C0E17EE903A9BB2B3FB09
:105B0000FEF40EFB1433B7EE007A9BB237EE667AE2
:105B100007EE903A27EE267AF8EE677A4FF00608FD
:105B200067EE867A36EEC76AB4FBF8F267EE867ADD
:105B300008FB124292B237EE276AFAB1531E76EE94
:105B4000E77A032B00F28E80DFE803F08F107F8866
:105B5000B0EE467AF0EE466AF0EE467AA8E79FEDA0
:105B60005E7AF0EE476AF0EE477AA1E7F0EE667AE9
:105B7000F0EE476AB0EE467AB0EE676A782904D153
:105B80005A4B1B780BB98CF8003001312960DFF8D3
:105B90008CC15749DFF8888100220C244FF07E5BCE
:105BA00004FB02F35CF8049B18F803A08E46002562
:105BB0004D4566DB0132042A01F11001F0D14D4B55
:105BC000464A9FED4D7A00201C46D2ED017A67EEE1
:105BD000877A0130FCEEE77A0C2817EE901AD2EDA6
:105BE000007A197067EE877A02F10C02FCEEE77A10
:105BF00003F1030317EE901A52ED017A03F8021C29
:105C000067EE877AFCEEE77A17EE901A03F8011C2C
:105C1000DBD13A4B21783A4C01221A80394A3A4B6F
:105C200002EBC10052F831201A60426837485A60CE
:105C30000021E36000F0F5FF2146022000F040FB68
:105C4000BDE8F84F022000F027BBB0EE676AF0EE27
:105C5000667AF0EE476AB0EE677A8FE7F0EE667A22
:105C6000F0EE466AB0EE476AF5E7B0EE666AF0EE2F
:105C7000676A83E79FED187AB0EE476AF0EE476AED
:105C800085E75EF8043B57F82330BAF1000F09D0DE
:105C900004FB0303C3F800B0C3F804B0C3F808B0B2
:105CA000013585E7002EFBD004FB0303C3ED006A3A
:105CB00083ED016A83ED027AF2E700BF6C000020F9
:105CC0008180803BB003002070000020680000202D
:105CD000F0020020E802002000000000C0030020C5
:105CE000E00200208988883CFC750008E40200205E
:105CF000040000205204002000007F43B80400206C
:105D0000A4000020DC770008BA0400200044014011
:105D10005A000020B10300200300002044000020AE
:105D200088040020B34BDFEDB47A93F800C0B34B86
:105D30009FEDB36A2DE9F74F93F800E0B14BB24DF8
:105D4000D3ED005AB14BB24C1B68DFF8FC82DFF890
:105D5000FC92B048302265EEA75A02FB03442F465E
:105D600000220C2655F8041BBCF1000F72D018F865
:105D70000230002B6ED019F8023013B1BEF1000FC3
:105D80006FD054F82230C3F3074A07EE10AAC3F3CA
:105D9000072ADBB206EE90AA07EE903AB8EEC77A71
:105DA000F8EEE66AF8EEE77A27EE257A66EEA56A5F
:105DB00067EEA57A013206FB01010C2A81ED007A1B
:105DC000C1ED016AC1ED027ACCD1DFF884C29CF842
:105DD0000060002E00F0E5808F4D9FED906A2968ED
:105DE000782391FBF3F203FB12128D4B03EB82033A
:105DF000D3ED006AFCEEE67A4FF03C0E17EE903AD7
:105E00009BB2B3FBFEF40EFB1433B7EE007A9BB2E9
:105E100037EE667A07EE903A27EE267AF8EE677A42
:105E20004FF0060867EE867A36EEC76AB4FBF8F2E2
:105E300067EE867A08FB124292B237EE276AFAB111
:105E4000531E76EEE77A032B00F2A380DFE803F01F
:105E5000A410949DB0EE467AF0EE466AF0EE467AD3
:105E6000A8E79FED677AF0EE476AF0EE477AA1E780
:105E7000F0EE667AF0EE476AB0EE467AB0EE676A08
:105E8000782904D1674B1B780BB98CF800300131AD
:105E90002960DFF8C0C16449DFF8BC8100220C240E
:105EA0004FF07E5B04FB02F35CF8049B18F803A040
:105EB0008E4600254D457BDB0132042A01F110019D
:105EC000F0D15A4B5349DFED5A7A002216461F464D
:105ED00091ED017A93F8008093F801E093F802C005
:105EE00027EE277ABCEEC77A8DED017A91ED007A24
:105EF0009DF804501D7027EE277AA845BCEEC77A9E
:105F00008DED017A91ED027A9DF804405C7027EEE8
:105F1000277ABCEEC77A8DED017A9DF8040098705F
:105F200062D1A64560D1844518BF012201360C2EEE
:105F300003F1030301F10C01CAD1002A56D03D4BF5
:105F400039783D4C01221A803C4A3D4B02EBC1009E
:105F500052F831201A6042683A485A600021E360E2
:105F600000F05FFE2146022000F0AAF9022003B0F3
:105F7000BDE8F04F00F090B9B0EE676AF0EE667AD7
:105F8000F0EE476AB0EE677A7AE7F0EE667AF0EE06
:105F9000466AB0EE476AF5E7B0EE666AF0EE676A09
:105FA0006EE79FED177AB0EE476AF0EE476A70E74A
:105FB0005EF8043B57F82330BAF1000F09D004FB18
:105FC0000303C3F800B0C3F804B0C3F808B0013548
:105FD00070E7002EFBD004FB0303C3ED006A83EDE2
:105FE000016A83ED027AF2E701229FE703B0BDE880
:105FF000F08F00BF6C0000208180803BB003002048
:10600000000000006800002070000020E80200206E
:10601000F0020020C0030020E00200208988883CB4
:10602000FC750008E4020020040000205204002057
:1060300000007F43B8040020A4000020DC770008A3
:10604000BA040020004401405A000020B10300209F
:10605000030000204400002088040020022170B5C5
:10606000084600F07BF908B3114D0121022000F031
:10607000A9F92C88232C19D80E4A0F4B115D0F4A11
:106080000F4E02EBC10052F831201A6042680D48F1
:106090005A600021F36000F0C4FD3146022000F098
:1060A0000FF90134022000F0F7F82C8070BD00BF1A
:1060B000B804002052040020BA040020DC77000855
:1060C000A40000200044014008B5FCF75BFCFCF78D
:1060D00073FCFCF79FFCFCF7A7FCFCF7C0FCFCF78B
:1060E000D9FCFCF7CBFDFEF7D1F9FEF7EBF9FEF793
:1060F00005FAFEF749FAFEF75FFAFEF775FAFEF7C2
:1061000089FAFEF79FFBFEF7ADFCFEF7DDFCFEF71C
:10611000F2FCFEF7C3FFFFF755F8FFF771F8FFF742
:106120008DF8BDE80840FFF77BBC00002DE9F04F7B
:1061300000258BB0CDE90855CDE90655CDE90455CC
:10614000CDE90255CDE90055A8462F462E4641F22D
:106150008739484B1C68009B42F20F72E31A934246
:1061600002D9FEF705F90094019BE31A092B02D925
:10617000FEF766FA0194029BA4EB030BBBF57A7F52
:1061800002D3FEF7BBFB0294039BA4EB030ACA45B0
:1061900002D9FEF7B6FC0394049BE31AB3F5FA7F29
:1061A00002D3FEF7B5FC0494BBF57A7F01D3FEF76A
:1061B000B7FC059BE31A312B02D9FEF771FE05945B
:1061C000069BE21A43F697239A4202D9FFF75AF840
:1061D0000694079BE31AB3F57A5F04D3FFF786F8BA
:1061E000A4F57A730793089BE21A43F6D9639A429F
:1061F00004D9FFF7AFF8A4F242430893099BE21ACF
:1062000043F6E3639A4204D9FFF7D8F8A4F24C436B
:106210000993A21B44F267239A4203D9FFF78EF930
:10622000A4F5FA66E21B44F28F239A4203D9FFF7E2
:1062300091F8A4F5FF67A4EB080244F299239A426F
:1062400003D9FFF7AFF9A4F60208CA4501D9FFF751
:1062500043FB631B202B02D9FFF764FD2546FCF7A7
:1062600053FDFDF7FFFFFEF75DF8FEF73DFAFEF781
:10627000FFFA6EE7200A002008B5FFF725FFFFF7B9
:1062800055FF00001423034A5843835823F020038A
:1062900083507047080002401423034A5843835830
:1062A00043F0010383507047080002401423034A5F
:1062B0005843835823F0010383507047080002407D
:1062C00038B50446FFF7F2FF142303FB04F0184B24
:1062D0000A68C2500433CA68C250083B0A8BC250D5
:1062E000043B0D694A68C4582A43CD6924F47C54A0
:1062F0002A432243C2500A7A012AC2580CBF42F0F4
:10630000400222F04002C2500A7D012AC2580CBF4E
:1063100042F0800222F08002C2504A7D22B9C25867
:1063200022F01002C25038BDC25842F01002F9E704
:1063300010000240034B80005A68814011435960AD
:10634000704700BF000002401423034A584383589B
:106350000B438350704700BF08000240042913D04C
:1063600008291DD0022927D1144B82001B689140B7
:1063700019401423124A4343985800F00200D9B13F
:10638000003818BF012070470C4B82001B689140F9
:10639000194014230A4A4343985800F00400EEE7DA
