:020000040800F2
:100000000020002079080008C5080008C50800087D
:10001000C5080008C5080008C50800080000000061
:10002000000000000000000000000000C5080008FB
:10003000C508000800000000C5080008C508000841
:1000400000000000C5080008C5080008C508000831
:10005000C5080008C5080008C5080008C50800084C
:10006000C5080008C5080008C5080008C50800083C
:10007000C5080008C5080008C5080008C50800082C
:10008000C5080008C508000800000000C5080008F1
:10009000C5080008C5080008C5080008C50800080C
:1000A000C5080008C5080008C5080008C5080008FC
:1000B000C508000800000000C50800080000000096
:1000C000C508000800000000C5080008C5080008B1
:1000D000C50800080000000000000000000000004B
:1000E0000000000000000000C5080008000000003B
:1000F0000000000000000000000000000000000000
:10010000C50800080000000000000000C508000845
:1001100000000000000000000000000000000000DF
:1001200000000000000000000000000000000000CF
:1001300000000000000000000000000000000000BF
:10014000000000000000000000000000C5080008DA
:1001500010B5054C237833B9044B13B10448AFF301
:1001600000800123237010BD00000020000000006B
:10017000C808000808B5034B1BB103490348AFF397
:10018000008008BD0000000004000020C80800082E
:10019000274A136843F48033136000230133244A51
:1001A000126812F4003F02D1B3F5006FF6D1204B74
:1001B0001B6813F4003F39D01D4B5A685A605A68C7
:1001C00042F400525A605A6842F480625A605A6897
:1001D00022F0036222F470225A60DA6A22F040426E
:1001E00022F00F02DA625A6842F0016242F4803271
:1001F0005A60DA6A42F00102DA62DA6ADA621A688E
:1002000042F080721A600A4B1B6813F0007FFAD02C
:10021000074B5A6822F003025A605A6842F0020201
:100220005A60034B5B6813F0080FFAD0704700BFA9
:100230000010024008B5FFF7ABFF08BD10B582B053
:10024000634BDB6903F00603062B50D0604BDB6980
:1002500013F4005F4BD05E4B5E4959605E4A5A60B2
:1002600099609A601A6942F020021A611A6942F094
:1002700040021A61564BDB6813F0010FFAD1544B60
:100280001A6922F020021A611A6942F010021A61FA
:10029000DB6913F0060F3CD1504BA5221A804C4A63
:1002A000D169C1F3072101F0DF014C4B5980D169BD
:1002B000C1F307419980D169090ED980116AC9B289
:1002C0001981126AC2F307225A81414BDB6813F08D
:1002D000010FFAD13E4B1A6922F010021A611A6915
:1002E00022F400721A611A6942F080021A613C4AD3
:1002F000136843F001031360394B1B6813F0020FBE
:10030000FAD0374A536843F08003536000230193C7
:100310000CE02F4BDB6903F00603022BBFD12F4B00
:10032000BB221A80BBE7019B01330193019B4F2B3A
:10033000F9D92B4A536843F090035360002301938B
:1003400002E0019B01330193019B4F2BF9D9244B10
:100350005A6822F003025A601A6822F0867222F468
:1003600080321A6059681F4A0A405A605A6822F05F
:10037000084222F474125A60DA6A22F0404222F0F3
:100380000F02DA621A6B22F4817222F001021A6300
:100390001A6B22F480321A631A6B22F000421A633D
:1003A0005A6B22F001025A63D3F8C02022F4803243
:1003B000C3F8C02000249C60C3F8CC40FFF73AFF8C
:1003C00021464FF0006000F081F802B010BD00BF80
:1003D0000020024023016745AB89EFCD00F8FF1FE5
:1003E000001002400C00FF08F0B50568C6684FF029
:1003F000000C03E00CF1010C1FFA8CFCBCF10F0F98
:1004000018D84FF0010E0EFA0CFE1EEA030FF1D0C1
:100410004FEA4C044FF0030E0EFA04FE25EA0E05D7
:1004200001FA04F73D4326EA0E0E02FA04F444EA08
:100430000E06DFE70560C660F0BD30B501290AD0C1
:10044000416821EA0301416084684FF6FF718A42E6
:1004500005D000211DE0416819434160F4E7C56BF8
:10046000002201E0013292B20F2A0DD80121914001
:100470001942F7D04FEA420E4FF0030C0CFA0EFC73
:1004800044EA0C040D43EDE78460C56318E00131D4
:1004900089B20F2913D84FF0010C0CFA01FC1CEAA9
:1004A000030FF4D04FEA410E4FF0030C0CFA0EFC90
:1004B00024EA0C0C02FA0EFE4EEA0C04E7E7846014
:1004C00030BD8161704781627047000021F060415A
:1004D00021F07F010143024B9960BFF34F8F7047BA
:1004E00000ED00E0830903F1804303F504331A684B
:1004F00000F01F00012101FA00F01043186070475E
:1005000010B5FFF79BFE40F21150FFF7EBFF40F2F2
:100510001250FFF7E7FF744C4FF480730022012163
:100520002046FFF761FF4FF480730322002120462D
:10053000FFF783FF1023002201214FF09040FFF7C7
:1005400053FF1023032200214FF09040FFF775FF67
:1005500010214FF09040FFF7B6FF4FF40043002208
:1005600001214FF09040FFF73FFF4FF4004303227B
:1005700000214FF09040FFF760FF00F06FF9ABE013
:1005800001335A4A9342FBD3FF231A46002101202C
:1005900000F052F9002300E00133544A9342FBD3A8
:1005A000FF2300221946012000F046F9002300E055
:1005B00001334E4A9342FBD30023FF221146012010
:1005C00000F03AF9002300E00133484A9342FBD39C
:1005D00000231A46FF21012000F02EF9002300E03D
:1005E0000133424A9342FBD30023FF2219460120E4
:1005F00000F022F9002300E001333C4A9342FBD390
:10060000FF2300221146012000F016F9002300E02C
:100610000133364A9342FBD300231A461946012080
:1006200000F00AF9002300E00133314A9342FBD97C
:100630007F231A461946012000F0FEF8002300E04F
:1006400001332A4A9342FBD37F231A46002101201B
:1006500000F0F2F8002300E00133244A9342FBD378
:100660007F2300221946012000F0E6F8002300E075
:1006700001331E4A9342FBD300237F2211460120FF
:1006800000F0DAF8002300E00133184A9342FBD36C
:1006900000231A467F21012000F0CEF8002300E05D
:1006A0000133124A9342FBD300237F2219460120D3
:1006B00000F0C2F8002300E001330C4A9342FBD360
:1006C0007F2300221146012000F0B6F8002300E04D
:1006D0000133064A9342FBD3FF231A4619460120F1
:1006E00000F0AAF800234CE700040048C0E1E40051
:1006F0007FC3C90170B5002595E04D4E4FF4807160
:100700003046FFF7DEFE00BF00BF00BF4FF4807130
:100710003046FFF7D8FE00BF00BF00BF00BF00BFDC
:1007200000BF00BF00BF00BF00BF00BF00BF00BFD1
:1007300000BF00BF00BF00BF00BF00BF00BF00BFC1
:1007400000BF00BF00BF00BF00BF00BF00BF00BFB1
:1007500000BF00BF00BF00BF00BF00BF00BF00BFA1
:1007600000BF00BF00BF00BF00BF00BF00BF00BF91
:1007700000BF00BF00BF00BF00BF00BF00BF00BF81
:1007800000BF00BF0134E4B2072C4AD8294B5A5DA0
:10079000802323411A42B0D0254E4FF48071304659
:1007A000FFF78FFE00BF00BF00BF00BF00BF00BF4C
:1007B00000BF00BF00BF00BF00BF00BF00BF00BF41
:1007C00000BF00BF00BF00BF00BF00BF00BF00BF31
:1007D00000BF00BF00BF00BF00BF00BF00BF00BF21
:1007E00000BF00BF00BF00BF00BF00BF00BF00BF11
:1007F00000BF00BF00BF00BF00BF00BF00BF00BF01
:1008000000BF00BF00BF00BF00BF00BF00BF00BFF0
:100810004FF480713046FFF756FE00BF00BF00BFA7
:10082000B0E70135EDB2022D01D80024ACE770BD70
:10083000000400481C00002010B5013800EB400007
:1008400000F1010C044C04F80C1022540230235423
:10085000FFF750FF10BD00BF1C00002010B50024A2
:1008600014B1FFF747FF10BD00231A461946E0B246
:10087000FFF7E2FF0134F3E7DFF830D0002103E0B7
:100880000B4B5B58435004310A480B4B42189A42B9
:10089000F6D30A4A02E0002342F8043B084B9A428E
:1008A000F9D3FFF7CBFCFFF72BFE704700200020A9
:1008B000E8080008000000200000002000000020E0
:1008C00020000020FEE70000F8B500BFF8BC08BC1F
:1008D0009E467047F8B500BFF8BC08BC9E467047FE
:0408E0007501000896
:0408E40051010008B6
:04000005080008796E
:00000001FF
