:020000040800F2
:100000000020002099070008E5070008E507000820
:10001000E5070008E5070008E50700080000000004
:10002000000000000000000000000000E5070008DC
:10003000E507000800000000E5070008BF0600080B
:1000400000000000E5070008E5070008E5070008D4
:10005000E5070008E5070008E5070008E5070008D0
:10006000E5070008E5070008E5070008E5070008C0
:10007000E5070008E5070008E5070008E5070008B0
:10008000E5070008E507000800000000E507000894
:10009000E5070008E5070008E5070008E507000890
:1000A000E5070008E5070008E5070008E507000880
:1000B000E507000800000000E50700080000000058
:1000C000E507000800000000E5070008E507000854
:1000D000E50700080000000000000000000000002C
:1000E0000000000000000000E5070008000000001C
:1000F0000000000000000000000000000000000000
:10010000E50700080000000000000000E507000807
:1001100000000000000000000000000000000000DF
:1001200000000000000000000000000000000000CF
:1001300000000000000000000000000000000000BF
:10014000000000000000000000000000E5070008BB
:1001500010B5054C237833B9044B13B10448AFF301
:1001600000800123237010BD00000020000000006B
:10017000E807000808B5034B1BB103490348AFF378
:10018000008008BD0000000004000020E80700080F
:10019000274A136843F48033136000230133244A51
:1001A000126812F4003F02D1B3F5006FF6D1204B74
:1001B0001B6813F4003F39D01D4B5A685A605A68C7
:1001C00042F400525A605A6842F480625A605A6897
:1001D00022F0036222F470225A60DA6A22F040426E
:1001E00022F00F02DA625A6842F0016242F4803271
:1001F0005A60DA6A42F00102DA62DA6ADA621A688E
:1002000042F080721A600A4B1B6813F0007FFAD02C
:10021000074B5A6822F003025A605A6842F0020201
:100220005A60034B5B6813F0080FFAD0704700BFA9
:100230000010024008B5FFF7ABFF08BD10B582B053
:10024000634BDB6903F00603062B50D0604BDB6980
:1002500013F4005F4BD05E4B5E4959605E4A5A60B2
:1002600099609A601A6942F020021A611A6942F094
:1002700040021A61564BDB6813F0010FFAD1544B60
:100280001A6922F020021A611A6942F010021A61FA
:10029000DB6913F0060F3CD1504BA5221A804C4A63
:1002A000D169C1F3072101F0DF014C4B5980D169BD
:1002B000C1F307419980D169090ED980116AC9B289
:1002C0001981126AC2F307225A81414BDB6813F08D
:1002D000010FFAD13E4B1A6922F010021A611A6915
:1002E00022F400721A611A6942F080021A613C4AD3
:1002F000136843F001031360394B1B6813F0020FBE
:10030000FAD0374A536843F08003536000230193C7
:100310000CE02F4BDB6903F00603022BBFD12F4B00
:10032000BB221A80BBE7019B01330193019B4F2B3A
:10033000F9D92B4A536843F090035360002301938B
:1003400002E0019B01330193019B4F2BF9D9244B10
:100350005A6822F003025A601A6822F0867222F468
:1003600080321A6059681F4A0A405A605A6822F05F
:10037000084222F474125A60DA6A22F0404222F0F3
:100380000F02DA621A6B22F4817222F001021A6300
:100390001A6B22F480321A631A6B22F000421A633D
:1003A0005A6B22F001025A63D3F8C02022F4803243
:1003B000C3F8C02000249C60C3F8CC40FFF73AFF8C
:1003C00021464FF0006000F081F802B010BD00BF80
:1003D0000020024023016745AB89EFCD00F8FF1FE5
:1003E000001002400C00FF08F0B50568C6684FF029
:1003F000000C03E00CF1010C1FFA8CFCBCF10F0F98
:1004000018D84FF0010E0EFA0CFE1EEA030FF1D0C1
:100410004FEA4C044FF0030E0EFA04FE25EA0E05D7
:1004200001FA04F73D4326EA0E0E02FA04F444EA08
:100430000E06DFE70560C660F0BD30B501290AD0C1
:10044000416821EA0301416084684FF6FF718A42E6
:1004500005D000211DE0416819434160F4E7C56BF8
:10046000002201E0013292B20F2A0DD80121914001
:100470001942F7D04FEA420E4FF0030C0CFA0EFC73
:1004800044EA0C040D43EDE78460C56318E00131D4
:1004900089B20F2913D84FF0010C0CFA01FC1CEAA9
:1004A000030FF4D04FEA410E4FF0030C0CFA0EFC90
:1004B00024EA0C0C02FA0EFE4EEA0C04E7E7846014
:1004C00030BD8161704781627047000021F060415A
:1004D00021F07F010143024B9960BFF34F8F7047BA
:1004E00000ED00E0830903F1804303F504331A684B
:1004F00000F01F00012101FA00F01043186070475E
:10050000830903F1804303F504331A6800F01F00E8
:10051000012101FA00F0104318607047830903F1CC
:10052000804303F504331A6800F01F00012101FA2B
:1005300000F022EA000018607047000008B52C4B5C
:1005400098423AD01CD8A3F5943398423ED003F594
:10055000E053984208D14FF48160FFF7D1FF4FF488
:100560008160FFF7DBFF30E0B0F1804F2DD14FF419
:100570008060FFF7C5FF4FF48060FFF7CFFF24E0F6
:100580001C4B98422BD003F58063984208D140F26F
:100590001230FFF7B5FF40F21230FFF7BFFF14E053
:1005A000A3F50063984210D14FF44470FFF7A8FF01
:1005B0004FF44470FFF7B2FF07E040F20B30FFF753
:1005C0009FFF40F20B30FFF7A9FF08BD40F201404A
:1005D000FFF796FF40F20140FFF7A0FFF5E740F27A
:1005E0001130FFF78DFF40F21130FFF797FFECE776
:1005F000002C01400044014000230380438083809D
:100600004FF6FF728260C380037370470B8883626A
:10061000274B984206D0B0F1804F03D0A3F5943316
:1006200098420BD1036823F07003036003684A8883
:100630001343036003688A88134303608B68C362B3
:100640001B4B984216D0B0F1804F13D0A3F59433D2
:1006500098420FD003F5E05398420BD003F5903346
:10066000984207D003F58063984203D003F5806376
:10067000984207D1036823F4407303600368CA8873
:10068000134303600A4B98420BD003F5A0539842E2
:1006900007D003F58063984203D003F58063984246
:1006A00001D10B7B0363436943F00103436170474E
:1006B000002C0140036843F001030360704770475A
:1006C0004FF080435A6A4FF080435B6A9B1A834223
:1006D000F9D3704700B585B04FF4E060FFF702FF33
:1006E0004FF08040FFF72AFF6846FFF785FF53234E
:1006F000ADF800300023ADF804304FF0FF33029323
:1007000069464FF08040FFF781FF4FF08040FFF7D0
:10071000D1FF05B05DF804FB08B5FFF7DBFF40F241
:100720001150FFF7DFFE1023002201214FF090400F
:10073000FFF75AFE10234FF6FF7200214FF0904052
:10074000FFF77BFE10214FF09040FFF7BCFE4FF00B
:10075000E0230E4A5A610E4AF02182F8231000224B
:100760009A6107221A6110214FF09040FFF7ABFE0B
:10077000084C2046FFF7A4FF10214FF09040FFF7F0
:10078000A0FE2046FFF79CFFEDE700BF1E480100DA
:1007900000ED00E0A0860100DFF830D0002103E08A
:1007A0000B4B5B58435004310A480B4B42189A429A
:1007B000F6D30A4A02E0002342F8043B084B9A426F
:1007C000F9D3FFF73BFDFFF7A7FF7047002000209C
:1007D00008080008000000200000002000000020A1
:1007E0001C000020FEE70000F8B500BFF8BC08BC04
:1007F0009E467047F8B500BFF8BC08BC9E467047DF
:040800007501000876
:040804005101000896
:04000005080007994F
:00000001FF
