:020000040800F2
:10000000E4020020C13A00080D3B00080D3B000847
:100010000D3B00080D3B00080D3B000800000000F0
:100020000000000000000000000000000D3B000880
:100030000D3B0008000000000D3B0008A90100086E
:10004000000000000D3B00080D3B00080D3B0008C0
:100050000D3B00080D3B00080D3B00080D3B000860
:100060000D3B00080D3B00088D2A00080D3B0008E1
:100070000D3B00080D3B00080D3B00080D3B000840
:100080000D3B00080D3B0008000000000D3B000880
:100090000D3B00080D3B00080D3B0008D125000872
:1000A0000D3B00080D3B00080D3B00080D3B000810
:1000B000B9020008000000000D3B0008000000002D
:1000C00029270008000000000D3B00080D3B000838
:1000D0000D3B0008000000000000000000000000D0
:1000E00000000000000000000D3B000800000000C0
:1000F0000000000000000000000000000000000000
:100100000D3B000800000000000000000D3B00084F
:1001100000000000000000000000000000000000DF
:1001200000000000000000000000000000000000CF
:1001300000000000000000000000000000000000BF
:100140000000000000000000000000000D3B00085F
:1001500053B94AB9002908BF00281CBF4FF0FF312E
:100160004FF0FF3000F00CB8ADF1080C6DE904CE93
:1001700003F0DAFDDDF804E0DDE9022304B07047A6
:10018000704700BF4FF0E023054A5A61054AF0214D
:1001900082F8231000229A6107221A61704700BF7B
:1001A0001E48010000ED00E0024A136801331360AD
:1001B000704700BFA8090020F8B5144B6FF03A0251
:1001C000D3F8E017D3F8AC07D3F8B067D3F8B47717
:1001D0004FF6FF73FFF7BCFF384614461D466FF01D
:1001E0003A024FF6FF733146FFF7B2FF084862400C
:1001F0006B400021013100F8012B06294FEA122241
:1002000042EA03624FEA1323F4D1F8BD00F0FF1F66
:10021000A009002008B540F2115003F039F8082376
:10022000032200214FF0904002F06AFE08230022D2
:1002300002214FF0904002F041FEBDE80840082244
:1002400001214FF0904002F09CBE08B540F21150E1
:1002500003F01EF80423032200214FF0904002F027
:100260004FFE0423002202214FF0904002F026FEB0
:10027000BDE80840042201214FF0904002F081BE09
:1002800008B500221C20114602F0B4FFBDE808406A
:1002900040F2117002F0FCBF037810B55940044CD5
:1002A000044B5A5C4378615C42704B40037010BD54
:1002B000F04A0008F0490008F8B55549554803F0E0
:1002C000D5FB064640B1534840F2017103F0B1FB43
:1002D0004F49504803F0E0FB4F494E4803F0C6FB3E
:1002E000074640B14B4840F2027103F0A2FB4A4975
:1002F000484803F0D1FB4949464803F0B7FB05469F
:1003000040B1444840F2037103F093FB4349414834
:1003100003F0C2FB42493F4803F0A8FB044640B14A
:100320003C484FF4E06103F084FB3D49394803F059
:10033000B3FB3C49374803F099FBB8B1354840F26C
:10034000037103F076FB3749324803F0A5FB72B620
:10035000354A00231380354A1380354A2021116025
:10036000344A136062B6344A137005E03E433543A5
:100370002C43E4B2002CEAD13049264803F076FB46
:10038000E0B12B4A1368ABB1013B1360274B214806
:100390001C88621C1A8003F048FB04F01F04284BE1
:1003A00023F81400274B1A68274B1A60214A136858
:1003B000013313602149174803F06EFB23491548A8
:1003C00003F054FB10B3224D224B2C881B88A34210
:1003D00014D94FF49672B4FBF2F302FB13439BB2B1
:1003E0001D4A0C4832F81310013403F01AFB2C801C
:1003F000BDE8F8401549074803F04EBB0548072102
:1004000003F029FB154B00221A70F1E7F8BD00BF7D
:100410000002010700440040000202070002030737
:1004200008000007050003079C0900209E09002022
:10043000DC00002098090020530500200500050776
:1004400058090020A80900205405002007000707CC
:10045000FE060020FC0600200007002058050020B2
:10046000214B10B51A46F02102F8011B1F49204C00
:1004700008688988C3F8010091801E4A1278DA71F1
:100480001D4A20461178527819725A7203F04AFABE
:100490002046042103F0BDFA2046082103F0B1FAFA
:1004A0002046052103F0CDFA20464FF4007103F0F9
:1004B000C8FA2046082103F0C4FA20464FF4E1317F
:1004C00003F04CFA2046002103F07EFA204600217A
:1004D00003F086FA2046002103F06AFA2046BDE8C0
:1004E000104003F089BA00BF59050020A009002080
:1004F00000440040E2000020E00000202DE9F04F21
:10050000894B1A688DB04AB372B61A68013A1A60FC
:1005100062B6864A1388591C118003F01F03844A6F
:10052000844932F813400B78DBB9A52C10D1012295
:100530000A70814981480A7081490B7081490B70AA
:10054000814B21461A70FF2303704370FFF7A4FE0E
:1005500072B67E4A13680133136062B60DB0BDE80F
:10056000F08F012BF4D1744E3378012B13D1FF2C73
:10057000744B07D9002171481970FFF78DFE0323D2
:100580003370E5E7E1B26D481970FFF785FE002C86
:10059000F5D00223F4E7022B19D169480378B4F5AA
:1005A000807F28BF0024FF22B3FBF2F21A440133FC
:1005B000DDB2E1B202F0FF02654C05705F48A15464
:1005C000FFF76AFE5F4B1B78AB42C1D1D7E7032B25
:1005D0000CD15A4BB4F5807F1B7828BF00249C4275
:1005E0001EBF594B00221A700423C9E7042BAFD158
:1005F000544B554A1E781278504B5B78002A00F015
:100600008E80B4F5807F28BF00249C4240F0878014
:10061000002E00F084804E4F3C78002C40F0AE80DD
:10062000022E7CD14B4A1368002B75D0013B13601E
:10063000494BDFF840B1B3F800A0BBF80080DFF809
:1006400038910AF101021A80444B4FF496750BA8B9
:100650001B88ADF82C30A521FFF71EFEB8FBF5F383
:1006600005FB13839BB2A522314609F80320FFF74F
:1006700013FE08F101039BB2B3FBF5F205FB123345
:100680009BB2214609F803607E78731E5A425A4194
:10069000334B1A70FFF700FE08F102039BB2B3FB65
:1006A000F5F205FB12339BB2314609F80340FFF720
:1006B000F3FD08F103039BB2B3FBF5F205FB123324
:1006C0009BB20AF01F0A09F8036008F104039BB209
:1006D000B3FBF5F205FB12339BB29DF82C2009F811
:1006E000032008F105039BB2B3FBF5F205FB1233BF
:1006F0009BB29DF82D2009F8032008F10603ABF802
:100700000030184B23F81A80174B062203F80A20F2
:10071000164A136801331360154B00221A70054BFB
:1007200000221A7014E700BF980900209C090020DD
:100730005809002053050020D7000020D5000020D4
:100740005205002051050020D4000020DC000020CC
:1007500052040020D80000209A060020E43F000840
:1007600090000020BC0600209C060020940600207B
:100770007D0000206405002066050020E32C00F2C7
:10078000F280DF2C00F2E6800A2C00F09785D02C56
:10079000C5D1022EC3D197F80180804FDFF8309287
:1007A0003B689FED7F7AB8F1000F40F0A1827D4A4F
:1007B00082F80080002B67D0013B3B607A4BDFF86A
:1007C00000A2B3F800B00BF101021A80774A784B0F
:1007D00015881B88ADF82C304FF496740BA8A52112
:1007E000FFF75AFDB5FBF4F304FB13539BB2A521AD
:1007F0000AF803103146FFF74FFD6B1C9BB2B3FBA9
:10080000F4F104FB11339BB241460AF80360FFF791
:1008100043FDAB1C9BB2B3FBF4F104FB11339BB261
:1008200041460AF80380FFF737FDEB1C9BB2B3FB90
:10083000F4F104FB11339BB25C4A0AF803802B1DD0
:100840009BB2B3FBF4F104FB11339BB29DF82C1067
:100850000AF803106B1D9BB2B3FBF4F104FB1133D8
:100860009BB29DF82D100AF80310AB1D13800BF0FE
:100870001F0B504B23F81B504F4B062203F80B2045
:100880004E4A1368013313603B6889ED007A002BF0
:100890003FF442AF013B3B60434BDFF810811F88C0
:1008A000B8F80050464E7A1C1A80414B4FF49674AB
:1008B0000BA81B88ADF82C30A521FFF7EDFCB5FB8C
:1008C000F4F304FB13539BB2A5220221F254FFF769
:1008D000E3FC6B1C9BB2B3FBF4F204FB12339BB240
:1008E0000222D021F254FFF7D7FCAB1C9BB2B3FB22
:1008F000F4F204FB12339BB2D0220121F254FFF731
:10090000CBFCEB1C9BB2B3FBF4F204FB12339BB2A7
:100910000122F2542B1D9BB2B3FBF4F204FB123301
:100920009BB29DF82C20F2546B1D9BB2B3FBF4F2EA
:1009300004FB12339BB29DF82D20F254AB1D07F03F
:100940001F07A8F800301B4B23F817501A4B06223C
:10095000DA55DDE6E13C022C00F23882DFE814F0E3
:100960004C03CD032704F42C34D0FA2C7FF4D7AEFB
:10097000022E7FF4D4AE97F801B0124BBBF1000BFE
:1009800018BF4FF0010B83F800B00F4B00221A6024
:100990000E4B01221A7000F0A8BC00BFD800002046
:1009A0008180803B900000209A0600206405002092
:1009B000E43F0008BC0600209C06002094060020AE
:1009C00066050020FC020020F80200200300002041
:1009D0008C000020B74BB84E00221A721A7583F8AB
:1009E000202083F82C2083F8382083F844203368B3
:1009F000002B68D0013B3360B04BDFF8F092B3F8C6
:100A00000080B9F80050AE4F08F101021A80AD4BDA
:100A10004FF496740BA81B88ADF82C30A521FFF776
:100A20003BFCB5FBF4F304FB13539BB2A52202215C
:100A3000FA54FFF731FC6B1C9BB2B3FBF4F204FBDE
:100A400012339BB202220A21FA54FFF725FCAB1C99
:100A50009BB2B3FBF4F204FB12339BB20A22FA54AA
:100A6000994B93F800A05146FFF716FCEB1C9BB284
:100A7000B3FBF4F204FB12339BB208F01F0807F833
:100A800003A02B1D9BB2B3FBF4F204FB12339BB209
:100A90009DF82C20FA546B1D9BB2B3FBF4F204FBBF
:100AA00012339BB29DF82D20FA54AB1DA9F80030EB
:100AB000864B23F81850864B062203F80820854AF7
:100AC000136801331360844B00241C60834B0122A4
:100AD0001A703368002B00F08580013B3360774B40
:100AE000DFF808821F88B8F80050DFF8D491BA18F0
:100AF0001A80744B4FF4967A1B88ADF82C300BA8F3
:100B0000A521FFF7C9FBB5FBFAF30AFB13539BB210
:100B1000A522022109F80320FFF7BEFB6B1C9BB244
:100B2000B3FBFAF20AFB12339BB20222D02109F87E
:100B30000320FFF7B1FBAB1C9BB2B3FBFAF20AFB3D
:100B400012339BB2D02209F80320654BD3ED007A13
:100B5000B7EE007AF4EEC77AF1EE10FA0ED89FEDF8
:100B6000617A67EE877AF5EEC07AF1EE10FAA2BFED
:100B7000FCEEE77ACDED017A9DF8044021460BA802
:100B8000FFF78AFBEB1C4FF496729BB2B3FBF2F1BA
:100B900002FB11339BB207F01F0709F803402B1D1E
:100BA0009BB2B3FBF2F102FB11339BB29DF82C1008
:100BB00009F803106B1D9BB2B3FBF2F102FB11337A
:100BC0009BB29DF82D2009F80320AB1DA8F800303A
:100BD0003E4B23F817503E4B0622DA553D4A136828
:100BE000013313603368002B3FF499AD013B336050
:100BF000324BDFF8F8801F88B8F80050304E7A1C6E
:100C00001A80304B4FF496740BA81B88ADF82C302B
:100C1000A521FFF741FBB5FBF4F304FB13539BB293
:100C2000A5220221F254FFF737FB6B1C9BB2B3FBEA
:100C3000F4F204FB12339BB202220021F254FFF7BC
:100C40002BFBAB1C9BB2B3FBF4F204FB12339BB245
:100C50000022F254244B93F800904946FFF71CFB06
:100C6000EB1C9BB2B3FBF4F204FB12339BB207F014
:100C70001F0706F803902B1D9BB2B3FBF4F204FB95
:100C800012339BB29DF82C20F2546B1D9BB2B3FB28
:100C9000F4F204FB12339BB29DF82D20F254AB1DED
:100CA000A8F80030094B23F81750094B0622DA55F3
:100CB0001DE200BFFC030020D80000209A0600209F
:100CC00066050020E43F0008B1000020BC060020BB
:100CD0009C06002094060020040300207C000020D5
:100CE0008C00002000007F4390000020640500205D
:100CF00007EE908AF8EE677A67EE877AC9ED007A98
:100D0000002B3FF409AD013B3B60B04BDFF8D0B2A4
:100D1000B3F800A0BBF80070DFF8C0920AF101023E
:100D20001A80AB4B4FF496750BA81B88ADF82C308E
:100D3000A521FFF7B1FAB7FBF5F305FB13739BB2DF
:100D4000A522314609F80320FFF7A6FA7B1C9BB2C7
:100D5000B3FBF5F205FB12339BB2214609F80360A1
:100D6000FFF79AFABB1C9BB2B3FBF5F205FB1233FB
:100D70009BB2414609F80340FFF78EFAFB1C9BB279
:100D8000B3FBF5F205FB12339BB20AF01F0A09F818
:100D900003803B1D9BB2B3FBF5F205FB12339BB204
:100DA0009DF82C2009F803207B1D9BB2B3FBF5F2C4
:100DB00005FB12339BB29DF82D2009F80320BB1DC3
:100DC000ABF80030834B23F81A709DE4052E7FF6B4
:100DD000A6ACF51EEDB20320B5FBF0F303EB430325
:100DE000ED1A15F0FF057FF49AAC97F801A097F87B
:100DF00002900AF1FF385FFA88F880453FF68FAC21
:100E000009F1FF33DBB2062B01933FF688AC724940
:100E10000A68002A00F09C80C3F10703DBB2B41E0D
:100E2000E4B2B4FBF0F49C4228BF1C46674B6B4E07
:100E3000013A0A601A88029201321A80684B1F88B0
:100E4000634B4FF4967B0BA81B88ADF82C30A52183
:100E5000FFF722FAB7FBFBF3611C0BFB13739BB28A
:100E600001EB4101A522C9B2F2540391FFF714FA34
:100E70007B1C9BB2B3FBFBF20BFB12339BB20399BF
:100E8000F154E021FFF708FABB1C9BB2B3FBFBF265
:100E90000BFB12339BB2E0225146F254FFF7FCF9F0
:100EA000FB1C9BB2B3FBFBF20BFB12339BB249461C
:100EB00006F803A0FFF7F0F93B1D9BB2B3FBFBF272
:100EC0000BFB12339BB2C8EBC80206F80390072352
:100ED000B4FBF3F3C3EBC303E41AE4B2631E06935B
:100EE0007E1D404B0792B6B24FF49679B6FBF9F2ED
:100EF00009FB126292B20392721C92B2B2FBF9F138
:100F000009FB112292B20492B21C92B20592069A87
:100F10000336AA42B6B221DA304B03999DF82C2051
:100F20005A5404999DF82D205A5404EB44042C4A39
:100F3000FB1D23441380029B264A03F01F03073442
:100F400022F81370284AD454284A136801331360D6
:100F5000274B002203F80820FFF7E1BBD97893F86C
:100F600004B093F805A00993019B0891EA180720A3
:100F7000079BB2FBF0F0C0EBC000121A4FEA0B2047
:100F80001A4440EA01401B4B40EA0A0043F82200A1
:100F90000BA8FFF781F9114A039B0899D1545946D0
:100FA000FFF77AF9049B0D4A514602F803B0FFF7A8
:100FB00073F9059BB3FBF9F109FB1131074A099B52
:100FC00089B2013502F801A003338DE79A060020AB
:100FD000E43F0008BC060020D80000206605002081
:100FE00064050020520400209C0600209406002086
:100FF0007E00002008030020022E7FF490ABA44A5C
:101000001368002B3FF48BAB013B1360A14BDFF85F
:10101000A892B3F80080B9F800409F4D08F1010292
:101020001A809E4B4FF4967A0BA81B88ADF82C3093
:10103000A521FFF731F9B4FBFAF30AFB13439BB286
:10104000A5223146EA54FFF727F9631C9BB2B3FB94
:10105000FAF20AFB12339BB2E121EE54FFF71CF9BE
:10106000A31C9BB27E78B3FBFAF20AFB12339BB24D
:10107000E1223146EA54FFF70FF9E31C9BB2B3FBC0
:10108000FAF20AFB12339BB206F00102EE54844BD3
:10109000760803F8012B0122013206F00101072A2C
:1010A00003F8011B4FEA5606F6D1231D4FF4967242
:1010B0009BB2B3FBF2F102FB11339BB29DF82C10F3
:1010C000E954631D9BB2B3FBF2F102FB11339BB2F7
:1010D0009DF82D20EA54A31DA9F8003008F01F0840
:1010E000704B23F81840704B062203F808206F4A13
:1010F000136801331360FFF712BB022E7FF40FABAE
:10110000634A1368002B3FF40AAB013B1360614B49
:10111000DFF8A491B3F80080B9F800405E4D08F103
:1011200001021A805D4B4FF4967A0BA81B88ADF82C
:101130002C30A521FFF7B0F8B4FBFAF30AFB1343F8
:101140009BB2A5223146EA54FFF7A6F8631C9BB276
:10115000B3FBFAF20AFB12339BB2E221EE54FFF723
:101160009BF8A31C9BB27E78B3FBFAF20AFB123306
:101170009BB2E2223146EA54FFF78EF8E31C9BB2A1
:10118000B3FBFAF20AFB12339BB206F00102EE54F3
:10119000474B760803F8012B0122013206F00101CA
:1011A000072A03F8011B4FEA5606F6D17DE7022E07
:1011B0007FF4B5AA97F801A00AF1FF33DBB2032B45
:1011C0003FF6ADAA3B4A1360314A1368002B3FF447
:1011D000A6AA013B13602F4BDFF8DC90B3F8008028
:1011E000B9F800502C4F08F101021A802B4B4FF434
:1011F00096740BA81B88ADF82C30A521FFF74CF88E
:10120000B5FBF4F304FB13539BB2A5223146FA5409
:10121000FFF742F86B1C9BB2B3FBF4F204FB1233F2
:101220009BB2E321FE54FFF737F8AB1C9BB2B3FB34
:10123000F4F204FB12339BB2E3225146FA54FFF757
:101240002BF8EB1C9BB2B3FBF4F204FB12339BB202
:1012500008F01F0807F803A02B1D9BB2B3FBF4F2A4
:1012600004FB12339BB29DF82C20FA546B1D9BB2E9
:10127000B3FBF4F204FB12339BB29DF82D20FA5419
:10128000AB1DA9F80030074B23F818502BE700BF1F
:10129000D80000209A06002066050020E43F0008E0
:1012A00082000020BC0600209C060020940600203E
:1012B000790300200003002064050020022E7FF443
:1012C0002EAA404B97F801B083F800B03E4B0022A5
:1012D0001A703E4B01221A703D4B1A683D4B10218B
:1012E0004FF090401A6001F042FE3B4A1368002B19
:1012F0003FF415AA013B1360384BDFF8F0A0B3F8B8
:101300000090BAF80070DFF8E88009F101021A8055
:10131000334B4FF496750BA81B88ADF82C30A521E4
:10132000FEF7BAFFB7FBF5F305FB13739BB2A522DB
:1013300008F803203146FEF7AFFF7B1C9BB2B3FBDE
:10134000F5F205FB12339BB2214608F80360FEF765
:10135000A3FFBB1C9BB2B3FBF5F205FB12339BB2A0
:10136000594608F80340FEF797FFFB1C9BB2B3FBFE
:10137000F5F205FB12339BB209F01F0908F803B020
:101380003B1D9BB2B3FBF5F205FB12339BB29DF8FC
:101390002C2008F803207B1D9BB2B3FBF5F205FB64
:1013A00012339BB29DF82D2008F80320BB1DAAF82C
:1013B00000300C4B23F819700B4B062203F8092060
:1013C00095E600BFB1000020B0000020F603002029
:1013D000A8090020EC030020D80000209A06002075
:1013E000E43F0008BC0600209C06002064050020A5
:1013F000660500202DE9F041214C2378002B30D1E7
:10140000204A116800292CD072B611680139116088
:1014100062B61D49DFF88CC00A88DFF88CE0501CEA
:10142000088002F01F02194931F812701849885CCF
:101430001849461E0B801A464FF49675964212DAEA
:1014400003B10880144B1548002207211A8002F0CE
:10145000F8FA0123237072B6114A1368013313603E
:1014600062B6BDE8F081BB18B3FBF5F805FB183395
:101470001EF803302CF8123001320123DEE700BFE2
:10148000580500209406002098060020BC06002085
:101490009C060020FC060020FE06002000440040C0
:1014A000D800002000070020660500200B4B0C4AE6
:1014B00019681368CB1A012B10B50ED972B60948FA
:1014C000002303800848038008482024046008485B
:1014D000036062B607481160037010BDA8090020C0
:1014E000540500209C0900209E090020DC000020FB
:1014F00098090020530500202DE9F04F3A4A13685F
:1015000085B0002B6CD0013B1360384BDFF8F080C6
:101510001F88B8F80060DFF8EC90DFF8ECB07A1CB8
:101520001A80334B4FF496741B88ADF80C30A5210C
:1015300003A8FEF7B1FEB6FBF4F304FB13639BB202
:10154000A5220A2109F80320FEF7A6FE731C9BB210
:10155000B3FBF4F204FB12339BB20A2206F1020A37
:1015600006F10C0509F803201FFA8AFAADB21BF840
:10157000011B019103A8FEF78FFEBAFBF4F304FBF5
:1015800013A30AF1010A9BB21FFA8AFA019909F81A
:1015900003105545EBD1B5FBF4F304FB1355ADB285
:1015A0009DF80C3009F8053006F10D039BB2B3FB32
:1015B000F4F204FB12339BB29DF80D2009F80320CE
:1015C00006F10E0307F01F07A8F80030094B23F8B7
:1015D0001760094B0E22DA55084A1368013313606D
:1015E00005B0BDE8F08F00BFD80000209A060020AB
:1015F000E43F0008BC0600209C0600209406002062
:101600006405002066050020590500201FB50C4C1C
:1016100040F2116001F03CFE204601F023FF002360
:10162000642269462046CDE9003302928DF80C30E1
:1016300001F06CFF204601F0F9FF04B010BD00BFBF
:101640000044014008B540F2115001F021FE402352
:10165000032200214FF0904001F052FC4023002271
:1016600002214FF0904001F029FCBDE808404022E3
:1016700005214FF0904001F084BC000030B54FF4DC
:10168000A06085B001F004FE1B4B1C4A1A601C4B85
:101690001C4C0FCB6D4685E80F002A4620460021E2
:1016A00001F0D8FF00221146204602F007F920463B
:1016B0006022002102F0DCF808222046002102F01E
:1016C0000BF92046012101F0BCFF4FF48071204648
:1016D00001F0B3FF204601F0A9FF012211460A20C4
:1016E00001F088FD022001F0E5FA0221084601F030
:1016F00043FB05B030BD00BFB400002034440140BE
:10170000E83F00080044014010B540F2115001F0DC
:10171000BFFD4FF40043032200214FF0904001F041
:10172000EFFBBDE810404FF40043012200214FF0D1
:10173000904001F0C3BB000010B5094C40F21250BC
:1017400001F0A6FD204680230322002101F0D8FBF2
:1017500020468023BDE810400122002101F0AEBBED
:101760000004004810B5094C40F2125001F090FD01
:10177000204608230322002101F0C2FB2046082353
:10178000BDE810400122002101F098BB0004004890
:1017900010B5094C40F2125001F07AFD204640236A
:1017A0000322002101F0ACFB20464023BDE810409D
:1017B0000122002101F082BB0004004810B5094C51
:1017C00040F2125001F064FD204610230322002154
:1017D00001F096FB20461023BDE8104001220021B5
:1017E00001F06CBB0004004810B5094C40F21250E7
:1017F00001F04EFD204620230322002101F080FB52
:1018000020462023BDE810400122002101F056BBF4
:1018100000040048F8B53B4C3B4D27782E684FF448
:1018200000414FF0904001F0A6FBB0FA80F0400973
:1018300087421CBF002320704FF08001334818BF3F
:101840002372277B18BF66602E6801F094FBB0FA04
:1018500080F0400987421CBF002320734FF008012D
:101860002A4818BF2375277E18BF26612E6801F00D
:1018700082FBB0FA80F0400987421CBF002320762B
:101880004FF04001214818BF84F8203094F82470AC
:1018900018BFE6612E6801F06EFBB0FA80F04009D7
:1018A00087421CBF002384F824004FF01001174822
:1018B0001CBF84F82C30A66294F830702E6801F0BA
:1018C0005AFBB0FA80F0400987421CBF002384F81D
:1018D00030004FF020010D481CBF666384F838309B
:1018E0002D6894F83C6001F046FBB0FA80F04009A6
:1018F00086421FBF002384F83C00256484F84430EE
:10190000F8BD00BFFC030020A80900200004004827
:101910002DE9F04F4A4BDFF84CB193F800A00623B5
:10192000BAFBF3F803FB18A85FFA88F80C2202FB55
:1019300008F20BEB020187B0097A002977D1414DFB
:101940001BF80220AA7001212970414469703E49A8
:101950000A68002A66D0013A0A603C4ADFF808911A
:1019600013880193591C3A4B11803A4A1F881288F8
:10197000ADF814204FF4967405A8A521FEF78CFC51
:10198000B7FBF4F104FB117189B2A52609F80160D7
:101990000321FEF781FC791C89B2B1FBF4F004FB52
:1019A000101189B203202B46BE1C7D1D09F80100D1
:1019B000B6B2ADB213F8011B05A8CDE90213FEF7CC
:1019C0006BFCB6FBF4F004FB1060013680B2B6B2DB
:1019D000029909F80010B542039BEBD1B5FBF4F175
:1019E00004FB1155ADB29DF8141009F80510B91D8E
:1019F000174B89B2FA1DB1FBF4F004FB101189B248
:101A00001A80019B9DF8150009F8010003F01F02E0
:101A1000114921F8127011490720885410490A68A9
:101A200001320A600C2202FB08B301221A72044B35
:101A30000AF1010A83F800A007B0BDE8F08F00BFEB
:101A4000F7030020F8030020D80000209A060020A9
:101A500064050020E43F0008BC0600209C0600202E
:101A600094060020FC0300206605002010B540F21B
:101A7000115001F00DFC1023032200214FF0904083
:101A800001F03EFABDE810401023002201214FF082
:101A9000904001F013BA00001C490B78F0B483B1F8
:101AA0001B4B1C4A1B6812689B1A1B4A12789342F4
:101AB0002AD900230B70F0BC10214FF0904001F0A8
:101AC00058BA1648164E1A460C2505FB02F410F8B3
:101AD000017B345DB3B90CB187F001030132062AF2
:101AE00003F0010300F8014CEFD16BB101230B703F
:101AF000074B1A68074BF0BC10214FF090401A605A
:101B000001F035BA0123E9E7F0BC7047F603002085
:101B1000A8090020EC030020B1000020F003002001
:101B2000FC03002037B5164C237833BB01F064F971
:101B3000144801F08DF9144B1B88ADF80430134B99
:101B40001D7801A82946FEF7A7FB01F055F92946A3
:101B50000C4801F099F99DF8045001F04DF929461F
:101B60000B4801F091F99DF8055001F045F909483D
:101B7000294601F089F90123237003B030BD00BF6D
:101B8000B000002000BC0008E43F0008B1000020C5
:101B900004BC000808BC0008104B73B5D3F8004C17
:101BA000D3F8046CD3F8085C0D4BB4F5807F28BFE4
:101BB0000024E4B21B88ADF80430214601A8FEF7EA
:101BC0006BFB9DF80430B34205D19DF80530AB4264
:101BD00004BF044B1C7002B070BD00BF00B0000811
:101BE000E43F0008B100002010B540F2115001F0B0
:101BF0004FFB4FF48073032200214FF0904001F01F
:101C00007FF9BDE810404FF48073002201214FF0AE
:101C1000904001F053B94FF480714FF0904001F0C3
:101C2000A6B94FF480714FF0904001F0A2B90000C6
:101C3000024A137883F00103137070477803002081
:101C40002DE9FF47DFF85481494F4A4CDFF850A196
:101C500018F8013BABBBA4F11C0501F0CDF82846F8
:101C600001F0F6F8444B1B88ADF80C30B94659F832
:101C7000046B03A8C6F30741FEF70EFBC6F307216A
:101C8000FEF70AFBF1B2FEF707FB01F0B5F82846B4
:101C90003146043501F0F8F8A542E8D19DF80C5022
:101CA00001F0AAF82946204601F0EEF89DF80D5003
:101CB00001F0A2F82946201D01F0E6F8012308F8FA
:101CC000013C04F58064544507F11C07C0D12B4D3D
:101CD0002C78002C48D101F08FF8294801F0B8F891
:101CE000254B1B88ADF80C30264BD3ED007A264BE4
:101CF000B7EE007AF4EEC77AF1EE10FA1E780ED83D
:101D00009FED227A67EE877AF5EEC07AF1EE10FA4F
:101D1000A2BFFCEEE77ACDED017A9DF8044003A85E
:101D20002146FEF7B9FA3146FEF7B6FA01F064F83B
:101D30002146134801F0A8F801F05EF83146144836
:101D400001F0A2F89DF80C4001F056F82146114828
:101D500001F09AF89DF80D4001F04EF80E4821462A
:101D600001F092F801232B7004B0BDE8F08700BFAA
:101D7000080300201CC00008E43F00087D0000208C
:101D800000D000088C0000209000002000007F435D
:101D900004D0000808D000080CD000087E00002005
:101DA0001CD000082DE9F04F6F4B1B7885B0002B3D
:101DB00000F0D3806D4B6E4A1D681368002B00F055
:101DC000C080013B13606B4BDFF8C481B3F800A007
:101DD0000AF101021A80684B1E88684B4FF4967412
:101DE00003A81B88ADF80C30A521FEF755FAB6FB09
:101DF000F4F304FB13639BB2A522182108F8032017
:101E0000FEF74AFA731C9BB2B3FBF4F204FB1233E5
:101E10009BB21822E02108F80320FEF73DFA691C66
:101E2000B31CB1F5807F9BB228BF0021B3FBF4F255
:101E300004FB12339BB2CFB2E022394608F80320EC
:101E4000FEF72AFAF31C9BB2B3FBF4F204FB123345
:101E50009BB2012108F80370FEF71EFA331D9BB2F6
:101E6000B3FBF4F204FB12339BB2012208F8032007
:101E7000434A1C23771D06F11A0903FB0522BFB252
:101E80001FFA89F952F804BB019203A8CBF307416A
:101E90000091FEF701FAB7FBF4FC04FB1C7C1FFA6F
:101EA0008CFC009908F80C10CBF307210091FEF789
:101EB000F3F907F1010C1FFA8CFCBCFBF4FE04FBE8
:101EC0001ECC1FFA8CFC009908F80C105FFA8BF1FD
:101ED0000091FEF7E1F9BB1C9BB20337B3FBF4F0B2
:101EE00004FB10339BB2BFB2009908F80310B94548
:101EF000019AC7D1B9FBF4F304FB13991FFA89F9CE
:101F00009DF80C3008F8093006F11B039BB2B3FBB7
:101F1000F4F204FB12339BB29DF80D2008F8032065
:101F2000154B06F11C021A800AF01F0A154B23F804
:101F30001A60154B1C2203F80A20144A1368013357
:101F40001360022D0CDC01356B4203F0030305F036
:101F5000030558BF5D42054B1D6005B0BDE8F08F1D
:101F6000014A00231370F8E77C00002004030020DE
:101F7000D80000209A06002064050020E43F0008F5
:101F800008030020BC0600209C06002094060020C8
:101F9000660500202DE9F347DFF8F480344C354D19
:101FA000B8F800A0ADF804A0A5F11C07A14657F8A9
:101FB000046B49F8046B01A8C6F30741FEF76CF9FE
:101FC000C6F30721FEF768F9F1B2FEF765F9BD42E5
:101FD000EDD19DF8040029686B689DF805208842C2
:101FE00043D0254BA361C4E90033C4E90233C4E9FB
:101FF0000433224B05F580659D4204F11C04D1D1C8
:10200000B8F80030ADF804301D4BD3E90045B4F505
:10201000807F28BF0024E4B2214601A8D3E90276DC
:10202000FEF73AF9B5F5807F28BF0025EDB22946C5
:10203000FEF732F99DF80430BB4213D19DF805300C
:10204000B3420FD107EE904A9FED0E7A0E4BF8EE99
:10205000677A67EE877AC3ED007A6B1E5D425D4159
:102060000A4B1D7002B0BDE8F0879A42C1D0B8E7B4
:10207000080300201CC00008777777001CD00008F8
:1020800000D000088180803B8C0000209000002060
:10209000E43F000808B540F2115001F0F9F84FF4A0
:1020A0008063032200214FF0904000F029FF4FF49D
:1020B0008063002202214FF0904000F0FFFEBDE857
:1020C00008404FF4806204214FF0904000F059BF67
:1020D00008B540F2115001F0DBF84FF40073032211
:1020E00000214FF0904000F00BFF4FF400730022EE
:1020F00002214FF0904000F0E1FEBDE808404FF4AF
:10210000007204214FF0904000F03BBF10B50F4C1F
:1021100040F2157001F0BCF820460D49002200F095
:1021200061FF00231A461946204600F0DDFF2046D5
:1021300000F0F9FF00221146172001F05BF8BDE81E
:10214000104001220021202001F054B8005400402A
:10215000801A060010B5124B124C1A78124B1A70E6
:10216000124A01231360124A80211170114A137020
:10217000114B0022204640F209111A8000F0E7FFBF
:1021800020464FF4857100F0E2FF20464FF4847141
:1021900000F0DDFF2046BDE8104000F0C9BF00BFE1
:1021A0000200002000540040F2020020EC02002057
:1021B000F3020020F4020020F002002010B5124BC0
:1021C000124C1A78124B1A70124A01231360124AE9
:1021D00080211170114A1370114B0022204640F2E9
:1021E00009111A8000F0B3FF20464FF4857100F00A
:1021F000AEFF20464FF4847100F0A9FF2046BDE8F1
:10220000104000F095BF00BF0000002000540040C7
:10221000F2020020EC020020F3020020F402002071
:10222000F0020020134A002310B51370124A134C19
:1022300002211160124A80211170124A1370124A51
:1022400020464FF48061138000F059FF204640F291
:10225000091100F07CFF20464FF4857100F077FFF4
:1022600020464FF4847100F072FF2046BDE8104014
:1022700000F05EBFE4020020EC02002000540040A9
:10228000F3020020F4020020F00200202DE9F04FBC
:102290004C4B1B7885B0002B00F091804A4ADFED53
:1022A0004B6AC22313704A4B1B885BBA9BB207EE82
:1022B000903AB8EE677AF9EE087AE7EE267A9FED63
:1022C000457A67EE877AF5EEC07AF1EE10FAA9BF8B
:1022D000FCEEE77A002317EE903A9BB253701B0A8C
:1022E00093703D4A1368002B69D0013B13603B4B50
:1022F000DFF8FC801F88B8F80060DFF8F890DFF89E
:10230000C8B07A1C1A80364B4FF496741B88ADF80F
:102310000C30A52103A8FDF7BFFFB6FBF4F304FBC7
:1023200013639BB2A522032109F80320FDF7B4FF34
:10233000731C9BB2B3FBF4F204FB12339BB2032277
:1023400006F1020A751D09F803201FFA8AFAADB2D8
:102350001BF8011B019103A8FDF79EFFBAFBF4F3E4
:1023600004FB13A30AF1010A9BB21FFA8AFA01992E
:1023700009F803105545EBD1B5FBF4F304FB1355F5
:10238000ADB29DF80C3009F80530B31D9BB2B3FB1C
:10239000F4F204FB12339BB29DF80D2009F80320E0
:1023A000F31D07F01F07A8F800300E4B23F8176045
:1023B0000D4B0722DA550D4A13680133136005B03F
:1023C000BDE8F08FE4020020E50200200000FA3AA8
:1023D000E80200200000C842D80000209A06002031
:1023E000E43F0008BC0600209C0600209406002064
:1023F000640500206605002010B5124B124C1A78B7
:10240000124B1A70124A01231360124A8021117074
:10241000114A1370114B0022204640F209111A8014
:1024200000F095FE20464FF4857100F090FE2046A6
:102430004FF4847100F08BFE2046BDE8104000F0A0
:1024400077BE00BF0100002000540040F2020020CF
:10245000EC020020F3020020F4020020F002002031
:102460002DE9F04F4C4B1B7885B0002B00F091808C
:102470004A4ADFED4B6AC02313704A4B1B885BBA94
:102480009BB207EE903AB8EE677ADFED477AE7EE57
:10249000267A9FED467A67EE877AF5EEC07AF1EEFE
:1024A00010FAA9BFFCEEE77A002317EE903A9BB230
:1024B00053701B0A93703E4A1368002B69D0013B8E
:1024C00013603C4BDFF800811F88B8F80060DFF82C
:1024D000FC90DFF8C8B07A1C1A80374B4FF4967422
:1024E0001B88ADF80C30A52103A8FDF7D5FEB6FB7F
:1024F000F4F304FB13639BB2A522032109F8032024
:10250000FDF7CAFE731C9BB2B3FBF4F204FB12335B
:102510009BB2032206F1020A751D09F803201FFA77
:102520008AFAADB21BF8011B019103A8FDF7B4FEB6
:10253000BAFBF4F304FB13A30AF1010A9BB21FFADE
:102540008AFA019909F803105545EBD1B5FBF4F36C
:1025500004FB1355ADB29DF80C3009F80530B31DDE
:102560009BB2B3FBF4F204FB12339BB29DF80D2037
:1025700009F80320F31D07F01F07A8F800300F4BE0
:1025800023F817600E4B0722DA550E4A1368013301
:10259000136005B0BDE8F08FE4020020E5020020E2
:1025A00052B82F3BE80200201F853BC20000C84202
:1025B000D80000209A060020E43F0008BC06002056
:1025C0009C0600209406002064050020660500207B
:1025D000494B4A491B784A4870B5002B3DD000F062
:1025E000CBFD40B16FF00102464B45481978BDE87C
:1025F000704000F090BD4449414800F0BDFD28B155
:1026000041493F48BDE8704000F0E0BD3F493C48CB
:1026100000F0B2FD60B13E4D3E4B2C881B68A342DA
:1026200007DD3D4B36481978013400F08BFD2C80D6
:1026300070BD334800F081FD31484FF4847100F0E3
:1026400090FD2F484FF4857100F08BFDBDE8704080
:102650002B4840F2091100F084BD00F08DFD0446C6
:1026600008B10122C0E7284925482A4E00F084FD20
:10267000054638B13368012BC2D12148214600F00C
:102680003EFDBDE725491E48346800F075FD002871
:10269000CED0022C16D11A48294600F030FD1C4D30
:1026A0001748013C34602C8800F04EFD04F0010313
:1026B0001B4A1A49D054012C04BF1A4B1C70013418
:1026C0002C809EE7012CEAD10D4800F036FD29460A
:1026D0000B4800F01AFD0A484FF4847100F041FDE8
:1026E00007484FF4857100F03CFD054840F20911A0
:1026F00000F037FDD3E700BFF40200200901000518
:1027000000540040F30200200901010509010705FA
:10271000F0020020EC020020F20200200901060570
:10272000E8020020E402002010B50F4C0F492046BB
:1027300000F04CFD20460E4900F048FD20460D49B2
:1027400000F044FD20460C4900F040FD20460B49B6
:1027500000F03CFD20460A4900F038FD20460949BA
:10276000BDE8104000F032BD0054004008010A05E9
:1027700008010F0508010E0508010B0508010905F0
:102780000801080508010C052DE9F84FA54BDFED00
:10279000A67A93F800C0A54BA54D93F800E0A54B91
:1027A000A54CD3ED005AA54B9FEDA56A1B68DFF839
:1027B000C882DFF8C892A3481C2265EEA75A02FB24
:1027C00003442F4600220C2655F8041BBCF1000FD1
:1027D00072D018F80230002B6ED019F8023013B105
:1027E000BEF1000F6FD054F82230C3F3074A07EE52
:1027F00010AAC3F3072ADBB206EE90AA07EE903ABE
:10280000B8EEC77AF8EEE66AF8EEE77A27EE257AB0
:1028100066EEA56A67EEA57A013206FB0101072A7A
:1028200081ED007AC1ED016AC1ED027ACCD1DFF809
:1028300050C29CF80060002E00F0D080824D9FEDC9
:10284000836A2968782391FBF3F203FB1212804B11
:1028500003EB8203D3ED006AFCEEE67A4FF03C0E08
:1028600017EE903A9BB2B3FBFEF40EFB1433B7EEB7
:10287000007A9BB237EE667A07EE903A27EE267A18
:10288000F8EE677A4FF0060867EE867A36EEC76A8A
:10289000B4FBF8F267EE867A08FB124292B237EE8A
:1028A000276AFAB1531E76EEE77A032B00F28E8088
:1028B000DFE803F08F107F88B0EE467AF0EE466ACC
:1028C000F0EE467AA8E79FED5E7AF0EE476AF0EE0A
:1028D000477AA1E7F0EE667AF0EE476AB0EE467A04
:1028E000B0EE676A782904D15A4B1B780BB98CF883
:1028F000003001312960DFF88CC15749DFF8888149
:1029000000220C244FF07E5B04FB02F35CF8049B76
:1029100018F803A08E4600254D4566DB0132062AD5
:1029200001F11001F0D14D4B464A9FED4D7A002048
:102930001C46D2ED017A67EE877A0130FCEEE77A29
:10294000072817EE901AD2ED007A197067EE877A91
:1029500002F10C02FCEEE77A03F1030317EE901A82
:1029600052ED017A03F8021C67EE877AFCEEE77AF3
:1029700017EE901A03F8011CDBD13A4B21783A4C40
:1029800001221A80394A3A4B02EBC10052F8312039
:102990001A60426837485A600021E36000F04BFE3D
:1029A0002146022000F0A4F9BDE8F84F022000F013
:1029B0008BB9B0EE676AF0EE667AF0EE476AB0EE79
:1029C000677A8FE7F0EE667AF0EE466AB0EE476A15
:1029D000F5E7B0EE666AF0EE676A83E79FED187A76
:1029E000B0EE476AF0EE476A85E75EF8043B57F8B9
:1029F0002330BAF1000F09D004FB0303C3F800B081
:102A0000C3F804B0C3F808B0013585E7002EFBD049
:102A100004FB0303C3ED006A83ED016A83ED027AD0
:102A2000F2E700BF900000208180803B7803002007
:102A3000940000208C0000200803002000030020E8
:102A40000000000080030020F80200208988883CF4
:102A500010400008FC02002004000020D4030020E5
:102A600000007F4344040020B4000020F04100082F
:102A70004604002000440140820000207903002029
:102A80000300002064000020FC030020022170B538
:102A9000084600F07BF908B3114D0121022000F037
:102AA000A9F92C88142C19D80E4A0F4B115D0F4A26
:102AB0000F4E02EBC10052F831201A6042680D48F7
:102AC0005A600021F36000F0B6FD3146022000F0AC
:102AD0000FF90134022000F0F7F82C8070BD00BF20
:102AE00044040020D403002046040020F0410008E4
:102AF000B40000200044014008B5FDF743FBFDF79A
:102B00005BFBFDF787FBFDF7A0FBFDF7B9FBFDF7CE
:102B1000A7FCFEF77BFDFEF795FDFEF7AFFDFEF788
:102B2000F3FDFEF709FEFEF71DFEFEF731FEFEF790
:102B300045FEFEF759FEFEF799FFFFF72DF8FFF768
:102B400053F8FFF768F8FFF725FAFFF7A3FAFFF746
:102B5000BFFAFFF7DBFABDE80840FFF715BE00003B
:102B60002DE9F04F002589B0CDE90555CDE9035594
:102B7000CDE90155AA46A946A84600952E462F46FE
:102B8000484B1C68A4EB070BBBF57A7FA4EB06034C
:102B90007AD2092B02D9FEF73DFE2646009B41F270
:102BA0008732E31A934202D9FFF73BF80094019B66
:102BB000E31AB3F5FA7F02D3FFF73AF80194BBF5B5
:102BC0007A7F01D3FFF73CF8029BE31A312B02D93D
:102BD000FFF7E8F80294039B43F69722E31A934227
:102BE00002D9FFF7B7FA0394049BE21A43F6A6232F
:102BF0009A4204D9FFF7E2FAA4F10F030493059B6C
:102C0000E21A43F6C4239A4204D9FFF70BFBA4F15E
:102C10002D030593069BE21A43F6C5239A4204D975
:102C2000FFF734FBA4F12E030693A4EB080244F251
:102C300094239A4203D9FFF7DFFBA4F2FD78A4EBBB
:102C4000090244F2E9239A4203D9FFF7EBFAA4F60A
:102C50005209A4EB0A0244F2EA239A4203D9FFF78D
:102C6000FFFBA4F6530A631B202B02D9FFF78CFD50
:102C70002546FDF743FCFEF7BDFBFEF717FCFEF70C
:102C800047FEFEF709FF7BE70793FEF735FC079B3E
:102C9000092B02D9FEF7BEFD2646FEF743FF274665
:102CA0007CE700BFA809002008B5FFF725FFFFF764
:102CB00057FF00001423034A5843835823F020038E
:102CC00083507047080002401423034A5843835836
:102CD00043F0010383507047080002401423034A65
:102CE0005843835823F00103835070470800024083
:102CF00038B50446FFF7F2FF142303FB04F0184B2A
:102D00000A68C2500433CA68C250083B0A8BC250DA
:102D1000043B0D694A68C4582A43CD6924F47C54A5
:102D20002A432243C2500A7A012AC2580CBF42F0F9
:102D3000400222F04002C2500A7D012AC2580CBF54
:102D400042F0800222F08002C2504A7D22B9C2586D
:102D500022F01002C25038BDC25842F01002F9E70A
:102D600010000240034B80005A68814011435960B3
:102D7000704700BF000002401423034A58438358A1
:102D80000B438350704700BF08000240042913D052
:102D900008291DD0022927D1144B82001B689140BD
:102DA00019401423124A4343985800F00200D9B145
:102DB000003818BF012070470C4B82001B689140FF
:102DC000194014230A4A4343985800F00400EEE7E0
:102DD000064B82001B689140194014235843044B52
:102DE000C05800F00800E2E70020704700000240F1
:102DF00008000240FFF7B6BF044B1A69120641BF34
:102E0000034A5A6002F188325A607047002002403B
:102E100023016745074BDA68D10707D4DA68D20681
:102E200006D4D868C0F38000400070470120704786
:102E3000032070470020024010B50446FFF7EAFF68
:102E4000012804F1FF3402D1002CF7D1042010BD79
:102E500038B505464FF47020FFF7EEFF88B9094CEE
:102E6000236943F0020323616561236943F0400352
:102E700023614FF47020FFF7DFFF236923F0020383
:102E8000236138BD0020024070B505464FF4702024
:102E90000E46FFF7D1FF68B9074C236943F00103E1
:102EA00023614FF470202E60FFF7C6FF236923F0E3
:102EB0000103236170BD00BF002002402DE9F043F3
:102EC0000568C46800264FF0010E4FF003080EFAA3
:102ED00006F71F420DD0770008FA07FC01FA07F940
:102EE00025EA0C0524EA0C0402FA07F749EA05056D
:102EF0003C430136102EEAD10560C460BDE8F08382
:102F000001294168F0B50CBF194399434FF6FF748E
:102F10004160A242816815D1C46B002201274FF0A5
:102F2000030C07FA02F61E421CBF55000CFA05F509
:102F300002F101021CBF29433443102AF1D1816000
:102F4000C463F0BD002401274FF0030C07FA04F519
:102F50001D4207D065000CFA05F621EA060102FAC7
:102F600005F529430134102CF0D18160E9E7816136
:102F700070478162704703690B4214BF0120002033
:102F80007047F0B5066A456A00234FF0010C4FF018
:102F90000F0E0CFA03F4144207D09C000EFA04F74B
:102FA00026EA070601FA04F426430133082BF0D180
:102FB00000234FF0010C4FF00F0E03F108040CFA40
:102FC00004F4144207D09C000EFA04F725EA070522
:102FD00001FA04F425430133082BEED10662456261
:102FE000F0BD000070B5044602200D46164600F004
:102FF0006FF9394A3949B0FBF1F1904294BF0B4661
:103000003F23626822F03F021A436260344A9542CD
:1030100016D801313E290DD93F2323626D00B0FB44
:10302000F5F5042DE36938BF0425C5F30B051D43F1
:10303000E56170BD022901D80223EEE72162EDE7C8
:10304000284A95424FF47A7124D84FF4967253432C
:10305000B3FBF1F301332362A6B9E26922F48042A3
:1030600005EB4503B0FBF3F3E261C3F30B020AB9CE
:1030700043F00103E26942F40042E261E269134372
:10308000E361D6E7E26919236B4342F48042B0FB67
:10309000F3F3E9E778225343B3FBF1F301332362FF
:1030A00096B9E36923F4804305EB4505B0FBF5F0E1
:1030B000E361E36943F40043E361E3690343E361EC
:1030C0000123C4F89030B4E719235D43E369B0FBF2
:1030D000F5F043F48043EBE7BF4DC10340420F00DE
:1030E000A0860100801A060010B50468C3F3090326
:1030F00024F002040C4313430460836010BD036892
:1031000023F480630B4303607047036823F4006378
:103110000B430360704702320CBF21F0010141F004
:10312000010101617047036843F0010303607047C8
:10313000036843F4807303607047036843F40073CB
:1031400003607047016170470069C0B270478A0927
:1031500010B501F01F01145801238B402343135075
:1031600010BD10B58C090122235801F01F018A40BF
:1031700023EA0203235010BDC1F3891330B501F0D7
:103180001F0244681D58012303FA02F22A408D0DE4
:103190002D58C1F3044003FA00F00B4B21F48031A9
:1031A000994200EA050007D152B114F4806409D0B5
:1031B000003818BF012030BD0028FCD0101EF8E7F1
:1031C0001046F8E72046F6E709010605084B994244
:1031D00010B502D14369836910BD8C0D01222358BB
:1031E000C1F304418A4023EA02032350F4E700BFFD
:1031F0000901010510B51D4CE36803F4E063B3F564
:10320000A06F08D020D8B3F5407F26D0B3F5806FEB
:1032100026D0174BE36002231C46C4F10404A140EE
:10322000C3F104040F23E3401340124A0B431B0174
:103230001118DBB281F800334109012300F01F00AF
:10324000834042F8213010BDB3F5C06F0BD0B3F509
:10325000E06FDED104230024DFE700230424DCE751
:1032600001230324D9E703230124D6E700ED00E07E
:103270000005FA0500E100E021F06041034B21F078
:103280007F0101439960BFF34F8F704700ED00E06D
:10329000830903F1804303F5043300F01F0019682C
:1032A000012282400A431A607047830903F1804378
:1032B00003F5043300F01F001A680121814022EA5F
:1032C00001021A607047FFF7E3BFFFF7EEBF00008F
:1032D000F0B55D4B89B0054604AC03F110061F46FE
:1032E00018685968224603C20833B3421446F7D11E
:1032F000716838696B4603C303C354494B68C3F311
:103300008103022B44D14A684868CB6A0601C2F3A4
:1033100083424FEAD37334D4002B30D102324B684E
:10332000C86ADC0332D5CB6A400003F00F0354BFF8
:10333000474848480133B0FBF3F35A434B68C3F3A3
:10334000031320336B4413F8104C4B68C3F3022370
:1033500020336B4422FA04F413F8206C4B68C3F357
:10336000C22320336B4413F8183C24FA03F0062DD3
:1033700010D8DFE805F06412141017464F00213210
:10338000CDE70BB91132CAE73132C8E7324BD4E787
:103390002F4AD3E7002009B0F0BD2046FBE724FA0E
:1033A00006F0F8E70B6BDA0507D40B6B2B4813F428
:1033B000803F2B4B08BF1846EDE74A680B6BC2F302
:1033C0008132022A4FEAD3730FD0032A14D0012A84
:1033D00006D00BB94008DEE70320B4FBF0F0DAE7D3
:1033E0000BB98008D7E70520F7E71BB90623B0FB28
:1033F000F3F0D0E70720F0E70BB9C008CBE70920CE
:10340000EBE70B6B13F0400F48F2120018BF4FF4BC
:103410000040C0E70B6B9B07BDD00B6B03F00303B1
:10342000012B0CD00B6B03F00303022B09D00B6BA9
:10343000074803F00303032B18BF0020ABE7104637
:10344000A9E74FF40040A6E7F83F0008001002404B
:1034500000127A00006CDC0200093D00003FAB0165
:10346000809FD50008B5274B98421ED00BD8A3F5F6
:10347000943398422AD003F5E05398422DD0B0F10E
:10348000804F1CD008BD204B98422DD003F580639F
:10349000984230D0A3F500639842F3D14FF44470C2
:1034A000FFF711FF4FF4447005E040F20B30FFF7D7
:1034B0000AFF40F20B30BDE80840FFF706BF4FF4AB
:1034C0008060FFF700FF4FF48060F4E740F20140B6
:1034D000FFF7F9FE40F20140EDE74FF48160FFF79E
:1034E000F2FE4FF48160E6E740F21130FFF7EBFEA9
:1034F00040F21130DFE740F21230FFF7E4FE40F215
:103500001230D8E7002C0140004401400B8810B570
:103510008362424B98421BD020F48063B3F1804F0A
:1035200016D08B68C3623E4B98423CD003F5903373
:1035300098424FD03B4A904255D002F5806290426B
:103540005ED0A3F5A053984228D10B7B036325E0FE
:10355000036823F07003036002684B881343036021
:1035600002688B88134303608B68C3622B4B9842BD
:1035700022D0B0F1804F16D0A3F594339842D2D127
:103580004FF08043D3F8002422F44072C3F80024A3
:10359000D3F80044CA882243C3F80024436943F0A7
:1035A0000103436110BD036823F4407303600268A4
:1035B000CB8813430360F1E71B4BD3F8002C22F4B4
:1035C0004072C3F8002CD3F8004CCA882243C3F8D9
:1035D000002CBAE7036823F4407303600268CB88C9
:1035E00013430360B1E7D3F8002422F44072C3F818
:1035F0000024D3F80044CA882243C3F80024A4E777
:10360000D3F8002822F44072C3F80028D3F8004809
:10361000CA882243C3F8002897E700BF002C014066
:10362000002000400044014000200140036843F0B6
:1036300001030360704741627047C3681943C1606A
:103640007047436C01290CBF43F4004323F400434B
:1036500043647047032900F20381DFE811F004009E
:1036600047009A00DF00036A23F0010303628369C5
:1036700023F003038361036A11680B430362036A47
:1036800023F002030362016AD3880B430362754B84
:1036900098420AD020F4806103F5A053994204D0E7
:1036A00003F50063984240F0DB80036A23F00403D3
:1036B0000362016A93880B430362036A23F00803E1
:1036C0000362016A13890B430362436823F4807326
:1036D0004360416853890B434360436823F400739C
:1036E0004360416893890B4343607047036A23F04A
:1036F00010030362836923F440738361036A1168D2
:1037000043EA01130362036AD18823F020030362B2
:10371000036A43EA01130362524B98422DD1036AB4
:10372000918823F040030362036A43EA01130362B2
:10373000036A118923F080030362036A43EA0113D9
:103740000362494B5089D3F8041C928921F48061AB
:10375000C3F8041CD3F8041C41EA8001C3F8041C1C
:10376000D3F8041C21F40061C3F8041CD3F8041C32
:1037700041EA8202C3F8042C70473C4B98426FD157
:103780004368528923F480634360436843EA8203B9
:10379000AAE7036A23F480730362C36923F0030377
:1037A000C361036A116843EA01230362036AD18893
:1037B00023F400730362036A43EA01230362294B83
:1037C00098424DD1036A918823F480630362036AAF
:1037D00043EA01230362036A118923F4006303624D
:1037E000036A43EA012303621F4B5089D3F8041C88
:1037F000928921F48051C3F8041CD3F8041C41EAD7
:103800000011C3F8041CD3F8041C21F40051C3F8C0
:10381000041CD3F8041C41EA0212ABE7036A23F448
:1038200080530362C36923F44073C361036A116860
:1038300043EA01330362036AD18823F4005303622D
:10384000036A43EA01330362064B984208D1596880
:10385000528921F480415960596841EA82125A60C4
:10386000704700BF002C0140002001400040014093
:1038700003291AD8DFE801F0020A121A836923F03B
:10388000700383618369134383617047836923F401
:10389000E0438361836943EA0223F5E7C36923F0C8
:1038A0007003C361C3691343C3617047C36923F4E1
:1038B000E043C361C36943EA0223F5E703290AD859
:1038C000DFE801F002040608426370478263704734
:1038D000C26370470264704703291AD8DFE801F019
:1038E000020A121A836923F0080383618369134370
:1038F00083617047836923F400638361836943EACA
:103900000223F5E7C36923F00803C361C3691343C6
:10391000C3617047C36923F40063C361C36943EAA9
:103920000223F5E708B50C4B98420DD003F574431C
:10393000984210D140F20E30FFF7C5FC40F20E3035
:10394000BDE80840FFF7C1BC40F21140FFF7BBFCE7
:1039500040F21140F4E708BD0044004038B5134B75
:10396000984204460D4618D003F57443984216D188
:103970000620FFF7ADFC226812044FEA550310D56C
:1039800003EB4003B3FBF5F1C1F3420321F00F0158
:103990000904090C0B43E36038BD0220E9E700206D
:1039A000E9E70344B3FBF5F39BB2F4E700440040BE
:1039B000036823F001030360036823F4C06303601A
:1039C00003680B4303607047036823F0010303603F
:1039D000036823F48053036003680B43036070475C
:1039E000036823F001030360436823F440534360FA
:1039F00043680B4343607047036843F0010303606F
:103A00007047036823F00803036003680B430360F7
:103A10007047036823F00403036003680B430360EB
:103A20007047C1F3080181627047406AC0F3080023
:103A30007047026A01F01F0101238B4013430362A8
:103A400070478A0910B501F01F01145801238B40FB
:103A50002343135010BD10B58C090122235801F0E7
:103A60001F018A4023EA0203235010BDC1F38913CA
:103A700010B51C588B0D1A58C1F30440012303FAEA
:103A800000F0104006D001F01F018B40234214BF0C
:103A90000120002010BD0000084B994206D1D0F84B
:103AA000D03023F40043C0F8D0307047026AC1F32D
:103AB000044101238B4013430362704709340F34E0
:103AC000DFF830D0002103E00B4B5B58435004314A
:103AD0000A480B4B42189A42F6D30A4A02E00023E6
:103AE00042F8043B084B9A42F9D300F011F8FFF773
:103AF000DBF87047E4020020004C000800000020C2
:103B0000E4000020E4020020AC090020FEE70000F1
:103B10007E4BDA6902F00602062A82B047D0DA69E3
:103B2000900444D57A4A7B4959605A6099609A60FA
:103B30001A6942F020021A611A6942F040021A61C1
:103B4000DA68D107FCD41A6922F020021A611A69D6
:103B500042F010021A61DA6912F0060F6E4A40F064
:103B6000C780A5231380694B6B4AD969090A01F004
:103B7000DF015180D969C1F307419180D969090EEC
:103B8000D180196AC9B21181196AC1F30721518123
:103B9000DA68D207FCD41A6922F010021A611A6995
:103BA00022F400721A611A6942F080021A615B4ABB
:103BB000D2F8883043F47003C2F88830584B1A6842
:103BC00042F001021A601A689007FCD55A6842F068
:103BD00080025A6000220192019A4F2A40F290809E
:103BE0005A6842F090025A6000220192019A4F2ACC
:103BF00040F289805A6822F003025A601A6822F063
:103C0000867222F480321A605968464A0A405A6025
:103C10005A6822F0084222F474125A60DA6A22F0DA
:103C2000404222F00F02DA621A6B22F4817222F013
:103C300001021A631A6B22F480321A631A6B22F0A3
:103C400000421A635A6B22F001025A63D3F8C02073
:103C500022F48032C3F8C02000229A60C3F8CC203E
:103C60001A6842F480321A604FF4006219688903BE
:103C700001D4013AFAD11A68900333D55A685A60D0
:103C80005A6842F400525A605A6842F480625A609C
:103C90005A6822F0036222F470225A60DA6A22F033
:103CA000404222F00F02DA625A6842F0016242F4A6
:103CB00080325A60DA6A42F00102DA62DA6ADA6263
:103CC0001A6842F080721A601A689101FCD55A682D
:103CD00022F003025A605A6842F002025A605A689F
:103CE0001207FCD500214FF0006002B0FFF7C4BA04
:103CF000DB6903F00603022B7FF435AFBB2331E70A
:103D0000019A013267E7019A01326EE70020024012
:103D1000AB89EFCD2301674500F8FF1F00ED00E000
:103D2000001002400C00FF082DE9F047089D0C46EA
:103D3000002B4ED194468C458646B2FA82F262D967
:103D40004AB1C2F12003914020FA03F30CFA02FCBD
:103D5000194300FA02FE4FEA1C471FFA8CF6B1FB2A
:103D6000F7F44FEA1E4307FB141143EA014304FB37
:103D700006F199420AD91CEB030304F1FF3080F0ED
:103D80001381994240F21081023C6344591A1FFA90
:103D90008EF3B1FBF7F007FB101143EA014300FB80
:103DA00006F69E420AD91CEB030300F1FF3180F0B6
:103DB000FD809E4240F2FA80634402389B1B40EA39
:103DC000044000211DB1D3400022C5E90032BDE806
:103DD000F0878B4205D90DB1C5E9000100210846E5
:103DE000F5E7B3FA83F1002946D1A34202D390420A
:103DF000C0F0F180861A64EB03030120002DE6D0A9
:103E0000C5E90063E3E7002A40F09180A1EB0C04D0
:103E10004FEA1C481FFA8CF70121B4FBF8F64FEA71
:103E20001E4308FB164443EA044307FB06F098428E
:103E300008D91CEB030306F1FF3402D2984200F2CA
:103E4000CE8026461C1A1FFA8EF3B4FBF8F008FB4E
:103E5000104443EA044300FB07F79F4208D91CEBD8
:103E6000030300F1FF3402D29F4200F2B1802046EA
:103E7000DB1B40EA0640A5E7C1F120068B4022FA91
:103E800006F71F4320FA06FC04FA01F343EA0C0389
:103E9000F44000FA01F8380C4FEA1349B4FBF0FE85
:103EA0001FFA87FC00FB1E4449EA04440EFB0CF990
:103EB000A14502FA01F20AD93C190EF1FF3A80F04D
:103EC0008580A14540F28280AEF1020E3C44A4EB15
:103ED00009041FFA83F9B4FBF0F300FB134449EA29
:103EE000044403FB0CFCA44507D93C1903F1FF3043
:103EF00068D2A44566D9023B3C4443EA0E40A0FB8D
:103F00000293A4EB0C049C42CE469C4652D34FD065
:103F100055B1B8EB0E0364EB0C0404FA06F6CB4083
:103F2000CC401E43C5E900640021BDE8F087C2F122
:103F3000200320FA03F10CFA02FC24FA03F3944064
:103F40000C434FEA1C4800FA02FE1FFA8CF7B3FB41
:103F5000F8F008FB1031230C43EA014300FB07F1A2
:103F6000994208D91CEB030300F1FF362CD2994289
:103F70002AD9023863445B1AA4B2B3FBF8F108FBF8
:103F8000113344EA034401FB07F3A34208D91CEBB5
:103F9000040401F1FF3613D2A34211D9023964445B
:103FA000E41A41EA004138E70446EFE6084605E72F
:103FB000C845ADD2B9EB020E63EB070C0138A7E799
:103FC0003146EDE7034698E73046D4E7D6467EE72C
:103FD000634402384CE70646234608460EE7023E95
:103FE00063442FE7FFFF0000010000000000000015
:103FF00000000001000000000000000000000000C0
:10400000010203040607080900000000010203047E
:10401000000000000B71D63C3B5E563D2AAFA03D30
:104020000513D63DA9A8053E5C30203EF39B3A3EE1
:10403000CEE6543E4E0C6F3EEE83843E766A913E51
:104040007A379E3EBCE8AA3E017CB73E16EFC33EDF
:10405000C93FD03EF46BDC3E7271E83E284EF43E20
:104060000000003F78C2053F776D0B3F0000113F15
:104070001879163FCAD71B3F241B213F3B42263FDE
:10408000254C2B3F0138303FF304353F22B2393FF6
:10409000BE3E3E3FF8A9423F0AF3463F35194B3F2B
:1040A000BD1B4F3FEFF9523F1EB3563FA1465A3F4B
:1040B000D8B35D3F29FA603F0219643FD50F673FCF
:1040C0001EDE693F5E836C3F20FF6E3FF450713F00
:1040D0007178733F3675753FEA46773F3CED783F20
:1040E000E2677A3F98B67B3F25D97C3F55CF7D3F2D
:1040F000FD987E3FF9357F3F2FA67F3F8BE97F3FBD
:104100000000803F8BE97F3F2FA67F3FF9357F3F3F
:10411000FD987E3F55CF7D3F24D97C3F98B67B3FAD
:10412000E1677A3F3CED783FEA46773F3575753F6A
:104130007078733FF450713F21FF6E3F5E836C3F98
:104140001DDE693FD40F673F0019643F29FA603FC5
:10415000D7B35D3F9F465A3F1DB3563FEEF9523FDE
:10416000BB1B4F3F34194B3F08F3463FF5A9423F75
:10417000BD3E3E3F23B2393FF304353F0038303F68
:10418000254C2B3F3A42263F221B213FC7D71B3FDE
:104190001779163FFEFF103F736D0B3F79C2053F45
:1041A0000100003F264EF43E6D71E83EF46BDC3EAC
:1041B000C73FD03E10EFC33E007CB73EB8E8AA3EF2
:1041C00073379E3E746A913EEA83843E4E0C6F3E86
:1041D000C8E6543EF89B3A3E5A30203EA1A8053E20
:1041E0000913D63D22AFA03D135E563D8C70D63CE0
:1041F0001919191919191919191919191919194BFD
:104200001919191919194B191919191919194B4B88
:1042100019191919194B191919191919194B194B78
:1042200019191919194B4B1919191919194B4B4B04
:10423000191919194B191919191919194B19194B58
:10424000191919194B194B19191919194B194B4BE4
:10425000191919194B4B1919191919194B4B194BD4
:10426000191919194B4B4B19191919194B4B4B4B60
:104270001919194B191919191919194B1919194B18
:104280001919194B19194B191919194B19194B4BA4
:104290001919194B194B19191919194B194B194B94
:1042A0001919194B194B4B191919194B194B4B4B20
:1042B0001919194B4B1919191919194B4B19194B74
:1042C0001919194B4B194B191919194B4B194B4B00
:1042D0001919194B4B4B19191919194B4B4B194BF0
:1042E0001919194B4B4B4B191919194B4B4B4B4B7C
:1042F00019194B191919191919194B191919194B98
:1043000019194B1919194B1919194B1919194B4B23
:1043100019194B19194B191919194B19194B194B13
:1043200019194B19194B4B1919194B19194B4B4B9F
:1043300019194B194B19191919194B194B19194BF3
:1043400019194B194B194B1919194B194B194B4B7F
:1043500019194B194B4B191919194B194B4B194B6F
:1043600019194B194B4B4B1919194B194B4B4B4BFB
:1043700019194B4B1919191919194B4B1919194BB3
:1043800019194B4B19194B1919194B4B19194B4B3F
:1043900019194B4B194B191919194B4B194B194B2F
:1043A00019194B4B194B4B1919194B4B194B4B4BBB
:1043B00019194B4B4B19191919194B4B4B19194B0F
:1043C00019194B4B4B194B1919194B4B4B194B4B9B
:1043D00019194B4B4B4B191919194B4B4B4B194B8B
:1043E00019194B4B4B4B4B1919194B4B4B4B4B4B17
:1043F000194B191919191919194B19191919194B97
:10440000194B191919194B19194B191919194B4B22
:10441000194B1919194B1919194B1919194B194B12
:10442000194B1919194B4B19194B1919194B4B4B9E
:10443000194B19194B191919194B19194B19194BF2
:10444000194B19194B194B19194B19194B194B4B7E
:10445000194B19194B4B1919194B19194B4B194B6E
:10446000194B19194B4B4B19194B19194B4B4B4BFA
:10447000194B194B19191919194B194B1919194BB2
:10448000194B194B19194B19194B194B19194B4B3E
:10449000194B194B194B1919194B194B194B194B2E
:1044A000194B194B194B4B19194B194B194B4B4BBA
:1044B000194B194B4B191919194B194B4B19194B0E
:1044C000194B194B4B194B19194B194B4B194B4B9A
:1044D000194B194B4B4B1919194B194B4B4B194B8A
:1044E000194B194B4B4B4B19194B194B4B4B4B4B16
:1044F000194B4B1919191919194B4B191919194B32
:10450000194B4B1919194B19194B4B1919194B4BBD
:10451000194B4B19194B1919194B4B19194B194BAD
:10452000194B4B19194B4B19194B4B19194B4B4B39
:10453000194B4B194B191919194B4B194B19194B8D
:10454000194B4B194B194B19194B4B194B194B4B19
:10455000194B4B194B4B1919194B4B194B4B194B09
:10456000194B4B194B4B4B19194B4B194B4B4B4B95
:10457000194B4B4B19191919194B4B4B1919194B4D
:10458000194B4B4B19194B19194B4B4B19194B4BD9
:10459000194B4B4B194B1919194B4B4B194B194BC9
:1045A000194B4B4B194B4B19194B4B4B194B4B4B55
:1045B000194B4B4B4B191919194B4B4B4B19194BA9
:1045C000194B4B4B4B194B19194B4B4B4B194B4B35
:1045D000194B4B4B4B4B1919194B4B4B4B4B194B25
:1045E000194B4B4B4B4B4B19194B4B4B4B4B4B4BB1
:1045F0004B191919191919194B1919191919194B95
:104600004B19191919194B194B19191919194B4B20
:104610004B191919194B19194B191919194B194B10
:104620004B191919194B4B194B191919194B4B4B9C
:104630004B1919194B1919194B1919194B19194BF0
:104640004B1919194B194B194B1919194B194B4B7C
:104650004B1919194B4B19194B1919194B4B194B6C
:104660004B1919194B4B4B194B1919194B4B4B4BF8
:104670004B19194B191919194B19194B1919194BB0
:104680004B19194B19194B194B19194B19194B4B3C
:104690004B19194B194B19194B19194B194B194B2C
:1046A0004B19194B194B4B194B19194B194B4B4BB8
:1046B0004B19194B4B1919194B19194B4B19194B0C
:1046C0004B19194B4B194B194B19194B4B194B4B98
:1046D0004B19194B4B4B19194B19194B4B4B194B88
:1046E0004B19194B4B4B4B194B19194B4B4B4B4B14
:1046F0004B194B19191919194B194B191919194B30
:104700004B194B1919194B194B194B1919194B4BBB
:104710004B194B19194B19194B194B19194B194BAB
:104720004B194B19194B4B194B194B19194B4B4B37
:104730004B194B194B1919194B194B194B19194B8B
:104740004B194B194B194B194B194B194B194B4B17
:104750004B194B194B4B19194B194B194B4B194B07
:104760004B194B194B4B4B194B194B194B4B4B4B93
:104770004B194B4B191919194B194B4B1919194B4B
:104780004B194B4B19194B194B194B4B19194B4BD7
:104790004B194B4B194B19194B194B4B194B194BC7
:1047A0004B194B4B194B4B194B194B4B194B4B4B53
:1047B0004B194B4B4B1919194B194B4B4B19194BA7
:1047C0004B194B4B4B194B194B194B4B4B194B4B33
:1047D0004B194B4B4B4B19194B194B4B4B4B194B23
:1047E0004B194B4B4B4B4B194B194B4B4B4B4B4BAF
:1047F0004B4B1919191919194B4B19191919194B2F
:104800004B4B191919194B194B4B191919194B4BBA
:104810004B4B1919194B19194B4B1919194B194BAA
:104820004B4B1919194B4B194B4B1919194B4B4B36
:104830004B4B19194B1919194B4B19194B19194B8A
:104840004B4B19194B194B194B4B19194B194B4B16
:104850004B4B19194B4B19194B4B19194B4B194B06
:104860004B4B19194B4B4B194B4B19194B4B4B4B92
:104870004B4B194B191919194B4B194B1919194B4A
:104880004B4B194B19194B194B4B194B19194B4BD6
:104890004B4B194B194B19194B4B194B194B194BC6
:1048A0004B4B194B194B4B194B4B194B194B4B4B52
:1048B0004B4B194B4B1919194B4B194B4B19194BA6
:1048C0004B4B194B4B194B194B4B194B4B194B4B32
:1048D0004B4B194B4B4B19194B4B194B4B4B194B22
:1048E0004B4B194B4B4B4B194B4B194B4B4B4B4BAE
:1048F0004B4B4B19191919194B4B4B191919194BCA
:104900004B4B4B1919194B194B4B4B1919194B4B55
:104910004B4B4B19194B19194B4B4B19194B194B45
:104920004B4B4B19194B4B194B4B4B19194B4B4BD1
:104930004B4B4B194B1919194B4B4B194B19194B25
:104940004B4B4B194B194B194B4B4B194B194B4BB1
:104950004B4B4B194B4B19194B4B4B194B4B194BA1
:104960004B4B4B194B4B4B194B4B4B194B4B4B4B2D
:104970004B4B4B4B191919194B4B4B4B1919194BE5
:104980004B4B4B4B19194B194B4B4B4B19194B4B71
:104990004B4B4B4B194B19194B4B4B4B194B194B61
:1049A0004B4B4B4B194B4B194B4B4B4B194B4B4BED
:1049B0004B4B4B4B4B1919194B4B4B4B4B19194B41
:1049C0004B4B4B4B4B194B194B4B4B4B4B194B4BCD
:1049D0004B4B4B4B4B4B19194B4B4B4B4B4B194BBD
:1049E0004B4B4B4B4B4B4B194B4B4B4B4B4B4B4B49
:1049F00000C0C101C30302C2C60607C705C5C4047F
:104A0000CC0C0DCD0FCFCE0E0ACACB0BC90908C8EE
:104A1000D81819D91BDBDA1A1EDEDF1FDD1D1CDCDE
:104A200014D4D515D71716D6D21213D311D1D0104E
:104A3000F03031F133F3F23236F6F737F53534F43E
:104A40003CFCFD3DFF3F3EFEFA3A3BFB39F9F838AE
:104A500028E8E929EB2B2AEAEE2E2FEF2DEDEC2C9E
:104A6000E42425E527E7E62622E2E323E12120E00E
:104A7000A06061A163A3A26266A6A767A56564A4FE
:104A80006CACAD6DAF6F6EAEAA6A6BAB69A9A8686E
:104A900078B8B979BB7B7ABABE7E7FBF7DBDBC7C5E
:104AA000B47475B577B7B67672B2B373B17170B0CE
:104AB00050909151935352929656579755959454BE
:104AC0009C5C5D9D5F9F9E5E5A9A9B5B995958982E
:104AD000884849894B8B8A4A4E8E8F4F8D4D4C8C1E
:104AE000448485458747468682424383418180408E
:104AF00000C1814001C0804101C0804100C18140AE
:104B000001C0804100C1814000C1814001C080419D
:104B100001C0804100C1814000C1814001C080418D
:104B200000C1814001C0804101C0804100C181407D
:104B300001C0804100C1814000C1814001C080416D
:104B400000C1814001C0804101C0804100C181405D
:104B500000C1814001C0804101C0804100C181404D
:104B600001C0804100C1814000C1814001C080413D
:104B700001C0804100C1814000C1814001C080412D
:104B800000C1814001C0804101C0804100C181401D
:104B900000C1814001C0804101C0804100C181400D
:104BA00001C0804100C1814000C1814001C08041FD
:104BB00000C1814001C0804101C0804100C18140ED
:104BC00001C0804100C1814000C1814001C08041DD
:104BD00001C0804100C1814000C1814001C08041CD
:104BE00000C1814001C0804101C0804100C18140BD
:044BF000F8B500BF55
:044BF400F8B500BF51
:084BF80030F1FF7F0100000015
:104C0000F5F3FE01000000000100000000000000BC
:104C10000000000000000000020000000000000092
:104C2000000000000100000003000000040000007C
:104C3000000000000200000003000000050000006A
:104C4000000000000400000006000000000000005A
:104C50000000000005000000060000000000000049
:104C6000000000000200000002000000030000003D
:104C70000300000002000000020000000101010129
:104C80000101010101010101010000000000803E5D
:104C9000010000000100000006000000020000000A
:104CA00000000000050000000300000004000000F8
:104CB000016400000000000000010000000000008E
:104CC0000000000000000000010100000C000000D6
:104CD0000000000001FFFF01200000002000000094
:044CE0000408330091
:0400000508003AC1F4
:00000001FF
