:020000040800F2
:100000007C03002089880008D5880008D58800086E
:10001000D5880008D5880008D588000800000000B1
:10002000000000000000000000000000D58800086B
:10003000D588000800000000D5880008B901000834
:1000400000000000D5880008D5880008D588000881
:10005000D5880008D5880008D5880008D58800080C
:10006000D5880008D588000819780008D5880008C8
:10007000D5880008D5880008D5880008D5880008EC
:10008000D5880008D588000800000000D588000841
:10009000D5880008ED2A0008D58800084528000802
:1000A000D5880008D5880008D5880008253D0008B7
:1000B000E503000800000000D588000800000000EB
:1000C000B129000800000000D5880008D588000884
:1000D000D5880008000000000000000000000000BB
:1000E0000000000000000000D588000800000000AB
:1000F0000000000000000000000000000000000000
:10010000D58800080000000000000000D588000825
:1001100000000000000000000000000000000000DF
:1001200000000000000000000000000000000000CF
:1001300000000000000000000000000000000000BF
:10014000000000000000000000000000D58800084A
:1001500053B94AB9002908BF00281CBF4FF0FF312E
:100160004FF0FF3000F00CB8ADF1080C6DE904CE93
:1001700008F0BEFCDDF804E0DDE9022304B07047BE
:10018000704700BF02440346934200D1704703F812
:10019000011BF9E74FF0E023054A5A61054AF021B7
:1001A00082F8231000229A6107221A61704700BF6B
:1001B0001E48010000ED00E0024A1368013313609D
:1001C000704700BFF01E0020F8B5144B6FF03A02E4
:1001D000D3F8E017D3F8AC07D3F8B067D3F8B47707
:1001E0004FF6FF73FFF7B4FF384614461D466FF015
:1001F0003A024FF6FF733146FFF7AAFF0848624004
:100200006B400021013100F8012B06294FEA122230
:1002100042EA03624FEA1323F4D1F8BD00F0FF1F56
:10022000E81E002008B540F2115007F0F7FE082341
:10023000032200214FF0904007F028FD0823002200
:1002400002214FF0904007F0FFFCBDE80840082273
:1002500001214FF0904007F05ABD08B540F211500F
:1002600007F0DCFE0423032200214FF0904007F04A
:100270000DFD0423002202214FF0904007F0E4FC22
:10028000BDE80840042201214FF0904007F03FBD37
:1002900008B500221C20114607F072FEBDE8084098
:1002A00040F2117007F0BABE10B540F2115007F0DD
:1002B000B5FE1023032200214FF0904007F0E6FC2A
:1002C000BDE810401023002201214FF0904007F0BC
:1002D000BBBC10214FF0904007F011BD037810B562
:1002E0005940044C044B5A5C4378615C42704B406B
:1002F000037010BD6C9B00086C9A000873B5144C19
:100300002246552102F8011B124908688988C4F861
:1003100001009180104A1278E271104A11785278E7
:1003200062720F4A21721288ADF804200025264619
:1003300014F8011B01A80135FFF7D0FF0A2DF7D1F2
:100340009DF80430B3729DF80530F37202B070BDB1
:1003500080180020E81E0020770100207501002091
:10036000408E000837B50C4B0C4C1D780C4B65705B
:100370001B88ADF804305F2101A82170FFF7AEFFA4
:100380002946FFF7ABFF9DF80430A3709DF80530B8
:10039000E37003B030BD00BF6A0100209018002058
:1003A000408E000837B50C4B0C4C1D780C4B65701B
:1003B0001B88ADF80430332101A82170FFF78EFFB0
:1003C0002946FFF78BFF9DF80430A3709DF8053098
:1003D000E37003B030BD00BF6A0100208C1800201C
:1003E000408E0008F8B55049504808F023FA00281C
:1003F00058D04D494D4808F033FA40F201714B484E
:1004000008F0F3F940F202710646484808F0EDF9A9
:1004100040F203710746454808F0E7F94FF4E06100
:100420000546424808F0E1F93E43044640F20171B6
:100430003E4808F0E2F935433C4840F2027108F0CA
:10044000DCF92C43394840F2037108F0D6F9E4B2E4
:1004500036484FF4E06108F0D0F91CBB334808F08F
:10046000C0F9334B01221A70324B1A68324B1A60B2
:10047000324A1368B3B13249013B13600B884FF421
:100480009674B3FBF4F204FB123292B22D4CB0F529
:10049000807F28BF0020A0542B4A01330B801368B3
:1004A000013313602949214808F0C4F9C0B1274934
:1004B0001E48274D08F0D4F9264B2C881B88A342F0
:1004C00022D94FF49672B4FBF2F302FB13439BB2B2
:1004D000214A164832F81310013408F07EF92C80B6
:1004E0001E49124808F0A6F9E0B11C490F4808F06F
:1004F000B7F90E48062108F092F9BDE8F84010213E
:100500004FF0904007F0FBBB0848072108F087F93F
:100510000648062108F079F9054A00231370104AAD
:100520001370DDE7F8BD00BF05000507004400407B
:10053000A1190020F01E00209C190020700100204D
:100540005E1B0020601B0020581B002007000707CF
:100550008E1C00208C1C0020901C0020060006072A
:10056000A019002010B5124C204608F0B7F820461C
:10057000042108F02AF92046082108F01EF9204637
:10058000052108F042F920460A4908F0C3F8204640
:10059000002108F0F5F82046002108F0FDF820467B
:1005A000002108F0E1F82046BDE8104008F000B94D
:1005B0000044004040420F002DE9F04FAE4A13685E
:1005C0008BB0002B2ED0013B1360AC4B1B880193EA
:1005D00001994FF49672B3FBF2F302FB13139BB233
:1005E000A74AD45CA74A1378002B5AD1AA2C1CD155
:1005F00001211170A44A03201070A44A1370A44A68
:100600001370A44B1970A448FF2303704370214654
:10061000FFF764FE019B994A013313809F4A1368D8
:10062000013313600BB0BDE8F08FCC2C0BD102214D
:100630001170954A1370954A1370954A1370954B33
:1006400001221A70DFE7AF2C01D10321F0E7A02CC3
:1006500001D10421ECE7552C05D1052111708A4AFE
:100660000B211170E7E7332C04D105211170864A64
:100670000321F6E75F2CF8D0502CCBD10623137062
:10068000814B854802221A70804A00231370804AE9
:100690001370804B01221A70FF23037043705021A6
:1006A000B6E7013B052BB5D8DFE813F0460B940BFA
:1006B000E20A0600AF0BB80B734E357875B9784B6C
:1006C00075481F782146FFF709FEBC4203D0FF2C76
:1006D0001CBF704B1D70012333709BE7013D082D3B
:1006E00098D801A353F825F00D0700081D0700084E
:1006F000150600081506000815060008150600086E
:1007000037070008E11C000865070008654B6248D0
:100710001C702146FFF7E2FD0223DDE75C4B5E48DB
:100720001C702146FFF7DAFD1CB9574B08221A70DE
:1007300070E70723D0E755495B480B78FF22B3FBEE
:10074000F2F21A4402F0FF020133DDB284540D705C
:1007500051482146FFF7C2FD4D4B1B78AB427FF459
:1007600059AFE2E7514A4B490023137009784A4ACE
:100770005278002900F0DB80944240F0D880444A4F
:1007800048491278097800920591494A0099B2F9CE
:100790000020002900F0C58005998A4200F0C18040
:1007A000414C2578302D40F0A280424A1368002B3E
:1007B00000F0B780013B13603F4BDFF810B1B3F896
:1007C00000903E4BBBF800701B88ADF82430A5218B
:1007D00009A8FFF783FD4FF49676009BB7FBF6F26E
:1007E00006FB127292B2DFF8E8A003F1FF38A521F0
:1007F0005FFA88F80AF802104146FFF76FFD7A1C8D
:1008000092B2B2FBF6F106FB112292B201210AF874
:1008100002804A1C57FA82F5ADB24145B5FBF6F0AD
:1008200006FB1055ADB255DD009B9DF824200AF85B
:1008300005209A1C57FA82F292B2B2FBF6F106FB3F
:10084000112292B29DF825100AF80210DA1C57FA0C
:1008500082F31B49ABF8003009F01F0309F10109CD
:1008600021F813701749CA54134BA3F80090164A85
:1008700013680133136054E0581B00205C1B0020F8
:10088000601B002096190020951900209419002063
:1008900093190020650100206601002070010020EE
:1008A0006A0100207E18002094180020A119002061
:1008B0006801002040010020C2110020408E000885
:1008C000E4110020C4110020BC1100208C10002075
:1008D0008E10002014F8011F039209A80291FFF75F
:1008E000FDFC039A02990AF80510114691E7482D7C
:1008F0000FD83F2D15D9413D072D00F29181DFE83A
:1009000015F01701D701AD035204F20579065D0712
:100910002908F42D0ED0FA2D00F08480F22D00F07D
:10092000EE80A74B01221A70A64B059A1A80A64B9F
:100930000022FCE6A54A1372137582F8203082F873
:100940002C30A34A1368002B59D0DFF8C4A2DFF87B
:10095000C492BAF80060B9F800809E4F013B136062
:100960009D4B4FF496741B88ADF8243009A8A5213F
:10097000FFF7B4FCB6FBF4F304FB13639BB2A522B0
:100980000121FA54FFF7AAFC731C9BB2B3FBF4F2EB
:1009900004FB12339BB201222946FA54FFF79EFC56
:1009A000B31C9BB2B3FBF4F204FB12339BB20521E0
:1009B000FD54F31C9BB2B3FBF4F204FB12339BB265
:1009C0009DF82420FA54331D9BB2B3FBF4F204FBD0
:1009D00012339BB29DF82520FA54731D7F4AAAF862
:1009E000003008F01F0308F1010822F813607C4A68
:1009F000A9F80080D1547B4A1368013313607A4A06
:100A000000231370794A1360794A01211170794AE1
:100A1000517301330A2B02F11002F9D1764B0022F7
:100A20001A607EE7009B022B7FF47BAF684A136855
:100A3000002B3FF476AFDFF8D8A1DFF8D891BAF8F1
:100A40000060B9F80080634F013B1360624B4FF4C4
:100A5000967509A81B88ADF82430A521FFF73EFC48
:100A6000B6FBF5F305FB13639BB2A5220221FA54F2
:100A7000FFF734FC731C9BB2B3FBF5F205FB12339A
:100A80009BB20222FA21FA54FFF728FCB31C9BB256
:100A90006478B3FBF5F205FB12339BB2FA222146D0
:100AA000FA54FFF71BFCF31C9BB2B3FBF5F205FBFA
:100AB00012339BB20621FC54331D9BB2B3FBF5F2FB
:100AC00005FB12339BB29DF82420FA54731D9BB290
:100AD000B3FBF5F205FB12339BB29DF82520FA54C7
:100AE000B31D3E4AAAF8003008F01F0308F10108C0
:100AF00022F813603A4AA9F80080D154B7E6009B67
:100B00000B2B7FF40EAF3D493A4A9FED3D7A00230F
:100B100011F8010F07EE900AF8EE677A013367EEDD
:100B2000877A0A2BC2ED027A02F11002F0D1F8E6C0
:100B3000009B022B7FF4F5AE6378013BDBB2092BFF
:100B40003FF6EFAE2F4A304CDFF8CCE00C2101FB32
:100B50000322282000FB03F7002100264FF07E55DA
:100B60001160556016724FF0200CE21904F807C0AE
:100B7000DFF8A8C0C2F820E011615561C2F818C0C2
:100B8000D16182F82560012210FB03231A19E65473
:100B90004FF0FF10FF23A2F80130C2F80300D37119
:100BA0001A4A1320D319D05540F2011219615D6120
:100BB000C3F818C0D9611A6283F82560B1E600BF96
:100BC000971900206801002096190020BC1500200C
:100BD000400100208E100020408E0008E41100200B
:100BE000C4110020BC1100208803002080030020D5
:100BF000890300207C00002084030020941800203A
:100C00008180803B04000020140D0020840B002014
:100C10008C100020C2110020010101000AD7233DE1
:100C2000009B022B7FF47DAE6378013BDBB2092B86
:100C30003FF677AE634A644EDFF8A4E10C2101FB76
:100C40000322282000FB03F500214FF07E540027EB
:100C50001160546017724FF0200C721906F805C02D
:100C6000DFF880C1C2F820C04FF0010C10FB03C3B5
:100C700011615461C2F818E0D16182F825709A19A7
:100C8000F7544FF0FF10FF23A2F80130C2F8030021
:100C9000D3714E4A03205319505540F20112196185
:100CA0005C61C3F818E0D9611A6283F825C038E6A0
:100CB000009BA3F10805EDB20C2D3FF632AE637830
:100CC0000093581EC0B209283FF62BAEE37802937A
:100CD00000EB8007237994F8068094F807B094F825
:100CE00002900393FF006379374C049307F1010CE2
:100CF0000CEB040600212744354B44F80C107160BE
:100D0000B1603C468D42C8BF5E5C01F10101D8BFB5
:100D100000260C2904F8016FF4D1DDED027A9FED75
:100D20002D7A294C049BF8EE677AF7EE006A77EE8D
:100D3000A67A282587EE276A45436119B3F1000C8E
:100D4000665D04F8059018BF4FF0010C012581F88D
:100D5000215081F820C0DDED037A81ED066AB8EEFE
:100D6000677ADFED1D7A37EE677A27EE067A81ED36
:100D7000077AB8F1000F37D181F82280BBF1000F5C
:100D800040F0428181F823B08D84144901EB0011B9
:100D900000250B7907EE903AF8EE677A282177EE76
:100DA000E67A67EE877AF5EEC07AF1EE10FA40F354
:100DB000308101FB004177EEA67A0D61C1ED057A25
:100DC0001EE000BF04000020140D0020840B002052
:100DD0009C1800200AD7233E000000437C0000201E
:100DE0000AD7233D01010100BBF1000C18BF4FF0F1
:100DF000010CB14581F825C04D8481F82450C4D13F
:100E00008B4991F800A0BAF1FF0F3FF48AAD8948F1
:100E1000016800293FF485AD874B884E1B880693F7
:100E20000139874B016087491D880988ADF8241076
:100E30004FF4967409A85021FFF750FAB5FBF4F16E
:100E400004FB115189B24FF0500C06F801C0514615
:100E5000FFF744FA691C89B2B1FBF4FC04FB1C11D6
:100E600089B206F801A0DFF8F0A19AF80010079106
:100E7000FFF734FA05F1020C1FFA8CFCBCFBF4FE00
:100E800004FB1ECC07991FFA8CFC06F80C100131EC
:100E90008AF800101421FFF721FAE91C89B2B1FB8E
:100EA000F4FC04FB1C1189B24FF0140C06F801C0CD
:100EB0004221FFF713FA291D89B2B1FBF4FC04FBB0
:100EC0001C1189B24FF0420C06F801C00099FFF7DF
:100ED00005FA691D89B2B1FBF4FC04FB1C1189B24F
:100EE000009B73544946FFF7F9F9A91D89B2B1FB7C
:100EF000F4FC04FB1C1189B206F801900299FFF77B
:100F0000EDF9EB1D9BB2B3FBF4F104FB11339BB283
:100F1000029A0399F254FFF7E1F905F108039BB235
:100F2000B3FBF4F104FB11339BB2039A0499F2541E
:100F3000FFF7D4F905F109039BB2B3FBF4F104FB0D
:100F400011339BB2049AF2544146FFF7C7F905F1F9
:100F50000A039BB2B3FBF4F104FB11339BB2594675
:100F600006F80380FFF7BAF905F10B039BB2B3FB58
:100F7000F4F104FB11339BB205F10C0905F11808DB
:100F800006F803B01FFA89F91FFA88F817F801AFBD
:100F900009A85146FFF7A2F9B9FBF4F304FB139338
:100FA00009F101099BB21FFA89F9C84506F803A0A7
:100FB000ECD1B8FBF4F304FB13881FFA88F89DF812
:100FC000243006F8083005F119039BB2B3FBF4F2A4
:100FD00004FB12339BB29DF82520F254184A05F108
:100FE0001A031380069B184A03F01F031A2122F8E4
:100FF0001350164AD154164A1021D154069B0E4A5A
:1010000001331380134A33E481F8238040F2011541
:10101000BAE651BF01FB004401FB0041C1ED047A77
:10102000C1ED056A5CBF2561C4ED056AE8E600BF55
:101030006A0100206C010020D61A0020A4190020AB
:10104000A2190020408E0008181B0020F81A00206A
:10105000D81A0020D01A00207F180020009B022BF5
:101060007FF45FAC94F8018008F1FF33DBB2092B09
:101070003FF657AC834A282101FB0323002283F863
:101080002120814B93F80090B9F1FF0F3FF449AC58
:101090007E4A1368002B3FF444AC013BDFF818B2E2
:1010A00013607B4BBBF80050DFF808A21B88ADF83B
:1010B00024304FF4967409A85021BAF80070754E88
:1010C000FFF70CF9B5FBF4F304FB13539BB250226A
:1010D0004946F254FFF702F96B1C9BB2B3FBF4F2E2
:1010E00004FB12339BB206F80390DFF8D09199F815
:1010F00000100291FFF7F2F8AB1C9BB2B3FBF4F2C5
:1011000004FB123302999BB2F154013189F80010AB
:101110000099FFF7E3F8EB1C9BB2B3FBF4F204FB7E
:1011200012339BB2009AF2544321FFF7D7F82B1DDC
:101130009BB2B3FBF4F204FB12339BB24322F25492
:101140004146FFF7CBF86B1D9BB2B3FBF4F204FBF7
:1011500012339BB2082106F80380AB1D9BB2B3FB90
:10116000F4F204FB12339BB29DF82420F254EB1DE1
:101170009BB2B3FBF4F204FB12339BB29DF8252023
:10118000F25405F10803ABF80030434A07F01F039F
:10119000013722F81350414AD154414A1021D15409
:1011A000AAF800702EE7009BA3F10805EDB20C2D04
:1011B0003FF6B7AB63780093581EC0B209283FF6DC
:1011C000B0ABE378029300EB8007237994F80680B4
:1011D00094F807B094F802900393FF006379314CC0
:1011E000049307F1010C0CEB0406002127442E4B5D
:1011F00044F80C107160B1603C468D42C8BF5E5C23
:1012000001F10101D8BF00260C2904F8016FF4D1C7
:10121000DDED027A9FED257A224C049BF8EE677A89
:10122000F7EE006A77EEA67A282587EE276A45430F
:101230006119B3F1000C665D04F8059018BF4FF01A
:10124000010C012581F8215081F820C0DDED037AE1
:1012500081ED066AB8EE677ADFED157A37EE677AC8
:1012600027EE067A81ED077AB8F1000F28D181F8D0
:101270002280BBF1000F00F00A8181F8238040F248
:10128000011506E1140D00206A0100206C01002008
:10129000408E0008A4190020181B0020F81A002016
:1012A000D81A0020840B00209C1800200AD7233E67
:1012B00000000043D61A0020A21900207F18002049
:1012C000BBF1000C18BF4FF0010CB14581F825C0EF
:1012D0004D8481F8245040F0DD80BC4991F800A095
:1012E000BAF1FF0F3FF41DABB948016800293FF484
:1012F00018ABB84BB84E1B8806930139B74B016049
:10130000B7491D880988ADF824104FF4967409A8D0
:101310005021FEF7E3FFB5FBF4F104FB115189B254
:101320004FF0500C06F801C05146FEF7D7FF691C7C
:1013300089B2B1FBF4FC04FB1C1189B206F801A0D0
:10134000DFF8A8A29AF800100791FEF7C7FF05F191
:10135000020C1FFA8CFCBCFBF4FE04FB1ECC0799AC
:101360001FFA8CFC06F80C1001318AF800101421C9
:10137000FEF7B4FFE91C89B2B1FBF4FC04FB1C11BD
:1013800089B24FF0140C06F801C04421FEF7A6FF05
:10139000291D89B2B1FBF4FC04FB1C1189B24FF08A
:1013A000440C06F801C00099FEF798FF691D89B248
:1013B000B1FBF4FC04FB1C1189B2009B7354494639
:1013C000FEF78CFFA91D89B2B1FBF4FC04FB1C11D4
:1013D00089B206F801900299FEF780FFEB1D9BB2DF
:1013E000B3FBF4F104FB11339BB2029A0399F2545C
:1013F000FEF774FF05F108039BB2B3FBF4F104FBA5
:1014000011339BB2039A0499F254FEF767FF05F17A
:1014100009039BB2B3FBF4F104FB11339BB2049AB2
:10142000F2544146FEF75AFF05F10A039BB2B3FBA3
:10143000F4F104FB11339BB2594606F80380FEF722
:101440004DFF05F10B039BB2B3FBF4F104FB113329
:101450009BB205F10C0905F1180806F803B01FFA54
:1014600089F91FFA88F817F801AF09A85146FEF765
:1014700035FFB9FBF4F304FB139309F101099BB2A7
:101480001FFA89F9C84506F803A0ECD191E581F867
:1014900023B08D84534901EB001100250B7907EE31
:1014A000903AF8EE677A282177EEE67A67EE877A47
:1014B000F5EEC07AF1EE10FA07DD01FB004177EEA0
:1014C000A67A0D61C1ED057A07E751BF01FB004423
:1014D00001FB0041C1ED047AC1ED056A5CBF2561E5
:1014E000C4ED056AF9E6009B022B7FF41AAA94F872
:1014F000018008F1FF33DBB2092B3FF612AA3A4A0A
:10150000282101FB0323002283F821202F4B93F88D
:101510000090B9F1FF0F3FF404AA2D4A1368002B85
:101520003FF4FFA9013BDFF8B4B013602C4BBBF8CC
:101530000050DFF8A0A01B88ADF824304FF496745B
:1015400009A85021BAF80070234EFEF7C7FEB5FB7C
:10155000F4F304FB13539BB250224946F254FEF7B6
:10156000BDFE6B1C9BB2B3FBF4F204FB12339BB2C7
:1015700006F80390DFF8749099F800100291FEF7D6
:10158000ADFEAB1C9BB2B3FBF4F204FB1233029929
:101590009BB2F154013189F800100099FEF79EFECC
:1015A000EB1C9BB2B3FBF4F204FB12339BB2009A28
:1015B000F2544521FEF792FE2B1D9BB2B3FBF4F2D1
:1015C00004FB12339BB24522B9E500BF6A0100203B
:1015D0006C010020D61A0020A4190020A2190020B6
:1015E000408E00087C000020840B00207F18002023
:1015F0008180803B009B052B7FF493A994F8019098
:1016000009F1FF32D2B2092A3FF68BA9A3780293DF
:10161000DDED027AE3781FED0A7A0393F8EE677A3C
:10162000BF4B94F8048067EE877A0C2101FB0233EC
:10163000C3ED007ADDED037AF8EE677AB8F10002C7
:1016400067EE877A18BF0122C3ED017A1A72B54B93
:1016500093F800A0BAF1FF0F3FF463A9B24A1368F0
:10166000002B3FF45EA9013B1360B04BB04A1D88CC
:10167000DFF8D8B21288BBF80070ADF824204FF420
:10168000967409A85021FEF729FEB5FBF4F204FB7D
:101690001252A84E92B25021B1545146FEF71EFE8E
:1016A0006A1C92B2B2FBF4F104FB112292B206F86A
:1016B00002A0DFF89CA29AF800100491FEF70EFE3B
:1016C000AA1C92B2B2FBF4FC04FB1C22049992B255
:1016D000B15401318AF800100099FEF7FFFDEA1CB1
:1016E00092B2B2FBF4F104FB112292B2009BB3540C
:1016F0004621FEF7F3FD2A1D92B2B2FBF4F104FB82
:10170000112292B24621B1544946FEF7E7FD6A1D07
:1017100092B2B2FBF4F104FB112292B2029906F8E4
:101720000290FEF7DBFDAA1D92B2B2FBF4F104FBBE
:10173000112292B2029B0399B354FEF7CFFDEA1D2A
:1017400092B2B2FBF4F104FB112292B2039BB354A8
:101750004146FEF7C3FD05F1080292B2B2FBF4F177
:1017600004FB112292B2714B06F8028005F10902C6
:1017700092B2B2FBF4F104FB112292B29DF8241054
:10178000B15405F10A0292B2B2FBF4F104FB11224A
:1017900092B29DF82510B15405F10B021A80664AE9
:1017A00007F01F030B2122F81350644AD154644AF6
:1017B00010210137D154ABF8007023E4009B032BB8
:1017C0007FF4AFA894F8019009F1FF33DBB2092B45
:1017D0003FF6A7A894F802809FED5A7A5A4A07EE7E
:1017E000908AF8EE677A02EB031367EE877AC3ED0F
:1017F000027A4C4B93F800A0BAF1FF0F3FF491A886
:10180000494A1368002B3FF48CA8013B1360474BF7
:10181000474A1D88DFF834B11288BBF80070ADF874
:1018200024204FF4967409A85021FEF757FDB5FB0C
:10183000F4F204FB12523F4E92B25021B154514681
:10184000FEF74CFD6A1C92B2B2FBF4F104FB1122CC
:1018500092B206F802A0DFF8F8A09AF80010029100
:10186000FEF73CFDAA1C92B2B2FBF4FC04FB1C2266
:10187000029992B2B15401318AF800100099FEF732
:101880002DFDEA1C92B2B2FBF4F104FB112292B2DC
:10189000009BB3544721FEF721FD2A1D92B2B2FBF3
:1018A000F4F104FB112292B24721B1544946FEF7EC
:1018B00015FD6A1D92B2B2FBF4F104FB112292B243
:1018C000414606F80290FEF709FDAA1D92B2B2FB4E
:1018D000F4F104FB112292B2144B06F80280EA1DC7
:1018E00092B2B2FBF4F104FB112292B29DF82410E3
:1018F000B15405F1080292B2B2FBF4F104FB1122DB
:1019000092B29DF82510B15405F109021A800A4AD5
:1019100007F01F03092122F81350084A46E700BFC9
:10192000040000206A0100206C010020A2190020A0
:10193000408E0008A4190020181B0020F81A00206F
:10194000D81A00208180803B7C000020D61A00201D
:101950007F180020009B032B7EF6E3AF6678013EE4
:10196000F6B2092E3EF6DDAFA178E4788B1E012B8E
:1019700040F2DA800B1F5A425A419200C64B03EBE9
:1019800006104FEA061E4270002203F80E101046A1
:1019900011469B461D798E42A8BF0246013128445C
:1019A0000A29C0B203F11003F4D10BEB0E031B792B
:1019B0009C42C0F0BB809C4200F2EC806421B2FBF0
:1019C000F1F301FB13232244D2B2013AF34492FB18
:1019D000F1F501FB1522B149AF4DDFF8ECC28BF8F0
:1019E0000440D8B201EB40010027042305EB0616A2
:1019F0004FF0FF0E9042778001F1020140F3068123
:101A0000A74B01221A70A74B93F80080B8F1FF0F83
:101A10003EF487AFA44A1368002B3EF482AF013B2B
:101A20001360A24BA24E1F88A24B1D88A24B4FF4FD
:101A3000967B09A81B88ADF824305021FEF74EFC98
:101A4000B5FBFBF30BFB13539BB250224146F25400
:101A5000FEF744FC6B1C9BB2B3FBFBF20BFB123397
:101A60009BB24FF0000A06F80380DFF86C8298F80A
:101A700000904946FEF732FCAB1C9BB2B3FBFBF275
:101A80000BFB12339BB209F1010188F80010009999
:101A900006F80390FEF722FCEB1C9BB2B3FBFBF2B3
:101AA0000BFB12339BB2009AF254FF23B2FBF3F309
:101AB000134403F0FF0909F1FF3300930AF104080E
:101AC000009B55FA88F81FFA88F89A45B8FBFBF195
:101AD0000BFB11881FFA88F840F3B4809DF824208E
:101AE00006F8082009F1050255FA82F292B2B2FB1B
:101AF000FBF10BFB112292B29DF82510B15409F1B4
:101B000006036C4955FA83F20A8007F01F026B49FD
:101B100021F812506A498B546A4B10219954634B37
:101B200001371F80FFF76EBA032227E7A118642749
:101B3000C9B2B1FBF7F507FB15111D1BEDB20295FC
:101B400004F16305ED1AEDB2DFF85091B5FBF7FC37
:101B500007FB1C555FFA81F8EDB2039509EB4801CC
:101B6000039DA84501F102013FF725AF029D08EB57
:101B7000050CBCFBF7FA07FB1ACC09EB4C0A08F181
:101B800001089AF801A001F801AC19F81CC001F88D
:101B900002CCE5E7C0F16400E11AC0B2C9B28142EB
:101BA00004D91844C4B29C427FF608AF03F1630124
:101BB000091B6420A4EB030CC9B21344DBB2B1FBD4
:101BC000F0F5DFF8D880B3FBF0F700FB1511CDB2CC
:101BD00000FB17335FFA8CFCDBB208EB45019D423A
:101BE000A1F10201FFF6EAAE05EB0C0ABAFBF0F731
:101BF00000FB17A708EB470A91F803908AF80190B9
:101C000091F8029008F81790013DE8E71CF803509E
:101C1000003D18BF012501F8015C5D1C95FBFEF835
:101C2000C8EB0828A5EB080502331CF8055001F89D
:101C3000025C3D44AFB293FBFEF5C5EB05255B1B93
:101C40000130D7E6BAF1030F09D1214609A8FEF702
:101C500045FB214606F808100AF1010A2EE71A4B47
:101C600009A813F80A100291FEF738FB0299F1E770
:101C7000164B1B7893BB0B4B15481D782146FEF77E
:101C80002DFBAC423EF451ADFF2C3EF44EAD114B5A
:101C900000221A70FEF749BD7C000020A40E00202F
:101CA0008A0300206A0100206C010020D61A00205F
:101CB000A4190020A2190020408E0008181B002043
:101CC000F81A0020D81A0020941800209519002036
:101CD00066010020650100207F180020082B0AD132
:101CE000554B1B78A3421EBF544B00221A70544B15
:101CF0000922FEF71CBD092B7EF48CAC514B00224F
:101D00001A704E4A4C4B12785B78002A3EF40FAEA4
:101D10009C427EF40CAE4C4A1368002B3EF407AE96
:101D2000013B1360494A138801331380484A136802
:101D300001331360FEF7FBBD414E3378032B1ED1F8
:101D4000444F3D483D780622B5FBF2F302FB1353A6
:101D5000DBB2414AD35CA34218BF384B05F1010501
:101D600018BF0022EDB2214618BF1A70FEF7B6FA6E
:101D7000062D3D707EF44EAC0023FEF7ADBC43B99A
:101D8000364B2D481C702146FEF7A8FA0823FEF7B3
:101D9000A3BC082BA4D0092B7EF43CAC294B274ACA
:101DA00000251D701278244B5B78002A3EF4BFADED
:101DB0009C427EF4BCAD294B1A78294B1A70FEF771
:101DC000D1FAFEF7EFFA274B1D70274B01221A704C
:101DD000FEF7ADBD1A4B1B78002B3FF44CAF082B20
:101DE0003FF47EAF092B7EF415AC164B00221A701F
:101DF000124A114B12785B78002A3EF498AD9C424F
:101E00007EF495AD164BFF22E1E70D4A1378012BC6
:101E10007EF68DAD013B1370FEF7FCBB08490B78D5
:101E2000012B8DBF03F1FF33052302340B709CBFE0
:101E300013700C70FEF7EEBB6601002065010020F8
:101E400095190020A1190020D01A0020D41A0020D2
:101E50006C01002094190020E81E00207E1800204C
:101E60006A01002097190020740100205E4B2DE9C3
:101E7000F74F1B785D4E96F80080002B68D1B8F1C3
:101E8000000F65D15A4B5B4C1B785B4DFF2B00F06C
:101E900093805A4B1F78DFB110214FF0904083F8A8
:101EA000008005F02AFF564A564B11781980517868
:101EB00059809178D278DA809980534B04221A8025
:101EC000524BA3F800805248072106F09EFC3BE0ED
:101ED0002B6822689B1A012B52D94E480268002AAF
:101EE0004ED04D49DFF848A10B8803F01F081AF8BF
:101EF0000890B9F1000F3BD0484B33F818300193EC
:101F0000474B4FF09040102113F808B005F0F5FE54
:101F10003D4BDFF8F0C0DFF81CE11F800BF1FF3212
:101F20003B464FF496709A4215DA17B1364BA3F838
:101F300000B0364B36480022072109F1FF391A80DC
:101F400006F063FC0AF808902B68236001233370C5
:101F500003B0BDE8F08F01995918B1FBF0F700FB11
:101F6000171101271EF801102CF813100133DAE7BE
:101F7000013A02602B4A01330B801368013313606E
:101F80002B6822689B1AB3F57A7FE1D910214FF0B4
:101F9000904005F0B2FE244A1A4B1178198051780E
:101FA00059809178D278DA809980174B04221A8070
:101FB000164B00221A8086E72B6822689B1AB3F51D
:101FC0007A7FC5D910214FF0904005F096FE174A50
:101FD0000C49434612F8010B21F8130001330C2B76
:101FE000F8D1094A1380E3E7A1190020A0190020C5
:101FF0006A01002098190020F01E00209719002087
:1020000090180020901C00208C1C00208E1C0020AA
:1020100000440040D01A0020D41A0020181B0020D1
:10202000F81A00206C0100208C1800208018002075
:10203000D81A0020A41900200C4B0D4A1968136807
:10204000CB1A012B10B50FD90A4811600023038069
:102050000948038009484FF49674046008480360F7
:10206000084803700848037010BD00BFF01E002030
:102070009C1900205C1B00205E1B002070010020CA
:10208000581B002096190020A11900204A4B1B78EC
:102090002DE9F74F002B00F08B80484B93F800A000
:1020A000BAF1FF0F00F08480454A1368002B7FD0FF
:1020B000DFF82C91DFF82C81B9F80050B8F80070E7
:1020C000404E013B1360404B4FF4967401A81B88AF
:1020D000ADF804305021FEF701F9B5FBF4F304FB31
:1020E00013539BB250225146F254FEF7F7F86B1C83
:1020F0009BB2B3FBF4F204FB12339BB206F803A0CD
:10210000DFF8E4A09AF800B05946FEF7E7F8AB1CF8
:102110009BB2B3FBF4F204FB12339BB2012106F82D
:1021200003B00BF1010B8AF800B0FEF7D7F8EB1CF7
:102130009BB2B3FBF4F204FB12339BB20122F254C4
:10214000224B93F800A05146FEF7C8F82B1D9BB216
:10215000B3FBF4F204FB12339BB2072106F803A091
:102160006B1D9BB2B3FBF4F204FB12339BB29DF8E0
:102170000420F254AB1D9BB2B3FBF4F204FB123308
:102180009BB29DF80520F254EB1D114AA9F80030CE
:1021900007F01F03013722F813500E4AA8F8007009
:1021A000D1540D4A1021D1540C4A136801331360E5
:1021B00003B0BDE8F08F00BF740100206A01002069
:1021C0006C010020A4190020408E00086B01002043
:1021D000181B0020F81A0020D81A0020D01A00205E
:1021E000A2190020D61A00207F18002008B540F25E
:1021F000115005F013FF4FF48063032200214FF0CC
:10220000904005F043FD4FF48063002202214FF01F
:10221000904005F019FDBDE808404FF480620421AC
:102220004FF0904005F073BD08B540F2115005F035
:10223000F5FE4FF40073032200214FF0904005F0AB
:1022400025FD4FF40073002202214FF0904005F06D
:10225000FBFCBDE808404FF4007204214FF09040B1
:1022600005F055BD10B50F4C40F2157005F0D6FEC7
:1022700020460D49002205F07BFD00231A46194631
:10228000204605F0F7FD204605F013FE002211461A
:10229000172005F075FEBDE8104001220021202026
:1022A00005F06EBE00540040801A060010B5134AB7
:1022B000134B1178527819705A70124B124C02223B
:1022C0001A60124BC4221A70114B01221A70114B62
:1022D0000022204640F209111A8005F0FEFD20463A
:1022E0004FF4857105F0F9FD20464FF4847105F037
:1022F000F4FD2046BDE8104005F0E0BD630100207C
:102300007A18002074180020005400407C18002027
:102310007D18002078180020134A002310B5137090
:10232000124A134C09211160124AC4211170124A39
:102330001370124A20464FF48061138005F0A5FD0A
:10234000204640F2091105F0C8FD20464FF4857182
:1023500005F0C3FD20464FF4847105F0BEFD204614
:10236000BDE8104005F0AABD6418002074180020D4
:10237000005400407C1800207D18002078180020B0
:102380002DE9F04F754B1B7887B0002B00F0E280F1
:10239000734D9FED747AC2232B70734BDB885BBA4D
:1023A0009BB207EE903AF8EE677A67EE877AFCEE1A
:1023B000E77A17EE903A9BB26B701B0AAB706B4BCF
:1023C00093F800B0BBF1FF0F00F09680684A1368E5
:1023D000002B00F09180013B1360664BDFF8C0A139
:1023E000B3F80090644B654F1E88654B4FF49674AC
:1023F0001B88ADF8143005A85021FDF76FFFB6FB20
:10240000F4F204FB126292B250210AF8021059460B
:10241000FDF764FF721C92B297F80080B2FBF4F1F2
:1024200004FB112292B241460AF802B0FDF756FFB2
:10243000B21C92B2B2FBF4F104FB112292B203215E
:102440000AF8028008F1010887F80080FDF746FFCE
:10245000F21C92B2B2FBF4F104FB112292B20321FE
:1024600006F10408F71D0AF802101FFA88F82A4638
:10247000BFB212F8011B05A8CDE90112FDF72EFF2E
:10248000B8FBF4F004FB108008F1010880B21FFAD9
:1024900088F801990AF800104745029AE9D1B7FB7C
:1024A000F4F204FB1277BFB29DF814200AF807205B
:1024B00006F1080292B2B2FBF4F104FB112292B2CF
:1024C0009DF815100AF802102B4A06F10903138033
:1024D00009F01F032B4A22F813602B4A0921D1541B
:1024E0002A4A1021D154234B294A09F10109A3F8A2
:1024F0000090136801331360C0232B701A4BDFED7B
:10250000256AB3F803305BBA9BB207EE903AB8EE97
:10251000677ADFED217AE7EE267A9FED207A67EE83
:10252000877AF5EEC07AF1EE10FAA9BFFCEEE77AF1
:10253000002317EE903A9BB26B70BBF1FF0F4FEA8E
:102540001323AB702ED1084AC5232B7053786B70C0
:102550001378AB7007B0BDE8F08F00BF641800209F
:102560006518002000401C3E681800206A01002009
:102570006C010020D61A0020A21900207F1800202C
:10258000408E0008181B0020F81A0020D81A0020DE
:10259000D01A002000002F3B000034C20000C842C7
:1025A000A4190020DFF894A2DAF80030002B00F024
:1025B0009280013BCAF80030964BDFF884921B886A
:1025C0000193954B954F1E88954B4FF4967405A833
:1025D0001B88ADF814305021FDF780FEB6FBF4F3F4
:1025E00004FB13639BB25022594609F80320FDF700
:1025F00075FE731C9BB297F80080B3FBF4F204FBEA
:1026000012339BB2414609F803B0FDF767FEB31CD5
:102610009BB2B3FBF4F204FB12339BB2032109F823
:10262000038008F1010887F80080FDF757FEF31CCE
:102630009BB2B3FBF4F204FB12339BB2032209F802
:10264000032006F10408F71D764A1FFA88F8BFB286
:1026500012F8011B05A8CDE90212FDF73FFEB8FBF9
:10266000F4F304FB138308F101089BB21FFA88F806
:10267000029909F803104745039AE9D1B7FBF4F32F
:1026800004FB1377BFB29DF8143009F8073006F148
:1026900008039BB2B3FBF4F204FB12339BB29DF828
:1026A000152009F803205C4A06F109031380019BF9
:1026B0005D4A03F01F03092122F813605B4AD154DD
:1026C0005B4A1021D154019B524A01331380594A6D
:1026D000136801331360584AC5232B7053786B700D
:1026E0001378AB70DAF80030002B3FF433AF013BC6
:1026F000DFF82481CAF80030494BB8F80090454F04
:102700001B88ADF814304FF4967505A850213E880B
:10271000DFF82CA1414CFDF7E1FDB9FBF5F305FB1A
:1027200013939BB2502259460AF80320FDF7D6FDB9
:1027300009F101039BB2B3FBF5F205FB12339BB227
:102740000AF803B094F800B05946FDF7C7FD09F147
:1027500002039BB2B3FBF5F205FB12339BB20321DC
:102760000AF803B00BF1010B84F800B0FDF7B6FDD9
:1027700009F103039BB2B3FBF5F205FB12339BB2E5
:1027800003220AF8032009F1040409F1070B254A82
:10279000A4B21FFA8BFB12F8011B05A8CDE90112A8
:1027A000FDF79CFDB4FBF5F305FB134301349BB22D
:1027B000A4B201990AF803105C45029AEBD1B4FB6C
:1027C000F5F305FB1344A4B29DF814300AF8043065
:1027D00009F108039BB2B3FBF5F205FB12339BB280
:1027E0009DF815200AF8032009F109030E4AA8F8FC
:1027F000003006F01F03092122F813900B4AD15430
:102800000B4A1021D1540B4A1368013601333E8024
:1028100013609FE6D61A0020A21900207F1800201E
:10282000408E000865180020181B0020F81A0020B0
:10283000D81A0020D01A0020681800206C0100204F
:10284000A41900204E4B4F491B784F4870B5002B00
:102850003FD005F057FB40B16FF001024B4B4A48A7
:102860001978BDE8704005F01CBB4949464805F0A1
:1028700049FB28B146494448BDE8704005F06CBBAF
:102880004449414805F03EFB70B1434D434B2C8811
:102890001B68A34209DD04F00103414A3A48D15CB8
:1028A000013405F015FB2C8070BD374805F00BFB9B
:1028B00035484FF4847105F01AFB33484FF48571A5
:1028C00005F015FBBDE870402F4840F2091105F0F6
:1028D0000EBB05F017FB044608B10122BEE72C49E8
:1028E00029482E4E05F00EFB054638B13368012B02
:1028F000C0D12548214605F0C8FABBE7294922483E
:10290000346805F0FFFA0028CED0022C1ED11E48F4
:10291000294605F0BAFA204D1B48013C34602C884A
:1029200005F0D8FA0923B4FBF3F303EBC303E31A6E
:102930001D4A1C499BB2082CD05404BF1B4B0122DA
:1029400004F1010408BF1A702C8094E7012CE2D135
:102950000D4805F0B8FA29460B4805F09CFA0A48DC
:102960004FF4847105F0C3FA07484FF4857105F000
:10297000BEFA054840F2091105F0B9FACBE700BFED
:102980007D18002009010005005400407C1800203B
:1029900009010105090107057818002074180020B5
:1029A0007A18002009010605681800206418002024
:1029B00010B50F4C0F49204605F0CEFA20460E49BF
:1029C00005F0CAFA20460D4905F0C6FA20460C4922
:1029D00005F0C2FA20460B4905F0BEFA20460A4926
:1029E00005F0BAFA20460949BDE8104005F0B4BA2E
:1029F0000054004008010A0508010F0508010E05F2
:102A000008010B05080109050801080508010C0566
:102A100010B540F2115005F001FB4FF400430322C2
:102A200001214FF0904005F031F9BDE810404FF41E
:102A30000043002201214FF0904005F005B900004D
:102A40001FB540F2116005F0E9FA104805F0D0FB1F
:102A50000F4B104A1B68B3FBF2F3013B0022B3F5A6
:102A6000803F28BF1346ADF8003069460923074868
:102A7000ADF80220019202938DF80C2005F00CFCB9
:102A8000024805F099FC05B05DF804FB00440140E4
:102A90007801002040420F004FF400414FF0904079
:102AA00005F02BB930B5421EC31D002012F8014FAE
:102AB000082145086040C0074CBF85F08C002846BF
:102AC00001394FEA5404F4D19A42EFD130BD0000ED
:102AD00008B500221146152005F052FABDE808405D
:102AE0000148012105F06FBC004401402DE9F0418F
:102AF000A648012105F070FCB8B1A448012105F0F9
:102B000074FCA34B1B78022B4AD1A24D2B78022BCD
:102B100019D1A14A137853B94FF400414FF09040B6
:102B200005F0EDF89C4B01221A70BDE8F081302BC6
:102B300040F0CA804FF400414FF0904005F0DDF8BE
:102B4000944B0322F0E7032B13D1934A1378372BCE
:102B500040F0BA804FF400414FF0904005F0D1F8BA
:102B60008C4B08B90422DFE78C4A012111700E2238
:102B7000DAE7042BD9D1884C2378612B7BD14FF431
:102B800000414FF0904005F0BCF820B100232370C5
:102B900005232B70C9E7814B02221A707D4BE6E7B3
:102BA000002B32D17B4B1B78002BBED17A4D7C4F52
:102BB0002C783B78CCB97B4E3478072C12D84FF464
:102BC00000414FF0904005F09AF8774B1B78234175
:102BD00013F0010F0CBF0723012301343B70347045
:102BE0000123D6E76B4B05229EE79C4208D14FF4A8
:102BF00000414FF0904005F080F801342C7094E7CC
:102C0000082CFAD1644B00228EE7012B35D1614AA2
:102C10001378012B89D1604C2378002B3FF47CAFD3
:102C2000012B08D14FF400414FF0904005F065F8BA
:102C3000594B022278E7022B14D14FF400414FF098
:102C4000904005F05EF8574A574913780D780038E0
:102C500018BF0120984028430133137008700323E4
:102C6000237062E7082B06D14E4B1B78082BC9D185
:102C70000C231370C6E70133F2E7032B7FF455AF43
:102C8000444C2378022B3FF444AF0B2B3FF64DAF5F
:102C900001A252F823F000BFF12C00082B2B0008F2
:102CA0002B2B00084B2B0008CF2C00082B2B0008E7
:102CB0002B2B0008512D0008B12D0008E72D00082E
:102CC0006F2E0008A32E0008013313702DE7324D3C
:102CD0002B78612B40F0E3804FF400414FF090409F
:102CE00005F00FF800283FF456AF00232B70B7E72C
:102CF000294EDFF8AC80357898F80030D5B9294FE7
:102D00003D78072D14D84FF400414FF0904004F067
:102D1000F6FF254B1B782B4113F0010F0CBF072347
:102D2000012388F80030013501233D703370FCE643
:102D3000072395E79D4208D14FF400414FF09040A2
:102D400004F0DBFF01353570EFE6082DFAD159E7C5
:102D5000114D2B78002B3FF4DFAE012B3FF462AF17
:102D6000022B0CD14FF400414FF0904004F0C9FF0A
:102D70000E4B003818BF01201870032309E7082BF9
:102D800040F08D8000222A706AE700BF00440140B5
:102D9000571600204C01002054160020EC1500208E
:102DA000021600200116002003160020F415002052
:102DB000534D2B78002B3FF4AFAE012B3FF432AFD5
:102DC000022B0AD14FF400414FF0904004F099FFDC
:102DD00000384C4B18BF0120CEE7082B5FD10023F1
:102DE0002B7009233CE7484B1878464B1D78C0B13F
:102DF000002D7FF4F7AE454B454A1978454B1B78BB
:102E000003F00703D25C444D287043480078002843
:102E100029D00A4301213E48C254404B19700A236D
:102E20001EE73A4B3A4A19783A4B1B7803F00703EE
:102E3000D25C002DE7D13A483A4D00782D78A8426F
:102E40000DD2114214BF01250025334E3570002DDF
:102E5000DBD1354D08282870D7D8344DD4E70CBFC6
:102E600001250025F1E722EA01020721D3E7244DDD
:102E70002B78002B3FF450AE284A16789E4208D19A
:102E80004FF400414FF09040013604F036FF2E70B1
:102E90004BE6082B03D100232B700B23E0E6013314
:102EA00077E61A481E4E027833781A4901335200E9
:102EB000DBB2D2B20D78337002701AB96A1C0A7094
:102EC000012202700A78082A7FF432AF402B184B97
:102ED00009D9154A134912780A7012B9154A012105
:102EE000117001221A700A4A1B78127803B122B9B4
:102EF000114B03221A700E23B2E60D23B0E600BF79
:102F000054160020F3150020F4150020EF150020C2
:102F1000F8150020F0150020ED1500200216002005
:102F2000F2150020F7150020F1150020F5150020FE
:102F3000EE150020F6150020EC15002030B5421EDD
:102F400000F10803002012F8014F082145086040F5
:102F5000C0074CBF85F08C00284601394FEA540465
:102F6000F4D19A42EFD130BD2DE9F04FAB4D2B7823
:102F7000052B85B04CD1AA4A1368002B41D0A94932
:102F8000013B13600A881820B2FBF0F300FB132307
:102F90009BB2A54803EB4303C418C35CA6786078D2
:102FA000A24C2370A24C2070A24C26702BB9A24CCC
:102FB0002070A24803702B701CE0012B05D19E4CA1
:102FC000002020709D4C2070F5E7032B10D19C4809
:102FD0000023036043609B4803709B4803709B4839
:102FE00003709B480370944BF02018700623E2E7AF
:102FF000022BE0D001320A80964A13680133136035
:103000001AE09548012105B0BDE8F04F05F0DFB9A1
:10301000063B092B10D8DFE813F00A000F000F0061
:103020000F000F000F002100F1011802ED02884B84
:103030001B7823B105232B7005B0BDE8F08F8749BD
:1030400001220A7086490B7086490B7086490A7006
:10305000864A1370794A13700223ECE7744B764961
:103060001C78744B824E1A7809784FF00908B2FB2D
:10307000F8F303EBC303D31ADBB2082AF154D9D116
:103080003046FFF75BFF04F03F027A497A4C002894
:1030900040F00C81794854F83230036004EBC207E9
:1030A00091F800B07B6843603388754F03EB83036E
:1030B00003EB83031BB2002B1A46B8BFDA1C58423D
:1030C00000F0030003F0030358BF43429210002BAB
:1030D000BCBF02F1FF3212B27A72BBF1FF0FC2F332
:1030E0000722BA72A6D0674A1368002BA2D0013B10
:1030F0001360654BDFF8A8A1B3F80080634BBAF802
:1031000000601B88ADF80C304FF4967403A8502172
:10311000FDF7E4F8B6FBF4F204FB1262DFF88491E9
:1031200092B2502109F802105946FDF7D7F8721CE7
:1031300092B2B2FBF4F104FB112292B209F802B090
:10314000DFF864B19BF800100091FDF7C7F8B21CDE
:1031500092B2B2FBF4FC04FB1C22009992B209F873
:10316000021001318BF800100B21FDF7B7F8F21CAB
:1031700092B2B2FBF4F104FB112292B20B2109F8D6
:10318000021006F1040B3A4606F10F071FFA8BFBFB
:10319000BFB212F8011B03A8CDE90012FDF79EF89B
:1031A000BBFBF4F004FB10B00BF1010B80B21FFA73
:1031B0008BFB009909F800105F45019AE9D1B7FB34
:1031C000F4F204FB1277BFB29DF80C2009F8072037
:1031D00006F1100292B2B2FBF4F104FB112292B29A
:1031E0009DF80D1009F8021006F11103284AAAF8FB
:1031F000003008F01F03112122F81360254AD15432
:10320000254A1021D154204B08F10108A3F8008071
:10321000224A1368013313600CE700BF4C01002001
:1032200004160020081600200C1600205716002057
:103230005616002055160020031600200116002007
:10324000F815002000160020F7150020F5150020C5
:10325000F61500204801002000440140F21500202E
:10326000F1150020F0150020EF150020EE150020CC
:103270005B1800206A010020581600205901002028
:10328000580100206C010020D61A0020408E000852
:10329000181B0020F81A0020D81A0020D01A00208D
:1032A000A2190020A41900207F180020BE4B91F81D
:1032B000009004EBC20054F832201A6042685A6051
:1032C000B9F1FF0F3FF4B6AEB8490A68002A3FF4DF
:1032D000B1AE013ADFF80CB30A60B54ABBF8006042
:1032E000B44B12881F88ADF80C204FF4967403A8D5
:1032F0005021FCF7F3FFB6FBF4F104FB1161DFF89A
:10330000E8A289B24FF0500C0AF801C04946FCF718
:10331000E5FF711C89B2B1FBF4FC04FB1C1189B2FE
:103320000AF80190DFF8C89299F800100091FCF7B4
:10333000D5FF06F1020C1FFA8CFCBCFBF4FE04FB6B
:103340001ECC00991FFA8CFC0AF80C10013189F888
:1033500000104146FCF7C2FFF11C89B2B1FBF4F04A
:1033600004FB101189B2904B0AF8018006F10409A0
:1033700006F10D08013B1FFA89F91FFA88F813F8C6
:10338000011B03A8CDE90013FCF7A8FFB9FBF4F07B
:1033900004FB109009F1010980B21FFA89F9009924
:1033A0000AF80010C845019BE9D1B8FBF4F304FB0F
:1033B00013881FFA88F89DF80C300AF8083006F1D7
:1033C0000E039BB2B3FBF4F104FB11339BB29DF8E7
:1033D0000D100AF8031006F10F03774AABF800301E
:1033E00007F01F030F2122F81360744AD154744A66
:1033F0001021D1546F4B01371F8009E7714E724F76
:1034000030463C78FFF74EFBD0B93378282B0ED1ED
:103410006E496F480B78326803F03F0C00EBCC0E1E
:1034200040F83C2001337268CEF804200B70694BE1
:103430001B78A3423FF4FEAD01343C700623FAE54D
:10344000654B03221A700E23F5E5644A624B92F82D
:1034500000A093F80080624BBAF1FF0F83F801805F
:1034600000F0988051490A68002A00F09380013AE0
:103470000A605C4A4E4916880988DFF838B1ADF811
:103480000C104FF4967403A85021BBF80090564FCF
:10349000FCF724FFB6FBF4F104FB116189B24FF095
:1034A000500C07F801C05146FCF718FF711C89B297
:1034B000B1FBF4FC04FB1C1189B207F801A0DFF892
:1034C00030A19AF800100091FCF708FF06F1020CF9
:1034D0001FFA8CFCBCFBF4FE04FB1ECC00991FFA07
:1034E0008CFC07F80C1001318AF800100221FCF75F
:1034F000F5FEF11C3A4B89B2B1FBF4FC04FB1C1144
:1035000093F800A089B24FF0020C07F801C05146B1
:10351000FCF7E4FE331D9BB2B3FBF4F104FB113363
:103520009BB2414607F803A0FCF7D8FE731D9BB27F
:10353000B3FBF4F104FB11339BB22A4A07F8038072
:10354000B31D9BB2B3FBF4F104FB11339BB29DF8A6
:103550000C10F954F31D9BB2B3FBF4F104FB1133CF
:103560009BB29DF80D10F95406F10803138009F081
:103570001F03114A22F81360104A0821D154104A3F
:103580001021D154194A136809F101090133ABF82C
:103590000090136008F1FF38B8F1010F9EBF0B4B8C
:1035A00000221A700F2346E5500100206C01002014
:1035B000408E0008D61A0020181B0020F81A0020A0
:1035C000D81A0020F8150020001600205A180020F4
:1035D0005816002056160020EC1500206A01002025
:1035E0004D010020A2190020A4190020D01A0020AB
:1035F0007F1800200E4A1368002B3FF402AD0D49DE
:10360000013B13600A881820B2FBF0F300FB132380
:103610009BB2094803EB4303C35C981E01283FF6A5
:10362000E9AC0648032B03703FF4D1AC0223C2E49B
:1036300004160020081600200C1600205716002043
:10364000124B134A002170B519701368E3B1114D84
:1036500011482C88013B13601822B4FBF2F302FBE3
:1036600013439BB203EB4303C2180326C654917065
:10367000FF230A485370012104F0A5FE084A13688D
:10368000013401332C80136070BD00BF5A18002034
:10369000480100200A1600200C16002000440140BA
:1036A0000416002070B5344B1B78002B63D0334CCC
:1036B0002368E3B1324E334935881822013B236039
:1036C000B5FBF2F302FB13539BB203EB4303CA189F
:1036D0000220C85400232C4853700121937004F039
:1036E00072FE2A4A1368013501333580136023685E
:1036F000E3B1234E234835881822013B2360B5FBF4
:10370000F2F302FB13539BB203EB4303C2180021F5
:10371000C1549170CC231C485370012104F053FE16
:103720001A4A136801350133358013602368E3B109
:10373000134D1448013B23602C881822B4FBF2F38C
:1037400002FB13439BB203EB4303C2180021C15495
:10375000917044230C485370012104F034FE0B4A4D
:103760001368013401332C801360094B00221A7056
:10377000084B01221A7070BD5A1800204801002021
:103780000A1600200C1600200044014004160020F8
:1037900059180020581800202DE9F74FDFF8C4A170
:1037A0009AF80030002B00F0CB80674B674C1B78F9
:1037B000DFF8B4B1009323689BF80050E3B1644F85
:1037C00064493E881822013B2360B6FBF2F302FBFA
:1037D00013639BB203EB4303CA180220C8540023AF
:1037E0005D4853700121937004F0EDFD5B4A13684E
:1037F000013601333E8013602368E3B1544F5548CE
:103800003E881822013B2360B6FBF2F302FB1363F0
:103810009BB203EB4303C2180021C154917055239E
:103820004D485370012104F0CEFD4C4A1368013617
:1038300001333E8013604A4A454B05F03F0802EBD6
:10384000C809444A0027216809B31E8819F807E00F
:10385000182001392160B6FBF0F100FB116189B23B
:1038600001EB410150184FF0000C02F801C080F844
:1038700001E080F802C00121374804F0A4FD374878
:10388000334B0168334A013601311E800160013734
:10389000082FD8D12368E3B12D4F2E483E88182237
:1038A000013B2360B6FBF2F302FB13639BB203EB15
:1038B0004303C2180021C1549170BE23264853709F
:1038C000012104F080FD254A1368013601333E8052
:1038D00013605FFA88F3DFF87890DFF878801E488D
:1038E0000027226802B3B9F8006001931821013A59
:1038F0002260B6FBF1F201FB126292B202EB4202CD
:1039000008EB020C012108F802108CF801308CF849
:10391000027004F058FD1149019B0A680E480136F7
:103920000132A9F800600A600137092FD9D1009B44
:10393000AB428BBF013500238BF800508AF8003072
:1039400003B0BDE8F08F00BF5A18002048010020E6
:103950000A1600200C160020004401400416002026
:1039600058160020581800205918002010B540F2B1
:10397000115004F053FB2023032200214FF090400C
:1039800004F084F9BDE810402023012200214FF00B
:10399000904004F059B910B540F2115004F03EFBCC
:1039A0004023032200214FF0904004F06FF9BDE85E
:1039B00010404023012200214FF0904004F044B910
:1039C00010B5094C40F2125004F028FB20460123A8
:1039D0000322002104F05AF9012320461A46BDE8CB
:1039E0001040002104F030B90004004810B5094C23
:1039F00040F2125004F012FB204602230322002161
:103A000004F044F920460223BDE8104001220021C1
:103A100004F01AB900040048F8B5264C264D277862
:103A20002E6820214FF0904004F06BF9B0FA80F03E
:103A3000400987421CBF002320704FF040014FF027
:103A4000904018BF2372277B18BF66602E6804F071
:103A500058F9B0FA80F0400987421CBF0023207358
:103A60004FF0010115481CBF23752661277E2E6883
:103A700004F047F9B0FA80F0400987421CBF0023E8
:103A800020764FF002010D481CBFE66184F820301B
:103A90002D6894F8246004F034F9B0FA80F04009FD
:103AA00086421FBF002384F82400A56284F82C30CE
:103AB000F8BD00BFBC150020F01E00200004004827
:103AC0002DE9F04F5C4B85B01B78009303F0030B9E
:103AD0000C215A4B01FB0BF15818007A002840F0DA
:103AE000A380574F595CB97056490E780120387041
:103AF000FF2E5844787000F09280534801680029E6
:103B000000F08D80514BDFF86481B3F800A0504B7A
:103B1000013901604F491D880988ADF80C104FF438
:103B2000967403A85021FCF7D9FBB5FBF4F104FB14
:103B3000115189B24FF0500C08F801C03146FCF722
:103B4000CDFB691C89B2B1FBF4FC04FB1C1189B2EA
:103B500008F80160404E96F800904946FCF7BEFB1D
:103B6000A91C89B2B1FBF4FC04FB1C1189B208F852
:103B7000019009F10109032186F80090FCF7AEFBE2
:103B8000E91C89B2B1FBF4F004FB101189B20320E7
:103B9000B946EE1D2F1D08F80100BFB2B6B219F8E4
:103BA000011B019103A8FCF799FBB7FBF4F004FBA0
:103BB0001070013780B2BFB2019908F80010BE4200
:103BC0001E4BECD1B6FBF4F104FB1166B6B29DF8C6
:103BD0000C1008F8061005F1080189B2B1FBF4F0E9
:103BE00004FB101189B29DF80D00194A08F8010074
:103BF00005F1090111801948144A0AF01F0109242E
:103C000020F81150164844541648102444541648BD
:103C100001680AF1010A0131A2F800A001600C213B
:103C200001FB0B3301221A72009B034A013313700C
:103C300005B0BDE8F08F00BFB6150020BC15002010
:103C4000B71500206A0100206C010020D61A002060
:103C5000A2190020408E00087F180020181B0020A9
:103C6000F81A0020D81A0020D01A0020A419002029
:103C700010B50C4C40F2125004F0D0F9204640230D
:103C80000322002104F002F82046002202214023F2
:103C900003F0DAFF20464022BDE81040002104F086
:103CA00036B800BF0004004810B50C4C40F212506A
:103CB00004F0B4F9204680230322002103F0E6FF3C
:103CC000204600220221802303F0BEFF20468022EE
:103CD000BDE81040002104F01AB800BF00040048FD
:103CE00008B500221B20114604F04AF9BDE808403F
:103CF00040F20E6004F092B910B5094C40F2125037
:103D000004F08CF9204610230322002103F0BEFFAB
:103D100020461023BDE810400222002103F094BF8A
:103D200000040048F8B54149414804F083FD0028EB
:103D300055D03E493E4804F093FD40F201713C48A5
:103D400004F053FD40F202710646394804F04DFD7F
:103D500040F203710746364804F047FD4FF4E06136
:103D60000546334804F041FD3E43044640F20171EC
:103D70002F4804F042FD35432D4840F2027104F013
:103D80003CFD2C432A4840F2037104F036FDE4B2B6
:103D900027484FF4E06104F030FD04BB244804F0F0
:103DA00020FD244B1A68244B1A60244A1368B3B1CF
:103DB0002349013B13600B884FF49674B3FBF4F274
:103DC00004FB123292B21F4CB0F5807F28BF002056
:103DD000A0541D4A01330B801368013313601B4943
:103DE000134804F027FDC0B118491148184D04F0DC
:103DF00037FD184B2C881B88A3420FD94FF49672BD
:103E0000B4FBF2F302FB13439BB2134A084832F8A7
:103E10001310013404F0E1FC2C80F8BD04480721A4
:103E200004F0FDFC0D4B00221A70F6E705000507B3
:103E300000380140F01E00207C10002044010020CA
:103E40002A1200202C12002024120020070007074D
:103E50005C1300205A1300205E1300208010002005
:103E60001C4B10B51A46F02102F8011B1A491B4CD5
:103E700008688988C3F801009180194A1278DA71BC
:103E8000184A20461178527819725A7204F026FCAA
:103E90002046042104F099FC2046082104F08DFC02
:103EA0002046052104F0B1FC20464FF4E13104F036
:103EB00031FC2046002104F063FC2046002104F080
:103EC0006BFC2046002104F04FFC2046BDE810406A
:103ED00004F06EBC81100020E81E00200038014074
:103EE00077010020750100202DE9F04F8B4A1368FF
:103EF00087B063B3013B1360894B8A49B3F80080F4
:103F00004FF49672B8FBF2F302FB13839BB2864A1E
:103F1000D45C0B78F3B9A52C10D101220A70834927
:103F200083480A7083490B7083490B70834B214689
:103F30001A70FF2303704370FCF7D0F9784B804A66
:103F400008F10108A3F8008013680133136007B07B
:103F5000BDE8F08F012BF1D1744E3378012B0BD1DA
:103F6000754B73481C702146FCF7B8F914B903234C
:103F70003370E3E70223FBE7022B15D16D4971484B
:103F80000B78FF22B3FBF2F21A4402F0FF02013376
:103F9000DDB284540D7066482146FCF79FF9664BEC
:103FA0001B78AB42CAD1E2E7032B08D1604B1B78E8
:103FB000A3421EBF614B00221A700423D8E7042BD2
:103FC000BCD15E4B1B78002B00F0A380584B5B7874
:103FD000A34240F09E80584B1C785A4B1B78FA2B1A
:103FE00040F0C880022C40F09480574B93F800A01A
:103FF000BAF1FF0F00F08D80544A1368002B00F0D7
:104000008880013B1360524B524A1E88DFF85CB136
:104010001288BBF80090ADF814204FF4967505A8EF
:104020005021FCF75BF9B6FBF5F205FB12624A4F33
:1040300092B25021B9545146FCF750F9721C92B219
:10404000B2FBF5F105FB112292B207F802A0DFF8EE
:1040500020A19AF800100091FCF740F9B21C92B22E
:10406000B2FBF5FC05FB1C22009992B2B954013158
:104070008AF800102146FCF731F9F21C92B2B2FB2B
:10408000F5F105FB112292B2FA21BC54FCF726F996
:10409000321D92B2B2FBF5F105FB112292B2FA2168
:1040A000B954284A54782146FCF718F9721D92B287
:1040B000B2FBF5F105FB112292B2254BBC54B21DA7
:1040C00092B2B2FBF5F105FB112292B29DF81410E9
:1040D000B954F21D92B2B2FBF5F105FB112292B276
:1040E0009DF81510B95406F108021A8009F01F0353
:1040F0001A4A22F813601A4A0821D154194A102189
:1041000009F10109D154ABF80090174A1368013343
:104110001360044B00221A7010E700BF2412002025
:10412000281200207B1000202C1200203F010020CC
:104130003D0100207A100020791000203C01002071
:10414000440100207A0F00206A0100206C01002049
:10415000A2190020408E0008A4190020181B00207E
:10416000F81A0020D81A0020D01A0020D61A0020F1
:104170007F180020564B93F800B0BBF1FF0FC8D05A
:10418000544A1368002BC4D0013B1360524BDFF834
:1041900064A1B3F80090514BBAF800601B88ADF8E9
:1041A00014304FF4967505A85021FCF797F8B6FB2C
:1041B000F5F305FB13634A4F9BB250225946FA545C
:1041C000FCF78CF8731C9BB2B3FBF5F205FB1233C2
:1041D0009BB207F803B0DFF820B19BF80010009104
:1041E000FCF77CF8B31C9BB2B3FBF5F205FB123372
:1041F00000999BB2F95401318BF8001004F1010BC6
:104200005FFA8BFB5946FCF769F8F31C9BB2B3FBD2
:10421000F5F205FB12339BB2302107F803B0FCF72F
:104220005DF8331D9BB2B3FBF5F205FB12339BB275
:104230003022FA54FF23B4FBF3F31C4404F0FF04D0
:10424000631E284A0093002303F1050B56FA8BFBEB
:104250001FFA8BFBBBFBF5F105FB11BB00998B42F1
:104260001FFA8BFB24DD9DF8143007F80B30A31DDB
:1042700056FA83F39BB2B3FBF5F205FB12339BB204
:104280009DF81520FA54073456FA84F3164AAAF812
:10429000003009F01F03102122F81360134AD45490
:1042A000134AD1540C4B09F10109A3F800902CE7F3
:1042B00012F8011B039305A8CDE90112FCF70EF8D3
:1042C000039B019907F80B10029A0133BCE700BF6A
:1042D0006A0100206C010020D61A0020408E0008E0
:1042E000A41900207A0F0020181B0020F81A0020C3
:1042F000D81A0020A21900207F1800202DE9F047CD
:104300001E4E33785BBB1E490A6842B31D4DDFF871
:1043100090802C88DFF88C90013A0A6004F01F022C
:10432000194931F812E01949885C194900F1FF3C3C
:104330000B801A464FF49677944512DA03B1088041
:10434000144B1548002207211A8004F05EFA134A24
:1043500001231C44337013682C8001331360BDE8C3
:10436000F0870EEB0203B3FBF7FA07FB1A3319F8D9
:10437000033028F8123001320123DDE780100020DD
:10438000BC110020C0110020E4110020C411002045
:104390005A1300205C130020003801404001002027
:1043A0005E1300208E1000200B4B0C4A1968136816
:1043B000CB1A012B10B50DD90948116000230380D9
:1043C0000848038008484FF4967404600748036067
:1043D0000748037010BD00BFF01E00207C100020B5
:1043E000281200202A12002044010020241200205C
:1043F0007B1000202DE9F04F5348DFF874A185B001
:10440000102103F07EFC9AF80030071E18BF012728
:10441000BB4200F095804D4B93F80090B9F1FF0F2F
:1044200000F08C804A4A1368002B00F08780013B23
:104430001360484A484B1588DFF838B11B88BBF831
:104440000080ADF80C304FF4967403A85021FBF7B0
:1044500045FFB5FBF4F304FB1353404E9BB25021D0
:10446000F1544946FBF73AFF6B1C9BB2B3FBF4F1E6
:1044700004FB11339BB206F80390DFF8FC9099F827
:1044800000100191FBF72AFFAB1C9BB2B3FBF4FCBD
:1044900004FB1C3301999BB2F154013189F80010DF
:1044A0000221FBF71BFFEB1C9BB2B3FBF4F104FBF7
:1044B00011339BB20221F1543121FBF70FFF2B1D69
:1044C0009BB2B3FBF4F104FB11339BB23121F154E5
:1044D0003946FBF703FF6B1D9BB2B3FBF4F104FB02
:1044E00011339BB21B4AF754AB1D9BB2B3FBF4F1E3
:1044F00004FB11339BB29DF80C10F154EB1D9BB2E1
:10450000B3FBF4F104FB11339BB29DF80D10F15491
:1045100005F10803138008F01F03114A22F8135015
:10452000104A0821D154104A1021D1540F4A13685F
:1045300008F101080133ABF8008013608AF80070BD
:1045400005B0BDE8F08F00BF000400486A010020FC
:104550006C010020A2190020408E0008A419002040
:10456000181B0020F81A0020D81A0020D01A0020AA
:1045700058130020D61A00207F1800201FB50C4CBD
:1045800040F2017003F04AFD204603F031FE0023A3
:10459000642269462046CDE9003302928DF80C3042
:1045A00003F07AFE204603F007FF04B010BD00BF01
:1045B0000004004008B540F2115003F02FFD8023A5
:1045C000032200214FF0904003F060FB8023002283
:1045D00002214FF0904003F037FBBDE808408022F5
:1045E00001214FF0904003F092BB000030B54FF432
:1045F000A06085B003F012FD1B4B1C4A1A601C4BD7
:104600001C4C0FCB6D4685E80F002A462046012141
:1046100003F0FCFE20460022012104F02BF8204686
:104620006022012104F000F808222046012104F054
:104630002FF82046012103F0DFFE4FF48071204661
:1046400003F0D6FE204603F0B7FE012211460A20F1
:1046500003F096FC022003F0F3F90221084603F070
:1046600051FA05B030BD00BF1C01002038040040E5
:10467000448E000800040040F7B5474B474C1B88A8
:10468000ADF80430464B474DD3F8007CD3F8046CAA
:104690002168B1F5807F28BF002101A8C9B2FBF7CE
:1046A0001DFE6168B1F5807F28BF0021C9B2FBF70C
:1046B00015FEA168B1F5807F28BF0021C9B20C3476
:1046C000FBF70CFEAC42E3D1374D2168B1F5807F9A
:1046D00028BF0021C9B201A8FBF700FE6168B1F54F
:1046E000807F28BF0021C9B20834FBF7F7FDAC4238
:1046F000EBD19DF80430BB4240D19DF80530B34268
:104700003CD12A4B254A2A481E461168B1F5807FC4
:1047100028BF0021197051680139FE2902F10802F1
:104720008CBF002101218242597003F10203ECD1B8
:104730002049002064271368B3F5807F28BF002339
:104740000B705368B3F5807F28BF00234B709368CC
:10475000B3F5807F28BF0023DBB20B71B3FBF7F406
:1047600007FB1433DBB20024013BA4469C454C807C
:1047700006DD0C32AA4201F11001DCD103B0F0BD1C
:1047800016F810E001307444A4B2B0FBF7FE0CF14F
:10479000010C07FB1E00E9E7408E000808BC00087A
:1047A00000B0000880BC0008A0BF0008A40E0020D4
:1047B00028BF00087C0000202DE9F04F2DED108B64
:1047C00097B0AA4BDFF8B4920593A94B0893A94C74
:1047D000DFEDA9DA002309F1010B029309939A4650
:1047E000059B5B780B93059B5B8809EE103A059B54
:1047F000D3ED029A1B7B0F93089B93ED00BAD3ED88
:1048000001BA1B7A109399F82030119394F8203054
:104810001293059B1B796422B3FBF2F102FB113367
:10482000DBB2013B954A139300230AEE103A06933C
:104830000393282303FB0A2307931AEE102A139BE2
:104840009A4238DD0F9B069A934205D0059A0123C0
:1048500053731346069A1A7399F82130002B01F00E
:10486000DF81D9ED047AD9ED066A99F8223099ED05
:10487000057A77EEA67AF5EEC07AF1EE10FAC1F27B
:10488000C481002B01F0B781B4EEE77A0123F1EE89
:1048900010FA89F8233001F2B3810023C9F81030EF
:1048A0004FF07E53C9F81430012389F8233089F87A
:1048B000243001F0B5B9724B099A13F81220019215
:1048C000099ADDED017A03EB4203039A5B781493B6
:1048D000019BB8EE67DA13440E932BEE0DCA012349
:1048E0006BEE8DCA0A93F7EE008A0A9B03F1FF383C
:1048F000019B98450FDB099A64230132B2FBF3F167
:1049000003FB112309931AEE103A01330AEE103A11
:104910000E9B039391E7149B1BB1019B0A9AA3EB97
:10492000020807EE908AF5EEC09AF1EE10FAF8EE62
:10493000E7AA62DDB4EEEACAF1EE10FA5BD8F4EE53
:10494000EACAF1EE10FACCBF01230023109A934279
:1049500053D0129A257894F82130002A63D19FED24
:1049600049EA102D28BFB0EE68EA002B00F02C8138
:1049700094F8233094ED048A2BB1B0EE480A04F089
:1049800015FA38EE408AB5EEC08AF1EE10FA69D415
:10499000B4EEE88AF1EE10FA00F3168194F82530AF
:1049A000252D00F26781DFE815F013021F032203B3
:1049B0009D03D00365016501650165016501650120
:1049C00065016501650165016501650138061F0422
:1049D0009104DB04650165016501650165016501FF
:1049E0006501650165016501650129054B056C05DA
:1049F000C305E60512060023A8E70B9B4FF4FF62F0
:104A0000581E0023834200F3F180029D1E494FF09F
:104A100000064E5529460131B1FBF2F502FB151196
:104A200002910133EEE79FED17EA102D28BFB0EE9B
:104A300068EA002B00F0C88094ED077A94ED048AB0
:104A400094F82330F8EECA7AA7EEC78A2BB1B0EEFD
:104A5000480A04F0ABF938EE408AB5EEC08AF1EEB0
:104A600010FA13D538EECEEAAEE000BF7C0000208D
:104A700004000020840B002000007F43140D002060
:104A8000A40E0020000000008B030020B4EEE88A92
:104A9000F1EE10FA00F3988094F82520252D00F20D
:104AA000E980DFE815F09501A1022600B600EC00D0
:104AB000E700E700E700E700E700E700E700E700BE
:104AC000E700E700E700E700BA053601BF01F101A2
:104AD000E700E700E700E700E700E700E700E7009E
:104AE000E700E700E700AB04CD04EE043B025B0205
:104AF0008002602398FBF3F203FB128294F82430C7
:104B0000002B00F08380002ABA4B4FF00C0171DBC0
:104B100092FBF1F0282101FB0A31014400234B7084
:104B20000C23B2FBF3F2B34B282101FB0A331344ED
:104B300008F007015D78D8F1000303F0070358BFC0
:104B400059420029B8BF083145FA01F3DF0700F1E7
:104B50003F81DFF8B8E2A84F9EF80030DFF8B0C21E
:104B600004933B789CF800000C93A44E8EF8000050
:104B70000C988CF80000049833783B7080EA0010A1
:104B8000C0B283EA5303434083EA4003DBB207EE3B
:104B9000903A94ED067ADFED9A6A3370F8EE677A10
:104BA00037EE087A67EEA67AF4EEC77AF1EE10FADD
:104BB00060D5904B282000FB0A33134401228A4021
:104BC0002A435A709FED8FEA0B9BB8EECA8A013BCD
:104BD0001593002508232E460493B1EE488A049BC2
:104BE000A3F10807159B9F4240F31B850A9B0133E5
:104BF0000A937AE602F16000B0FBF1F1282000FB95
:104C00000A330B4400215970603289E7002A87DAA1
:104C1000FAE7DFED827AC2B138EEC88A28EE0D8A53
:104C2000B4EEE78AF1EE10FA0DD8DFED7D7AB4EE3E
:104C3000E78AF1EE10FA06DBFDEEC87A17EE903A3D
:104C4000434517DCC4E00023FAE72DEE088AB4EEF2
:104C5000E78AF1EE10FA10D8DFED717AB4EEE78A48
:104C6000F1EE10FA09DBFDEEC87A17EE903A4345F3
:104C700080F2AE80B7EE00EAA6E71346F7E7019BA5
:104C80009FED647A013303F4FF7307EE903AF8EE78
:104C9000677A02B338EEC88A28EE278AB4EEC78A4C
:104CA000F1EE10FA15D8DFED5C7AB4EEE78AF1EE9A
:104CB00010FA0EDBF6EE007A28EE278AFDEEC87AAF
:104CC00017EE903A4345D5DC019AD31A4345D1DD1E
:104CD0007EE00023F6E768EE277AF4EEC77AF1EE7D
:104CE00010FA14D89FED4C7AF4EEC77AF1EE10FA70
:104CF0000DDBB6EE007A67EE877AFDEEE77A17EE07
:104D0000903A434564DA019AD31A013B98E7134677
:104D1000F7E7602398FBF3F203FB128294F8243048
:104D2000002B64D0002A334B4FF00C0153DB92FB75
:104D3000F1F0282101FB0A31014400234B700C23C0
:104D4000B2FBF3F22B4B282101FB0A33134408F08A
:104D500007015D78D8F1000303F0070358BF5942FB
:104D60000029B8BF083145FA01F3DE0782D4DFF825
:104D70009CE0214F9EF80030DFF894C004933B780C
:104D80009CF800000C931D4E8EF800000C988CF8D7
:104D90000000049833783B7080EA0010C0B283EAC8
:104DA0005303434083EA4003DBB207EE903A94EDAD
:104DB000067ADFED136A3370F8EE677A37EE087A19
:104DC00067EEA67AF4EEC77AF1EE10FA3FF5F1AE8F
:104DD0009FED0DEAF8E602F16000B0FBF1F128204A
:104DE00000FB0A330B44002159706032A7E7002A08
:104DF000A5DAFAE7840B00207C03002000000020E5
:104E00008180803B00007F43000000007E03002083
:104E10007D0300200000804F000080CF0000004F85
:104E2000000000CF5FED037AB2B138EEC88A28EEF9
:104E30000D8AB4EEE78AF1EE10FA0BD85FED087A2E
:104E4000B4EEE78AF1EE10FA04DBFDEEC87A17EE55
:104E5000903A3BE7002339E72DEE088AB4EEE78A63
:104E6000F1EE10FA0ED85FED127AB4EEE78AF1EEA9
:104E700010FA07DBFDEEC87A17EE903A4345BFF60D
:104E8000F9AEA5E71346F9E7019B1FED1E7A013342
:104E900003F4FF7307EE903AF8EE677AFAB138EE52
:104EA000C88A28EE278AB4EEC78AF1EE10FA14D821
:104EB0005FED277AB4EEE78AF1EE10FA0DDBF6EE3D
:104EC000007A28EE278AFDEEC87A17EE903A43451D
:104ED0003FF77EAF019AD31AB2E60023F7E768EEF8
:104EE000277AF4EEC77AF1EE10FA15D81FED367A6C
:104EF000F4EEC77AF1EE10FA0EDBB6EE007A67EE4A
:104F0000877AFDEEE77A17EE903A4345BFF6B2AEE8
:104F1000019AD31A013BD9E61346F6E7E37807EE88
:104F2000903A0AB138EEC88A2DEE088A1FED457A0C
:104F3000B4EEC78AF1EE10FA0ED81FED477AB4EE40
:104F4000C78AF1EE10FA07DBBDEEC87A17EE103A09
:104F5000434540F0DE8292E20023F9E7E37807EE72
:104F6000903A0AB138EEC88A2DEE088A1FED577ABA
:104F7000B4EEC78AF1EE10FA34D81FED597AB4EEC8
:104F8000C78AF1EE10FA2DDBB6EE007A28EE078A1A
:104F9000BDEEC87A17EE103A434500F07082019AD0
:104FA000D31A013BD4E7E37807EE903A52B1B6EE5C
:104FB000007AB4EEC78AF1EE10FAD4BF38EE078A51
:104FC00038EE478A2DEE088A1FED6C7AB4EEC78A58
:104FD000F1EE10FA06D81FED6E7AB4EEC78AF1EE44
:104FE00010FAD5DA0023D7E738EEC8EAECE5039BE0
:104FF00003EB0802602392FBF3F103FB112194F809
:105000002430002B6BD00029C94B4FF00C005ADB29
:1050100091FBF0F5282000FB0A3028440023437060
:105020000C23B1FBF3F1C24B282000FB0A330B44E5
:105030005D78534203F0070302F0070258BF5A425B
:10504000002AB8BF083245FA02F3D8073FF5C0AED0
:10505000DFF8F4E2B74F9EF80030DFF8F0C20493B7
:105060003B789CF800000C93B34E8EF800000C982F
:105070008CF80000049833783B7080EA0010C0B2CE
:1050800083EA5303434083EA4003DBB207EE103A5E
:10509000D4ED067ADFEDA96A3370B8EE477A77EE81
:1050A000887A27EE267AB4EEE77AF1EE10FA7FF5E9
:1050B000E1AD9F4B282000FB0A330B4401219140B6
:1050C000294359707EE501F16005B5FBF0F0282514
:1050D00005FB0A330344002058706031A0E7002923
:1050E0009EDAFAE7039ADFED966AB8EE497A42440F
:1050F000BBB178EEC87A67EE877AF4EEE67AF1EE25
:1051000010FA0CD89FED8F7AF4EEC77AF1EE10FA10
:1051100005DBFDEEE77A17EE903A934291E5002326
:10512000FBE768EE077AF4EEE67AF1EE10FA0AD8B9
:105130009FED847AF4EEC77AF1EE10FAA4BFFDEE8B
:10514000E77A17EE903A934292E519EE102A01326F
:1051500022F0010292B200EE102A039A9FED7C7AAF
:10516000B8EE400A42440BB378EEC87A67EE807A14
:10517000F4EEC77AF1EE10FA16D89FED767AF4EED7
:10518000C77AF1EE10FA0FDBB6EE007A67EE877A97
:10519000FDEEE77A17EE903A93423FF76BAD19EECA
:1051A000101ACB1A934292E50023F5E728EE000A85
:1051B000B4EEC70AF1EE10FA0ED8DFED667AB4EE5F
:1051C000E70AF1EE10FAA1BFF6EE007A20EE270A08
:1051D000FDEEC07A17EE903A9342BFF6F9AD19EEA4
:1051E000101ACB1A013B98E7039B03EB08026023DC
:1051F00092FBF3F103FB112194F82430002B62D0D1
:1052000000294B4B4FF00C0051DB91FBF0F52820AF
:1052100000FB0A302844002343700C23B1FBF3F158
:10522000434B282000FB0A330B445D78534203F0C4
:10523000070302F0070258BF5A42002AB8BF0832DB
:1052400045FA02F3DB073FF515ADDFF8FCE0394F17
:105250009EF80030DFF8F4C004933B789CF800001F
:105260000C93354E8EF800000C988CF800000498D2
:1052700033783B7080EA0010C0B283EA53034340A6
:1052800083EA4003DBB207EE103AD4ED067ADFED95
:105290002B6A3370B8EE477A77EE887A27EE267A53
:1052A000B4EEE77AF1EE10FA7FF592AD01E701F185
:1052B0006005B5FBF0F0282505FB0A330344002008
:1052C00058706031A9E70029A7DAFAE7039ADFED01
:1052D0001C6AB8EE497A4244B3B178EEC87A67EEF8
:1052E000877AF4EEE67AF1EE10FA0BD89FED157A94
:1052F000F4EEC77AF1EE10FA04DBFDEEE77A17EE72
:10530000903A4FE700234DE768EE077AF4EEE67A2D
:10531000F1EE10FA0AD89FED0B7AF4EEC77AF1EEAF
:1053200010FAA4BFFDEEE77A17EE903A9342A6E595
:10533000840B00207C030020000000208180803B43
:105340000000004F000000CF7E0300207D030020FE
:105350000000804F000080CF0000004B000000CB19
:1053600019EE102A013222F0010292B200EE102A48
:10537000039A1FED097AB8EE400A424403B378EE6F
:10538000C87A67EE807AF4EEC77AF1EE10FA15D893
:105390001FED107AF4EEC77AF1EE10FA0EDBB6EEDE
:1053A000007A67EE877AFDEEE77A17EE903A93423D
:1053B0003FF70EAD19EE101ACB1AAEE60023F6E752
:1053C00028EE000AB4EEC70AF1EE10FA0ED85FED2F
:1053D0001F7AB4EEE70AF1EE10FAA1BFF6EE007AFA
:1053E00020EE270AFDEEC07A17EE903A9342BFF600
:1053F00041AC19EE101ACB1A013BD3E65FED2A7AC5
:10540000B4EEE78AF1EE10FA18D85FED2C7AB4EE1C
:10541000E78AF1EE10FA11DBF0EE487AFEEECC7A74
:1054200017EE903A5A42D2B2DBB258BF5342AA4A60
:1054300002EB830292ED00EAFFF7C6BB0023F6E71A
:10544000A64EE378A6493278A648A74D90F800C04A
:10545000277995F800E086F800E007EE903A0B789F
:10546000037082EA0212D2B283EA5303534083EA02
:105470004203DBB29F4285F800C00B7049D9A37884
:1054800048E0E378DFED996A07EE903AB4EEE68AF9
:105490002379F1EE10FA07EE103A47D8DFED946A5F
:1054A000B4EEE68AF1EE10FA40DBF0EE486AFEEE6A
:1054B000CC6A16EE903A5A42D2B2DBB258BF53428F
:1054C000854A864E86498748874D077895F800C0FB
:1054D0002F7002EB830292ED006A32780B78037032
:1054E00082EA0212D2B283EA5303534083EA4203B0
:1054F000DBB206EE903AB8EE477AF8EE666A27EE2F
:10550000067A86F800C0F4EEC76AF1EE10FA0B7066
:10551000B5D4637807EE103AF8EE677AB8EE477ABA
:1055200077EEA87A87EE27EAFFF74EBB0023C7E79E
:10553000E27807EE902A0BB138EEC88AB8EE490A35
:105540009FED6F7A039B20EE080A03EB0802B4EE8E
:10555000C70AF1EE10FA0CD89FED6A7AB4EEC70ACA
:10556000F1EE10FA05DBBDEEC07A17EE103A9A4262
:10557000EFE40023FBE7E27807EE902A0BB138EE68
:10558000C88AB8EE490A9FED5B7A039B20EE080AB1
:1055900003EB0802B4EEC70AF1EE10FA3BD89FED18
:1055A000567AB4EEC70AF1EE10FA34DBB6EE007AA2
:1055B00020EE070ABDEEC07A17EE103A93423FF490
:1055C0005EAF19EE101ACB1A013B9342C1E4E278A8
:1055D00007EE902A53B1B6EE007AB4EEC78AF1EE28
:1055E00010FAD4BF38EE078A38EE478AB8EE490A77
:1055F0009FED437A039B20EE080A03EB0802B4EE0A
:10560000C70AF1EE10FA06D89FED3E7AB4EEC70A4B
:10561000F1EE10FACEDA0023D0E7B0EE48EAFFF759
:10562000D3BA029A354B9B5C119A0FEE103A99F857
:105630002130002A00F02181002B4AD0D9ED077AD1
:1056400099ED040A99F82330A8EE270AF0EE40EA13
:105650001BB103F0ABFB7EEEC0EAF5EEC0EAF1EE63
:1056600010FA36D4F4EEE8EAF1EE10FA31DC99F8EB
:10567000003099F82520112B46D025D8002B00F0BA
:105680008B81102B25D10C23B5FBF3F103FB1151BA
:105690001BF8011007EE101A691CB1FBF3F003FBB5
:1056A0001011A81C1BF8011007EE901AB0FBF3F1C3
:1056B00003FB11011BF801100AB178EEEEEAB8EE17
:1056C000477AAEEEAD7A45E0202B00F00382212B25
:1056D0006BD0F8EE4F7A98E16C8E00087E030020C4
:1056E000000000207C0300207D0300200000004B10
:1056F000000000CB0000804F000080CF8B03002013
:105700000000004F000000CF0C23B5FBF3F103FBBA
:1057100011511BF8011007EE101A691CB1FBF3F0D0
:1057200003FB1011A81C1BF8011007EE901AB0FB28
:10573000F3F103FB11011BF801100AB178EEEEEA58
:10574000C8EE8D6AB0EE6E0AAAEEA60AB8EE477AE7
:10575000A0EE2D7A5FED166AB4EEE67AF1EE10FA5D
:1057600000F2A8815FED196AB4EEE67AF1EE10FA64
:10577000C0F2A081BDEEC77A17EE103A5A42D2B2FB
:10578000DBB258BF534207EE101ACB4AF8EE677AE5
:10579000B8EE477A02EB830237EE677AD2ED006A01
:1057A000E7EE267A69EEA77A2FE1C44ADFF81CE318
:1057B000C34FDFF81CC310789EF800103B780D91A2
:1057C0009CF80010137080EA00100D9A3A70C0B275
:1057D00081EA5102424082EA4002D2B207EE902AA8
:1057E0009FEDB86A0C93B8EE677AD9ED067A8EF819
:1057F0000010F3EE096A27EE067A67EEA67A8CF8B7
:105800000020B4EEE77AF1EE10FA00F2EA810C27FC
:10581000B6FBF7F007FB10608EF800201BF8003095
:10582000701C07EE903AB0FBF7F307FB1300F8EE9D
:10583000677A1BF80030A148A14F06EE903A0D9B05
:1058400003700C9B397083EA0313DBB283EA4303D2
:10585000534083EA5203DBB207EE103AF8EE666A71
:10586000B8EE477A76EEE76A27EE067A8CF80030D3
:10587000E6EE877A67EEA97A94E7002B3FF429AF2A
:1058800099F82330D9ED04EA2BB1B0EE6E0A03F09B
:105890008DFA7EEEC0EAF5EEC0EAF1EE10FA3FF5C1
:1058A00018AFF4EEE8EAF1EE10FA3FF712AF99F80C
:1058B000003099F82520112B00F0CF807FF6DEAE66
:1058C000202B00F00781212B7FF403AF7B4ADFF808
:1058D000FCE17B4FDFF8F8C110789EF800103B78B0
:1058E0000D919CF80010137080EA00100D9A3A7028
:1058F000C0B281EA5102424082EA4002D2B207EECF
:10590000902A9FED706A0C93B8EE677AD9ED067A0B
:105910008EF80010F3EE096A27EE067A67EEA67A93
:105920008CF80020B4EEE77AF1EE10FA00F259811B
:105930000C27B6FBF7F007FB10608EF800201BF871
:105940000030701C07EE903AB0FBF7F307FB130032
:10595000F8EE677A1BF800305848594F06EE903A37
:105960000D9B03700C9B397083EA0313DBB283EA4F
:105970004303534083EA5203DBB207EE103AF8EEDA
:10598000666AB8EE477A76EEE76A27EE067A8CF812
:105990000030E7EE267A6DE70C21B7FBF1F201FB50
:1059A000127207990A44B8EE4F7A527807EE902A9D
:1059B000F8EE677A67EEA97AF4EEED7AF1EE10FA76
:1059C0000AD8F5EEC07AF1EE10FAA2BFFCEEE76A53
:1059D000CDED0C6A9DF830301FEE102A934200F096
:1059E000038199F8223083B9D9ED066A38EEEE0AC0
:1059F000F4EEC06AF1EE10FA07D877EEC77A67EED8
:105A0000A67AC7EE806A76EE877A6EEE277AF4EE93
:105A1000ED7AF1EE10FA00F3EA80F5EEC07AF1EEDD
:105A200010FA40F3E680FCEEE77ACDED067A9DF8B9
:105A30001830012206920299234A53544A1C4FF40B
:105A4000FF63B2FBF3F103FB11230293049B0133C9
:105A5000049302360335FFF7C2B80C23B5FBF3F10C
:105A600003FB11511BF8011007EE101A691CB1FB62
:105A7000F3F003FB1011A81C1BF8011007EE901A9D
:105A8000B0FBF3F103FB11011BF801100AB178EE32
:105A9000EEEA039B434406EE103AF8EE495AB8EE9C
:105AA000C66AB8EE477AC6EE256A76EEAE6AA6EE0C
:105AB000AD7A4FE6002366E66C8E00087E03002078
:105AC0007D0300208180803B8B0300207C0300202D
:105AD0000000002099F82430002B59D00C23B6FB8D
