:020000040800F2
:10000000340200207D280008C9280008C9280008FB
:10001000C9280008C9280008C928000800000000F5
:10002000000000000000000000000000C9280008D7
:10003000C928000800000000C9280008A90100081C
:1000400000000000C9280008C9280008C9280008C5
:10005000C9280008C9280008C9280008C9280008BC
:10006000C9280008C9280008C9280008C9280008AC
:10007000C9280008C9280008C9280008C92800089C
:10008000050F0008C928000800000000C928000862
:10009000C9280008C9280008C9280008C92800087C
:1000A000C9280008C9280008C9280008C92800086C
:1000B000D503000800000000C92800080000000067
:1000C000C928000800000000C9280008C928000845
:1000D000C928000800000000000000000000000027
:1000E0000000000000000000C92800080000000017
:1000F0000000000000000000000000000000000000
:10010000C92800080000000000000000C9280008FD
:1001100000000000000000000000000000000000DF
:1001200000000000000000000000000000000000CF
:1001300000000000000000000000000000000000BF
:10014000000000000000000000000000C9280008B6
:1001500053B94AB9002908BF00281CBF4FF0FF312E
:100160004FF0FF3000F00CB8ADF1080C6DE904CE93
:1001700002F0B8FCDDF804E0DDE9022304B07047CA
:10018000704700BF4FF0E023054A5A61054AF0214D
:1001900082F8231000229A6107221A61704700BF7B
:1001A0001E48010000ED00E0024A136801331360AD
:1001B000704700BF280C0020F8B5144B6FF03A02CE
:1001C000D3F8E017D3F8AC07D3F8B067D3F8B47717
:1001D0004FF6FF73FFF7BCFF384614461D466FF01D
:1001E0003A024FF6FF733146FFF7B2FF084862400C
:1001F0006B400021013100F8012B06294FEA122241
:1002000042EA03624FEA1323F4D1F8BD00F0FF1F66
:10021000200C002008B540F2115002F079F80823B4
:10022000032200214FF0904001F0B3FF0823002289
:1002300002214FF0904001F08AFFBDE808400822FB
:1002400001214FF0904001F0E5BF08B540F2115098
:1002500002F05EF80423032200214FF0904001F0E9
:1002600098FF0423002202214FF0904001F06FFF1D
:10027000BDE80840042201214FF0904001F0CABFC0
:1002800008B500221C20114601F0F4FFBDE808402B
:1002900040F2117002F03CB810B540F2115002F07B
:1002A00037F81023032200214FF0904001F071FF36
:1002B000BDE810401023002201214FF0904001F0D2
:1002C00046BF10214FF0904001F09CBF037810B55D
:1002D0005940044C044B5A5C4378615C42704B407B
:1002E000037010BDBA2E0008BA2D000873B5144C67
:1002F0002246552102F8011B124908688988C4F872
:1003000001009180104A1278E271104A11785278F7
:1003100062720F4A21721288ADF804200025264629
:1003200014F8011B01A80135FFF7D0FF0A2DF7D102
:100330009DF80430B3729DF80530F37202B070BDC1
:10034000E2040020200C00202F0000202D000020BF
:10035000A02D000837B50C4B0C4C1D780C4B65706C
:100360001B88ADF804305F2101A82170FFF7AEFFB4
:100370002946FFF7ABFF9DF80430A3709DF80530C8
:10038000E37003B030BD00BF20000020F204002065
:10039000A02D000837B50C4B0C4C1D780C4B65702C
:1003A0001B88ADF80430332101A82170FFF78EFFC0
:1003B0002946FFF78BFF9DF80430A3709DF80530A8
:1003C000E37003B030BD00BF20000020EE04002029
:1003D000A02D0008F8B56349634802F025FA0646E7
:1003E00040B1614840F2017102F001FA5D495E4896
:1003F00002F030FA5D495C4802F016FA074640B157
:10040000594840F2027102F0F2F95849564802F098
:1004100021FA5749544802F007FA054640B15248BC
:1004200040F2037102F0E3F951494F4802F012FA29
:1004300050494D4802F0F8F9044640B14A484FF49B
:10044000E06102F0D4F94B49474802F003FA4A4907
:10045000454802F0E9F9D0B1434840F2037102F097
:10046000C6F94549404802F0F5F972B6434A0023FF
:100470001380434A1380434A4FF480711160424A0B
:10048000136062B6414A1370414A137005E03E435F
:1004900035432C43E4B2002CE7D13E49324802F008
:1004A000C3F9F0B1374A1368BBB1013B1360344B59
:1004B0002D481C88621C1A8002F095F9E4B2364B74
:1004C00023F81400324B01221A70344B1A68344B53
:1004D0001A602D4A1368013313602E49224802F036
:1004E000B9F93049204802F09FF9C0B12E4D2F4B89
:1004F0002C881B88A34226D94FF49672B4FBF2F3E2
:1005000002FB13439BB22A4A174832F813100134F6
:1005100002F065F92C802349134802F09BF9254924
:10052000114802F081F9E0B10F48062102F071F99B
:1005300010214FF0904001F065FEBDE8F8401D49E4
:10054000094802F087B90848072102F062F9064815
:10055000062102F054F90E4A00231370164A137054
:10056000D9E7F8BD0002010700440040000202077D
:100570000002030708000007050003071C0C002009
:100580001E0C002028000020180C0020F805002078
:100590000506002005000507180A0020280C002089
:1005A0000006002007000707BE070020BC07002048
:1005B000C0070020060006070406002010B5174CEF
:1005C000204602F08DF82046042102F000F9204672
:1005D000082102F0F4F82046052102F010F9204627
:1005E0004FF4007102F00BF92046082102F007F9E0
:1005F00020460B4902F090F82046002102F0C2F894
:100600002046002102F0CAF82046002102F0AEF890
:100610002046BDE8104002F0CDB800BF00440040C5
:1006200040420F00F8B59D4B1A68002A2DD072B6D3
:100630001A68013A1A6062B6994A9A4D1388591C91
:100640001180DBB2984A32F813402B78002B56D138
:10065000FF2C14D8AA2CE1B218D1944903200870B9
:10066000934994480B7094490B70944B01221A7073
:10067000FF232A70037043702146FFF727FE72B6EE
:100680008F4A13680133136062B6F8BDCC290FD1CD
:1006900002222A70854A1370854A86481370864A5A
:1006A0001370864B01221A70FF2303704370E4E736
:1006B000AF2901D10322ECE7A02901D10422E8E708
:1006C000552905D105222A70784A0B201070E3E7DE
:1006D000332904D105222A700320744AF6E75F29E2
:1006E00006D105232B70714B03221A700023D3E728
:1006F0005029C4D106232B7002226C4BF5E7013B35
:10070000052BBCD8DFE813F007015E01A00006004E
:1007100084018C01654E3178B9B96A4BFF2C1D7884
:1007200009D96448FFF7D2FD15B1644B00221A7055
:1007300001233370A3E7E4B25E482146FFF7C6FD0C
:10074000A542F5D0FF2CF3D0EFE70139082996D860
:1007500001A353F821F000BF7D07000895070008AA
:100760007F0600087F0600087F0600087F06000855
:10077000BF0700087F080008F5070008B4F5807F70
:10078000514B4C4828BF0024E1B21970FFF79EFD81
:100790000223CEE7FF2C484B08D9002145481970A9
:1007A000FFF794FD414B08221A7068E7E1B2414817
:1007B0001970FFF78BFD002CF4D00723B9E73C48F4
:1007C0000378B4F5807F28BF0024FF22B3FBF2F248
:1007D0001A440133DDB2E1B202F0FF023B4C057076
:1007E0003448A154FFF772FD334B1B78AB427FF4C2
:1007F00046AFD7E7364A31490023137009782D4AAE
:100800005278F1B1B4F5807F28BF1C46944218D1CC
:100810002D4A30491078284A127872B1B1F9002077
:1008200082420AD0294A1278F42A06D12A4A13723F
:10083000137582F8203082F82C30284B0880012272
:100840001A7000232B701AE7184B1978A9B91D4BA1
:10085000FF2C1D7804D91748FFF738FD4DB9A1E7E3
:10086000E4B214482146FFF731FDA5429AD0FF2C8F
:1008700098D0124B00221A7094E7082930D10D4B02
:10088000B4F5807F1B7828BF00249C421EBF0B4B11
:1008900000221A70054B092286E700BF180C0020C1
:1008A0001C0C0020F8050020180A0020F705002085
:1008B000F60500201C000020F50500201B0000208C
:1008C0002800002020000020E0040020F604002082
:1008D000050600201E00002038020020FB05002035
:1008E00009297FF4CCAE564B564900221A7009787C
:1008F000554B5B780029A4D0B4F5807F28BF1446FF
:100900009C429ED1514B197800299AD05049012020
:1009100008701A7095E74F4E3378032B21D14E4F54
:1009200049483D780622B5FBF2F302FB1353DBB2D4
:100930004A4AB4F5807FD35C28BF0024E1B28B42E1
:1009400018BF404B05F1010518BF0022EDB218BFDA
:100950001A70FFF7BBFC062D3D707FF490AE0023AC
:10096000E7E65BB9B4F5807F3D4B374828BF0024EC
:10097000E1B21970FFF7AAFC0823DAE6082B3FF46E
:100980007EAF092B7FF47BAE2D4B2E4A00261E70C6
:1009900012782D4B5B78002A3FF453AFB4F5807F7B
:1009A00028BF34469C427FF44CAF2D4B1A782D4B18
:1009B0001A70FFF7CFFCFFF7EDFC2B4B01221E70E6
:1009C0002A4BA6E7234B197800293FF440AF0829AA
:1009D00007D11D4BB4F5807F1B7828BF0024A342AC
:1009E00054E709297FF44BAE154B00221A70154AC3
:1009F000154B12785B78002A3FF423AFB4F5807F63
:100A000028BF00249C427FF41CAF164BFF2280E7D6
:100A1000104A1378012B7FF614AF013B13702EE6BA
:100A20000C4A1378012BF8D8FF2C98BF02344FF0F2
:100A3000050394BFE4B202242B7014701FE600BFBC
:100A4000050600201B0000201C000020F9050020E6
:100A5000FA050020F7050020F6050020200C0020F4
:100A6000E004002020000020FB0500202C000020D6
:100A70006B4B2DE9F74F1B786A4E3778002B40F00F
:100A8000A680002F40F0A380674B684C1B78684D10
:100A9000FF2B00F0AC80674B1A78E2B110214FF0C9
:100AA00090401F7001F0ACFB634A644B11781980D1
:100AB000517859809178D2789980DA80604B61487A
:100AC00004221A80604B07211F8001F098FE2B68DA
:100AD000236001233370D5F800902368A9EB03034A
:100AE000012B51D9DFF880C1DCF8001000294BD070
:100AF0005648DFF878A1038803F01F0B1AF80B8023
:100B0000B8F1000F0FD0524ADFF864E132F81B2031
:100B10000192504A9EF8007012F80B20009267B1C3
:100B200000228EF800204C4A0133038013680139FB
:100B30000133CCF80010136026E04FF090401021F4
:100B400001F05EFB3E4BDFF8F4C01F80009BDFF836
:100B500024E15A1E4FF496703B469A423ADA17B196
:100B6000374B009A1A80384B3648002207211A80EA
:100B700008F1FF3801F043FE384A0AF80B800123E0
:100B80001370C4F8009033702B6822689B1AB3F579
:100B90007A7F1CD910214FF0904001F031FB304A90
:100BA000264B11781980517859809178D278DA8063
:100BB0009980234B04221A80234B224800220721CC
:100BC0001A8001F01CFE2B6823600123337003B0F0
:100BD000BDE8F08F01995918B1FBF0F700FB171130
:100BE00001271EF801102CF813100133B5E72B680C
:100BF00022689B1AB3F57A7FE9D910214FF0904013
:100C000001F0FEFA174A0D493B4612F8010B21F894
:100C1000130001330C2BF8D1094A1380CCE700BF35
:100C2000050600200406002020000020FC0500200E
:100C3000280C0020FB050020F2040020C007002043
:100C4000BC07002000440040BE07002038070020F9
:100C50007C0700205C07002024000020F90500200C
:100C6000EE040020E2040020340700203C070020AE
:100C7000FA050020080600200D4B0E4A196813687B
:100C8000CB1A012B10B511D972B60B480023038083
:100C90000A4803800A484FF48074046009480360DE
:100CA00062B60948116003700848037010BD00BFA8
:100CB000280C0020000600201C0C00201E0C002028
:100CC00028000020180C0020F80500200506002050
:100CD000484B1B782DE9F347002B00F08880464BEA
:100CE00093F80090B9F1FF0F00F08180434A136838
:100CF000002B7CD0013B1360414BDFF824811F881F
:100D0000B8F800503F4E7A1C1A803F4B4FF496744F
:100D100001A81B88ADF804305021FFF7D7FAB5FBC6
:100D2000F4F304FB13539BB250224946F254FFF7ED
:100D3000CDFA6B1C9BB2B3FBF4F204FB12339BB2F3
:100D400007F01F0706F80390DFF8D89099F800A085
:100D50005146FFF7BBFAAB1C9BB2B3FBF4F204FBAA
:100D600012339BB2012106F803A00AF1010A89F8A7
:100D700000A0FFF7ABFAEB1C9BB2B3FBF4F204FB51
:100D800012339BB20122F254204B93F80090494653
:100D9000FFF79CFA2B1D9BB2B3FBF4F204FB12335A
:100DA0009BB206F803906B1D9BB2B3FBF4F204FBFD
:100DB00012339BB29DF80420F254AB1D9BB2B3FBDF
:100DC000F4F204FB12339BB29DF80520F254EB1DA4
:100DD000A8F800300E4B23F817500E4B0722DA55B7
:100DE0000D4B1022DA550D4A13680133136002B01F
:100DF000BDE8F0872C000020200000202400002007
:100E00003A07002008060020A02D0008210000203D
:100E10007C0700205C0700203C07002034070020EE
:100E200006060020E104002010B540F2115001F048
:100E30006FFA4FF48073032201214FF0904001F0CC
:100E4000A8F9BDE810404FF48073002201214FF053
:100E5000904001F07CB900001FB540F2017001F034
:100E600057FA104801F03EFB0F4B104A1B68B3FBCA
:100E7000F2F3013B0022B3F5803F28BF1346ADF8E3
:100E80000030694609230748ADF802200192029319
:100E90008DF80C2001F07AFB024801F007FC05B048
:100EA0005DF804FB000400403000002040420F00C9
:100EB0004FF480714FF0904001F0A2B930B5421E5E
:100EC000C31D002012F8014F082145086040C007EB
:100ED0004CBF85F08C00284601394FEA5404F4D108
:100EE0009A42EFD130BD000008B500221146102013
:100EF00001F0C0F9BDE808400148012101F0DBBB69
:100F0000000400402DE9F041A748012101F0DCFB7D
:100F1000002800F00182A54B1B78022B4ED1A44D76
:100F20002B78022B1DD1A34A137873B94FF480712B
:100F30004FF0904001F066F99E4B01221A70BDE817
:100F4000F0419948012101F0C8BB302B40F0CA8024
:100F50004FF480714FF0904001F052F9944B03220E
:100F6000ECE7032B13D1934A1378372B40F0BA8068
:100F70004FF480714FF0904001F046F98C4B08B966
:100F80000422DBE78C4A012111700E22D6E7042BE4
:100F9000D5D1884C2378612B7BD14FF480714FF0F1
:100FA000904001F031F920B10023237005232B700C
:100FB000C5E7814B02221A707D4BE6E7002B32D148
:100FC0007B4B1B78002BBAD17A4D7C4F2C783B7829
:100FD000CCB97B4E3478072C12D84FF480714FF087
:100FE000904001F00FF9774B1B78234113F0010F6C
:100FF0000CBF0723012301343B7034700123D6E773
:101000006B4B05229AE79C4208D14FF480714FF058
:10101000904001F0F5F801342C7090E7082CFAD1DB
:10102000644B00228AE7012B35D1614A1378012BEA
:1010300085D1604C2378002B3FF478AF012B08D189
:101040004FF480714FF0904001F0DAF8594B0222D2
:1010500074E7022B14D14FF480714FF0904001F0EF
:10106000D3F8574A574913780D78003818BF012034
:1010700098402843013313700870032323705EE700
:10108000082B06D14E4B1B78082BC9D10C231370AB
:10109000C6E70133F2E7032B7FF451AF444C2378CA
:1010A000022B3FF440AF0B2B3FF649AF01A252F8A1
:1010B00023F000BF0F1100083F0F00083F0F00088A
:1010C000670F0008EB1000083F0F00083F0F0008F3
:1010D0006F110008CD110008031200088B120008E0
:1010E000BD1200080133137029E7324D2B78612BB4
:1010F0000BD14FF480714FF0904001F085F800283B
:101100003FF457AF00232B70B8E701334FE7294E68
:10111000DFF8A880357898F80030D5B9284F3D78A9
:10112000072D14D84FF480714FF0904001F06AF809
:10113000244B1B782B4113F0010F0CBF0723012315
:1011400088F80030013501233D703370F7E607233E
:1011500094E79D4208D14FF480714FF0904001F028
:101160004FF801353570EAE6082DFAD158E7114DF0
:101170002B78002B3FF4DAAE012B3FF461AF022B4A
:101180000CD14FF480714FF0904001F03DF80E4BC0
:10119000003818BF01201870032308E7082BB4D1CA
:1011A00000222A706AE700BF00040040D30200203A
:1011B00004000020D0020020680200207E020020EF
:1011C0007D0200207F02002070020020534D2B780A
:1011D000002B3FF4ABAE012B3FF432AF022B0AD110
:1011E0004FF480714FF0904001F00EF800384C4BF6
:1011F00018BF0120CFE7082B87D100232B700923CC
:101200003CE7484B1878464B1D78C0B1002D7FF461
:10121000F7AE454B454A1978454B1B7803F0070359
:10122000D25C444D287043480078002829D00A43F6
:1012300001213E48C254404B19700A231EE73A4B25
:101240003A4A19783A4B1B7803F00703D25C002D19
:10125000E7D13A483A4D00782D78A8420DD2114294
:1012600014BF01250025334E3570002DDBD1354DDF
:1012700008282870D7D8344DD4E70CBF01250025A5
:10128000F1E722EA01020721D3E7244D2B78002B56
:101290003FF44CAE284A16789E4208D14FF4807134
:1012A0004FF09040013600F0ABFF2E7047E6082B60
:1012B0007FF42BAF00232B700B23DFE61A481F4E61
:1012C000027833781A4901335200DBB2D2B20D787A
:1012D000337002701AB96A1C0A70012202700A780F
:1012E000082A7FF434AF402B184B09D9154A14490A
:1012F00012780A7012B9164A0121117001221A706F
:101300000A4A1B78127803B122B9124B03221A70D1
:101310000E23B3E60D23B1E6BDE8F081D002002034
:101320006F020020700200206B0200207402002077
:101330006C020020690200207E0200206E02002064
:10134000730200206D020020710200206A0200205A
:10135000720200206802002030B5421E00F108032E
:10136000002012F8014F082145086040C0074CBF1B
:1013700085F08C00284601394FEA5404F4D19A4292
:10138000EFD130BD2DE9F04FAA4D2B78052B85B05C
:101390004CD1A94A1368002B41D0013B1360A74AE6
:1013A0001388591C11801822B3FBF2F102FB113390
:1013B0009BB2A34A03EB4303D118D35C88784A78E5
:1013C000A0490B70A0490A70A04908702BB9A04928
:1013D0000A70A04A13702B701CE0012B05D19C49A8
:1013E00000220A709B490A70F5E7032B10D19A4A34
:1013F000002313605360994A1370994A1370994AF5
:101400001370994A1370924BF0221A700623E2E788
:10141000022BE0D0954A1368013313601AE0944818
:10142000012105B0BDE8F04F01F049B9063B092B99
:1014300010D8DFE813F00A000F000F000F000F00B4
:101440000F002100E5010C02B502874B1B7823B188
:1014500005232B7005B0BDE8F08F864901220A7084
:1014600085490B7085490B7085490A70854A137050
:10147000784A13700223ECE7734B75491C78734B61
:10148000814E1A7809780927B2FBF7F303EBC303FF
:10149000D31ADBB2082AF154DAD13046FFF75CFFE9
:1014A0007A4A7B4904F03F03002840F00B817948D9
:1014B000794F91F800B002EBC30452F83330036067
:1014C00063684360338803EB830303EB83031BB23E
:1014D000002B1A46B8BFDA1C584200F0030003F094
:1014E000030358BF43429210002BBCBF02F1FF32EE
:1014F00012B27A72BBF1FF0FC2F30722BA72A7D001
:10150000664A1368002BA3D0013B1360644BDFF8DD
:10151000A891B3F80080B9F80060DFF8A0A108F145
:1015200001021A805F4B4FF4967403A81B88ADF834
:101530000C305021FEF7CAFEB6FBF4F304FB136334
:101540009BB2502259460AF80320FEF7BFFE731CD7
:101550009BB2B3FBF4F204FB12339BB20AF803B064
:10156000DFF85CB19BF800100091FEF7AFFEB31CF2
:101570009BB2B3FBF4F204FB123300999BB20AF85E
:10158000031001318BF800100B21FEF79FFEF31CB6
:101590009BB2B3FBF4F204FB12339BB20B220AF8AA
:1015A000032006F1040B3A4606F10F071FFA8BFBE6
:1015B000BFB212F8011B03A8CDE90012FEF786FEA8
:1015C000BBFBF4F304FB13B30BF1010B9BB21FFA4B
:1015D0008BFB00990AF803105F45019AE9D1B7FB2C
:1015E000F4F304FB1377BFB29DF80C300AF8073010
:1015F00006F110039BB2B3FBF4F204FB12339BB26F
:101600009DF80D200AF8032006F11103A9F8003017
:1016100008F01F08244B23F81860244B112203F80C
:101620000820234B102203F80820224A13680133B4
:1016300013600DE7040000208002002084020020D7
:1016400088020020D3020020D2020020D102002014
:101650007F0200207D020020740200207C02002016
:10166000730200207102002072020020000000209E
:10167000000400406E0200206D0200206C02002079
:101680006B0200206A020020D7040020D402002050
:101690002000002011000020100000202400002065
:1016A0003A070020A02D00087C0700205C070020DE
:1016B0003C07002034070020060600200806002012
:1016C000E1040020DFF86C9391F800B002EBC30056
:1016D00052F83330C9F800304368C9F80430BBF120
:1016E000FF0F3FF4B5AEBE4A1368002B3FF4B0AE17
:1016F000013B1360BB4BDFF820A3B3F8008008F177
:1017000001021A80B84B1E88B84B4FF496741B88A0
:10171000ADF80C3003A85021FEF7D8FDB6FBF4F26B
:1017200004FB126292B250210AF802105946FEF7E9
:10173000CDFD721C92B2B2FBF4F104FB112292B205
:1017400009F1FF390AF802B0DFF8ECB29BF800109B
:101750000091FEF7BBFDB21C92B2B2FBF4FC04FB9D
:101760001C22009992B20AF8021001318BF8001085
:101770003946FEF7ABFDF21C92B2B2FBF4F104FB6A
:10178000112292B206F1040B0AF8027006F10D075D
:101790001FFA8BFBBFB219F8011B009103A8FEF7DB
:1017A00095FDBBFBF4F204FB12B20BF1010B92B2FC
:1017B0001FFA8BFB00990AF802105F45EBD1B7FBCB
:1017C000F4F204FB1277BFB29DF80C200AF8072050
:1017D00006F10E0292B2B2FBF4F104FB112292B2B6
:1017E0009DF80D100AF802107F4A06F10F031380CE
:1017F00008F01F087E4B0F2223F818607D4B0EE780
:101800007D4E7E4F30463C78FFF758FBD0B9337899
:10181000282B0ED17A497B480B78326803F03F0CB5
:1018200000EBCC0E40F83C2001337268CEF8042067
:101830000B70754B1B78A3423FF40AAE01343C7029
:10184000062306E6714B03221A700E2301E66F4B46
:101850006F4A93F800806F4B82F8018093F800B0D4
:10186000BBF1FF0F00F092805D490B68002B00F088
:101870008D80013B0B605B4BDFF86CA1B3F80090EF
:10188000BAF80060644F09F101011980574B4FF419
:10189000967403A81B88ADF80C305021FEF716FD96
:1018A000B6FBF4F304FB13639BB25021F954594681
:1018B000FEF70CFD731C9BB2B3FBF4F104FB113378
:1018C0009BB209F01F0907F803B0DFF86CB19BF871
:1018D00000100091FEF7FAFCB31C9BB2B3FBF4FCC2
:1018E00004FB1C3300999BB2F95401318BF80010B2
:1018F0000221FEF7EBFCF31C454A9BB2B3FBF4F16B
:1019000004FB113392F800B09BB20221F9545946FE
:10191000FEF7DCFC331D9BB2B3FBF4F204FB123385
:101920009BB2414607F803B0FEF7D0FC731D9BB293
:10193000B3FBF4F204FB12339BB207F80380B31D30
:101940009BB2B3FBF4F204FB12339BB29DF80C2064
:10195000FA54F31D9BB2B3FBF4F204FB12339BB2B7
:101960009DF80D20FA5406F10803AAF80030204B28
:1019700023F819601F4B082203F80920274B102277
:1019800003F80920264A13680133136008F1FF3871
:10199000B8F1010F9EBF1A4B00221A700F2358E5B1
:1019A000204A1368002B3FF43AAD013B13601E4AF6
:1019B0001388591C11801822B3FBF2F102FB11337A
:1019C0009BB21A4A03EB4303D35C9A1E012A3FF6EB
:1019D00021AD174A032B13703FF409AD0223FAE43B
:1019E000240000203A07002006060020A02D000851
:1019F0007C0700205C070020740200207C0200208D
:101A0000D6040020D4020020D20200206802002068
:101A10000500002020000020080600203C070020D0
:101A20003407002080020020840200208802002069
:101A3000D302002008000020E1040020124B134ACA
:101A4000002110B519701368E3B1013B1360104A0F
:101A50001388581C10801822B3FBF2F002FB1033DD
:101A60009BB20C4803EB4303C2180324C454917087
:101A7000FF2309485370012100F01DFE074A136837
:101A80000133136010BD00BFD60400200000002009
:101A9000860200208802002000040040800200200E
:101AA00010B5344B1B78002B63D0334C2368E3B163
:101AB000324A013B23601388591C11801822B3FB62
:101AC000F2F102FB11339BB22D4903EB4303CA1819
:101AD0000220C85400232B4853700121937000F05A
:101AE000EAFD294A1368013313602368E3B1234AEE
:101AF0002348013B23601388591C11801822B3FB33
:101B0000F2F102FB11339BB203EB4303C218002135
:101B1000C1549170CC231B485370012100F0CBFDC0
:101B2000194A1368013313602368E3B1134A144858
:101B3000013B23601388591C11801822B3FBF2F17A
:101B400002FB11339BB203EB4303C2180021C154C3
:101B5000917044230B485370012100F0ACFD0A4AF8
:101B6000136801331360094B00221A70084B0122DD
:101B70001A7010BDD604002000000020860200204C
:101B8000880200200004004080020020D5040020CC
:101B9000D40400202DE9F74FDFF8B89199F8003010
:101BA000002B00F0C680644B644C93F800B0DFF863
:101BB000A8A123689AF80050E3B1614A013B236071
:101BC0001388591C11801822B3FBF2F102FB113368
:101BD0009BB25C4903EB4303CA180220C85400239C
:101BE000594853700121937000F065FD574A1368FE
:101BF000013313602368E3B1514A5248013B23602B
:101C00001388591C11801822B3FBF2F102FB113327
:101C10009BB203EB4303C2180021C15491705523BA
:101C200049485370012100F046FD484A13680133CA
:101C30001360474A424B05F03F0702EBC708414A91
:101C40000026216809B301392160198818F806C0F7
:101C5000481C18801820B1FBF0FE00FB1E1189B251
:101C600001EB410150184FF0000E02F801E080F83E
:101C700001C080F802E00121334800F01CFD334828
:101C80002F4B01682F4A013101600136082ED8D14F
:101C90002368E3B12A4A2B48013B23601388591C6F
:101CA00011801822B3FBF2F102FB11339BB203EB5C
:101CB0004303C2180021C1549170BE2322485370BF
:101CC000012100F0F8FC214A136801331360FBB2D4
:101CD000DFF870801A4F1C4800262268F2B1013AE2
:101CE00022603A880193511C39801821B2FBF1FC23
:101CF00001FB1C2292B202EB420208EB020C012112
:101D000008F802108CF801308CF8026000F0D3FC67
:101D10000E49019B0A680C4801320A600136092EFF
:101D2000DBD1AB458BBF013500238AF8005089F821
:101D3000003003B0BDE8F08FD60400200000002082
:101D4000860200208802002000040040800200205B
:101D5000D4020020D4040020D504002010B540F2A5
:101D6000115000F0D5FA4FF48053032200214FF0B8
:101D7000904000F00EFABDE810404FF4805301226D
:101D800000214FF0904000F0E2B910B540F2115040
:101D900000F0BEFA4FF40063032200214FF09040A0
:101DA00000F0F7F9BDE810404FF400630122002174
:101DB0004FF0904000F0CBB910B540F2115000F058
:101DC000A7FA4FF48063032200214FF0904000F007
:101DD000E0F9BDE810404FF48063012200214FF08C
:101DE000904000F0B4B910B540F2115000F090FAF4
:101DF0004FF40073032200214FF0904000F0C9F926
:101E0000BDE810404FF40073012200214FF09040D4
:101E100000F09DB9F8B5274C274D27782E684FF470
:101E200080514FF0904000F0EFF9B0FA80F0400997
:101E300087421CBF002320704FF400614FF0904098
:101E400018BF2372277B18BF66602E6800F0DCF98C
:101E5000B0FA80F0400987421CBF002320734FF482
:101E600080614FF090401CBF23752661277E2E684D
:101E700000F0CAF9B0FA80F0400987421CBF002385
:101E800020764FF400714FF090401CBFE66184F85B
:101E900020302D6894F8246000F0B6F9B0FA80F094
:101EA000400986421FBF002384F82400A56284F8FD
:101EB0002C30F8BD38020020280C00202DE9F04F0E
:101EC0005C4B85B01B78009303F0030B0C215A4B3D
:101ED00001FB0BF15818007A002840F0A380574FFF
:101EE000595CB97056490E7801203870FF2E58445D
:101EF000787000F0928053480168002900F08D80CE
:101F0000013901605049514BB1F800A01D88DFF83C
:101F100058810AF1010008804D490988ADF80C107C
:101F20004FF4967403A85021FEF7D0F9B5FBF4F1F5
:101F300004FB115189B24FF0500C08F801C0314632
:101F4000FEF7C4F9691C89B2B1FBF4FC04FB1C1157
:101F500089B208F801603F4E96F800904946FEF7B6
:101F6000B5F9A91C89B2B1FBF4FC04FB1C1189B2C0
:101F700008F8019009F10109032186F80090FEF7A5
:101F8000A5F9E91C89B2B1FBF4F004FB101189B288
:101F90000320B946EE1D2F1D08F80100BFB2B6B2EE
:101FA00019F8011B019103A8FEF790F9B7FBF4F0B3
:101FB00004FB1070013780B2BFB2019908F800101D
:101FC000BE421D4BECD1B6FBF4F104FB1166B6B278
:101FD0009DF80C1008F8061005F1080189B2B1FB54
:101FE000F4F004FB101189B29DF80D00174A08F8AF
:101FF000010005F109010AF01F0A1180164921F8B4
:102000001A501649092001F80A001549102001F854
:102010000A0014480168013101600C2101FB0B33F7
:1020200001221A72009B034A0133137005B0BDE808
:10203000F08F00BF3402002038020020350200205B
:1020400020000020240000203A070020060600207F
:10205000A02D0008E10400207C0700205C07002080
:102060003C070020340700200806002008B5FEF7D2
:1020700089F8FEF7A1F8FEF7CDF8FEF7E6F8FEF7CF
:10208000FFF8FEF709F9FEF71CF9FEF72FF9FEF746
:1020900061F9FEF77FF9FEF791FAFEF7C5FEFEF74C
:1020A000DBFEFEF705FFFEF71FFFFFF757FEFFF70A
:1020B0006CFEFFF781FEBDE80840FFF794BE00000C
:1020C0002DE9F84F0024A04625462746264643F62C
:1020D000972A45F2072B1A4BD3F80090A9EB06027A
:1020E000B2F5FA6F02D3FEF7F3FD4E46A9EB0702F5
:1020F000524502D9FFF7A2FC4F46A9EB05025A450B
:1021000004D9FFF7CDFCA9F5BB55103DA9EB08029A
:10211000632A02D9FFF73EFDC846A9EB0402092A4B
:1021200002D9FFF777FE4C46FEF77CFAFEF7A0FCDB
:10213000FEF7A2FDFFF726F9FFF7C0FECBE700BFD1
:10214000280C002008B5FFF791FFFFF7B9FF2DE934
:10215000F0430568C46800264FF0010E4FF00308F5
:102160000EFA06F71F420DD0770008FA07FC01FAB5
:1021700007F925EA0C0524EA0C0402FA07F749EAF4
:1021800005053C430136102EEAD10560C460BDE868
:10219000F08301294168F0B50CBF194399434FF60C
:1021A000FF744160A242816815D1C46B00220127EF
:1021B0004FF0030C07FA02F61E421CBF55000CFA42
:1021C00005F502F101021CBF29433443102AF1D165
:1021D0008160C463F0BD002401274FF0030C07FAAF
:1021E00004F51D4207D065000CFA05F621EA060148
:1021F00002FA05F529430134102CF0D18160E9E79A
:10220000816170478162704703690B4214BF0120EE
:1022100000207047F0B5066A456A00234FF0010CB4
:102220004FF00F0E0CFA03F4144207D09C000EFA84
:1022300004F726EA070601FA04F426430133082BC3
:10224000F0D100234FF0010C4FF00F0E03F1080402
:102250000CFA04F4144207D09C000EFA04F725EAA5
:10226000070501FA04F425430133082BEED1066279
:102270004562F0BD10B51D4CE36803F4E063B3F5AF
:10228000A06F08D020D8B3F5407F26D0B3F5806F7B
:1022900026D0174BE36002231C46C4F10404A1407E
:1022A000C3F104040F23E3401340124A0B431B0104
:1022B0001118DBB281F800334109012300F01F003F
:1022C000834042F8213010BDB3F5C06F0BD0B3F599
:1022D000E06FDED104230024DFE700230424DCE7E1
:1022E00001230324D9E703230124D6E700ED00E00E
:1022F0000005FA0500E100E021F06041034B21F008
:102300007F0101439960BFF34F8F704700ED00E0FC
:10231000830903F1804303F5043300F01F001968BB
:10232000012282400A431A607047830903F1804307
:1023300003F5043300F01F001A680121814022EAEE
:1023400001021A607047FFF7E3BFFFF7EEBF00001E
:10235000F0B55D4B89B0054604AC03F110061F468D
:1023600018685968224603C20833B3421446F7D1AD
:10237000716838696B4603C303C354494B68C3F3A0
:102380008103022B44D14A684868CB6A0601C2F334
:1023900083424FEAD37334D4002B30D102324B68DE
:1023A000C86ADC0332D5CB6A400003F00F0354BF88
:1023B000474848480133B0FBF3F35A434B68C3F333
:1023C000031320336B4413F8104C4B68C3F3022300
:1023D00020336B4422FA04F413F8206C4B68C3F3E7
:1023E000C22320336B4413F8183C24FA03F0062D63
:1023F00010D8DFE805F06412141017464F002132A0
:10240000CDE70BB91132CAE73132C8E7324BD4E716
:102410002F4AD3E7002009B0F0BD2046FBE724FA9D
:1024200006F0F8E70B6BDA0507D40B6B2B4813F4B7
:10243000803F2B4B08BF1846EDE74A680B6BC2F391
:102440008132022A4FEAD3730FD0032A14D0012A13
:1024500006D00BB94008DEE70320B4FBF0F0DAE762
:102460000BB98008D7E70520F7E71BB90623B0FBB7
:10247000F3F0D0E70720F0E70BB9C008CBE709205D
:10248000EBE70B6B13F0400F48F2120018BF4FF44C
:102490000040C0E70B6B9B07BDD00B6B03F0030341
:1024A000012B0CD00B6B03F00303022B09D00B6B39
:1024B000074803F00303032B18BF0020ABE71046C7
:1024C000A9E74FF40040A6E7A22D00080010024043
:1024D00000127A00006CDC0200093D00003FAB01F5
:1024E000809FD50008B5274B98421ED00BD8A3F586
:1024F000943398422AD003F5E05398422DD0B0F19E
:10250000804F1CD008BD204B98422DD003F580632E
:10251000984230D0A3F500639842F3D14FF4447051
:10252000FFF711FF4FF4447005E040F20B30FFF766
:102530000AFF40F20B30BDE80840FFF706BF4FF43A
:102540008060FFF700FF4FF48060F4E740F2014045
:10255000FFF7F9FE40F20140EDE74FF48160FFF72D
:10256000F2FE4FF48160E6E740F21130FFF7EBFE38
:1025700040F21130DFE740F21230FFF7E4FE40F2A4
:102580001230D8E7002C0140004401400B8810B500
:102590008362424B98421BD020F48063B3F1804F9A
:1025A00016D08B68C3623E4B98423CD003F5903303
:1025B00098424FD03B4A904255D002F580629042FB
:1025C0005ED0A3F5A053984228D10B7B036325E08E
:1025D000036823F07003036002684B8813430360B1
:1025E00002688B88134303608B68C3622B4B98424D
:1025F00022D0B0F1804F16D0A3F594339842D2D1B7
:102600004FF08043D3F8002422F44072C3F8002432
:10261000D3F80044CA882243C3F80024436943F036
:102620000103436110BD036823F440730360026833
:10263000CB8813430360F1E71B4BD3F8002C22F443
:102640004072C3F8002CD3F8004CCA882243C3F868
:10265000002CBAE7036823F4407303600268CB8858
:1026600013430360B1E7D3F8002422F44072C3F8A7
:102670000024D3F80044CA882243C3F80024A4E706
:10268000D3F8002822F44072C3F80028D3F8004899
:10269000CA882243C3F8002897E700BF002C0140F6
:1026A000002000400044014000200140036843F046
:1026B000010303607047C3680B43C3607047C3687E
:1026C00023EA0103C3607047C3680069084003D070
:1026D0000B4214BF012000207047C94301617047BD
:1026E00008B50C4B98420DD003F57443984210D1B5
:1026F00040F20E30FFF727FE40F20E30BDE80840F2
:10270000FFF723BE40F21140FFF71DFE40F21140DB
:10271000F4E708BD0044004038B5134B9842044626
:102720000D4618D003F57443984216D10620FFF7E2
:102730000FFE226812044FEA550310D503EB400345
:10274000B3FBF5F1C1F3420321F00F010904090CB9
:102750000B43E36038BD0220E9E70020E9E70344CA
:10276000B3FBF5F39BB2F4E700440040036823F0A9
:1027700001030360036823F4C063036003680B4331
:1027800003607047036823F001030360036823F4C8
:102790008053036003680B4303607047036823F0B2
:1027A00001030360436823F44053436043680B43D1
:1027B00043607047036843F0010303607047036898
:1027C00023F00803036003680B430360704703684A
:1027D00023F00403036003680B4303607047C1F3F5
:1027E000080181627047406AC0F308007047026ABE
:1027F00001F01F0101238B401343036270478A09D4
:1028000010B501F01F01145801238B4023431350CE
:1028100010BD10B58C090122235801F01F018A4018
:1028200023EA0203235010BDC1F3891310B51C58CD
:102830008B0D1A58C1F30440012303FA00F0104035
:1028400006D001F01F018B40234214BF012000205D
:1028500010BD0000084B994206D1D0F8D03023F4C7
:102860000043C0F8D0307047026AC1F3044101232D
:102870008B4013430362704709340F34DFF830D0C4
:10288000002103E00B4B5B58435004310A480B4BCB
:1028900042189A42F6D30A4A02E0002342F8043B67
:1028A000084B9A42F9D300F011F8FFF74BFC704740
:1028B00034020020CC2F000800000020340000204B
:1028C000340200202C0C0020FEE700007E4BDA6969
:1028D00002F00602062A82B047D0DA69900444D595
:1028E0007A4A7B4959605A6099609A601A6942F045
:1028F00020021A611A6942F040021A61DA68D107AF
:10290000FCD41A6922F020021A611A6942F01002FE
:102910001A61DA6912F0060F6E4A40F0C780A523EB
:102920001380694B6B4AD969090A01F0DF015180B4
:10293000D969C1F307419180D969090ED180196A1B
:10294000C9B21181196AC1F307215181DA68D2072E
:10295000FCD41A6922F010021A611A6922F400727A
:102960001A611A6942F080021A615B4AD2F8883013
:1029700043F47003C2F88830584B1A6842F00102E1
:102980001A601A689007FCD55A6842F080025A60B3
:1029900000220192019A4F2A40F290805A6842F038
:1029A00090025A6000220192019A4F2A40F28980D7
:1029B0005A6822F003025A601A6822F0867222F4E2
:1029C00080321A605968464A0A405A605A6822F0B2
:1029D000084222F474125A60DA6A22F0404222F06D
:1029E0000F02DA621A6B22F4817222F001021A637A
:1029F0001A6B22F480321A631A6B22F000421A63B7
:102A00005A6B22F001025A63D3F8C02022F48032BC
:102A1000C3F8C02000229A60C3F8CC201A6842F4A0
:102A200080321A604FF400621968890301D4013AB8
:102A3000FAD11A68900333D55A685A605A6842F43A
:102A400000525A605A6842F480625A605A6822F012
:102A5000036222F470225A60DA6A22F0404222F0C5
:102A60000F02DA625A6842F0016242F480325A6020
:102A7000DA6A42F00102DA62DA6ADA621A6842F06D
:102A800080721A601A689101FCD55A6822F003021C
:102A90005A605A6842F002025A605A681207FCD51E
:102AA00000214FF0006002B0FFF726BCDB6903F0A5
:102AB0000603022B7FF435AFBB2331E7019A0132C5
:102AC00067E7019A01326EE700200240AB89EFCD43
:102AD0002301674500F8FF1F00ED00E000100240F1
:102AE0000C00FF082DE9F047089D0C46002B4ED145
:102AF00094468C458646B2FA82F262D94AB1C2F156
:102B00002003914020FA03F30CFA02FC194300FA67
:102B100002FE4FEA1C471FFA8CF6B1FBF7F44FEAAE
:102B20001E4307FB141143EA014304FB06F19942DB
:102B30000AD91CEB030304F1FF3080F013819942A2
:102B400040F21081023C6344591A1FFA8EF3B1FB24
:102B5000F7F007FB101143EA014300FB06F69E4223
:102B60000AD91CEB030300F1FF3180F0FD809E4287
:102B700040F2FA80634402389B1B40EA0440002183
:102B80001DB1D3400022C5E90032BDE8F0878B4279
:102B900005D90DB1C5E9000100210846F5E7B3FAF2
:102BA00083F1002946D1A34202D39042C0F0F180C4
:102BB000861A64EB03030120002DE6D0C5E900630B
:102BC000E3E7002A40F09180A1EB0C044FEA1C4897
:102BD0001FFA8CF70121B4FBF8F64FEA1E4308FBFD
:102BE000164443EA044307FB06F0984208D91CEB5D
:102BF000030306F1FF3402D2984200F2CE8026464B
:102C00001C1A1FFA8EF3B4FBF8F008FB104443EAD9
:102C1000044300FB07F79F4208D91CEB030300F1B4
:102C2000FF3402D29F4200F2B1802046DB1B40EA13
:102C30000640A5E7C1F120068B4022FA06F71F43A4
:102C400020FA06FC04FA01F343EA0C03F44000FA0C
:102C500001F8380C4FEA1349B4FBF0FE1FFA87FC69
:102C600000FB1E4449EA04440EFB0CF9A14502FA9C
:102C700001F20AD93C190EF1FF3A80F08580A14596
:102C800040F28280AEF1020E3C44A4EB09041FFA2C
:102C900083F9B4FBF0F300FB134449EA044403FB5B
:102CA0000CFCA44507D93C1903F1FF3068D2A445B8
:102CB00066D9023B3C4443EA0E40A0FB0293A4EBDE
:102CC0000C049C42CE469C4652D34FD055B1B8EB33
:102CD0000E0364EB0C0404FA06F6CB40CC401E4312
:102CE000C5E900640021BDE8F087C2F1200320FAA5
:102CF00003F10CFA02FC24FA03F394400C434FEA6C
:102D00001C4800FA02FE1FFA8CF7B3FBF8F008FB30
:102D10001031230C43EA014300FB07F1994208D923
:102D20001CEB030300F1FF362CD299422AD902385A
:102D300063445B1AA4B2B3FBF8F108FB113344EA15
:102D4000034401FB07F3A34208D91CEB040401F17F
:102D5000FF3613D2A34211D902396444E41A41EA7E
:102D6000004138E70446EFE6084605E7C845ADD21E
:102D7000B9EB020E63EB070C0138A7E73146EDE72C
:102D8000034698E73046D4E7D6467EE763440238E8
:102D90004CE70646234608460EE7023E63442FE70B
:102DA000FFFF00000000000000000102030406070E
:102DB0000809000000000102030400C0C101C303B0
:102DC00002C2C60607C705C5C404CC0C0DCD0FCF83
:102DD000CE0E0ACACB0BC90908C8D81819D91BDBF3
:102DE000DA1A1EDEDF1FDD1D1CDC14D4D515D71743
:102DF00016D6D21213D311D1D010F03031F133F3F3
:102E0000F23236F6F737F53534F43CFCFD3DFF3F42
:102E10003EFEFA3A3BFB39F9F83828E8E929EB2B72
:102E20002AEAEE2E2FEF2DEDEC2CE42425E527E702
:102E3000E62622E2E323E12120E0A06061A163A372
:102E4000A26266A6A767A56564A46CACAD6DAF6F02
:102E50006EAEAA6A6BAB69A9A86878B8B979BB7B72
:102E60007ABABE7E7FBF7DBDBC7CB47475B577B7C2
:102E7000B67672B2B373B17170B0509091519353F2
:102E8000529296565797559594549C5C5D9D5F9FC2
:102E90009E5E5A9A9B5B99595898884849894B8BF2
:102EA0008A4A4E8E8F4F8D4D4C8C44848545874782
:102EB0004686824243834181804000C1814001C0F7
:102EC000804101C0804100C1814001C0804100C1FA
:102ED000814000C1814001C0804101C0804100C1EA
:102EE000814000C1814001C0804100C1814001C0DA
:102EF000804101C0804100C1814001C0804100C1CA
:102F0000814000C1814001C0804100C1814001C0B9
:102F1000804101C0804100C1814000C1814001C0A9
:102F2000804101C0804100C1814001C0804100C199
:102F3000814000C1814001C0804101C0804100C189
:102F4000814000C1814001C0804100C1814001C079
:102F5000804101C0804100C1814000C1814001C069
:102F6000804101C0804100C1814001C0804100C159
:102F7000814000C1814001C0804100C1814001C049
:102F8000804101C0804100C1814001C0804100C139
:102F9000814000C1814001C0804101C0804100C129
:102FA000814000C1814001C0804100C1814001C019
:0C2FB000804101C0804100C18140000050
:042FBC00F8B500BFA5
:042FC000F8B500BFA1
:082FC40020FBFF7F010000006B
:102FCC001800000005C600C600000000000000004C
:102FDC00C60000000000000000000001FFFFFFFF22
:102FEC00FFF2000020000000000100000104072097
:042FFC0000BD01050E
:040000050800287D4A
:00000001FF
