:020000040800F2
:100000006003002075690008C1690008C169000823
:10001000C1690008C1690008C1690008000000004A
:10002000000000000000000000000000C16900089E
:10003000C169000800000000C1690008CD01000886
:1000400000000000C1690008C1690008C16900081A
:10005000C1690008C1690008C1690008C1690008D8
:10006000C1690008C1690008D55B0008C1690008C2
:10007000C1690008C1690008C1690008C1690008B8
:10008000C1690008C169000800000000C1690008DA
:10009000C1690008C1690008C1690008C169000898
:1000A000C1690008C1690008C169000801040008AD
:1000B000C169000800000000C169000800000000DC
:1000C000C169000800000000C1690008C16900089A
:1000D000C1690008000000000000000000000000EE
:1000E0000000000000000000C169000800000000DE
:1000F0000000000000000000000000000000000000
:10010000C16900080000000000000000C16900088B
:1001100000000000000000000000000000000000DF
:1001200000000000000000000000000000000000CF
:1001300000000000000000000000000000000000BF
:10014000000000000000000000000000C16900087D
:1001500053B94AB9002908BF00281CBF4FF0FF312E
:100160004FF0FF3000F00CB8ADF1080C6DE904CE93
:1001700006F034FDDDF804E0DDE9022304B0704749
:10018000704700BF074B591E1A5C095C41EA022107
:100190009A1E033B125C185C42EA012240EA0220EC
:1001A000704700BFD50500204FF0E023054A5A6193
:1001B000054AF02182F8231000229A6107221A6171
:1001C000704700BF1E48010000ED00E0024A1368BE
:1001D00001331360704700BF0C0D0020F8B5144BBD
:1001E0006FF03A02D3F8E017D3F8AC07D3F8B06752
:1001F000D3F8B4774FF6FF73FFF7AAFF38461446DB
:100200001D466FF03A024FF6FF733146FFF7A0FF2D
:10021000084862406B400021013100F8012B06299B
:100220004FEA122242EA03624FEA1323F4D1F8BDE7
:1002300000F0FF1F040D002010B50C4C40F21250CE
:1002400005F080FF204640230322002105F0B4FE84
:10025000204600220221402305F08CFE2046402249
:10026000BDE81040002105F0EEBE00BF00040048CC
:1002700010B50C4C40F2125005F064FF204680236C
:100280000322002105F098FE20460022022180234F
:1002900005F070FE20468022BDE81040002105F0E8
:1002A000D2BE00BF0004004808B500221B20114642
:1002B00005F0FAFEBDE8084040F20E6005F042BFCE
:1002C00010B5094C40F2125005F03CFF20460423C3
:1002D0000322002105F070FE20460423BDE81040F3
:1002E0000022012105F046BE000400480148042117
:1002F00005F09BBE00040048037810B55940044C3B
:10030000044B5A5C4378615C42704B40037010BDF3
:10031000E47A0008E479000873B5144C22465521AC
:1003200002F8011B124908688988C4F8010091800D
:10033000104A1278E271104A1178527862720F4AAC
:1003400021721288ADF804200025264614F8011BFE
:1003500001A80135FFF7D0FF0A2DF7D19DF8043031
:10036000B3729DF80530F37202B070BDBE05002077
:10037000040D00205F0100205D010020986E000840
:1003800037B50C4B0C4C1D780C4B65701B88ADF8C9
:1003900004305F2101A82170FFF7AEFF2946FFF767
:1003A000ABFF9DF80430A3709DF80530E37003B0F7
:1003B00030BD00BF56010020CE050020986E000819
:1003C00037B50C4B0C4C1D780C4B65701B88ADF889
:1003D0000430332101A82170FFF78EFF2946FFF773
:1003E0008BFF9DF80430A3709DF80530E37003B0D7
:1003F00030BD00BF56010020CA050020986E0008DD
:10040000F8B56549654806F08BFA064640B1634881
:1004100040F2017106F067FA5F49604806F096FA0B
:100420005F495E4806F07CFA074640B15B4840F2FF
:10043000027106F058FA5A49584806F087FA5949A5
:10044000564806F06DFA054640B1544840F2037133
:1004500006F049FA5349514806F078FA52494F4894
:1004600006F05EFA044640B14C484FF4E06106F0F5
:100470003AFA4D49494806F069FA4C49474806F0AE
:100480004FFAD0B1454840F2037106F02CFA4749C3
:10049000424806F05BFA72B6454A00231360454AAB
:1004A0001360454A4FF480711180444A138062B64C
:1004B000434A1370434A137005E03E4335432C43CF
:1004C000E4B2002CE7D14049344806F029FA10B3D1
:1004D000394A1388DBB1374930480C68013B138037
:1004E000631C5A42D2B2DBB258BF53420B6006F0D3
:1004F000F6F9364B23F81400324B01221A70344BB4
:100500001A68344B1A602D4A1388013313802E4920
:10051000224806F01BFA3049204806F001FAC0B123
:100520002E4D2F4B2C881B88A34225D94FF4967251
:10053000B4FBF2F302FB13439BB22A4A174832F88A
:100540001310013406F0C7F92C802349134806F034
:10055000FDF92549114806F0E3F9D8B10F48062105
:1005600006F0D3F92148042105F05FFDBDE8F8400D
:100570001D490A4806F0EAB90848072106F0C5F9FE
:100580000648062106F0B7F90E4A00231370184AF0
:100590001370DAE7F8BD00BF000201070038014020
:1005A0000002020700020307080000070500030716
:1005B000FC0A0020000B00205A010020F80A00204D
:1005C000D4060020E106002005000507040B0020EA
:1005D0000C0D0020DC060020070007079E08002005
:1005E0009C080020A0080020060006070004004820
:1005F000E006002010B5174C204606F0EDF8204626
:10060000042106F060F92046082106F054F920463E
:10061000052106F070F920464FF4007106F06BF9E1
:100620002046082106F067F920460B4906F0F0F84D
:100630002046002106F022F92046002106F02AF982
:100640002046002106F00EF92046BDE8104006F0D5
:100650002DB900BF0038014040420F002DE9F04F96
:100660009B4B1A8885B0002A31D072B61A88013A9D
:100670001A8062B69748984D01684B1C5A42D2B214
:10068000DBB258BF53420360944B33F811402B78D0
:10069000002B58D1FF2C14D8AA2CE1B21AD19049C2
:1006A000032008708F4990480B7090490B70904B55
:1006B00001221A70FF232A70037043702146FFF74E
:1006C0001BFE72B68B4A13880133138062B605B0E5
:1006D000BDE8F08FCC290FD102222A70804A137016
:1006E000804A81481370814A1370814B01221A702D
:1006F000FF2303704370E2E7AF2901D10322ECE747
:10070000A02901D10422E8E7552905D105222A7044
:10071000734A0B201070E3E7332904D105222A70B5
:1007200003206F4AF6E75F2906D105232B706C4B37
:1007300003221A700023D3E75029C2D106232B705D
:100740000222674BF5E7013B052BBAD8DFE813F02F
:100750003D05C605F0040600EC05F505604E317850
:10076000B9B9654BFF2C1D7809D95F48FFF7C4FD67
:1007700015B15F4B00221A7001233370A1E7E4B278
:1007800059482146FFF7B8FDA542F5D0FF2CF3D01C
:10079000EFE70139082994D801A353F821F000BFED
:1007A000C5070008DD070008C3060008C3060008E7
:1007B000C3060008C3060008070800086F110008F8
:1007C0003D080008B4F5807F4C4B474828BF002403
:1007D000E1B21970FFF790FD0223CEE7FF2C434BE7
:1007E00008D9002140481970FFF786FD3C4B0822CC
:1007F0001A7066E7E1B23C481970FFF77DFD002CE6
:10080000F4D00723B9E737480378B4F5807F28BFD1
:100810000024FF22B3FBF2F21A440133DDB2E1B24D
:1008200002F0FF02364C05702F48A154FFF764FD1B
:100830002E4B1B78AB427FF444AFD7E7314B2C4AA9
:100840004FF0000883F800801278274B5B78FAB1EC
:10085000B4F5807F28BF44469C4219D1234B274AD8
:100860001978294B92F80090B3F9003051B14B45FB
:1008700008D0264F224E3B78327883F0010052B9DF
:10088000002849D1224B01221A701F4BA3F8009077
:1008900000232B7015E7022A40F084810028F1D054
:1008A0000629EFD97378013BDBB2052BEAD80C227D
:1008B0005343B2781749003A18BF01220320CC18DD
:1008C000CA54FFF75FFC84F808806060DAE700BF75
:1008D000F80A0020FC0A0020D4060020040B0020A7
:1008E000D3060020D206002051010020D1060020AE
:1008F000500100205A01002056010020BC050020B4
:10090000D2050020E1060020540100205C010020F7
:10091000D70600206C0500200229B3D97778013F63
:10092000FCB2052CAED8B3789BB99B4A182303FBC5
:1009300007F15018515C807D0028A3D10029A1D077
:100940007B43D118D054954B1B680B61C1E9020061
:1009500098E7012B40F0E6808F4E18237B4306EB8F
:100960000308062998F816A0D8F80C4016F803B02A
:100970006DD90320FFF706FCBAF1000F55D1BBF18A
:10098000000F52D1002C50D1844B98F814C01A6833
:1009900031463346A74214D093F814E0E64510D10F
:1009A00093F816E0BEF1000F0BD193F80080D3F856
:1009B0000CA0B8F1000F3DD0C3E902EE83F800E0CF
:1009C0001A610134062C03F11803E3D10CF1FF3353
:1009D000DBB2B3FBF4FE04FB1E33714C4FF00C0E84
:1009E000DBB20EFB03434FF000085C68A6468B7D2C
:1009F0004BB90B783BB90B7D634504D10B69D31A16
:100A00009E4528BF9E4608F10108B8F1060F01F186
:100A10001801ECD174454FF0180311D87B43F1183D
:100A20000024C1E903420122F254182303FB0763A7
:100A3000986027E7BAF1000FC3D0C3E90288C0E786
:100A400003FB0763A4EB0E04C3E90342EDE7BAF12D
:100A5000000F54D1BBF1000F51D1002C4FD14F4B9F
:100A600098F814001A6831463346A74214D093F818
:100A700014C0844510D193F816C0BCF1000F0BD1FF
:100A800093F800E0D3F80C80BEF1000F3DD0C3E92D
:100A900002CC83F800C01A610134062C03F118035C
:100AA000E3D1431EDBB2B3FBF4FC04FB1C333C4C30
:100AB0004FF00C0CDBB20CFB03434FF0000E5C68F4
:100AC000A4468B7D4BB90B783BB90B7D834204D197
:100AD0000B69D31A9C4528BF9C460EF1010EBEF14E
:100AE000060F01F11801ECD164454FF0180312D83C
:100AF0007B43F1180020C1E903020122F2541823BC
:100B000003FB07667368B360BCE6B8F1000FC3D09F
:100B1000C3E902EEC0E703FB0763A4EB0C04C3E9DF
:100B20000342ECE7022B0DD106297FF6ABAE032082
:100B3000FFF728FB184B182202FB043358600022F1
:100B40005A759FE6032B7FF49DAE144BF778D3F8CC
:100B500000C0114B00211A468C420DD0187DB842BE
:100B60000AD1987D40B91E78D3F80CE076B1C3E97C
:100B700002001870C3F810C00131062903F11803F0
:100B8000EAD1182303FB04231F75D8E7BEF1000F39
:100B9000F2D0C3E90266EFE7C00000200C0D002090
:100BA0006C050020032A40F0FA8000283FF46AAE6A
:100BB0000E2974787FF466AE631EDBB20B2B3FF612
:100BC00061AEB54903EB430301EB43014FEA430C2C
:100BD0000F46002002234FF0FF0EF25C07F8012BB6
:100BE00001300133062893FBFEF2C2EB0222A3EB95
:100BF0000203F2D1A94A6244944600274FF0FF0E47
:100C0000F05C0CF8010B01370133062F93FBFEF06B
:100C1000C0EB0020A3EB0003F2D1A14E03233370FD
:100C20007470022300200E2411F8017BF754013068
:100C30000133062893FBF4F704FB1733F4D10021AA
:100C40004FF00E0812F8010BF05401310133062960
:100C500093FBF8F008FB1033F4D1924B1F78FF2F71
:100C600000F09980904A1388002B00F094808F4800
:100C7000DFF880A2D0F800B0013B13800BF1010235
:100C8000514201F01F018A4B02F01F0258BF4A4235
:100C90000260884A1E881288ADF80C204FF49674C2
:100CA00003A85021FFF728FBB6FBF4F204FB126205
:100CB00092B250210AF802103946FFF71DFB721C50
:100CC00092B2B2FBF4F104FB112292B20AF8027064
:100CD000794F39780091FFF70FFBB21C92B2B2FB4B
:100CE000F4FC04FB1C22009992B20AF802100131B4
:100CF00039700E21FFF700FBF21C92B2B2FBF4F147
:100D000004FB112292B206F112070AF8028006F1E2
:100D10000408634A1FFA88F8BFB212F8011B03A83F
:100D2000CDE90012FFF7E8FAB8FBF4F004FB1080FD
:100D300008F1010880B21FFA88F800990AF800103B
:100D40004745019AE9D1B7FBF4F204FB1277BFB231
:100D50009DF80C200AF8072006F1130292B2B2FBAC
:100D6000F4F104FB112292B29DF80D10504B0AF8D9
:100D7000021006F114021A80504A22F81B60504AF1
:100D8000142102F80B104F4A102102F80B104E4AA2
:100D90001388013313804D4B01221A7072E5042A27
:100DA0001FD100283FF46EAD02297FF46BAD484B94
:100DB00071781970474B002211299A7583F82E20FB
:100DC00083F8462083F85E2083F8762083F88E200F
:100DD0004FF0010247D19A7583F8762083F88E2070
:100DE00046E0FA2A00F0EE802DD8F22A00F0848046
:100DF000F42A7FF447AD00223748114601320C2A0D
:100E0000017200F10C00F9D1344A1170344A1170AA
:100E1000002B7FF437AD2F4A537582F82D3082F8BE
:100E2000453082F85D3082F8753082F88D302D4A79
:100E30001372137582F8203082F82C3082F8383023
:100E400082F844301EE5FF2A7FF41CAD26490023BA
:100E50000B704B708B70CB7024490A70244A13704E
:100E60001F4A13700EE5202910D19A7583F82E20A1
:100E70001D4A0023137053709370D3701B4AFF21D7
:100E800011701B4A1370164A137084E72129EFD1A1
:100E90009A7583F82E209FE72D0000207500002012
:100EA000BF0400205601002058010020180800202F
:100EB000E2060020986E0008BD0500205C080020B6
:100EC0003C0800201C0800201008002065030020BA
:100ED000BD040020C0000020D4040020BE04002077
:100EE000B70400206C050020B90400202C0000206D
:100EF000B8040020E406002042297FF6C3ACDFF8E6
:100F000088834FF0000A01244FF0FF0B335D003B54
:100F100018BF012388F80030601C90FBFBF3C3EB83
:100F20000323C01AFFF72EF90AF1010A0534BAF1BA
:100F3000060F94FBFBF3C3EB0323C8F80400A4EBF8
:100F4000030408F10C08E1D1B94BDFF840B31B688A
:100F500000930BF190084FF0FF0AA31C93FBFAF1EA
:100F6000C1EB01215B1A9BF8161061B9315D019349
:100F7000003918BF012118468BF80010FFF702F95D
:100F8000019BCBF80800611C91FBFAF0C0EB00203C
:100F9000091A1846715C8BF81410FFF7F3F8009BE0
:100FA000CBF81030CBF804000BF1180B0634D84501
:100FB00094FBFAF3C3EB0323A4EB0304CDD100238A
:100FC0003B705FE401293FF45DAC96F80180994BDA
:100FD000994AB8F1000818BF4FF0010883F8008063
:100FE000964B82F8018093F800B0BBF1FF0F3FF4FD
:100FF00049AC93490B88002B3FF444AC9148924F85
:10100000D0F800A0013B0B800AF10103594201F026
:101010001F0103F01F0358BF4B4203608B498C4BE9
:1010200009881E88ADF80C104FF4967403A850215F
:10103000FFF762F9B6FBF4F104FB116189B24FF0DE
:10104000500C07F801C05946FFF756F9711C89B2D8
:10105000B1FBF4FC04FB1C1189B207F801B0DFF806
:1010600030B29BF800100091FFF746F906F1020C30
:101070001FFA8CFCBCFBF4FE04FB1ECC00991FFA8B
:101080008CFC07F80C1001318BF800100221FFF7DF
:1010900033F9F11C684A89B2B1FBF4FC04FB1C1162
:1010A00092F800B089B24FF0020C07F801C059461F
:1010B000FFF722F9321D92B2B2FBF4F104FB1122C8
:1010C00092B2414607F802B0FFF716F9721D92B2CC
:1010D000B2FBF4F104FB112292B25D4B07F80280DF
:1010E000B21D92B2B2FBF4F104FB112292B29DF850
:1010F0000C10B954F21D92B2B2FBF4F104FB1122B0
:1011000092B29DF80D10B95406F108021A80514BA5
:1011100023F81A60504B082203F80A204F4B102284
:1011200003F80A204E4A138801331380FFF7AABB45
:101130004C4B1978C9B9414BFF2C1D7805D94A4849
:10114000FFF7DAF865B9FFF751BBE4B2464821462C
:10115000FFF7D2F8A5423FF449ABFF2C3FF446AB72
:10116000424B00221A70FFF741BB08290ED13E4BBB
:10117000B4F5807F1B7828BF00249C421EBF3B4BE8
:1011800000221A70374B0922FFF732BB09297FF47E
:1011900098AA374B354900221A700978324B5B7890
:1011A00000293FF475ABB4F5807F28BF14469C42FC
:1011B0007FF46EAB2F4B197800293FF469AB2E49B1
:1011C000012008701A70FFF763BB264E3378032B9B
:1011D0001FD12A4D2A4B2F7823480621B7FBF1F265
:1011E00001FB1272D2B2B4F5807F9B5C28BF002451
:1011F000E1B28B421EBF1D4B00221A70FFF77CF834
:101200007B1CDBB2062B2B707FF45BAA0023FFF75D
:10121000B4BA002B3ED1B4F5807F1A4B124828BFD8
:101220000024E1B21970FFF767F80823FFF7A5BAA9
:101230000C0D002058040020000000205601002062
:101240005801002018080020E4060020986E0008CD
:10125000E20600205C0800203C0800201C0800205A
:1012600010080020D306002051010020500100206A
:10127000E1060020D5060020D6060020D206002078
:10128000040D0020BC0500206C050020C0000020DB
:10129000BD050020082B3FF46AAF092B7FF411AA8B
:1012A0002E4B2F4A00261E7012782E4B5B78002A98
:1012B0003FF4EEAAB4F5807F28BF34469C427FF409
:1012C000E7AA294B1A78294B1A70FFF759F8FFF74C
:1012D00077F8274B01221E70264B73E7264B1978AF
:1012E00000293FF428AF082907D11E4BB4F5807FB1
:1012F0001B7828BF0024A34240E709297FF4E1A915
:10130000164B00221A70164A164B12785B78002A88
:101310003FF4BEAAB4F5807F28BF00249C427FF42E
:10132000B7AA124BFF224DE7134A1378012B7FF621
:10133000AFAA013B1370FFF7C4B90F4A1378012B12
:10134000F7D8FF2C98BF02344FF0050394BFE4B2E6
:1013500002242B701470FFF7B4B900BFE10600201F
:101360005001002051010020BC0500205601002042
:10137000D70600205C010020D30600206F4B2DE92A
:10138000F74F1B786E4F3C78002B40F0AA80002C62
:1013900040F0A7806B4B6C4D1B786C4EFF2B00F020
:1013A000B6806B4B1A78DAB16A481C70042104F0DD
:1013B0003AFE694A694B11781980517859809178C1
:1013C000D2789980DA80664B664804221A80664B90
:1013D00007211C8005F08FFA33682B6001233B70D6
:1013E000D6F800A02B68AAEB0303012B57D95F495D
:1013F0000B88002B53D05E4ADFF894B114681BF8B9
:101400000490B9F1000F7DD05A4830F814000190D3
:10141000594890F80080B8F1000F14D04FF0000C3C
:10142000013B01340B8080F800C0BCEB040303F0E7
:101430001F0304F01F0458BF5C4214604F4A138816
:10144000013313802BE04E4B42481B5D0093042177
:1014500004F0E9FD424BDFF804C1A3F80080009BD3
:10146000DFF830E15A1E4FF4967043469A423BDA59
:10147000B8F1000F02D03A4B009A1A803A4B394823
:10148000002207211A8009F1FF3905F034FA3D4A9C
:101490000BF8049001231370C5F800A03B7033686B
:1014A0002A689B1AB3F57A7F1BD90421294804F0D6
:1014B000BAFD354A294B11781980517859809178B5
:1014C000D278DA809980264B04221A80264B254850
:1014D000002207211A8005F00EFA33682B600123E1
:1014E0003B7003B0BDE8F08F01995918B1FBF0F8DB
:1014F00000FB18114FF001081EF801102CF8131012
:101500000133B3E7013B01340B8063428FE733685B
:101510002A689B1AB3F57A7FE3D904210D4804F0B9
:1015200082FD1A4A0D49234612F8010B21F81300D7
:1015300001330C2BF8D10A4A1380C7E7E1060020DB
:10154000E006002056010020D80600200C0D0020E7
:10155000D706002000040048CE050020A008002087
:101560009C080020003801409E0800201008002040
:10157000140800205C080020D60600205801002036
:101580003C080020D5060020CA050020BE0500202A
:101590001C080020E40600200D4B0E4A1968136851
:1015A000CB1A012B10B511D972B60B48002303607A
:1015B0000A4803600A484FF4807404800948038095
:1015C00062B60948116003700848037010BD00BF7F
:1015D0000C0D0020DC060020FC0A0020000B00207F
:1015E0005A010020F80A0020D4060020E10600205D
:1015F0004B4B1B782DE9F347002B00F08E80494BB5
:1016000093F80090B9F1FF0F00F08780464A1388E5
:10161000002B00F082804549DFF830810F68B8F870
:101620000050434E013B13807B1C5A4202F01F02C4
:1016300003F01F0358BF53420B603E4B4FF49674A8
:1016400001A81B88ADF804305021FEF755FEB5FB0C
:10165000F4F304FB13539BB250224946F254FEF7B5
:101660004BFE6B1C9BB2B3FBF4F204FB12339BB238
:1016700006F80390DFF8D89099F800A05146FEF7DD
:101680003BFEAB1C9BB2B3FBF4F204FB12339BB2E8
:10169000012106F803A00AF1010A89F800A0FEF76B
:1016A0002BFEEB1C9BB2B3FBF4F204FB12339BB298
:1016B0000122F254204B93F800904946FEF71CFE9D
:1016C0002B1D9BB2B3FBF4F204FB12339BB206F862
:1016D00003906B1D9BB2B3FBF4F204FB12339BB27D
:1016E0009DF80420F254AB1D9BB2B3FBF4F204FB53
:1016F00012339BB29DF80520F254EB1DA8F8003080
:101700000E4B23F817500E4B0722DA550D4B1022C3
:10171000DA550D4A13880133138002B0BDE8F08713
:101720005C0100205601002058010020180800200C
:10173000E4060020986E0008570100205C08002095
:101740003C0800201C08002010080020E2060020B1
:10175000BD05002010B540F2115004F0F3FC012348
:10176000032200214FF0904004F026FC0123BDE845
:101770001040002219464FF0904004F0FBBB10B51A
:1017800040F2115004F0DEFC0223032200214FF04E
:10179000904004F011FCBDE810400223002201211A
:1017A0004FF0904004F0E6BB10B540F2115004F049
:1017B000C9FC0423032200214FF0904004F0FCFBFD
:1017C000BDE810400423002201214FF0904004F0B6
:1017D000D1BB10B540F2115004F0B4FC0823032231
:1017E00000214FF0904004F0E7FBBDE810400823D3
:1017F000002201214FF0904004F0BCBB10B540F234
:10180000115004F09FFC4023032200214FF0904030
:1018100004F0D2FBBDE810404023002201214FF02C
:10182000904004F0A7BB10B540F2115004F08AFCC0
:101830008023032200214FF0904004F0BDFBBDE85F
:1018400010408023002201214FF0904004F092BB11
:10185000F8B5714B1968714B00201C461E781A6947
:10186000D3E90257002E40F0C98037B18A1ABA4234
:1018700003D901221A70DE6019610130062803F1D4
:101880001803EBD125785DB901214FF0904004F0A9
:10189000D4FB28B101214FF09040657504F0C5FBE1
:1018A000257E65B902214FF0904004F0C6FB30B1AF
:1018B00002214FF0904084F82D5004F0B6FB94F8CC
:1018C000305065B904214FF0904004F0B6FB30B1C0
:1018D00004214FF0904084F8455004F0A6FB94F8A2
:1018E000485065B908214FF0904004F0A6FB30B194
:1018F00008214FF0904084F85D5004F096FB94F876
:10190000605065B940214FF0904004F096FB30B133
:1019100040214FF0904084F8755004F086FB94F815
:10192000785065B980214FF0904004F086FB30B1CB
:1019300080214FF0904084F88D5004F076FB23789E
:101940005BB101214FF0904004F077FB28B960753E
:1019500001214FF0904004F066FB237E63B1022129
:101960004FF0904004F069FB30B984F82D0002215B
:101970004FF0904004F057FB94F8303063B10421ED
:101980004FF0904004F059FB30B984F84500042131
:101990004FF0904004F047FB94F8483063B10821C1
:1019A0004FF0904004F049FB30B984F85D00082105
:1019B0004FF0904004F037FB94F8603063B1402161
:1019C0004FF0904004F039FB30B984F875004021A5
:1019D0004FF0904004F027FB94F87830D3B1802189
:1019E0004FF0904004F029FBA0B984F88D008021CD
:1019F000BDE8F8404FF0904004F015BB002D3FF4D7
:101A00003CAF8A1AAA427FF638AF0022C3E902220D
:101A10001A7031E7F8BD00BF0C0D0020C000002097
:101A20002DE9F04FC94B1B7887B0002B40F0B981EE
:101A3000C74BDFF84CB31B780193019A0623B2FB26
:101A4000F3F603FB1626F6B2182272430BEB0201E3
:101A5000487D002840F0BA80BE4D1BF80220AA70D5
:101A60000A7DEA704A682A71110A6971110C120E16
:101A7000EA71B94A287092F80080A971701CB8F117
:101A8000FF0F687000F09D80B4490A88002A00F0BA
:101A90009880B34CB34BDFF8ECA21F88013A0A8060
:101AA00022680292511C484200F01F0001F01F0101
:101AB00058BF41422160AC490988ADF814104FF479
:101AC000967405A85021FEF717FCB7FBF4F104FB50
:101AD000117189B24FF0500C0AF801C04146FEF76F
:101AE0000BFC791C89B2B1FBF4FC04FB1C1189B21C
:101AF0000AF80180DFF8908298F800904946FEF7D6
:101B0000FBFBB91C89B2B1FBF4FC04FB1C1189B2CC
:101B10000AF8019009F10109082188F80090FEF700
:101B2000EBFBF91C89B2B1FBF4F004FB101189B294
:101B3000082007F1040907F10C080AF80100029ACD
:101B40001FFA89F91FFA88F815F8011B039205A8F6
:101B50000291FEF7D1FBB9FBF4F004FB109009F100
:101B6000010980B21FFA89F902990AF80010C845E4
:101B7000039AE9D1B8FBF4F104FB11881FFA88F845
:101B80009DF814100AF8081007F10D0189B2B1FB95
:101B9000F4F004FB101189B29DF81500714B0AF89E
:101BA000010007F10E011980704921F81270704987
:101BB0000E2088546F49102088546F490A880132DA
:101BC0000A80182202FB06B301225A75DFF8BCB165
:101BD0000C2272430BEB0201087A002840F0DD80F2
:101BE000664D1BF80220AA704A68EA70110A297132
:101BF000110C120EAA71584A697192F800800220E5
:101C00002870B8F1FF0F06F10100687000F0C08085
:101C100052490A88002A00F0BB80514C514BDFF832
:101C200064A11F88013A0A8022680292511C48422E
:101C300000F01F0001F01F0158BF414221604A49D6
:101C40000988ADF814104FF4967405A85021FEF7DA
:101C500053FBB7FBF4F104FB117189B24FF0500C48
:101C60000AF801C04146FEF747FB791C89B2B1FB77
:101C7000F4FC04FB1C1189B20AF80180DFF808812A
:101C800098F800904946FEF737FBB91C89B2B1FBC2
:101C9000F4FC04FB1C1189B20AF8019009F1010956
:101CA000072188F80090FEF727FBF91C89B2B1FBE9
:101CB000F4F004FB101189B2072007F1040907F1C1
:101CC0000B080AF80100029A1FFA89F91FFA88F82E
:101CD00015F8011B039205A80291FEF70DFBB9FB55
:101CE000F4F004FB109009F1010980B21FFA89F9A0
:101CF00002990AF80010C845039AE9D1B8FBF4F13B
:101D000004FB11881FFA88F89DF814100AF80810CF
:101D100007F10C0189B2B1FBF4F004FB101189B298
:101D20009DF815000F4B0AF8010007F10D0119800D
:101D30000E4921F812700E490D2088540D491020CB
:101D400088540D490A8801320A8021E05C01002094
:101D500064050020B4050020560100205801002031
:101D600018080020E2060020986E00085C08002099
:101D70003C0800201C0800201008002065050020F9
:101D8000C0000020E4060020BD0500206C050020F6
:101D90000C2202FB06B301221A72019B024A013394
:101DA000137007B0BDE8F08F6405002010B540F255
:101DB000115004F0C7F91023032200214FF0904086
:101DC00004F0FAF8BDE810401023012200214FF082
:101DD000904004F0CFB810B540F2115004F0B2F9C1
:101DE0004FF40043032200214FF0904004F0E4F848
:101DF000BDE810404FF40043012200214FF0904015
:101E000004F0B8B810B5094C40F2125004F09AF939
:101E1000204608230322002104F0CEF820460823A0
:101E2000BDE810400122002104F0A4B800040048DD
:101E300010B5094C40F2125004F084F920461023EA
:101E40000322002104F0B8F820461023BDE810401A
:101E50000122002104F08EB80004004810B5094C9E
:101E600040F2125004F06EF9204620230322002194
:101E700004F0A2F820462023BDE8104001220021F2
:101E800004F078B80004004810B540F2115004F096
:101E900059F94FF48053032200214FF0904004F091
:101EA0008BF8BDE810404FF48053012200214FF021
:101EB000904004F05FB810B540F2115004F042F9C0
:101EC0004FF40073032200214FF0904004F074F8A7
:101ED000BDE810404FF40073012200214FF0904004
:101EE00004F048B810B540F2115004F02BF94FF44B
:101EF0008063032200214FF0904004F05DF8BDE8BC
:101F000010404FF48063012200214FF0904004F014
:101F100031B810B540F2115004F014F94FF4807349
:101F2000032200214FF0904004F046F8BDE8104035
:101F30004FF48073012200214FF0904004F01AB852
:101F400010B5094C40F2125004F0FCF82046012371
:101F50000322002104F030F8012320461A46BDE890
:101F60001040002104F006B80004004810B5094CE8
:101F700040F2125004F0E6F820460223032200212A
:101F800004F01AF820460223BDE810400122002187
:101F900003F0F0BF0004004810B540F2115004F007
:101FA000D1F84FF40063032200214FF0904004F079
:101FB00003F8BDE810404FF40063012200214FF008
:101FC000904003F0D7BF0000F8B57D4C7D4D2778D9
:101FD0002E6810214FF0904004F029F8B0FA80F0FC
:101FE000400987421CBF002320704FF400414FF08E
:101FF000904018BF2372277B18BF66602E6804F0DC
:1020000016F8B0FA80F0400987421CBF0023207305
:102010004FF008016C4818BF2375277E18BF266152
:102020002E6804F004F8B0FA80F0400987421CBF23
:10203000002320764FF01001634818BF84F8203049
:1020400094F8247018BFE6612E6803F0F0FFB0FA30
:1020500080F0400987421CBF002384F824004FF021
:102060002001594818BF84F82C3094F8307018BFFC
:10207000A6622E6803F0DBFFB0FA80F040098742C9
:102080001CBF002384F830004FF480514FF0904083
:1020900018BF84F8383094F83C7018BF66632E6817
:1020A00003F0C5FFB0FA80F0400987421CBF00234F
:1020B00084F83C004FF400714FF0904018BF84F852
:1020C000443094F8487018BF26642E6803F0AFFFC0
:1020D000B0FA80F0400987421CBF002384F8480012
:1020E0004FF480614FF0904018BF84F8503094F85E
:1020F000547018BFE6642E6803F099FFB0FA80F0C0
:10210000400987421CBF002384F854004FF48071BB
:102110004FF0904018BF84F85C3094F8607018BF9E
:10212000A6652E6803F083FFB0FA80F0400987426D
:102130001CBF002384F860004FF00101224818BF43
:1021400084F8683094F86C7018BF66662E6803F0E7
:102150006EFFB0FA80F0400987421CBF002384F86C
:102160006C004FF0020118481CBF84F874302667D9
:1021700094F878702E6803F05AFFB0FA80F04009A6
:1021800087421CBF002384F878004FF400614FF0B1
:1021900090401CBFE66784F880302D6894F8846016
:1021A00003F045FFB0FA80F0400986421FBF0023CC
:1021B00084F88400C4F8885084F88C30F8BD00BFDF
:1021C000D40400200C0D0020000400482DE9F04F3D
:1021D000614B93F800B0614B0C22BBFBF2F802FBA1
:1021E00018B85FFA88F802FB08F2991885B0097AE6
:1021F000002940F0A8805A4F9A5CBA70594A167864
:1022000001213970FF2E4144797000F097805649C2
:102210000A88002A00F09280544C554BDFF86C91EC
:102220001D88013A0A8022680092511C484200F041
:102230001F0001F01F0158BF414221604D4909882C
:10224000ADF80C104FF4967403A85021FEF754F823
:10225000B5FBF4F104FB115189B24FF0500C09F8B1
:1022600001C03146FEF748F8691C89B2B1FBF4FCA5
:1022700004FB1C1189B209F801603F4E96F800A0DA
:102280005146FEF739F8A91C89B2B1FBF4FC04FBF6
:102290001C1189B209F801A00AF1010A032186F88C
:1022A00000A0FEF729F8E91C89B2B1FBF4F004FBA9
:1022B000101189B20320BA46EE1D2F1D09F8010046
:1022C000009ABFB2B6B21AF8011B019203A800919E
:1022D000FEF712F8B7FBF4F004FB1070013780B280
:1022E000BFB2009909F80010BE42019A1B4BEAD117
:1022F000B6FBF4F104FB1166B6B29DF80C1009F8B8
:10230000061005F1080189B2B1FBF4F004FB1011CD
:1023100089B29DF80D0009F80100154805F1090181
:102320000180164921F81250154909208854154991
:102330001020885414490A8801320A800C2202FBBA
:10234000083301221A72044B0BF1010B83F800B021
:1023500005B0BDE8F08F00BFCD040020D4040020FC
:10236000CE0400205601002058010020180800204B
:10237000E2060020986E0008BD0500205C080020E1
:102380003C0800201C08002010080020E406002063
:102390001FB50C4C40F2116003F0D4FE204603F050
:1023A000BBFF0023642269462046CDE90033029238
:1023B0008DF80C3004F004F8204604F091F804B0D5
:1023C00010BD00BF0044014010B50D4C40F212504A
:1023D00003F0B8FE20464FF480730322002103F07F
:1023E000EBFD2046002202214FF4807303F0C2FD72
:1023F00020464FF48072BDE81040022103F023BE56
:102400000004004830B54FF4A06085B003F09AFE98
:102410001B4B1C4A1A601C4B1C4C0FCB6D4685E8AD
:102420000F002A462046002104F06EF800221146D3
:10243000204604F09DF920466022002104F072F944
:1024400008222046002104F0A1F92046012104F0D1
:1024500052F84FF48071204604F049F8204604F009
:102460003FF8012211460A2003F01EFE022003F06D
:102470007DFC0221084603F0DBFC05B030BD00BF47
:102480000C000020344401409C6E000800440140D0
:10249000AE4B9FEDAF3ADFEDAF2A9FEDAF2ADFEDF8
:1024A000AF1A2DE9F74F1968AD4BAE4A1B7801936F
:1024B00007EE901AF8EEE74ADFEDAB7AAB4B64EE2D
:1024C000A74A0025B7EE004ADFEDA97A1E780095ED
:1024D0000C4610466FF00203F0EE445A4FF03C0EEB
:1024E0004FF00608C82594FBF5F705FB1747A14DEB
:1024F00005EB8707D7ED006A019DB0EE627AA6EE84
:10250000837A27EE027A45B1009F27EE247A642968
:1025100008BF2F46B0EE644A0097112E40F0A2800B
:10252000A3F10A07032F22D8934F97F80CC0934FBB
:102530007F7867B1924FDFED937A3F684FF4FA7975
:10254000B7FBF9F717F0010F08BFB0EE677ABCF1DF
:10255000000F00F0EF80DFF834C28B4F9CF800C012
:102560003F78BCF1000F00F0EB80012F35E0032B2A
:1025700000F2E380804F97F878A0804F97F80090A2
:10258000BF7859EA0707814F0AD1BAF1000F19D174
:1025900097F87870DFED7B7A002FDFED7D6A20E021
:1025A000DFF8DCC1DFED776ADCF800C04FF4FA7BBE
:1025B000BCFBFBFC1CF0010F08BFB0EE667ABAF161
:1025C000000F12D0DFF8C0C197F860709CF800C00F
:1025D000002F00F0B580BCF1020FDFED6E7ADFED69
:1025E0006E6A18BFF0EE667A0BE097F87870002FED
:1025F00040F0A980DFED667AB9F1000F08BFF0EE78
:10260000667AFCEEE76A35EEC46A16EE905AAFB20F
:10261000B7FBFEF90EFB1977BFB226EE076A06EE8E
:10262000907AB9FBF8FCB8EE665A77EE466A08FB7A
:102630001C9C66EE856A1FFA8CFC66EEA16A76EE3B
:10264000263ABCF1000F00F001810CF1FF3777EE64
:10265000666A032F00F2F680DFE817F0A400A000FE
:10266000E200EB00202E27D1A3F10A07032F7FF60B
:102670005BAF032B61D8404F97F824C03F4FBF7822
:1026800067B13F4FDFED3F7A3F684FF4FA79B7FB10
:10269000F9F717F0010F08BFB0EE677ABCF1000F31
:1026A00048D0DFF8E8C0384F9CF818C03F78BCF13C
:1026B000000F45D0022F90E7212EA2D1A3F10C07E5
:1026C000032F7FF631AF5F1F032FD4D99F1C032F39
:1026D00033D8294F97F878A0284F97F80090FF78C3
:1026E00059EA0707294F0DD1BAF1000F3FF450AF57
:1026F000DFF894C097F860709CF800C007B3BCF195
:10270000030F6AE7DFF878C0DFED1E7ADCF800C05F
:102710004FF4FA7BBCFBFBFC1CF0010F08BFB0EED2
:10272000677ABAF1000FE3D197F878705FB9B9F121
:10273000000F32E7DFED137A63E79FED127A60E76F
:10274000DFED157A5DE7DFED127A5AE75C040020D1
:10275000CDCC4C3FCDCC4C3E9A99993E8988883C53
:1027600002000020680300200AD7233CBD0400209B
:1027700000001643C46E0008D4040020B9040020F1
:102780000C0D0020000000002C000020C0000020E4
:10279000000070430000F04200007042F0EE466A14
:1027A000B0EE636A0133112BC0ED006A80ED017A4F
:1027B00080ED026A04F10A0400F10C007FF492AE8D
:1027C000009B13B16D4B002018706D4B1B78002BD4
:1027D0005FD06C4EDFED6C7A34681425C4F10903C8
:1027E00065EE277A93FBF5F0B6EE007A05FB103321
:1027F00004F10A0077EE876A90FBF5F705FB1705F1
:10280000BCF1000F00F0A7800CF1FF3C75EEE77AF9
:10281000BCF1030F00F29880DFE80CF0A01B8A9156
:10282000F0EE463AB0EE476AB0EE667AF0EE636AD2
:10283000B8E7F0EE636AF0EE463AB0EE476AB0EE03
:10284000637AAFE7F0EE463AB0EE666AF0EE476ABA
:10285000F5E7B0EE667AF6EE007AF7EE006A4B48DE
:102860000C2707FB0303C3ED007AC3ED016A83ED78
:10287000027A07FB0503C3ED007AC3ED016A83ED1D
:10288000027A434B002C6ED1012018601B68234450
:102890003360404B00296BD1012018601B689FED0D
:1028A0003E7A0B443D490B603D4B00201C46D2ED67
:1028B000017A67EE877A0130FCEEE77A142817EE8A
:1028C000901AD2ED007A197067EE877A02F10C0245
:1028D000FCEEE77A03F1030317EE901A52ED017A4A
:1028E00003F8021C67EE877AFCEEE77A17EE901A7F
:1028F00003F8011CDBD12B4B21782B4C01221A80D1
:102900002A4A2B4B02EBC10052F831201A60426870
:1029100028485A600021E36003F0E7FD21460220C9
:1029200003F042FA022003B0BDE8F04F03F028BAEA
:10293000F0EE676AF6EE007AB7EE007A8FE7F0EE17
:10294000667AF6EE006AF7E7B0EE677AF6EE006AAE
:10295000F7EE007A83E7F7EE007A80E7F7EE006A99
:10296000B6EE007A7BE7092C90D14FF0FF308CE770
:10297000C82993D14FF0FF308FE700BF020000203D
:1029800058040020600400208988083C6803002067
:10299000080000200400002000007F435C040020A9
:1029A00064040020A00400200C000020E471000852
:1029B000A204002000440140F7B5454B454D1B885B
:1029C000ADF80430444B454FD3F8004CB4F5807F4C
:1029D00028BF0024E6B2314601A8FDF78DFC55F86A
:1029E000041BB1F5807F28BF0021C9B201A8FDF703
:1029F00083FCBD42F3D1384A9DF80510D2F8483E19
:102A0000B3F5807F28BF0023994257D1D2F8443EC6
:102A10009DF80420B3F5807F28BF00239A424DD152
:102A20002F4B1E702F4B0022112C9A7583F82E20ED
:102A300083F8462083F85E2083F8762083F88E2082
:102A400006D101229A7583F8762083F88E2005E05E
:102A5000202C35D101229A7583F82E202248234C50
:102A6000042303F1006202F53C4205461E1952F8A8
:102A7000041BB1F5807F28BF0021B24205F8011B7D
:102A8000F5D11833B3F5927F00F10600E9D118486B
:102A900003F1006202F53C4205461E1952F8041B80
:102AA000B1F5807F28BF0021964205F8011BF5D1C2
:102AB0001833B3F5117F00F10600E9D103B0F0BD82
:102AC000212CCBD101229A7583F82E20BBE700BFC1
:102AD000986E000804BC000800B0000844BE00085E
:102AE000BD040020C00000202D00002018BC0008FC
:102AF000750000202DE9F74FC44DDFF824B32E7880
:102B0000DBF80040C14F10214FF0904003F08FFAE6
:102B1000B0FA80F0400986421CBF002328704FF4B1
:102B200000414FF0904018BF2B722E7B18BF6C6095
:102B3000DBF8004003F07BFAB0FA80F040098642EF
:102B40001CBF002328734FF00801B14818BF2B7534
:102B50002E7E18BF2C61DBF8004003F068FAB0FA53
:102B600080F0400986421CBF002328764FF01001F8
:102B7000A74818BF85F8203095F8246018BFEC618D
:102B8000DBF8004003F053FAB0FA80F040098642C7
:102B90001CBF002385F824004FF020019C4818BF7B
:102BA00085F82C3095F8306018BFAC62DBF8004037
:102BB00003F03DFAB0FA80F0400986421CBF0023C2
:102BC00085F830004FF480514FF0904018BF85F8E1
:102BD000383095F83C6018BF6C63DBF8004003F0B8
:102BE00026FAB0FA80F0400986421CBF002385F81F
:102BF0003C004FF400714FF0904018BF85F844300E
:102C000095F8486018BF2C64DBF8004003F00FFA19
:102C1000B0FA80F0400986421CBF002385F84800C6
:102C20004FF480614FF0904018BF85F8503095F810
:102C3000546018BFEC64DBF8004003F0F8F9B0FA18
:102C400080F0400986421CBF002385F854004FF4F1
:102C500080714FF0904018BF85F85C3095F8606047
:102C600018BFAC65DBF8004003F0E1F9B0FA80F082
:102C7000400986421CBF002385F860004FF0010127
:102C8000634818BF85F8683095F86C6018BF6C66AB
:102C9000DBF8004003F0CBF9B0FA80F0400986423F
:102CA0001CBF002385F86C004FF00201584818BF84
:102CB00085F8743095F8786018BF2C67DBF8004011
:102CC00003F0B5F9B0FA80F0400986421CBF00233A
:102CD00085F878004FF400614FF0904018BF85F8F8
:102CE000803095F8846018BFEC67DBF8004003F093
:102CF0009EF9B0FA80F0400986421EBF0023C5F855
:102D0000884085F88C30434CDBF8003018BF85F8DC
:102D10008400422697F88410002900F051813E4A31
:102D2000B21801923B4A4FF0000C019810F8011BB9
:102D3000019061B9917D002940F0868010780028CB
:102D400000F08280C2E90211117013617CE0012958
:102D50006ED1917D002956D11178002953D1D068C8
:102D6000002850D192F814802146604514D091F883
:102D700014E0C64510D191F816E0BEF1000F0BD15A
:102D800091F80090D1F80CA0B9F1000F4AD0C1E938
:102D900002EE81F800E00B610130062801F1180114
:102DA000E3D108F1FF31C9B2B1FBF0FE00FB1E1107
:102DB0001A484FF00C0EC9B20EFB01004FF0000A8A
:102DC000D0F804E02046F146817D49B9017839B94F
:102DD000017D414504D10169591A894528BF8946B9
:102DE0000AF1010ABAF1060F00F11800ECD1CE4544
:102DF0008BBFAEEB09010021C2E90313C2E9031343
:102E00009CBF01211170002191601DE0D4040020BD
:102E100000040048C0000020750000206C05002060
:102E20000C0D0020BAF1000FB6D0C1E90299B3E74A
:102E3000022909D197F88C1031B91078917D0028BA
:102E400060D000293FF47EAF0CF1010CBCF1060FFD
:102E500002F118027FF469AF063EB21DA7F10C071C
:102E60007FF458AF9D4A9E4C11781129D4E902276E
:102E700040F03E849B48417819BB3A4321D12969EF
:102E8000EE69591A9E1BB14228BF314626699E1B26
:102E9000B14228BF3146B1F57A7F12D9297B94F827
:102EA00000C02E7E81F00101BCF1000F40F0828154
:102EB0003EB18D4A002900F08A810121417082F8DB
:102EC00000C090F801C08178C2784CEA0106164330
:102ED0004CEA020C40F08381844E297B3278002931
:102EE00040F08F81217801B12361012A02BFFF22C6
:102EF00032707D4A4FF00001C4E90211217008BF11
:102F000011708DE1002953D1D068002850D192F87A
:102F100014802146604514D091F814E0C64510D1C4
:102F200091F816E0BEF1000F0BD191F80090D1F8A6
:102F30000CA0B9F1000F3DD0C1E902EE81F800E02C
:102F40000B610130062801F11801E3D108F1FF31CE
:102F5000C9B2B1FBF0FE00FB1E1165484FF00C0E2C
:102F6000C9B20EFB01004FF0000AD0F804E0204681
:102F7000F146817D49B9017839B9017D414504D1D6
:102F80000169591A894528BF89460AF1010ABAF12F
:102F9000060F00F11800ECD1CE458BBFAEEB090156
:102FA0000021C2E90313C2E903139CBF0121117080
:102FB000516829E7BAF1000FC3D0C1E90299C0E70F
:102FC0004C4AB2180192464A8C46019810F8011BEF
:102FD000019051B9917D002976D11078002873D0E5
:102FE000C2E90211117013616EE0012962D1917D75
:102FF000002956D11178002953D1D068002850D12A
:1030000092F814802146604514D091F814E0C6452A
:1030100010D191F816E0BEF1000F0BD191F800909D
:10302000D1F80CA0B9F1000F3ED0C1E902EE81F851
:1030300000E00B610130062801F11801E3D108F12D
:10304000FF31C9B2B1FBF0FE00FB1E1128484FF062
:103050000C0EC9B20EFB01004FF0000AD0F804E0DC
:103060002046F146817D49B9017839B9017D414554
:1030700004D10169591A894528BF89460AF1010A14
:10308000BAF1060F00F11800ECD1CE458BBFAEEBC4
:1030900009010021C2E90313C2E903139CBF012106
:1030A0001170002191600FE0BAF1000FC2D0C1E9A8
:1030B0000299BFE7022907D197F88C1021B910783F
:1030C000917DC8B100298BD00CF1010CBCF1060F29
:1030D00002F118027FF479AFBEE600BFBD04002004
:1030E000C0000020B9040020B70400202C000020FC
:1030F0006C0500202D000020002953D1D068002845
:1031000050D192F814802146604514D091F814E013
:10311000C64510D191F816E0BEF1000F0BD191F821
:103120000090D1F80CA0B9F1000F3DD0C1E902EE3A
:1031300081F800E00B610130062801F11801E3D1AC
:1031400008F1FF31C9B2B1FBF0FE00FB1E118F4840
:103150004FF00C0EC9B20EFB01004FF0000AD0F880
:1031600004E02046F146817D49B9017839B9017DF5
:10317000414504D10169591A894528BF89460AF198
:10318000010ABAF1060F00F11800ECD1CE458BBF51
:10319000AEEB09010021C2E90313C2E903139CBF8E
:1031A0000121117051687DE7BAF1000FC3D0C1E968
:1031B0000299C0E71EB9764A69B9062608E00029D7
:1031C0003FF47FAE0321417071490A7079E605260C
:1031D0004670117075E602214170167071E6227812
:1031E000002A5BD10022C4E902222270E26ED4F8E8
:1031F000708094F860600192002940F0BE80019ACE
:103200001FE0012A11D9227822B944F62062E26037
:1032100007B92361012131705D490022A2600A7063
:10322000D4E91B2894F860600BE0002AF8D12178DB
:1032300094F8606071B3C4E9022223612270D4E97A
:103240001B28A76E57EA0201019140F09580EA6FB2
:10325000D5F888109A1A591A8A4228BF0A46A3EB51
:1032600008018A4228BF0A46B2F57A7F40F285807B
:1032700095F8781095F884E081F001014EBBBEF11D
:10328000000F0DD18178D4F8882051EA0C0110D1BB
:10329000314630E0C4E902112170D0E72361A1E793
:1032A0003B4A00295AD00121817001991170D4F84C
:1032B00088200021C4E91A1184F860109A1A47F294
:1032C00030518A427CD994F87820002A00F0CC81D1
:1032D000EBE1BEF1000F05D12D4A002940D10626B1
:1032E000867040E0002943D18178D4F8882051EAE3
:1032F0000C013BD17146DFF89CA0DFF89C909AF856
:10330000007095F8786094F878E099F800C0022F82
:1033100044D840F09381BEF1000F00F05D81002998
:1033200000F03E81C4F88830BCF1000F06D0A3EB5A
:1033300008084EF66021884500F22C81002E40F0EE
:1033400043819A1A47F230518A4200F24081236742
:103350000023C4E91A3384F8603031E00521A3E783
:103360000221817001991170D4F888202367A0E7A9
:1033700003228270064AF5E701928178D4F888200A
:103380005CEA010184D0002EF0D192E76C050020A8
:10339000B70400202C000020B804002001B12367EE
:1033A0000022C4E91A2284F86020BEF1000F01D186
:1033B000C4F8883002238AF80030B14B00221A701A
:1033C0002B78B04A63B9117851B1037043708370A0
:1033D000C370AD49FF200870AC490B70A8490B7051
:1033E0001370DBF80010AA4B00201E781A69D3E98D
:1033F0000257002E40F0FC8437B18A1ABA4203D932
:1034000001221A70DE6019610130062803F11803E9
:10341000EBD125785DB901214FF0904002F00DFE0F
:1034200028B101214FF09040657502F0FEFD257E28
:1034300065B902214FF0904002F0FFFD30B102214A
:103440004FF0904084F82D5002F0EFFD94F830508A
:1034500065B904214FF0904002F0EFFD30B1042136
:103460004FF0904084F8455002F0DFFD94F848504A
:1034700065B908214FF0904002F0DFFD30B108211E
:103480004FF0904084F85D5002F0CFFD94F860500A
:1034900065B940214FF0904002F0CFFD30B140219E
:1034A0004FF0904084F8755002F0BFFD94F87850CA
:1034B00065B980214FF0904002F0BFFD30B180210E
:1034C0004FF0904084F88D5002F0AFFD23785BB14F
:1034D00001214FF0904002F0B0FD28B96075012144
:1034E0004FF0904002F09FFD237E63B102214FF028
:1034F000904002F0A2FD30B984F82D0002214FF077
:10350000904002F090FD94F8303063B104214FF008
:10351000904002F092FD30B984F8450004214FF04C
:10352000904002F080FD94F8483063B108214FF0DC
:10353000904002F082FD30B984F85D0008214FF020
:10354000904002F070FD94F8603063B140214FF07C
:10355000904002F072FD30B984F8750040214FF0C0
:10356000904002F060FD94F87830002B00F04D841C
:1035700080214FF0904002F060FD002840F045842B
:1035800084F88D0080214FF0904003B0BDE8F04FEB
:1035900002F049BD3A4F002189F800103970CDE69C
:1035A00066B99A1A47F23056B2427FF6D1AEC4E9F4
:1035B0002011C4F8883084F87810C9E641F28832C6
:1035C000E266019A02B923670023A366F8E6C4E91C
:1035D000206684F87860BAE601B123670021C4E967
:1035E0001A1184F86010017800297FF4E9AE9A1A64
:1035F00042F21076B2427FF6E3AE214E0122BCF1D8
:10360000000F0AD1C4E920CCC4F8883084F87820AF
:1036100089F8002086F800C0D2E6BCF1020F9FBFF7
:103620000CF1010CC4E92011C4F8883084F878202A
:1036300094BF89F800C002703170C1E606789A1A0A
:10364000002E45D1BCF1000F42D0BEF1000F21D1B8
:103650004EF66026B24230D9094A89F800E082F875
:1036600000E039B9C4E91A110023C4E9203384F811
:103670007830A5E6C4E91AEE236784F860E0F3E742
:10368000B7040020B60400202C000020B80400205D
:10369000C000002061B1C4E91A66236784F8606045
:1036A00047F230518A427FF68BAEC4F88830DBE7B0
:1036B000C4E91A1184F86010F2E751B947F23053A7
:1036C0009A42C4E91A1184F860107FF679AECBE70C
:1036D00001B123670021C4E91A1184F8601047F290
:1036E00030518A427FF66CAEBEF1000FDDD1BBE7F0
:1036F000202940F00781994894F800C041780029BA
:1037000077D152EA070E74D12969EA692669591AF4
:103710009A1A914228BF11469E1BB14228BF3146DA
:10372000B1F57A7F65D92A7B95F818808678C178BB
:1037300082F00102BCF1000F3CD1B8F1000F14D1AE
:1037400051EA060E624616D1854E297B3278002951
:103750005BD1BCF1000F00D023610021012AC4E934
:103760000211217064D1FF225CE07E4FA2B30122DE
:10377000427087F800C00027C4E902772770676AA3
:10378000002E62D086781143314340F0B380744AF2
:1037900095F824601178002E40F09A80267E06B1BC
:1037A000A36200230229C4E9083323767FF408AE1C
:1037B000FF2199E0B8F1000F08D1DFF8A8C16AB97C
:1037C00006278CF8002047703A4603E05AB951EAC0
:1037D000060EB9D02361CEE70522C9E70222427066
:1037E0008CF80080F6E75F4F0322427087F800E014
:1037F000F0E742788678C17842EA060E51EA0E0E6A
:10380000A2D0BCF1000FE5D1B5E7012A0FD9BCF178
:10381000000F04D144F62062E26007B92361002161
:10382000A160012232704F4A676A117002E01AB13A
:10383000676A00210A4608E0BCF1000F00D023614E
:10384000C4E90222676A22701146266A57EA060C0A
:1038500098D1AE6A6F6B9E1BDF1BBE4228BF3E46EF
:10386000A76ADF1BBE4228BF3E46B6F57A7F11D954
:1038700095F8246094F818E095F8307086F0010609
:10388000BEF1000F08D12FB1364FB6B101268670B8
:1038900087F800E0002775E73FB9DFF8C8C096B9A0
:1038A000062787708CF80060F4E7002EF2D003261C
:1038B00086702C4E86F800C0ECE74FF0050C80F8BF
:1038C00002C03E70E6E7022686708CF80070E1E7E1
:1038D00002290DD9217E21B944F62061616207B920
:1038E000A36200232362022111701E4A137067E550
:1038F0003FF466AD227E02B1A3620023C4E908331F
:1039000023765DE521297FF46CAD1449487860BBCE
:103910003A432AD12A69E8699A1A181A824228BFBA
:1039200002462069181A824228BF0246B2F57A7F01
:103930001BD92A7B2678287E82F0010246B9A0B1E5
:103940000848002A31D001224A70002202700CE09F
:1039500050B904485ABB0622F6E700BFB90400205C
:103960002C000020B70400201ABB91F801C08E780B
:10397000C8784CEA0602024321D1DFF8CCE22E7B64
:103980009EF80020002E62D1267806B12361012A1C
:1039900002BFFF228EF80020AA4A4FF00006C4E9B9
:1039A0000266267008BF167061E00522CCE702228D
:1039B000CAE703224A70A34A00201070D5E7227894
:1039C000002A63D10022C4E902222270626A2EBB5F
:1039D000276A174322D1AA6A6E6B9A1A9E1BB242BB
:1039E00028BF3246A66A9E1BB24228BF3246B2F5B5
:1039F0007A7F12D995F8242094F818E095F8306071
:103A000082F00102BEF1000F42D136B18D4E002A84
:103A10004CD001228A7086F800E000228E784CEAB1
:103A2000000737434CEA060C48D1874895F824E054
:103A30000678BEF1000F53D1227E02B1A3620022AC
:103A4000022EC4E9082222765BD1FF2654E0012A27
:103A50000FD9227822B944F62062E26007B92361C7
:103A600001268EF80060774E0022A2603270626AF2
:103A7000AEE7002AFBD1267826B1C4E902222361F1
:103A80002270F4E7C4E902662670F0E7236199E743
:103A90002EB96C4F72B906268E703A70BDE7002AB7
:103AA000BBD003228A70674A1770B6E705278F706C
:103AB0003270B2E702228A703E70AEE7227E002AA0
:103AC0005BD10022C4E908222276E26ED4F870802D
:103AD00094F860600192002840F0BF80019A1FE0D6
:103AE000022E0DD9267E26B944F62066666202B9FA
:103AF000A36200222262022606705248027000E091
:103B000004D1D4E91B2894F8606009E0227E94F87F
:103B1000606072B3C4E90877A3622776D4E91B28F2
:103B2000A76E57EA0200019040F09680EA6FD5F840
:103B300088009A1A181A824228BF0246A3EB08008E
:103B4000824228BF0246B2F57A7F40F2868095F81D
:103B5000780095F884E080F001004EBBBEF1000FC4
:103B60000DD1C878D4F888205CEA000010D1304626
:103B700030E0C4E908222276D0E7A362A1E7314A07
:103B8000002855D00120C87001981070D4F8882002
:103B90000020C4E91A0084F860009A1A47F23050F5
:103BA000824275D994F87820002A00F0E780FCE082
:103BB000BEF1000F05D1234A00283BD10626CE7066
:103BC0003BE0002844D1C878D4F8882050EA0C00A3
:103BD00036D17046DFF870A0DFF870909AF8007068
:103BE00095F8786094F878E099F800C0032F3DD8F4
:103BF00040F0AE80BEF1000F7AD000285DD0C4F84E
:103C00008830BCF1000F05D0A3EB08084EF6602009
:103C100080454CD8002E63D19A1A47F23050824228
:103C200061D823670023C4E91A3384F860302FE099
:103C30000520A8E70220C87001981070D4F88820E9
:103C40002367A5E7B70400202C000020B80400205B
:103C50000322CA706E4AEFE70192C878D4F8882030
:103C600050EA0C0083D0002EEAD191E700B123671F
:103C70000022C4E91A2284F86020BEF1000F01D1AD
:103C8000C4F8883003238AF80030614B00221A7090
:103C90002B78604A002B7FF4A3AB107800283FF408
:103CA0009FAB0B704B708B70CB70FFF792BB584F74
:103CB000002089F800003870ACE75EB99A1A47F224
:103CC0003056B242AED9C4E92000C4F8883084F836
:103CD0007800A7E741F28832E266019A02B92367C9
:103CE0000023A366D4E7C4E9206684F8786098E7E7
:103CF00000B123670020C4E91A0084F86000087846
:103D00000028C5D19A1A42F21076B242C0D9404E6C
:103D10000122BCF1000F0AD1C4E920CCC4F88830DC
:103D200084F8782089F8002086F800C0B0E7BCF15C
:103D3000020F9FBF0CF1010CC4E92000C4F88830C9
:103D400084F8782094BF89F800C00A7030709FE72B
:103D50000E789A1A002E3BD1BCF1000F38D0BEF17C
:103D6000000F17D14EF66026B24226D9284A89F8AC
:103D700000E082F800E038B9C4E91A000023C4E981
:103D8000203384F8783083E7C4E91AEE236784F897
:103D900060E0F3E760B1C4E91A66236784F8606005
:103DA00047F2305082427FF673AFC4F88830E5E7BF
:103DB000C4E91A0084F86000F2E750B947F23053C2
:103DC0009A42C4E91A0084F860007FF661AFD5E733
:103DD00000B123670020C4E91A0084F8600047F2AC
:103DE000305082427FF654AFBEF1000FDDD1C5E7FF
:103DF000002D3FF409AB8A1AAA427FF605AB0022D8
:103E0000C3E902221A70FFF7FEBA03B0BDE8F08FD3
:103E1000B7040020B60400202DE9F04FC64B93F8FC
:103E200000B0C64B0C22BBFBF2F802FB18B85FFADD
:103E300088F802FB08F2991887B0097A002940F047
:103E4000A880BF4F9A5CBA70BE4A167801213970BB
:103E5000FF2E4144797000F09780BB490A88002A00
:103E600000F09280B94CBA4BDFF80C931D88013AF0
:103E70000A8022680192511C484200F01F0001F0A4
:103E80001F0158BF41422160B2490988ADF81410A2
:103E90004FF4967405A85021FCF72EFAB5FBF4F107
:103EA00004FB115189B24FF0500C09F801C03146A2
:103EB000FCF722FA691C89B2B1FBF4FC04FB1C116B
:103EC00089B209F80160A44E96F800A05146FCF7AB
:103ED00013FAA91C89B2B1FBF4FC04FB1C1189B2D2
:103EE00009F801A00AF1010A032186F800A0FCF7F5
:103EF00003FAE91C89B2B1FBF4F004FB101189B29A
:103F00000320BA46EE1D2F1D09F80100019ABFB229
:103F1000B6B21AF8011B029205A80191FCF7ECF960
:103F2000B7FBF4F004FB1070013780B2BFB2019907
:103F300009F80010BE42029A804BEAD1B6FBF4F1B8
:103F400004FB1166B6B29DF8141009F8061005F1CD
:103F5000080189B2B1FBF4F004FB101189B29DF89D
:103F6000150009F801007A4805F1090101807B4933
:103F700021F812507A49092088547A49102088542F
:103F800079490A8801320A800C2202FB0833012297
:103F90001A72694B0BF1010B83F800B0734B1B785D
:103FA000002B40F0BC81724BDFF8D0B11B7801933D
:103FB000019A0623B2FBF3F603FB1626F6B218228B
:103FC00072430BEB0201487D002840F0E080694D10
:103FD0001BF80220AA700A7DEA704A682A71110A49
:103FE0006971110C120EEA71564A287092F800801D
:103FF000A971701CB8F1FF0F687000F0C3805249BE
:104000000A88002A00F0BE80504C514BDFF868A1AE
:104010001F88013A0A8022680292511C484200F02F
:104020001F0001F01F0158BF414221604949098822
:10403000ADF814104FF4967405A85021FCF75CF904
:10404000B7FBF4F104FB117189B24FF0500C0AF880
:1040500001C04146FCF750F9791C89B2B1FBF4FC70
:1040600004FB1C1189B20AF80180DFF8EC8098F893
:1040700000904946FCF740F9B91C89B2B1FBF4FC49
:1040800004FB1C1189B20AF8019009F10109082109
:1040900088F80090FCF730F9F91C89B2B1FBF4F014
:1040A00004FB101189B2082007F1040907F10C087C
:1040B0000AF80100029A1FFA89F91FFA88F815F820
:1040C000011B039205A80291FCF716F9B9FBF4F065
:1040D00004FB109009F1010980B21FFA89F90299D5
:1040E0000AF80010C845039AE9D1B8FBF4F104FBC3
:1040F00011881FFA88F89DF814100AF8081007F1C3
:104100000D0189B2B1FBF4F004FB101189B29DF8E6
:1041100015000F4B0AF8010007F10E0119800F4935
:1041200021F812700E490E2088540E491020885430
:104130000D490A8824E000BFCD040020D4040020EB
:10414000CE0400205601002058010020180800204D
:10415000E2060020986E0008BD0500205C080020E3
:104160003C0800201C080020100800205C010020F2
:1041700064050020B4050020E4060020C0000020F3
:1041800001320A80182202FB06B301225A75DFF8B9
:1041900074B30C2272430BEB0201087A002840F042
:1041A000BA80C84D1BF80220AA704A68EA70110A4A
:1041B0002971110C120EAA71C34A697192F800801C
:1041C00002202870B8F1FF0F06F10100687000F0BE
:1041D0009D80BE490A88002A00F09880BC4CBD4BE7
:1041E000DFF824A31F88013A0A8022680292511C3A
:1041F000484200F01F0001F01F0158BF41422160FA
:10420000B5490988ADF814104FF4967405A85021EB
:10421000FCF772F8B7FBF4F104FB117189B24FF0AF
:10422000500C0AF801C04146FCF766F8791C89B2C7
:10423000B1FBF4FC04FB1C1189B20AF80180DFF821
:10424000CC8298F800904946FCF756F8B91C89B220
:10425000B1FBF4FC04FB1C1189B20AF8019009F1CE
:104260000109072188F80090FCF746F8F91C89B28B
:10427000B1FBF4F004FB101189B2072007F1040927
:1042800007F10B080AF80100029A1FFA89F91FFAD0
:1042900088F815F8011B039205A80291FCF72CF889
:1042A000B9FBF4F004FB109009F1010980B21FFA88
:1042B00089F902990AF80010C845039AE9D1B8FBB8
:1042C000F4F104FB11881FFA88F89DF814100AF81D
:1042D000081007F10C0189B2B1FBF4F004FB1011D6
:1042E00089B29DF815007B4B0AF8010007F10D011A
:1042F00019807A4921F8127079490D20885479493A
:104300001020885478490A8801320A800C2202FB66
:1043100006B301221A72019B744A01331370744B65
:104320001A78002A41F0CB81724D734803232B7019
:1043300001236B700E21022310F8014BEC54013263
:104340000133062A93FBF1F401FB1433F4D16B49DA
:1043500000224FF00E0811F8010BE854013201332E
:10436000062A93FBF8F008FB1033F4D1564B1C7867
:10437000FF2C00F09E80554A1388002B00F0998096
:104380005348DFF884A1D0F800B0DFF88091013BFA
:1043900013800BF10102514201F01F014D4B02F05D
:1043A0001F0258BF4A4202604B4A1F881288ADF86C
:1043B00014204FF4967605A85021FBF79DFFB7FB1C
:1043C000F6F206FB127292B250210AF80210214650
:1043D000FBF792FF7A1C92B2B2FBF6F106FB1122B8
:1043E00092B299F800100AF802400191FBF784FF9D
:1043F000BA1C92B2B2FBF6FC06FB1C22019992B2E7
:104400000AF80210013189F800100E21FBF774FF41
:10441000FA1C92B2B2FBF6F106FB112292B207F13E
:1044200004090AF8028007F11208324A1FFA89F9D2
:104430001FFA88F812F8011B05A8CDE90112FBF755
:104440005BFFB9FBF6F006FB109009F1010980B2A1
:104450001FFA89F901990AF80010C845029AE9D1B2
:10446000B8FBF6F206FB12881FFA88F89DF81420B4
:104470000AF8082007F1130292B2B2FBF6F106FB2C
:10448000112292B29DF81510124B0AF8021007F192
:1044900014021A80114A22F81B70114A142102F8E2
:1044A0000B10104A102102F80B100F4A1388013329
:1044B000138003232B70124802236B7000220E21FD
:1044C00026E000BF650500205601002058010020AD
:1044D00018080020E2060020986E00085C08002002
:1044E0003C0800201C080020100800206405002063
:1044F000BE040020BF0400202D0000207500002015
:10450000320000206C050020E4060020BD050020DC
:1045100010F8016FEE5401320133062A93FBF1F6D5
:1045200001FB1633F4D1CD4900224FF00E0811F8EB
:10453000010FE85401320133062A93FBF8F008FB1F
:104540001033F4D1FF2C00F09E80C54A1388002B55
:1045500000F09980C348DFF83CA3D0F800B0DFF842
:104560003893013B13800BF10102514201F01F010E
:10457000BD4B02F01F0258BF4A420260BB4A1F886F
:104580001288ADF814204FF4967605A85021FBF759
:10459000B3FEB7FBF6F206FB127292B250210AF894
:1045A00002102146FBF7A8FE7A1C92B2B2FBF6F18C
:1045B00006FB112292B299F800100AF8024001910C
:1045C000FBF79AFEBA1C92B2B2FBF6FC06FB1C2269
:1045D000019992B20AF80210013189F800100E21F7
:1045E000FBF78AFEFA1C92B2B2FBF6F106FB11222F
:1045F00092B207F104090AF8028007F112089C4AF6
:104600001FFA89F91FFA88F812F8011B05A8CDE9ED
:104610000112FBF771FEB9FBF6F006FB109009F1F1
:10462000010980B21FFA89F901990AF80010C845FA
:10463000029AE9D1B8FBF6F206FB12881FFA88F855
:104640009DF814200AF8082007F1130292B2B2FB79
:10465000F6F106FB112292B29DF81510824B0AF872
:10466000021007F114021A80824A22F81B70824A53
:10467000142102F80B10814A102102F80B10804A15
:1046800013880133138003237E482B706B70002244
:1046900002230E2110F8016FEE5401320133062A75
:1046A00093FBF1F601FB1633F4D1774900224FF06A
:1046B0000E0811F8010FE85401320133062A93FB6A
:1046C000F8F008FB1033F4D1FF2C00F09E80644A10
:1046D0001388002B00F099806248DFF8B8A1D0F869
:1046E00000B0DFF8B491013B13800BF1010251429D
:1046F00001F01F015C4B02F01F0258BF4A420260EA
:104700005A4A1F881288ADF814204FF4967605A8EF
:104710005021FBF7F1FDB7FBF6F206FB127292B2E5
:1047200050210AF802102146FBF7E6FD7A1C92B2EE
:10473000B2FBF6F106FB112292B299F800100AF8CA
:1047400002400191FBF7D8FDBA1C92B2B2FBF6FC15
:1047500006FB1C22019992B20AF80210013189F875
:1047600000100E21FBF7C8FDFA1C92B2B2FBF6F165
:1047700006FB112292B207F104090AF8028007F140
:1047800012083B4A1FFA89F91FFA88F812F8011B30
:1047900005A8CDE90112FBF7AFFDB9FBF6F006FB6A
:1047A000109009F1010980B21FFA89F901990AF8FC
:1047B0000010C845029AE9D1B8FBF6F206FB128850
:1047C0001FFA88F89DF814200AF8082007F1130250
:1047D00092B2B2FBF6F106FB112292B29DF81510CF
:1047E000214B0AF8021007F114021A80214A22F81C
:1047F0001B70214A142102F80B10204A102102F8E4
:104800000B101F4A13880133138003232B701F489A
:1048100004236B70002202230E2110F8016FEE5466
:1048200001320133062A93FBF1F601FB1633F4D172
:10483000174900224FF00E0811F8010FE854013219
:104840000133062A93FBF8F008FB1033F4D1FF2C58
:1048500000F0C080024A138820E000BF7A000020E8
:104860005801002018080020E2060020986E000879
:10487000BF0400205C0800203C0800201C08002029
:104880001008002038000020800000203E0000209A
:1048900086000020E4060020BD050020002B00F06B
:1048A0009980CD48DFF864A3D0F800B0DFF86093BA
:1048B000013B13800BF10102514201F01F01C74B74
:1048C00002F01F0258BF4A420260C54A1F88128880
:1048D000ADF814204FF4967605A85021FBF70CFD97
:1048E000B7FBF6F206FB127292B250210AF80210E0
:1048F0002146FBF701FD7A1C92B2B2FBF6F106FBF2
:10490000112292B299F800100AF802400191FBF7C7
:10491000F3FCBA1C92B2B2FBF6FC06FB1C22019916
:1049200092B20AF80210013189F800100E21FBF74B
:10493000E3FCFA1C92B2B2FBF6F106FB112292B232
:1049400007F104090AF8028007F11208A54A1FFAC4
:1049500089F91FFA88F812F8011B05A8CDE90112A0
:10496000FBF7CAFCB9FBF6F006FB109009F1010950
:1049700080B21FFA89F901990AF80010C845029A15
:10498000E9D1B8FBF6F206FB12881FFA88F89DF809
:1049900014200AF8082007F1130292B2B2FBF6F1D4
:1049A00006FB112292B29DF815108C4B0AF80210EA
:1049B00007F114021A808C4A22F81B708B4A1421CA
:1049C00002F80B108A4A102102F80B10894A13884A
:1049D0000133138003232B70874805236B7000225B
:1049E00002230E2110F8016FEE5401320133062A22
:1049F00093FBF1F601FB1633F4D1804900224FF00E
:104A00000E0811F8010FE85401320133062A93FB16
:104A1000F8F008FB1033F4D1FF2C00F09E80784AA8
:104A20001388002B00F099806B48DFF8E0A1D0F8E4
:104A300000B0DFF8DC91013B13800BF10102514221
:104A400001F01F01654B02F01F0258BF4A4202608D
:104A5000634A1F881288ADF814204FF4967605A893
:104A60005021FBF749FCB7FBF6F206FB127292B23B
:104A700050210AF802102146FBF73EFC7A1C92B244
:104A8000B2FBF6F106FB112292B299F800100AF877
:104A900002400191FBF730FCBA1C92B2B2FBF6FC6B
:104AA00006FB1C22019992B20AF80210013189F822
:104AB00000100E21FBF720FCFA1C92B2B2FBF6F1BB
:104AC00006FB112292B207F104090AF8028007F1ED
:104AD0001208444A1FFA89F91FFA88F812F8011BD4
:104AE00005A8CDE90112FBF707FCB9FBF6F006FBC0
:104AF000109009F1010980B21FFA89F901990AF8A9
:104B00000010C845029AE9D1B8FBF6F206FB1288FC
:104B10001FFA88F89DF814200AF8082007F11302FC
:104B200092B2B2FBF6F106FB112292B29DF815107B
:104B30002A4B0AF8021007F114021A802A4A22F8B6
:104B40001B702A4A142102F80B10294A102102F87E
:104B50000B10284A13880133138003232B70294834
:104B600006236B70002202230E2110F8016FEE5411
:104B700001320133062A93FBF1F601FB1633F4D11F
:104B8000214900224FF00E0911F8010FE8540132BB
:104B90000133062A93FBF9F009FB1033F4D1FF2C03
:104BA000104E00F0C280164A1388002B00F0BD8022
:104BB0000948DFF858B0DFF858A0013B13800368BC
:104BC00002935A1C514201F01F01044B02F01F02D4
:104BD00058BF4A421EE000BF18080020E20600202D
:104BE000986E0008BF0400205C0800203C080020EC
:104BF0001C08002010080020440000208C00002029
:104C0000580100204A00002092000020E406002005
:104C1000BD0500200260D04AB3F800801288ADF8CC
:104C200014204FF4967705A85021FBF765FBB8FBDD
:104C3000F7F207FB128292B250210BF802102146C4
:104C4000FBF75AFB08F1010292B2B2FBF7F107FB46
:104C5000112292B29AF800100BF802400191FBF772
:104C60004BFB08F1020292B2B2FBF7FC07FB1C22DD
:104C7000019992B20BF8021001318AF800100E214E
:104C8000FBF73AFB08F1030292B2B2FBF7F107FB24
:104C9000112292B208F1040A0BF80290029B08F16B
:104CA000120932461FFA8AFA1FFA89F912F8011B13
:104CB000039305A8CDE90112FBF71EFBBAFBF7F041
:104CC00007FB10A00AF1010A80B21FFA8AFA0199C3
:104CD0000BF80010D145DDE90223E7D1B9FBF7F26B
:104CE00007FB12991FFA89F99DF814200BF8092087
:104CF00008F1130292B2B2FBF7F107FB112292B254
:104D00009DF815100BF80210944908F114020A805E
:104D1000934A22F81380934A1421D154924A1021C5
:104D2000D154924A13880133138003232B70904887
:104D300007236B70002202230E2110F8015FF55447
:104D400001320133062A93FBF1F501FB1533F4D14F
:104D5000884900224FF00E0811F8010FF05401327B
:104D60000133062A93FBF8F008FB1033F4D1FF2C33
:104D700000F09E80804A1388002B00F099807F48C5
:104D8000DFF808A2D0F800B0DFF80492013B1380EE
:104D90000BF10102514201F01F01704B02F01F02A2
:104DA00058BF4A4202606C4A1F881288ADF814202E
:104DB0004FF4967505A85021FBF79EFAB7FBF5F264
:104DC00005FB127292B250210AF802102146FBF73D
:104DD00093FA7A1C92B2B2FBF5F105FB112292B262
:104DE00099F800100AF802400191FBF785FABA1C05
:104DF00092B2B2FBF5FC05FB1C22019992B20AF8B3
:104E00000210013189F800100E21FBF775FAFA1C27
:104E100092B2B2FBF5F105FB112292B207F104093F
:104E20000AF8028007F11208554A1FFA89F91FFA99
:104E300088F812F8011B05A8CDE90112FBF75CFA0E
:104E4000B9FBF5F005FB109009F1010980B21FFADA
:104E500089F901990AF80010C845029AE9D1B8FB0E
:104E6000F5F205FB12881FFA88F89DF814200AF85D
:104E7000082007F1130292B2B2FBF5F105FB1122F3
:104E800092B29DF81510354B0AF8021007F1140282
:104E90001A80334A22F81B70324A142102F80B1090
:104EA000314A102102F80B10304A13880133138065
:104EB00003233370334808237370002202230E212A
:104EC00010F8015FF55401320133062A93FBF1F526
:104ED00001FB1533F4D12C4900224FF00E0811F8D4
:104EE000010FF05401320133062A93FBF8F008FB5E
:104EF0001033F4D1FF2C00F0BE801F4A1388002B22
:104F000000F0B9801D48DFF884A0D0F800B0DFF8C9
:104F10008090013B13800BF10102514201F01F010F
:104F20000E4B02F01F0258BF4A4202600A4A1F8815
:104F30001288ADF814204FF4967505A85021FBF7A0
:104F4000DBF9B7FBF5F205FB127292B250210AF8B9
:104F5000021021461EE000BF986E0008E206002005
:104F60005C0800203C0800201C08002010080020DD
:104F70005000002098000020580100201808002050
:104F8000BF040020560000209E000020E406002000
:104F9000BD050020FBF7B0F97A1C92B2B2FBF5F127
:104FA00005FB112292B299F800100AF80240019113
:104FB000FBF7A2F9BA1C92B2B2FBF5FC05FB1C226E
:104FC000019992B20AF80210013189F800100E21FD
:104FD000FBF792F9FA1C92B2B2FBF5F105FB112234
:104FE00092B207F104090AF8028007F11208C64AD2
:104FF0001FFA89F91FFA88F812F8011B05A8CDE9F4
:105000000112FBF779F9B9FBF5F005FB109009F1F6
:10501000010980B21FFA89F901990AF80010C84500
:10502000029AE9D1B8FBF5F205FB12881FFA88F85D
:105030009DF814200AF8082007F1130292B2B2FB7F
:10504000F5F105FB112292B29DF81510AF4B0AF84D
:10505000021007F114021A80AD4A22F81B70AD4A03
:10506000142102F80B10AC4A102102F80B10AB4AC5
:1050700013880133138003233370A9480923737005
:10508000002202230E2110F8015FF5540132013392
:10509000062A93FBF1F501FB1533F4D1A149002257
:1050A0004FF00E0811F8010FF05401320133062AB7
:1050B00093FBF8F008FB1033F4D1FF2C00F09E8036
:1050C000994A1388002B00F099809848DFF86CA269
:1050D000D0F800B0DFF86892013B13800BF10102B9
:1050E000514201F01F01894B02F01F0258BF4A4292
:1050F00002608F4A1F881288ADF814204FF496750D
:1051000005A85021FBF7F8F8B7FBF5F205FB127282
:1051100092B250210AF802102146FBF7EDF87A1CF2
:1051200092B2B2FBF5F105FB112292B299F8001090
:105130000AF802400191FBF7DFF8BA1C92B2B2FB09
:10514000F5FC05FB1C22019992B20AF8021001310C
:1051500089F800100E21FBF7CFF8FA1C92B2B2FBCF
:10516000F5F105FB112292B207F104090AF8028059
:1051700007F11208644A1FFA89F91FFA88F812F831
:10518000011B05A8CDE90112FBF7B6F8B9FBF5F054
:1051900005FB109009F1010980B21FFA89F9019904
:1051A0000AF80010C845029AE9D1B8FBF5F205FBF0
:1051B00012881FFA88F89DF814200AF8082007F1D1
:1051C000130292B2B2FBF5F105FB112292B29DF8E7
:1051D00015104E4B0AF8021007F114021A804C4ABF
:1051E00022F81B704B4A142102F80B104A4A102176
:1051F00002F80B10494A13880133138003233370DC
:105200004C480A237370002202230E2110F8015F1C
:10521000F55401320133062A93FBF1F501FB1533F6
:10522000F4D1454900224FF00E0811F8010FF05457
:1052300001320133062A93FBF8F008FB1033F4D156
:10524000FF2C00F0BE80384A1388002B00F0B98094
:105250003648DFF8E8A0D0F800B0DFF8E490013B72
:1052600013800BF10102514201F01F01274B02F0A4
:105270001F0258BF4A4202602D4A1F881288ADF8AB
:1052800014204FF4967505A85021FBF735F8B7FBAD
:10529000F5F205FB127292B250210AF80210214673
:1052A000FBF72AF87A1C92B2B2FBF5F105FB11224A
:1052B00092B299F800100AF802400191FBF71CF82D
:1052C000BA1C92B2B2FBF5FC05FB1C22019992B20A
:1052D0000AF80210013189F800100E21FBF70CF8D2
:1052E000FA1C92B2B2FBF5F105FB112292B207F162
:1052F00004090AF8028007F11208034A1FFA89F923
:105300001FFA88F81EE000BFBF040020E20600205C
:105310005C0800203C0800201C0800201008002029
:105320005C000020A4000020580100201808002084
:10533000986E000862000020AA000020E406002009
:10534000BD05002012F8011B05A8CDE90112FAF7EE
:10535000D3FFB9FBF5F005FB109009F1010980B20C
:105360001FFA89F901990AF80010C845029AE9D193
:10537000B8FBF5F205FB12881FFA88F89DF8142097
:105380000AF8082007F1130292B2B2FBF5F105FB0F
:10539000112292B29DF81510CD4B0AF8021007F1B8
:1053A00014021A80CB4A22F81B70CB4A142102F84F
:1053B0000B10CA4A102102F80B10C94A1388013396
:1053C000138003233370C7480B237370002202231A
:1053D0000E2110F8015FF55401320133062A93FBC8
:1053E000F1F501FB1533F4D1BF4900224FF00E084F
:1053F00011F8010FF05401320133062A93FBF8F043
:1054000008FB1033F4D1FF2C00F09E80B74A1388BC
:10541000002B00F09980B648DFF8E8A2D0F800B081
:10542000DFF8E492013B13800BF10102514201F0DD
:105430001F01A74B02F01F0258BF4A420260AD4A4B
:105440001F881288ADF814204FF4967505A85021D6
:10545000FAF752FFB7FBF5F205FB127292B2502138
:105460000AF802102146FAF747FF7A1C92B2B2FB03
:10547000F5F105FB112292B299F800100AF80240EA
:105480000191FAF739FFBA1C92B2B2FBF5FC05FBA9
:105490001C22019992B20AF80210013189F8001019
:1054A0000E21FAF729FFFA1C92B2B2FBF5F105FBC7
:1054B000112292B207F104090AF8028007F11208DA
:1054C0008D4A1FFA89F91FFA88F812F8011B05A8FE
:1054D000CDE90112FAF710FFB9FBF5F005FB1090CA
:1054E00009F1010980B21FFA89F901990AF800103F
:1054F000C845029AE9D1B8FBF5F205FB12881FFAFC
:1055000088F89DF814200AF8082007F1130292B2D7
:10551000B2FBF5F105FB112292B29DF815106C4B10
:105520000AF8021007F114021A806A4A22F81B7066
:10553000694A142102F80B10684A102102F80B1076
:10554000674A138801331380032333706B480C239D
:105550007370002202230E2110F8015FF55401320E
:105560000133062A93FBF1F501FB1533F4D16449AD
:1055700000224FF00E0911F8010FF05401320133EF
:10558000062A93FBF9F009FB1033F4D1FF2C00F04D
:105590009680564A1388002B00F091805449DFF81A
:1055A0003081D1F800A0B8F80060564F013B13805D
:1055B0000AF101035A4202F01F0203F01F0358BF11
:1055C00053420B604B4B4FF4967505A81B88ADF802
:1055D00014305021FAF790FEB6FBF5F305FB136388
:1055E0009BB250222146FA54FAF786FE731C9BB2F6
:1055F000B3FBF5F205FB12339BB2FC54424C94F81A
:1056000000B05946FAF778FEB31C9BB2B3FBF5F233
:1056100005FB12339BB20E2107F803B00BF1010B0F
:1056200084F800B0FAF768FEF31C9BB2B3FBF5F206
:1056300005FB12339BB206F1120407F80390DFF862
:10564000B8B006F104091FFA89F9A4B21BF8011BCE
:10565000019105A8FAF750FEB9FBF5F305FB13938A
:1056600009F101099BB21FFA89F90199F9544C45D6
:10567000ECD1B4FBF5F305FB1344A4B29DF8143050
:105680003B5506F113039BB2B3FBF5F205FB123356
:105690009BB29DF81520FA5406F11403A8F80030C7
:1056A0000C4B23F81A600C4B142203F80A200B4B06
:1056B000102203F80A200A4A138801331380134A80
:1056C000DFF84C800123137098F8003022E000BF0F
:1056D000E20600205C0800203C0800201C08002096
:1056E0001008002068000020B000002058010020B1
:1056F00018080020986E0008BF0400206E000020EB
:10570000B6000020E4060020BD050020BE040020F5
:10571000B7040020002B40F0B5805C4D04232B70B3
:105720005B4B1B786B705B4B1B78AB705A4B1B78D9
:10573000EB705A4B1A782A715A786A719A78DB782A
:10574000EB71574BAA711F78FF2F00F09880554AD4
:105750001388002B00F093805349DFF86891D1F84B
:1057600000B0B9F80060DFF860A1013B13800BF1D5
:1057700001035A4202F01F0203F01F0358BF5342B5
:105780000B604A4B4FF4967405A81B88ADF8143093
:105790005021FAF7B1FDB6FBF4F304FB13639BB29F
:1057A000502239460AF80320FAF7A6FD731C9BB273
:1057B000B3FBF4F204FB12339BB20AF803703C4FC4
:1057C00039780191FAF798FDB31C9BB2B3FBF4F260
:1057D00004FB123301999BB20AF8031001313970AE
:1057E0000821FAF789FDF31C9BB2B3FBF4F204FB2A
:1057F00012339BB208220AF8032006F10C072A464E
:10580000351DADB2BFB212F8011B05A8CDE90112DA
:10581000FAF772FDB5FBF4F304FB135301359BB2A9
:10582000ADB201990AF80310AF42029AEBD1B7FB6F
:10583000F4F304FB1377BFB29DF814300AF8073075
:1058400006F10D039BB2B3FBF4F204FB12339BB2DF
:105850009DF815200AF8032006F10E03A9F8003080
:10586000144B23F81B60144B0E2203F80B20134B30
:10587000102203F80B20124A1388013313800123EE
:1058800088F8003007B0BDE8F08F00BFAE040020FC
:10589000BD0400202C000020B8040020B904002022
:1058A000560100205801002018080020986E0008BA
:1058B000BD0500205C0800203C0800201C080020DA
:1058C00010080020E2060020E40600203B4B3C4A82
:1058D0002DE9F347197819B164211170002119706D
:1058E0001378002B67D0591E012B117063D100F083
:1058F000DFFA3448344E354F00F006FB344B1B883A
:10590000ADF80430334B1C7801A82146FAF7F4FCBB
:1059100000F0CEFA21462B4800F012FB042404F1DB
:10592000006505F53C45B04604EB070A18F8019BF5
:1059300001A84946FAF7E0FC00F0BAFA28464946C1
:10594000043500F0FDFA5545F0D11834B4F5927FD6
:1059500006F10606E3D1204E04F1006505F53C454D
:10596000B04604EB070A18F8019B01A84946FAF76C
:10597000C3FC00F09DFA28464946043500F0E0FAE1
:105980005545F0D11834B4F5117F06F10606E3D180
:105990009DF8044000F08CFA2146104800F0D0FA3F
:1059A0009DF8054000F084FA0D48214602B0BDE89C
:1059B000F04700F0C5BA02B0BDE8F08765030020EB
:1059C0006403002000BC00082D00002018BC000863
:1059D000986E0008BD0400207500002044BE000839
:1059E00048BE00082DE9F04F6B4B1A7885B0002AAD
:1059F00040F0CE80694B6A4E5A70F42119709A704B
:105A0000DA7011460C25012705FB01F0305C50B11E
:105A1000CC10013401F0070013F804C007FA00F0BD
:105A200040EA0C00185501310C29EDD1D9785D4EB2
:105A300000201825012705FB00F4345D24B107FA86
:105A400000F21143C9B2224601300628F3D102B157
:105A5000D970554B1E78FF2E00F09A80534A138858
:105A6000002B00F095805249524FD1F800903D88AC
:105A7000DFF85C81DFF824B1013B138009F10103F9
:105A80005A4202F01F0203F01F0358BF53420B603B
:105A9000494B4FF4967403A81B88ADF80C30502185
:105AA000FAF72AFCB5FBF4F304FB13539BB2502224
:105AB000314608F80320FAF71FFC6B1C9BB2B3FBBE
:105AC000F4F204FB12339BB208F803603B4E96F8E5
:105AD00000A05146FAF710FCAB1C9BB2B3FBF4F2EA
