:020000040800F2
:10000000D8020020ED490008394A0008394A0008A2
:10001000394A0008394A0008394A0008000000003F
:10002000000000000000000000000000394A000845
:10003000394A000800000000394A0008A9010008F8
:1000400000000000394A0008394A0008394A00080F
:10005000394A0008394A0008394A0008394A000874
:10006000394A0008394A0008B5370008394A0008FB
:10007000394A0008394A0008394A0008394A000854
:10008000394A0008394A000800000000394A0008CF
:10009000394A0008394A0008394A0008452E000844
:1000A000394A0008394A0008394A0008394A000824
:1000B000B902000800000000394A000800000000F2
:1000C0009D2F000800000000394A0008394A000846
:1000D000394A000800000000000000000000000095
:1000E0000000000000000000394A00080000000085
:1000F0000000000000000000000000000000000000
:10010000394A00080000000000000000394A0008D9
:1001100000000000000000000000000000000000DF
:1001200000000000000000000000000000000000CF
:1001300000000000000000000000000000000000BF
:10014000000000000000000000000000394A000824
:1001500053B94AB9002908BF00281CBF4FF0FF312E
:100160004FF0FF3000F00CB8ADF1080C6DE904CE93
:1001700004F070FDDDF804E0DDE9022304B070470F
:10018000704700BF4FF0E023054A5A61054AF0214D
:1001900082F8231000229A6107221A61704700BF7B
:1001A0001E48010000ED00E0024A136801331360AD
:1001B000704700BF840A0020F8B5144B6FF03A0274
:1001C000D3F8E017D3F8AC07D3F8B067D3F8B47717
:1001D0004FF6FF73FFF7BCFF384614461D466FF01D
:1001E0003A024FF6FF733146FFF7B2FF084862400C
:1001F0006B400021013100F8012B06294FEA122241
:1002000042EA03624FEA1323F4D1F8BD00F0FF1F66
:100210007C0A002008B540F2115003F0F9FE0823D3
:10022000032200214FF0904003F030FD082300220C
:1002300002214FF0904003F007FDBDE8084008227E
:1002400001214FF0904003F05CBD08B540F2115021
:1002500003F0DEFE0423032200214FF0904003F060
:1002600015FD0423002202214FF0904003F0ECFC26
:10027000BDE80840042201214FF0904003F041BD49
:1002800008B500221C20114603F074FEBDE80840AA
:1002900040F2117003F0BCBE037810B55940044C15
:1002A000044B5A5C4378615C42704B40037010BD54
:1002B0001C5A00081C590008F8B55749574804F063
:1002C0006BFB064640B1554840F2017104F047FB14
:1002D0005149524804F076FB5149504804F05CFB08
:1002E000074640B14D4840F2027104F038FB4C49DA
:1002F0004A4804F067FB4B49484804F04DFB05466B
:1003000040B1464840F2037104F029FB4549434897
:1003100004F058FB4449414804F03EFB044640B118
:100320003E484FF4E06104F01AFB3F493B4804F0BB
:1003300049FB3E49394804F02FFBB8B1374840F239
:10034000037104F00CFB3949344804F03BFB72B6EE
:10035000374A00231360374A1360374A202111803F
:10036000364A138062B6364A137005E03E43354381
:100370002C43E4B2002CEAD13249284804F00CFBAB
:1003800008B32D4A1388D3B12A4924480C68013B8D
:100390001380631C5A4202F01F0203F01F0358BF70
:1003A00053420B6004F0D7FA274B23F81400274B75
:1003B0001A68274B1A60214A138801331380214998
:1003C000164804F0FFFA2349144804F0E5FA10B384
:1003D000214D224B2C881B88A34214D94FF49672CE
:1003E000B4FBF2F302FB13439BB21D4A0B4832F8F5
:1003F0001310013404F0ABFA2C80BDE8F840154925
:10040000064804F0DFBA0548072104F0BAFA154B94
:1004100000221A70F1E7F8BD000201070044004015
:100420000002020700020307080000070500030797
:10043000340A0020380A0020CE000020300A0020B4
:1004400029060020050005073C0A0020840A002038
:100450002C06002007000707D6070020D40700203D
:10046000D807002030060020214B10B51A46F02195
:1004700002F8011B1F49204C08688988C3F8010055
:1004800091801E4A1278DA711D4A204611785278FE
:1004900019725A7204F0DCF92046042104F04FFA74
:1004A0002046082104F043FA2046052104F05FFAB3
:1004B00020464FF4007104F05AFA2046082104F057
:1004C00056FA20464FF4E13104F0DEF920460021CF
:1004D00004F010FA2046002104F018FA204600210A
:1004E00004F0FCF92046BDE8104004F01BBA00BF40
:1004F000310600207C0A002000440040D200002089
:10050000D00000202DE9F04F8F4B1A888DB0002AC3
:100510002ED072B61A88013A1A8062B68B480168EA
:100520004B1C5A4202F01F0203F01F0358BF5342F4
:100530000360874B33F8114086490B78DBB9A52C53
:1005400010D101220A70844984480A7084490B70D2
:1005500084490B70844B21461A70FF23037043704B
:10056000FFF79AFE72B6814A13880133138062B690
:100570000DB0BDE8F08F012BF4D1774E3378012B0D
:1005800013D1FF2C774B07D9002174481970FFF75E
:1005900083FE03233370E5E7E1B270481970FFF77B
:1005A0007BFE002CF5D00223F4E7022B19D16C4816
:1005B0000378B4F5807F28BF0024FF22B3FBF2F25A
:1005C0001A440133DDB2E1B202F0FF02684C05705B
:1005D0006248A154FFF760FE624B1B78AB42C1D169
:1005E000D7E7032B0CD15D4BB4F5807F1B7828BF78
:1005F00000249C421EBF5C4B00221A700423C9E7F2
:10060000042BAFD1574B584A1D781278534B5B7867
:10061000002A00F09480B4F5807F28BF00249C421B
:1006200040F08D80002D00F08A80514F3C78002CE6
:1006300040F0B480022D40F082804E4A1388002B97
:100640007AD04D49DFF84CB1D1F800A0BBF800805A
:10065000DFF84491013B13800AF101035A4202F092
:100660001F0203F01F0358BF53420B60434B4FF46C
:1006700096760BA81B88ADF82C30A521FFF70CFE51
:10068000B8FBF6F306FB13839BB2A522294609F8B3
:100690000320FFF701FE08F101039BB2B3FBF6F262
:1006A00006FB12339BB2214609F803507D786B1E7E
:1006B0005A425A41324B1A70FFF7EEFD08F102031D
:1006C0009BB2B3FBF6F206FB12339BB2294609F844
:1006D0000340FFF7E1FD08F103039BB2B3FBF6F221
:1006E00006FB12339BB209F8035008F104039BB2D6
:1006F000B3FBF6F206FB12339BB29DF82C2009F8EF
:10070000032008F105039BB2B3FBF6F206FB12339C
:100710009BB29DF82D2009F8032008F10603ABF8E1
:100720000030184B23F81A80174B062203F80A20D2
:10073000164A138801331380154B00221A70054B9B
:1007400000221A700EE700BF300A0020340A002091
:100750003C0A002029060020CB000020C900002010
:100760002806002027060020C8000020CE00002018
:1007700028050020CC00002070070020104F000842
:100780007000002094070020740700206A070020F2
:10079000590000203C0600203E060020E32C00F219
:1007A000FC80DF2C00F2F0800A2C00F0ED85D02CCC
:1007B000C5D1022DC3D197F80180854FDFF844924F
:1007C0003B889FED847AB8F1000F40F0B582824AF1
:1007D00082F80080002B6CD08049DFF818A2D1F895
:1007E00000B0013B3B800BF101035A4202F01F02B3
:1007F00003F01F0358BF5342794A0B60794B1688A8
:100800001B88ADF82C304FF496740BA8A521FFF788
:1008100043FDB6FBF4F304FB13639BB2A5210AF876
:1008200003102946FFF738FD731C9BB2B3FBF4F1AC
:1008300004FB11339BB241460AF80350FFF72CFD2D
:10084000B31C9BB2B3FBF4F104FB11339BB24146E2
:100850000AF80380FFF720FDF31C9BB2B3FBF4F111
:1008600004FB11339BB25E4A0AF80380331D9BB22E
:10087000B3FBF4F104FB11339BB29DF82C100AF882
:100880000310731D9BB2B3FBF4F104FB11339BB255
:100890009DF82D100AF80310B31D1380524B23F856
:1008A0001B60524B062203F80B20514A1388013378
:1008B00013803B8889ED007A002B3FF43DAF474918
:1008C000DFF81C814B4EB8F80050013B3B800F68AD
:1008D0007B1C5A4202F01F0203F01F0358BF534211
:1008E0000B60404B4FF496740BA81B88ADF82C306E
:1008F000A521FFF7D1FCB5FBF4F304FB13539BB226
:10090000A5220221F254FFF7C7FC6B1C9BB2B3FB7C
:10091000F4F204FB12339BB20222D021F254FFF70F
:10092000BBFCAB1C9BB2B3FBF4F204FB12339BB2D7
:10093000D0220121F254FFF7AFFCEB1C9BB2B3FBBA
:10094000F4F204FB12339BB20122F2542B1D9BB232
:10095000B3FBF4F204FB12339BB29DF82C20F2544B
:100960006B1D9BB2B3FBF4F204FB12339BB29DF8F8
:100970002D20F254AB1DA8F800301B4B23F8175064
:100980001A4B0622DA55D3E6E13C022C00F24782EC
:10099000DFE814F06203FB036B04F42C34D0FA2C70
:1009A0007FF4CDAE022D7FF4CAAE97F801B0124BA2
:1009B000BBF1000B18BF4FF0010B83F800B00F4BD9
:1009C00000221A600E4B01221A7000F0F3BC00BF27
:1009D000CC0000208180803B700000207007002048
:1009E0003C060020104F00089407002074070020E8
:1009F0006A0700203E060020F8020020F4020020D2
:100A0000050000206C000020BC4BBD4E00221A7275
:100A10001A7583F8202083F82C203388002B6DD0A2
:100A2000B849DFF80493D1F80080B9F80050B64F08
:100A3000013B338008F101035A4202F01F0203F028
:100A40001F0358BF53420B60B04B4FF496740BA872
:100A50001B88ADF82C30A521FFF71EFCB5FBF4F385
:100A600004FB13539BB2A5220221FA54FFF714FC96
:100A70006B1C9BB2B3FBF4F204FB12339BB2022259
:100A80000A21FA54FFF708FCAB1C9BB2B3FBF4F24B
:100A900004FB12339BB20A22FA549D4B93F800A038
:100AA0005146FFF7F9FBEB1C9BB2B3FBF4F204FBDE
:100AB00012339BB207F803A02B1D9BB2B3FBF4F2D9
:100AC00004FB12339BB29DF82C20FA546B1D9BB291
:100AD000B3FBF4F204FB12339BB29DF82D20FA54C1
:100AE000AB1DA9F800308B4B23F818508A4B062217
:100AF00003F80820894A138801331380884B0024A7
:100B00001C60884B01221A703388002B00F08A8009
:100B10007C49854FD1F800903D88DFF8EC81013B9E
:100B2000338009EB0203E21A02F01F0203F01F03F5
:100B300058BF53420B60754B4FF4967A1B88ADF843
:100B40002C300BA8A521FFF7A7FBB5FBFAF30AFB96
:100B500013539BB2A522022108F80320FFF79CFB48
:100B60006B1C9BB2B3FBFAF20AFB12339BB202225C
:100B7000D02108F80320FFF78FFBAB1C9BB2B3FB1F
:100B8000FAF20AFB12339BB2D02208F80320674B1B
:100B9000D3ED007AB7EE007AF4EEC77AF1EE10FAF0
:100BA0000ED89FED637A67EE877AF5EEC07AF1EEA4
:100BB00010FAA2BFFCEEE77ACDED007A9DF8004076
:100BC00021460BA8FFF768FBEB1C4FF496729BB213
:100BD000B3FBF2F102FB11339BB208F803402B1D6B
:100BE0009BB2B3FBF2F102FB11339BB29DF82C10C8
:100BF00008F803106B1D9BB2B3FBF2F102FB11333B
:100C00009BB29DF82D2008F80320AB1D3B80414B83
:100C100023F81950404B062203F809203F4A138855
:100C2000013313803388002B3FF489AD3549DFF859
:100C3000F8800F68B8F80050013B33807B1C5A42A3
:100C400002F01F0203F01F0358BF53420B602F4BEB
:100C50002D4E1B88ADF82C304FF496740BA8A521AF
:100C6000FFF71AFBB5FBF4F304FB13539BB2A52269
:100C70000221F254FFF710FB6B1C9BB2B3FBF4F2A2
:100C800004FB12339BB202220021F254FFF704FB53
:100C9000AB1C9BB2B3FBF4F204FB12339BB20022F9
:100CA000F254244B93F800904946FFF7F5FAEB1CF9
:100CB0009BB2B3FBF4F204FB12339BB206F8039031
:100CC0002B1D9BB2B3FBF4F204FB12339BB29DF8D5
:100CD0002C20F2546B1D9BB2B3FBF4F204FB1233D5
:100CE0009BB29DF82D20F254AB1DA8F80030094BA3
:100CF00023F81750084B0622DA5540E28C040020F6
:100D0000CC000020700700203E060020104F000895
:100D10000100002094070020740700206A070020CB
:100D200000030020580000203C0600206C0000203A
:100D300000007F437000002007EE908AF8EE677A8B
:100D400067EE877AC9ED007A002B3FF4F5ACB7491E
:100D5000DFF8E8B2D1F800A0DFF8E492013B3B8075
:100D60000AF101035A4202F01F0203F01F0358BFA9
:100D700053420B60AE4BBBF800701B88ADF82C30B3
:100D80004FF496760BA8A521FFF786FAB7FBF6F38A
:100D900006FB13739BB2A522294609F80320FFF72F
:100DA0007BFA7B1C9BB2B3FBF6F206FB12339BB2C1
:100DB000214609F80350FFF76FFABB1C9BB2B3FB47
:100DC000F6F206FB12339BB2414609F80340FFF7E7
:100DD00063FAFB1C9BB2B3FBF6F206FB12339BB229
:100DE00009F803803B1D9BB2B3FBF6F206FB1233FE
:100DF0009BB29DF82C2009F803207B1D9BB2B3FB0E
:100E0000F6F206FB12339BB29DF82D2009F8032061
:100E1000BB1DABF80030874B23F81A7084E4052D16
:100E20007FF68DACEC1EE4B20320B4FBF0F303EBD1
:100E30004303E41A14F0FF047FF481AC97F80180B7
:100E4000BF7808F1FF33DBB2834203933FF677AC00
:100E50007B1EDBB20B2B00933FF671AC76490A8800
:100E6000002A00F0A680013AC3F10C030A80DBB22D
:100E70006E49A5F102095FFA89F9B9FBF0F99945C4
:100E800028BF99460B68019301335A4202F01F02B2
:100E900003F01F0358BF53420B60684B684D1E8818
:100EA000634B4FF4967A0BA81B88ADF82C30A52124
:100EB00009F1010BFFF7F0F9B6FBFAF30BEB4B0B63
:100EC0000AFB13639BB25FFA8BFBA5225946EA54D7
:100ED000FFF7E2F9731C9BB2B3FBFAF20AFB123381
:100EE0009BB2E02105F803B0FFF7D6F9B31C9BB223
:100EF000B3FBFAF20AFB12339BB2E0224146EA54FA
:100F0000FFF7CAF9F31C9BB2B3FBFAF20AFB1233E8
:100F10009BB2394605F80380FFF7BEF9331D9BB23B
:100F2000B3FBFAF20AFB12339BB2EF540C23B9FB6A
:100F3000F3F203FB12995FFA89FA0AF1FF32079282
:100F4000039ADFF81091751D5A43ADB208924FF421
:100F500096786F1CB5FBF8F208FB125292B2BFB242
:100F60000492B7FBF8F208FB1277BAB20592AA1CFA
:100F700092B20692079A0335A242ADB21FDA304B05
:100F800004999DF82C205A5405999DF82D205A5407
:100F90002A490AEB4A03F21D1A440A80254A01999C
:100FA00022F81160274A07335354274A1388013324
:100FB0001380264B039900225A54FFF7C0BB99F8BF
:100FC00005200292009A99F804B099F803101C4F7A
:100FD0000991A218B2FBF3F003FB1022089B4FEA21
:100FE0000B201A44029B40EA01401843184B43F877
:100FF00022000BA8FFF750F9049B0999F9545946B0
:10100000FFF74AF9059B029907F803B0FFF744F987
:10101000069BB3FBF8F108FB113189B2029B7B54AC
:10102000013409F103090C2391E700BF7007002088
:10103000104F000894070020CC0000203C06002040
:101040003E060020740700206A0700205A00002096
:101050000403002028050020032D7FF470ABBF4A55
:101060001388002B3FF46BABBD49BE4ED1F8009006
:101070003488DFF81083013B138009F101035A42E1
:1010800002F01F0203F01F0358BF53420B60B64B20
:101090004FF4967A1B88ADF82C300BA8A521FFF7EA
:1010A000FBF8B4FBFAF30AFB13439BB2A5222946D3
:1010B00008F80320FFF7F0F8631C9BB2B3FBFAF2C9
:1010C0000AFB12339BB2E12108F80350FFF7E4F862
:1010D000A31C9BB2B3FBFAF20AFB12339BB2E122D0
:1010E00008F803200021A14A8B461BF0070F17D1F7
:1010F00007EBEB016B1C254449780292DBB20BA88D
:10110000ADB201930091FFF7C7F8B5FBFAF00AFB07
:101110001055ADB2019B0099029A08F805101D46C2
:101120000BF1010B01F00103BBF10C0F02F8013BC5
:101130004FEA5101D9D12B194FF496729BB2B3FBF0
:10114000F2F102FB11339BB29DF82C1008F803104A
:101150006B1C54FA83F39BB2B3FBF2F102FB113325
:101160009BB29DF82D2008F80320023554FA85F330
:1011700033807F4B23F819407E4B03F809507E4A99
:10118000138801331380FFF7DABA032D7FF4D7AA4F
:10119000724A1388002B3FF4D2AA7149714ED1F8DC
:1011A00000903488DFF8DC81013B138009F10103F2
:1011B0005A4202F01F0203F01F0358BF53420B6054
:1011C000694B4FF4967A1B88ADF82C300BA8A521FB
:1011D000FFF762F8B4FBFAF30AFB13439BB2A522B4
:1011E000294608F80320FFF757F8631C9BB2B3FBAE
:1011F000FAF20AFB12339BB2E22108F80350FFF720
:101200004BF8A31C9BB2B3FBFAF20AFB12339BB25E
:10121000E22208F803200021584A8B461BF0070FF2
:1012200017D107EBEB016B1C254449780292DBB226
:101230000BA8ADB201930091FFF72EF8B5FBFAF0C1
:101240000AFB1055ADB2019B0099029A08F80510EF
:101250001D460BF1010B01F00103BBF10C0F02F86D
:10126000013B4FEA5101D9D165E7022D7FF467AA0E
:1012700097F801A00AF1FF33DBB2032B3FF65FAA18
:101280003F4A1360354A1388002B3FF458AA34496B
:10129000DFF8D090D1F80080B9F80060394F013BF9
:1012A000138008F101035A4202F01F0203F01F03EA
:1012B00058BF53420B602C4B4FF496740BA81B88FD
:1012C000ADF82C30A521FEF7E7FFB6FBF4F304FBE5
:1012D00013639BB2A5222946FA54FEF7DDFF731C67
:1012E0009BB2B3FBF4F204FB12339BB2E321FD5437
:1012F000FEF7D2FFB31C9BB2B3FBF4F204FB123334
:101300009BB2E3225146FA54FEF7C6FFF31C9BB290
:10131000B3FBF4F204FB12339BB207F803A0331DB6
:101320009BB2B3FBF4F204FB12339BB29DF82C206A
:10133000FA54731D9BB2B3FBF4F204FB12339BB25D
:101340009DF82D20FA54B31DA9F80030084B23F85E
:101350001860084B062203F8082010E7CC00002094
:10136000700700203C060020104F00085E0000209F
:1013700094070020740700206A070020C50300209E
:10138000FC0200203E060020022D7FF4D8A9424B2B
:1013900097F801B083F800B0404B414800221A7022
:1013A000404B01221A70404B1A68404B20211A60B2
:1013B00002F0A3FC3E4A1388002B3FF4C0A93D492C
:1013C000DFF800A1D1F80090BAF80070DFF8F880DB
:1013D000013B138009F101035A4202F01F0203F09E
:1013E0001F0358BF53420B60334B4FF496760BA844
:1013F0001B88ADF82C30A521FEF74EFFB7FBF6F3A6
:1014000006FB13739BB2A52208F803202946FEF7BA
:1014100043FF7B1C9BB2B3FBF6F206FB12339BB27D
:10142000214608F80350FEF737FFBB1C9BB2B3FB05
:10143000F6F206FB12339BB2594608F80340FEF75A
:101440002BFFFB1C9BB2B3FBF6F206FB12339BB2E5
:1014500008F803B03B1D9BB2B3FBF6F206FB123358
:101460009BB29DF82C2008F803207B1D9BB2B3FB98
:10147000F6F206FB12339BB29DF82D2008F80320EC
:10148000BB1DAAF800300D4B23F819700C4B062237
:1014900003F8092073E600BF0100002000000020CF
:1014A00000040048E0020020840A0020D802002046
:1014B000CC00002070070020104F00089407002087
:1014C000740700203C0600203E0600202DE9F04174
:1014D000234C2278002A35D1224B1988002931D09B
:1014E00072B619880139198062B61F4DDFF894C0B1
:1014F0002968DFF894E04B1C584200F01F0003F00D
:101500001F0358BF43422B60184B33F81170184B20
:10151000585C1849461E0A8013464FF496759E4241
:1015200012DA02B10880144B1448002207211A80F5
:1015300003F01DFA0123237072B6114A1388013398
:10154000138062B6BDE8F081FA18B2FBF5F805FB2E
:1015500018221EF802202CF8132001330122DEE7A6
:10156000300600206A0700206C0700209407002046
:1015700074070020D4070020D60700200044004054
:10158000CC000020D80700203E0600200B4B0C4A60
:1015900019681368CB1A012B10B50ED972B6094819
:1015A000002303600848036008482024048008489A
:1015B000038062B607481160037010BD840A0020E2
:1015C0002C060020340A0020380A0020CE0000201B
:1015D000300A0020290600202DE9F04F3C4A1388EC
:1015E00085B0002B71D03B493B4FD1F800903E882D
:1015F000DFF8F880DFF8F8B0013B138009F1010350
:101600005A4202F01F0203F01F0358BF53420B60FF
:10161000324B4FF496741B88ADF80C30A52103A80B
:10162000FEF73AFEB6FBF4F304FB13639BB2A5226C
:101630000A2108F80320FEF72FFE731C9BB2B3FBB0
:10164000F4F204FB12339BB20A2206F1020A06F1FD
:101650000C0508F803201FFA8AFAADB21BF8011B2B
:10166000019103A8FEF718FEBAFBF4F304FB13A3E1
:101670000AF1010A9BB21FFA8AFA019908F80310CD
:101680005545EBD1B5FBF4F304FB1355ADB29DF812
:101690000C3008F8053006F10D039BB2B3FBF4F2F1
:1016A00004FB12339BB29DF80D2008F8032006F1CD
:1016B0000E033B800A4B23F819600A4B0E2203F8F5
:1016C0000920094A13880133138005B0BDE8F08F63
:1016D000CC000020700700203C060020104F0008BE
:1016E00094070020740700206A0700203E060020AF
:1016F000310600201FB50C4C40F2116002F088FC4E
:10170000204602F06FFD0023642269462046CDE9A1
:10171000003302928DF80C3002F0B8FD204602F042
:1017200045FE04B010BD00BF0044014010B50D4C93
:1017300040F2125002F06CFC20464FF480730322FA
:10174000002102F0A3FA2046002202214FF4807308
:1017500002F07AFA20464FF48072BDE81040022170
:1017600002F0CFBA0004004830B54FF4A06085B055
:1017700002F04EFC1B4B1C4A1A601C4B1C4C0FCB3E
:101780006D4685E80F002A462046002102F02CFE17
:1017900000221146204602F05BFF20466022002115
:1017A00002F030FF08222046002102F05FFF2046B1
:1017B000012102F00FFE4FF48071204602F006FE78
:1017C000204602F0F3FD012211460A2002F0D2FB6E
:1017D000022002F035F90221084602F093F905B023
:1017E00030BD00BFA800002034440140144F000861
:1017F000004401401FB54FF4E06002F009FC4FF0D7
:10180000804002F0EFFC104B104A1B68B3FBF2F370
:10181000013B0022B3F5803F28BF1346ADF80030EE
:1018200069464FF6FE734FF08040ADF802200192FA
:1018300002938DF80C2002F029FD4FF0804002F059
:10184000B5FD05B05DF804FBD400002000BD010526
:1018500007B540F2115002F0DBFB01230322002107
:101860004FF0904002F012FA0123194600224FF087
:10187000904002F0E9F901214FF0904002F03FFA68
:101880004FF4803300216A464FF08040CDE90031AB
:1018900002F038FF4FF0804002F088FD03B05DF8A1
:1018A00004FB0000074B93ED007A074BD3ED007A61
:1018B000064BB4EEE77AF1EE10FACCBF012200221B
:1018C0001A707047100500200C050020A7000020AA
:1018D00070B502214FF0804002F06FFD002800F04B
:1018E000AD806B4E00214FF08040358802F09FFFA5
:1018F00001230446032200214FF0904002F0C6F974
:101900000123194600224FF0904002F09DF9012179
:101910004FF0904002F0F3F902214FF0804002F0C6
:1019200052FD72B60123002202214FF0904002F0D6
:101930008BF90123032200214FF0904002F0A6F919
:10194000012202214FF0904002F0DBF94FF080437A
:101950005B6AB3F5803F28BF0023338062B64D4BEE
:101960004D484E494E4A1B78D0ED007A91ED006A01
:1019700092ED004A002B71D0B4F5803F28BF0024BF
:10198000A4B2A5425AD0F5EEC07AF1EE10FA55DDB8
:10199000641BA4B207EE104AB8EE477ADFED415A55
:1019A00077EE676AB0EEE65AB4EEE55AF1EE10FA59
:1019B00044D53D4BDFED3D5A93ED005A3C4D3D4C37
:1019C00066EEA66A66EEA56ADFED3B5AE5EE256A8D
:1019D000DFED3A5AC3ED006AC6EEA74ADFED386A7A
:1019E0009FED385AF4EEE64AF1EE10FADFED366A72
:1019F00004DDF4EEC77AF1EE10FA09D400232B705F
:101A0000F4EEE64AF1EE10FA19D423786BB918E037
:101A10002B780133DBB2642B2B70F1D1F4EEE64A64
:101A20000123F1EE10FA237009D467EE256A274BE3
:101A3000E4EE056A1B78C2ED006A43B970BD00236D
:101A4000237066EE056AE7EE256AC1ED006A67EE6F
:101A5000857AE7EE257AC0ED007AEFE7B4F5803FAE
:101A600028BF00249FED1A7ADFED1A6A641BA4B226
:101A700067EE877A07EE104AB8EE477AE7EE267AE5
:101A8000C0ED007AC1ED007AC2ED007AD6E700BF62
:101A90001805002003050020140500201005002073
:101AA0000C0500200000A042080500200AD7233CB6
:101AB0000205002004050020A4707D3F17B7D1382F
:101AC000CDCCCC3E72F97F3FCDCC4C3EA700002060
:101AD00077BE7F3F6F12833A1FB540F2017002F06C
:101AE00097FA114802F07EFB104B114A1B68B3FBBA
:101AF000F2F3013B0022B3F5803F28BF1346ADF857
:101B0000003069464FF6FE730748ADF80220019297
:101B100002938DF80C2002F0B9FB034802F046FC5A
:101B200005B05DF804FB00BF00040040D4000020B5
:101B300000BD010513B5134C40F2125002F068FAD3
:101B4000204602230322002102F0A0F802230022F3
:101B50002046012102F078F82046022102F0CFF859
:101B600004F1784400234FF48032CDE900230321AF
:101B70006A46204602F0C6FD204602F017FC02B07D
:101B800010BD00BF00040048074B93ED007A074BDF
:101B9000D3ED007A064BB4EEE77AF1EE10FACCBF43
:101BA000012200221A707047F8040020F40400207B
:101BB000A600002070B56B48102102F0FEFB002843
:101BC00000F0A680684E67483588032102F02FFE9A
:101BD0000223044603226548002102F057F802233D
:101BE00000226248012102F02FF86048022102F031
:101BF00086F85C48102102F0E6FB72B60223194613
:101C00005A48002202F020F80223584803220021FB
:101C100002F03CF855480222012102F072F84FF020
:101C20008043D3F82434B3F5803F28BF00233380AA
:101C300062B64F4B4F485049504A1B78D0ED007A5E
:101C400091ED006A92ED004A002B71D0B4F5803F0F
:101C500028BF0024A4B2A5425AD0F5EEC07AF1EE16
:101C600010FA55DD641BA4B207EE104AB8EE477AAD
:101C7000DFED435A77EE676AB0EEE65AB4EEE55A06
:101C8000F1EE10FA44D53F4BDFED3F5A93ED005A89
:101C90003E4D3F4C66EEA66A66EEA56ADFED3D5A04
:101CA000E5EE256ADFED3C5AC3ED006AC6EEA74AB1
:101CB000DFED3A6A9FED3A5AF4EEE64AF1EE10FA99
:101CC000DFED386A04DDF4EEC77AF1EE10FA09D4DC
:101CD00000232B70F4EEE64AF1EE10FA19D42378C3
:101CE0006BB918E02B780133DBB2642B2B70F1D188
:101CF000F4EEE64A0123F1EE10FA237009D467EE00
:101D0000256A294BE4EE056A1B78C2ED006A43B9E7
:101D100070BD0023237066EE056AE7EE256AC1ED0B
:101D2000006A67EE857AE7EE257AC0ED007AEFE784
:101D3000B4F5803F28BF00249FED1C7ADFED1C6ABC
:101D4000641BA4B267EE877A07EE104AB8EE477AB2
:101D5000E7EE267AC0ED007AC1ED007AC2ED007A96
:101D6000D6E700BF00040040000500200004004842
:101D7000EB040020FC040020F8040020F404002000
:101D80000000A042F00400200AD7233CEA0400200F
:101D9000EC040020A4707D3F17B7D138CDCCCC3EE9
:101DA00072F97F3FCDCC4C3EA600002077BE7F3F2E
:101DB0006F12833A13B540F2115002F029F9402313
:101DC000032200214FF0904001F060FF0D4C4023B2
:101DD000002201214FF0904001F036FF40214FF0EA
:101DE000904001F08CFF4FF4803300216A4620467A
:101DF000CDE9003102F086FC204602F0D7FA02B0AD
:101E000010BD00BF00040040074B93ED007A074B64
:101E1000D3ED007A064BB4EEE77AF1EE10FACCBFC0
:101E2000012200221A707047E0040020DC04002028
:101E3000A500002070B56E48022102F0BEFA00280D
:101E400000F0AC806B4E6A483588002102F0EFFC50
:101E500040230446032200214FF0904001F016FF7A
:101E60004023002201214FF0904001F0EDFE40217F
:101E70004FF0904001F043FF5D48022102F0A3FAC9
:101E800072B64023002202214FF0904001F0DCFEA8
:101E90004023032200214FF0904001F0F7FE402242
:101EA00001214FF0904001F02CFF4FF08043D3F818
:101EB0002434B3F5803F28BF0023338062B64E4BF5
:101EC0004E484F494F4A1B78D0ED007A91ED006A99
:101ED00092ED004A002B71D0B4F5803F28BF00245A
:101EE000A4B2A5425AD0F5EEC07AF1EE10FA55DD53
:101EF000641BA4B207EE104AB8EE477ADFED425AEF
:101F000077EE676AB0EEE65AB4EEE55AF1EE10FAF3
:101F100044D53E4BDFED3E5A93ED005A3D4D3E4CCD
:101F200066EEA66A66EEA56ADFED3C5AE5EE256A26
:101F3000DFED3B5AC3ED006AC6EEA74ADFED396A12
:101F40009FED395AF4EEE64AF1EE10FADFED376A0A
:101F500004DDF4EEC77AF1EE10FA09D400232B70F9
:101F6000F4EEE64AF1EE10FA19D423786BB918E0D2
:101F70002B780133DBB2642B2B70F1D1F4EEE64AFF
:101F80000123F1EE10FA237009D467EE256A284B7D
:101F9000E4EE056A1B78C2ED006A43B970BD002308
:101FA000237066EE056AE7EE256AC1ED006A67EE0A
:101FB000857AE7EE257AC0ED007AEFE7B4F5803F49
:101FC00028BF00249FED1B7ADFED1B6A641BA4B2BF
:101FD00067EE877A07EE104AB8EE477AE7EE267A80
:101FE000C0ED007AC1ED007AC2ED007AD6E700BFFD
:101FF00000040040E8040020D3040020E404002092
:10200000E0040020DC0400200000A042D8040020EE
:102010000AD7233CD2040020D4040020A4707D3FC2
:1020200017B7D138CDCCCC3E72F97F3FCDCC4C3EEA
:10203000A500002077BE7F3F6F12833A13B540F2B0
:10204000115001F0E5FF8023032200214FF0904062
:1020500001F01CFE8023002201214FF0904001F08E
:10206000F3FD0A4C80214FF0904001F048FE002320
:102070004FF48032CDE9002301216A46204602F068
:1020800041FB204602F092F902B010BD000400406E
:10209000074B93ED007A074BD3ED007A064BB4EE75
:1020A000E77AF1EE10FACCBF012200221A707047D5
:1020B000C8040020C4040020A400002070B56E48AD
:1020C000042102F07AF9002800F0AC806B4E6A48D7
:1020D0003588012102F0ABFB802304460322002156
:1020E0004FF0904001F0D2FD8023002201214FF0FB
:1020F000904001F0A9FD80214FF0904001F0FFFDDC
:102100005D48042102F05FF972B6802300220221AB
:102110004FF0904001F098FD8023032200214FF002
:10212000904001F0B3FD802201214FF0904001F07A
:10213000E8FD4FF08043D3F82434B3F5803F28BF47
:102140000023338062B64E4B4E484F494F4A1B78AE
:10215000D0ED007A91ED006A92ED004A002B71D02B
:10216000B4F5803F28BF0024A4B2A5425AD0F5EEB2
:10217000C07AF1EE10FA55DD641BA4B207EE104AE6
:10218000B8EE477ADFED425A77EE676AB0EEE65A6C
:10219000B4EEE55AF1EE10FA44D53E4BDFED3E5A6F
:1021A00093ED005A3D4D3E4C66EEA66A66EEA56A7A
:1021B000DFED3C5AE5EE256ADFED3B5AC3ED006AE0
:1021C000C6EEA74ADFED396A9FED395AF4EEE64ACA
:1021D000F1EE10FADFED376A04DDF4EEC77AF1EEC6
:1021E00010FA09D400232B70F4EEE64AF1EE10FA4F
:1021F00019D423786BB918E02B780133DBB2642B48
:102200002B70F1D1F4EEE64A0123F1EE10FA2370BF
:1022100009D467EE256A284BE4EE056A1B78C2ED07
:10222000006A43B970BD0023237066EE056AE7EECD
:10223000256AC1ED006A67EE857AE7EE257AC0ED82
:10224000007AEFE7B4F5803F28BF00249FED1B7AAA
:10225000DFED1B6A641BA4B267EE877A07EE104AB3
:10226000B8EE477AE7EE267AC0ED007AC1ED007A43
:10227000C2ED007AD6E700BF00040040D004002081
:10228000BE040020CC040020C8040020C4040020A8
:102290000000A042C00400200AD7233CBD04002057
:1022A000BF040020A4707D3F17B7D138CDCCCC3E01
:1022B00072F97F3FCDCC4C3EA400002077BE7F3F1B
:1022C0006F12833A124B1A78124B197891421EBF43
:1022D0001A7000221A72104A197B127891421EBF9E
:1022E0001A7300221A750D4A197E127891421EBF88
:1022F0001A76002283F82020094A93F824101278D5
:1023000091421EBF83F82420002283F82C207047BE
:10231000040500208C040020EC040020D4040020DC
:10232000BF0400202DE9F04F4A4BDFF84C911B7899
:102330000C2203F0030802FB08F209EB020187B04C
:10234000097A019300297ED1434D19F80220AA7021
:10235000012129704144697040490A88002A6CD0E3
:102360003F4C404BD4F800B01F88DFF810A1013A71
:102370000A800BF10101484200F01F0001F01F012B
:1023800058BF4142216038490988ADF814104FF414
:10239000967405A8A521FDF77FFFB7FBF4F104FBB8
:1023A000117189B2A5260AF801600321FDF774FFB7
:1023B000791C89B2B1FBF4F004FB101189B203203F
:1023C0002B46BE1C7D1D0AF80100B6B2ADB213F853
:1023D000011B05A8CDE90213FDF75EFFB6FBF4F083
:1023E00004FB1060013680B2B6B202990AF8001000
:1023F000B542039BEBD1B5FBF4F104FB1155ADB233
:102400009DF814100AF80510B91D89B2B1FBF4F05B
:1024100004FB101189B29DF81500124B0AF8010057
:10242000F91D1980114921F81B701149072001F885
:102430000B0010490A8801320A800C2202FB08991D
:10244000012389F80830019B024A0133137007B059
:10245000BDE8F08FBC04002088040020CC000020E0
:10246000700700203C060020104F00089407002051
:10247000740700206A0700208C0400203E0600201C
:10248000024A137883F0010313707047C4030020DD
:102490002DE9FF47DFF85481494F4A4CDFF850A13E
:1024A00018F8013BABBBA4F1300501F06BFB2846EB
:1024B00001F094FB444B1B88ADF80C30B94659F839
:1024C000046B03A8C6F30741FDF7E6FEC6F3072138
:1024D000FDF7E2FEF1B2FDF7DFFE01F053FB284607
:1024E0003146043501F096FBA542E8D19DF80C5029
:1024F00001F048FB2946204601F08CFB9DF80D5069
:1025000001F040FB2946201D01F084FB012308F85F
:10251000013C04F58064544507F13007C0D12B4DD0
:102520002C78002C48D101F02DFB294801F056FBF6
:10253000254B1B88ADF80C30264BD3ED007A264B8B
:10254000B7EE007AF4EEC77AF1EE10FA1E780ED8E4
:102550009FED227A67EE877AF5EEC07AF1EE10FAF7
:10256000A2BFFCEEE77ACDED017A9DF8044003A806
:102570002146FDF791FE3146FDF78EFE01F002FB8C
:102580002146134801F046FB01F0FCFA314614489D
:1025900001F040FB9DF80C4001F0F4FA214611488F
:1025A00001F038FB9DF80D4001F0ECFA0E48214691
:1025B00001F030FB01232B7004B0BDE8F08700BFB1
:1025C0000403002030C00008104F0008590000200C
:1025D00000D000086C0000207000002000007F4345
:1025E00004D0000808D000080CD000085A000020D1
:1025F00030D000082DE9F04F724B1B7885B0002BCE
:1026000000F0D880704B714A1D681388002B00F0D1
:10261000C5806F49DFF8D481D1F800B0013B138049
:102620000BF101035A4202F01F0203F01F0358BFCF
:1026300053420B60674B1E88674B4FF4967403A898
:102640001B88ADF80C30A521FDF726FEB6FBF4F390
:1026500004FB13639BB2A522272108F80320FDF792
:102660001BFE731C9BB2B3FBF4F204FB12339BB250
:102670002722E02108F80320FDF70EFE691CB31C99
:10268000B1F5807F9BB228BF0021B3FBF4F204FBBD
:1026900012339BB2CFB2E022394608F80320FDF78F
:1026A000FBFDF31C9BB2B3FBF4F204FB12339BB2B1
:1026B000012108F80370FDF7EFFD331D9BB2B3FB5A
:1026C000F4F204FB12339BB2012208F80320434AC0
:1026D0003023771D06F1290903FB0522BFB21FFA3B
:1026E00089F952F804AB019203A8CAF3074100919B
:1026F000FDF7D2FDB7FBF4FC04FB1C7C1FFA8CFC3D
:10270000009908F80C10CAF307210091FDF7C4FDE9
:1027100007F1010C1FFA8CFCBCFBF4FE04FB1ECC81
:102720001FFA8CFC009908F80C105FFA8AF10091EE
:10273000FDF7B2FDBB1C9BB20337B3FBF4F004FB07
:1027400010339BB2BFB2009908F80310B945019A43
:10275000C7D1B9FBF4F304FB13991FFA89F99DF86B
:102760000C3008F8093006F12A039BB2B3FBF4F2EF
:1027700004FB12339BB29DF80D2008F80320154B83
:1027800006F12B021A80164B23F81B60154B2B22E7
:1027900003F80B20144A138801331380022D0CDC3C
:1027A00001356B4203F0030305F0030558BF5D429A
:1027B000054B1D6005B0BDE8F08F024A0023137081
:1027C000F8E700BF5800002000030020CC000020E4
:1027D000700700203C060020104F00080403002072
:1027E00094070020740700206A0700203E0600209E
:1027F0002DE9F347DFF8F480344D354CB8F800A0EC
:10280000ADF804A0A4F13007A94657F8046B49F8C5
:10281000046B01A8C6F30741FDF73EFDC6F307218F
:10282000FDF73AFDF1B2FDF737FDA742EDD19DF876
:102830000400216863689DF80520884208D0254976
:102840002A46002301330C2B42F8041BFAD101E085
:102850009A42F4D1204B04F580649C4205F1300586
:10286000CED1B8F80030ADF804301C4BD3E90045A8
:10287000B4F5807F28BF0024E4B2214601A8D3E943
:102880000276FDF709FDB5F5807F28BF0025EDB282
:102890002946FDF701FD9DF80430BB4213D19DF898
:1028A0000530B3420FD107EE904A9FED0D7A0D4BE4
:1028B000F8EE677A67EE877AC3ED007A6B1E5D42A9
:1028C0005D41094B1D7002B0BDE8F0870403002094
:1028D00030C000087777770030D0000800D00008BB
:1028E0008180803B6C00002070000020104F0008A9
:1028F00008B540F2115001F08BFB4FF480630322C6
:1029000000214FF0904001F0C1F94FF480630022A4
:1029100002214FF0904001F097F9BDE808404FF4D4
:10292000806204214FF0904001F0EBB908B540F20D
:10293000115001F06DFB4FF40073032200214FF0A2
:10294000904001F0A3F94FF40073002202214FF0F0
:10295000904001F079F9BDE808404FF4007204217D
:102960004FF0904001F0CDB910B50F4C40F215700A
:1029700001F04EFB20460D49002201F0F3F900233F
:102980001A461946204601F06FFA204601F08BFAEC
:1029900000221146172001F0EDFABDE81040012297
:1029A0000021202001F0E6BA00540040801A060001
:1029B00010B5124B124C1A78124B1A70124A01239E
:1029C0001360124A80211170114A1370114B0022BA
:1029D000204640F209111A8001F079FA20464FF49E
:1029E000857101F074FA20464FF4847101F06FFA9A
:1029F0002046BDE8104001F05BBA00BF0400002093
:102A000000540040EE020020E8020020EF02002007
:102A1000F0020020EC02002010B5124B124C1A7884
:102A2000124B1A70124A01231360124A802111704E
:102A3000114A1370114B0022204640F209111A80EE
:102A400001F045FA20464FF4857101F040FA204626
:102A50004FF4847101F03BFA2046BDE8104001F0CC
:102A600027BA00BF0200002000540040EE02002000
:102A7000E8020020EF020020F0020020EC0200201B
:102A8000134A002310B51370124A134C022111602F
:102A9000124A80211170124A1370124A20464FF4D4
:102AA0008061138001F0EBF9204640F2091101F03A
:102AB0000EFA20464FF4857101F009FA20464FF4D2
:102AC000847101F004FA2046BDE8104001F0F0B92D
:102AD000E1020020E802002000540040EF02002044
:102AE000F0020020EC0200202DE9F04F4F4B1B7844
:102AF00085B0002B00F096804D4ADFED4E6AC22370
:102B000013704D4B1B885BBA9BB207EE903AB8EE40
:102B1000677AF9EE087AE7EE267A9FED487A67EE53
:102B2000877AF5EEC07AF1EE10FAA9BFFCEEE77AEB
:102B3000002317EE903A9BB253701B0A9370404AE1
:102B40001388002B6ED03F493F4FD1F800903E884C
:102B5000DFF80881DFF8D8B0013B138009F10103E9
:102B60005A4202F01F0203F01F0358BF53420B608A
:102B7000364B4FF496741B88ADF80C30A52103A892
:102B8000FDF78AFBB6FBF4F304FB13639BB2A522AB
:102B9000032108F80320FDF77FFB731C9BB2B3FBF6
:102BA000F4F204FB12339BB2032206F1020A751DF4
:102BB00008F803201FFA8AFAADB21BF8011B019135
:102BC00003A8FDF769FBBAFBF4F304FB13A30AF1B6
:102BD000010A9BB21FFA8AFA019908F803105545B9
:102BE000EBD1B5FBF4F304FB1355ADB29DF80C30FB
:102BF00008F80530B31D9BB2B3FBF4F204FB1233AB
:102C00009BB29DF80D2008F80320F31D3B80104B6C
:102C100023F819600F4B072203F809200E4A138886
:102C20000133138005B0BDE8F08F00BFE102002042
:102C3000E20200200000FA3AE50200200000C8424B
:102C4000CC000020700700203C060020104F000838
:102C500094070020740700206A0700203E06002029
:102C600010B5124B124C1A78124B1A70124A0123EB
:102C70001360124A80211170114A1370114B002207
:102C8000204640F209111A8001F021F920464FF444
:102C9000857101F01CF920464FF4847101F017F999
:102CA0002046BDE8104001F003B900BF030000203A
:102CB00000540040EE020020E8020020EF02002055
:102CC000F0020020EC0200202DE9F04F4F4B1B7862
:102CD00085B0002B00F096804D4ADFED4E6AC02390
:102CE00013704D4B1B885BBA9BB207EE903AB8EE5F
:102CF000677ADFED4A7AE7EE267A9FED497A67EE4A
:102D0000877AF5EEC07AF1EE10FAA9BFFCEEE77A09
:102D1000002317EE903A9BB253701B0A9370414AFE
:102D20001388002B6ED04049404FD1F800903E8868
:102D3000DFF80C81DFF8D8B0013B138009F1010303
:102D40005A4202F01F0203F01F0358BF53420B60A8
:102D5000374B4FF496741B88ADF80C30A52103A8AF
:102D6000FDF79AFAB6FBF4F304FB13639BB2A522BA
:102D7000032108F80320FDF78FFA731C9BB2B3FB05
:102D8000F4F204FB12339BB2032206F1020A751D12
:102D900008F803201FFA8AFAADB21BF8011B019153
:102DA00003A8FDF779FABAFBF4F304FB13A30AF1C5
:102DB000010A9BB21FFA8AFA019908F803105545D7
:102DC000EBD1B5FBF4F304FB1355ADB29DF80C3019
:102DD00008F80530B31D9BB2B3FBF4F204FB1233C9
:102DE0009BB29DF80D2008F80320F31D3B80114B8A
:102DF00023F81960104B072203F809200F4A1388A3
:102E00000133138005B0BDE8F08F00BFE102002060
:102E1000E202002052B82F3BE50200201F853BC292
:102E20000000C842CC000020700700203C060020B3
:102E3000104F000894070020740700206A07002044
:102E40003E060020494B4A491B784A4870B5002B82
:102E50003DD001F051F840B16FF00102464B4548BA
:102E60001978BDE8704001F016B84449414801F0B6
:102E700043F828B141493F48BDE8704001F066B8C9
:102E80003F493C4801F038F860B13E4D3E4B2C883C
:102E90001B68A34207DD3D4B36481978013401F029
:102EA00011F82C8070BD334801F007F831484FF419
:102EB000847101F016F82F484FF4857101F011F874
:102EC000BDE870402B4840F2091101F00AB801F04A
:102ED00013F8044608B10122C0E7284925482A4EC4
:102EE00001F00AF8054638B13368012BC2D12148F8
:102EF000214600F0C4FFBDE725491E48346800F0B4
:102F0000FBFF0028CED0022C16D11A48294600F02B
:102F1000B6FF1C4D1748013C34602C8800F0D4FFEC
:102F200004F001031B4A1A49D054012C04BF1A4B68
:102F30001C7001342C809EE7012CEAD10D4800F072
:102F4000BCFF29460B4800F0A0FF0A484FF48471EB
:102F500000F0C7FF07484FF4857100F0C2FF054835
:102F600040F2091100F0BDFFD3E700BFF0020020DE
:102F70000901000500540040EF020020090101058D
:102F800009010705EC020020E8020020EE02002003
:102F900009010605E5020020E102002010B50F4CF2
:102FA0000F49204600F0D2FF20460E4900F0CEFF28
:102FB00020460D4900F0CAFF20460C4900F0C6FF2C
:102FC00020460B4900F0C2FF20460A4900F0BEFF30
:102FD00020460949BDE8104000F0B8BF0054004049
:102FE00008010A0508010F0508010E0508010B0577
:102FF000080109050801080508010C0510B5094C70
:1030000040F2125001F004F8204620230322002150
:1030100000F03CFE20462023BDE8104000220121A4
:1030200000F012BE000400481B490B78F0B47BB1DD
:103030001A4B1B4A1B6812689B1A1A4A1278934251
:1030400028D900230B70F0BC1748202100F057BE90
:103050001648174E1A460C2505FB02F410F8017BA2
:10306000345DABB90CB187F001030132042A03F0DF
:10307000010300F8014CEFD163B101230B70074B42
:1030800009481A68064BF0BC20211A6000F035BED2
:103090000123EAE7F0BC7047E0020020840A002028
:1030A000D80200200100002000040048DC020020BB
:1030B0008C04002037B5164C237833BB00F062FD3A
:1030C000144800F08BFD144B1B88ADF80430134BF3
:1030D0001D7801A82946FDF7DFF800F053FD2946C9
:1030E0000C4800F097FD9DF8045000F04BFD294678
:1030F0000B4800F08FFD9DF8055000F043FD094896
:10310000294600F087FD0123237003B030BD00BFC6
:103110000000002000BC0008104F00080100002043
:1031200004BC000808BC0008104B73B5D3F8004C71
:10313000D3F8046CD3F8085C0D4BB4F5807F28BF3E
:103140000024E4B21B88ADF80430214601A8FDF745
:10315000A3F89DF80430B34205D19DF80530AB4289
:1031600004BF044B1C7002B070BD00BF00B000086B
:10317000104F0008010000202DE9F84FA54BDFEDAE
:10318000A67A93F800C0A54BA54D93F800E0A54B97
:10319000A54CD3ED005AA54B9FEDA56A1B68DFF83F
:1031A000C882DFF8C892A348302265EEA75A02FB16
:1031B00003442F4600220C2655F8041BBCF1000FD7
:1031C00072D018F80230002B6ED019F8023013B10B
:1031D000BEF1000F6FD054F82230C3F3074A07EE58
:1031E00010AAC3F3072ADBB206EE90AA07EE903AC4
:1031F000B8EEC77AF8EEE66AF8EEE77A27EE257AB7
:1032000066EEA56A67EEA57A013206FB01010C2A7B
:1032100081ED007AC1ED016AC1ED027ACCD1DFF80F
:1032200050C29CF80060002E00F0D080824D9FEDCF
:10323000836A2968782391FBF3F203FB1212804B17
:1032400003EB8203D3ED006AFCEEE67A4FF03C0E0E
:1032500017EE903A9BB2B3FBFEF40EFB1433B7EEBD
:10326000007A9BB237EE667A07EE903A27EE267A1E
:10327000F8EE677A4FF0060867EE867A36EEC76A90
:10328000B4FBF8F267EE867A08FB124292B237EE90
:10329000276AFAB1531E76EEE77A032B00F28E808E
:1032A000DFE803F08F107F88B0EE467AF0EE466AD2
:1032B000F0EE467AA8E79FED5E7AF0EE476AF0EE10
:1032C000477AA1E7F0EE667AF0EE476AB0EE467A0A
:1032D000B0EE676A782904D15A4B1B780BB98CF889
:1032E000003001312960DFF88CC15749DFF888814F
:1032F00000220C244FF07E5B04FB02F35CF8049B7D
:1033000018F803A08E4600254D4566DB0132042ADD
:1033100001F11001F0D14D4B464A9FED4D7A00204E
:103320001C46D2ED017A67EE877A0130FCEEE77A2F
:103330000C2817EE901AD2ED007A197067EE877A92
:1033400002F10C02FCEEE77A03F1030317EE901A88
:1033500052ED017A03F8021C67EE877AFCEEE77AF9
:1033600017EE901A03F8011CDBD13A4B21783A4C46
:1033700001221A80394A3A4B02EBC10052F831203F
:103380001A60426837485A600021E36001F013F880
:103390002146022000F072FBBDE8F84F022000F049
:1033A00059BBB0EE676AF0EE667AF0EE476AB0EEAF
:1033B000677A8FE7F0EE667AF0EE466AB0EE476A1B
:1033C000F5E7B0EE666AF0EE676A83E79FED187A7C
:1033D000B0EE476AF0EE476A85E75EF8043B57F8BF
:1033E0002330BAF1000F09D004FB0303C3F800B087
:1033F000C3F804B0C3F808B0013585E7002EFBD050
:1034000004FB0303C3ED006A83ED016A83ED027AD6
:10341000F2E700BF700000208180803BC4030020E1
:10342000740000206C00002004030020FC02002037
:1034300000000000D4030020F40200208988883CAA
:103440003C4F0008F802002008000020640400201F
:1034500000007F431A050020A80000201C5100082E
:103460001C050020004401405E000020C503002030
:1034700005000020480000208C040020B34BDFED45
:10348000B47A93F800C0B34B9FEDB36A2DE9F74FC0
:1034900093F800E0B14BB24DD3ED005AB14BB24CB2
:1034A0001B68DFF8FC82DFF8FC92B048302265EE42
:1034B000A75A02FB03442F4600220C2655F8041B92
:1034C000BCF1000F72D018F80230002B6ED019F842
:1034D000023013B1BEF1000F6FD054F82230C3F3A5
:1034E000074A07EE10AAC3F3072ADBB206EE90AA3A
:1034F00007EE903AB8EEC77AF8EEE66AF8EEE77AA9
:1035000027EE257A66EEA56A67EEA57A013206FBFC
:1035100001010C2A81ED007AC1ED016AC1ED027A48
:10352000CCD1DFF884C29CF80060002E00F0E5806A
:103530008F4D9FED906A2968782391FBF3F203FB8E
:1035400012128D4B03EB8203D3ED006AFCEEE67A98
:103550004FF03C0E17EE903A9BB2B3FBFEF40EFB1D
:103560001433B7EE007A9BB237EE667A07EE903AE4
:1035700027EE267AF8EE677A4FF0060867EE867A2D
:1035800036EEC76AB4FBF8F267EE867A08FB1242A1
:1035900092B237EE276AFAB1531E76EEE77A032B22
:1035A00000F2A380DFE803F0A410949DB0EE467A09
:1035B000F0EE466AF0EE467AA8E79FED677AF0EE05
:1035C000476AF0EE477AA1E7F0EE667AF0EE476AD6
:1035D000B0EE467AB0EE676A782904D1674B1B7863
:1035E0000BB98CF8003001312960DFF8C0C16449A3
:1035F000DFF8BC8100220C244FF07E5B04FB02F359
:103600005CF8049B18F803A08E4600254D457BDB33
:103610000132042A01F11001F0D15A4B5349DFED78
:103620005A7A002216461F4691ED017A93F80080DF
:1036300093F801E093F802C027EE277ABCEEC77A30
:103640008DED017A91ED007A9DF804501D7027EE02
:10365000277AA845BCEEC77A8DED017A91ED027A02
:103660009DF804405C7027EE277ABCEEC77A8DED9A
:10367000017A9DF80400987062D1A64560D1844516
:1036800018BF012201360C2E03F1030301F10C01D6
:10369000CAD1002A56D03D4B39783D4C01221A80C0
:1036A0003C4A3D4B02EBC10052F831201A6042689F
:1036B0003A485A600021E36000F07DFE2146022076
:1036C00000F0DCF9022003B0BDE8F04F00F0C2B911
:1036D000B0EE676AF0EE667AF0EE476AB0EE677AAF
:1036E0007AE7F0EE667AF0EE466AB0EE476AF5E702
:1036F000B0EE666AF0EE676A6EE79FED177AB0EE9D
:10370000476AF0EE476A70E75EF8043B57F82330EB
:10371000BAF1000F09D004FB0303C3F800B0C3F8EB
:1037200004B0C3F808B0013570E7002EFBD004FBED
:103730000303C3ED006A83ED016A83ED027AF2E7C9
:1037400001229FE703B0BDE8F08F00BF70000020AA
:103750008180803BC4030020000000006C0000203A
:1037600074000020FC02002004030020D403002089
:10377000F40200208988883C3C4F0008F8020020B1
:10378000080000206404002000007F431A05002088
:10379000A80000201C5100081C0500200044014026
:1037A0005E000020C5030020050000204800002026
:1037B0008C040020022170B5084600F0ADF908B372
:1037C000114D0121022000F0DBF92C88232C19D89F
:1037D0000E4A0F4B115D0F4A0F4E02EBC10052F81B
:1037E00031201A6042680D485A600021F36000F0F1
:1037F000E2FD3146022000F041F90134022000F0E0
:1038000029F92C8070BD00BF1A0500206404002037
:103810001C0500201C510008A800002000440140A5
:1038200008B5FCF7AFFCFCF7C7FCFCF7F3FCFCF7B2
:103830000CFDFCF725FDFCF717FEFDF75BFFFDF720
:1038400075FFFDF791FFFDF7D5FFFEF701F8FEF7D5
:1038500043F9FEF76FF9FEF7ADFAFEF7EFFBFEF75F
:10386000C7FFFFF745F8FFF761F8FFF77DF8FFF7AF
:10387000C5FBFFF759FCBDE80840FFF77DBC000021
:103880002DE9F04F002589B0CDE90655CDE9045565
:10389000CDE90255CDE90055A9462E46A8462F464A
:1038A000AA465F4B1C6842F20F73A4EB0A029A42CD
:1038B00002D9FDF791FEA246E11B41F28732914207
:1038C000A4EB080314D8B3F5FA7F2AD3FDF7EAFF77
:1038D000FEF75AF9FEF798FAFEF7DAFBA31B092B5D
:1038E00002D9FEF7EFFC2646FEF7CAFDA0461EE011
:1038F0004C4A4D4F4D480121B3F5FA7F11700BD35F
:10390000FDF7D0FF4A4B1970FEF73EF93970FEF70C
:103910007BFA27460170DFE7454B3970197001705B
:103920002746A31B092B02D9FEF7CCFC2646009B99
:10393000A4EB030BBBF57A7F02D3FEF7A9FD00943D
:10394000019BE31A312B02D9FEF754FE0194029B2E
:10395000E21A43F697239A4202D9FFF729F8029414
:10396000039BE21A43F6A6239A4204D9FFF754F8C0
:10397000A4F10F030393049BE21A43F6C4239A4273
:1039800004D9FFF77DF8A4F12D030493059BE21AF7
:1039900043F6C5239A4204D9FFF7A6F8A4F12E03F3
:1039A0000593069BE21A44F294239A4204D9FFF746
:1039B00057F9A4F2FD730693079BE21A44F2E92338
:1039C0009A4204D9FFF75CF8A4F652030793A4EBDC
:1039D000090244F2EA239A4203D9FFF775F9A4F6E3
:1039E0005309BBF57A7F01D3FFF764FB631B202BE0
:1039F00002D9FFF743FD2546FCF784FDFDF766FD80
:103A0000FDF7C4FDFDF764FFFEF7D4F8FEF712FAE8
:103A1000FEF754FBFEF786FCFFF706FB41E700BF0D
:103A2000840A002003050020D3040020BE040020E7
:103A3000EB04002008B5FFF7F3FEFFF721FF0000BD
:103A40001423034A5843835823F0200383507047BC
:103A5000080002401423034A5843835843F00103EB
:103A600083507047080002401423034A5843835888
:103A700023F00103835070470800024038B5044624
:103A8000FFF7F2FF142303FB04F0184B0A68C2503F
:103A90000433CA68C250083B0A8BC250043B0D690C
:103AA0004A68C4582A43CD6924F47C542A432243EB
:103AB000C2500A7A012AC2580CBF42F0400222F0DA
:103AC0004002C2500A7D012AC2580CBF42F0800257
:103AD00022F08002C2504A7D22B9C25822F0100260
:103AE000C25038BDC25842F01002F9E7100002403F
:103AF000034B80005A68814011435960704700BFF2
:103B0000000002401423034A584383580B43835058
:103B1000704700BF08000240042913D008291DD0B7
:103B2000022927D1144B82001B68914019401423AD
:103B3000124A4343985800F00200D9B1003818BF28
:103B4000012070470C4B82001B68914019401423E0
:103B50000A4A4343985800F00400EEE7064B8200FF
:103B60001B689140194014235843044BC05800F07F
:103B70000800E2E700207047000002400800024011
:103B8000FFF7B6BF044B1A69120641BF034A5A60D9
:103B900002F188325A6070470020024023016745D5
:103BA000074BDA68D10707D4DA68D20606D4D8689A
:103BB000C0F3800040007047012070470320704729
:103BC0000020024010B50446FFF7EAFF012804F187
:103BD000FF3402D1002CF7D1042010BD38B50546C2
:103BE0004FF47020FFF7EEFF88B9094C236943F0CA
:103BF000020323616561236943F0400323614FF4AD
:103C00007020FFF7DFFF236923F00203236138BD33
:103C10000020024070B505464FF470200E46FFF7B5
:103C2000D1FF68B9074C236943F0010323614FF4C6
:103C300070202E60FFF7C6FF236923F00103236184
:103C400070BD00BF002002402DE9F0430568C46844
:103C500000264FF0010E4FF003080EFA06F71F4240
:103C60000DD0770008FA07FC01FA07F925EA0C05E0
:103C700024EA0C0402FA07F749EA05053C43013639
:103C8000102EEAD10560C460BDE8F08301294168C7
:103C9000F0B50CBF194399434FF6FF744160A2423F
:103CA000816815D1C46B002201274FF0030C07FA7D
:103CB00002F61E421CBF55000CFA05F502F1010286
:103CC0001CBF29433443102AF1D18160C463F0BD85
:103CD000002401274FF0030C07FA04F51D4207D01A
:103CE00065000CFA05F621EA060102FA05F52943FA
:103CF0000134102CF0D18160E9E781617047816265
:103D00007047F0B5066A456A00234FF0010C4FF08A
:103D10000F0E0CFA03F4144207D09C000EFA04F7BD
:103D200026EA070601FA04F426430133082BF0D1F2
:103D300000234FF0010C4FF00F0E03F108040CFAB2
:103D400004F4144207D09C000EFA04F725EA070594
:103D500001FA04F425430133082BEED106624562D3
:103D6000F0BD000070B5044602200D46164600F076
:103D70006FF9394A3949B0FBF1F1904294BF0B46D3
:103D80003F23626822F03F021A436260344A954240
:103D900016D801313E290DD93F2323626D00B0FBB7
:103DA000F5F5042DE36938BF0425C5F30B051D4364
:103DB000E56170BD022901D80223EEE72162EDE73B
:103DC000284A95424FF47A7124D84FF4967253439F
:103DD000B3FBF1F301332362A6B9E26922F4804216
:103DE00005EB4503B0FBF3F3E261C3F30B020AB941
:103DF00043F00103E26942F40042E261E2691343E5
:103E0000E361D6E7E26919236B4342F48042B0FBD9
:103E1000F3F3E9E778225343B3FBF1F30133236271
:103E200096B9E36923F4804305EB4505B0FBF5F053
:103E3000E361E36943F40043E361E3690343E3615E
:103E40000123C4F89030B4E719235D43E369B0FB64
:103E5000F5F043F48043EBE7BF4DC10340420F0050
:103E6000A0860100801A060010B50468C3F3090398
:103E700024F002040C4313430460836010BD036804
:103E800023F480630B4303607047036823F40063EB
:103E90000B430360704702320CBF21F0010141F077
:103EA000010101617047036843F00103036070473B
:103EB000036843F4807303607047036843F400733E
:103EC00003607047016170470069C0B270478A099A
:103ED00010B501F01F01145801238B4023431350E8
:103EE00010BD10B58C090122235801F01F018A4032
:103EF00023EA0203235010BDC1F3891330B501F04A
:103F00001F0244681D58012303FA02F22A408D0D56
:103F10002D58C1F3044003FA00F00B4B21F480311B
:103F2000994200EA050007D152B114F4806409D027
:103F3000003818BF012030BD0028FCD0101EF8E763
:103F40001046F8E72046F6E709010605084B9942B6
:103F500010B502D14369836910BD8C0D012223582D
:103F6000C1F304418A4023EA02032350F4E700BF6F
:103F70000901010510B51D4CE36803F4E063B3F5D6
:103F8000A06F08D020D8B3F5407F26D0B3F5806F5E
:103F900026D0174BE36002231C46C4F10404A14061
:103FA000C3F104040F23E3401340124A0B431B01E7
:103FB0001118DBB281F800334109012300F01F0022
:103FC000834042F8213010BDB3F5C06F0BD0B3F57C
:103FD000E06FDED104230024DFE700230424DCE7C4
:103FE00001230324D9E703230124D6E700ED00E0F1
:103FF0000005FA0500E100E021F06041034B21F0EB
:104000007F0101439960BFF34F8F704700ED00E0DF
:10401000830903F1804303F5043300F01F0019689E
:10402000012282400A431A607047830903F18043EA
:1040300003F5043300F01F001A680121814022EAD1
:1040400001021A607047FFF7E3BFFFF7EEBF000001
:10405000F0B55D4B89B0054604AC03F110061F4670
:1040600018685968224603C20833B3421446F7D190
:10407000716838696B4603C303C354494B68C3F383
:104080008103022B44D14A684868CB6A0601C2F317
:1040900083424FEAD37334D4002B30D102324B68C1
:1040A000C86ADC0332D5CB6A400003F00F0354BF6B
:1040B000474848480133B0FBF3F35A434B68C3F316
:1040C000031320336B4413F8104C4B68C3F30223E3
:1040D00020336B4422FA04F413F8206C4B68C3F3CA
:1040E000C22320336B4413F8183C24FA03F0062D46
:1040F00010D8DFE805F06412141017464F00213283
:10410000CDE70BB91132CAE73132C8E7324BD4E7F9
:104110002F4AD3E7002009B0F0BD2046FBE724FA80
:1041200006F0F8E70B6BDA0507D40B6B2B4813F49A
:10413000803F2B4B08BF1846EDE74A680B6BC2F374
:104140008132022A4FEAD3730FD0032A14D0012AF6
:1041500006D00BB94008DEE70320B4FBF0F0DAE745
:104160000BB98008D7E70520F7E71BB90623B0FB9A
:10417000F3F0D0E70720F0E70BB9C008CBE7092040
:10418000EBE70B6B13F0400F48F2120018BF4FF42F
:104190000040C0E70B6B9B07BDD00B6B03F0030324
:1041A000012B0CD00B6B03F00303022B09D00B6B1C
:1041B000074803F00303032B18BF0020ABE71046AA
:1041C000A9E74FF40040A6E7244F00080010024082
:1041D00000127A00006CDC0200093D00003FAB01D8
:1041E000809FD50008B5274B98421ED00BD8A3F569
:1041F000943398422AD003F5E05398422DD0B0F181
:10420000804F1CD008BD204B98422DD003F5806311
:10421000984230D0A3F500639842F3D14FF4447034
:10422000FFF711FF4FF4447005E040F20B30FFF749
:104230000AFF40F20B30BDE80840FFF706BF4FF41D
:104240008060FFF700FF4FF48060F4E740F2014028
:10425000FFF7F9FE40F20140EDE74FF48160FFF710
:10426000F2FE4FF48160E6E740F21130FFF7EBFE1B
:1042700040F21130DFE740F21230FFF7E4FE40F287
:104280001230D8E7002C0140004401400B8810B5E3
:104290008362424B98421BD020F48063B3F1804F7D
:1042A00016D08B68C3623E4B98423CD003F59033E6
:1042B00098424FD03B4A904255D002F580629042DE
:1042C0005ED0A3F5A053984228D10B7B036325E071
:1042D000036823F07003036002684B881343036094
:1042E00002688B88134303608B68C3622B4B984230
:1042F00022D0B0F1804F16D0A3F594339842D2D19A
:104300004FF08043D3F8002422F44072C3F8002415
:10431000D3F80044CA882243C3F80024436943F019
:104320000103436110BD036823F440730360026816
:10433000CB8813430360F1E71B4BD3F8002C22F426
:104340004072C3F8002CD3F8004CCA882243C3F84B
:10435000002CBAE7036823F4407303600268CB883B
:1043600013430360B1E7D3F8002422F44072C3F88A
:104370000024D3F80044CA882243C3F80024A4E7E9
:10438000D3F8002822F44072C3F80028D3F800487C
:10439000CA882243C3F8002897E700BF002C0140D9
:1043A000002000400044014000200140036843F029
:1043B0000103036070474162704703690B4214BFF9
:1043C000012000207047C94301617047C368194349
:1043D000C1607047436C01290CBF43F4004323F4D0
:1043E0000043436470470000032900F20381DFE8C3
:1043F00011F0040047009A00DF00036A23F0010374
:104400000362836923F003038361036A11680B432A
:104410000362036A23F002030362016AD3880B4339
:104420000362754B98420AD020F4806103F5A053D3
:10443000994204D003F50063984240F0DB80036AA0
:1044400023F004030362016A93880B430362036A47
:1044500023F008030362016A13890B430362436874
:1044600023F480734360416853890B43436043687E
:1044700023F400734360416893890B4343607047A2
:10448000036A23F010030362836923F4407383619A
:10449000036A116843EA01130362036AD18823F0B7
:1044A00020030362036A43EA01130362524B9842FA
:1044B0002DD1036A918823F040030362036A43EA23
:1044C00001130362036A118923F080030362036A04
:1044D00043EA01130362494B5089D3F8041C9289C3
:1044E00021F48061C3F8041CD3F8041C41EA800164
:1044F000C3F8041CD3F8041C21F40061C3F8041CA5
:10450000D3F8041C41EA8202C3F8042C70473C4BE8
:1045100098426FD14368528923F4806343604368B3
:1045200043EA8203AAE7036A23F480730362C36940
:1045300023F00303C361036A116843EA01230362A2
:10454000036AD18823F400730362036A43EA0123F8
:104550000362294B98424DD1036A918823F480630A
:104560000362036A43EA01230362036A118923F4A5
:1045700000630362036A43EA012303621F4B50890D
:10458000D3F8041C928921F48051C3F8041CD3F899
:10459000041C41EA0011C3F8041CD3F8041C21F4E4
:1045A0000051C3F8041CD3F8041C41EA0212ABE723
:1045B000036A23F480530362C36923F44073C36125
:1045C000036A116843EA01330362036AD18823F462
:1045D00000530362036A43EA01330362064B9842C5
:1045E00008D15968528921F480415960596841EADB
:1045F00082125A60704700BF002C01400020014029
:104600000040014003291AD8DFE801F0020A121A1B
:10461000836923F070038361836913438361704767
:10462000836923F4E0438361836943EA0223F5E766
:10463000C36923F07003C361C3691343C361704747
:10464000C36923F4E043C361C36943EA0223F5E786
:1046500003290AD8DFE801F0020406084263704724
:1046600082637047C26370470264704703291AD897
:10467000DFE801F0020A121A836923F0080383615C
:104680008369134383617047836923F40063836103
:10469000836943EA0223F5E7C36923F00803C36192
:1046A000C3691343C3617047C36923F40063C361E3
:1046B000C36943EA0223F5E703291AD8DFE801F0CA
:1046C000020A121A836923F00C038361836913437E
:1046D00083617047836923F440638361836943EA9C
:1046E0000223F5E7C36923F00C03C361C3691343D5
:1046F000C3617047C36923F44063C361C36943EA7C
:104700000223F5E710B4032924D8DFE801F00228DA
:104710004B6D036A23F001030362036A23F00A036B
:104720000362046A138823430362836923F003034B
:10473000836184695388234383618369D48823F028
:10474000F0038361836943EA04138361036A43F0DE
:104750000103036292885DF8044BFFF7ADBF036A63
:10476000148823F010030362036A23F0A00303629A
:10477000036A43EA041303628369548823F4407391
:104780008361836943EA042383618369D48823F4C2
:1047900070438361836943EA04338361036A43F0AE
:1047A0001003D6E7036A148823F480730362036A54
:1047B00023F420630362036A43EA04230362C369A8
:1047C00023F00303C361C46953882343C361C369EE
:1047D000D48823F0F003C361C36943EA0413C361BF
:1047E000036A43F48073B4E7036A148823F48053A4
:1047F0000362036A23F420430362036A43EA043337
:104800000362C369548823F44073C361C36943EAF4
:104810000423C361C369D48823F47043C361C369AB
:1048200043EA0433C361036A43F4805391E70329E5
:104830000BD8DFE801F002040608406B7047806B7C
:104840007047C06B7047006C7047002070470000D5
:1048500008B50C4B98420DD003F57443984210D123
:1048600040F20E30FFF7EFFB40F20E30BDE808409B
:10487000FFF7EBBB40F21140FFF7E5FB40F21140C0
:10488000F4E708BD0044004038B5134B9842044695
:104890000D4618D003F57443984216D10620FFF751
:1048A000D7FB226812044FEA550310D503EB4003EF
:1048B000B3FBF5F1C1F3420321F00F010904090C28
:1048C0000B43E36038BD0220E9E70020E9E7034439
:1048D000B3FBF5F39BB2F4E700440040036823F018
:1048E00001030360036823F4C063036003680B43A0
:1048F00003607047036823F001030360036823F437
:104900008053036003680B4303607047036823F020
:1049100001030360436823F44053436043680B433F
:1049200043607047036843F0010303607047036806
:1049300023F00803036003680B43036070470368B8
:1049400023F00403036003680B4303607047C1F363
:10495000080181627047406AC0F308007047026A2C
:1049600001F01F0101238B401343036270478A0942
:1049700010B501F01F01145801238B40234313503D
:1049800010BD10B58C090122235801F01F018A4087
:1049900023EA0203235010BDC1F3891310B51C583C
:1049A0008B0D1A58C1F30440012303FA00F01040A4
:1049B00006D001F01F018B40234214BF01200020CC
:1049C00010BD0000084B994206D1D0F8D03023F436
:1049D0000043C0F8D0307047026AC1F3044101239C
:1049E0008B4013430362704709340F34DFF830D033
:1049F000002103E00B4B5B58435004310A480B4B3A
:104A000042189A42F6D30A4A02E0002342F8043BD5
:104A1000084B9A42F9D300F011F8FFF70BF87047F2
:104A2000D80200202C5B000800000020D8000020E5
:104A3000D8020020880A0020FEE700007E4BDA69D9
:104A400002F00602062A82B047D0DA69900444D503
:104A50007A4A7B4959605A6099609A601A6942F0B3
:104A600020021A611A6942F040021A61DA68D1071D
:104A7000FCD41A6922F020021A611A6942F010026D
:104A80001A61DA6912F0060F6E4A40F0C780A5235A
:104A90001380694B6B4AD969090A01F0DF01518023
:104AA000D969C1F307419180D969090ED180196A8A
:104AB000C9B21181196AC1F307215181DA68D2079D
:104AC000FCD41A6922F010021A611A6922F40072E9
:104AD0001A611A6942F080021A615B4AD2F8883082
:104AE00043F47003C2F88830584B1A6842F0010250
:104AF0001A601A689007FCD55A6842F080025A6022
:104B000000220192019A4F2A40F290805A6842F0A6
:104B100090025A6000220192019A4F2A40F2898045
:104B20005A6822F003025A601A6822F0867222F450
:104B300080321A605968464A0A405A605A6822F020
:104B4000084222F474125A60DA6A22F0404222F0DB
:104B50000F02DA621A6B22F4817222F001021A63E8
:104B60001A6B22F480321A631A6B22F000421A6325
:104B70005A6B22F001025A63D3F8C02022F480322B
:104B8000C3F8C02000229A60C3F8CC201A6842F40F
:104B900080321A604FF400621968890301D4013A27
:104BA000FAD11A68900333D55A685A605A6842F4A9
:104BB00000525A605A6842F480625A605A6822F081
:104BC000036222F470225A60DA6A22F0404222F034
:104BD0000F02DA625A6842F0016242F480325A608F
:104BE000DA6A42F00102DA62DA6ADA621A6842F0DC
:104BF00080721A601A689101FCD55A6822F003028B
:104C00005A605A6842F002025A605A681207FCD58C
:104C100000214FF0006002B0FFF7EEB9DB6903F04E
:104C20000603022B7FF435AFBB2331E7019A013233
:104C300067E7019A01326EE700200240AB89EFCDB1
:104C40002301674500F8FF1F00ED00E0001002405F
:104C50000C00FF082DE9F047089D0C46002B4ED1B3
:104C600094468C458646B2FA82F262D94AB1C2F1C4
:104C70002003914020FA03F30CFA02FC194300FAD6
:104C800002FE4FEA1C471FFA8CF6B1FBF7F44FEA1D
:104C90001E4307FB141143EA014304FB06F199424A
:104CA0000AD91CEB030304F1FF3080F01381994211
:104CB00040F21081023C6344591A1FFA8EF3B1FB93
:104CC000F7F007FB101143EA014300FB06F69E4292
:104CD0000AD91CEB030300F1FF3180F0FD809E42F6
:104CE00040F2FA80634402389B1B40EA04400021F2
:104CF0001DB1D3400022C5E90032BDE8F0878B42E8
:104D000005D90DB1C5E9000100210846F5E7B3FA60
:104D100083F1002946D1A34202D39042C0F0F18032
:104D2000861A64EB03030120002DE6D0C5E9006379
:104D3000E3E7002A40F09180A1EB0C044FEA1C4805
:104D40001FFA8CF70121B4FBF8F64FEA1E4308FB6B
:104D5000164443EA044307FB06F0984208D91CEBCB
:104D6000030306F1FF3402D2984200F2CE802646B9
:104D70001C1A1FFA8EF3B4FBF8F008FB104443EA48
:104D8000044300FB07F79F4208D91CEB030300F123
:104D9000FF3402D29F4200F2B1802046DB1B40EA82
:104DA0000640A5E7C1F120068B4022FA06F71F4313
:104DB00020FA06FC04FA01F343EA0C03F44000FA7B
:104DC00001F8380C4FEA1349B4FBF0FE1FFA87FCD8
:104DD00000FB1E4449EA04440EFB0CF9A14502FA0B
:104DE00001F20AD93C190EF1FF3A80F08580A14505
:104DF00040F28280AEF1020E3C44A4EB09041FFA9B
:104E000083F9B4FBF0F300FB134449EA044403FBC9
:104E10000CFCA44507D93C1903F1FF3068D2A44526
:104E200066D9023B3C4443EA0E40A0FB0293A4EB4C
:104E30000C049C42CE469C4652D34FD055B1B8EBA1
:104E40000E0364EB0C0404FA06F6CB40CC401E4380
:104E5000C5E900640021BDE8F087C2F1200320FA13
:104E600003F10CFA02FC24FA03F394400C434FEADA
:104E70001C4800FA02FE1FFA8CF7B3FBF8F008FB9F
:104E80001031230C43EA014300FB07F1994208D992
:104E90001CEB030300F1FF362CD299422AD90238C9
:104EA00063445B1AA4B2B3FBF8F108FB113344EA84
:104EB000034401FB07F3A34208D91CEB040401F1EE
:104EC000FF3613D2A34211D902396444E41A41EAED
:104ED000004138E70446EFE6084605E7C845ADD28D
:104EE000B9EB020E63EB070C0138A7E73146EDE79B
:104EF000034698E73046D4E7D6467EE76344023857
:104F00004CE70646234608460EE7023E63442FE779
:104F1000FFFF000001000000000000000000000191
:104F20000000000000000000000000000102030477
:104F30000607080900000000010203040000000049
:104F40000B71D63C3B5E563D2AAFA03D0513D63DC6
:104F5000A9A8053E5C30203EF39B3A3ECEE6543E87
:104F60004E0C6F3EEE83843E766A913E7A379E3ECB
:104F7000BCE8AA3E017CB73E16EFC33EC93FD03E17
:104F8000F46BDC3E7271E83E284EF43E0000003FB8
:104F900078C2053F776D0B3F0000113F1879163F2F
:104FA000CAD71B3F241B213F3B42263F254C2B3FAA
:104FB0000138303FF304353F22B2393FBE3E3E3F19
:104FC000F8A9423F0AF3463F35194B3FBD1B4F3FFF
:104FD000EFF9523F1EB3563FA1465A3FD8B35D3F4B
:104FE00029FA603F0219643FD50F673F1EDE693F13
:104FF0005E836C3F20FF6E3FF450713F7178733FCA
:105000003675753FEA46773F3CED783FE2677A3F79
:1050100098B67B3F25D97C3F55CF7D3FFD987E3F9D
:10502000F9357F3F2FA67F3F8BE97F3F0000803F10
:105030008BE97F3F2FA67F3FF9357F3FFD987E3F6D
:1050400055CF7D3F24D97C3F98B67B3FE1677A3FBF
:105050003CED783FEA46773F3575753F7078733F92
:10506000F450713F21FF6E3F5E836C3F1DDE693F50
:10507000D40F673F0019643F29FA603FD7B35D3F03
:105080009F465A3F1DB3563FEEF9523FBB1B4F3F61
:1050900034194B3F08F3463FF5A9423FBD3E3E3F22
:1050A00023B2393FF304353F0038303F254C2B3FC6
:1050B0003A42263F221B213FC7D71B3F1779163F95
:1050C000FEFF103F736D0B3F79C2053F0100003FAB
:1050D000264EF43E6D71E83EF46BDC3EC73FD03E99
:1050E00010EFC33E007CB73EB8E8AA3E73379E3E41
:1050F000746A913EEA83843E4E0C6F3EC8E6543E8D
:10510000F89B3A3E5A30203EA1A8053E0913D63DF1
:1051100022AFA03D135E563D8C70D63C191919196B
:1051200019191919191919191919194B19191919BD
:1051300019194B191919191919194B4B1919191949
:10514000194B191919191919194B194B1919191939
:10515000194B4B1919191919194B4B4B19191919C5
:105160004B191919191919194B19194B1919191919
:105170004B194B19191919194B194B4B19191919A5
:105180004B4B1919191919194B4B194B1919191995
:105190004B4B4B19191919194B4B4B4B1919194BEF
:1051A000191919191919194B1919194B1919194BD9
:1051B00019194B191919194B19194B4B1919194B65
:1051C000194B19191919194B194B194B1919194B55
:1051D000194B4B191919194B194B4B4B1919194BE1
:1051E0004B1919191919194B4B19194B1919194B35
:1051F0004B194B191919194B4B194B4B1919194BC1
:105200004B4B19191919194B4B4B194B1919194BB0
:105210004B4B4B191919194B4B4B4B4B19194B193C
:105220001919191919194B191919194B19194B1958
:1052300019194B1919194B1919194B4B19194B19E4
:10524000194B191919194B19194B194B19194B19D4
:10525000194B4B1919194B19194B4B4B19194B1960
:105260004B19191919194B194B19194B19194B19B4
:105270004B194B1919194B194B194B4B19194B1940
:105280004B4B191919194B194B4B194B19194B1930
:105290004B4B4B1919194B194B4B4B4B19194B4B8A
:1052A0001919191919194B4B1919194B19194B4B74
:1052B00019194B1919194B4B19194B4B19194B4B00
:1052C000194B191919194B4B194B194B19194B4BF0
:1052D000194B4B1919194B4B194B4B4B19194B4B7C
:1052E0004B19191919194B4B4B19194B19194B4BD0
:1052F0004B194B1919194B4B4B194B4B19194B4B5C
:105300004B4B191919194B4B4B4B194B19194B4B4B
:105310004B4B4B1919194B4B4B4B4B4B194B191909
:1053200019191919194B19191919194B194B191957
:1053300019194B19194B191919194B4B194B1919E3
:10534000194B1919194B1919194B194B194B1919D3
:10535000194B4B19194B1919194B4B4B194B19195F
:105360004B191919194B19194B19194B194B1919B3
:105370004B194B19194B19194B194B4B194B19193F
:105380004B4B1919194B19194B4B194B194B19192F
:105390004B4B4B19194B19194B4B4B4B194B194B89
:1053A00019191919194B194B1919194B194B194B73
:1053B00019194B19194B194B19194B4B194B194BFF
:1053C000194B1919194B194B194B194B194B194BEF
:1053D000194B4B19194B194B194B4B4B194B194B7B
:1053E0004B191919194B194B4B19194B194B194BCF
:1053F0004B194B19194B194B4B194B4B194B194B5B
:105400004B4B1919194B194B4B4B194B194B194B4A
:105410004B4B4B19194B194B4B4B4B4B194B4B19D6
:1054200019191919194B4B191919194B194B4B19F2
:1054300019194B19194B4B1919194B4B194B4B197E
:10544000194B1919194B4B19194B194B194B4B196E
:10545000194B4B19194B4B19194B4B4B194B4B19FA
:105460004B191919194B4B194B19194B194B4B194E
:105470004B194B19194B4B194B194B4B194B4B19DA
:105480004B4B1919194B4B194B4B194B194B4B19CA
:105490004B4B4B19194B4B194B4B4B4B194B4B4B24
:1054A00019191919194B4B4B1919194B194B4B4B0E
:1054B00019194B19194B4B4B19194B4B194B4B4B9A
:1054C000194B1919194B4B4B194B194B194B4B4B8A
:1054D000194B4B19194B4B4B194B4B4B194B4B4B16
:1054E0004B191919194B4B4B4B19194B194B4B4B6A
:1054F0004B194B19194B4B4B4B194B4B194B4B4BF6
:105500004B4B1919194B4B4B4B4B194B194B4B4BE5
:105510004B4B4B19194B4B4B4B4B4B4B4B191919D5
:10552000191919194B1919191919194B4B19191955
:1055300019194B194B19191919194B4B4B191919E1
:10554000194B19194B191919194B194B4B191919D1
:10555000194B4B194B191919194B4B4B4B1919195D
:105560004B1919194B1919194B19194B4B191919B1
:105570004B194B194B1919194B194B4B4B1919193D
:105580004B4B19194B1919194B4B194B4B1919192D
:105590004B4B4B194B1919194B4B4B4B4B19194B87
:1055A000191919194B19194B1919194B4B19194B71
:1055B00019194B194B19194B19194B4B4B19194BFD
:1055C000194B19194B19194B194B194B4B19194BED
:1055D000194B4B194B19194B194B4B4B4B19194B79
:1055E0004B1919194B19194B4B19194B4B19194BCD
:1055F0004B194B194B19194B4B194B4B4B19194B59
:105600004B4B19194B19194B4B4B194B4B19194B48
:105610004B4B4B194B19194B4B4B4B4B4B194B19D4
:10562000191919194B194B191919194B4B194B19F0
:1056300019194B194B194B1919194B4B4B194B197C
:10564000194B19194B194B19194B194B4B194B196C
:10565000194B4B194B194B19194B4B4B4B194B19F8
:105660004B1919194B194B194B19194B4B194B194C
:105670004B194B194B194B194B194B4B4B194B19D8
:105680004B4B19194B194B194B4B194B4B194B19C8
:105690004B4B4B194B194B194B4B4B4B4B194B4B22
:1056A000191919194B194B4B1919194B4B194B4B0C
:1056B00019194B194B194B4B19194B4B4B194B4B98
:1056C000194B19194B194B4B194B194B4B194B4B88
:1056D000194B4B194B194B4B194B4B4B4B194B4B14
:1056E0004B1919194B194B4B4B19194B4B194B4B68
:1056F0004B194B194B194B4B4B194B4B4B194B4BF4
:105700004B4B19194B194B4B4B4B194B4B194B4BE3
:105710004B4B4B194B194B4B4B4B4B4B4B4B1919A1
:10572000191919194B4B19191919194B4B4B1919EF
:1057300019194B194B4B191919194B4B4B4B19197B
:10574000194B19194B4B1919194B194B4B4B19196B
:10575000194B4B194B4B1919194B4B4B4B4B1919F7
:105760004B1919194B4B19194B19194B4B4B19194B
:105770004B194B194B4B19194B194B4B4B4B1919D7
:105780004B4B19194B4B19194B4B194B4B4B1919C7
:105790004B4B4B194B4B19194B4B4B4B4B4B194B21
:1057A000191919194B4B194B1919194B4B4B194B0B
:1057B00019194B194B4B194B19194B4B4B4B194B97
:1057C000194B19194B4B194B194B194B4B4B194B87
:1057D000194B4B194B4B194B194B4B4B4B4B194B13
:1057E0004B1919194B4B194B4B19194B4B4B194B67
:1057F0004B194B194B4B194B4B194B4B4B4B194BF3
:105800004B4B19194B4B194B4B4B194B4B4B194BE2
:105810004B4B4B194B4B194B4B4B4B4B4B4B4B196E
:10582000191919194B4B4B191919194B4B4B4B198A
:1058300019194B194B4B4B1919194B4B4B4B4B1916
:10584000194B19194B4B4B19194B194B4B4B4B1906
:10585000194B4B194B4B4B19194B4B4B4B4B4B1992
:105860004B1919194B4B4B194B19194B4B4B4B19E6
:105870004B194B194B4B4B194B194B4B4B4B4B1972
:105880004B4B19194B4B4B194B4B194B4B4B4B1962
:105890004B4B4B194B4B4B194B4B4B4B4B4B4B4BBC
:1058A000191919194B4B4B4B1919194B4B4B4B4BA6
:1058B00019194B194B4B4B4B19194B4B4B4B4B4B32
:1058C000194B19194B4B4B4B194B194B4B4B4B4B22
:1058D000194B4B194B4B4B4B194B4B4B4B4B4B4BAE
:1058E0004B1919194B4B4B4B4B19194B4B4B4B4B02
:1058F0004B194B194B4B4B4B4B194B4B4B4B4B4B8E
:105900004B4B19194B4B4B4B4B4B194B4B4B4B4B7D
:105910004B4B4B194B4B4B4B4B4B4B4B00C0C101B3
:10592000C30302C2C60607C705C5C404CC0C0DCD0F
:105930000FCFCE0E0ACACB0BC90908C8D81819D97F
:105940001BDBDA1A1EDEDF1FDD1D1CDC14D4D515AF
:10595000D71716D6D21213D311D1D010F03031F19F
:1059600033F3F23236F6F737F53534F43CFCFD3DCF
:10597000FF3F3EFEFA3A3BFB39F9F83828E8E929BF
:10598000EB2B2AEAEE2E2FEF2DEDEC2CE42425E56F
:1059900027E7E62622E2E323E12120E0A06061A1DF
:1059A00063A3A26266A6A767A56564A46CACAD6D8F
:1059B000AF6F6EAEAA6A6BAB69A9A86878B8B979FF
:1059C000BB7B7ABABE7E7FBF7DBDBC7CB47475B52F
:1059D00077B7B67672B2B373B17170B0509091511F
:1059E0009353529296565797559594549C5C5D9D4F
:1059F0005F9F9E5E5A9A9B5B99595898884849893F
:105A00004B8B8A4A4E8E8F4F8D4D4C8C44848545EE
:105A100087474686824243834181804000C181405E
:105A200001C0804101C0804100C1814001C080416E
:105A300000C1814000C1814001C0804101C080415E
:105A400000C1814000C1814001C0804100C181404E
:105A500001C0804101C0804100C1814001C080413E
:105A600000C1814000C1814001C0804100C181402E
:105A700001C0804101C0804100C1814000C181401E
:105A800001C0804101C0804100C1814001C080410E
:105A900000C1814000C1814001C0804101C08041FE
:105AA00000C1814000C1814001C0804100C18140EE
:105AB00001C0804101C0804100C1814000C18140DE
:105AC00001C0804101C0804100C1814001C08041CE
:105AD00000C1814000C1814001C0804100C18140BE
