:020000040800F2
:1000000004030020E16100082D6200082D62000851
:100010002D6200082D6200082D620008000000001B
:100020000000000000000000000000002D62000839
:100030002D620008000000002D620008D5120008A3
:10004000000000002D6200082D6200082D620008EB
:100050002D6200082D6200082D6200082D62000844
:100060002D6200082D620008294700082D62000853
:100070002D6200082D6200082D6200082D62000824
:100080002D6200082D620008000000002D620008AB
:100090002D6200082D6200082D62000879340008E6
:1000A0002D6200082D6200082D6200082D620008F4
:1000B000E5120008000000002D62000800000000AA
:1000C000E9350008000000002D6200082D620008DC
:1000D0002D62000800000000000000000000000089
:1000E00000000000000000002D6200080000000079
:1000F0000000000000000000000000000000000000
:100100002D62000800000000000000002D620008C1
:1001100000000000000000000000000000000000DF
:1001200000000000000000000000000000000000CF
:1001300000000000000000000000000000000000BF
:100140000000000000000000000000002D62000818
:1001500053B94AB9002908BF00281CBF4FF0FF312E
:100160004FF0FF3000F074B9ADF1080C6DE904CE2A
:1001700000F006F8DDF804E0DDE9022304B0704782
:100180002DE9F047089D04468E46002B4DD18A424A
:10019000944669D9B2FA82F252B101FA02F3C2F17D
:1001A000200120FA01F10CFA02FC41EA030E94400E
:1001B0004FEA1C48210CBEFBF8F61FFA8CF708FB2F
:1001C00016E341EA034306FB07F199420AD91CEB07
:1001D000030306F1FF3080F01F81994240F21C8139
:1001E000023E63445B1AA4B2B3FBF8F008FB103381
:1001F00044EA034400FB07F7A7420AD91CEB0404B6
:1002000000F1FF3380F00A81A74240F20781644485
:10021000023840EA0640E41B00261DB1D44000230A
:10022000C5E900433146BDE8F0878B4209D9002D6E
:1002300000F0EF800026C5E9000130463146BDE8F8
:10024000F087B3FA83F6002E4AD18B4202D3824262
:1002500000F2F980841A61EB030301209E46002D11
:10026000E0D0C5E9004EDDE702B9FFDEB2FA82F266
:10027000002A40F09280A1EB0C014FEA1C471FFAC4
:100280008CFE0126200CB1FBF7F307FB131140EAAB
:1002900001410EFB03F0884208D91CEB010103F178
:1002A000FF3802D2884200F2CB804346091AA4B23A
:1002B000B1FBF7F007FB101144EA01440EFB00FE0E
:1002C000A64508D91CEB040400F1FF3102D2A64573
:1002D00000F2BB800846A4EB0E0440EA03409CE712
:1002E000C6F12007B34022FA07FC4CEA030C20FABF
:1002F00007F401FA06F31C43F9404FEA1C4900FADF
:1003000006F3B1FBF9F8200C1FFA8CFE09FB18115B
:1003100040EA014108FB0EF0884202FA06F20BD9CE
:100320001CEB010108F1FF3A80F08880884240F21E
:100330008580A8F102086144091AA4B2B1FBF9F062
:1003400009FB101144EA014100FB0EFE8E4508D95D
:100350001CEB010100F1FF346CD28E456AD90238E2
:10036000614440EA0840A0FB0294A1EB0E01A142C7
:10037000C846A64656D353D05DB1B3EB080261EB35
:100380000E0101FA07F722FA06F3F1401F43C5E90F
:10039000007100263146BDE8F087C2F12003D84045
:1003A0000CFA02FC21FA03F3914001434FEA1C4787
:1003B0001FFA8CFEB3FBF7F007FB10360B0C43EA79
:1003C000064300FB0EF69E4204FA02F408D91CEB29
:1003D000030300F1FF382FD29E422DD90238634427
:1003E0009B1B89B2B3FBF7F607FB163341EA0341C7
:1003F00006FB0EF38B4208D91CEB010106F1FF3816
:1004000016D28B4214D9023E6144C91A46EA00460C
:1004100038E72E46284605E70646E3E61846F8E69E
:100420004B45A9D2B9EB020864EB0C0E0138A3E7E7
:100430004646EAE7204694E74046D1E7D0467BE7C8
:10044000023B614432E7304609E76444023842E740
:10045000704700BF1D4A2DE9F8431368002B33D0C5
:100460001B4D1C492C88DFF88CE0013B136004F025
:100470001F03194AC85C32F81310184B00221A8067
:10048000AEF8002098B1DFF87080154F154E4FF48C
:10049000967CA6FB01935B090CFB13130131FB5CFB
:1004A00028F8123001329042F3D1AEF80000072153
:1004B0000D4805F04BFE0D4A0D4B012119701368D4
:1004C0000C440B442C801360BDE8F883FC0800202A
:1004D000F808002004090020B80800206805002062
:1004E00088070020B5814E1B00440040F400002026
:1004F000640B00206A05002010030020F8B504F00A
:10050000D1FD202004F05EFE384D102004F05AFE8C
:10051000042004F057FE284604F0DCFD202004F0FF
:1005200051FE102004F04EFE042004F04BFE04F0B7
:10053000C9FD2F4B2F4A1E782F49F343DBB2CC5C09
:10054000D75C04F0AFFD202004F03CFE102004F046
:1005500039FE042004F036FE3146284604F0F4FD4E
:10056000202004F02FFE102004F02CFE042004F0C4
:1005700029FE04F0A7FD04F095FD202004F022FEE2
:10058000E443102004F01EFEE4B2042004F01AFE3E
:1005900021461A4804F0D8FD202004F013FE102054
:1005A00004F010FE042004F00DFE04F08BFD04F0B6
:1005B00079FD202004F006FE102004F003FE042044
:1005C00004F000FE39460E4804F0BEFD202004F081
:1005D000F9FD102004F0F6FD042004F0F3FD04F012
:1005E00071FD084B01221A70F8BD00BF00BC000865
:1005F00002010020746600087467000804BC00084B
:1006000008BC0008F10000202DE9F04FCB4ACC498E
:1006100013680E68A1B00296002B00F05684013BCF
:100620001360C84BC849B3F800B0DFF828A30BF13A
:1006300001020BF102039BB292B2A1FB0245A1FBA6
:100640000B40A1FB034140094FF49674490904FB98
:1006500011316D0904FB10B39BB204FB152292B259
:10066000A5200AF8030089B227230AF80230E02304
:10067000B64A0AF80130731C12880992FF2B40F227
:100680003A840021DFF8D082DFF8D0E21291A22371
:100690009B22314601EB41042001AD49DFF8A892CD
:1006A000085801EB0416C0F307446340C0F3072564
:1006B000C7B218F803001EF80330716814946A403A
:1006C00042407B4018F802001EF802201395434078
:1006D000C1F3074C18F803001EF80330CDF840C0F2
:1006E000644662404240C1F30720C9B20F904340C4
:1006F000084618F802101EF802200E904B404240A7
:1007000018F803101EF8033011974A40B16818F822
:1007100002001EF802200196C1F3074C65466B40AB
:100720004340CDF834C0C1F3072CC9B20846674630
:1007300018F803101EF80330CDF830C07A404A4054
:1007400080EA03010BF103031FFA83FC0BF104039E
:10075000CDF80CC00BF105071FFA83FCCDF810C0D3
:100760000BF106061FFA87FC67460BF107051FFA17
:1007700086FC66460BF108041FFA85FC65460BF102
:1007800009031FFA84FC64461FFA83FCCDF814C0E9
:100790000BF10A0C0A901FFA8CFC0BF10B000B9268
:1007A0001E91CDF818C00BF10C011FFA80FC6046B9
:1007B0000BF10D021FFA81FC0399CDF81CC01FFA42
:1007C00082FCCDF820C0049A1996A9FB01C35909EF
:1007D0001591A9FB02C305991A955A09CDE9162767
:1007E000A9FB01C3069A07991B94A9FB06C6A9FB9E
:1007F00007C7A9FB05C5A9FB04C47609A9FB022C00
:100800001D90A9FB0121A9FB0020089A18965E09FA
:100810001C96A9FB02625309159E1F93039B4FF47C
:10082000967202FB16360396049B169E02FB163642
:10083000179B04967F0902FB1737DDE9186302FB5B
:10084000163315931A9B1C9E6D0902FB15351B9BD5
:10085000640902FB1434059B02FB16360596069BC1
:100860004FEA5C1C02FB1C3C1D9B400902FB103044
:10087000079B4909164602FB1131089B1F9A06FB8C
:100880001232BDF80C30129E0AF80360BDF8143025
:10089000059393B207930B9B1E9ABDF810600496C4
:1008A00089B2069118F80310BDF8546051401EF843
:1008B00003200392049ABFB24FF001030AF80230FA
:1008C000149B0AF80730ADB2139B0AF80630A4B2A5
:1008D000119F109B0AF805700AF80430059C0F9BC5
:1008E0000AF804301FFA8CFC0E9B0AF80C3080B218
:1008F000069B0D9D0C9F0AF80050019E0AF803709C
:10090000079B0A980AF80300D6E90340039D18F8EC
:1009100001201EF80110C4F307435D405540C4F3A5
:10092000072203924A4018F8051051401EF805208E
:10093000E4B20494624018F8014011E0F400002091
:1009400098060020B4080020B5814E1B0009002045
:10095000D805002088070020746700087466000826
:100960001EF801106240C0F3074518F802401EF857
:100970000220059569406140C0F30727C0B20446D4
:1009800018F801001EF8011006977A4042406140B5
:1009900018F802001EF8022007944140706918F808
:1009A00001401EF80110C0F3074C65466A406240E2
:1009B000CDF820C0C0F3072C6446CDF828C05FFAFC
:1009C00080FC18F802001EF80220CDF82CC061400F
:1009D0004140674618F80100B4691EF801107A40DA
:1009E00042400BF10E071EF802C018F80200CDE9D4
:1009F0000CC4C4F3074C6246CDF838C00BF1150C9B
:100A000051401FFA8CFC4140CDF844C00BF1160C4C
:100A10000F91BFB20BF113011FFA8CFC8AB2CDF813
:100A200048C0A9FB071C4FEA5C1C4FF4967101FB00
:100A30001C77BFB20BF10F06B6B20AF80730A9FB5C
:100A400006C77F0901FB1766B6B20BF11005039BC1
:100A50000AF80630ADB2A9FB05C6760901FB1655AA
:100A6000ADB20BF11104049B0AF80530A4B2A9FB46
:100A700004C56D0901FB1544A4B20BF11200059DDC
:100A80000AF8045080B2A9FB00C46409109201FB6B
:100A90001400109B069F089D80B20C460AF8007057
:100AA000A9FB03C0400901FB103189B20BF114020C
:100AB00007980AF8010092B2A9FB02C1490904FB98
:100AC000112292B20AF80250119D0A9B0F990B98BD
:100AD000019EA9FB05C2520904FB125292B2129D5B
:100AE0000AF80230A9FB053C4FEA5C1C04FB1C5CC5
:100AF0001FFA8CFC0D9C0C9D18F801200AF80C00C4
:100B0000C4F307200390684042401EF8011018F813
:100B100002001EF80220E4B261404140F0690494F2
:100B2000C0F3074518F801401EF8011005956A400A
:100B30006240C0F307275FFA80FC18F802001EF835
:100B40000220CDF81CC079404140644618F80100ED
:100B50001EF80110069762404240306A18F80240C1
:100B60001EF80220C0F3074C634659406140CDF89F
:100B700020C0C0F3072C6446CDF828C05FFA80FC83
:100B800018F80100624042401EF80100746ACDF876
:100B90002CC080EA0C0118F802001EF80220484020
:100BA0000BF117071EF800C018F80010CDE90CC4AF
:100BB000C4F3074C66467240CDF83CC081EA020C93
:100BC000CDF840C00BF11E0C1FFA8CFCCDF844C0D0
:100BD0000BF11F0C1FFA8CFCCDF848C00BF1200C58
:100BE000BFB21FFA8CFCCDF84CC0A9FB073C4FEA02
:100BF0005C1C4FF4967303FB1C77BFB20BF1180615
:100C00000E9B0AF80730B6B2A9FB06C77F094FF45E
:100C1000967303FB1766B6B20BF11905039B0AF82E
:100C20000630ADB2A9FB05C64FF49677760907FBEF
:100C30001655ADB20BF11A04049B0AF80530A4B2A4
:100C4000A9FB04C56D0907FB1544A4B20BF11B00F9
:100C5000059D0AF8045080B2A9FB00C4640907FB93
:100C6000140080B20BF11C013B4689B2069F0AF8C2
:100C70000070A9FB0170400903FB101189B20BF150
:100C80001D0207980AF8010092B2A9FB02714909F6
:100C900003FB1122119892B21C46089B0AF80230FD
:100CA000A9FB0072520904FB120292B20A9B0AF8D5
:100CB0000230129A0B990F9B0C98019EA9FB027CA3
:100CC0004FEA5C1C04FB1C2C1FFA8CFC139A0AF8DC
:100CD0000C10A9FB025C4FEA5C1C04FB1C2C1FFAE5
:100CE0008CFC0D9C0AF80C30109B18F803101EF8B1
:100CF0000320C4F3072358404140E0B2079042402C
:100D000018F801001EF801504240D6E90A4018F8D0
:100D100002101EF80220C4F3074675406940E7B28E
:100D2000C4F3072518F801401EF801100A956A401F
:100D30006240794018F802401EF80220089661408F
:100D4000C0F3074C18F801401EF80110CDF804C09C
:100D500065466A4062405FFA80FCC0F3072418F8D9
:100D600002001EF802200B97614041406646039442
:100D7000CDF810C018F801001EF801107240424072
:100D80000BF1220C18F802001EF8022005921FFA3F
:100D90008CF20C920BF1210E0BF129021FFA82F852
:100DA0001FFA8EFECDF83480A9FB0EC84FEA581802
:100DB0004FF4967C0CFB18EE1FFA8EFE4FF49678DB
:100DC0000AF80E300C9BA9FB03CE4FEA5E1E08FB0F
:100DD0001E3C1FFA8CFC0BF12307079B0AF80C3012
:100DE000BFB2A9FB07EC4FEA5C1C08FB1C77BFB243
:100DF0000BF12406089B0AF80730B6B2A9FB06C718
:100E00007F0908FB1766B6B20BF125050A9B0AF8A5
:100E10000630ADB2A9FB05C6760908FB1655ADB282
:100E20000BF126040B9F0AF80570A4B2A9FB047508
:100E30006D0908FB15444140A4B20BF12700019D48
:100E40000AF8045080B2A9FB0054640908FB14009E
:100E5000069180B20BF12801039C0AF8004089B288
:100E6000A9FB0140400908FB10110D9B049E89B2AB
:100E70000BF12A0292B20AF80160A9FB0301A9FB57
:100E800002404909400908FB113908FB10239BB2B5
:100E90001FFA89F90699059A0AF809100AF8032039
:100EA000099B2048204A03F01F01013303801F4B98
:100EB0001F4823F811B00BF12B0303801D4B2B208F
:100EC000585413680133C6461360029B022B0CDC96
:100ED00001335A4202F0030203F0030358BF5342A6
:100EE000154A136021B0BDE8F08F144B00221A7030
:100EF00021B0BDE8F08FDBB2DFF84480129383F0BD
:100F00007B03DFF840E018F803201EF8031082F09E
:100F10009A0218F802301EF802204B403146FFF7C3
:100F2000B9BB00BF00090020FC080020B808002061
:100F3000B40800200409002098060020DC000020EE
:100F400074670008746600082DE9F04F614B9FED4F
:100F5000626A1B88DFED616A614A5BBA9BB207EE89
:100F6000103AB8EE477AF9EE087AE7EE067AC2232D
:100F700087B0137067EEA67AF5EEC07AF1EE10FA3C
:100F8000C0F2A280FCEEE77A17EE903AD9B2C3F332
:100F90000723009101930C465248019B016854704D
:100FA0009370002900F08D80013901604E494F4A4D
:100FB000098884F0E0084E1D12F80850B6B2029677
:100FC0005D408E1DB7B285F08205494E12F805903E
:100FD00016F80880474A735D029E049388EA090563
:100FE0004C1C01F1020E01F1030C081DA4B21FFA02
:100FF0008EFE1FFA8CFC80B20395A2FB01856B0963
:10100000A2FB048BA2FB0E8AA2FB0C890597A2FB14
:101010000058A2FB0665A2FB0762029F4FF496767A
:101020006D0906FB1575059F520906FB1272324FBA
:101030004FEA5A1A4FEA59194FEA58184FEA5B1B00
:1010400006FB1AEE06FB19CC06FB180006FB1B4438
:101050001FFA82F806FB13163A88284B02F01F0A83
:101060001B6801323A80264A03F10109234B22F81A
:101070001A101D4AC3F800900731DFF88C901180D8
:10108000B6B2A4B2A52109F806101FFA8EFE0321FC
:101090001FFA8CFC80B209F80410019B009C194ACD
:1010A000C221ADB209F80E1009F80C40039909F8F5
:1010B0000030049B09F8051009F80830072302F8EE
:1010C0000A3007B0BDE8F08F0023CDE900331C469D
:1010D00062E700BF4C0700200000FA3A0000C84257
:1010E000680B0020F4000020B4080020746700089A
:1010F00074660008B5814E1B00090020FC08002022
:10110000B808002004090020880700202DE9F04FCE
:10111000614B9FED626A1B88DFED617ADFED616AEA
:10112000614A5BBA9BB207EE103AB8EE477AC02329
:10113000E7EE067A87B0137067EEA67AF5EEC07A0E
:10114000F1EE10FAC0F2A280FCEEE77A17EE903AC8
:10115000D9B2C3F30723009101930C465348019B76
:10116000016854709370002900F08D80013901608E
:101170004F49504A098884F061084E1D12F8085002
:10118000B6B202965D408E1DB7B285F043054A4E59
:1011900012F8059016F80880484A735D029E049381
:1011A00088EA09054C1C01F1020E01F1030C081D2F
:1011B000A4B21FFA8EFE1FFA8CFC80B20395A2FB2C
:1011C00001856B09A2FB048BA2FB0E8AA2FB0C8992
:1011D0000597A2FB0058A2FB0665A2FB0762029FCF
:1011E0004FF496766D0906FB1575059F520906FBAF
:1011F0001272334F4FEA5A1A4FEA59194FEA5818E8
:101200004FEA5B1B06FB1AEE06FB19CC06FB180027
:1012100006FB1B441FFA82F806FB13163A88294B7B
:1012200002F01F0A1B6801323A80274A03F10109C4
:10123000244B22F81A101E4AC3F800900731DFF839
:1012400090901180B6B2A4B2A52109F806101FFA39
:101250008EFE03211FFA8CFC80B209F80410019B5A
:10126000009C1A4AC021ADB209F80E1009F80C40D2
:10127000039909F80030049B09F8051009F80830B3
:10128000072302F80A3007B0BDE8F08F0023CDE94C
:1012900000331C4662E700BF4C07002052B82F3BCA
:1012A0001F853BC20000C842680B0020F4000020EC
:1012B000B40800207467000874660008B5814E1BEE
:1012C00000090020FC080020B808002004090020C4
:1012D00088070020024A136801331360704700BF7B
:1012E00050070020F8B54549454804F04BFF08BBBE
:1012F0004449434804F046FF00B9F8BD414940481D
:10130000414D04F057FF414B2C881B88A3426CD9F8
:101310003F4B3B48A3FB04134FF496725B0902FB5F
:1013200013439BB23B4A013432F8131004F0F4FE2D
:101330002C80F8BD3149324804F03CFF40F2017185
:101340002F4804F0F1FE40F2027106462C4804F0EA
:10135000EBFE40F203710746294804F0E5FE4FF426
:10136000E0610546264804F0DFFE40F201710446C4
:10137000234804F0E1FE3E43214840F2027104F0AC
:10138000DBFE35431E4840F2037104F0D5FE2C43CA
:101390001B484FF4E06104F0CFFEE4B2184804F0BB
:1013A000BFFE002CA4D11C491C4C1D4A0B682468AC
:1013B0001460002B9CD01B4C013B22880B60144B0B
:1013C000A3FB02534FF496715B0901FB13231649EB
:1013D000013222800A680132B0F5807F9BB20A6038
:1013E000124A28BF0020D05482E70548072104F0A4
:1013F000BBFE0F4B00221A70F8BD00BF05000507A9
:101400000044004007000707680500206A05002027
:10141000B5814E1B10030020FC0000205007002067
:10142000600B00205C0B0020580B0020280A0020D5
:10143000640B002010B51E4B1E481F4990F800E0B9
:101440001E481F4C1A464FF0F00C02F801CBB0F8C2
:1014500000C008688988C3F801009180204683F89D
:1014600007E0A3F808C004F0D1FD2046042104F0F1
:101470004BFE2046082104F03FFE2046052104F0E3
:1014800065FE20464FF4E13104F0E0FD20460021E6
:1014900004F014FE2046002104F01CFE204600212A
:1014A00004F000FE2046BDE8104004F01FBE00BF5F
:1014B0007C070020ED000020300700200001002004
:1014C00000440040984A1368FBB12DE9F04F974D56
:1014D00097492C88974E013B1360974BA3FB04035D
:1014E0004FF496725B0902FB13439BB28FB0CA5C48
:1014F00033785BB9A52A1FD0904A136801340133B1
:101500002C8013600FB0BDE8F08F7047012BF3D132
:101510008B490B78012B4AD0022B1CD0032B58D0BF
:10152000042BE9D1874B1B781BB1874B5B78934227
:1015300059D000233370DFE7814901220A708349C3
:1015400032700B7082490B707E497F4B0A7043F6F4
:101550007F321A80D0E7DFF8F4C17E489CF8003073
:10156000794EA0FB03E0377803EBD0100133DBB2F8
:1015700057408CF80030DFF8E4C11CF80780DFF832
:10158000D0C19CF800E096F801C08CEA080C86F8FF
:1015900000C0DFF8CCC11CF80770777000F0FF00C6
:1015A0006D4E9E453254A7D103230B70A4E7684BC0
:1015B0006A4E1A70644B18785040375C5E787E40F3
:1015C0001E70674E305C5870002AEDD002230B70FD
:1015D00092E75D4B1B78934202D05A4B00221A705F
:1015E00004230B7088E75A4B1F78002FA1D05A4B69
:1015F00093F80080B8F1000F40F0C680022F98D118
:1016000058490B68002B00F08A80534ADFF850B12C
:1016100092F801E0013B0B60534B8EF0600A1A8890
:101620004E4B13F80A301BF80AA0CDF804A083F043
:1016300083010291131DD11C1FFA83F989B2531D36
:101640000391CDF8109049491FFA83F902F1010C7A
:101650004FF496731FFA8CFCB2FBF3FA901C03FB59
:101660001A2ACDF8149080B2B1F800900399CDF801
:1016700000901FFA8AFBBCFBF3FA03FB1ACC1FFA9B
:101680008CFAB0FBF3FC03FB1C001FFA80FCB1FBDF
:10169000F3F003FB10110498DFF8E89089B203918E
:1016A000B0FBF3F103FB110188B204900598B0FB85
:1016B000F3F103FB110398B2D9F8003005900098BC
:1016C0002B490133C9F8003000F01F030093274B6A
:1016D000013018804FF0A5092648009B01F80B90B7
:1016E00001F80A70039F20F813201F4801F80C80AE
:1016F000063201F807E0049F0280029BCB55059F4C
:10170000019BCB550EF1FF33D3F1000E4EEB030ED0
:10171000194A009B19480621D15480F800E0184B63
:1017200000221A7005E700BF580B0020540B002060
:10173000280A0020250A0020B5814E1BFC0000204D
:10174000FA000020FB000020F8000020230A0020FF
:10175000240A00208180808024090020746700080A
:1017600074660008F4000020B4080020000900207E
:1017700088070020B808002004090020DD000020B0
:10178000E4000020FC080020B8F1D00F00F0D08168
:10179000B8F1E00F00F0DC82B8F1E10F00F0508406
:1017A000B8F1E20F00F0E084B8F1E30F00F0EC854F
:1017B000B8F10A0F00F0FD86B8F1FA0F00F06E865E
:1017C000B8F1F40F7FF4B5AECA4B00221A721A7545
:1017D00083F8202083F82C2083F8382083F84420D5
:1017E000C54A02921368002B76D0013B1360C34BAD
:1017F000DFF830B31878C24B00901A88C14BDFF87D
:101800002C9380F0E00A02F1010813F80A301BF86B
:101810000AA0CDF804A083F0840103914FF49673DD
:10182000511DB2FBF3FA1FFA88F803FB1A2A02F1E2
:10183000020E89B204911FFA8EFEB34902F1030C25
:101840001FFA8AFBB8FBF3FA03FB1A881FFA8CFC19
:10185000171D1FFA88FABEFBF3F803FB18EE088881
:101860000499BFB21FFA8EF8BCFBF3FE03FB1ECC3B
:101870001FFA8CFEB7FBF3FC03FB1C771FFA87FCF7
:10188000B1FBF3F703FB17139FB2D9F800300497AD
:101890000133471CC9F8003000F01F039A489B49E8
:1018A00007809B4F009827F81320954F06323A8007
:1018B000A52701F80B70022701F80A700A2701F822
:1018C000087001F80E00049F039801F80C00914A7B
:1018D0000198C8550621D154029F8F4A39688F4B11
:1018E00006914FF00009C2F8009001220F461A70CD
:1018F00000293FF41EAE824B01931988884B824821
:10190000D3ED007A00908B184FF496789BB28A1C26
:10191000B3FBF8FC92B208FB1C331FFA83FCB1FB4B
:10192000F8FEB2FBF8F308FB1E1E08FB132207F1BA
:10193000FF38029F754BCDF814801FFA8EFEB7EE6C
:10194000007AC7F800804FF0A50803F80E806E48B3
:1019500092B24FF0020EF4EEC77A03F80CE0F1EE0B
:1019600010FA4FF0D00C03F802C0B0F800B040F20B
:101970004B864F46DFF8B4A1DAF80000049087F0F8
:10198000610960484A1D10F80980664892B201F169
:10199000030E10F8099007921FFA8EFE4FF496720C
:1019A000CDF80C90BEFBF2F902FB19EE1FFA8EFE89
:1019B00001F1040C1FFA8CFC03F80E70BCFBF2F76B
:1019C00002FB17C70798BFB288F01F0803F807800B
:1019D000B0FBF2F702FB1707BFB20398D8550BF024
:1019E0001F0E4B48DFF82C8120F81E108F1D019828
:1019F000BFB207800BF1010C009803971FFA8CFC13
:101A0000A0F800C00498059F4FF0060908F80E9052
:101A100000F1010ECAF800E0002F3FF48AAD0CF08F
:101A20001F0C3B4F039827F81C00069F029808F8EC
:101A30000C90A7F1020CC0F800C00498009F02307F
:101A4000CAF80000384890F800800BF1020BA7F8A4
:101A500000B088F060002B4F17F800B0314F385CB1
:101A6000019F009001F1070E01F1080A01F1090937
:101A700001F10A0C01F10B000C313980039FB7FB17
:101A8000F2F11FFA8EFE02FB11711FFA8CFC80B27C
:101A9000BEFBF2F71FFA8AFA02FB17EE1FFA89F96A
:101AA00089B2BAFBF2F71FFA8EFE02FB17AAB9FB46
:101AB000F2F702FB1799BCFBF2F702FB17C7B0FB6A
:101AC000F2FC02FB1C02A52058541FFA8AFA0221DC
:101AD0001FFA89F9BFB292B203F80E1000988BF08A
:101AE000830B002103F80A1003F8098003F807B0FC
:101AF00098541EE57C050020F4000020020100201F
:101B0000B40800207467000800090020880700203E
:101B1000B80800200409002098060020DC000020FE
:101B20002400002074660008DD000020FC0800206E
:101B3000022F7FF4FEAC7B4B5A780092002A40F0D3
:101B400075837948794B02901A700368002B72D024
:101B5000013B03607648028802F1050A1FFA8AF009
:101B600004907448DFF8E0A1018801914FF4967366
:101B700002F10109B2FBF3FB1FFA89F903FB1B2BEE
:101B800002F102081FFA8BF11FFA88F8B9FBF3FB88
:101B900002F1030E03FB1B991FFA8EFE02F1040CE7
:101BA0001FFA89FBB8FBF3F903FB19881FFA8CFCB9
:101BB0001FFA88F9BEFBF3F803FB18EE04981FFA2E
:101BC0008EF8BCFBF3FE03FB1ECC1FFA8CFCCDF899
:101BD0000CC0B0FBF3FC03FB1C039BB20493DAF8CC
:101BE00000300198DFF85CC1013300F1010ECAF842
:101BF000003000F01F034F48A0F800E0DFF84CE190
:101C00004B482EF8132006324FF0A50E0CF801E0D9
:101C10000280009903980CF80B700CF809100CF86E
:101C2000081083210CF800100498434A28210CF86E
:101C300000100621D154414B414A1A60029A1368A0
:101C4000002B3FF46CADDFF8E8B0DFF8FCA0DFF864
:101C5000E490013B1360BBF80020B9F80080511DEF
:101C600089B20191DAF800104FF496730131CAF885
:101C70000010B2FBF3FA03FB1A2A1FFA8AF1571C71
:101C800002F1020E02F1030C101D00910199BFB286
:101C90001FFA8CFC1FFA8EFE80B2B7FBF3FA03FB2F
:101CA0001A7ABEFBF3F703FB17EEBCFBF3F703FB5B
:101CB00017C7B0FBF3FC03FB1C00B1FBF3FC03FBF9
:101CC0001C1308F01F0C08F10108A9F80080DFF8C8
:101CD0007C801C4928F81C200632ABF80020009AB2
:101CE000DFF854904FF0A5081FFA8AFA01F8028035
:101CF0001FFA8EFE4FF0020801F80A80BFB24FF0C3
:101D0000D00801F80E8080B24FF0010E01F807E014
:101D10009BB21F270F542820C854062309F80C3003
:101D2000FDE400BF24090020F4000020DD000020B5
:101D3000B40800200009002004090020240000202D
:101D40008180803B88070020FC080020B808002024
:101D5000052F7FF6EEABFB1EDBB24FF0030EB3FB9D
:101D6000FEF101EB41015B1ADBB2002B7FF4E1AB2A
:101D7000A74B93F801C00CF1FF33DBB2032B0393A5
:101D80003FF6D7ABA24B9B780293581EC0B20B28EC
:101D90003FF6CFABDFF8A0A2DAF80090B9F1000F60
:101DA00000F02F81C0F10C02D2B2BB1EDBB2B3FB3C
:101DB000FEF3934228BF13465A1C02EB420209F17C
:101DC000FF37D1B2CAF8007081F07F02914F0590C1
:101DD000B85C0891904980F0DB008A5C3F5C085C4D
:101DE0008CEA02027A40029F11F802E0CDF81CE072
:101DF00078408A4F0197874FBF5C784004908748AE
:101E0000B0F800A00AF1010290B20AF1020297B202
:101E10000AF103021FFA82FE0AF104021FFA82F994
:101E20000C221146B3FBF2F201FB12334FF4967B06
:101E3000DBB219460693BAFBFBF30BFB13A39BB271
:101E40000A93B0FBFBF30BFB130375480090714A38
:101E50000498125C079842409BB2049807926E4A1D
:101E60000B93B7FBFBF30BFB1373105C04909FB257
:101E700001EB4102BEFBFBF30BFB13E31FFA83FEF6
:101E80005244B9FBFBF30BFB13930A981FFA83F937
:101E900092B2644B0992A5221A540B98089A1A54CC
:101EA00003F8078003F80EC0029803F809005C48A5
:101EB000079A078808974F000A97039FCDF834A028
:101EC0000C2101FB07F7CDE90B740499504C0293E8
:101ED000D04658E094F803904E4894F804E094F803
:101EE00005C082EA090281EA0E01805C08F1070759
:101EF00048404949BBB2474F8A5C3F5C07938CEA34
:101F0000020A87EA0A0A444F3B5C059F04930C23AC
:101F1000B7FBF3F003FB10700B9B18447B1C4FEADC
:101F20000E2708F10501059347EA09473E4B89B2A0
:101F300047EA0C0743F82070B1FBFBF00BFB1011D4
:101F4000029B344808F1060289B292B203F801906C
:101F5000B2FBFBF10BFB112292B2079903F802E0EE
:101F6000B1FBFBF20BFB121292B22B4903F802C039
:101F700010F80A20049811F80A1008F10308033435
:101F80001FFA88F84240099B4345A3D10A98DDF81F
:101F900034A0029BDFF8A4C00C9C9046069A024431
:101FA000D2B2501D5AFA80F04FF4967780B289462B
:101FB000B0FBF7FE911D07FB1E0080B25AFA81F1BB
:101FC00089B203F80080B1FBF7F007FB101189B26A
:101FD00002F1070B03F80190DCF80030009A01339E
:101FE000CCF80030089B03F01F01013313800F4B26
:101FF000019A23F811A05AFA8BF313800C4B03F8C3
:1020000001B00C4B039900225A54FFF792BA00BF5B
:10201000240900207467000874660008B4080020D2
:102020000009002088070020D8050020B8080020FB
:1020300004090020E0000020F4000020FC0800203B
:10204000032F7FF476AAC2490B68002B3FF471AAD4
:10205000013B0B60BF4B01931988BF4A0092481C9B
:102060004FF4967E80B28B1C9BB2B0FBFEFC0EFB45
:102070001C001FFA80FCB1FBFEF9B3FBFEF00EFB67
:1020800019190EFB103398B21FFA89F9B34B128855
:1020900002924FF0A50A03F809A003F80C70DFF8CC
:1020A000DC9203F800804FF0000C4FF05B0BE2462F
:1020B000A120A0461AF0070F18D1A94A02EBEA04A2
:1020C00094F801C08CEA0004C81980B2B0FBFEF29B
:1020D0000EFB120080B2A34A03F800C0105DA24AB2
:1020E00001378BEA000012F804B0FFB20AF1010ACE
:1020F0000CF00104BAF10C0F09F8014B4FEA5C0C2B
:10210000D8D1DFF87C92D9F8002001EB070E1FFA36
:102110008EFE013244464FF49678C9F8002007F14C
:10212000010CBEFBF8F208FB12E251FA8CFC92B2F1
:102130001FFA8CFC9854BCFBF8F208FB12C292B256
:10214000023703F802B0029B009803F01F0201332C
:102150000380864B23F81210019B51FA87F11980F6
:10216000834B9F54FFF7E5B9032F7FF4E2A9784929
:102170000B68002B3FF4DDA9013B0B60754B01930D
:102180001988754A0092481C4FF4967E80B28B1CC9
:102190009BB2B0FBFEFC0EFB1C001FFA80FCB1FBE7
:1021A000FEF9B3FBFEF00EFB19190EFB103398B2CB
:1021B0001FFA89F9694B128802924FF0A50A03F8B9
:1021C00009A003F80C70DFF8BC9103F800804FF011
:1021D000000C4FF05A0BE246E120A0461AF0070F20
:1021E00018D15F4A02EBEA0494F801C08CEA0004BB
:1021F000C81980B2B0FBFEF20EFB120080B2594A41
:1022000003F800C0105D584A01378BEA000012F84D
:1022100004B0FFB20AF1010A0CF00104BAF10C0F8C
:1022200009F8014B4FEA5C0CD8D16AE7DDED007A82
:102230009FED507A504B464AF8EE677A67EE877A00
:10224000C3ED007A1368002B3FF469AA013B1360C9
:102250000099404BDFF828B11888424B3E4A81F084
:10226000610A00F1010913F80A3083F01F01031D10
:102270009BB20493431D039199B205911188DBF839
:10228000002001910132CBF80020374A049912F85E
:102290000AA0CDF808A04FF496731FFA89F9B0FB95
:1022A000F3F200F1020E03FB12021FFA8EFE00F1A0
:1022B000030C1FFA82FAB9FBF3F203FB12921FFA26
:1022C0008CFC1FFA82F9BEFBF3F203FB12E21FFA49
:1022D00082FEBCFBF3F203FB12C21FFA82FBB1FBCE
:1022E000F3F203FB121205991FFA82FCB1FBF3F221
:1022F00003FB12130199CDF810C001F01F020192E7
:10230000154A01F1010CA2F800C09BB2019ADFF856
:102310005CC00593114B2CF8120000990D4A4FF048
:10232000A50C03F80AC003F8097003F80E8003F83F
:102330000B10DDE903170630D95505991080029A74
:102340005A540B48019A06238354FFF7E8B900BF9B
:10235000F4000020B40800200009002088070020B5
:10236000240900207467000874660008B80800207B
:10237000040900208180803B2400002028000020E8
:10238000FC080020C8050020022F7FF4D2A8A74B2C
:1023900093F8019009F1FF33DBB2032B3FF6C9A894
:1023A000A34AA4490B601368002B3FF4C2A8013B69
:1023B0001360A14BDFF8C0B21A88A04B89F0210A44
:1023C00013F80A3083F00A0102919D4909880091AF
:1023D000131DDBF800109BB203930131531DCBF8A2
:1023E00000109BB29749049302F1010E4FF49673CB
:1023F00011F80AA0B2FBF3F11FFA8EFE03FB1121C4
:1024000002F1020CCDF804A01FFA8CFCD01C1FFABC
:1024100081FABEFBF3F103FB11E180B21FFA81FEEA
:10242000BCFBF3F103FB11C11FFA81FCB0FBF3F11C
:1024300003FB110103981FFA81FBB0FBF3F103FBCF
:10244000110188B203900498B0FBF3F103FB110370
:10245000009800F01F01009179490130088000992F
:1024600079489BB2049320F811207348774B0632C9
:102470000280A52003F80A0003F80E7003F80C8010
:1024800003F80B90DDE902101954049801991954CE
:102490006F4A009906235354FFF74BB8022F7FF47D
:1024A00048A8624B624893F801906A4B6A496B4AAC
:1024B000B9F1000918BF4FF0010983F80090002717
:1024C00003680F6001211170002B3FF432A8013B1B
:1024D0005B4F0360DFF8A0B1574B3F881A88009725
:1024E00049F0E00ADBF80070544B013713F80A306A
:1024F000CBF80070534F83F0C00102F101084FF494
:10250000967317F80AB0B2FBF3F71FFA88F803FBCB
:10251000172702F1020E1FFA8EFE02F1030C1FFABA
:1025200087FAB8FBF3F703FB17871FFA8CFC101D23
:102530001FFA87F8BEFBF3F703FB17E7019180B2A0
:10254000511D1FFA87FEBCFBF3F703FB17C789B2C7
:102550001FFA87FCB0FBF3F703FB170087B2B1FB50
:10256000F3F003FB101300980297354F00F01F01A2
:102570000130388034489BB220F811202E48039354
:102580000632324B0280A52003F80A00022003F82D
:102590000800FA2003F80E00DDE9010703F80C90AB
:1025A000D85503982A4A03F800B006235354FEF77F
:1025B000C0BF022F7EF4BDAF1C4B294993F8019098
:1025C000284B294A1868294B086083F8009000219D
:1025D000274B11704FF09040012239461A7002F0DB
:1025E00095FF134A1368002B3EF4A3AF013B136021
:1025F000114BDFF884B01A88104B89F0E00A13F809
:102600000A3083F08401DFE69FED1A7A67EE877A5D
:10261000F5EEC07AF1EE10FAFFF6ABA9FCEEE77A20
:10262000CDED037A9DF80C70FFF7A4B924090020C2
:10263000F40000209C060020B40800207467000805
:102640000009002074660008B808002088070020F0
:10265000040900206C050020700500200000002007
:102660005407002050070020F10000200201002044
:10267000C505002000007F43FC080020B748036820
:10268000002B00F069812DE9F04FDFF8F4C2DFF88C
:10269000F4B29CF801609CF80270B14AB14912880A
:1026A000013B0360B04B9CF800001D8895B080F0A2
:1026B000FA030695AD4D0790E85C1BF803300897C8
:1026C000704080F0E7007B402C5C9CF803701BF8A6
:1026D0000000099763407840EC5C9CF804701BF89C
:1026E00003300A9760407B402C5C9CF805701BF817
:1026F00000000B9763407840EC5C0596D51C84EA9B
:1027000000071FFA85FE141D75461FFA84FECDF8DA
:1027100004E002F1050E941D1FFA8EFE02F1070877
:10272000CDF808E01FFA84FE02F1010ACDF80CE0B2
:1027300002F108061FFA88FE1BF803000C97734687
:102740001FFA8AF71FFA86FE0097CDF810E09CF872
:1027500006E0874CCDF834E080EA0E0ECDF84CE070
:10276000A4FB02E040090E9002F1020900981095C6
:102770001FFA89F7A4FB00EA0F970298A4FB07E968
:10278000019F2646A4FB05E5A4FB07E4A6FB008EFB
:102790000398A6FB00804009CDE911030498374651
:1027A0001E46A7FB0638A7FB0036009F119B4FF47F
:1027B00096704FEA5A1A00FB1A7A0F9F4FEA59197E
:1027C00000FB1979109F6D0900FB1575019F6409C5
:1027D00000FB1474029F4FEA5E1E00FB1E7E039FE7
:1027E00000FB1373129F4FEA581800FB1878049FE0
:1027F000760900FB16760E9FA4B21FFA88F800FB3C
:1028000017270194CDF80880584C1FFA86F80C9EC3
:10281000CDF80C80BFB214F806800097139F1BF808
:10282000066088EA0708009F1FFA8AFA1FFA89F9EA
:102830006FF05A04CC55ADB2079C4FF00A0701F86F
:102840000A7001F80940059C4C55019D089C4C55A7
:102850001FFA8EFE099C01F80E409BB20A9CCC54D4
:10286000029B0B9CCC54414C9CF807E014F8085098
:10287000039B1BF808400D9F9CF80880CF5486EA04
:102880000E067540394E9CF809903346765D1BF86C
:10289000055084EA0804744089EA05051E5D1BF8AA
:1028A00004A0754002F1090C5C5D314B1BF805601A
:1028B00000961FFA8CFCA3FB0C3B4FEA5B1B00FB52
:1028C0001BCC2B4B02F10A071FFA8CFCBFB201F89C
:1028D0000CE0A3FB07EC4FEA5C1C00FB1C7702F149
:1028E0000B06BFB2B6B201F80780A3FB06C77F098B
:1028F00000FB17668AEA040A02F10C0502F10D04D6
:10290000B6B2A4B2ADB201F80690A3FB0576A3FB64
:10291000047376095B0900FB165500FB1343ADB247
:102920009BB2009E01F805A0CE540D49069D114CA6
:1029300002F10E030B800C496B1C0B800E4905F055
:102940001F000B6824F810200C4A0E240133145485
:102950000B6015B0BDE8F08F704700BFF400002099
:10296000B4080020880700200009002074670008D0
:10297000B5814E1BB8080020FC0800200409002087
:102980007C0700207466000810B54FF4A06084B086
:1029900002F0B8FF174B184C0FCBEC468CE80F0039
:1029A000164B1749196062462046002103F0B2F920
:1029B00000221146204603F0F3FA2046602200214F
:1029C00003F0C6FA08222046002103F0F7FA204659
:1029D000012103F095F94FF48071204603F08CF942
:1029E000204603F081F9012211460A2002F03AFF45
:1029F00004B010BD6C6400080044014004000020D5
:102A000034440140F8B5354D354C364826782F68AA
:102A10004FF4807102F07EFDB0FA80F040098642EA
:102A200003D000232070676023724FF400414FF001
:102A30009040267B2F6802F06DFDB0FA80F04009CF
:102A4000864203D000232073276123752548267E04
:102A50002F68802102F05EFDB0FA80F040098642C6
:102A600004D000232076E76184F820301D4894F8D4
:102A700024602F68082102F04DFDB0FA80F0400973
:102A8000864205D0002384F82400A76284F82C3005
:102A9000144894F830602F68202102F03BFDB0FA12
:102AA00080F04009864205D0002384F83000676337
:102AB00084F838300B482E6894F83C50102102F00E
:102AC00029FDB0FA80F04009854205D0002384F842
:102AD0003C00266484F84430F8BD00BF5007002055
:102AE0007C050020000400482DE9F04F6C4C6D4B34
:102AF0002278A3FB02139B0803EB4303A2EB4303DF
:102B0000DBB28BB058006849019003EB430001EB46
:102B100080052D7AA5B98000644E0F5C64485D1C69
:102B2000EDB201954570356887704FF00101017075
:102B30005DB958005C49184401EB800101230B7218
:102B4000013222700BB0BDE8F08F01980597013D6E
:102B5000356080F0A00A574D574815F80AC0008824
:102B6000564E87EA0C0C8CF0D30C00F1010815F8D6
:102B70000CB000F103091FFA88F50295871C1FFAB3
:102B800089F503951FFA87F8051D4D4F41461FFA39
:102B900085F8CDF8108017F80A8017F80CC0CDF82A
:102BA0001CC088EA0B0CCDF818C0A6FB00C77F0933
:102BB0000897029F0991A6FB07C8A6FB01C70399C6
:102BC000A6FB01C90499451D00F1060EA6FB01CB29
:102BD0001FFA8EFE0299ADB2A6FB05CA4FEA58183D
:102BE000A6FB0E6C4FF4967606FB181809997F0920
:102BF00006FB171703994FEA591906FB191904998F
:102C00004FEA5A1A4FEA5B1B06FB1B1B06FB1A55C1
:102C100008991FFA85FA4FEA5C1C2A4D06FB1CEC4A
:102C20001FFA88F806FB11062749CDF808801FFA1D
:102C300086FE1FFA87F82E68CDF80C80B1F8008068
:102C4000224F01362E6008F01F05214E26F8150090
:102C5000194E0730308008F10108A52607F80E60EC
:102C6000A1F8008002991B4803267E541FFA89F9B7
:102C70000399019E1FFA8BFB4FF0010E07F801E04C
:102C800007F80960059E07F80B601FFA8CFC069E8A
:102C900007F80A60079907F80C100726465548E719
:102CA00074050020ABAAAAAA7C050020F40000202D
:102CB0007805002074670008B4080020B5814E1B19
:102CC00074660008FC080020000900208807002026
:102CD000B80800200409002010B43B4C23785BB1F5
:102CE0003A4B3B493B4A1B68096812785B1A93428E
:102CF00043D85DF8044B7047374A384B1178187841
:102D0000002934D0002851D0107B597800283DD1BB
:102D1000117E5870987811B1012100283BD092F8AB
:102D200024009970D97810B10120002936D092F88A
:102D30003010D870187900293ED092F83C2001213B
:102D4000002830D058791971002A38D001225A71E0
:102D50000028CED11D4A1E4B12681A600120207037
:102D600002215DF8044B4FF0904002F0CFBB107B86
:102D7000197059780028CBD008E000232370022175
:102D80005DF8044B4FF0904002F0C2BB01200029D7
:102D9000BED1117E587092F82400997092F83010CC
:102DA00092F83C20D87019715A71D3E70121107B39
:102DB00019705870117EEEE792F83C20C2E75DF87A
:102DC000044B5A71704700BFC50500205007002012
:102DD00054070020020100207C0500204407002049
:102DE0002DE9F04F83B0AF4BDFF8E8A2DFF8E882BF
:102DF00001931AF8013B7BB1019B30330193AA4B3D
:102E000008F580689845F4D1A84D2C78002C00F086
:102E1000928003B0BDE8F08F02F044F9202002F068
:102E2000D1F9102002F0CEF9A8F13005042002F00B
:102E3000C9F9284602F04EF9202002F0C3F910200B
:102E400002F0C0F9042002F0BDF9FF2402F03AF9C3
:102E5000974F984EDDF80490A34659F8041B009153
:102E600084EA1144E0B23C5C305C84EA11248BEAD1
:102E70000403DBB2484017F803C0F45C80EA0C009E
:102E8000C0B216F800B0385C444002F00BF92020C4
:102E900002F098F9102002F095F9042002F092F95E
:102EA0000099284602F050F9202002F08BF91020FA
:102EB00002F088F90435042002F084F902F002F9E6
:102EC000A845CAD102F0EEF8202002F07BF91020CC
:102ED00002F078F9042002F075F92146404602F02C
:102EE00033F9202002F06EF9102002F06BF9042073
:102EF00002F068F902F0E6F802F0D4F8202002F0BF
:102F000061F9102002F05EF9042002F05BF95946E5
:102F100008F1040002F018F9202002F053F9102003
:102F200002F050F9042002F04DF902F0CBF8012331
:102F30000AF8013C60E702F0B5F8202002F042F9FF
:102F4000102002F03FF9042002F03CF95A4802F048
:102F5000C1F8202002F036F9102002F033F90420E5
:102F600002F030F902F0AEF8544A554BD2ED007A37
:102F700093F80080B7EE007AF4EEC77AF1EE10FA1B
:102F800078D940224A4F4B4E134688EA0303DB436D
:102F9000DBB2F95CF75C82EA010602F083F82020DC
:102FA00002F010F9102002F00DF9042002F00AF9E5
:102FB0002146414802F0C8F8202002F003F9102011
:102FC00002F000F9042002F0FDF802F07BF802F0B4
:102FD00069F8202002F0F6F8102002F0F3F804203F
:102FE00002F0F0F84146374802F0AEF8202002F037
:102FF000E9F8102002F0E6F8042002F0E3F802F00D
:1030000061F802F04FF8202002F0DCF8102002F006
:10301000D9F8042002F0D6F831462B4802F094F893
:10302000202002F0CFF8102002F0CCF8042002F0AB
:10303000C9F802F047F802F035F8202002F0C2F893
:10304000102002F0BFF8042002F0BCF839461F48F7
:1030500002F07AF8202002F0B5F8102002F0B2F861
:10306000042002F0AFF802F02DF801232B7003B01A
:10307000BDE8F08F9FED167A67EE877AF5EEC07A9D
:10308000F1EE10FAFFF67DAFFCEEE77A084FCDEDDA
:10309000007A9DF80040074EE243D2B2BB5CB25CBE
:1030A00073E700BFD805002030D00008E4000020FE
:1030B000746700087466000800D00008240000202F
:1030C000DD00002004D0000808D000080CD0000863
:1030D00000007F43E000002030C000082DE9F041EF
:1030E000CE49CF48CF4BD04AD04CD14DD0F800C0BC
:1030F000C1F800C06FEA1C46F6B29F5D965D87EA94
:103100001C27FF43FFB286EA0C0613F807E0D0F84D
:1031100004C0D75DC1F804C086EA0E06F6B287EA9D
:103120001C4713F806E08EEA070E5FFA8EFE975DE5
:1031300013F80E6087EA1C277740FFB212F80E6082
:1031400013F807E0D75D86EA0C0686EA0E06F6B2AB
:10315000D0F808E013F806C0C1F808E087EA1E4777
:103160008CEA070C5FFA8CFC975D13F80C6087EA19
:103170001E277740FFB212F80C6013F807C0D75D26
:1031800086EA0E0686EA0C06F6B2D0F80CC013F8F2
:1031900006E0C1F80CC087EA1C478EEA070E5FFA0A
:1031A0008EFE975D13F80E6087EA1C277740FFB20A
:1031B00012F80E6013F807E012F8078086EA0C0692
:1031C00086EA0E06F6B213F806C0975DD0F810E056
:1031D000C1F810E088EA1E468CEA060C5FFA8CFC07
:1031E00087EA1E2713F80C8012F80C60D0F814C080
:1031F000C1F814C087EA0807FFB286EA0E0613F882
:1032000007E0D75D86EA0E06F6B287EA1C4713F898
:1032100006E08EEA070E5FFA8EFE975D13F80E60E9
:1032200087EA1C277740FFB212F80E6013F807E018
:1032300086EA0C0686EA0E06F6B2D0F818E012F816
:1032400007C09F5DC1F818E08CEA1E4C87EA0C07A6
:10325000FFB212F806C0DE5D8CEA1E2C8CEA060C6A
:103260005FFA8CFCD65D13F80C7012F80CC086EA7D
:103270000E067E40F6B2C76913F806E0CF618CEA0D
:10328000174C8EEA0C0E5FFA8EFE12F806C013F889
:103290000E608CEA172C8CEA060C5FFA8CFC12F894
:1032A0000E6013F80CE012F80C807E4086EA0E06E1
:1032B000F6B213F806C012F806E0076A0F6288EA51
:1032C00017468CEA0606F6B28EEA172E13F8068029
:1032D00012F806C0466A4E628EEA080E5FFA8EFE4B
:1032E0008CEA070C13F80E7012F80EE08CEA070C4B
:1032F0005FFA8CFC8EEA164E13F80C7087EA0E0704
:10330000FFB212F80CE013F807C08EEA162E8EEA10
:103310000C0E5FFA8EFE12F807C013F80E7012F84A
:103320000EE08CEA060C8CEA070C5FFA8CFC876ACC
:1033300013F80C608F628EEA174E86EA0E06F6B21C
:1033400012F80CE013F806C08EEA172E8EEA0C0E67
:103350005FFA8EFE12F806C013F80E6012F80EE047
:103360008CEA070C8CEA060C5FFA8CFCC76A13F82F
:103370000C6012F80CC0CF628EEA174E86EA0E0679
:10338000F6B28CEA172C13F806E0965D8CEA0E0C68
:103390005FFA8CFC7E4013F80CE012F80CC0076B4F
:1033A00086EA0E06F6B213F806E08CEA0E0CBC456F
:1033B0002BD0C1E90044C1E90244C1E90444C1E998
:1033C0000644C1E90844C1E90A4400F58060A84206
:1033D00001F130017FF48AAED0E90054FF2D8668F8
:1033E00018D8EDB2E843C0B2195C105CFF2C9CBF4A
:1033F000E4B261406FEA0101C9B288BF00245B5C9E
:103400005840B04216D0BDE8F081975D466BB74298
:10341000CFD1DAE7402001460025E7E7D8050020B4
:1034200000C00008746700087466000877777700AA
:1034300000D000080C4B525CDB689A42E3D107EEE7
:10344000905A9FED0A7A0A490A4AF8EE677AA4F17F
:10345000010367EE877AB3FA83F35B09C1ED007A63
:103460001370BDE8F08100BF00D000088180803B70
:1034700024000020DD000020F8B54F4B4F491B7899
:103480004F485BB102F0AAF920B34E4B4C48197873
:103490006FF00102BDE8F84002F064B902F09EF955
:1034A000044638B1474B464819780122BDE8F84038
:1034B00002F058B94449424802F090F9054610B369
:1034C000424B1B68012B42D0BDE8F8403E493C48C6
:1034D00002F0B2B93C493A4802F080F90028F3D131
:1034E0003B49374802F07AF960B13A4D374B2C88A6
:1034F0001B68A34230DD384B31481978013402F0A3
:103500004BF92C80F8BD314E34492D48346802F017
:1035100065F90028F6D0022C32D0012C35D02D4F81
:1035200027483D88013C346002F038F905F001037A
:103530002B4A2A49D054012D08BF2A4B204808BFE6
:103540001D7001353D80BDE8F84002F075B91C489A
:10355000214602F0FBF8B7E7194802F017F91848BE
:103560004FF4847102F02CF915484FF4857102F084
:1035700027F9BDE8F840124840F2091102F020B9DD
:103580000F48294602F0E2F8C9E70D4802F0FEF8BC
:1035900029460B4802F0E0F809484FF4847102F024
:1035A0000FF907484FF4857102F00AF9044840F218
:1035B000091102F005F9B2E7050300200901000531
:1035C0000054004004030020090101050C03002001
:1035D000090107050A030020080300200901060568
:1035E0004C070020C405002008B50F480F4902F021
:1035F00023F90F490C4802F01FF90E490A4802F05E
:103600001BF90D49084802F017F90C49064802F069
:1036100013F90B49044802F00FF9BDE808400949C5
:10362000014802F009B900BF0054004008010A0532
:1036300008010F0508010E0508010B050801090521
:103640000801080508010C052DE9F04F6448654A9A
:103650006549664B90ED007ADFED657A127809785E
:103660001B682DED068B67EE277A85B0002A40F0A7
:1036700050836049604A8868D1E9005400EB4000FB
:1036800005EB450504EB440402EB840402EB8000E7
:1036900002EB850500232B606B60AB6023606360E9
:1036A000A360036043608360D1E9034004EB4404FA
:1036B00000EB400002EB840402EB800023606360B7
:1036C000A360036043608360D1E9054004EB4404D8
:1036D00000EB400002EB840402EB80002360636097
:1036E000A360036043608360C86900EB400002EBA5
:1036F0008000036043608360D1E9084004EB440428
:1037000000EB400002EB840402EB80002360636066
:10371000A360036043608360D1E90A4004EB440482
:1037200000EB400002EB840402EB80002360636046
:10373000A360036043608360304D95F800C0BCF126
:10374000000F00F0DF822E4E2E4834689FED2E5A77
:1037500080FB04E32344E717C7EBA317C7EB071766
:103760002A4BA4EBC70703EB870797ED006AFCEE33
:10377000C66AF7EE007A16EE903A9BB2A0FB037091
:103780004709C7EB0717A3EB87039BB207EE103A75
:1037900077EEC67A43091E4867EE867AB8EE477A16
:1037A000A0FB037076EE675A27EE057A800800EBDF
:1037B000400027EE257AA3EB40039BB277EE876AA1
:1037C000002B40F06084782C00F070840134346069
:1037D000104C114B114D04F118064FF07E5E64E061
:1037E00024000020DD000020D40500209C060020DD
:1037F0008180803B94000020A00600200000002073
:1038000070050020898888888988883C946400082D
:10381000ABAAAAAAC4000020340000207C05002026
:1038200000007F43BCF1000F39D01F6851F82770AA
:1038300007EB470702EB8707012887ED006AC7ED12
:10384000016AC7ED027A2AD05F6851F8277007EB4A
:10385000470702EB8707022887ED006AC7ED016A78
:10386000C7ED027A1BD09F6851F8277007EB470716
:1038700002EB8707032887ED006AC7ED016AC7EDF1
:10388000027A0CD0D86851F8200000EB400002EB1F
:10389000800080ED006AC0ED016AC0ED027AA642A8
:1038A00003F1100305F10C0546D054F8040B002871
:1038B000F5DD2F78002FB5D01F6851F8277007EB82
:1038C000470702EB87070128C7F800E0C7F804E0C4
:1038D000C7F808E0E3D05F6851F8277007EB4707A7
:1038E00002EB87070228C7F800E0C7F804E0C7F832
:1038F00008E0D4D09F6851F8277007EB470702EB28
:1039000087070328C7F800E0C7F804E0C7F808E015
:10391000C5D0D86851F8200000EB400002EB8000D1
:10392000A642C0F800E0C0F804E0C0F808E003F1E7
:10393000100305F10C05B8D15FED477AD2ED201ADE
:1039400092ED222AD2ED212A92ED235A92ED017AAC
:10395000D2ED1B5A92ED1D6AD2ED1F6A92ED199AB3
:10396000D2ED143A92ED0F4AD2ED0D4AD2ED088A0B
:1039700092ED030A92ED183A92ED1A1AD2ED1C0A52
:1039800092ED168A92ED11AAD2ED139A61EEA71A62
:1039900022EE272AFCEEE11A62EEA72A11EE900A27
:1039A000BCEEC22A002125EE275AFCEEE22A60F383
:1039B000070112EE100A27EE277A65EEA75ABCEE31
:1039C000C55A60F30F2112EE900ABCEEC77A26EEBC
:1039D000276AFCEEE55A60F3174115EE100A8DEDEB
:1039E000017A15EE904A92ED1E7A9DF80430D2EDE0
:1039F000151A92ED172AD2ED122A92ED0C5AD2ED39
:103A0000055A66EEA76ABCEEC66A60F31F61002025
:103A100027EE277AFCEEE66A64F3070016EE104AFA
:103A2000BCEEC77A64F30F2016EE904AD2ED0A6A14
:103A300064F3174017EE104A92ED0E7A29EE279A9A
:103A400027EE277A66EEA76ABCEEC99ABCEEC77A63
:103A5000FCEEE66A19EE105A17EE10CA16EE90EA5E
:103A600092ED107AD2ED096A92ED0B6A92ED069A08
:103A7000D2ED02AA63EEA73A29EE279A13F0800F3F
:103A800064F31F604FF00004FCEEE33A65F30704B3
:103A900028EE278A0CBF19254B25BCEEC99A13F0D6
:103AA000400F0CBF19264B2624EE274A019619EE2B
:103AB000108A13EE906A92ED009A0295BCEEC88AC5
:103AC000BCEEC44A13F0200F2AEE27AA4FF00005DF
:103AD0000CBF19274B2764EEA74A26EE276A29EE6A
:103AE000279A66F3070518EE106A0397BCEECAAA78
:103AF00014EE107AFCEEE44A25EE275ABCEEC66AB4
:103B0000BCEEC99A66F30F25002667F307061AEE86
:103B1000107ABCEEC55A16EE109A19EE10AA92ED64
:103B2000076A92ED049A68EEA78A14EE902A67F36A
:103B30000F26002720EE270AFCEEE88A62F307072B
:103B400015EE102ABCEEC00A65EEA75A62F30F27E5
:103B500018EE902A6CF317474FF0000CFCEEE55A74
:103B600026EE276A62F3070C10EE102A6EF30F2C74
:103B70004FF0000EBCEEC66A62F3070E15EE902AF7
:103B80006AEEA7AA62F30F2E16EE102A23EE273A4A
:103B900021EE271A60EEA70A61EEA71A22EE272A65
:103BA00069EEA79A62EEA72A27EE277A66EEA76A41
:103BB00062F3174E69EE277ABCEEEA9A68F31F6E3D
:103BC0004FF00008FCEEE77A63F3070819EE102ABD
:103BD000BCEEC33A6AF30F28BCEEC11A62F3174871
:103BE00017EE902A13EE10BAFCEEE11A62F31F688A
:103BF00011EE102A6BF30F24FCEEE99A62F31744DE
:103C000011EE902AFCEEE66A62F3174519EE902A4F
:103C1000FCEEE00A62F3174616EE902ABCEEC22ACA
:103C200062F3174C10EE902AFCEEE22A62F31F6456
:103C300012EE102ABCEEC77A62F31F6512EE902ACC
:103C400013F0100F62F31F6617EE102A0CBF4FF02F
:103C5000190B4FF04B0B13F0080F0CBF4FF0190A64
:103C60004FF04B0A62F31F6713F0040F9B4A69F38E
:103C70001F6C0CBF4FF019094FF04B0913F0020FE6
:103C8000C2E9008EC2E902C71162C2E90465C2E955
:103C9000064008BF1921924A924C029D019E039F43
:103CA000157018BF4B2113F0010F14BF4B231923BC
:103CB000D3718D4B917101215670977082F803B0CA
:103CC00082F804A082F80590198002200923E2609E
:103CD000A36101F01DF92146022001F03BF9022009
:103CE00001F07AF98148002102F004F80221084627
:103CF00001F08AF9022005B0BDEC068BBDE8F04F5B
:103D000001F076B9DFED7A7AF0EE676AB0EE676AB5
:103D10005EE57848002940F0F780774902780C6822
:103D2000002A40F0F381754A04EB440402EB84045A
:103D3000002525606560A5604C68457804EB440467
:103D400002EB8404002D00F01B836D4D6D78002D77
:103D500040F016836B4D03EB430605EB06156D68CB
:103D6000C5F3074607EE106AB8EEC77AC5F3072613
:103D700027EE277AEDB206EE906A84ED007A07EE20
:103D8000105AF8EEE66AB8EEC77A66EEA76A27EE32
:103D9000277AC4ED016A84ED027A8C68857804EB99
:103DA000440402EB840425B1554DAD78002D00F09C
:103DB000EC82002525606560A560CC68C57804EBC1
:103DC000440402EB840425B14D4DED78002D00F044
:103DD0000083002525606560A5600C69057904EB0A
:103DE000440402EB840425B1454D2D79002D00F0EB
:103DF0003782002525606560A5604C69457904EB34
:103E0000440402EB840425B13D4D6D79002D00F092
:103E10004B82002525606560A5608C69857904EB7F
:103E2000440402EB840425B1354DAD79002D00F03A
:103E30005F82002525606560A560CC69C57904EBCB
:103E4000440402EB840425B12D4DED79002D00F0E2
:103E50007382002525606560A5600C6A057A04EB15
:103E6000440402EB840425B1254D2D7A002D00F089
:103E7000A481002525606560A5604C6A457A04EB45
:103E8000440402EB840425B11D4D6D7A002D00F031
:103E9000C381002525606560A5608C6A857A04EB86
:103EA000440402EB840425B1154DAD7A002D00F0D9
:103EB0006081002525606560A560C47AC86A24B168
:103EC0000F4CE47A002C00F0B58000EB400002EBD0
:103ED000800300241C605C609C602DE45807002077
:103EE0003807002004000020420700200044014061
:103EF000000000002800002094000020A006002000
:103F0000C8050020D8050020BE4902780C68002AA8
:103F100040F0D480BC4A04EB440402EB8404002546
:103F200025606560A5604C68457804EB440402EBAD
:103F30008404002D40F09582002525606560A56011
:103F40008C68857804EB440402EB8404002D40F077
:103F50006482002525606560A560CC68C57804EBA7
:103F6000440402EB8404002D40F09E83002525606C
:103F70006560A5600C69057904EB440402EB8404D8
:103F8000002D40F06D83002525606560A5604C69BB
:103F9000457904EB440402EB8404002D40F03C839B
:103FA000002525606560A5608C69857904EB440473
:103FB00002EB8404002D40F00B8300252560656032
:103FC000A560CC69C57904EB440402EB8404002DA0
:103FD00040F0DA82002525606560A5600C6A057AEC
:103FE00004EB440402EB8404002D40F0A68200257B
:103FF00025606560A5604C6A457A04EB440402EBD9
:104000008404002D40F07582002525606560A56060
:104010008C6A857A04EB440402EB8404002D40F0A2
:104020004482002525606560A560C47AC86A002CBA
:104030003FF44BAF754C03EB430304EB031300EB6E
:104040004000DC6A02EB8003C4F3074006EE100A6E
:10405000C4F30720E4B206EE900A07EE104AB8EE69
:10406000C66AF8EEE66AB8EEC77A26EE276A66EE0A
:10407000A76A67EE277A83ED006AC3ED016AC3ED94
:10408000027AFFF759BB012B36EE477A6BD0022B31
:1040900000F02E83032B00F03A83042B00F03283D0
:1040A000F0EE676AF0EE477AFFF78DBB584B1B784E
:1040B000002B7FF48BAB2B70FFF788BB03EB430225
:1040C0001201524DAD58504AC5F3074607EE106A2B
:1040D000B8EEC77A04EB440427EE277A02EB840497
:1040E000C5F30726EDB206EE906A84ED007A07EE7E
:1040F000105AF8EEE66AB8EEC77A66EEA76A27EEBF
:10410000277AC4ED016A84ED027A0CE7414A1278FD
:10411000002A7FF408AE03EB430212013B4DAD5879
:10412000394AC5F3074607EE106AB8EEC77A04EBC2
:10413000440427EE277A02EB8404C5F30726EDB288
:1041400006EE906A84ED007A07EE105AF8EEE66A01
:10415000B8EEC77A66EEA76A27EE277AC4ED016A41
:1041600084ED027AE8E5F0EE466AB0EE476AFFF7C2
:104170002ABB264D03EB430605EB0615AD6AC5F3D6
:10418000074607EE106AB8EEC77AC5F3072627EE92
:10419000277AEDB206EE906A84ED007A07EE105AA7
:1041A000F8EEE66AB8EEC77A66EEA76A27EE277AD7
:1041B000C4ED016A84ED027A7FE6144D03EB4306F9
:1041C00005EB06152D6AC5F3074607EE106AB8EE33
:1041D000C77AC5F3072627EE277AEDB206EE906A76
:1041E00084ED007A07EE105AF8EEE66AB8EEC77A68
:1041F00066EEA76A27EE277AC4ED016A84ED027A9B
:104200003BE600BF94000020A0060020D805002057
:104210006C050020C8050020DA4D03EB430605EBD2
:1042200006156D6AC5F3074607EE106AB8EEC77A41
:10423000C5F3072627EE277AEDB206EE906A84EDE5
:10424000007A07EE105AF8EEE66AB8EEC77A66EE24
:10425000A76A27EE277AC4ED016A84ED027A1CE68C
:10426000C84D03EB430605EB06152D69C5F307465C
:1042700007EE106AB8EEC77AC5F3072627EE277A4D
:10428000EDB206EE906A84ED007A07EE105AF8EE71
:10429000E66AB8EEC77A66EEA76A27EE277AC4ED1B
:1042A000016A84ED027AA8E5B64D03EB430605EBFF
:1042B00006156D69C5F3074607EE106AB8EEC77AB2
:1042C000C5F3072627EE277AEDB206EE906A84ED55
:1042D000007A07EE105AF8EEE66AB8EEC77A66EE94
:1042E000A76A27EE277AC4ED016A84ED027A94E585
:1042F000A44D03EB430605EB0615AD69C5F3074670
:1043000007EE106AB8EEC77AC5F3072627EE277ABC
:10431000EDB206EE906A84ED007A07EE105AF8EEE0
:10432000E66AB8EEC77A66EEA76A27EE277AC4ED8A
:10433000016A84ED027A80E5924D03EB430605EBBA
:104340000615ED69C5F3074607EE106AB8EEC77AA1
:10435000C5F3072627EE277AEDB206EE906A84EDC4
:10436000007A07EE105AF8EEE66AB8EEC77A66EE03
:10437000A76A27EE277AC4ED016A84ED027A6CE51C
:10438000002525606560A56007E57E4D03EB4306CB
:1043900005EB0615AD68C5F3074607EE106AB8EEE3
:1043A000C77AC5F3072627EE277AEDB206EE906AA4
:1043B00084ED007A07EE105AF8EEE66AB8EEC77A96
:1043C00066EEA76A27EE277AC4ED016A84ED027AC9
:1043D000F3E46C4D03EB430605EB0615ED68C5F3FE
:1043E000074607EE106AB8EEC77AC5F3072627EE30
:1043F000277AEDB206EE906A84ED007A07EE105A45
:10440000F8EEE66AB8EEC77A66EEA76A27EE277A74
:10441000C4ED016A84ED027ADFE45A4D03EB4306F2
:1044200005EB0615AD68C5F3074607EE106AB8EE52
:10443000C77AC5F3072627EE277AEDB206EE906A13
:1044400084ED007A07EE105AF8EEE66AB8EEC77A05
:1044500066EEA76A27EE277AC4ED016A84ED027A38
:104460007BE5484D03EB430605EB06156D68C5F388
:10447000074607EE106AB8EEC77AC5F3072627EE9F
:10448000277AEDB206EE906A84ED007A07EE105AB4
:10449000F8EEE66AB8EEC77A66EEA76A27EE277AE4
:1044A000C4ED016A84ED027A4AE5364D03EB43061A
:1044B00005EB0615AD6AC5F3074607EE106AB8EEC0
:1044C000C77AC5F3072627EE277AEDB206EE906A83
:1044D00084ED007A07EE105AF8EEE66AB8EEC77A75
:1044E00066EEA76A27EE277AC4ED016A84ED027AA8
:1044F0009BE5244D03EB430605EB06156D6AC5F3FA
:10450000074607EE106AB8EEC77AC5F3072627EE0E
:10451000277AEDB206EE906A84ED007A07EE105A23
:10452000F8EEE66AB8EEC77A66EEA76A27EE277A53
:10453000C4ED016A84ED027A6AE5124D03EB43068D
:1045400005EB06152D6AC5F3074607EE106AB8EEAF
:10455000C77AC5F3072627EE277AEDB206EE906AF2
:1045600084ED007A07EE105AF8EEE66AB8EEC77AE4
:1045700066EEA76A27EE277AC4ED016A84ED027A17
:1045800039E500BFD8050020664D03EB430605EB77
:104590000615ED69C5F3074607EE106AB8EEC77A4F
:1045A000C5F3072627EE277AEDB206EE906A84ED72
:1045B000007A07EE105AF8EEE66AB8EEC77A66EEB1
:1045C000A76A27EE277AC4ED016A84ED027A05E531
:1045D000544D03EB430605EB0615AD69C5F30746DD
:1045E00007EE106AB8EEC77AC5F3072627EE277ADA
:1045F000EDB206EE906A84ED007A07EE105AF8EEFE
:10460000E66AB8EEC77A66EEA76A27EE277AC4EDA7
:10461000016A84ED027AD4E4424D03EB430605EBD4
:1046200006156D69C5F3074607EE106AB8EEC77A3E
:10463000C5F3072627EE277AEDB206EE906A84EDE1
:10464000007A07EE105AF8EEE66AB8EEC77A66EE20
:10465000A76A27EE277AC4ED016A84ED027AA3E403
:10466000304D03EB430605EB06152D69C5F30746F0
:1046700007EE106AB8EEC77AC5F3072627EE277A49
:10468000EDB206EE906A84ED007A07EE105AF8EE6D
:10469000E66AB8EEC77A66EEA76A27EE277AC4ED17
:1046A000016A84ED027A72E41E4D03EB430605EBCA
:1046B0000615ED68C5F3074607EE106AB8EEC77A2F
:1046C000C5F3072627EE277AEDB206EE906A84ED51
:1046D000007A07EE105AF8EEE66AB8EEC77A66EE90
:1046E000A76A27EE277AC4ED016A84ED027A41E4D5
:1046F000B0EE467AB0EE676AF0EE667AF0EE476AA0
:10470000FFF761B8B0EE467AB0EE666AC8E4F0EE44
:10471000465AF0EE476AB0EE676AF0EE657AFFF748
:1047200052B800BFD8050020022170B5084600F03D
:1047300075FC00B970BD2B4D0121022000F0A8FCD2
:104740002C88232CF6D8284B284E19571A5D284B55
:10475000F3600029ACBF19214B2112F0400F1970F2
:104760000CBF19214B2112F0200F59700CBF1921D9
:104770004B2112F0100F99700CBF19214B2112F030
:10478000080FD9700CBF19214B2112F0040F1971B9
:104790000CBF19214B2112F0020F59710CBF1921C6
:1047A0004B2112F0010F14BF4B2219229971DA71BB
:1047B00002200922B26100F0ABFB3146022000F07A
:1047C000C9FB022000F008FC0A48002101F092FA1F
:1047D0000221084600F018FC0134022000F008FC19
:1047E0002C8070BD420700205807002004000020E4
:1047F0003807002000440140F0B54FF0E023D74ACD
:10480000D7485861F021002482F82310072285B090
:104810009C614FF4C2601A6101F074F8D14801F054
:1048200085F9D14B0FCB6E4686E80F003146CD4857
:1048300001F0E2F9CB4801F057FACC4B6FF03A02A5
:10484000D3F8E017D3F8AC07D3F8B057D3F8B47760
:104850004FF6FF73FBF77CFC3846294617461D468A
:104860006FF03A024FF6FF73FBF772FCC0496B40E2
:104870007A400B711B0A0A604B7140F2115001F033
:1048800041F80823032221464FF0904000F052FDEA
:104890000823224602214FF0904000F099FC0822A4
:1048A00001214FF0904000F03BFE40F2115001F02A
:1048B00029F80423032221464FF0904000F03AFDEE
:1048C0000423224602214FF0904000F081FC4FF07B
:1048D00090400422012100F023FE224621461C20A4
:1048E00000F0C0FF40F2117001F00CF8FCF7A2FDDF
:1048F00040F2116001F006F89E4801F017F96423B8
:1049000031469C480293CDE900448DF80C4001F0FB
:1049100073F9984801F0E8F940F2115000F0F2FF05
:104920004023032221464FF0904000F003FD402336
:10493000224602214FF0904000F04AFC402205211F
:104940004FF0904000F0ECFDFEF71EF840F21250E0
:1049500000F0D8FF88484FF480730322214600F00E
:10496000E9FC4FF4807301222146834800F030FCBB
:1049700040F2115000F0C6FF4FF4004303222146DD
:104980004FF0904000F0D6FC4FF400430122214646
:104990004FF0904000F01CFC40F2125000F0B2FFCB
:1049A000754880230322214600F0C4FC80230122A5
:1049B0002146714800F00CFC40F2125000F0A2FFBA
:1049C0006D4808230322214600F0B4FC082301228D
:1049D0002146694800F0FCFB40F2125000F092FFC3
:1049E000654820230322214600F0A4FC2023012255
:1049F0002146614800F0ECFB40F2125000F082FFCB
:104A00005D4810230322214600F094FC102301226C
:104A10002146594800F0DCFB40F2115000F072FFD3
:104A20000223032221464FF0904000F083FC022332
:104A3000224601214FF0904000F0CAFB4F4BD3F8C3
:104A4000002CD3F8041CFF2A7BD8D4B2E243D2B2A4
:104A50004B4B4C489B5C825CDB43DBB28B4275D09A
:104A600040F2115000F04EFF4FF4807303220021FA
:104A70004FF0904000F05EFC4FF480730022012163
:104A80004FF0904000F0A4FB4FF480714FF0904045
:104A900000F03CFDFEF722FB40F2115000F032FF27
:104AA0004FF48063032200214FF0904000F042FC5D
:104AB0004FF48063002202214FF0904000F088FB09
:104AC0004FF4806204214FF0904000F029FD40F245
:104AD000115000F017FF4FF40073032200214FF034
:104AE000904000F027FC4FF40073002202214FF0A9
:104AF000904000F06DFB4FF4007204214FF09040A5
:104B000000F00EFD40F2157000F0FCFE1E491F483B
:104B1000002200F077FD00231A4619461B4800F0DA
:104B200007FE1A4800F026FE00220221172000F09E
:104B300099FE01220221202005B0BDE8F04000F0DE
:104B400091BEBF238B424FF0400289D10B4BD3F86B
:104B5000083C934284D10E4B1C7081E700ED00E0CD
:104B60001E480100004001405C64000800F0FF1F87
:104B700030070020004401400004004800B0000855
:104B80007467000874660008801A0600005400402C
:104B9000020100202DE9F04F8FB00023CDE90A3348
:104BA000CDE90833CDE90233BD4DBE4EDFF8389371
:104BB000DFF838B3DFF838A3BB4C0C9305930493AC
:104BC000079306930D9301937AE0029BF91AB1F5CE
:104BD000FA7F05D3B54B0297197881F0010119705E
:104BE000B8F57A7F80F05281039BFA1A312A07D9EF
:104BF000AF4B1A78002A00F04C81FBF705FD0397B4
:104C0000079B43F69722F91A914200F21C81089BF8
:104C100043F6A622F91A914200F2E580099B43F679
:104C2000C422F91A914200F2B780049B43F6C522D0
:104C3000F91A914206D932780AB1FCF785F9A7F141
:104C40002E0304930A9B44F29422F91A91427AD8D3
:104C50000B9B44F2E922F91A91424DD8059B44F28C
:104C6000EA22F91A914206D932780AB1FCF74EFAD3
:104C7000A7F6530305930C9BFA1A202A00F28880AA
:104C8000FCF720FC8B4B1B780BB9FBF7E3FB2A6886
:104C9000DAF80030D31A012B0ED9CAF80020864A60
:104CA00000231380854A1380854A1360854A137058
:104CB000854A4FF496731360FDF716FFFEF70CF864
:104CC0002F68019BA7EB0308B8F57A7F80F0B080CE
:104CD0000D9BF91A092900F21181069BF91A41F27C
:104CE000873399427FF671AF4FF480714FF0904057
:104CF00000F00EFC069768E7744B00221A703270C1
:104D0000734BABF8002002224FF480612046C9F8B3
:104D1000002080221A7000F019FD40F2091120468F
:104D200000F040FD4FF48571204600F03BFD4FF44C
:104D30008471204600F036FD204600F021FDA7F6E4
:104D400052030B938AE7634B1A78634B1A705F4BDD
:104D500001221A705E4BC9F8002080221A7040F2BE
:104D6000091100222046ABF8002000F01BFD4FF493
:104D70008571204600F016FD4FF48471204600F046
:104D800011FD204600F0FCFCA7F2FD730A935FE7DB
:104D9000FEF75AFC0C9773E74C4B00221A703270E6
:104DA0004B4BABF8002002224FF480612046C9F83B
:104DB000002080221A7000F0C9FC40F20911204640
:104DC00000F0F0FC4FF48571204600F0EBFC4FF44E
:104DD0008471204600F0E6FC204600F0D1FCA7F1EB
:104DE0002D03099321E73D4B1A783B4B1A70374B43
:104DF00001221A70364BC9F8002080221A7040F246
:104E0000091100222046ABF8002000F0CBFC4FF443
:104E10008571204600F0C6FC4FF48471204600F0F6
:104E2000C1FC204600F0ACFCA7F10F030893F5E6A7
:104E3000FDF724FC0D9BF91A09295BD8284B19783A
:104E400049B3019749E7274B1A78234B1A701F4B38
:104E500001221A701E4BC9F8002080221A7040F2FD
:104E6000091100222046ABF8002000F09BFC4FF413
:104E70008571204600F096FC4FF48471204600F0C6
:104E800091FC204600F07CFC0797C0E6FDF7A8FFE8
:104E9000AAE60397B4E6FBF731FB01971DE700BFD5
:104EA00050070020C405002000540040D405002015
:104EB000DC000020640B0020540B00205C0B002061
:104EC000580B0020250A0020FC00002005030020CC
:104ED00004030020EC00002008030020E80000206C
:104EE000F1000020F00000200C0300200A03002045
:104EF000600B0020FDF786FD0D979FE7FDF782FD13
:104F00000D97EAE608B5FFF777FCFFF743FE00BF11
:104F100000EB80039B000D495A5810B422F00102A7
:104F20000B4C5A5000225A501A51083108345A502A
:104F30001A51800051F80C2C5DF8044B0F2303FA32
:104F400000F0104341F80C0C704700BF080002400D
:104F50000C00024000EB800080001D4BC25822F084
:104F6000010230B4C2501B4A0C6884500432CC6831
:104F70008450083A0C8B8450C4584A680D6924F454
:104F80007C5CCC692A43224342EA0C02C2500A7A72
:104F9000012AC2580CBF42F0400222F04002C25027
:104FA0000A7D012AC2580CBF42F0800222F0800222
:104FB000C2504A7D2AB9C25822F0100230BCC250F9
:104FC0007047C25842F0100230BCC250704700BF58
:104FD000080002401000024000EB8000034A8000FD
:104FE000835823F020038350704700BF080002401D
:104FF00000EB8000034A8000835843F00103835094
:10500000704700BF0800024000EB8000024A8000A9
:10501000835819438150704708000240042930B476
:1050200006D0082924D0022915D0002030BC7047B2
:1050300082001318144C154824689B001B5801FA71
:1050400002F0204003F004010028EFD0081E18BF32
:10505000012030BC7047820013180B4C0B482468A9
:105060009B001B5801FA02F0204003F00201EBE71D
:10507000820010448300044D044C28681B59914061
:10508000084003F00801DFE700000240080002408A
:10509000034B80005A68814011435960704700BF3C
:1050A00000000240044B1A69120603D50349044A62
:1050B00059605A60704700BF0020024023016745D5
:1050C000AB89EFCD024A136943F080031361704747
:1050D000002002401B4A4FF47023D168C90723D433
:1050E000D368DB0628D4D368590727D41369154938
:1050F00043F0020313615061106940F040004FF427
:1051000070231061CA68D20712D4CB68DB0617D4AB
:10511000CB6813F0040F0CBF00200220094A13696A
:1051200023F0020313617047013BD6D1042070477E
:10513000013BE7D10420F1E70320704702207047CC
:105140000320EBE70020024010B41D4A4FF4702307
:10515000D468E40721D4D368DB0628D4D3685C077D
:1051600029D41369164C43F0010313614FF47023E3
:105170000160E268D20716D4E368DB061DD4E36859
:1051800013F0040F0CBF002002200D4A136923F016
:10519000010313615DF8044B7047013BD8D1042033
:1051A0005DF8044B7047013BE3D10420EDE7032099
:1051B0005DF8044B70470220ECE70320E5E700BFF1
:1051C00000200240014BD860704700BF0020024021
:1051D00013F0010F30B40568C46806D025F0030C45
:1051E00024F003044CEA0105144313F0020F07D026
:1051F00025F00C0C24F00C044CEA810544EA8204EE
:1052000013F0040F07D025F0300C24F030044CEAE2
:10521000011544EA021413F0080F07D025F0C00C62
:1052200024F0C0044CEA811544EA821413F0100FF4
:1052300007D025F4407C24F440744CEA012544EA6C
:10524000022413F0200F07D025F4406C24F44064AE
:105250004CEA812544EA822413F0400F07D025F45C
:10526000405C24F440544CEA013544EA023413F023
:10527000800F07D025F4404C24F440444CEA81359B
:1052800044EA823413F4807F07D025F4403C24F4B0
:1052900040344CEA014544EA024413F4007F07D04D
:1052A00025F4402C24F440244CEA814544EA82440D
:1052B00013F4806F07D025F4401C24F440144CEA0A
:1052C000015544EA025413F4006F07D025F4400C52
:1052D00024F440044CEA815544EA825413F4805F7C
:1052E00007D025F0407C24F040744CEA016544EA84
:1052F000026413F4005F07D025F0406C24F0406492
:105300004CEA816544EA826413F4804F07D025F0AB
:10531000405C24F040544CEA017544EA02741B04DA
:1053200044BF61F39F7562F39F740560C46030BC35
:10533000704700BF012941684FF6FF7C0CBF19433D
:1053400099434160624581686DD013F0010F1CBF25
:1053500021F00301114313F0020F1CBF21F00C01D7
:1053600041EA820113F0040F1CBF21F0300141EA31
:10537000021113F0080F1CBF21F0C00141EA821195
:1053800013F0100F1CBF21F4407141EA022113F009
:10539000200F1CBF21F4406141EA822113F0400F2D
:1053A0001CBF21F4405141EA023113F0800F1CBFB1
:1053B00021F4404141EA823113F4807F1CBF21F483
:1053C000403141EA024113F4007F1CBF21F4402127
:1053D00041EA824113F4806F1CBF21F4401141EA7D
:1053E000025113F4006F1CBF21F4400141EA8251C5
:1053F00013F4805F1CBF21F0407141EA026113F495
:10540000005F1CBF21F0406141EA826113F4804FCC
:105410001CBF21F0405141EA02711B0448BF62F3F6
:105420009F7181607047C26B13F0010F1CBF41F088
:10543000030142F0010213F0020F1CBF41F00C0106
:1054400042F0020213F0040F1CBF41F0300142F0A1
:10545000040213F0080F1CBF41F0C00142F0080223
:1054600013F0100F1CBF41F4407142F0100213F012
:10547000200F1CBF41F4406142F0200213F0400FA6
:105480001CBF41F4405142F0400213F0800F1CBF9A
:1054900041F4404142F0800213F4807F1CBF41F48C
:1054A000403142F4807213F4007F1CBF41F440216C
:1054B00042F4007213F4806F1CBF41F4401142F4B7
:1054C000806213F4006F1CBF41F4400142F400629B
:1054D00013F4805F1CBF41F0407142F4805213F41A
:1054E000005F1CBF41F0406142F4005213F4804F52
:1054F0001CBF41F0405142F480421B0444BF41F0C4
:10550000404142F400428160C2637047816170474C
:105510008162704703690B4214BF0120002070476D
:1055200010B4046A436A12F0010F1CBF24F00F0488
:105530000C4312F0020F1CBF24F0F00444EA0114E3
:1055400012F0040F1CBF24F4706444EA012412F02A
:10555000080F1CBF24F4704444EA013412F0100F09
:105560001CBF24F4702444EA014412F0200F1CBF35
:1055700024F4700444EA015412F0400F1CBF24F0DC
:10558000706444EA016412F0800F18BF61F31F7465
:1055900012F4807F1CBF23F00F030B4312F4007F33
:1055A0001CBF23F0F00343EA011312F4806F1CBF09
:1055B00023F4706343EA012312F4006F1CBF23F449
:1055C000704343EA013312F4805F1CBF23F470235D
:1055D00043EA014312F4005F1CBF23F4700343EA63
:1055E000015312F4804F1CBF23F0706343EA016340
:1055F000120448BF61F31F7304625DF8044B4362F9
:10560000704700BFF8B5054602200C46164600F06C
:10561000A5F9424B424FA3FB00236A689B0CB8429A
:1056200094BF19463F2122F03F020A436A603D4A77
:10563000944212D801333E2B56D8022B98BF022336
:105640002B626400B0FBF4F00428EB6938BF04203F
:10565000C0F30B001843E861F8BD334B9C4222D8DD
:10566000324A4FF4967301FB03F3A2FB03239B0919
:1056700001332B62EA69002E39D122F4804204EB17
:105680004404EA61B0FBF4F005F11C03C0F30B0223
:105690000AB940F001001A6842F400421A601C681E
:1056A00020431860F8BDC1EB01132049DB00A1FBCA
:1056B00003239B0901332B62EA692EB342F4804233
:1056C00004EB840405F11C03EA6104EB8404B0FBE1
:1056D000F4F41A6842F400421A6018680121044385
:1056E0001C60C5F89010F8BD3F232B62A9E742F477
:1056F000804204EB840404EB8404EA61B0FBF4F020
:1057000005F11C030246C3E722F4804204EB440483
:1057100005F11C03EA61B0FBF4F4DAE783DE1B4316
:10572000BF4DC103A0860100801A0600D34D621050
:1057300010B40468C3F3090324F002040C431343B8
:1057400004605DF8044B8360704700BF036823F476
:105750008063194301607047036823F400631943B1
:105760000160704702320CBF21F0010141F00101DC
:1057700001617047036843F001030360704700BF95
:10578000036843F480730360704700BF036843F409
:1057900000730360704700BF016170470069C0B2C9
:1057A000704700BF8A0910B401F01F01145801238B
:1057B00003FA01F1214311505DF8044B704700BF1B
:1057C0004FEA911C01225CF8003001F01F0102FA3F
:1057D00001F123EA01014CF800107047C1F389126E
:1057E00070B4466815588A0D01F01F031458012241
:1057F00002FA03F0C1F304439A400E4B21F48031C6
:10580000994200EA050002EA040205D072B10038AC
:1058100018BF012070BC70470028FBD016F48060D0
:10582000F8D0101E18BF012070BC7047104670BC25
:10583000704700BF09010605094B99420DD04FEA98
:10584000915C01225CF80030C1F3044102FA01F1DD
:1058500023EA01014CF800107047436983697047DF
:10586000090101051E4BDB6803F4E063B3F5A06F8B
:1058700010B42CD01BD9B3F5C06F2CD0B3F5E06FAA
:1058800022D102F00F020423164C99401143231831
:105890000901C9B283F800134209012300F01F0077
:1058A00003FA00F044F822005DF8044B7047B3F5AA
:1058B000407F06D0B3F5806F06D102F001020123CC
:1058C000E2E700221346DFE7054B074CDC6002F0FD
:1058D00003020223D8E702F007020323D4E700BF44
:1058E00000ED00E000E100E00005FA0521F0604174
:1058F000034B21F07F0108439860BFF34F8F70473F
:1059000000ED00E0830903F1804303F5043300F068
:105910001F001968012202FA00F00843186070475E
:10592000830903F1804303F5043300F01F00196875
:10593000012202FA00F0084318607047830903F15E
:10594000804303F5043300F01F001A68012101FAB7
:1059500000F022EA00001860704700BF10B5684CE4
:10596000844694E80F0088B00DF1200E10340EE943
:105970000F0094E803006B4683E8030002AB83E862
:105980000300604A5368C3F38103022B30D05E4C9E
:105990005C4A516853685268C1F303112031C2F365
:1059A000C222694420326A44C3F3022311F8101C56
:1059B00012F8180C20336B4424FA01F213F8203C3F
:1059C00022FA00F0BCF1060F00F29780DFE80CF03D
:1059D0000D31340E384404004A4B1A6B920705D03F
:1059E0001A6B02F00302012A5BD1204608B010BDF9
:1059F00054685168D36A0901C4F383444FEAD373EE
:105A000014D5002B37D031343E4B5A68D96AD203B3
:105A10002DD5DB6A480003F00F0354BF3A4A3B4AD6
:105A20000133B2FBF3F303FB04F4B1E72BB32134EE
:105A3000EAE7104608B010BD22FA03F008B010BD26
:105A4000304B196BC9051AD41A6B314B314812F41B
:105A5000803F18BF1846C9E72A4B1B6B13F0400F55
:105A600048F2120018BF4FF4004008B010BD2A4B96
:105A700003FB04F48CE71134C6E70234C4E7596829
:105A80001C6BC1F38133022B4FEAD4741FD0032B5C
:105A900014D0012B15D01CB32048A0FB02304008C5
:105AA000A4E71A6B02F00302022A1BD01B6B1648F4
:105AB00003F00303032B18BF002097E76CB9C0085D
:105AC00094E714B11648A0FB023080088EE764B951
:105AD000124BA3FB0030800888E71248A0FB02307D
