:020000040800F2
:10000000D8020020654B0008B14B0008B14B000836
:10001000B14B0008B14B0008B14B000800000000D4
:10002000000000000000000000000000B14B0008CC
:10003000B14B000800000000B14B0008A901000806
:1000400000000000B14B0008B14B0008B14B0008A4
:10005000B14B0008B14B0008B14B0008B14B000890
:10006000B14B0008B14B00081D390008B14B000826
:10007000B14B0008B14B0008B14B0008B14B000870
:10008000B14B0008B14B000800000000B14B000864
:10009000B14B0008B14B0008B14B0008652E0008B9
:1000A000B14B0008B14B0008B14B0008B14B000840
:1000B000B902000800000000B14B00080000000079
:1000C000BD2F000800000000B14B0008B14B000834
:1000D000B14B00080000000000000000000000001C
:1000E0000000000000000000B14B0008000000000C
:1000F0000000000000000000000000000000000000
:10010000B14B00080000000000000000B14B0008E7
:1001100000000000000000000000000000000000DF
:1001200000000000000000000000000000000000CF
:1001300000000000000000000000000000000000BF
:10014000000000000000000000000000B14B0008AB
:1001500053B94AB9002908BF00281CBF4FF0FF312E
:100160004FF0FF3000F00CB8ADF1080C6DE904CE93
:1001700004F02CFEDDF804E0DDE9022304B0704752
:10018000704700BF4FF0E023054A5A61054AF0214D
:1001900082F8231000229A6107221A61704700BF7B
:1001A0001E48010000ED00E0024A136801331360AD
:1001B000704700BF9C0A0020F8B5144B6FF03A025C
:1001C000D3F8E017D3F8AC07D3F8B067D3F8B47717
:1001D0004FF6FF73FFF7BCFF384614461D466FF01D
:1001E0003A024FF6FF733146FFF7B2FF084862400C
:1001F0006B400021013100F8012B06294FEA122241
:1002000042EA03624FEA1323F4D1F8BD00F0FF1F66
:10021000940A002008B540F2115003F0B5FF0823FE
:10022000032200214FF0904003F0ECFD0823002250
:1002300002214FF0904003F0C3FDBDE808400822C2
:1002400001214FF0904003F018BE08B540F2115064
:1002500003F09AFF0423032200214FF0904003F0A3
:10026000D1FD0423002202214FF0904003F0A8FDAD
:10027000BDE80840042201214FF0904003F0FDBD8D
:1002800008B500221C20114603F030FFBDE80840ED
:1002900040F2117003F078BF037810B55940044C58
:1002A000044B5A5C4378615C42704B40037010BD54
:1002B000945B0008945A0008F8B55749574804F071
:1002C00027FC064640B1554840F2017104F003FC9A
:1002D0005149524804F032FC5149504804F018FC8E
:1002E000074640B14D4840F2027104F0F4FB4C491E
:1002F0004A4804F023FC4B49484804F009FC0546F1
:1003000040B1464840F2037104F0E5FB45494348DB
:1003100004F014FC4449414804F0FAFB044640B19F
:100320003E484FF4E06104F0D6FB3F493B4804F0FF
:1003300005FC3E49394804F0EBFBB8B1374840F2C0
:10034000037104F0C8FB3949344804F0F7FB72B676
:10035000374A00231360374A1360374A202111803F
:10036000364A138062B6364A137005E03E43354381
:100370002C43E4B2002CEAD13249284804F0C8FBEF
:1003800008B32D4A1388D3B12A4924480C68013B8D
:100390001380631C5A4202F01F0203F01F0358BF70
:1003A00053420B6004F093FB274B23F81400274BB8
:1003B0001A68274B1A60214A138801331380214998
:1003C000164804F0BBFB2349144804F0A1FB10B30A
:1003D000214D224B2C881B88A34214D94FF49672CE
:1003E000B4FBF2F302FB13439BB21D4A0B4832F8F5
:1003F0001310013404F067FB2C80BDE8F840154968
:10040000064804F09BBB0548072104F076FB154B1A
:1004100000221A70F1E7F8BD000201070044004015
:100420000002020700020307080000070500030797
:100430004C0A0020500A0020CE000020480A00206C
:100440004106002005000507540A00209C0A0020F0
:100450004406002007000707EE070020EC070020F5
:10046000F007002048060020214B10B51A46F02165
:1004700002F8011B1F49204C08688988C3F8010055
:1004800091801E4A1278DA711D4A204611785278FE
:1004900019725A7204F098FA2046042104F00BFBFA
:1004A0002046082104F0FFFA2046052104F01BFB3A
:1004B00020464FF4007104F016FB2046082104F09A
:1004C00012FB20464FF4E13104F09AFA2046002155
:1004D00004F0CCFA2046002104F0D4FA2046002192
:1004E00004F0B8FA2046BDE8104004F0D7BA00BFC7
:1004F00049060020940A002000440040D200002059
:10050000D00000202DE9F04F8F4B1A888DB0002AC3
:100510002ED072B61A88013A1A8062B68B480168EA
:100520004B1C5A4202F01F0203F01F0358BF5342F4
:100530000360874B33F8114086490B78DBB9A52C53
:1005400010D101220A70844984480A7084490B70D2
:1005500084490B70844B21461A70FF23037043704B
:10056000FFF79AFE72B6814A13880133138062B690
:100570000DB0BDE8F08F012BF4D1774E3378012B0D
:1005800013D1FF2C774B07D9002174481970FFF75E
:1005900083FE03233370E5E7E1B270481970FFF77B
:1005A0007BFE002CF5D00223F4E7022B19D16C4816
:1005B0000378B4F5807F28BF0024FF22B3FBF2F25A
:1005C0001A440133DDB2E1B202F0FF02684C05705B
:1005D0006248A154FFF760FE624B1B78AB42C1D169
:1005E000D7E7032B0CD15D4BB4F5807F1B7828BF78
:1005F00000249C421EBF5C4B00221A700423C9E7F2
:10060000042BAFD1574B584A1D781278534B5B7867
:10061000002A00F09480B4F5807F28BF00249C421B
:1006200040F08D80002D00F08A80514F3C78002CE6
:1006300040F0B480022D40F082804E4A1388002B97
:100640007AD04D49DFF84CB1D1F800A0BBF800805A
:10065000DFF84491013B13800AF101035A4202F092
:100660001F0203F01F0358BF53420B60434B4FF46C
:1006700096760BA81B88ADF82C30A521FFF70CFE51
:10068000B8FBF6F306FB13839BB2A522294609F8B3
:100690000320FFF701FE08F101039BB2B3FBF6F262
:1006A00006FB12339BB2214609F803507D786B1E7E
:1006B0005A425A41324B1A70FFF7EEFD08F102031D
:1006C0009BB2B3FBF6F206FB12339BB2294609F844
:1006D0000340FFF7E1FD08F103039BB2B3FBF6F221
:1006E00006FB12339BB209F8035008F104039BB2D6
:1006F000B3FBF6F206FB12339BB29DF82C2009F8EF
:10070000032008F105039BB2B3FBF6F206FB12339C
:100710009BB29DF82D2009F8032008F10603ABF8E1
:100720000030184B23F81A80174B062203F80A20D2
:10073000164A138801331380154B00221A70054B9B
:1007400000221A700EE700BF480A00204C0A002061
:10075000540A002041060020CB000020C9000020E0
:10076000400600203F060020C8000020CE000020E8
:1007700040050020CC000020880700208850000899
:1007800070000020AC0700208C07002082070020AA
:10079000590000205406002056060020E32C00F2E9
:1007A000FC80DF2C00F2F0800A2C00F0ED85D02CCC
:1007B000C5D1022DC3D197F80180854FDFF844924F
:1007C0003B889FED847AB8F1000F40F0B582824AF1
:1007D00082F80080002B6CD08049DFF818A2D1F895
:1007E00000B0013B3B800BF101035A4202F01F02B3
:1007F00003F01F0358BF5342794A0B60794B1688A8
:100800001B88ADF82C304FF496740BA8A521FFF788
:1008100043FDB6FBF4F304FB13639BB2A5210AF876
:1008200003102946FFF738FD731C9BB2B3FBF4F1AC
:1008300004FB11339BB241460AF80350FFF72CFD2D
:10084000B31C9BB2B3FBF4F104FB11339BB24146E2
:100850000AF80380FFF720FDF31C9BB2B3FBF4F111
:1008600004FB11339BB25E4A0AF80380331D9BB22E
:10087000B3FBF4F104FB11339BB29DF82C100AF882
:100880000310731D9BB2B3FBF4F104FB11339BB255
:100890009DF82D100AF80310B31D1380524B23F856
:1008A0001B60524B062203F80B20514A1388013378
:1008B00013803B8889ED007A002B3FF43DAF474918
:1008C000DFF81C814B4EB8F80050013B3B800F68AD
:1008D0007B1C5A4202F01F0203F01F0358BF534211
:1008E0000B60404B4FF496740BA81B88ADF82C306E
:1008F000A521FFF7D1FCB5FBF4F304FB13539BB226
:10090000A5220221F254FFF7C7FC6B1C9BB2B3FB7C
:10091000F4F204FB12339BB20222D021F254FFF70F
:10092000BBFCAB1C9BB2B3FBF4F204FB12339BB2D7
:10093000D0220121F254FFF7AFFCEB1C9BB2B3FBBA
:10094000F4F204FB12339BB20122F2542B1D9BB232
:10095000B3FBF4F204FB12339BB29DF82C20F2544B
:100960006B1D9BB2B3FBF4F204FB12339BB29DF8F8
:100970002D20F254AB1DA8F800301B4B23F8175064
:100980001A4B0622DA55D3E6E13C022C00F24782EC
:10099000DFE814F06203FB036B04F42C34D0FA2C70
:1009A0007FF4CDAE022D7FF4CAAE97F801B0124BA2
:1009B000BBF1000B18BF4FF0010B83F800B00F4BD9
:1009C00000221A600E4B01221A7000F0F3BC00BF27
:1009D000CC0000208180803B700000208807002030
:1009E0005406002088500008AC0700208C07002027
:1009F0008207002056060020F8020020F4020020A2
:100A0000050000206C000020BC4BBD4E00221A7275
:100A10001A7583F8202083F82C203388002B6DD0A2
:100A2000B849DFF80493D1F80080B9F80050B64F08
:100A3000013B338008F101035A4202F01F0203F028
:100A40001F0358BF53420B60B04B4FF496740BA872
:100A50001B88ADF82C30A521FFF71EFCB5FBF4F385
:100A600004FB13539BB2A5220221FA54FFF714FC96
:100A70006B1C9BB2B3FBF4F204FB12339BB2022259
:100A80000A21FA54FFF708FCAB1C9BB2B3FBF4F24B
:100A900004FB12339BB20A22FA549D4B93F800A038
:100AA0005146FFF7F9FBEB1C9BB2B3FBF4F204FBDE
:100AB00012339BB207F803A02B1D9BB2B3FBF4F2D9
:100AC00004FB12339BB29DF82C20FA546B1D9BB291
:100AD000B3FBF4F204FB12339BB29DF82D20FA54C1
:100AE000AB1DA9F800308B4B23F818508A4B062217
:100AF00003F80820894A138801331380884B0024A7
:100B00001C60884B01221A703388002B00F08A8009
:100B10007C49854FD1F800903D88DFF8EC81013B9E
:100B2000338009EB0203E21A02F01F0203F01F03F5
:100B300058BF53420B60754B4FF4967A1B88ADF843
:100B40002C300BA8A521FFF7A7FBB5FBFAF30AFB96
:100B500013539BB2A522022108F80320FFF79CFB48
:100B60006B1C9BB2B3FBFAF20AFB12339BB202225C
:100B7000D02108F80320FFF78FFBAB1C9BB2B3FB1F
:100B8000FAF20AFB12339BB2D02208F80320674B1B
:100B9000D3ED007AB7EE007AF4EEC77AF1EE10FAF0
:100BA0000ED89FED637A67EE877AF5EEC07AF1EEA4
:100BB00010FAA2BFFCEEE77ACDED007A9DF8004076
:100BC00021460BA8FFF768FBEB1C4FF496729BB213
:100BD000B3FBF2F102FB11339BB208F803402B1D6B
:100BE0009BB2B3FBF2F102FB11339BB29DF82C10C8
:100BF00008F803106B1D9BB2B3FBF2F102FB11333B
:100C00009BB29DF82D2008F80320AB1D3B80414B83
:100C100023F81950404B062203F809203F4A138855
:100C2000013313803388002B3FF489AD3549DFF859
:100C3000F8800F68B8F80050013B33807B1C5A42A3
:100C400002F01F0203F01F0358BF53420B602F4BEB
:100C50002D4E1B88ADF82C304FF496740BA8A521AF
:100C6000FFF71AFBB5FBF4F304FB13539BB2A52269
:100C70000221F254FFF710FB6B1C9BB2B3FBF4F2A2
:100C800004FB12339BB202220021F254FFF704FB53
:100C9000AB1C9BB2B3FBF4F204FB12339BB20022F9
:100CA000F254244B93F800904946FFF7F5FAEB1CF9
:100CB0009BB2B3FBF4F204FB12339BB206F8039031
:100CC0002B1D9BB2B3FBF4F204FB12339BB29DF8D5
:100CD0002C20F2546B1D9BB2B3FBF4F204FB1233D5
:100CE0009BB29DF82D20F254AB1DA8F80030094BA3
:100CF00023F81750084B0622DA5540E290040020F2
:100D0000CC000020880700205606002088500008EC
:100D100001000020AC0700208C0700208207002083
:100D20000003002058000020540600206C00002022
:100D300000007F437000002007EE908AF8EE677A8B
:100D400067EE877AC9ED007A002B3FF4F5ACB7491E
:100D5000DFF8E8B2D1F800A0DFF8E492013B3B8075
:100D60000AF101035A4202F01F0203F01F0358BFA9
:100D700053420B60AE4BBBF800701B88ADF82C30B3
:100D80004FF496760BA8A521FFF786FAB7FBF6F38A
:100D900006FB13739BB2A522294609F80320FFF72F
:100DA0007BFA7B1C9BB2B3FBF6F206FB12339BB2C1
:100DB000214609F80350FFF76FFABB1C9BB2B3FB47
:100DC000F6F206FB12339BB2414609F80340FFF7E7
:100DD00063FAFB1C9BB2B3FBF6F206FB12339BB229
:100DE00009F803803B1D9BB2B3FBF6F206FB1233FE
:100DF0009BB29DF82C2009F803207B1D9BB2B3FB0E
:100E0000F6F206FB12339BB29DF82D2009F8032061
:100E1000BB1DABF80030874B23F81A7084E4052D16
:100E20007FF68DACEC1EE4B20320B4FBF0F303EBD1
:100E30004303E41A14F0FF047FF481AC97F80180B7
:100E4000BF7808F1FF33DBB2834203933FF677AC00
:100E50007B1EDBB20B2B00933FF671AC76490A8800
:100E6000002A00F0A680013AC3F10C030A80DBB22D
:100E70006E49A5F102095FFA89F9B9FBF0F99945C4
:100E800028BF99460B68019301335A4202F01F02B2
:100E900003F01F0358BF53420B60684B684D1E8818
:100EA000634B4FF4967A0BA81B88ADF82C30A52124
:100EB00009F1010BFFF7F0F9B6FBFAF30BEB4B0B63
:100EC0000AFB13639BB25FFA8BFBA5225946EA54D7
:100ED000FFF7E2F9731C9BB2B3FBFAF20AFB123381
:100EE0009BB2E02105F803B0FFF7D6F9B31C9BB223
:100EF000B3FBFAF20AFB12339BB2E0224146EA54FA
:100F0000FFF7CAF9F31C9BB2B3FBFAF20AFB1233E8
:100F10009BB2394605F80380FFF7BEF9331D9BB23B
:100F2000B3FBFAF20AFB12339BB2EF540C23B9FB6A
:100F3000F3F203FB12995FFA89FA0AF1FF32079282
:100F4000039ADFF81091751D5A43ADB208924FF421
:100F500096786F1CB5FBF8F208FB125292B2BFB242
:100F60000492B7FBF8F208FB1277BAB20592AA1CFA
:100F700092B20692079A0335A242ADB21FDA304B05
:100F800004999DF82C205A5405999DF82D205A5407
:100F90002A490AEB4A03F21D1A440A80254A01999C
:100FA00022F81160274A07335354274A1388013324
:100FB0001380264B039900225A54FFF7C0BB99F8BF
:100FC00005200292009A99F804B099F803101C4F7A
:100FD0000991A218B2FBF3F003FB1022089B4FEA21
:100FE0000B201A44029B40EA01401843184B43F877
:100FF00022000BA8FFF750F9049B0999F9545946B0
:10100000FFF74AF9059B029907F803B0FFF744F987
:10101000069BB3FBF8F108FB113189B2029B7B54AC
:10102000013409F103090C2391E700BF8807002070
:1010300088500008AC070020CC0000205406002097
:10104000560600208C070020820700205A0000204E
:101050000403002040050020032D7FF470ABBF4A3D
:101060001388002B3FF46BABBD49BE4ED1F8009006
:101070003488DFF81083013B138009F101035A42E1
:1010800002F01F0203F01F0358BF53420B60B64B20
:101090004FF4967A1B88ADF82C300BA8A521FFF7EA
:1010A000FBF8B4FBFAF30AFB13439BB2A5222946D3
:1010B00008F80320FFF7F0F8631C9BB2B3FBFAF2C9
:1010C0000AFB12339BB2E12108F80350FFF7E4F862
:1010D000A31C9BB2B3FBFAF20AFB12339BB2E122D0
:1010E00008F803200021A14A8B461BF0070F17D1F7
:1010F00007EBEB016B1C254449780292DBB20BA88D
:10110000ADB201930091FFF7C7F8B5FBFAF00AFB07
:101110001055ADB2019B0099029A08F805101D46C2
:101120000BF1010B01F00103BBF10C0F02F8013BC5
:101130004FEA5101D9D12B194FF496729BB2B3FBF0
:10114000F2F102FB11339BB29DF82C1008F803104A
:101150006B1C54FA83F39BB2B3FBF2F102FB113325
:101160009BB29DF82D2008F80320023554FA85F330
:1011700033807F4B23F819407E4B03F809507E4A99
:10118000138801331380FFF7DABA032D7FF4D7AA4F
:10119000724A1388002B3FF4D2AA7149714ED1F8DC
:1011A00000903488DFF8DC81013B138009F10103F2
:1011B0005A4202F01F0203F01F0358BF53420B6054
:1011C000694B4FF4967A1B88ADF82C300BA8A521FB
:1011D000FFF762F8B4FBFAF30AFB13439BB2A522B4
:1011E000294608F80320FFF757F8631C9BB2B3FBAE
:1011F000FAF20AFB12339BB2E22108F80350FFF720
:101200004BF8A31C9BB2B3FBFAF20AFB12339BB25E
:10121000E22208F803200021584A8B461BF0070FF2
:1012200017D107EBEB016B1C254449780292DBB226
:101230000BA8ADB201930091FFF72EF8B5FBFAF0C1
:101240000AFB1055ADB2019B0099029A08F80510EF
:101250001D460BF1010B01F00103BBF10C0F02F86D
:10126000013B4FEA5101D9D165E7022D7FF467AA0E
:1012700097F801A00AF1FF33DBB2032B3FF65FAA18
:101280003F4A1360354A1388002B3FF458AA34496B
:10129000DFF8D090D1F80080B9F80060394F013BF9
:1012A000138008F101035A4202F01F0203F01F03EA
:1012B00058BF53420B602C4B4FF496740BA81B88FD
:1012C000ADF82C30A521FEF7E7FFB6FBF4F304FBE5
:1012D00013639BB2A5222946FA54FEF7DDFF731C67
:1012E0009BB2B3FBF4F204FB12339BB2E321FD5437
:1012F000FEF7D2FFB31C9BB2B3FBF4F204FB123334
:101300009BB2E3225146FA54FEF7C6FFF31C9BB290
:10131000B3FBF4F204FB12339BB207F803A0331DB6
:101320009BB2B3FBF4F204FB12339BB29DF82C206A
:10133000FA54731D9BB2B3FBF4F204FB12339BB25D
:101340009DF82D20FA54B31DA9F80030084B23F85E
:101350001860084B062203F8082010E7CC00002094
:101360008807002054060020885000085E000020F6
:10137000AC0700208C07002082070020C503002056
:10138000FC02002056060020022D7FF4D8A9424B13
:1013900097F801B083F800B0404B414800221A7022
:1013A000404B01221A70404B1A68404B20211A60B2
:1013B00002F05FFD3E4A1388002B3FF4C0A93D496F
:1013C000DFF800A1D1F80090BAF80070DFF8F880DB
:1013D000013B138009F101035A4202F01F0203F09E
:1013E0001F0358BF53420B60334B4FF496760BA844
:1013F0001B88ADF82C30A521FEF74EFFB7FBF6F3A6
:1014000006FB13739BB2A52208F803202946FEF7BA
:1014100043FF7B1C9BB2B3FBF6F206FB12339BB27D
:10142000214608F80350FEF737FFBB1C9BB2B3FB05
:10143000F6F206FB12339BB2594608F80340FEF75A
:101440002BFFFB1C9BB2B3FBF6F206FB12339BB2E5
:1014500008F803B03B1D9BB2B3FBF6F206FB123358
:101460009BB29DF82C2008F803207B1D9BB2B3FB98
:10147000F6F206FB12339BB29DF82D2008F80320EC
:10148000BB1DAAF800300D4B23F819700C4B062237
:1014900003F8092073E600BF0100002000000020CF
:1014A00000040048E00200209C0A0020D80200202E
:1014B000CC0000208807002088500008AC070020DE
:1014C0008C07002054060020560600202DE9F0412C
:1014D000234C2278002A35D1224B1988002931D09B
:1014E00072B619880139198062B61F4DDFF894C0B1
:1014F0002968DFF894E04B1C584200F01F0003F00D
:101500001F0358BF43422B60184B33F81170184B20
:10151000585C1849461E0A8013464FF496759E4241
:1015200012DA02B10880144B1448002207211A80F5
:1015300003F0D9FA0123237072B6114A13880133DC
:10154000138062B6BDE8F081FA18B2FBF5F805FB2E
:1015500018221EF802202CF8132001330122DEE7A6
:10156000480600208207002084070020AC070020E6
:101570008C070020EC070020EE070020004400400C
:10158000CC000020F0070020560600200B4B0C4A30
:1015900019681368CB1A012B10B50ED972B6094819
:1015A000002303600848036008482024048008489A
:1015B000038062B607481160037010BD9C0A0020CA
:1015C000440600204C0A0020500A0020CE000020D3
:1015D000480A0020410600202DE9F04F3C4A1388BC
:1015E00085B0002B71D03B493B4FD1F800903E882D
:1015F000DFF8F880DFF8F8B0013B138009F1010350
:101600005A4202F01F0203F01F0358BF53420B60FF
:10161000324B4FF496741B88ADF80C30A52103A80B
:10162000FEF73AFEB6FBF4F304FB13639BB2A5226C
:101630000A2108F80320FEF72FFE731C9BB2B3FBB0
:10164000F4F204FB12339BB20A2206F1020A06F1FD
:101650000C0508F803201FFA8AFAADB21BF8011B2B
:10166000019103A8FEF718FEBAFBF4F304FB13A3E1
:101670000AF1010A9BB21FFA8AFA019908F80310CD
:101680005545EBD1B5FBF4F304FB1355ADB29DF812
:101690000C3008F8053006F10D039BB2B3FBF4F2F1
:1016A00004FB12339BB29DF80D2008F8032006F1CD
:1016B0000E033B800A4B23F819600A4B0E2203F8F5
:1016C0000920094A13880133138005B0BDE8F08F63
:1016D000CC00002088070020540600208850000815
:1016E000AC0700208C07002082070020560600204F
:1016F000490600201FB50C4C40F2116002F044FD79
:10170000204602F02BFE0023642269462046CDE9E4
:10171000003302928DF80C3002F074FE204602F085
:1017200001FF04B010BD00BF0044014010B50D4CD6
:1017300040F2125002F028FD20464FF4807303223D
:10174000002102F05FFB2046002202214FF480734B
:1017500002F036FB20464FF48072BDE810400221B3
:1017600002F08BBB0004004830B54FF4A06085B098
:1017700002F00AFD1B4B1C4A1A601C4B1C4C0FCB81
:101780006D4685E80F002A462046002102F0E8FE5B
:1017900000221146204603F017F82046602200215F
:1017A00002F0ECFF08222046002103F01BF820463F
:1017B000012102F0CBFE4FF48071204602F0C2FE00
:1017C000204602F0AFFE012211460A2002F08EFCF4
:1017D000022002F0F1F90221084602F04FFA05B0AA
:1017E00030BD00BFA8000020344401408C500008E8
:1017F000004401401FB54FF4E06002F0C5FC4FF01B
:10180000804002F0ABFD104B104A1B68B3FBF2F3B3
:10181000013B0022B3F5803F28BF1346ADF80030EE
:1018200069464FF6FE734FF08040ADF802200192FA
:1018300002938DF80C2002F0E5FD4FF0804002F09D
:1018400071FE05B05DF804FBD400002000BD010569
:1018500007B540F2115002F097FC0123032200214A
:101860004FF0904002F0CEFA0123194600224FF0CB
:10187000904002F0A5FA01214FF0904002F0FBFAEF
:101880004FF4803300216A464FF08040CDE90031AB
:1018900002F0F4FF4FF0804002F044FE03B05DF828
:1018A00004FB0000074B93ED007A074BD3ED007A61
:1018B000064BB4EEE77AF1EE10FACCBF012200221B
:1018C0001A7070472805002024050020A70000207A
:1018D00070B502214FF0804002F02BFE002800F08E
:1018E000BE806C4E00214FF08040358803F05BF8DD
:1018F00001230446032200214FF0904002F082FAB7
:101900000123194600224FF0904002F059FA0121BC
:101910004FF0904002F0AFFA02214FF0804002F009
:101920000EFE72B60123002202214FF0904002F019
:1019300047FA0123032200214FF0904002F062FA9F
:10194000012202214FF0904002F097FA4FF08043BD
:101950005B6AB3F5803F28BF0023338062B64E4BED
:101960004E484F494F4A1B78D0ED007A91ED006AFE
:10197000D2ED004A002B73D0B4F5803F28BF00247D
:10198000A4B2A5426BD0F5EEC07AF1EE10FA66DD96
:10199000641BA4B207EE104AB8EE477A424B9FEDA3
:1019A000435A93ED004A424D424C77EE675A65EE3A
:1019B000A56AF0EEE55A66EE856A9FED3F5AE4EEC1
:1019C000056AC3ED006A3D4BC3ED005AC6EEA75A47
:1019D000DFED3B6AF4EEE65AF1EE10FA04DDF4EEC8
:1019E000C77AF1EE10FA22D400232B70DFED356AAE
:1019F000354D9FED365AF4EEE65AF1EE10FADFED72
:101A0000345A1DD52B780133DBB2642B2B7019D1DE
:101A10000023237066EE056AE7EE256AC1ED006AD1
:101A200067EE857AE7EE257AC0ED007A17E02B782D
:101A30000133DBB2642B2B7004BF01232370D5E785
:101A400000232B702378002BE4D067EE256A214B0E
:101A5000E4EE856A1B78C2ED006A002BE0D170BD10
:101A6000B4F5803F28BF00249FED1B7ADFED1B6A91
:101A7000641BA4B267EE877A07EE104AB8EE477A85
:101A8000E7EE267AC0ED007AC1ED007AC2ED007A69
:101A9000E5E700BF300500201E0500202C050020D2
:101AA0002805002024050020200500200AD7233C1B
:101AB0001D0500201F050020A4707D3F1805002093
:101AC000CDCCCC3ECDCC4C3E1C05002072F97F3FE6
:101AD00017B7D138A700002077BE7F3F6F12833A37
:101AE0001FB540F2017002F04FFB114802F036FCC6
:101AF000104B114A1B68B3FBF2F3013B0022B3F514
:101B0000803F28BF1346ADF8003069464FF6FE739C
:101B10000748ADF80220019202938DF80C2002F0E4
:101B200071FC034802F0FEFC05B05DF804FB00BF49
:101B300000040040D400002000BD010513B5134C83
:101B400040F2125002F020FB204602230322002123
:101B500002F058F9022300222046012102F030F958
:101B60002046022102F087F904F1784400234FF463
:101B70008032CDE9002303216A46204602F07EFE32
:101B8000204602F0CFFC02B010BD00BF00040048A8
:101B9000074B93ED007A074BD3ED007A064BB4EE7A
:101BA000E77AF1EE10FACCBF012200221A707047DA
:101BB0000C05002008050020A600002070B56C4828
:101BC000102102F0B6FC002800F0B780694E68488A
:101BD0003588032102F0E7FE02230446032266480B
:101BE000002102F00FF9022300226348012102F0D4
:101BF000E7F86148022102F03EF95D48102102F049
:101C00009EFC72B6022319465B48002202F0D8F807
:101C1000022359480322002102F0F4F85648022218
:101C2000012102F02AF94FF08043D3F82434B3F5B0
:101C3000803F28BF0023338062B6504B5048514943
:101C4000514A1B78D0ED007A91ED006AD2ED004A3E
:101C5000002B73D0B4F5803F28BF0024A4B2A54266
:101C60006BD0F5EEC07AF1EE10FA66DD641BA4B21B
:101C700007EE104AB8EE477A444B9FED455A93ED74
:101C8000004A444D444C77EE675A65EEA56AF0EE83
:101C9000E55A66EE856A9FED415AE4EE056AC3EDAA
:101CA000006A3F4BC3ED005AC6EEA75ADFED3D6A0E
:101CB000F4EEE65AF1EE10FA04DDF4EEC77AF1EE36
:101CC00010FA22D400232B70DFED376A374D9FEDD9
:101CD000385AF4EEE65AF1EE10FADFED365A1DD519
:101CE0002B780133DBB2642B2B7019D100232370C6
:101CF00066EE056AE7EE256AC1ED006A67EE857A51
:101D0000E7EE257AC0ED007A17E02B780133DBB2DD
:101D1000642B2B7004BF01232370D5E700232B70A5
:101D20002378002BE4D067EE256A234BE4EE856A26
:101D30001B78C2ED006A002BE0D170BDB4F5803F86
:101D400028BF00249FED1D7ADFED1D6A641BA4B23D
:101D500067EE877A07EE104AB8EE477AE7EE267A02
:101D6000C0ED007AC1ED007AC2ED007AE5E700BF70
:101D70000004004014050020000400480205002073
:101D8000100500200C050020080500200405002097
:101D90000AD7233C0105002003050020A4707D3FE5
:101DA000FC040020CDCCCC3ECDCC4C3E0005002028
:101DB00072F97F3F17B7D138A600002077BE7F3F6A
:101DC0006F12833A13B540F2115002F0DDF940234F
:101DD000032200214FF0904002F014F80D4C4023F4
:101DE000002201214FF0904001F0EAFF40214FF026
:101DF000904002F040F84FF4803300216A462046BC
:101E0000CDE9003102F03AFD204602F08BFB02B032
:101E100010BD00BF00040040074B93ED007A074B54
:101E2000D3ED007A064BB4EEE77AF1EE10FACCBFB0
:101E3000012200221A707047F0040020EC040020F8
:101E4000A500002070B56F48022102F072FB002847
:101E500000F0BD806C4E6B483588002102F0A3FD78
:101E600040230446032200214FF0904001F0CAFFB6
:101E70004023002201214FF0904001F0A1FF4021BA
:101E80004FF0904001F0F7FF5E48022102F057FB4F
:101E900072B64023002202214FF0904001F090FFE3
:101EA0004023032200214FF0904001F0ABFF40227D
:101EB00001214FF0904001F0E0FF4FF08043D3F854
:101EC0002434B3F5803F28BF0023338062B64F4BE4
:101ED0004F485049504A1B78D0ED007A91ED006A86
:101EE000D2ED004A002B73D0B4F5803F28BF002408
:101EF000A4B2A5426BD0F5EEC07AF1EE10FA66DD21
:101F0000641BA4B207EE104AB8EE477A434B9FED2C
:101F1000445A93ED004A434D434C77EE675A65EEC1
:101F2000A56AF0EEE55A66EE856A9FED405AE4EE4A
:101F3000056AC3ED006A3E4BC3ED005AC6EEA75AD0
:101F4000DFED3C6AF4EEE65AF1EE10FA04DDF4EE51
:101F5000C77AF1EE10FA22D400232B70DFED366A37
:101F6000364D9FED375AF4EEE65AF1EE10FADFEDFA
:101F7000355A1DD52B780133DBB2642B2B7019D168
:101F80000023237066EE056AE7EE256AC1ED006A5C
:101F900067EE857AE7EE257AC0ED007A17E02B78B8
:101FA0000133DBB2642B2B7004BF01232370D5E710
:101FB00000232B702378002BE4D067EE256A224B98
:101FC000E4EE856A1B78C2ED006A002BE0D170BD9B
:101FD000B4F5803F28BF00249FED1C7ADFED1C6A1A
:101FE000641BA4B267EE877A07EE104AB8EE477A10
:101FF000E7EE267AC0ED007AC1ED007AC2ED007AF4
:10200000E5E700BF00040040F8040020E6040020DB
:10201000F4040020F0040020EC040020E804002078
:102020000AD7233CE5040020E7040020A4707D3F8C
:10203000E0040020CDCCCC3ECDCC4C3EE4040020CE
:1020400072F97F3F17B7D138A500002077BE7F3FD8
:102050006F12833A13B540F2115002F095F88023C5
:10206000032200214FF0904001F0CCFE802300229B
:1020700001214FF0904001F0A3FE0A4C80214FF067
:10208000904001F0F8FE00234FF48032CDE90023A8
:1020900001216A46204602F0F1FB204602F042FA96
:1020A00002B010BD00040040074B93ED007A074BCF
:1020B000D3ED007A064BB4EEE77AF1EE10FACCBF1E
:1020C000012200221A707047D4040020D00400209E
:1020D000A400002070B56F48042102F02AFA0028FD
:1020E00000F0BD806C4E6B483588012102F05BFC2E
:1020F00080230446032200214FF0904001F082FE2D
:102100008023002201214FF0904001F059FE8021F0
:102110004FF0904001F0AFFE5E48042102F00FFA4C
:1021200072B68023002202214FF0904001F048FE59
:102130008023032200214FF0904001F063FE8022B3
:1021400001214FF0904001F098FE4FF08043D3F80A
:102150002434B3F5803F28BF0023338062B64F4B51
:102160004F485049504A1B78D0ED007A91ED006AF3
:10217000D2ED004A002B73D0B4F5803F28BF002475
:10218000A4B2A5426BD0F5EEC07AF1EE10FA66DD8E
:10219000641BA4B207EE104AB8EE477A434B9FED9A
:1021A000445A93ED004A434D434C77EE675A65EE2F
:1021B000A56AF0EEE55A66EE856A9FED405AE4EEB8
:1021C000056AC3ED006A3E4BC3ED005AC6EEA75A3E
:1021D000DFED3C6AF4EEE65AF1EE10FA04DDF4EEBF
:1021E000C77AF1EE10FA22D400232B70DFED366AA5
:1021F000364D9FED375AF4EEE65AF1EE10FADFED68
:10220000355A1DD52B780133DBB2642B2B7019D1D5
:102210000023237066EE056AE7EE256AC1ED006AC9
:1022200067EE857AE7EE257AC0ED007A17E02B7825
:102230000133DBB2642B2B7004BF01232370D5E77D
:1022400000232B702378002BE4D067EE256A224B05
:10225000E4EE856A1B78C2ED006A002BE0D170BD08
:10226000B4F5803F28BF00249FED1C7ADFED1C6A87
:10227000641BA4B267EE877A07EE104AB8EE477A7D
:10228000E7EE267AC0ED007AC1ED007AC2ED007A61
:10229000E5E700BF00040040DC040020CA04002081
:1022A000D8040020D4040020D0040020CC04002056
:1022B0000AD7233CC9040020CB040020A4707D3F32
:1022C000C4040020CDCCCC3ECDCC4C3EC804002074
:1022D00072F97F3F17B7D138A400002077BE7F3F47
:1022E0006F12833A124B1A78124B197891421EBF23
:1022F0001A7000221A72104A197B127891421EBF7E
:102300001A7300221A750D4A197E127891421EBF67
:102310001A76002283F82020094A93F824101278B4
:1023200091421EBF83F82420002283F82C2070479E
:102330001F0500209004002003050020E704002072
:10234000CB0400202DE9F04F4A4BDFF84C911B786D
:102350000C2203F0030802FB08F209EB020187B02C
:10236000097A019300297ED1434D19F80220AA7001
:10237000012129704144697040490A88002A6CD0C3
:102380003F4C404BD4F800B01F88DFF810A1013A51
:102390000A800BF10101484200F01F0001F01F010B
:1023A00058BF4142216038490988ADF814104FF4F4
:1023B000967405A8A521FDF76FFFB7FBF4F104FBA8
:1023C000117189B2A5260AF801600321FDF764FFA7
:1023D000791C89B2B1FBF4F004FB101189B203201F
:1023E0002B46BE1C7D1D0AF80100B6B2ADB213F833
:1023F000011B05A8CDE90213FDF74EFFB6FBF4F073
:1024000004FB1060013680B2B6B202990AF80010DF
:10241000B542039BEBD1B5FBF4F104FB1155ADB212
:102420009DF814100AF80510B91D89B2B1FBF4F03B
:1024300004FB101189B29DF81500124B0AF8010037
:10244000F91D1980114921F81B701149072001F865
:102450000B0010490A8801320A800C2202FB0899FD
:10246000012389F80830019B024A0133137007B039
:10247000BDE8F08FC00400208A040020CC000020BA
:10248000880700205406002088500008AC07002070
:102490008C070020820700209004002056060020B0
:1024A000024A137883F0010313707047C4030020BD
:1024B0002DE9FF47DFF85481494F4A4CDFF850A11E
:1024C00018F8013BABBBA4F1300501F017FC28461E
:1024D00001F040FC444B1B88ADF80C30B94659F86C
:1024E000046B03A8C6F30741FDF7D6FEC6F3072128
:1024F000FDF7D2FEF1B2FDF7CFFE01F0FFFB28465B
:102500003146043501F042FCA542E8D19DF80C505B
:1025100001F0F4FB2946204601F038FC9DF80D50EF
:1025200001F0ECFB2946201D01F030FC012308F8E6
:10253000013C04F58064544507F13007C0D12B4DB0
:102540002C78002C48D101F0D9FB294801F002FC7D
:10255000254B1B88ADF80C30264BD3ED007A264B6B
:10256000B7EE007AF4EEC77AF1EE10FA1E780ED8C4
:102570009FED227A67EE877AF5EEC07AF1EE10FAD7
:10258000A2BFFCEEE77ACDED017A9DF8044003A8E6
:102590002146FDF781FE3146FDF77EFE01F0AEFBE0
:1025A0002146134801F0F2FB01F0A8FB3146144824
:1025B00001F0ECFB9DF80C4001F0A0FB2146114816
:1025C00001F0E4FB9DF80D4001F098FB0E48214618
:1025D00001F0DCFB01232B7004B0BDE8F08700BFE5
:1025E0000403002030C00008885000085900002073
:1025F00000D000086C0000207000002000007F4325
:1026000004D0000808D000080CD000085A000020B0
:1026100030D000082DE9F04F724B1B7885B0002BAD
:1026200000F0D880704B714A1D681388002B00F0B1
:10263000C5806F49DFF8D481D1F800B0013B138029
:102640000BF101035A4202F01F0203F01F0358BFAF
:1026500053420B60674B1E88674B4FF4967403A878
:102660001B88ADF80C30A521FDF716FEB6FBF4F380
:1026700004FB13639BB2A522272108F80320FDF772
:102680000BFE731C9BB2B3FBF4F204FB12339BB240
:102690002722E02108F80320FDF7FEFD691CB31C8A
:1026A000B1F5807F9BB228BF0021B3FBF4F204FB9D
:1026B00012339BB2CFB2E022394608F80320FDF76F
:1026C000EBFDF31C9BB2B3FBF4F204FB12339BB2A1
:1026D000012108F80370FDF7DFFD331D9BB2B3FB4A
:1026E000F4F204FB12339BB2012208F80320434AA0
:1026F0003023771D06F1290903FB0522BFB21FFA1B
:1027000089F952F804AB019203A8CAF3074100917A
:10271000FDF7C2FDB7FBF4FC04FB1C7C1FFA8CFC2C
:10272000009908F80C10CAF307210091FDF7B4FDD9
:1027300007F1010C1FFA8CFCBCFBF4FE04FB1ECC61
:102740001FFA8CFC009908F80C105FFA8AF10091CE
:10275000FDF7A2FDBB1C9BB20337B3FBF4F004FBF7
:1027600010339BB2BFB2009908F80310B945019A23
:10277000C7D1B9FBF4F304FB13991FFA89F99DF84B
:102780000C3008F8093006F12A039BB2B3FBF4F2CF
:1027900004FB12339BB29DF80D2008F80320154B63
:1027A00006F12B021A80164B23F81B60154B2B22C7
:1027B00003F80B20144A138801331380022D0CDC1C
:1027C00001356B4203F0030305F0030558BF5D427A
:1027D000054B1D6005B0BDE8F08F024A0023137061
:1027E000F8E700BF5800002000030020CC000020C4
:1027F00088070020540600208850000804030020A9
:10280000AC0700208C07002082070020560600201D
:102810002DE9F347DFF8F480344D354CB8F800A0CB
:10282000ADF804A0A4F13007A94657F8046B49F8A5
:10283000046B01A8C6F30741FDF72EFDC6F307217F
:10284000FDF72AFDF1B2FDF727FDA742EDD19DF876
:102850000400216863689DF80520884208D0254956
:102860002A46002301330C2B42F8041BFAD101E065
:102870009A42F4D1204B04F580649C4205F1300566
:10288000CED1B8F80030ADF804301C4BD3E9004588
:10289000B4F5807F28BF0024E4B2214601A8D3E923
:1028A0000276FDF7F9FCB5F5807F28BF0025EDB273
:1028B0002946FDF7F1FC9DF80430BB4213D19DF889
:1028C0000530B3420FD107EE904A9FED0D7A0D4BC4
:1028D000F8EE677A67EE877AC3ED007A6B1E5D4289
:1028E0005D41094B1D7002B0BDE8F0870403002074
:1028F00030C000087777770030D0000800D000089B
:102900008180803B6C00002070000020885000080F
:1029100008B540F2115001F037FC4FF480630322F8
:1029200000214FF0904001F06DFA4FF480630022D7
:1029300002214FF0904001F043FABDE808404FF407
:10294000806204214FF0904001F097BA08B540F240
:10295000115001F019FC4FF40073032200214FF0D5
:10296000904001F04FFA4FF40073002202214FF023
:10297000904001F025FABDE808404FF400720421B0
:102980004FF0904001F079BA10B50F4C40F215703D
:1029900001F0FAFB20460D49002201F09FFA0023C6
:1029A0001A461946204601F01BFB204601F037FB72
:1029B00000221146172001F099FBBDE810400122CA
:1029C0000021202001F092BB00540040801A060034
:1029D00010B5124B124C1A78124B1A70124A01237E
:1029E0001360124A80211170114A1370114B00229A
:1029F000204640F209111A8001F025FB20464FF4D1
:102A0000857101F020FB20464FF4847101F01BFB1F
:102A10002046BDE8104001F007BB00BF04000020C5
:102A200000540040EE020020E8020020EF020020E7
:102A3000F0020020EC02002010B5124B124C1A7864
:102A4000124B1A70124A01231360124A802111702E
:102A5000114A1370114B0022204640F209111A80CE
:102A600001F0F1FA20464FF4857101F0ECFA2046AE
:102A70004FF4847101F0E7FA2046BDE8104001F000
:102A8000D3BA00BF0200002000540040EE02002034
:102A9000E8020020EF020020F0020020EC020020FB
:102AA000134A002310B51370124A134C022111600F
:102AB000124A80211170124A1370124A20464FF4B4
:102AC0008061138001F097FA204640F2091101F06D
:102AD000BAFA20464FF4857101F0B5FA20464FF45A
:102AE000847101F0B0FA2046BDE8104001F09CBAB4
:102AF000E1020020E802002000540040EF02002024
:102B0000F0020020EC0200202DE9F04F4F4B1B7823
:102B100085B0002B00F096804D4ADFED4E6AC2234F
:102B200013704D4B1B885BBA9BB207EE903AB8EE20
:102B3000677AF9EE087AE7EE267A9FED487A67EE33
:102B4000877AF5EEC07AF1EE10FAA9BFFCEEE77ACB
:102B5000002317EE903A9BB253701B0A9370404AC1
:102B60001388002B6ED03F493F4FD1F800903E882C
:102B7000DFF80881DFF8D8B0013B138009F10103C9
:102B80005A4202F01F0203F01F0358BF53420B606A
:102B9000364B4FF496741B88ADF80C30A52103A872
:102BA000FDF77AFBB6FBF4F304FB13639BB2A5229B
:102BB000032108F80320FDF76FFB731C9BB2B3FBE6
:102BC000F4F204FB12339BB2032206F1020A751DD4
:102BD00008F803201FFA8AFAADB21BF8011B019115
:102BE00003A8FDF759FBBAFBF4F304FB13A30AF1A6
:102BF000010A9BB21FFA8AFA019908F80310554599
:102C0000EBD1B5FBF4F304FB1355ADB29DF80C30DA
:102C100008F80530B31D9BB2B3FBF4F204FB12338A
:102C20009BB29DF80D2008F80320F31D3B80104B4C
:102C300023F819600F4B072203F809200E4A138866
:102C40000133138005B0BDE8F08F00BFE102002022
:102C5000E20200200000FA3AE50200200000C8422B
:102C6000CC0000208807002054060020885000086F
:102C7000AC0700208C0700208207002056060020A9
:102C800010B5124B124C1A78124B1A70124A0123CB
:102C90001360124A80211170114A1370114B0022E7
:102CA000204640F209111A8001F0CDF920464FF478
:102CB000857101F0C8F920464FF4847101F0C3F921
:102CC0002046BDE8104001F0AFB900BF030000206E
:102CD00000540040EE020020E8020020EF02002035
:102CE000F0020020EC0200202DE9F04F4F4B1B7842
:102CF00085B0002B00F096804D4ADFED4E6AC02370
:102D000013704D4B1B885BBA9BB207EE903AB8EE3E
:102D1000677ADFED4A7AE7EE267A9FED497A67EE29
:102D2000877AF5EEC07AF1EE10FAA9BFFCEEE77AE9
:102D3000002317EE903A9BB253701B0A9370414ADE
:102D40001388002B6ED04049404FD1F800903E8848
:102D5000DFF80C81DFF8D8B0013B138009F10103E3
:102D60005A4202F01F0203F01F0358BF53420B6088
:102D7000374B4FF496741B88ADF80C30A52103A88F
:102D8000FDF78AFAB6FBF4F304FB13639BB2A522AA
:102D9000032108F80320FDF77FFA731C9BB2B3FBF5
:102DA000F4F204FB12339BB2032206F1020A751DF2
:102DB00008F803201FFA8AFAADB21BF8011B019133
:102DC00003A8FDF769FABAFBF4F304FB13A30AF1B5
:102DD000010A9BB21FFA8AFA019908F803105545B7
:102DE000EBD1B5FBF4F304FB1355ADB29DF80C30F9
:102DF00008F80530B31D9BB2B3FBF4F204FB1233A9
:102E00009BB29DF80D2008F80320F31D3B80114B69
:102E100023F81960104B072203F809200F4A138882
:102E20000133138005B0BDE8F08F00BFE102002040
:102E3000E202002052B82F3BE50200201F853BC272
:102E40000000C842CC000020880700205406002063
:102E500088500008AC0700208C0700208207002063
:102E600056060020494B4A491B784A4870B5002B4A
:102E70003DD001F0FDF840B16FF00102464B4548EE
:102E80001978BDE8704001F0C2B84449414801F0EA
:102E9000EFF828B141493F48BDE8704001F012B950
:102EA0003F493C4801F0E4F860B13E4D3E4B2C8870
:102EB0001B68A34207DD3D4B36481978013401F009
:102EC000BDF82C8070BD334801F0B3F831484FF4A1
:102ED000847101F0C2F82F484FF4857101F0BDF8FC
:102EE000BDE870402B4840F2091101F0B6B801F07E
:102EF000BFF8044608B10122C0E7284925482A4EF8
:102F000001F0B6F8054638B13368012BC2D121482B
:102F1000214601F070F8BDE725491E48346801F0EC
:102F2000A7F80028CED0022C16D11A48294601F065
:102F300062F81C4D1748013C34602C8801F080F881
:102F400004F001031B4A1A49D054012C04BF1A4B48
:102F50001C7001342C809EE7012CEAD10D4801F051
:102F600068F829460B4801F04CF80A484FF4847180
:102F700001F073F807484FF4857101F06EF80548C9
:102F800040F2091101F069F8D3E700BFF002002018
:102F90000901000500540040EF020020090101056D
:102FA00009010705EC020020E8020020EE020020E3
:102FB00009010605E5020020E102002010B50F4CD2
:102FC0000F49204601F07EF820460E4901F07AF8BC
:102FD00020460D4901F076F820460C4901F072F8C0
:102FE00020460B4901F06EF820460A4901F06AF8C4
:102FF00020460949BDE8104001F064B80054004083
:1030000008010A0508010F0508010E0508010B0556
:10301000080109050801080508010C0510B5094C4F
:1030200040F2125001F0B0F8204620230322002184
:1030300000F0E8FE20462023BDE8104000220121D8
:1030400000F0BEBE000400481B490B78F0B47BB111
:103050001A4B1B4A1B6812689B1A1A4A1278934231
:1030600028D900230B70F0BC1748202100F003BFC3
:103070001648174E1A460C2505FB02F410F8017B82
:10308000345DABB90CB187F001030132042A03F0BF
:10309000010300F8014CEFD163B101230B70074B22
:1030A00009481A68064BF0BC20211A6000F0E1BE06
:1030B0000123EAE7F0BC7047E00200209C0A0020F0
:1030C000D80200200100002000040048DC0200209B
:1030D0009004002037B5164C237833BB00F00EFE69
:1030E000144800F037FE144B1B88ADF80430134B26
:1030F0001D7801A82946FDF7CFF800F0FFFD29460D
:103100000C4800F043FE9DF8045000F0F7FD2946FE
:103110000B4800F03BFE9DF8055000F0EFFD09481C
:10312000294600F033FE0123237003B030BD00BFF9
:103130000000002000BC00088850000801000020AA
:1031400004BC000808BC0008104B73B5D3F8004C51
:10315000D3F8046CD3F8085C0D4BB4F5807F28BF1E
:103160000024E4B21B88ADF80430214601A8FDF725
:1031700093F89DF80430B34205D19DF80530AB4279
:1031800004BF044B1C7002B070BD00BF00B000084B
:1031900088500008010000202DE9F743DFF838913E
:1031A000454D0023F42289F8002089F801301A46A1
:1031B00019460C24012604FB01F0285C20B106FA14
:1031C00001F31A43D2B2034601310429F3D10BB102
:1031D00089F80120394A1388002B69D03849DFF873
:1031E000FC800F68B8F80050364E013B13807B1C02
:1031F0005A4202F01F0203F01F0358BF53420B60F4
:10320000314B4FF4967401A81B88ADF80430A5210A
:10321000FDF742F8B5FBF4F304FB13539BB2A52270
:103220000221F254FDF738F86B1C9BB2B3FBF4F2A9
:1032300004FB12339BB20222F421F254FDF72CF866
:10324000AB1C9BB299F80190B3FBF4F204FB123370
:103250009BB2F4224946F254FDF71EF8EB1C9BB2D8
:10326000B3FBF4F204FB12339BB206F803902B1D60
:103270009BB2B3FBF4F204FB12339BB29DF8042023
:10328000F2546B1D9BB2B3FBF4F204FB12339BB2FE
:103290009DF80520F254AB1DA8F800300B4B23F825
:1032A00017500B4B0622DA550A4A13880133138054
:1032B00003B0BDE8F08300BF90040020CC000020E4
:1032C000880700205606002088500008AC07002020
:1032D0008C07002082070020640400205406002090
:1032E0002DE9F84FA54BDFEDA67A93F800C0A54B6A
:1032F000A54D93F800E0A54BA54CD3ED005AA54B86
:103300009FEDA56A1B68DFF8C882DFF8C892A34862
:10331000302265EEA75A02FB03442F4600220C26FA
:1033200055F8041BBCF1000F72D018F80230002BC6
:103330006ED019F8023013B1BEF1000F6FD054F8FF
:103340002230C3F3074A07EE10AAC3F3072ADBB201
:1033500006EE90AA07EE903AB8EEC77AF8EEE66A63
:10336000F8EEE77A27EE257A66EEA56A67EEA57A8B
:10337000013206FB01010C2A81ED007AC1ED016AE0
:10338000C1ED027ACCD1DFF850C29CF80060002E6B
:1033900000F0D080824D9FED836A2968782391FBED
:1033A000F3F203FB1212804B03EB8203D3ED006AAE
:1033B000FCEEE67A4FF03C0E17EE903A9BB2B3FB70
:1033C000FEF40EFB1433B7EE007A9BB237EE667A4A
:1033D00007EE903A27EE267AF8EE677A4FF0060865
:1033E00067EE867A36EEC76AB4FBF8F267EE867A45
:1033F00008FB124292B237EE276AFAB1531E76EEFC
:10340000E77A032B00F28E80DFE803F08F107F88CD
:10341000B0EE467AF0EE466AF0EE467AA8E79FED07
:103420005E7AF0EE476AF0EE477AA1E7F0EE667A50
:10343000F0EE476AB0EE467AB0EE676A782904D1BA
:103440005A4B1B780BB98CF8003001312960DFF83A
:103450008CC15749DFF8888100220C244FF07E5B35
:1034600004FB02F35CF8049B18F803A08E460025C9
:103470004D4566DB0132042A01F11001F0D14D4BBC
:10348000464A9FED4D7A00201C46D2ED017A67EE48
:10349000877A0130FCEEE77A0C2817EE901AD2ED0D
:1034A000007A197067EE877A02F10C02FCEEE77A77
:1034B00003F1030317EE901A52ED017A03F8021C90
:1034C00067EE877AFCEEE77A17EE901A03F8011C94
:1034D000DBD13A4B21783A4C01221A80394A3A4BD7
:1034E00002EBC10052F831201A60426837485A6036
:1034F0000021E36001F01BF82146022000F07AFB76
:10350000BDE8F84F022000F061BBB0EE676AF0EE54
:10351000667AF0EE476AB0EE677A8FE7F0EE667A89
:10352000F0EE466AB0EE476AF5E7B0EE666AF0EE96
:10353000676A83E79FED187AB0EE476AF0EE476A54
:1035400085E75EF8043B57F82330BAF1000F09D045
:1035500004FB0303C3F800B0C3F804B0C3F808B019
:10356000013585E7002EFBD004FB0303C3ED006AA1
:1035700083ED016A83ED027AF2E700BF700000205C
:103580008180803BC4030020740000206C00002078
:1035900004030020FC02002000000000D4030020EF
:1035A000F40200208988883CB4500008F80200200A
:1035B000080000206604002000007F433205002040
:1035C000A800002094520008340500200044014067
:1035D0005E000020C50300200500002048000020F8
:1035E00090040020B34BDFEDB47A93F800C0B34BE6
:1035F0009FEDB36A2DE9F74F93F800E0B14BB24D60
:10360000D3ED005AB14BB24C1B68DFF8FC82DFF8F7
:10361000FC92B048302265EEA75A02FB03442F46C5
:1036200000220C2655F8041BBCF1000F72D018F8CC
:103630000230002B6ED019F8023013B1BEF1000F2A
:103640006FD054F82230C3F3074A07EE10AAC3F331
:10365000072ADBB206EE90AA07EE903AB8EEC77AD8
:10366000F8EEE66AF8EEE77A27EE257A66EEA56AC6
:1036700067EEA57A013206FB01010C2A81ED007A82
:10368000C1ED016AC1ED027ACCD1DFF884C29CF8A9
:103690000060002E00F0E5808F4D9FED906A296854
:1036A000782391FBF3F203FB12128D4B03EB8203A1
:1036B000D3ED006AFCEEE67A4FF03C0E17EE903A3E
:1036C0009BB2B3FBFEF40EFB1433B7EE007A9BB251
:1036D00037EE667A07EE903A27EE267AF8EE677AAA
:1036E0004FF0060867EE867A36EEC76AB4FBF8F24A
:1036F00067EE867A08FB124292B237EE276AFAB179
:10370000531E76EEE77A032B00F2A380DFE803F086
:10371000A410949DB0EE467AF0EE466AF0EE467A3A
:10372000A8E79FED677AF0EE476AF0EE477AA1E7E7
:10373000F0EE667AF0EE476AB0EE467AB0EE676A6F
:10374000782904D1674B1B780BB98CF80030013114
:103750002960DFF8C0C16449DFF8BC8100220C2475
:103760004FF07E5B04FB02F35CF8049B18F803A0A7
:103770008E4600254D457BDB0132042A01F1100104
:10378000F0D15A4B5349DFED5A7A002216461F46B4
:1037900091ED017A93F8008093F801E093F802C06C
:1037A00027EE277ABCEEC77A8DED017A91ED007A8B
:1037B0009DF804501D7027EE277AA845BCEEC77A05
:1037C0008DED017A91ED027A9DF804405C7027EE50
:1037D000277ABCEEC77A8DED017A9DF804009870C7
:1037E00062D1A64560D1844518BF012201360C2E56
:1037F00003F1030301F10C01CAD1002A56D03D4B5D
:1038000039783D4C01221A803C4A3D4B02EBC10005
:1038100052F831201A6042683A485A600021E36049
:1038200000F085FE2146022000F0E4F9022003B0FA
:10383000BDE8F04F00F0CAB9B0EE676AF0EE667A04
:10384000F0EE476AB0EE677A7AE7F0EE667AF0EE6D
:10385000466AB0EE476AF5E7B0EE666AF0EE676A70
:103860006EE79FED177AB0EE476AF0EE476A70E7B1
:103870005EF8043B57F82330BAF1000F09D004FB7F
:103880000303C3F800B0C3F804B0C3F808B00135AF
:1038900070E7002EFBD004FB0303C3ED006A83ED49
:1038A000016A83ED027AF2E701229FE703B0BDE8E7
:1038B000F08F00BF700000208180803BC403002097
:1038C000000000006C00002074000020FC020020BA
:1038D00004030020D4030020F40200208988883CDF
:1038E000B4500008F8020020080000206604002000
:1038F00000007F4332050020A800002094520008F9
:1039000034050020004401405E000020C503002073
:10391000050000204800002090040020022170B51E
:10392000084600F0B5F908B3114D0121022000F05E
:10393000E3F92C88232C19D80E4A0F4B115D0F4A3E
:103940000F4E02EBC10052F831201A6042680D4858
:103950005A600021F36000F0EAFD3146022000F0D9
:1039600049F90134022000F031F92C8070BD00BF0C
:10397000320500206604002034050020945200081F
:10398000A80000200044014008B5FCF7FBFBFCF751
:1039900013FCFCF73FFCFCF758FCFCF771FCFCF750
:1039A00063FDFDF7A7FEFDF7C1FEFDF7DDFEFDF7A8
:1039B00021FFFDF74DFFFEF793F8FEF7BFF8FEF786
:1039C00001FAFEF747FBFEF723FFFEF7A1FFFEF724
:1039D000BDFFFEF7D9FFFFF721FBFFF7B5FBBDE801
:1039E0000840FFF77DBC00002DE9F04F00258BB0AB
:1039F000CDE90855CDE90655CDE90455CDE9025587
:103A0000A9462E46A8462F460195634B1C68019B8C
:103A1000E21A42F20F739A4202D9FDF7DDFD0194DA
:103A2000A4EB070A41F287329245A4EB080314D8AD
:103A3000B3F5FA7F2CD3FDF735FFFEF7A9F8FEF7B3
:103A4000EBF9FEF731FBA31B092B02D9FEF74AFC69
:103A50002646FEF725FDA04620E0504ADFF848B193
:103A60004F4F50480121B3F5FA7F11700BD3FDF78A
:103A700019FF8BF80010FEF78BF83970FEF7CCF9C0
:103A800027460170DDE739708BF80010017027467A
:103A9000A31B092B02D9FEF725FC2646029BA4EBAB
:103AA000030BBBF57A7F02D3FEF702FD0294039B62
:103AB000E31A312B02D9FEF7ADFD0394049BE21A01
:103AC00043F697239A4202D9FEF782FF0494059B9E
:103AD000E21A43F6A6239A4204D9FEF7ADFFA4F1F9
:103AE0000F030593069BE21A43F6C4239A4204D9B6
:103AF000FEF7D6FFA4F12D030693079BE21A43F6C7
:103B0000C5239A4204D9FEF7FFFFA4F12E030793C1
:103B1000089BE21A44F294239A4204D9FFF7B0F8C2
:103B2000A4F2FD730893099BE21A44F2E9239A4236
:103B300004D9FEF7B5FFA4F652030993A4EB0902DA
:103B400044F2EA239A4203D9FFF7CEF8A4F65309C8
:103B5000BBF57A7F01D3FFF7BDFA41F287339A456F
:103B600001D9FFF719FB631B202B02D9FFF73AFDA0
:103B70002546FCF7C7FCFDF7A9FCFDF707FDFDF79F
:103B8000A7FEFEF71BF8FEF75DF9FEF7A3FAFEF7B6
:103B9000D9FBFFF759FA38E79C0A00201E050020E0
:103BA000E6040020CA0400200205002008B5FFF743
:103BB000EBFEFFF719FF00001423034A5843835814
:103BC00023F0200383507047080002401423034A67
:103BD0005843835843F00103835070470800024064
:103BE0001423034A5843835823F00103835070473A
:103BF0000800024038B50446FFF7F2FF142303FB28
:103C000004F0184B0A68C2500433CA68C250083B1B
:103C10000A8BC250043B0D694A68C4582A43CD69D7
:103C200024F47C542A432243C2500A7A012AC258FF
:103C30000CBF42F0400222F04002C2500A7D012A2D
:103C4000C2580CBF42F0800222F08002C2504A7D6E
:103C500022B9C25822F01002C25038BDC25842F0F8
:103C60001002F9E710000240034B80005A688140BF
:103C700011435960704700BF000002401423034AFB
:103C8000584383580B438350704700BF08000240DD
:103C9000042913D008291DD0022927D1144B8200F2
:103CA0001B68914019401423124A4343985800F06E
:103CB0000200D9B1003818BF012070470C4B8200B8
:103CC0001B689140194014230A4A4343985800F056
:103CD0000400EEE7064B82001B6891401940142354
:103CE0005843044BC05800F00800E2E7002070473A
:103CF0000000024008000240FFF7B6BF044B1A69FB
:103D0000120641BF034A5A6002F188325A60704776
:103D10000020024023016745074BDA68D10707D42A
:103D2000DA68D20606D4D868C0F380004000704735
:103D300001207047032070470020024010B5044660
:103D4000FFF7EAFF012804F1FF3402D1002CF7D17C
:103D5000042010BD38B505464FF47020FFF7EEFF84
:103D600088B9094C236943F0020323616561236923
:103D700043F0400323614FF47020FFF7DFFF236916
:103D800023F00203236138BD0020024070B50546D0
:103D90004FF470200E46FFF7D1FF68B9074C236936
:103DA00043F0010323614FF470202E60FFF7C6FF3C
:103DB000236923F00103236170BD00BF002002408E
:103DC0002DE9F0430568C46800264FF0010E4FF05E
:103DD00003080EFA06F71F420DD0770008FA07FC19
:103DE00001FA07F925EA0C0524EA0C0402FA07F7A0
:103DF00049EA05053C430136102EEAD10560C4604E
:103E0000BDE8F08301294168F0B50CBF194399431F
:103E10004FF6FF744160A242816815D1C46B002245
:103E200001274FF0030C07FA02F61E421CBF550093
:103E30000CFA05F502F101021CBF29433443102A94
:103E4000F1D18160C463F0BD002401274FF0030C61
:103E500007FA04F51D4207D065000CFA05F621EAC1
:103E6000060102FA05F529430134102CF0D18160D6
:103E7000E9E78161704781627047F0B5066A456A7B
:103E800000234FF0010C4FF00F0E0CFA03F4144214
:103E900007D09C000EFA04F726EA070601FA04F49C
:103EA00026430133082BF0D100234FF0010C4FF0D3
:103EB0000F0E03F108040CFA04F4144207D09C001E
:103EC0000EFA04F725EA070501FA04F42543013345
:103ED000082BEED106624562F0BD000070B50446C5
:103EE00002200D46164600F06FF9394A3949B0FBF9
:103EF000F1F1904294BF0B463F23626822F03F02EB
:103F00001A436260344A954216D801313E290DD9D0
:103F10003F2323626D00B0FBF5F5042DE36938BF44
:103F20000425C5F30B051D43E56170BD022901D8C9
:103F30000223EEE72162EDE7284A95424FF47A71B9
:103F400024D84FF496725343B3FBF1F30133236249
:103F5000A6B9E26922F4804205EB4503B0FBF3F316
:103F6000E261C3F30B020AB943F00103E26942F4D0
:103F70000042E261E2691343E361D6E7E269192393
:103F80006B4342F48042B0FBF3F3E9E778225343FA
:103F9000B3FBF1F30133236296B9E36923F4804361
:103FA00005EB4505B0FBF5F0E361E36943F400433D
:103FB000E361E3690343E3610123C4F89030B4E7AC
:103FC00019235D43E369B0FBF5F043F48043EBE76D
:103FD000BF4DC10340420F00A0860100801A0600B9
:103FE00010B50468C3F3090324F002040C4313431F
:103FF0000460836010BD036823F480630B43036097
:104000007047036823F400630B4303607047023278
:104010000CBF21F0010141F001010161704703680B
:1040200043F0010303607047036843F48073036047
:104030007047036843F40073036070470161704781
:104040000069C0B270478A0910B501F01F01145809
:1040500001238B402343135010BD10B58C0901225E
:10406000235801F01F018A4023EA0203235010BDA8
:10407000C1F3891330B501F01F0244681D580123B4
:1040800003FA02F22A408D0D2D58C1F3044003FAC1
:1040900000F00B4B21F48031994200EA050007D172
:1040A00052B114F4806409D0003818BF012030BD2B
:1040B0000028FCD0101EF8E71046F8E72046F6E787
:1040C00009010605084B994210B502D1436983697D
:1040D00010BD8C0D01222358C1F304418A4023EA0C
:1040E00002032350F4E700BF0901010510B51D4C80
:1040F000E36803F4E063B3F5A06F08D020D8B3F50C
:10410000407F26D0B3F5806F26D0174BE3600223A3
:104110001C46C4F10404A140C3F104040F23E3408E
:104120001340124A0B431B011118DBB281F8003314
:104130004109012300F01F00834042F8213010BDE7
:10414000B3F5C06F0BD0B3F5E06FDED104230024CC
:10415000DFE700230424DCE701230324D9E703235A
:104160000124D6E700ED00E00005FA0500E100E0DB
:1041700021F06041034B21F07F0101439960BFF3BF
:104180004F8F704700ED00E0830903F1804303F592
:10419000043300F01F001968012282400A431A60AC
:1041A0007047830903F1804303F5043300F01F00D7
:1041B0001A680121814022EA01021A607047FFF764
:1041C000E3BFFFF7EEBF0000F0B55D4B89B00546D9
:1041D00004AC03F110061F4618685968224603C252
:1041E0000833B3421446F7D1716838696B4603C38C
:1041F00003C354494B68C3F38103022B44D14A687B
:104200004868CB6A0601C2F383424FEAD37334D4C1
:10421000002B30D102324B68C86ADC0332D5CB6A3E
:10422000400003F00F0354BF474848480133B0FB38
:10423000F3F35A434B68C3F3031320336B4413F86F
:10424000104C4B68C3F3022320336B4422FA04F46E
:1042500013F8206C4B68C3F3C22320336B4413F86C
:10426000183C24FA03F0062D10D8DFE805F064129C
:10427000141017464F002132CDE70BB91132CAE7AF
:104280003132C8E7324BD4E72F4AD3E7002009B0D8
:10429000F0BD2046FBE724FA06F0F8E70B6BDA05E1
:1042A00007D40B6B2B4813F4803F2B4B08BF1846E9
:1042B000EDE74A680B6BC2F38132022A4FEAD373EF
:1042C0000FD0032A14D0012A06D00BB94008DEE72C
:1042D0000320B4FBF0F0DAE70BB98008D7E705203C
:1042E000F7E71BB90623B0FBF3F0D0E70720F0E7B0
:1042F0000BB9C008CBE70920EBE70B6B13F0400FBD
:1043000048F2120018BF4FF40040C0E70B6B9B0748
:10431000BDD00B6B03F00303012B0CD00B6B03F030
:104320000303022B09D00B6B074803F00303032B95
:1043300018BF0020ABE71046A9E74FF40040A6E7FE
:104340009C5000080010024000127A00006CDC0251
:1043500000093D00003FAB01809FD50008B5274B09
:1043600098421ED00BD8A3F5943398422AD003F577
:10437000E05398422DD0B0F1804F1CD008BD204BA7
:1043800098422DD003F58063984230D0A3F50063A6
:104390009842F3D14FF44470FFF711FF4FF444708B
:1043A00005E040F20B30FFF70AFF40F20B30BDE8AA
:1043B0000840FFF706BF4FF48060FFF700FF4FF49F
:1043C0008060F4E740F20140FFF7F9FE40F201405F
:1043D000EDE74FF48160FFF7F2FE4FF48160E6E70E
:1043E00040F21130FFF7EBFE40F21130DFE740F210
:1043F0001230FFF7E4FE40F21230D8E7002C014003
:10440000004401400B8810B58362424B98421BD098
:1044100020F48063B3F1804F16D08B68C3623E4BAB
:1044200098423CD003F5903398424FD03B4A90429B
:1044300055D002F5806290425ED0A3F5A053984219
:1044400028D10B7B036325E0036823F0700303602E
:1044500002684B881343036002688B881343036030
:104460008B68C3622B4B984222D0B0F1804F16D09C
:10447000A3F594339842D2D14FF08043D3F800246F
:1044800022F44072C3F80024D3F80044CA882243BF
:10449000C3F80024436943F00103436110BD03687E
:1044A00023F4407303600268CB8813430360F1E791
:1044B0001B4BD3F8002C22F44072C3F8002CD3F825
:1044C000004CCA882243C3F8002CBAE7036823F4DF
:1044D000407303600268CB8813430360B1E7D3F8ED
:1044E000002422F44072C3F80024D3F80044CA88A0
:1044F0002243C3F80024A4E7D3F8002822F4407232
:10450000C3F80028D3F80048CA882243C3F800281B
:1045100097E700BF002C014000200040004401400C
:1045200000200140036843F00103036070474162CB
:10453000704703690B4214BF012000207047C94334
:1045400001617047C3681943C1607047436C01291A
:104550000CBF43F4004323F400434364704700005E
:10456000032900F20381DFE811F0040047009A00FC
:10457000DF00036A23F001030362836923F003036E
:104580008361036A11680B430362036A23F0020329
:104590000362016AD3880B430362754B98420AD0C9
:1045A00020F4806103F5A053994204D003F5006321
:1045B000984240F0DB80036A23F004030362016A3F
:1045C00093880B430362036A23F008030362016AC2
:1045D00013890B430362436823F48073436041688B
:1045E00053890B434360436823F40073436041687D
:1045F00093890B4343607047036A23F010030362FF
:10460000836923F440738361036A116843EA0113E9
:104610000362036AD18823F020030362036A43EA3A
:1046200001130362524B98422DD1036A918823F003
:1046300040030362036A43EA01130362036A1189B8
:1046400023F080030362036A43EA01130362494BC8
:104650005089D3F8041C928921F48061C3F8041CAA
:10466000D3F8041C41EA8001C3F8041CD3F8041CED
:1046700021F40061C3F8041CD3F8041C41EA82024F
:10468000C3F8042C70473C4B98426FD14368528961
:1046900023F480634360436843EA8203AAE7036A22
:1046A00023F480730362C36923F00303C361036AC5
:1046B000116843EA01230362036AD18823F400737B
:1046C0000362036A43EA01230362294B98424DD1F6
:1046D000036A918823F480630362036A43EA012337
:1046E0000362036A118923F400630362036A43EAE5
:1046F000012303621F4B5089D3F8041C928921F4D3
:104700008051C3F8041CD3F8041C41EA0011C3F81B
:10471000041CD3F8041C21F40051C3F8041CD3F882
:10472000041C41EA0212ABE7036A23F480530362DC
:10473000C36923F44073C361036A116843EA013318
:104740000362036AD18823F400530362036A43EAD5
:1047500001330362064B984208D15968528921F40B
:1047600080415960596841EA82125A60704700BF1F
:10477000002C0140002001400040014003291AD8CC
:10478000DFE801F0020A121A836923F070038361E3
:104790008369134383617047836923F4E043836132
:1047A000836943EA0223F5E7C36923F07003C36119
:1047B000C3691343C3617047C36923F4E043C36112
:1047C000C36943EA0223F5E703290AD8DFE801F0C9
:1047D000020406084263704782637047C2637047F1
:1047E0000264704703291AD8DFE801F0020A121A9E
:1047F000836923F0080383618369134383617047EE
:10480000836923F400638361836943EA0223F5E744
:10481000C36923F00803C361C3691343C3617047CD
:10482000C36923F40063C361C36943EA0223F5E764
:1048300003291AD8DFE801F0020A121A836923F06B
:104840000C0383618369134383617047836923F495
:1048500040638361836943EA0223F5E7C36923F078
:104860000C03C361C3691343C3617047C36923F475
:104870004063C361C36943EA0223F5E710B4032927
:1048800024D8DFE801F002284B6D036A23F001030E
:104890000362036A23F00A030362046A1388234352
:1048A0000362836923F0030383618469538823438C
:1048B00083618369D48823F0F0038361836943EAC9
:1048C00004138361036A43F00103036292885DF875
:1048D000044BFFF7ADBF036A148823F01003036293
:1048E000036A23F0A0030362036A43EA041303622A
:1048F0008369548823F440738361836943EA042302
:1049000083618369D48823F470438361836943EAB4
:1049100004338361036A43F01003D6E7036A148803
:1049200023F480730362036A23F420630362036A3F
:1049300043EA04230362C36923F00303C361C46928
:1049400053882343C361C369D48823F0F003C36150
:10495000C36943EA0413C361036A43F48073B4E791
:10496000036A148823F480530362036A23F4204308
:104970000362036A43EA04330362C369548823F47D
:104980004073C361C36943EA0423C361C369D48824
:1049900023F47043C361C36943EA0433C361036A08
:1049A00043F4805391E703290BD8DFE801F00204B8
:1049B0000608406B7047806B7047C06B7047006C97
:1049C000704700207047000008B50C4B98420DD08E
:1049D00003F57443984210D140F20E30FFF7EFFB1D
:1049E00040F20E30BDE80840FFF7EBBB40F211404B
:1049F000FFF7E5FB40F21140F4E708BD004400403A
:104A000038B5134B984204460D4618D003F574434D
:104A1000984216D10620FFF7D7FB226812044FEA0E
:104A2000550310D503EB4003B3FBF5F1C1F342038B
:104A300021F00F010904090C0B43E36038BD02208B
:104A4000E9E70020E9E70344B3FBF5F39BB2F4E7A1
:104A500000440040036823F001030360036823F46B
:104A6000C063036003680B4303607047036823F06F
:104A700001030360036823F48053036003680B435E
:104A800003607047036823F001030360436823F465
:104A90004053436043680B4343607047036843F0EF
:104AA000010303607047036823F008030360036891
:104AB0000B4303607047036823F00403036003683B
:104AC0000B4303607047C1F3080181627047406A7D
:104AD000C0F308007047026A01F01F0101238B40F8
:104AE0001343036270478A0910B501F01F0114587F
:104AF00001238B402343135010BD10B58C090122B4
:104B0000235801F01F018A4023EA0203235010BDFD
:104B1000C1F3891310B51C588B0D1A58C1F304400A
:104B2000012303FA00F0104006D001F01F018B4072
:104B3000234214BF0120002010BD0000084B994201
:104B400006D1D0F8D03023F40043C0F8D0307047FD
:104B5000026AC1F3044101238B401343036270478F
:104B600009340F34DFF830D0002103E00B4B5B58E1
:104B7000435004310A480B4B42189A42F6D30A4A72
:104B800002E0002342F8043B084B9A42F9D300F0BC
:104B900011F8FFF70BF87047D8020020A45C00085A
:104BA00000000020D8000020D8020020A00A002029
:104BB000FEE700007E4BDA6902F00602062A82B0A8
:104BC00047D0DA69900444D57A4A7B4959605A60E3
:104BD00099609A601A6942F020021A611A6942F0DB
:104BE00040021A61DA68D107FCD41A6922F0200267
:104BF0001A611A6942F010021A61DA6912F0060F9E
:104C00006E4A40F0C780A5231380694B6B4AD9696F
:104C1000090A01F0DF015180D969C1F30741918090
:104C2000D969090ED180196AC9B21181196AC1F313
:104C300007215181DA68D207FCD41A6922F01002E8
:104C40001A611A6922F400721A611A6942F080022C
:104C50001A615B4AD2F8883043F47003C2F8883096
:104C6000584B1A6842F001021A601A689007FCD586
:104C70005A6842F080025A6000220192019A4F2A3B
:104C800040F290805A6842F090025A6000220192ED
:104C9000019A4F2A40F289805A6822F003025A6032
:104CA0001A6822F0867222F480321A605968464AE5
:104CB0000A405A605A6822F0084222F474125A607C
:104CC000DA6A22F0404222F00F02DA621A6B22F412
:104CD000817222F001021A631A6B22F480321A6385
:104CE0001A6B22F000421A635A6B22F001025A63D7
:104CF000D3F8C02022F48032C3F8C02000229A608A
:104D0000C3F8CC201A6842F480321A604FF4006273
:104D10001968890301D4013AFAD11A68900333D58E
:104D20005A685A605A6842F400525A605A6842F40B
:104D300080625A605A6822F0036222F470225A603C
:104D4000DA6A22F0404222F00F02DA625A6842F038
:104D5000016242F480325A60DA6A42F00102DA6299
:104D6000DA6ADA621A6842F080721A601A6891018F
:104D7000FCD55A6822F003025A605A6842F00202D7
:104D80005A605A681207FCD500214FF0006002B04B
:104D9000FFF7EEB9DB6903F00603022B7FF435AFB2
:104DA000BB2331E7019A013267E7019A01326EE7CE
:104DB00000200240AB89EFCD2301674500F8FF1FBB
:104DC00000ED00E0001002400C00FF082DE9F04764
:104DD000089D0C46002B4ED194468C458646B2FA6F
:104DE00082F262D94AB1C2F12003914020FA03F362
:104DF0000CFA02FC194300FA02FE4FEA1C471FFAA4
:104E00008CF6B1FBF7F44FEA1E4307FB141143EA9B
:104E1000014304FB06F199420AD91CEB030304F198
:104E2000FF3080F01381994240F21081023C6344CC
:104E3000591A1FFA8EF3B1FBF7F007FB101143EA82
:104E4000014300FB06F69E420AD91CEB030300F166
:104E5000FF3180F0FD809E4240F2FA8063440238C8
:104E60009B1B40EA044000211DB1D3400022C5E94C
:104E70000032BDE8F0878B4205D90DB1C5E90001CC
:104E800000210846F5E7B3FA83F1002946D1A34291
:104E900002D39042C0F0F180861A64EB0303012034
:104EA000002DE6D0C5E90063E3E7002A40F09180D9
:104EB000A1EB0C044FEA1C481FFA8CF70121B4FB4C
:104EC000F8F64FEA1E4308FB164443EA044307FB87
:104ED00006F0984208D91CEB030306F1FF3402D216
:104EE000984200F2CE8026461C1A1FFA8EF3B4FBBD
:104EF000F8F008FB104443EA044300FB07F79F4225
:104F000008D91CEB030300F1FF3402D29F4200F2E8
:104F1000B1802046DB1B40EA0640A5E7C1F1200630
:104F20008B4022FA06F71F4320FA06FC04FA01F32D
:104F300043EA0C03F44000FA01F8380C4FEA134935
:104F4000B4FBF0FE1FFA87FC00FB1E4449EA044450
:104F50000EFB0CF9A14502FA01F20AD93C190EF137
:104F6000FF3A80F08580A14540F28280AEF1020ECA
:104F70003C44A4EB09041FFA83F9B4FBF0F300FBF3
:104F8000134449EA044403FB0CFCA44507D93C192B
:104F900003F1FF3068D2A44566D9023B3C4443EAA2
:104FA0000E40A0FB0293A4EB0C049C42CE469C4610
:104FB00052D34FD055B1B8EB0E0364EB0C0404FA96
:104FC00006F6CB40CC401E43C5E900640021BDE895
:104FD000F087C2F1200320FA03F10CFA02FC24FA54
:104FE00003F394400C434FEA1C4800FA02FE1FFAF8
:104FF0008CF7B3FBF8F008FB1031230C43EA0143B4
:1050000000FB07F1994208D91CEB030300F1FF36BE
:105010002CD299422AD9023863445B1AA4B2B3FB5A
:10502000F8F108FB113344EA034401FB07F3A34200
:1050300008D91CEB040401F1FF3613D2A34211D9A5
:1050400002396444E41A41EA004138E70446EFE6D5
:10505000084605E7C845ADD2B9EB020E63EB070C75
:105060000138A7E73146EDE7034698E73046D4E735
:10507000D6467EE7634402384CE706462346084698
:105080000EE7023E63442FE7FFFF0000010000002F
:10509000000000000000000100000000000000000F
:1050A00000000000010203040607080900000000D8
:1050B00001020304000000000B71D63C3B5E563D2C
:1050C0002AAFA03D0513D63DA9A8053E5C30203E81
:1050D000F39B3A3ECEE6543E4E0C6F3EEE83843E4A
:1050E000766A913E7A379E3EBCE8AA3E017CB73E86
:1050F00016EFC33EC93FD03EF46BDC3E7271E83E12
:10510000284EF43E0000003F78C2053F776D0B3F0C
:105110000000113F1879163FCAD71B3F241B213FBF
:105120003B42263F254C2B3F0138303FF304353FAF
:1051300022B2393FBE3E3E3FF8A9423F0AF3463F06
:1051400035194B3FBD1B4F3FEFF9523F1EB3563F42
:10515000A1465A3FD8B35D3F29FA603F0219643F28
:10516000D50F673F1EDE693F5E836C3F20FF6E3FB9
:10517000F450713F7178733F3675753FEA46773F5B
:105180003CED783FE2677A3F98B67B3F25D97C3F7C
:1051900055CF7D3FFD987E3FF9357F3F2FA67F3F5E
:1051A0008BE97F3F0000803F8BE97F3F2FA67F3F49
:1051B000F9357F3FFD987E3F55CF7D3F24D97C3F19
:1051C00098B67B3FE1677A3F3CED783FEA46773F10
:1051D0003575753F7078733FF450713F21FF6E3F16
:1051E0005E836C3F1DDE693FD40F673F0019643F4B
:1051F00029FA603FD7B35D3F9F465A3F1DB3563FE4
:10520000EEF9523FBB1B4F3F34194B3F08F3463F6B
:10521000F5A9423FBD3E3E3F23B2393FF304353F3F
:105220000038303F254C2B3F3A42263F221B213F7E
:10523000C7D71B3F1779163FFEFF103F736D0B3F1B
:1052400079C2053F0100003F264EF43E6D71E83EF5
:10525000F46BDC3EC73FD03E10EFC33E007CB73E50
:10526000B8E8AA3E73379E3E746A913EEA83843E54
:105270004E0C6F3EC8E6543EF89B3A3E5A30203EF4
:10528000A1A8053E0913D63D22AFA03D135E563DB1
:105290008C70D63C191919191919191919191919D4
:1052A0001919194B1919191919194B19191919190A
:1052B00019194B4B19191919194B191919191919C8
:1052C000194B194B19191919194B4B191919191986
:1052D000194B4B4B191919194B1919191919191976
:1052E0004B19194B191919194B194B191919191966
:1052F0004B194B4B191919194B4B19191919191924
:105300004B4B194B191919194B4B4B1919191919E1
:105310004B4B4B4B1919194B191919191919194BD1
:105320001919194B1919194B19194B191919194B25
:1053300019194B4B1919194B194B19191919194BE3
:10534000194B194B1919194B194B4B191919194BA1
:10535000194B4B4B1919194B4B1919191919194B91
:105360004B19194B1919194B4B194B191919194B81
:105370004B194B4B1919194B4B4B19191919194B3F
:105380004B4B194B1919194B4B4B4B191919194BFD
:105390004B4B4B4B19194B191919191919194B1951
:1053A0001919194B19194B1919194B1919194B19A5
:1053B00019194B4B19194B19194B191919194B1963
:1053C000194B194B19194B19194B4B1919194B1921
:1053D000194B4B4B19194B194B19191919194B1911
:1053E0004B19194B19194B194B194B1919194B1901
:1053F0004B194B4B19194B194B4B191919194B19BF
:105400004B4B194B19194B194B4B4B1919194B197C
:105410004B4B4B4B19194B4B1919191919194B4B6C
:105420001919194B19194B4B19194B1919194B4BC0
:1054300019194B4B19194B4B194B191919194B4B7E
:10544000194B194B19194B4B194B4B1919194B4B3C
:10545000194B4B4B19194B4B4B19191919194B4B2C
:105460004B19194B19194B4B4B194B1919194B4B1C
:105470004B194B4B19194B4B4B4B191919194B4BDA
:105480004B4B194B19194B4B4B4B4B1919194B4B98
:105490004B4B4B4B194B191919191919194B191950
:1054A0001919194B194B191919194B19194B1919A4
:1054B00019194B4B194B1919194B1919194B191962
:1054C000194B194B194B1919194B4B19194B191920
:1054D000194B4B4B194B19194B191919194B191910
:1054E0004B19194B194B19194B194B19194B191900
:1054F0004B194B4B194B19194B4B1919194B1919BE
:105500004B4B194B194B19194B4B4B19194B19197B
:105510004B4B4B4B194B194B19191919194B194B6B
:105520001919194B194B194B19194B19194B194BBF
:1055300019194B4B194B194B194B1919194B194B7D
:10554000194B194B194B194B194B4B19194B194B3B
:10555000194B4B4B194B194B4B191919194B194B2B
:105560004B19194B194B194B4B194B19194B194B1B
:105570004B194B4B194B194B4B4B1919194B194BD9
:105580004B4B194B194B194B4B4B4B19194B194B97
:105590004B4B4B4B194B4B1919191919194B4B19EB
:1055A0001919194B194B4B1919194B19194B4B193F
:1055B00019194B4B194B4B19194B1919194B4B19FD
:1055C000194B194B194B4B19194B4B19194B4B19BB
:1055D000194B4B4B194B4B194B191919194B4B19AB
:1055E0004B19194B194B4B194B194B19194B4B199B
:1055F0004B194B4B194B4B194B4B1919194B4B1959
:105600004B4B194B194B4B194B4B4B19194B4B1916
:105610004B4B4B4B194B4B4B19191919194B4B4B06
:105620001919194B194B4B4B19194B19194B4B4B5A
:1056300019194B4B194B4B4B194B1919194B4B4B18
:10564000194B194B194B4B4B194B4B19194B4B4BD6
:10565000194B4B4B194B4B4B4B191919194B4B4BC6
:105660004B19194B194B4B4B4B194B19194B4B4BB6
:105670004B194B4B194B4B4B4B4B1919194B4B4B74
:105680004B4B194B194B4B4B4B4B4B19194B4B4B32
:105690004B4B4B4B4B191919191919194B1919194E
:1056A0001919194B4B19191919194B194B191919A2
:1056B00019194B4B4B191919194B19194B19191960
:1056C000194B194B4B191919194B4B194B1919191E
:1056D000194B4B4B4B1919194B1919194B1919190E
:1056E0004B19194B4B1919194B194B194B191919FE
:1056F0004B194B4B4B1919194B4B19194B191919BC
:105700004B4B194B4B1919194B4B4B194B19191979
:105710004B4B4B4B4B19194B191919194B19194B69
:105720001919194B4B19194B19194B194B19194BBD
:1057300019194B4B4B19194B194B19194B19194B7B
:10574000194B194B4B19194B194B4B194B19194B39
:10575000194B4B4B4B19194B4B1919194B19194B29
:105760004B19194B4B19194B4B194B194B19194B19
:105770004B194B4B4B19194B4B4B19194B19194BD7
:105780004B4B194B4B19194B4B4B4B194B19194B95
:105790004B4B4B4B4B194B19191919194B194B19E9
:1057A0001919194B4B194B1919194B194B194B193D
:1057B00019194B4B4B194B19194B19194B194B19FB
:1057C000194B194B4B194B19194B4B194B194B19B9
:1057D000194B4B4B4B194B194B1919194B194B19A9
:1057E0004B19194B4B194B194B194B194B194B1999
:1057F0004B194B4B4B194B194B4B19194B194B1957
:105800004B4B194B4B194B194B4B4B194B194B1914
:105810004B4B4B4B4B194B4B191919194B194B4B04
:105820001919194B4B194B4B19194B194B194B4B58
:1058300019194B4B4B194B4B194B19194B194B4B16
:10584000194B194B4B194B4B194B4B194B194B4BD4
:10585000194B4B4B4B194B4B4B1919194B194B4BC4
:105860004B19194B4B194B4B4B194B194B194B4BB4
:105870004B194B4B4B194B4B4B4B19194B194B4B72
:105880004B4B194B4B194B4B4B4B4B194B194B4B30
:105890004B4B4B4B4B4B1919191919194B4B1919E8
:1058A0001919194B4B4B191919194B194B4B19193C
:1058B00019194B4B4B4B1919194B19194B4B1919FA
:1058C000194B194B4B4B1919194B4B194B4B1919B8
:1058D000194B4B4B4B4B19194B1919194B4B1919A8
:1058E0004B19194B4B4B19194B194B194B4B191998
:1058F0004B194B4B4B4B19194B4B19194B4B191956
:105900004B4B194B4B4B19194B4B4B194B4B191913
:105910004B4B4B4B4B4B194B191919194B4B194B03
:105920001919194B4B4B194B19194B194B4B194B57
:1059300019194B4B4B4B194B194B19194B4B194B15
:10594000194B194B4B4B194B194B4B194B4B194BD3
:10595000194B4B4B4B4B194B4B1919194B4B194BC3
:105960004B19194B4B4B194B4B194B194B4B194BB3
:105970004B194B4B4B4B194B4B4B19194B4B194B71
:105980004B4B194B4B4B194B4B4B4B194B4B194B2F
:105990004B4B4B4B4B4B4B19191919194B4B4B1983
:1059A0001919194B4B4B4B1919194B194B4B4B19D7
:1059B00019194B4B4B4B4B19194B19194B4B4B1995
:1059C000194B194B4B4B4B19194B4B194B4B4B1953
:1059D000194B4B4B4B4B4B194B1919194B4B4B1943
:1059E0004B19194B4B4B4B194B194B194B4B4B1933
:1059F0004B194B4B4B4B4B194B4B19194B4B4B19F1
:105A00004B4B194B4B4B4B194B4B4B194B4B4B19AE
:105A10004B4B4B4B4B4B4B4B191919194B4B4B4B9E
:105A20001919194B4B4B4B4B19194B194B4B4B4BF2
:105A300019194B4B4B4B4B4B194B19194B4B4B4BB0
:105A4000194B194B4B4B4B4B194B4B194B4B4B4B6E
:105A5000194B4B4B4B4B4B4B4B1919194B4B4B4B5E
:105A60004B19194B4B4B4B4B4B194B194B4B4B4B4E
:105A70004B194B4B4B4B4B4B4B4B19194B4B4B4B0C
:105A80004B4B194B4B4B4B4B4B4B4B194B4B4B4BCA
:105A90004B4B4B4B00C0C101C30302C2C60607C734
:105AA00005C5C404CC0C0DCD0FCFCE0E0ACACB0B4E
:105AB000C90908C8D81819D91BDBDA1A1EDEDF1F7E
:105AC000DD1D1CDC14D4D515D71716D6D21213D36E
:105AD00011D1D010F03031F133F3F23236F6F7371E
