:020000040800F2
:10000000000300204551000891510008915100085B
:100010009151000891510008915100080000000022
:1000200000000000000000000000000091510008E6
:100030009151000800000000915100086D0E000869
:1000400000000000915100089151000891510008F2
:1000500091510008915100089151000891510008F8
:100060009151000891510008313700089151000862
:1000700091510008915100089151000891510008D8
:1000800091510008915100080000000091510008B2
:10009000915100089151000891510008892B0008E6
:1000A0009151000891510008915100087D0E0008FF
:1000B000915100080000000091510008000000006C
:1000C000F92C00080000000091510008915100082F
:1000D0009151000800000000000000000000000036
:1000E0000000000000000000915100080000000026
:1000F0000000000000000000000000000000000000
:10010000915100080000000000000000915100081B
:1001100000000000000000000000000000000000DF
:1001200000000000000000000000000000000000CF
:1001300000000000000000000000000000000000BF
:1001400000000000000000000000000091510008C5
:1001500053B94AB9002908BF00281CBF4FF0FF312E
:100160004FF0FF3000F074B9ADF1080C6DE904CE2A
:1001700000F006F8DDF804E0DDE9022304B0704782
:100180002DE9F047089D04468E46002B4DD18A424A
:10019000944669D9B2FA82F252B101FA02F3C2F17D
:1001A000200120FA01F10CFA02FC41EA030E94400E
:1001B0004FEA1C48210CBEFBF8F61FFA8CF708FB2F
:1001C00016E341EA034306FB07F199420AD91CEB07
:1001D000030306F1FF3080F01F81994240F21C8139
:1001E000023E63445B1AA4B2B3FBF8F008FB103381
:1001F00044EA034400FB07F7A7420AD91CEB0404B6
:1002000000F1FF3380F00A81A74240F20781644485
:10021000023840EA0640E41B00261DB1D44000230A
:10022000C5E900433146BDE8F0878B4209D9002D6E
:1002300000F0EF800026C5E9000130463146BDE8F8
:10024000F087B3FA83F6002E4AD18B4202D3824262
:1002500000F2F980841A61EB030301209E46002D11
:10026000E0D0C5E9004EDDE702B9FFDEB2FA82F266
:10027000002A40F09280A1EB0C014FEA1C471FFAC4
:100280008CFE0126200CB1FBF7F307FB131140EAAB
:1002900001410EFB03F0884208D91CEB010103F178
:1002A000FF3802D2884200F2CB804346091AA4B23A
:1002B000B1FBF7F007FB101144EA01440EFB00FE0E
:1002C000A64508D91CEB040400F1FF3102D2A64573
:1002D00000F2BB800846A4EB0E0440EA03409CE712
:1002E000C6F12007B34022FA07FC4CEA030C20FABF
:1002F00007F401FA06F31C43F9404FEA1C4900FADF
:1003000006F3B1FBF9F8200C1FFA8CFE09FB18115B
:1003100040EA014108FB0EF0884202FA06F20BD9CE
:100320001CEB010108F1FF3A80F08880884240F21E
:100330008580A8F102086144091AA4B2B1FBF9F062
:1003400009FB101144EA014100FB0EFE8E4508D95D
:100350001CEB010100F1FF346CD28E456AD90238E2
:10036000614440EA0840A0FB0294A1EB0E01A142C7
:10037000C846A64656D353D05DB1B3EB080261EB35
:100380000E0101FA07F722FA06F3F1401F43C5E90F
:10039000007100263146BDE8F087C2F12003D84045
:1003A0000CFA02FC21FA03F3914001434FEA1C4787
:1003B0001FFA8CFEB3FBF7F007FB10360B0C43EA79
:1003C000064300FB0EF69E4204FA02F408D91CEB29
:1003D000030300F1FF382FD29E422DD90238634427
:1003E0009B1B89B2B3FBF7F607FB163341EA0341C7
:1003F00006FB0EF38B4208D91CEB010106F1FF3816
:1004000016D28B4214D9023E6144C91A46EA00460C
:1004100038E72E46284605E70646E3E61846F8E69E
:100420004B45A9D2B9EB020864EB0C0E0138A3E7E7
:100430004646EAE7204694E74046D1E7D0467BE7C8
:10044000023B614432E7304609E76444023842E740
:10045000704700BF294A2DE9F8431368002B4BD0A1
:10046000274D28492C88DFF8BC80013B136004F03D
:100470001F03254A11F803E032F81320BEF1000FE4
:1004800014D002EB0E00214F214E80B241464FF4B2
:10049000167CA6FB02939B090CFB13239BB2013233
:1004A00092B2FB5C21F8023B8242F2D1194E01204C
:1004B000C6F818E0C6F80C8003F0DEFC31460120D7
:1004C00003F0FCFC012003F03BFD012003F044FDA0
:1004D0001148802104F0E0FD0221012003F054FDC9
:1004E000012003F045FD0D4A0D4B012119701368E1
:1004F0000C440B442C801360BDE8F88304070020F3
:10050000000700200C070020C00600206404002023
:10051000B5814E1B0000002000380140F000002093
:10052000C40B00206C0900202DE9F04FCB4ACC49C8
:1005300013680F68A1B00197002B00F09382013B74
:100540001360C84BC8481B88DFF828B3591C9A1C95
:1005500092B289B2A0FB0156A0FB0354A0FB02504B
:10056000A4094FF41675800905FB1020B60905FB98
:10057000143292B205FB161189B2A5240BF8024081
:1005800080B215220BF80120E022B8490BF80020B8
:100590007A1C09880991FF2A40F27A820020DFF84C
:1005A000D8E2DFF8D8C21290AC2223213C46B048F2
:1005B000DFF8B49204EB440400EBC40550F8344077
:1005C00068681695C4F307467240C4F30727E4B27F
:1005D000149626461EF802401CF802201397794014
:1005E000614072401EF801401CF8011011966240F3
:1005F000C0F307481EF802401CF80220CDF84080E6
:10060000474679406140C0F30724C0B20F9462406E
:1006100004461EF801001CF801100E94424061408F
:100620001EF802001CF802204140A8681EF8014094
:100630001CF80110C0F3074845466A406240CDF8F7
:1006400034801CF80250C0F30728C0B20446464666
:10065000CDF8308084EA0508DD1C03F1040ACDF8EA
:1006600078801FFA85F81EF802000A9445465A1D44
:100670001FFA8AF8CDF808801FFA82F8CDF80C80AE
:1006800003F10608DF1D1FFA88F87140CDF81080CD
:1006900003F108061FFA87F8474603F109041FFA19
:1006A00086F8464603F10A021FFA84F84840444699
:1006B0001FFA82F803F10B020B90CDF8148003F1BE
:1006C0000C001FFA82F8CDF8188003F10D011FFA13
:1006D00080F8CDF81C801FFA81F80299CDF82080AF
:1006E000A9FB018A03991595A9FB0182900917902E
:1006F000049805991997A9FB0585A9FB0008A9FB92
:100700000707BA0906981892A9FB01721A961B945A
:10071000A9FB0676A9FB047497091C970799A9FB06
:10072000007297091D97A9FB01700899A9FB017137
:100730008A091F92159A4FF41671AD0901FB15270E
:10074000029A15974FEA9A1A179F01FB1A2A039AE1
:1007500001FB1725049A02954FEA981801FB182807
:10076000DDE9185201FB15271A9A1C9DB60901FBF9
:1007700016261B9AA40901FB1424059A01FB1525D2
:100780000495069A1D9D01FB1525079A059580097C
:100790000D4601FB1020089A1F9905FB1121BDF899
:1007A0005450129A0BF80520BDF8082003928AB223
:1007B000BDF8105006920B9A0495BDF814501E997E
:1007C00005951EF802501FFA8AFA4D401CF80210D7
:1007D00002914FF001010BF80A100399149A0BF8DB
:1007E00001201FFA88F8139A0BF80820BFB2119A5B
:1007F0000BF80720B6B2A4B2109F0F9A0BF8067040
:100800000BF80420049F0E9C0BF80740059F0D9ADF
:100810000BF8072080B20C9E069A16990BF8006020
:100820000A981EF805601CF805400BF80200D1E993
:100830000350029F4969C5F3074257407E40C5F304
:100840000727EDB207977C402F461EF80650089701
:100850006C401CF806501EF8046011E0F000002007
:10086000D8030020BC060020B5814E1B08070020DD
:100870007003002064040020F8540008F8530008B6
:100880001CF804407D407540C0F307481EF8056021
:100890001CF80550CDF8288047467C407440C0F3D2
:1008A0000726C0B275400B9606461EF804001CF8D9
:1008B00004400C96684074401EF800501CF800007C
:1008C0006C40C1F307481EF804501CF80440CDF8F2
:1008D0000880464670406840C1F30725C9B20395B9
:1008E0006C400D461EF8001004954C401CF800109A
:1008F0001EF80400694041401CF804001EF8014045
:100900001CF80110059103F1100C444003F10E088E
:100910001FFA8CF00D901FFA88F803F1150081B2D0
:10092000A9FB08C080094FF4167C0CFB108803F16A
:100930000F0E1FFA88F81FFA8EFE0BF80820A9FB8D
:100940000EC84FEA98184FF4167C0CFB18EE0D9861
:10095000079A06941FFA8EFE4FF416780BF80E20B5
:10096000A9FB00CE4FEA9E1E08FB1E0C03F11107E7
:100970001FFA8CFC089A0BF80C20BFB2A9FB07ECFD
:100980004FEA9C1C08FB1C7703F11206BFB20A9ABF
:100990000BF80720B6B2A9FB06C7BF0908FB17660C
:1009A00003F11305B6B20B9A0BF80620ADB2A9FB02
:1009B0000576B60908FB165503F11404ADB20C9E7A
:1009C0000BF80560A4B2A9FB0475AD090E9108FBF4
:1009D00015440E9A029EA4B203F117010BF80460AD
:1009E000A9FB0264A40908FB142003F1160A89B2CA
:1009F00080B21FFA8AFA0F91039D0BF80050A9FBF1
:100A00000A60800908FB10A00F9A049D80B203F1D0
:100A100018010BF8005089B2A9FB0250A9FB015440
:100A2000800908FB1020A40908FB141281B2069C5F
:100A30000BF8014092B205990BF802101F492048AB
:100A4000204C03F119020A80099A02F01F010132B9
:100A500022800268013202601B4A22F811301B4BCF
:100A600019225A54019B022B0CDC01335A4202F02A
:100A7000030203F0030358BF5342154A136021B029
:100A8000BDE8F08F134B00221A7021B0BDE8F08F43
:100A9000D2B2DFF844E0129282F06E02DFF83CC07E
:100AA0001EF802101CF8020081F0FA013C461EF804
:100AB00001201CF80110424079E500BFBC0600206F
:100AC0000407002008070020C00600200C070020B3
:100AD000D8030020D8000020F8540008F85300087C
:100AE0002DE9F04F614B9FED626A1B88DFED616A73
:100AF000614A5BBA9BB207EE103AB8EE477AF9EE5C
:100B0000087AE7EE067AC22387B0137067EEA67AFA
:100B1000F5EEC07AF1EE10FAC0F2A280FCEEE77AB0
:100B200017EE903AD9B2C3F30723009101930C4614
:100B30005248019B016854709370002900F08D8029
:100B4000013901604E494F4A098884F0E0084E1D82
:100B500012F80850B6B202965D408E1DB7B285F00D
:100B60008205494E12F8059016F80880474A735DD1
:100B7000029E049388EA09054C1C01F1020E01F162
:100B8000030C081DA4B21FFA8EFE1FFA8CFC80B263
:100B90000395A2FB0185AB09A2FB048BA2FB0E8A85
:100BA000A2FB0C890597A2FB0058A2FB0665A2FBDD
:100BB0000762029F4FF41676AD0906FB1575059F77
:100BC000920906FB1272324F4FEA9A1A4FEA9919AC
:100BD0004FEA98184FEA9B1B06FB1AEE06FB19CC4E
:100BE00006FB180006FB1B441FFA82F806FB1316CF
:100BF0003A88284B02F01F0A1B6801323A80264AC5
:100C000003F10109234B22F81A101D4AC3F8009082
:100C10000731DFF88C901180B6B2A4B2A52109F893
:100C200006101FFA8EFE03211FFA8CFC80B209F811
:100C30000410019B009C194AC221ADB209F80E10A4
:100C400009F80C40039909F80030049B09F80510D5
:100C500009F80830072302F80A3007B0BDE8F08F22
:100C60000023CDE900331C4662E700BF3C040020AE
:100C70000000FA3A0000C842C80B0020F000002033
:100C8000BC060020F8540008F8530008B5814E1B3C
:100C90000807002004070020C00600200C070020E1
:100CA000640400202DE9F04F614B9FED626A1B88C0
:100CB000DFED617ADFED616A614A5BBA9BB207EEF4
:100CC000103AB8EE477AC023E7EE067A87B0137081
:100CD00067EEA67AF5EEC07AF1EE10FAC0F2A280C5
:100CE000FCEEE77A17EE903AD9B2C3F307230091EE
:100CF00001930C465348019B01685470937000297E
:100D000000F08D80013901604F49504A098884F014
:100D100061084E1D12F80850B6B202965D408E1D55
:100D2000B7B285F043054A4E12F8059016F80880D0
:100D3000484A735D029E049388EA09054C1C01F140
:100D4000020E01F1030C081DA4B21FFA8EFE1FFA59
:100D50008CFC80B20395A2FB0185AB09A2FB048B3E
:100D6000A2FB0E8AA2FB0C890597A2FB0058A2FBEE
:100D70000665A2FB0762029F4FF41676AD0906FBDB
:100D80001575059F920906FB1272334F4FEA9A1AA6
:100D90004FEA99194FEA98184FEA9B1B06FB1AEE87
:100DA00006FB19CC06FB180006FB1B441FFA82F851
:100DB00006FB13163A88294B02F01F0A1B68013202
:100DC0003A80274A03F10109244B22F81A101E4ADF
:100DD000C3F800900731DFF890901180B6B2A4B24A
:100DE000A52109F806101FFA8EFE03211FFA8CFCBC
:100DF00080B209F80410019B009C1A4AC021ADB2D0
:100E000009F80E1009F80C40039909F80030049B0A
:100E100009F8051009F80830072302F80A3007B06E
:100E2000BDE8F08F0023CDE900331C4662E700BF28
:100E30003C04002052B82F3B1F853BC20000C84233
:100E4000C80B0020F0000020BC060020F854000869
:100E5000F8530008B5814E1B080700200407002046
:100E6000C00600200C07002064040020024A13681A
:100E700001331360704700BF40040020F8B53049CB
:100E8000304804F031F900B9F8BD2D492D4804F07F
:100E900043F940F201712B4804F006F940F2027167
:100EA0000646284804F000F940F203710746254839
:100EB00004F0FAF84FF4E0610546224804F0F4F833
:100EC00040F2017104461F4804F0F6F83E431D4805
:100ED00040F2027104F0F0F835431A4840F2037111
:100EE00004F0EAF82C4317484FF4E06104F0E4F80A
:100EF000E4B2144804F0CCF8002CC5D11249134CCC
:100F0000134A0B6824681460002BBDD0114C013BC0
:100F100022880B60104BA3FB02534FF496715B09C0
:100F200001FB13230D49013222800A680132B0F51A
:100F3000807F9BB20A600A4A28BF0020D054F8BDC7
:100F40000500050700380140F8000020400400209B
:100F50006809002064090020B5814E1B600900204B
:100F60003008002010B51E4B1E481F4990F800E0C5
:100F70001E481F4C1A464FF0F00C02F801CBB0F897
:100F800000C008688988C3F801009180204683F872
:100F900007E0A3F808C003F0F5FF2046042104F0A1
:100FA0006FF82046082104F063F82046052104F07C
:100FB0008DF820464FF4E13104F004F8204600217A
:100FC00004F038F82046002104F040F820460021C3
:100FD00004F024F82046BDE8104004F043B800BFF8
:100FE00058040020E900002028040020FC00002014
:100FF0000038014096480168F9B1964A01392DE957
:10100000F04F138801609448944CA0FB03504FF4B8
:101010009671400901FB103080B29149245C087838
:1010200091B058B9A52C1FD08E4801680133013109
:101030001380016011B0BDE8F08F70470128F3D133
:10104000894D287801284AD002281CD0032858D07E
:101050000428E9D18548007818B185484078A04235
:1010600059D000200870DFE701240C707E490C7015
:1010700080490870804908707C487D49047043F6B7
:101080007F300880D0E7DFF8ECC17C489CF8001086
:10109000774EA0FB01E0377801EBD0100131C9B2E7
:1010A00067408CF80010DFF8DCC11CF80780DFF81F
:1010B000C8C19CF800E096F801C08CEA080C86F8DC
:1010C00000C0DFF8C4C11CF80770777000F0FF00A3
:1010D0006B4E8E453454A7D103212970A4E766498D
:1010E000684E0C70624908786040375C4E787E40EC
:1010F0000E70654E305C4870002CEDD002212970D6
:1011000092E75B490978A14202D058490020087053
:101110000421297088E758480578002DA1D0584F40
:1011200038780190002840F0C380022D99D1574EA5
:101130003068002800F0878097F80180544CDFF871
:1011400048B10138306088F0600A4E48268810F8AF
:101150000A001BF80AA0CDF80CA080F083000490D0
:10116000301D80B20690701D84B206F1010E4FF45E
:1011700016701FFA8EFEB6FBF0FA06F1020C00FBA9
:101180001A6A07941FFA8CFC424CF71C1FFA8AFB60
:10119000BEFBF0FA00FB1AEEBFB21FFA8EFABCFBE0
:1011A000F0FE00FB1ECCB4F80090069CCDF8089031
:1011B0001FFA8CFEB7FBF0FC00FB1C77BFB2059753
:1011C000B4FBF0F700FB1747079CDFF8D890BFB2DD
:1011D0000697B4FBF0F700FB174080B20790D9F8F0
:1011E0000000029C2C4F0130C9F8000004F1010CF2
:1011F00004F01F00274CA4F800C0DFF8ACC0244C5A
:101200002CF810604FF0A50907F80B90063607F888
:101210000A50059D2680019C07F80E4007F80580BE
:10122000069D049C7C55079D039C7C5508F1FF346A
:10123000D4F10008194EDFF874C048EB0408062406
:1012400034548CF8008016480024047009E700BF6D
:10125000600900205C090020B5814E1B3008002089
:101260002D080020F8000020F6000020F7000020E4
:10127000F40000202B0800202C08002081808080B2
:101280002C070020F8540008F8530008F000002054
:10129000BC06002008070020640400200C07002082
:1012A000E000002004070020C0060020D900002034
:1012B000D02800F04B810198E02800F0CF820198FF
:1012C000E12800F044820198E22800F0DA840198D5
:1012D000E32800F047840198FA2800F0018601987D
:1012E000F4287FF4BEAE8B4C00202072207584F869
:1012F000200084F82C0084F8380084F84400864CE0
:101300002060864801240470854C01942068059073
:1013100000283FF4A6AE834C83482588D0ED007AA0
:101320000394681C4FF4167E80B2AC1CB0FBFEFC2C
:101330007E4F02970EFB1C00A4B2059FB5FBFEF684
:101340001FFA80FCB4FBFEF00EFB10440EFB165699
:101350001FFA84F8724C764807F1FF3EB6B2B7EE3A
:10136000007ACDF81CE0C4F800E04FF0A50E00F8BC
:1013700006E06E4F0226F4EEC77A00F80C60F1EE3C
:1013800010FA4FF0D00600F80860B7F800B040F24D
:1013900079854FF0000EDFF8B0A1DAF800700697FB
:1013A0008EF06109634F6C1D17F80980624FA4B27B
:1013B00005F1030C17F8099008941FFA8CFC4FF400
:1013C0001674CDF81090BCFBF4F904FB19CC1FFA8D
:1013D0008CFC2E1DB6B200F80CE0B6FBF4FC04FB4E
:1013E0001C66089FB6B288F01F0800F80680B7FB9D
:1013F000F4F604FB1676B6B2049F87550BF01F0E69
:101400004E4E039F26F81E50AE1DB6B23E800BF125
:10141000010C029FDFF82C8104961FFA8CFCA7F8C0
:1014200000C0069F079E4FF0060908F80E9007F1CE
:10143000010ECAF800E0002E3FF413AE0CF01F0CB2
:101440003E4E049F26F81C70059E019F08F80C90E4
:10145000A6F1020CC7F800C0069F029E0237CAF828
:101460000070374F97F800800BF1020BA6F800B020
:1014700088F060072F4E16F807B02F4EF65D0196E4
:10148000039E05F1070E05F1080A05F1090905F1AA
:101490000A0C05F10B070C353580049EB6FBF4F5FC
:1014A0001FFA8EFE04FB15651FFA8CFCBFB2BEFB53
:1014B000F4F61FFA8AFA04FB16EE1FFA89F9ADB2A8
:1014C000BAFBF4F61FFA8EFE04FB16AAB9FBF4F67B
:1014D00004FB1699BCFBF4F604FB16C6B7FBF4FC40
:1014E00004FB1C74A5274755B6B202251FFA8AFAD9
:1014F0001FFA89F900F80E508BF0830BA4B2002577
:1015000000F80A5000F8098000F806B0019E065560
:10151000A7E500BF1C030020D8030020D80000204E
:10152000F0000020BC060020440000200807002036
:1015300064040020F8540008F8530008C006002096
:10154000D90000200C07002004070020022D7FF4A2
:1015500088AD7E78002E40F00184B34CB3480194EE
:1015600006702068002876D0B14F013820603C8892
:101570004FF4167004F10109B4FBF0FB00FB1B4BA8
:1015800004F1050A1FFA89F904F102081FFA8BFB1E
:101590001FFA8AF71FFA88F804F1030ECDF80CB091
:1015A000B9FBF0FB00FB1B9905971FFA8EFEA14FBC
:1015B00004F1040C1FFA89FBB8FBF0F900FB198851
:1015C0001FFA8CFC1FFA88F9BEFBF0F800FB18EE3E
:1015D000B7F800A0059FCDF808A01FFA8EF8BCFB55
:1015E000F0FE00FB1ECC1FFA8CFCDFF868A2CDF8E1
:1015F00010C0B7FBF0FC00FB1C7080B20590DAF85D
:101600000000029FDFF83CC2013007F1010ECAF86A
:10161000000007F01F00874FA7F800E0DFF838E26E
:10162000834F2EF8104006343C80039F824C4FF0CD
:10163000A50E0CF807E0049F0CF80B500CF809609D
:1016400083250CF80860059E0CF8075028250CF837
:101650000650062525547948794C0460019C206881
:1016600000283FF4F0ADDFF8C8B1DFF8E8A1BBF81F
:1016700000C0DFF8C091013820600CF10404A4B26E
:101680000394DAF80040B9F800804FF41670013482
:10169000CAF800400CF10107BCFBF0FA0CF102069D
:1016A00000FB1ACABFB21FFA8AF4B6B20194B7FBA4
:1016B000F0FA039C00FB1A7A0CF10305B6FBF0F775
:1016C00000FB1766ADB20CF1050EB6B21FFA8EFE26
:1016D0000296B5FBF0F600FB1655B4FBF0F600FBE6
:1016E000164408F01F07BEFBF0F6A4B200FB16E09C
:1016F000DFF864E1534E0394019C2EF817C01FFAE3
:101700008AFA4FF0A50E06F804E0029C4FF0020E94
:1017100006F80AE0ADB24FF0D00E06F804E0039CE4
:101720004FF0010E06F805E080B20CF1060C1F2503
:101730003555ABF800C02824DFF8FCC0345408F15C
:1017400001080620A9F800800CF807007BE5022DAF
:101750007FF487AC344E306800283FF482AC013807
:101760003060334897F801A00688324C0390771C0C
:101770004FF4167EBFB2B01C80B2B7FBFEFC0EFB6E
:101780001C771FFA87FC0294B0FBFEF72488B6FB97
:10179000FEF80EFB17000EFB186887B21FFA88F8D8
:1017A000284805940AF001044FF0A50904944FEA73
:1017B0005A0400F80890069400F80C50CB24019DC0
:1017C000C5550194204F4FF00109002503244FF027
:1017D000A00B1AE0049D3D703519ADB2B5FBFEF8C3
:1017E0000EFB1855ADB2013400F805A0174D15F8E1
:1017F0000CB0019D85EA0B0B154D15F80C500195A9
:10180000069DE4B209F101090137B9F1010F8AEA35
:101810000B0C05F00108DDD0B9F1060F87F8008048
:1018200000F08C836D08EDE7F0000020D900002067
:10183000BC060020080700200C0700204400002000
:101840008180803B64040020D0030020F85400080D
:10185000F853000804070020C0060020052D7FF67D
:1018600000ACE81EC0B24FF00308B0FBF8F606EB80
:101870004606801BC0B200287FF4F3AB97F801E066
:101880000EF1FF30C0B2032805903FF6EAABB878FE
:10189000069000F1FF3C5FFA8CFCBCF1050F3FF6AF
:1018A000E0ABDFF8B8A2DAF80090B9F1000F00F071
:1018B0003D81A81E09F1FF35CAF80050CCF106059C
:1018C000EDB2C0B2B0FBF8F0A84228BF2846451CD4
:1018D00005EB4505ECB284F07F050B97964F0A9413
:1018E0003E467F5D954CCDF820C087F0DB07655DF7
:1018F000924C16F807C0E75D069C8EEA05058CEA57
:10190000050567408E4C16F805C003948B4C8CEA95
:10191000070614F805C08A4DCDF824C0B5F800A01C
:1019200007960AF10105AFB20AF102051FFA85FC1C
:101930000AF103051FFA85F80AF104051FFA85F973
:1019400006252E46B0FBF5F506FB15004FF4167B79
:101950007C4D079E0295C0B20490774DBAFBFBF018
:101960000BFB10A080B2AD5D0D90099EB7FBFBF0A4
:101970000BFB107087B2BCFBFBF00BFB10C01FFA17
:1019800080FCB8FBFBF00BFB108086EA0508079E85
:10199000CDF8248014F80680049C04EB440580B242
:1019A0005544AEB20E90B9FBFBF00BFB10901FFA42
:1019B00080F90C9664480D9EA52585550A9D019ECB
:1019C000C55500F80C600E9E069D00F806E0660006
:1019D00000F809500A965B4D059EB5F800E0099C99
:1019E000CDF818E04FF0060C0CFB06F64546CDE9A5
:1019F0000D63DDF82C80CDF83CA0D14659E098F875
:101A000003304D4E98F804E001935C4085EA0E05E2
:101A1000365D98F805C06E4009F10707474DBBB227
:101A2000454F2C5DBF5D09938CEA040A87EA0A0AD8
:101A3000424FBB5D089F07930623B7FBF3F603FBFA
:101A400016760D9B1E447B1C0893019B4FEA0E27C4
:101A500009F1050547EA03473C4BADB247EA0C07DD
:101A600043F82670B5FBFBF60BFB165509F106048F
:101A7000ADB2A4B2019B4355B4FBFBF30BFB134384
:101A80009BB2099C00F803E0B4FBFBF32A4E2B4DFC
:101A90000BFB13439BB216F80A40079E00F803C0E5
:101AA00009F1030915F80A5008F103081FFA89F92A
:101AB00074400C9B4B45A2D1A846A1460A9D049CAC
:101AC000DDF83CA0DFF898C00E9B2C44E4B2661D04
:101AD0005AFA86F64FF41677B6B2A51DB6FBF7FE96
:101AE00007FB1E66B6B25AFA85F5ADB200F806904D
:101AF000B5FBF7F607FB1655ADB204F1070B00F87E
:101B00000580DCF80000029C0130CCF8000006984B
:101B100000F01F05013020800D48039C20F815A01F
:101B20005AFA8BF020800B4800F805B00A48059D52
:101B300000244455FFF795BAF8540008F8530008FC
:101B4000BC06002008070020640400207003002069
:101B5000C00600200C070020DC000020F000002060
:101B600004070020022D7FF47CAA97F8019009F168
:101B7000FF30C0B203283FF674AACB4ECB4F38607B
:101B8000306800283FF46DAA0138306089F0210ADE
:101B9000C748C84C10F80A002688DFF83CB380F02C
:101BA0000A00049006F10108301D80B20590C24F72
:101BB000701D84B206943C88DBF8007002940137F3
:101BC000CBF80070BD4F059C17F80AA0CDF80CA00B
:101BD0004FF416701FFA88F8B6FBF0F706F1020E04
:101BE00000FB17671FFA8EFE06F1030C1FFA87FA37
:101BF000B8FBF0F700FB17871FFA8CFC1FFA87F879
:101C0000BEFBF0F700FB17E71FFA87FEBCFBF0F7FF
:101C100000FB17C71FFA87FBB4FBF0F700FB174761
:101C2000069C1FFA87FCB4FBF0F700FB1740029CF0
:101C3000CDF814C004F01F0704F1010C9E4C80B2D3
:101C4000A4F800C0DFF894C206909A4C9C482CF887
:101C5000176006364FF0A50C268000F80AC000F881
:101C60000850019C00F80E4000F80B90DDE9044597
:101C70004455069D039C934E44550620F055FFF7AE
:101C8000F0B9022D7FF4EDA9874E306800283FF4AB
:101C9000E8A901383060874897F801A00688864C8B
:101CA0000390771C4FF4167EBFB2B01C80B2B7FB16
:101CB000FEFC0EFB1C771FFA87FC0294B0FBFEF7BC
:101CC0002488B6FBFEF80EFB17000EFB186887B2DF
:101CD0001FFA88F87A4804940AF001044FF0A50925
:101CE00006944FEA5A0400F80890059400F80C5046
:101CF000CA24019DC5550194734F4FF00109032477
:101D000000254FF0E00B1AE0069D3D703519ADB28D
:101D1000B5FBFEF80EFB1855ADB2013400F805A076
:101D2000634D15F80CB0019D85EA0B0B634D15F85A
:101D30000C500195059DE4B209F101090137B9F193
:101D4000010F8AEA0B0C05F00108DDD0B9F1060F8E
:101D500087F8008000F023816D08EDE707EE906AB8
:101D60009FED5A7A5A48504FF8EE677A67EE877AB5
:101D7000C0ED007A386800283FF465AA0138386061
:101D800086F0610A4A484B4C10F80A00B4F800C0CB
:101D9000DFF844B1484F80F01F0004900CF10400BC
:101DA00080B205900CF1050084B206943C88DBF803
:101DB000007002940137CBF80070404F059C17F873
:101DC0000AA0CDF80CA04FF416700CF101091FFA0F
:101DD00089F9BCFBF0F70CF1020800FB17C71FFAEA
:101DE00088F80CF1030E1FFA87FAB9FBF0F700FB35
:101DF00017971FFA8EFE1FFA87F9B8FBF0F700FB62
:101E000017871FFA87F8BEFBF0F700FB17E71FFAEA
:101E100087FBB4FBF0F700FB1747069C1FFA87FE11
:101E2000B4FBF0F700FB1740029CCDF814E004F07F
:101E30001F0704F1010E204CA4F800E0DFF89CE03D
:101E40001C4C2EF817C080B206900CF1060C1C48F2
:101E5000A4F800C04FF0A50E019C00F80AE000F8BD
:101E6000095000F80840DDE9044500F80B604455CE
:101E7000069D039CDFF84CC0445506200CF8070073
:101E8000FFF7E1B99FED137A67EE877AF5EEC07A36
:101E9000F1EE10FAFFF67DAAFCEEE77ACDED047ABA
:101EA0009DF810E0FFF777BAF0000020DC03002077
:101EB000F8540008BC06002008070020F85300086A
:101EC000640400200C070020680300208180803B10
:101ED0004400002000007F4304070020C0060020CB
:101EE000022D7FF4BEA897F801903E483E4EDFF8E1
:101EF00010C13E4FB9F1000918BF4FF0010980F839
:101F000000904FF0000E3068CCF800E04FF0010C6C
:101F100087F800C000283FF4A4A80138306049F0D9
:101F2000E00A3348334C10F80A002688DFF8D4B0B2
:101F300080F0C000049006EB0C0835E6DFF8C480A2
:101F4000D8F8005006EB040C4FF4167E1FFA8CFCF8
:101F50000135671CC8F80050BCFBFEF50EFB15C52B
:101F6000ADB256FA87F7BFB200F805B0B7FBFEF581
:101F70000EFB1575ADB2019F475505980234029FBF
:101F800000F01F05013038801B4820F815600398C9
:101F900056FA84F6068019484455FFF762B8DFF810
:101FA0006480D8F8005006EB040C4FF4167E1FFA3C
:101FB0008CFC0135671CC8F80050BCFBFEF50EFB1D
:101FC00015C5ADB256FA87F7BFB200F805B0B7FB3A
:101FD000FEF50EFB1575ADB2019F4755023404980E
:101FE000CDE700BF0C030020F000002040000020DF
:101FF000F8540008BC060020C00600200C07002092
:102000001003002004070020B7480368002B00F0ED
:1020100069812DE9F04FDFF8F4C2DFF8F4B29CF8E3
:1020200001609CF80270B14AB1491288013B03601B
:10203000B04B9CF800001D8895B080F0FA0306951F
:10204000AD4D0790E85C1BF803300897704080F0B6
:10205000E7007B402C5C9CF803701BF8000009979C
:1020600063407840EC5C9CF804701BF803300A97DE
:1020700060407B402C5C9CF805701BF800000B97BF
:1020800063407840EC5C0596D51C84EA00071FFA93
:1020900085FE141D75461FFA84FECDF804E002F19A
:1020A000050E941D1FFA8EFE02F10708CDF808E018
:1020B0001FFA84FE02F1010ACDF80CE002F10806D5
:1020C0001FFA88FE1BF803000C9773461FFA8AF765
:1020D0001FFA86FE0097CDF810E09CF806E0874CCA
:1020E000CDF834E080EA0E0ECDF84CE0A4FB02E01F
:1020F00080090E9002F10209009810951FFA89F7E5
:10210000A4FB00EA0F970298A4FB07E9019F26466B
:10211000A4FB05E5A4FB07E4A6FB008E0398A6FB41
:1021200000808009CDE91103049837461E46A7FBBD
:102130000638A7FB0036009F119B4FF416704FEA3C
:102140009A1A00FB1A7A0F9F4FEA991900FB197926
:10215000109FAD0900FB1575019FA40900FB1474C5
:10216000029F4FEA9E1E00FB1E7E039F00FB13731F
:10217000129F4FEA981800FB1878049FB60900FBDD
:1021800016760E9FA4B21FFA88F800FB1727019459
:10219000CDF80880584C1FFA86F80C9ECDF80C80BC
:1021A000BFB214F806800097139F1BF8066088EAF8
:1021B0000708009F1FFA8AFA1FFA89F96FF05A047C
:1021C000CC55ADB2079C4FF00A0701F80A7001F830
:1021D0000940059C4C55019D089C4C551FFA8EFEEC
:1021E000099C01F80E409BB20A9CCC54029B0B9CAC
:1021F000CC54414C9CF807E014F80850039B1BF8A2
:1022000008400D9F9CF80880CF5486EA0E06754062
:10221000394E9CF809903346765D1BF8055084EAE8
:102220000804744089EA05051E5D1BF804A075408A
:1022300002F1090C5C5D314B1BF8056000961FFA3A
:102240008CFCA3FB0C3B4FEA9B1B00FB1BCC2B4BDA
:1022500002F10A071FFA8CFCBFB201F80CE0A3FBE5
:1022600007EC4FEA9C1C00FB1C7702F10B06BFB287
:10227000B6B201F80780A3FB06C7BF0900FB1766CB
:102280008AEA040A02F10C0502F10D04B6B2A4B206
:10229000ADB201F80690A3FB0576A3FB0473B60963
:1022A0009B0900FB165500FB1343ADB29BB2009E89
:1022B00001F805A0CE540D49069D114C02F10E0304
:1022C0000B800C496B1C0B800E4905F01F000B683E
:1022D00024F810200C4A0E24013314540B6015B05E
:1022E000BDE8F08F704700BFF0000020BC06002062
:1022F0006404002008070020F8540008B5814E1B34
:10230000C0060020040700200C070020580400200D
:10231000F853000810B54FF4A06084B002F0AEFA94
:10232000174B184C0FCBEC468CE80F00164B174997
:10233000196062462046002102F0A8FC00221146E6
:10234000204602F0E9FD20466022002102F0BCFD9B
:1023500008222046002102F0EDFD2046012102F076
:102360008BFC4FF48071204602F082FC204602F084
:1023700077FC002211460A2002F030FA04B010BDAA
:10238000D0530008004401402000002034440140A4
:10239000F8B5354D354C2F68267810214FF0904018
:1023A00002F074F8003818BF0120864203D00023E1
:1023B0002070676023722E48267B2F68042102F06C
:1023C00065F8003818BF0120864203D0002320732F
:1023D0002761237520214FF09040267E2F6802F060
:1023E00055F8003818BF0120864204D0002320761B
:1023F000E76184F820301E4894F824602F68022199
:1024000002F044F8003818BF0120864205D00023AE
:1024100084F82400A76284F82C3040214FF09040CB
:1024200094F830602F6802F031F8003818BF0120AE
:10243000864205D0002384F83000676384F8383082
:102440000B482E6894F83C50012102F01FF8003828
:1024500018BF0120854205D0002384F83C00266483
:1024600084F84430F8BD00BF400400201C03002065
:10247000000400482DE9F04F6C4C6D4B2278A3FB13
:1024800002139B0803EB4303A2EB4303DBB28BB0C5
:1024900058006849019003EB430001EB80052D7A59
:1024A000A5B98000644E0F5C64485D1CEDB20195D7
:1024B0004570356887704FF0010101705DB95800B3
:1024C0005C49184401EB800101230B720132227038
:1024D0000BB0BDE8F08F01980597013D356080F0A5
:1024E000A00A574D574815F80AC00088564E87EA8B
:1024F0000C0C8CF0D30C00F1010815F80CB000F1B5
:1025000003091FFA88F50295871C1FFA89F50395C0
:102510001FFA87F8051D4D4F41461FFA85F8CDF883
:10252000108017F80A8017F80CC0CDF81CC088EA94
:102530000B0CCDF818C0A6FB00C7BF090897029F77
:102540000991A6FB07C8A6FB01C70399A6FB01C911
:102550000499451D00F1060EA6FB01CB1FFA8EFE65
:102560000299ADB2A6FB05CA4FEA9818A6FB0E6CFD
:102570004FF4167606FB18180999BF0906FB1717C2
:1025800003994FEA991906FB191904994FEA9A1A07
:102590004FEA9B1B06FB1B1B06FB1A5508991FFAEB
:1025A00085FA4FEA9C1C2A4D06FB1CEC1FFA88F8A2
:1025B00006FB11062749CDF808801FFA86FE1FFA90
:1025C00087F82E68CDF80C80B1F80080224F0136D4
:1025D0002E6008F01F05214E26F81500194E073011
:1025E000308008F10108A52607F80E60A1F80080E8
:1025F00002991B4803267E541FFA89F90399019E0C
:102600001FFA8BFB4FF0010E07F801E007F8096095
:10261000059E07F80B601FFA8CFC069E07F80A60FF
:10262000079907F80C100726465548E714030020C1
:10263000ABAAAAAA1C030020F00000201803002067
:10264000F8540008BC060020B5814E1BF853000862
:10265000040700200807002064040020C0060020B2
:102660000C0700202DE9F04FDFF8ECA2DFF8EC9228
:10267000AE4D83B01AF8013B73B1AD4B05F58065E3
:102680009D4209F11809F5D1AA4D2C78002C00F0D3
:10269000948003B0BDE8F08F01F0C4FC202001F06D
:1026A00051FD102001F04EFDA5F11806042001F0A7
:1026B00049FD304601F0CEFC202001F043FD102002
:1026C00001F040FDFF240420DFF894829A4F01F0CE
:1026D00039FDA34601F0B6FC4A4652F8041B0192AC
:1026E00084EA1144E0B2009118F80040385C84EAB2
:1026F00011248BEA0403DBB2484018F80340604021
:10270000C0B2FC5C18F8003017F800B05C4001F073
:1027100089FC202001F016FD102001F013FD04209B
:1027200001F010FD0099304601F0CEFC202001F0B0
:1027300009FD102001F006FD0436042001F002FD21
:1027400001F080FCB542019AC7D101F06BFC20205A
:1027500001F0F8FC102001F0F5FC042001F0F2FC7F
:102760002146284601F0B0FC202001F0EBFC1020AF
:1027700001F0E8FC042001F0E5FC01F063FC01F04D
:1027800051FC202001F0DEFC102001F0DBFC0420D5
:1027900001F0D8FC5946281D01F096FC202001F0DC
:1027A000D1FC102001F0CEFC042001F0CBFC01F0A4
:1027B00049FC01230AF8013C5FE701F033FC2020CB
:1027C00001F0C0FC102001F0BDFC042001F0BAFCB7
:1027D0005A4801F03FFC202001F0B4FC102001F029
:1027E000B1FC042001F0AEFC01F02CFC544A554B26
:1027F000D2ED007A1E78B7EE007AF4EEC77AF1EEE9
:1028000010FA7AD94022DFF858814B4F13467340B3
:10281000DB43DBB218F8031017F8038082EA0107E4
:1028200001F000FC202001F08DFC102001F08AFC5A
:10283000042001F087FC2146404801F045FC20209F
:1028400001F080FC102001F07DFC042001F07AFCF6
:1028500001F0F8FB01F0E6FB202001F073FC1020F2
:1028600001F070FC042001F06DFC3146364801F0A7
:102870002BFC202001F066FC102001F063FC0420FA
:1028800001F060FC01F0DEFB01F0CCFB202001F048
:1028900059FC102001F056FC042001F053FC39468D
:1028A0002A4801F011FC202001F04CFC102001F01E
:1028B00049FC042001F046FC01F0C4FB01F0B2FB2E
:1028C000202001F03FFC102001F03CFC042001F02E
:1028D00039FC41461E4801F0F7FB202001F032FC94
:1028E000102001F02FFC042001F02CFC01F0AAFBC9
:1028F00001232B7003B0BDE8F08F9FED167A67EED1
:10290000877AF5EEC07AF1EE10FAFFF67BAFFCEEB7
:10291000E77ADFF84C80CDED007A9DF80040064F55
:10292000E243D2B218F80230BA5C70E718C000086F
:1029300018D00008E0000020F853000800D000087C
:1029400044000020D900002004D0000808D000086E
:102950000CD0000800007F43DC0000207003002042
:10296000F85400082DE9F0417E487F497F4B804AAA
:10297000804C814DD1F800C0C0F800C06FEA1C4601
:10298000F6B29F5D965D87EA1C27FF43FFB286EA99
:102990000C0613F807E0D1F804C0D75DC0F804C0F6
:1029A00086EA0E06F6B287EA1C4713F806E08EEABE
:1029B000070E5FFA8EFE975D13F80E6087EA1C27FC
:1029C0007740FFB212F80E6013F807E086EA0C06B3
:1029D00086EA0E06F6B2D1F808E012F807C09F5D4D
:1029E000C0F808E08CEA1E4C87EA0C07FFB212F828
:1029F00006C0DE5D8CEA1E2C8CEA060C5FFA8CFCAD
:102A0000D65D13F80C7012F80CC086EA0E067E40F4
:102A1000F6B2CF6813F806E0C7608CEA174C8EEA6E
:102A20000C0E5FFA8EFE12F806C013F80E608CEAE8
:102A3000172C8CEA060C5FFA8CFC12F80E6013F867
:102A40000CE012F80C807E4086EA0E06F6B213F80F
:102A500006C012F806E00F69076188EA17468CEA9B
:102A60000606F6B28EEA172E13F8068012F806C094
:102A70004E6946618EEA080E5FFA8EFE8CEA070CFC
:102A800013F80E7012F80EE08CEA070C5FFA8CFC5B
:102A90008EEA164E13F80C7012F80CC087EA0E0777
:102AA000FFB28CEA162C13F807E0D75D8CEA0E0C07
:102AB0005FFA8CFC774013F80CE012F80CC08E69BA
:102AC00087EA0E07FFB213F807E08CEA0E0CB44554
:102AD00025D0C0E90044C0E90244C0E9044401F53E
:102AE0008061A94200F118007FF444AFD1E900549D
:102AF000FF2D8E6818D8EDB2E843C0B2195C105CA7
:102B0000FF2C9CBFE4B261406FEA0101C9B288BFEB
:102B100000245B5C5840B0420AD0BDE8F081D75D2C
:102B2000CE69B742D5D1DAE7402001460025E7E774
:102B3000114B525CDB689A42EFD107EE905A9FED41
:102B40000F7A0F490F4AF8EE677AA4F1010367EE96
:102B5000877AB3FA83F35B09C1ED007A1370BDE89D
:102B6000F08100BF7003002000C00008F854000886
:102B7000F85300087777770000D000088180803B09
:102B800044000020D9000020F8B54F4B4F491B7876
:102B90004F485BB101F0DEFD20B34E4B4C48197835
:102BA0006FF00102BDE8F84001F098BD01F0D2FDE0
:102BB000044638B1474B464819780122BDE8F84031
:102BC00001F08CBD4449424801F0C4FD054610B3F4
:102BD000424B1B68012B42D0BDE8F8403E493C48BF
:102BE00001F0E6BD3C493A4801F0B4FD0028F3D1BC
:102BF0003B49374801F0AEFD60B13A4D374B2C8868
:102C00001B68A34230DD384B31481978013401F09C
:102C10007FFD2C80F8BD314E34492D48346801F0D9
:102C200099FD0028F6D0022C32D0012C35D02D4F42
:102C300027483D88013C346001F06CFD05F001033C
:102C40002B4A2A49D054012D08BF2A4B204808BFDF
:102C50001D7001353D80BDE8F84001F0A9BD1C485C
:102C6000214601F02FFDB7E7194801F04BFD184848
:102C70004FF4847101F060FD15484FF4857101F047
:102C80005BFDBDE8F840124840F2091101F054BD67
:102C90000F48294601F016FDC9E70D4801F032FD45
:102CA00029460B4801F014FD09484FF4847101F0E6
:102CB00043FD07484FF4857101F03EFD044840F2A2
:102CC000091101F039FDB2E70103002009010005F7
:102CD0000054004000030020090101050803002002
:102CE0000901070506030020040300200901060569
:102CF0003C0400206403002008B50F480F4901F090
:102D000057FD0F490C4801F053FD0E490A4801F0E8
:102D10004FFD0D49084801F04BFD0C49064801F0F4
:102D200047FD0B49044801F043FDBDE8084009494F
:102D3000014801F03DBD00BF0054004008010A05F4
:102D400008010F0508010E0508010B05080109051A
:102D50000801080508010C05F0B54C484C4B4D49DD
:102D60004D4A90ED007ADFED4D7A1B7809781268B4
:102D700067EE277A83B0002B40F03482484D494BF0
:102D8000A968D5E9004001EB410104EB440400EBE4
:102D9000400003EB800003EB810103EB840400227D
:102DA00022606260A2600260426082600A604A60E3
:102DB0008A60D5E9030100EB400001EB410103EB20
:102DC000810103EB80000260426082600A604A6019
:102DD0008A60696901EB410103EB81010A604A6085
:102DE0008A60314C2678002E00F0F5812F4F304953
:102DF00038689FED305A81FB00E202444FEAE07CE4
:102E0000CCEBA21CCCEB0C1C2B4AA0EBCC0C02EBA9
:102E10008C0C9CED006AFCEEC66AF7EE007A16EEAA
:102E2000902A92B2A1FB02C14FEA511CCCEB0C1CC0
:102E3000A2EB8C0292B207EE102A77EEC67A4A090C
:102E40001E4967EE867AB8EE477AA1FB02C176EE9C
:102E5000675A27EE057A890801EB410127EE257AAA
:102E6000A2EB410292B277EE876A002A40F0C48258
:102E7000782800F0D382013038601148114A124C92
:102E800000F1180C4FF07E5E63E000BF44000020AC
:102E9000D90000206E030020DC0300208180803BED
:102EA000A8000020E00300204000002010030020C4
:102EB000898888888988883CF8550008ABAAAAAA1E
:102EC000C0000020480000201C03002000007F43B9
:102ED000CEB3176855F8277007EB470703EB870752
:102EE000012987ED006AC7ED016AC7ED027A2AD091
:102EF000576855F8277007EB470703EB8707022948
:102F000087ED006AC7ED016AC7ED027A1BD09768AA
:102F100055F8277007EB470703EB8707032987ED71
:102F2000006AC7ED016AC7ED027A0CD0D16855F886
:102F3000211001EB410103EB810181ED006AC1ED3C
:102F4000016AC1ED027A604502F1100204F10C043D
:102F500046D050F8041B0029F5DD2778002FB7D0A4
:102F6000176855F8277007EB470703EB8707012918
:102F7000C7F800E0C7F804E0C7F808E0E3D05768F6
:102F800055F8277007EB470703EB87070229C7F8B7
:102F900000E0C7F804E0C7F808E0D4D0976855F817
:102FA000277007EB470703EB87070329C7F800E003
:102FB000C7F804E0C7F808E0C5D0D16855F821107B
:102FC00001EB410103EB81016045C1F800E0C1F86C
:102FD00004E0C1F808E002F1100204F10C04B8D1D9
:102FE0005FED467A93ED000AD3ED020A93ED041AE1
:102FF000D3ED031A93ED052AD3ED072ABB4A93EDCF
:10300000063AD3ED083A93ED0A4AD3ED094A93ED17
:10301000017A93ED0B5AD3ED0D5A93ED0C6AD3ED73
:103020000E6A20EE270A60EEA70ABCEEC00AFCEE8C
:10303000E00A21EE271A61EEA71A10EE101A10EE20
:10304000904ABCEEC11AFCEEE11A22EE272A62EE8B
:10305000A72A5170947011EE101A11EE904ABCEE2E
:10306000C22AFCEEE22A23EE273A63EEA73AD17099
:10307000147112EE101A12EE904ABCEEC33AFCEE36
:10308000E33A24EE274A64EEA74A5171947113EE95
:10309000101A13EE904ABCEEC44AFCEEE44A27EE46
:1030A000277A25EE275A65EEA75AD171147214EECD
:1030B000101A14EE904ABCEEC55AFCEEE55ABCEE6E
:1030C000C77A26EE276A66EEA76A5172947215EEE9
:1030D000101A15EE904ABCEEC66A8DED017AFCEE30
:1030E000E66A93ED107AD172147316EE101A16EE8A
:1030F000904A27EE277A9DF8040010705173BCEEB9
:10310000C77A9473D3ED0F6A17EE101A66EEA76AAA
:1031100093ED117AD17310F0800F0CBF4FF0190CA2
:103120004FF04B0C67EE277A10F0400FBCEEE67ABA
:103130000CBF19274B2710F0200F17EE103A0CBFC9
:1031400019264B2610F0100F0CBF19244B2410F039
:10315000080F137408BF1921654B18BF4B2110F0DD
:10316000040F0CBF19254B2510F0020FFCEEE77A77
:103170001971DC700CBF19214B215E4C997110F054
:10318000010F14BF4B21192183F800C05F709E709E
:103190005D71D971E360584917EE903A012053747C
:1031A000088009210220A16100F066FE214602206C
:1031B00000F084FE022000F0C3FE5048002101F020
:1031C00055FD0221084600F0DFFE022003B0BDE8F5
:1031D000F04000F0CDBEDFED4A7AF0EE676AB0EE67
:1031E000676A4AE6002940F097804649464D0B78C9
:1031F0002868002B40F04181444B00EB400003EB7A
:103200008000002404604460846068684C7800EBAF
:10321000400003EB8000002C00F0CD813C4C647832
:10322000002C40F0C8813B4C02EB420604EBC60484
:103230006468C4F3074607EE106AB8EEC77AC4F3B1
:10324000072627EE277AE4B206EE906A80ED007A30
:1032500007EE104AF8EEE66AB8EEC77A66EEA76A9D
:1032600027EE277AC0ED016A80ED027AA8688C7893
:1032700000EB400003EB800024B1254CA478002C27
:1032800000F051810024046044608460E868CC78D8
:1032900000EB400003EB800024B11D4CE478002CCF
:1032A00000F06581002404604460846028690C7922
:1032B00000EB400003EB800024B1154C2479002C76
:1032C00000F00D81002404604460846048796969DD
:1032D00018B10F484079002866D001EB410103EB9B
:1032E000810200201060506090607AE54404002064
:1032F00030040020200000203A0400200044014057
:1033000000000000D0030020A8000020E0030020FF
:103310006803002070030020CD49CE4D0B7828684B
:10332000002B40F08280CC4B00EB400003EB800090
:10333000002404604460846068684C7800EB4000BE
:1033400003EB8000002C40F0B38100240460446053
:103350008460A8688C7800EB400003EB8000002CB0
:1033600040F082810024046044608460E868CC7886
:1033700000EB400003EB8000002C40F0458100246E
:1033800004604460846028690C7900EB400003EB22
:103390008000002C40F014810024046044608460AC
:1033A00048796969002898D0AC4802EB420200EBEA
:1033B000C20201EB4101506903EB8102C0F30741F6
:1033C00006EE101AC0F30721C0B206EE901A07EEFF
:1033D000100AB8EEC66AF8EEE66AB8EEC77A26EECC
:1033E000276A66EEA76A67EE277A82ED006AC2ED69
:1033F000016AC2ED027AF4E4012A36EE477A69D016
:10340000022A00F07981032A00F08581042A00F065
:103410007D81F0EE676AF0EE477A29E5904A1278EE
:10342000002A7FF428AD227025E58C4B02EB420484
:1034300000EB400053F83440874BC4F3074607EED7
:10344000106AB8EEC77A03EB800027EE277AC4F340
:103450000726E4B206EE906A80ED007A07EE104A85
:10346000F8EEE66AB8EEC77A66EEA76A27EE277A24
:10347000C0ED016A80ED027A5EE77A4B1B78002B83
:103480007FF4BAAE754B02EB420400EB400053F8F8
:103490003440714BC4F3074607EE106AB8EEC77AA2
:1034A00003EB800027EE277AC4F30726E4B206EE8A
:1034B000906A80ED007A07EE104AF8EEE66AB8EE00
:1034C000C77A66EEA76A27EE277AC0ED016A80ED1B
:1034D000027A9AE6F0EE466AB0EE476AC8E45F4CBC
:1034E00002EB420604EBC6042469C4F3074607EE68
:1034F000106AB8EEC77AC4F3072627EE277AE4B23B
:1035000006EE906A80ED007A07EE104AF8EEE66A61
:10351000B8EEC77A66EEA76A27EE277AC0ED016A91
:1035200080ED027AD2E64D4C02EB420604EBC60473
:10353000A468C4F3074607EE106AB8EEC77AC4F36E
:10354000072627EE277AE4B206EE906A80ED007A2D
:1035500007EE104AF8EEE66AB8EEC77A66EEA76A9A
:1035600027EE277AC0ED016A80ED027A8EE63B4CA9
:1035700002EB420604EBC604E468C4F3074607EE18
:10358000106AB8EEC77AC4F3072627EE277AE4B2AA
:1035900006EE906A80ED007A07EE104AF8EEE66AD1
:1035A000B8EEC77A66EEA76A27EE277AC0ED016A01
:1035B00080ED027A7AE6002404604460846055E677
:1035C000264C02EB420604EBC6042469C4F307460A
:1035D00007EE106AB8EEC77AC4F3072627EE277AFB
:1035E000E4B206EE906A80ED007A07EE104AF8EE3B
:1035F000E66AB8EEC77A66EEA76A27EE277AC0EDCC
:10360000016A80ED027ACBE6144C02EB420604EB31
:10361000C604E468C4F3074607EE106AB8EEC77A3A
:10362000C4F3072627EE277AE4B206EE906A80ED0F
:10363000007A07EE104AF8EEE66AB8EEC77A66EE50
:10364000A76A27EE277AC0ED016A80ED027A9AE632
:10365000D0030020A8000020E00300207003002019
:103660000C03002068030020304C02EB420604EB00
:10367000C604A468C4F3074607EE106AB8EEC77A1A
:10368000C4F3072627EE277AE4B206EE906A80EDAF
:10369000007A07EE104AF8EEE66AB8EEC77A66EEF0
:1036A000A76A27EE277AC0ED016A80ED027A5DE60F
:1036B0001E4C02EB420604EBC6046468C4F30746E2
:1036C00007EE106AB8EEC77AC4F3072627EE277A0A
:1036D000E4B206EE906A80ED007A07EE104AF8EE4A
:1036E000E66AB8EEC77A66EEA76A27EE277AC0EDDB
:1036F000016A80ED027A2CE6B0EE467AB0EE676A97
:10370000F0EE667AF0EE476AFFF7B2BBB0EE467AAB
:10371000B0EE666A7DE6F0EE465AF0EE476AB0EE2D
:10372000676AF0EE657AFFF7A3BB00BF7003002065
:1037300070B50221012000F031FC00285CD102218B
:10374000084600F02BFC00B970BD2F4D012102206E
:1037500000F05EFC2C88112CF6D82C4B2C4E1957FF
:103760001A5D2C4BF3600029ACBF19214B2112F0DC
:10377000400F19700CBF19214B2112F0200F597006
:103780000CBF19214B2112F0100F99700CBF192199
:103790004B2112F0080FD9700CBF19214B2112F0E8
:1037A000040F19710CBF19214B2112F0020F59712E
:1037B0000CBF19214B2112F0010F14BF4B2219220B
:1037C0009971DA7102200922B26100F055FB31468D
:1037D000022000F073FB022000F0B2FB0E48002133
:1037E00001F044FA0221084600F0CEFB0134022029
:1037F00000F0BEFB2C8070BD0121084600F008FCE3
:10380000064B00221A709AE73A0400204404002074
:10381000200000203004002000440140C40B0020A0
:103820002DE9F0474FF0E023B84AB9495961F0213A
:10383000002482F82310B74E9C61072284B01A61DD
:103840004FF4C26001F01AF8304601F02BF9B24B88
:10385000B24DDFF8E092DFF8E0820FCB6F4687E8E9
:103860000F003946304601F083F9304601F0F8F98F
:10387000AB4B6FF03A02D3F8E017D3F8AC07D3F8AC
:10388000B067D3F8B4A74FF6FF73FCF761FC50465E
:10389000314692461E466FF03A024FF6FF73FCF730
:1038A00057FCA04973408AEA02020B711B0A0A60A6
:1038B0004B7140F2125000F0E1FF214628464023B0
:1038C000032200F0F7FC402322462846022100F0A4
:1038D0003FFC21464022284600F0DEFD40F2125017
:1038E00000F0CCFF214628468023032200F0E2FCB2
:1038F000802322462846022100F02AFC2146284641
:10390000802200F0C9FD884B884A1A604FF4A060FD
:1039100000F0B4FF224621461B2000F05FFF012289
:1039200021460A2000F05AFF40F20E6000F0A6FF88
:10393000FDF718FB40F2116000F0A0FF484601F0CF
:10394000B1F83946642348460293CDE900448DF826
:103950000C4001F00DF9484601F082F940F2125096
:1039600000F08CFF214628464FF48073032200F0BC
:10397000A1FC4FF4807322462846022100F0E8FBA8
:103980004FF480720221284600F086FDFEF7C2FC4B
:1039900040F2115000F072FF2146102303224FF035
:1039A000904000F087FC2146102302224FF0904007
:1039B00000F0CEFB40F2125000F060FF2146284696
:1039C0000423032200F076FC214604230222284629
:1039D00000F0BEFB40F2115000F050FF21462023C2
:1039E00003224FF0904000F065FC21462023022284
:1039F0004FF0904000F0ACFB40F2125000F03EFF60
:103A0000214628460223032200F054FC02231A46D2
:103A10002146284600F09CFB40F2115000F02EFF9A
:103A20002146402303224FF0904000F043FC214602
:103A3000402302224FF0904000F08AFB40F21250E7
:103A400000F01CFF214628460123032200F032FC2F
:103A5000214601230222284600F07AFBFEF782FF6E
:103A600040F2115000F00AFF21464FF48063032218
:103A70004FF0904000F01EFC4FF48063224602217C
:103A80004FF0904000F064FB4FF4806204214FF04F
:103A9000904000F001FD40F2115000F0EFFE214691
:103AA0004FF4007303224FF0904000F003FC4FF4FA
:103AB0000073224602214FF0904000F049FB4FF482
:103AC000007204214FF0904000F0E6FC40F21570C7
:103AD00000F0D4FE22464046154900F04FFD234633
:103AE00022462146404600F0DFFD404600F0FEFD44
:103AF00022460221172000F071FE0122022120201F
:103B000004B0BDE8F04700F069BE00BF00ED00E082
:103B10001E48010000400140C05300080004004856
:103B200000F0FF1F2804002000000020283801407A
:103B3000801A060000440140005400402DE9F04F77
:103B40008FB00023CDE90A33CDE90833CDE9053341
:103B5000B24CDFF808A3DFF80893DFF80883DFF83A
:103B600008B3AF4F0C93049302930793039301930D
:103B7000012579E0019BF11AB1F5FA7F05D3A94B34
:103B80000196197881F001011970B2F57A7F80F001
:103B9000FA80039BF21A312A07D9A34B1A78002A1C
:103BA00000F03A81FCF7C0FC0396079BF21A43F63B
:103BB00097239A4200F20E81089B43F6A622F11A3F
:103BC000914200F2E380099B43F6C422F11A91422C
:103BD00000F2B180029B43F6C522F11A914207D947
:103BE000924B1A780AB1FCF77BFFA6F12E030293E1
:103BF0000A9B44F29422F11A914278D80B9B44F22A
:103C0000E922F11A91424AD8049B44F2EA22F11ABD
:103C1000914207D9854B1A780AB1FDF743F8A6F609
:103C2000530304930C9BF21A202A34D8FDF7E2F9CF
:103C30007F4B1B780BB9FCF70DFC2268DBF80030DA
:103C4000D31A012B0ED9CBF800207A4A0023138017
:103C5000794A1380794A1360794A1370794A4FF48C
:103C600096731360FEF706FC2668069BF21AB2F5FF
:103C70007A7F0AD2059BF11A09297FF67BAF0D9254
:103C8000FEF786FB0D9A059674E70D92FEF7BCF9D8
:103C90000D9A0696EEE7FFF75FF80C96C6E7634BC2
:103CA00000221A70684B88F800201A8002224FF414
:103CB00080613846CAF80020802289F8002000F090
:103CC00001FD40F20911384600F028FD4FF48571DE
:103CD000384600F023FD4FF48471384600F01EFD95
:103CE000384600F009FDA6F652030B938CE7574BBC
:103CF000CAF800501A78564B88F800501A70524B88
:103D0000802240F20911384689F8002000221A80EA
:103D100000F004FD4FF48571384600F0FFFC4FF4CD
:103D20008471384600F0FAFC384600F0E5FCA6F253
:103D3000FD730A9362E73D4B00221A70424B88F8EC
:103D400000201A8002224FF480613846CAF8002011
:103D5000802289F8002000F0B5FC40F209113846B5
:103D600000F0DCFC4FF48571384600F0D7FC4FF4CE
:103D70008471384600F0D2FC384600F0BDFCA6F154
:103D80002D03099326E7FEF76DFC02E7314BCAF8D5
:103D900000501A782E4B88F800501A702A4B802257
:103DA00040F20911384689F8002000221A8000F0FC
:103DB000B5FC4FF48571384600F0B0FC4FF48471C7
:103DC000384600F0ABFC384600F096FCA6F10F0335
:103DD0000893F8E6204BCAF800501A781C4B88F874
:103DE00000501A70184B802240F20911384689F8A9
:103DF000002000221A8000F091FC4FF485713846B3
:103E000000F08CFC4FF48471384600F087FC384693
:103E100000F072FC0796CFE60396C6E64004002049
:103E2000005400406E030020D800002064030020EE
:103E3000C40B00205C0900206409002060090020F8
:103E40002D080020F800002006030020E8000020D4
:103E500004030020E4000020EC0000200803002000
:103E600000030020010300206809002008B5FFF7C7
:103E7000D7FCFFF763FE00BF00EB80039B000D49FA
:103E80005A5810B422F001020B4C5A5000225A50DA
:103E90001A51083108345A501A51800051F80C2C2C
:103EA0005DF8044B0F2303FA00F0104341F80C0CAB
:103EB000704700BF080002400C00024000EB800089
:103EC00080001D4BC25822F0010230B4C2501B4A80
:103ED0000C6884500432CC688450083A0C8B8450AF
:103EE000C4584A680D6924F47C5CCC692A43224397
:103EF00042EA0C02C2500A7A012AC2580CBF42F0B0
:103F0000400222F04002C2500A7D012AC2580CBF72
:103F100042F0800222F08002C2504A7D2AB9C25883
:103F200022F0100230BCC2507047C25842F010025A
:103F300030BCC250704700BF080002401000024071
:103F400000EB8000034A8000835823F02003835055
:103F5000704700BF0800024000EB8000034A800069
:103F6000835823F480438350704700BF0800024009
:103F700000EB8000034A8000835843F00103835024
:103F8000704700BF0800024000EB8000024A80003A
:103F9000835819438150704708000240042930B407
:103FA00006D0082924D0022915D0002030BC704743
:103FB00082001318144C154824689B001B5801FA02
:103FC00002F0204003F004010028EFD0081E18BFC3
:103FD000012030BC7047820013180B4C0B4824683A
:103FE0009B001B5801FA02F0204003F00201EBE7AE
:103FF000820010448300044D044C28681B599140F2
:10400000084003F00801DFE700000240080002401A
:10401000034B80005A68814011435960704700BFCC
:1040200000000240044B1A69120603D50349044AF2
:1040300059605A60704700BF002002402301674565
:10404000AB89EFCD024A136943F0800313617047D7
:10405000002002401B4A4FF47023D168C90723D4C3
:10406000D368DB0628D4D368590727D413691549C8
:1040700043F0020313615061106940F040004FF4B7
:1040800070231061CA68D20712D4CB68DB0617D43C
:10409000CB6813F0040F0CBF00200220094A1369FB
:1040A00023F0020313617047013BD6D1042070470F
:1040B000013BE7D10420F1E703207047022070475D
:1040C0000320EBE70020024010B41D4A4FF4702398
:1040D000D468E40721D4D368DB0628D4D3685C070E
:1040E00029D41369164C43F0010313614FF4702374
:1040F0000160E268D20716D4E368DB061DD4E368EA
:1041000013F0040F0CBF002002200D4A136923F0A6
:10411000010313615DF8044B7047013BD8D10420C3
:104120005DF8044B7047013BE3D10420EDE7032029
:104130005DF8044B70470220ECE70320E5E700BF81
:1041400000200240014BD860704700BF00200240B1
:1041500013F0010F30B40568C46806D025F0030CD5
:1041600024F003044CEA0105144313F0020F07D0B6
:1041700025F00C0C24F00C044CEA810544EA82047E
:1041800013F0040F07D025F0300C24F030044CEA73
:10419000011544EA021413F0080F07D025F0C00CF3
:1041A00024F0C0044CEA811544EA821413F0100F85
:1041B00007D025F4407C24F440744CEA012544EAFD
:1041C000022413F0200F07D025F4406C24F440643F
:1041D0004CEA812544EA822413F0400F07D025F4ED
:1041E000405C24F440544CEA013544EA023413F0B4
:1041F000800F07D025F4404C24F440444CEA81352C
:1042000044EA823413F4807F07D025F4403C24F440
:1042100040344CEA014544EA024413F4007F07D0DD
:1042200025F4402C24F440244CEA814544EA82449D
:1042300013F4806F07D025F4401C24F440144CEA9A
:10424000015544EA025413F4006F07D025F4400CE2
:1042500024F440044CEA815544EA825413F4805F0C
:1042600007D025F0407C24F040744CEA016544EA14
:10427000026413F4005F07D025F0406C24F0406422
:104280004CEA816544EA826413F4804F07D025F03C
:10429000405C24F040544CEA017544EA02741B046B
:1042A00044BF61F39F7562F39F740560C46030BCC6
:1042B000704700BF012941684FF6FF7C0CBF1943CE
:1042C00099434160624581686DD013F0010F1CBFB6
:1042D00021F00301114313F0020F1CBF21F00C0168
:1042E00041EA820113F0040F1CBF21F0300141EAC2
:1042F000021113F0080F1CBF21F0C00141EA821126
:1043000013F0100F1CBF21F4407141EA022113F099
:10431000200F1CBF21F4406141EA822113F0400FBD
:104320001CBF21F4405141EA023113F0800F1CBF41
:1043300021F4404141EA823113F4807F1CBF21F413
:10434000403141EA024113F4007F1CBF21F44021B7
:1043500041EA824113F4806F1CBF21F4401141EA0D
:10436000025113F4006F1CBF21F4400141EA825155
:1043700013F4805F1CBF21F0407141EA026113F425
:10438000005F1CBF21F0406141EA826113F4804F5D
:104390001CBF21F0405141EA02711B0448BF62F387
:1043A0009F7181607047C26B13F0010F1CBF41F019
:1043B000030142F0010213F0020F1CBF41F00C0197
:1043C00042F0020213F0040F1CBF41F0300142F032
:1043D000040213F0080F1CBF41F0C00142F00802B4
:1043E00013F0100F1CBF41F4407142F0100213F0A3
:1043F000200F1CBF41F4406142F0200213F0400F37
:104400001CBF41F4405142F0400213F0800F1CBF2A
:1044100041F4404142F0800213F4807F1CBF41F41C
:10442000403142F4807213F4007F1CBF41F44021FC
:1044300042F4007213F4806F1CBF41F4401142F447
:10444000806213F4006F1CBF41F4400142F400622B
:1044500013F4805F1CBF41F0407142F4805213F4AA
:10446000005F1CBF41F0406142F4005213F4804FE2
:104470001CBF41F0405142F480421B0444BF41F054
:10448000404142F400428160C263704703690B42BD
:1044900014BF01200020704710B4046A436A12F070
:1044A000010F1CBF24F00F040C4312F0020F1CBFBD
:1044B00024F0F00444EA011412F0040F1CBF24F4A9
:1044C000706444EA012412F0080F1CBF24F4704405
:1044D00044EA013412F0100F1CBF24F4702444EAA3
:1044E000014412F0200F1CBF24F4700444EA01546C
:1044F00012F0400F1CBF24F0706444EA016412F013
:10450000800F18BF61F31F7412F4807F1CBF23F06B
:104510000F030B4312F4007F1CBF23F0F00343EAA8
:10452000011312F4806F1CBF23F4706343EA01236C
:1045300012F4006F1CBF23F4704343EA013312F4FA
:10454000805F1CBF23F4702343EA014312F4005F31
:104550001CBF23F4700343EA015312F4804F1CBFC5
:1045600023F0706343EA0163120448BF61F31F73D1
:1045700004625DF8044B4362704700BFF8B505461E
:1045800002200C46164600F0A5F9424B424FA3FB11
:1045900000236A689B0CB84294BF19463F2122F061
:1045A0003F020A436A603D4A944212D801333E2BCF
:1045B00056D8022B98BF02232B626400B0FBF4F0A4
:1045C0000428EB6938BF0420C0F30B001843E861EE
:1045D000F8BD334B9C4222D8324A4FF4967301FB0C
:1045E00003F3A2FB03239B0901332B62EA69002E2C
:1045F00039D122F4804204EB4404EA61B0FBF4F0C8
:1046000005F11C03C0F30B020AB940F001001A685F
:1046100042F400421A601C6820431860F8BDC1EBE8
:1046200001132049DB00A1FB03239B0901332B620B
:10463000EA692EB342F4804204EB840405F11C03C2
:10464000EA6104EB8404B0FBF4F41A6842F400421B
:104650001A601868012104431C60C5F89010F8BD69
:104660003F232B62A9E742F4804204EB840404EB6D
:104670008404EA61B0FBF4F005F11C030246C3E7D1
:1046800022F4804204EB440405F11C03EA61B0FB10
:10469000F4F4DAE783DE1B43BF4DC103A0860100BB
:1046A000801A0600D34D621010B40468C3F30903E6
:1046B00024F002040C43134304605DF8044B836050
:1046C000704700BF036823F480631943016070479B
:1046D000036823F4006319430160704702320CBF82
:1046E00021F0010141F0010101617047036843F0CD
:1046F00001030360704700BF036843F480730360E5
:10470000704700BF036843F400730360704700BF45
:10471000016170470069C0B2704700BF8A0910B4D8
:1047200001F01F011458012303FA01F12143115034
:104730005DF8044B704700BF4FEA911C01225CF802
:10474000003001F01F0102FA01F123EA01014CF8E7
:1047500000107047C1F3891270B4466815588A0D6D
:1047600001F01F031458012202FA03F0C1F30443BD
:104770009A400E4B21F48031994200EA050002EA8A
:10478000040205D072B1003818BF012070BC704718
:104790000028FBD016F48060F8D0101E18BF01204E
:1047A00070BC7047104670BC704700BF0901060519
:1047B000094B99420DD04FEA915C01225CF8003020
:1047C000C1F3044102FA01F123EA01014CF800109F
:1047D0007047436983697047090101051E4BDB6817
:1047E00003F4E063B3F5A06F10B42CD01BD9B3F57C
:1047F000C06F2CD0B3F5E06F22D102F00F0204237A
:10480000164C9940114323180901C9B283F80013CB
:104810004209012300F01F0003FA00F044F82200CF
:104820005DF8044B7047B3F5407F06D0B3F5806F59
:1048300006D102F001020123E2E700221346DFE77E
:10484000054B074CDC6002F003020223D8E702F0BC
:1048500007020323D4E700BF00ED00E000E100E021
:104860000005FA0521F06041034B21F07F01084368
:104870009860BFF34F8F704700ED00E0830903F1AC
:10488000804303F5043300F01F001968012202FA87
:1048900000F0084318607047830903F1804303F573
:1048A000043300F01F001968012202FA00F00843E7
:1048B00018607047830903F1804303F5043300F067
:1048C0001F001A68012101FA00F022EA00001860B6
:1048D000704700BF10B5684C844694E80F0088B05C
:1048E0000DF1200E10340EE90F0094E803006B4622
:1048F00083E8030002AB83E80300604A5368C3F314
:104900008103022B30D05E4C5C4A51685368526878
:10491000C1F303112031C2F3C222694420326A4438
:10492000C3F3022311F8101C12F8180C20336B4447
:1049300024FA01F213F8203C22FA00F0BCF1060F31
:1049400000F29780DFE80CF00D31340E384404009B
:104950004A4B1A6B920705D01A6B02F00302012A28
:104960005BD1204608B010BD54685168D36A090174
:10497000C4F383444FEAD37314D5002B37D03134BA
:104980003E4B5A68D96AD2032DD5DB6A480003F042
:104990000F0354BF3A4A3B4A0133B2FBF3F303FB24
:1049A00004F4B1E72BB32134EAE7104608B010BD98
:1049B00022FA03F008B010BD304B196BC9051AD4A8
:1049C0001A6B314B314812F4803F18BF1846C9E7C3
:1049D0002A4B1B6B13F0400F48F2120018BF4FF424
:1049E000004008B010BD2A4B03FB04F48CE71134DF
:1049F000C6E70234C4E759681C6BC1F38133022B4C
:104A00004FEAD4741FD0032B14D0012B15D01CB344
:104A10002048A0FB02304008A4E71A6B02F0030212
:104A2000022A1BD01B6B164803F00303032B18BF8D
:104A3000002097E76CB9C00894E714B11648A0FBB2
:104A4000023080088EE764B9124BA3FB0030800867
:104A500088E71248A0FB0230400883E74FF400408B
:104A600080E70F4BA3FB0213D01A03EB5003980807
:104A700078E7002076E700BFE0530008001002400E
:104A800000127A00006CDC02003FAB01809FD50071
:104A900000093D00ABAAAAAACDCCCCCC398EE33814
:104AA0002549922408B5304B98423ED011D8A3F541
:104AB0009433984243D003F5E05398421AD14FF40F
:104AC0008160FFF7E9FEBDE808404FF48160FFF721
:104AD000F1BE264B98423CD003F58063984216D134
:104AE00040F21230FFF7D8FEBDE8084040F2123025
:104AF000FFF7E0BEB0F1804F35D14FF48060FFF793
:104B0000CBFEBDE808404FF48060FFF7D3BEA3F5AD
:104B10000063984227D14FF44470FFF7BDFEBDE813
:104B200008404FF44470FFF7C5BE40F20B30FFF76A
:104B3000B3FEBDE8084040F20B30FFF7BBBE40F2C9
:104B40000140FFF7A9FEBDE8084040F20140FFF731
:104B5000B1BE40F21130FFF79FFEBDE8084040F2C1
:104B60001130FFF7A7BE08BD002C014000440140F2
:104B7000364B0A88984210B482621CD020F48063BD
:104B8000B3F1804F17D08A68C262314A904247D051
:104B9000304A934250D0304B98422AD1D2F8004844
:104BA000CB8824F44074C2F80048D2F8004823436C
:104BB000C2F8003831E003684A8823F070030360CC
:104BC00004688B88224302600268134303601F4B12
:104BD0008A68C262984213D020F48063B3F1804F98
:104BE000D3D10268CB8822F440720260026813437A
:104BF000036043695DF8044B43F001034361704770
:104C0000164BCA88D3F8004C24F44074C3F8004C07
:104C1000D3F8004C2243C3F8002C0B7B0363E8E776
:104C20000468CA8824F44074046004682243094C70
:104C30000260A342F1D0DCE70268CB8822F4407224
:104C40000260026813430360E7E700BF002C0140E5
:104C50000020004000400140004801400020014089
:104C6000036843F001030360704700BF416270476F
:104C7000C3681943C1607047436C01290CBF43F4FA
:104C8000004323F400434364704700BF10B403297A
:104C90003CD8DFE801F002B0673E016AD38821F01A
:104CA00001010162816921F003018161016A1468D7
:104CB00021430162016A814C21F002010162016A13
:104CC000A04243EA0103036240F0BD80036A918879
:104CD00023F004030362046A138921430162016A19
:104CE00021F008010162016A0B43036243685189A4
:104CF00023F4807343604468938921434160426890
:104D000022F4007242604268134343605DF8044B32
:104D10007047016AB2F806C0684C21F48051016204
:104D2000C16921F44071C161016A136841EA03312C
:104D30000162016A21F400510162036AA04243EA60
:104D40000C330362E2D15E4B5089D3F8041C21F48A
:104D50008041C3F8041CD3F8042C42EA8012C3F843
:104D6000042CD3E7016AB2F806C0544C21F48071D8
:104D70000162C16921F00301C161016A136841EA5E
:104D800003210162016A21F400710162036AA042F9
:104D900043EA0C230362B9D1016AB2F804C0148952
:104DA00021F480610162036A43EA0C230362036A0F
:104DB00023F400630362016A414B41EA042101626A
:104DC000D3F8040C548920F48050C3F8040CD3F8B1
:104DD000041C908941EA0411C3F8041CD3F8041C94
:104DE00021F40051C3F8041CD3F8042C42EA001249
:104DF000C3F8042C8AE7016AB2F806C02F4C21F0F0
:104E000010010162816921F440718161016A1368B6
:104E100041EA03110162016A21F020010162036A83
:104E2000A04243EA0C13036219D0264B98427FF448
:104E30006DAF4168548921F480614160436843EA61
:104E40008403436062E71F4B20F4806199423FF482
:104E50003DAF03F5006398427FF458AF36E7016A2F
:104E6000B2F804C0148921F040010162036A43EAE8
:104E70000C130362036A23F080030362016A104B80
:104E800041EA04110162D3F8040C548920F48060D3
:104E9000C3F8040CD3F8041C908941EA8401C3F8D8
:104EA000041CD3F8041C21F40061C3F8041CD3F8DB
:104EB000042C42EA8002C3F8042C27E7002C0140AE
:104EC000002001400040014003290BD8DFE801F039
:104ED0001C130B02C36923F4E043C361C36943EAB3
:104EE0000222C2617047C36923F07003C361C369C2
:104EF0001A43C2617047836923F4E0438361836985
:104F000043EA022282617047836923F07003836160
:104F100083691A4382617047032904D8DFE801F0EE
:104F20000806040202647047C263704782637047D8
:104F30004263704703290BD8DFE801F01C130B0212
:104F4000C36923F40063C361C36943EA0222C261F7
:104F50007047C36923F00803C361C3691A43C26180
:104F60007047836923F400638361836943EA022203
:104F700082617047836923F00803836183691A4360
:104F80008261704708B50E4B98420DD003F574430B
:104F9000984213D140F20E30FFF77EFCBDE8084086
:104FA00040F20E30FFF786BC40F21140FFF774FC70
:104FB000BDE8084040F21140FFF77CBC08BD00BFCF
:104FC0000044004038B5144B984204460D461FD0AB
:104FD00003F57443984219D10620FFF77BFC236840
:104FE0001B040CD569084FF6F07301EB4000B0FBD1
:104FF000F5F0C0F3420518402843E06038BD00EBEF
:105000005503B3FBF5F080B2E06038BD0020E6E761
:105010000220FFF75FFCE2E700440040026822F054
:1050200001020260026822F4C06202600368194350
:1050300001607047026822F001020260026822F4F7
:10504000805202600368194301607047026822F0D1
:1050500001020260426822F44052426043681943F0
:1050600041607047036843F001030360704700BF6D
:10507000026822F008020260036819430160704769
:10508000026822F00402026003681943016070475D
:10509000406AC0F308007047826822F08002826094
:1050A00083681943816070478B0901F01F0118580C
:1050B000C84000F001007047026A01F01F0101239F
:1050C00003FA01F111430162704700BF8A0910B46D
:1050D00001F01F011458012303FA01F1214311507B
:1050E0005DF8044B704700BFC1F389138A0D30B4DB
:1050F0001D581458C1F30443012202FA03F0204062
:1051000007D001F01F0102FA01F1294214BF104635
:10511000002030BC704700BF094B994208D0026A9A
:10512000C1F30441012303FA01F111430162704705
:10513000D0F8D03023F40043C0F8D030704700BF1F
:1051400009340F34DFF830D0002103E00B4B5B58FB
:10515000435004310A480B4B42189A42F6D30A4A8C
:1051600002E0002342F8043B084B9A42F9D300F0D6
:1051700011F8FEF77BFE704700030020E857000897
:10518000000000200001002000030020CC0B0020C4
:10519000FEE70000834BDA6902F00602062A82B0BD
:1051A0004CD0DA69900449D57F4A804959605A60E9
:1051B00099609A601A6942F020021A611A6942F0F5
:1051C00040021A61DA68D107FCD41A6922F0200281
:1051D0001A611A6942F010021A61DA6912F0060FB8
:1051E00000F0DC80DB6903F00603022B02D1704B78
:1051F000BB221A806B4B6E4AD969090A01F0DF01A4
:105200005180D969C1F307419180D969090ED180D4
:10521000196AC9B21181196AC1F307215181DA688B
:10522000D207FCD41A6922F010021A611A6922F41A
:1052300000721A611A6942F080021A615D495E4A81
:10524000D1F8883043F47003C1F88830136843F014
:105250000103136013689B07FCD55368002143F0DA
:10526000800353600191019B4F2B05D8019B0133B3
:105270000193019B4F2BF9D94F4A5368002143F00A
:10528000900353600191019B4F2B05D8019B013383
:105290000193019B4F2BF9D9474A4849536823F0A2
:1052A00003035360136823F0867323F48033136081
:1052B000536819405160516821F0084121F474117C
:1052C0005160D16A21F0404121F00F01D162116B90
:1052D00021F4817121F001011163116B21F48031FE
:1052E0001163116B21F000411163516B21F0010139
:1052F0005163D2F8C010002021F48031C2F8C010F0
:105300009060C2F8CC00116841F480314FF4006322
:10531000116001E0013B02D011688803FAD5264BE9
:105320001A68910334D55A685A605A6842F4005298
:105330005A605A6842F480625A605A6822F00362E6
:1053400022F470225A60DA6A22F0404222F00F0200
:10535000DA625A6842F0016242F480325A60DA6AD4
:1053600042F00102DA62DA6ADA621A6842F08072A6
:105370001A601A689201FCD559680F4A21F003019E
:105380005960596841F00201596053681B07FCD508
:1053900000214FF0006002B0FFF764BA044BA52271
:1053A0001A8027E700200240AB89EFCD2301674533
:1053B00000F8FF1F00ED00E0001002400C00FF08A5
:1053C0005300000000000000FFFF0000000000008C
:1053D00001000000000000000000000100000000CB
:1053E0000000000000000000010203040607080995
:1053F000000000000102030400C0C101C30302C297
:10540000C60607C705C5C404CC0C0DCD0FCFCE0E04
:105410000ACACB0BC90908C8D81819D91BDBDA1A74
:105420001EDEDF1FDD1D1CDC14D4D515D71716D6E4
:10543000D21213D311D1D010F03031F133F3F23254
:1054400036F6F737F53534F43CFCFD3DFF3F3EFEC4
:10545000FA3A3BFB39F9F83828E8E929EB2B2AEA34
:10546000EE2E2FEF2DEDEC2CE42425E527E7E626A4
:1054700022E2E323E12120E0A06061A163A3A26214
:1054800066A6A767A56564A46CACAD6DAF6F6EAE84
:10549000AA6A6BAB69A9A86878B8B979BB7B7ABAF4
:1054A000BE7E7FBF7DBDBC7CB47475B577B7B67664
:1054B00072B2B373B17170B05090915193535292D4
:1054C00096565797559594549C5C5D9D5F9F9E5E44
:1054D0005A9A9B5B99595898884849894B8B8A4AB4
:1054E0004E8E8F4F8D4D4C8C448485458747468624
:1054F000824243834181804000C1814001C080419C
:1055000001C0804100C1814001C0804100C1814093
:1055100000C1814001C0804101C0804100C1814083
:1055200000C1814001C0804100C1814001C0804173
:1055300001C0804100C1814001C0804100C1814063
:1055400000C1814001C0804100C1814001C0804153
:1055500001C0804100C1814000C1814001C0804143
:1055600001C0804100C1814001C0804100C1814033
:1055700000C1814001C0804101C0804100C1814023
:1055800000C1814001C0804100C1814001C0804113
:1055900001C0804100C1814000C1814001C0804103
:1055A00001C0804100C1814001C0804100C18140F3
:1055B00000C1814001C0804100C1814001C08041E3
:1055C00001C0804100C1814001C0804100C18140D3
:1055D00000C1814001C0804101C0804100C18140C3
:1055E00000C1814001C0804100C1814001C08041B3
:1055F00001C0804100C18140000000000B71D63C19
:105600003B5E563D2AAFA03D0513D63DA9A8053EF9
:105610005C30203EF39B3A3ECEE6543E4E0C6F3E4D
:10562000EE83843E766A913E7A379E3EBCE8AA3E7F
:10563000017CB73E16EFC33EC93FD03EF46BDC3E63
:105640007271E83E284EF43E0000003F78C2053FEC
:10565000776D0B3F0000113F1879163FCAD71B3FEB
:10566000241B213F3B42263F254C2B3F0138303F36
:10567000F304353F22B2393FBE3E3E3FF8A9423FD8
:105680000AF3463F35194B3FBD1B4F3FEFF9523FE1
:105690001EB3563FA1465A3FD8B35D3F29FA603F3B
:1056A0000219643FD50F673F1EDE693F5E836C3F82
:1056B00020FF6E3FF450713F7178733F3675753F30
:1056C000EA46773F3CED783FE2677A3F98B67B3F0A
:1056D00025D97C3F55CF7D3FFD987E3FF9357F3FF3
:1056E0002FA67F3F8BE97F3F0000803F8BE97F3F04
:1056F0002FA67F3FF9357F3FFD987E3F55CF7D3FF9
:1057000024D97C3F98B67B3FE1677A3F3CED783FF8
:10571000EA46773F3575753F7078733FF450713FB7
:1057200021FF6E3F5E836C3F1DDE693FD40F673FF4
:105730000019643F29FA603FD7B35D3F9F465A3F47
:105740001DB3563FEEF9523FBB1B4F3F34194B3F41
:1057500008F3463FF5A9423FBD3E3E3F23B2393FE5
:10576000F304353F0038303F254C2B3F3A42263F6B
:10577000221B213FC7D71B3F1779163FFEFF103F63
:10578000736D0B3F79C2053F0100003F264EF43E8A
:105790006D71E83EF46BDC3EC73FD03E10EFC33E78
:1057A000007CB73EB8E8AA3E73379E3E746A913ECD
:1057B000EA83843E4E0C6F3EC8E6543EF89B3A3E68
:1057C0005A30203EA1A8053E0913D63D22AFA03D88
:0857D000135E563D8C70D63CBF
:0457D800F8B500BF61
:0457DC00F8B500BF5D
:0857E000A0A9FF7F01000000F9
:1057E80000000000000100000000000000000000B0
:1057F800000400000101000000000000003000006B
:10580800000000000001000000000000000000008F
:10581800000000000101000000000000003000004E
:10582800010000000000803E0000000000000000B1
:10583800000000000000000001000000000000005F
:10584800000000000000000002000000000000004E
:10585800000000000000000003000000000000003D
:10586800000000000000000004000000000000002C
:10587800000000000000000005000000000000001B
:10588800000000000000000000000000050000000B
:1058980001000000040000000200000003000000F6
:1058A80001000000010000000100000001000000EC
:1058B80001000000010000000101000001010101D8
:1058C80001000000F5000000F3300000FE000000B9
:1058D80020000000FFFF01012C010000040000006F
:040000050800514559
:00000001FF
