:020000040800F2
:10000000EC02002081520008CD520008CD520008B9
:10001000CD520008CD520008CD520008000000006B
:10002000000000000000000000000000CD520008A9
:10003000CD52000800000000CD520008A9010008C0
:1000400000000000CD520008CD520008CD5200083B
:10005000CD520008CD520008CD520008CD52000804
:10006000CD520008CD5200080D400008CD520008C6
:10007000CD520008CD520008CD520008CD520008E4
:10008000CD520008CD52000800000000CD520008FB
:10009000CD520008CD520008CD5200089D36000810
:1000A000CD520008CD520008CD520008CD520008B4
:1000B000B902000800000000CD5200080000000056
:1000C000F537000800000000CD520008CD520008AE
:1000D000CD520008000000000000000000000000F9
:1000E0000000000000000000CD52000800000000E9
:1000F0000000000000000000000000000000000000
:10010000CD5200080000000000000000CD520008A1
:1001100000000000000000000000000000000000DF
:1001200000000000000000000000000000000000CF
:1001300000000000000000000000000000000000BF
:10014000000000000000000000000000CD52000888
:1001500053B94AB9002908BF00281CBF4FF0FF312E
:100160004FF0FF3000F00CB8ADF1080C6DE904CE93
:1001700005F0BAF9DDF804E0DDE9022304B07047C8
:10018000704700BF4FF0E023054A5A61054AF0214D
:1001900082F8231000229A6107221A61704700BF7B
:1001A0001E48010000ED00E0024A136801331360AD
:1001B000704700BF8C0A0020F8B5144B6FF03A026C
:1001C000D3F8E017D3F8AC07D3F8B067D3F8B47717
:1001D0004FF6FF73FFF7BCFF384614461D466FF01D
:1001E0003A024FF6FF733146FFF7B2FF084862400C
:1001F0006B400021013100F8012B06294FEA122241
:1002000042EA03624FEA1323F4D1F8BD00F0FF1F66
:10021000840A002008B540F2115004F043FB082383
:10022000032200214FF0904004F07AF908230022C5
:1002300002214FF0904004F051F9BDE80840082237
:1002400001214FF0904004F0A6B908B540F21150DA
:1002500004F028FB0423032200214FF0904004F017
:100260005FF90423002202214FF0904004F036F998
:10027000BDE80840042201214FF0904004F08BB902
:1002800008B500221C20114604F0BEFABDE8084063
:1002900040F2117004F006BB037810B55940044CCD
:1002A000044B5A5C4378615C42704B40037010BD54
:1002B000B0620008B0610008F8B55749574804F02B
:1002C000B5FF064640B1554840F2017104F091FF78
:1002D0005149524804F0C0FF5149504804F0A6FF6C
:1002E000074640B14D4840F2027104F082FF4C498C
:1002F0004A4804F0B1FF4B49484804F097FF0546CF
:1003000040B1464840F2037104F073FF4549434849
:1003100004F0A2FF4449414804F088FF044640B17C
:100320003E484FF4E06104F064FF3F493B4804F06D
:1003300093FF3E49394804F079FFB8B1374840F29D
:10034000037104F056FF3949344804F085FF72B652
:10035000374A00231360374A1360374A202111803F
:10036000364A138062B6364A137005E03E43354381
:100370002C43E4B2002CEAD13249284804F056FF5D
:1003800008B32D4A1388D3B12A4924480C68013B8D
:100390001380631C5A4202F01F0203F01F0358BF70
:1003A00053420B6004F021FF274B23F81400274B26
:1003B0001A68274B1A60214A138801331380214998
:1003C000164804F049FF2349144804F02FFF10B3E6
:1003D000214D224B2C881B88A34214D94FF49672CE
:1003E000B4FBF2F302FB13439BB21D4A0B4832F8F5
:1003F0001310013404F0F5FE2C80BDE8F8401549D7
:10040000064804F029BF0548072104F004FF154BF6
:1004100000221A70F1E7F8BD000201070044004015
:100420000002020700020307080000070500030797
:100430003C0A0020400A0020E2000020380A002088
:100440003106002005000507440A00208C0A002020
:100450003406002007000707DE070020DC07002025
:10046000E007002038060020214B10B51A46F02185
:1004700002F8011B1F49204C08688988C3F8010055
:1004800091801E4A1278DA711D4A204611785278FE
:1004900019725A7204F026FE2046042104F099FED7
:1004A0002046082104F08DFE2046052104F0A9FE17
:1004B00020464FF4007104F0A4FE2046082104F009
:1004C000A0FE20464FF4E13104F028FE2046002132
:1004D00004F05AFE2046002104F062FE204600216E
:1004E00004F046FE2046BDE8104004F065BE00BFA3
:1004F00039060020840A002000440040E600002065
:10050000E40000202DE9F04F8F4B1A888DB0002AAF
:100510002ED072B61A88013A1A8062B68B480168EA
:100520004B1C5A4202F01F0203F01F0358BF5342F4
:100530000360874B33F8114086490B78DBB9A52C53
:1005400010D101220A70844984480A7084490B70D2
:1005500084490B70844B21461A70FF23037043704B
:10056000FFF79AFE72B6814A13880133138062B690
:100570000DB0BDE8F08F012BF4D1774E3378012B0D
:1005800013D1FF2C774B07D9002174481970FFF75E
:1005900083FE03233370E5E7E1B270481970FFF77B
:1005A0007BFE002CF5D00223F4E7022B19D16C4816
:1005B0000378B4F5807F28BF0024FF22B3FBF2F25A
:1005C0001A440133DDB2E1B202F0FF02684C05705B
:1005D0006248A154FFF760FE624B1B78AB42C1D169
:1005E000D7E7032B0CD15D4BB4F5807F1B7828BF78
:1005F00000249C421EBF5C4B00221A700423C9E7F2
:10060000042BAFD1574B584A1E781278534B5B7866
:10061000002A00F09480B4F5807F28BF00249C421B
:1006200040F08D80002E00F08A80514F3C78002CE5
:1006300040F0B480022E40F082804E4A1388002B96
:100640007AD04D49DFF84CB1D1F800A0BBF800805A
:10065000DFF84491013B13800AF101035A4202F092
:100660001F0203F01F0358BF53420B60434B4FF46C
:1006700096750BA81B88ADF82C30A521FFF70CFE52
:10068000B8FBF5F305FB13839BB2A522314609F8AD
:100690000320FFF701FE08F101039BB2B3FBF5F263
:1006A00005FB12339BB2214609F803607E78731E66
:1006B0005A425A41324B1A70FFF7EEFD08F102031D
:1006C0009BB2B3FBF5F205FB12339BB2314609F83E
:1006D0000340FFF7E1FD08F103039BB2B3FBF5F222
:1006E00005FB12339BB209F8036008F104039BB2C7
:1006F000B3FBF5F205FB12339BB29DF82C2009F8F1
:10070000032008F105039BB2B3FBF5F205FB12339E
:100710009BB29DF82D2009F8032008F10603ABF8E1
:100720000030184B23F81A80174B062203F80A20D2
:10073000164A138801331380154B00221A70054B9B
:1007400000221A700EE700BF380A00203C0A002081
:10075000440A002031060020DF000020DD000020D8
:10076000300600202F060020DC000020E2000020E0
:1007700030050020E000002078070020A457000882
:10078000940000209C0700207C07002072070020B6
:10079000810000204406002046060020E32C00F2E1
:1007A000FC80DF2C00F2F0800A2C00F0C985D02CF0
:1007B000C5D1022EC3D197F80180854FDFF844924E
:1007C0003B889FED847AB8F1000F40F0B982824AED
:1007D00082F80080002B6CD08049DFF818A2D1F895
:1007E00000B0013B3B800BF101035A4202F01F02B3
:1007F00003F01F0358BF5342794A0B60794B1588A9
:100800001B88ADF82C304FF496740BA8A521FFF788
:1008100043FDB5FBF4F304FB13539BB2A5210AF887
:1008200003103146FFF738FD6B1C9BB2B3FBF4F1AC
:1008300004FB11339BB241460AF80360FFF72CFD1D
:10084000AB1C9BB2B3FBF4F104FB11339BB24146EA
:100850000AF80380FFF720FDEB1C9BB2B3FBF4F119
:1008600004FB11339BB25E4A0AF803802B1D9BB236
:10087000B3FBF4F104FB11339BB29DF82C100AF882
:1008800003106B1D9BB2B3FBF4F104FB11339BB25D
:100890009DF82D100AF80310AB1D1380524B23F85E
:1008A0001B50524B062203F80B20514A1388013388
:1008B00013803B8889ED007A002B3FF43DAF474918
:1008C000DFF81C814B4EB8F80050013B3B800F68AD
:1008D0007B1C5A4202F01F0203F01F0358BF534211
:1008E0000B60404B4FF496740BA81B88ADF82C306E
:1008F000A521FFF7D1FCB5FBF4F304FB13539BB226
:10090000A5220221F254FFF7C7FC6B1C9BB2B3FB7C
:10091000F4F204FB12339BB20222D021F254FFF70F
:10092000BBFCAB1C9BB2B3FBF4F204FB12339BB2D7
:10093000D0220121F254FFF7AFFCEB1C9BB2B3FBBA
:10094000F4F204FB12339BB20122F2542B1D9BB232
:10095000B3FBF4F204FB12339BB29DF82C20F2544B
:100960006B1D9BB2B3FBF4F204FB12339BB29DF8F8
:100970002D20F254AB1DA8F800301B4B23F8175064
:100980001A4B0622DA55D3E6E13C022C00F24B82E8
:10099000DFE814F06403EA034B04F42C34D0FA2C9F
:1009A0007FF4CDAE022E7FF4CAAE97F801B0124BA1
:1009B000BBF1000B18BF4FF0010B83F800B00F4BD9
:1009C00000221A600E4B01221A7000F0CFBC00BF4B
:1009D000E00000208180803B940000207807002008
:1009E00044060020A45700089C0700207C07002034
:1009F0007207002046060020100300200C03002090
:100A00000500002090000020BE4BBF4E00221A724D
:100A10001A7583F8202083F82C2083F8382083F877
:100A200044203388002B6DD0B849DFF80493D1F807
:100A30000080B9F80050B64F013B338008F1010344
:100A40005A4202F01F0203F01F0358BF53420B60CB
:100A5000B04B4FF496740BA81B88ADF82C30A52131
:100A6000FFF71AFCB5FBF4F304FB13539BB2A5226A
:100A70000221FA54FFF710FC6B1C9BB2B3FBF4F29B
:100A800004FB12339BB202220A21FA54FFF704FC42
:100A9000AB1C9BB2B3FBF4F204FB12339BB20A22F1
:100AA000FA549D4B93F800A05146FFF7F5FBEB1C61
:100AB0009BB2B3FBF4F204FB12339BB207F803A022
:100AC0002B1D9BB2B3FBF4F204FB12339BB29DF8D7
:100AD0002C20FA546B1D9BB2B3FBF4F204FB1233CF
:100AE0009BB29DF82D20FA54AB1DA9F800308B4B1A
:100AF00023F818508A4B062203F80820894A1388E5
:100B000001331380884B00241C60884B01221A702B
:100B10003388002B00F08A807C49854FD1F8009003
:100B20003D88DFF8EC81013B338009EB0203E21AD8
:100B300002F01F0203F01F0358BF53420B60754BB6
:100B40004FF4967A1B88ADF82C300BA8A521FFF73F
:100B5000A3FBB5FBFAF30AFB13539BB2A5220221B8
:100B600008F80320FFF798FB6B1C9BB2B3FBFAF26B
:100B70000AFB12339BB20222D02108F80320FFF7B0
:100B80008BFBAB1C9BB2B3FBFAF20AFB12339BB29A
:100B9000D02208F80320674BD3ED007AB7EE007A35
:100BA000F4EEC77AF1EE10FA0ED89FED637A67EE95
:100BB000877AF5EEC07AF1EE10FAA2BFFCEEE77A82
:100BC000CDED017A9DF8044021460BA8FFF764FBA8
:100BD000EB1C4FF496729BB2B3FBF2F102FB1133A4
:100BE0009BB208F803402B1D9BB2B3FBF2F102FB52
:100BF00011339BB29DF82C1008F803106B1D9BB2AB
:100C0000B3FBF2F102FB11339BB29DF82D2008F8E3
:100C10000320AB1D3B80414B23F81950404B06226B
:100C200003F809203F4A1388013313803388002BCF
:100C30003FF485AD3549DFF8F8800F68B8F800500B
:100C4000013B33807B1C5A4202F01F0203F01F035A
:100C500058BF53420B602F4B2D4E1B88ADF82C30E4
:100C60004FF496740BA8A521FFF716FBB5FBF4F320
:100C700004FB13539BB2A5220221F254FFF70CFB95
:100C80006B1C9BB2B3FBF4F204FB12339BB2022247
:100C90000021F254FFF700FBAB1C9BB2B3FBF4F254
:100CA00004FB12339BB20022F254244B93F80090C1
:100CB0004946FFF7F1FAEB1C9BB2B3FBF4F204FBDD
:100CC00012339BB206F803902B1D9BB2B3FBF4F2D8
:100CD00004FB12339BB29DF82C20F2546B1D9BB287
:100CE000B3FBF4F204FB12339BB29DF82D20F254B7
:100CF000AB1DA8F80030094B23F81750084B06220B
:100D0000DA552BE200040020E000002078070020E4
:100D100046060020A4570008010000209C07002080
:100D20007C070020720700201803002080000020AC
:100D3000440600209000002000007F439400002023
:100D400007EE908AF8EE677A67EE877AC9ED007A47
:100D5000002B3FF4F1ACB649DFF8E4B2D1F800A0C3
:100D6000DFF8E092013B3B800AF101035A4202F0B6
:100D70001F0203F01F0358BF53420B60AD4BBBF87B
:100D800000701B88ADF82C304FF496750BA8A52188
:100D9000FFF782FAB7FBF5F305FB13739BB2A522AD
:100DA000314609F80320FFF777FA7B1C9BB2B3FBAF
:100DB000F5F205FB12339BB2214609F80360FFF7F9
:100DC0006BFABB1C9BB2B3FBF5F205FB12339BB273
:100DD000414609F80340FFF75FFAFB1C9BB2B3FBE7
:100DE000F5F205FB12339BB209F803803B1D9BB261
:100DF000B3FBF5F205FB12339BB29DF82C2009F8EA
:100E000003207B1D9BB2B3FBF5F205FB12339BB2B3
:100E10009DF82D2009F80320BB1DABF80030864B50
:100E200023F81A7080E4052E7FF689ACF51EEDB22A
:100E30000320B5FBF0F303EB4303ED1A15F0FF05B8
:100E40007FF47DAC97F801A097F802900AF1FF3883
:100E50005FFA88F880453FF672AC09F1FF33DBB2E8
:100E6000062B01933FF66BAC74490A88002A00F008
:100E7000A180013AC3F107030A80DBB26C49B41EBA
:100E8000E4B2B4FBF0F49C4228BF1C460B6802930A
:100E900001335A4202F01F0203F01F0358BF5342AE
:100EA0000B60674B674E1F88624B4FF4967B0BA815
:100EB0001B88ADF82C30A521FFF7EEF9B7FBFBF34B
:100EC000611C0BFB13739BB201EB4101A522C9B25C
:100ED000F2540391FFF7E0F97B1C9BB2B3FBFBF2EA
:100EE0000BFB12339BB20399F154E021FFF7D4F9C5
:100EF000BB1C9BB2B3FBFBF20BFB12339BB2E02299
:100F00005146F254FFF7C8F9FB1C9BB2B3FBFBF24E
:100F10000BFB12339BB2494606F803A0FFF7BCF95E
:100F20003B1D9BB2B3FBFBF20BFB12339BB2C8EB36
:100F3000C80206F803900723B4FBF3F3C3EBC30323
:100F4000E41AE4B2631E06937E1D3F4B0792B6B2CD
:100F50004FF49679B6FBF9F209FB126292B2039252
:100F6000721C92B2B2FBF9F109FB112292B2049207
:100F7000B21C92B20592069A0336AA42B6B21FDAA2
:100F8000304B03999DF82C205A5404999DF82D203C
:100F90005A5404EB44042A4AFB1D23441380029A4A
:100FA000254B23F81270294B07349C54284A138888
:100FB00001331380274B002203F80820FFF7BFBB43
:100FC000D97893F804B093F805A00993019B089190
:100FD000EA180720079BB2FBF0F0C0EBC000121A22
:100FE0004FEA0B201A4440EA01401B4B40EA0A003A
:100FF00043F822000BA8FFF74FF9124A039B089908
:10100000D1545946FFF748F9049B0E4A514602F85D
:1010100003B0FFF741F9059BB3FBF9F109FB11316F
:10102000084A099B89B2013502F801A003338FE712
:1010300078070020A45700089C070020E00000204B
:101040004406002046060020300500207C070020D2
:1010500072070020820000201C030020022E7FF473
:101060006EABAC4A1388002B3FF469ABAA49DFF89A
:10107000CC92D1F80080B9F80040A84D013B138014
:1010800008F101035A4202F01F0203F01F0358BF88
:1010900053420B60A24B4FF4967A0BA81B88ADF815
:1010A0002C30A521FFF7F8F8B4FBFAF30AFB134341
:1010B0009BB2A5223146EA54FFF7EEF8631C9BB2BF
:1010C000B3FBFAF20AFB12339BB2E121EE54FFF7B5
:1010D000E3F8A31C9BB27E78B3FBFAF20AFB12334F
:1010E0009BB2E1223146EA54FFF7D6F8E31C9BB2EB
:1010F000B3FBFAF20AFB12339BB206F00102EE5484
:10110000884B760803F8012B0122013206F0010119
:10111000072A03F8011B4FEA5606F6D1231D4FF4A8
:1011200096729BB2B3FBF2F102FB11339BB29DF8B6
:101130002C10E954631D9BB2B3FBF2F102FB113397
:101140009BB29DF82D20EA54A31DA9F80030764BE0
:1011500023F81840754B062203F80820744A1388B8
:1011600001331380FFF7EBBA022E7FF4E8AA694A35
:101170001388002B3FF4E3AA6749DFF8C091D1F848
:101180000080B9F80040654D013B138008F1010370
:101190005A4202F01F0203F01F0358BF53420B6074
:1011A0005F4B4FF4967A0BA81B88ADF82C30A52125
:1011B000FFF772F8B4FBFAF30AFB13439BB2A522C4
:1011C0003146EA54FFF768F8631C9BB2B3FBFAF2AE
:1011D0000AFB12339BB2E221EE54FFF75DF8A31C29
:1011E0009BB27E78B3FBFAF20AFB12339BB2E22287
:1011F0003146EA54FFF750F8E31C9BB2B3FBFAF216
:101200000AFB12339BB206F00102EE54494B7608FA
:1012100003F8012B0122013206F00101072A03F82D
:10122000011B4FEA5606F6D178E7022E7FF487AA13
:1012300097F801A00AF1FF33DBB2032B3FF67FAA38
:101240003D4A1360334A1388002B3FF478AA324991
:10125000DFF8E890D1F80080B9F800502F4F013B3B
:10126000138008F101035A4202F01F0203F01F032A
:1012700058BF53420B602A4B4FF496740BA81B883F
:10128000ADF82C30A521FFF707F8B5FBF4F304FB0C
:1012900013539BB2A5223146FA54FEF7FDFF6B1C97
:1012A0009BB2B3FBF4F204FB12339BB2E321FE5476
:1012B000FEF7F2FFAB1C9BB2B3FBF4F204FB12335C
:1012C0009BB2E3225146FA54FEF7E6FFEB1C9BB2B9
:1012D000B3FBF4F204FB12339BB207F803A02B1DFF
:1012E0009BB2B3FBF4F204FB12339BB29DF82C20AB
:1012F000FA546B1D9BB2B3FBF4F204FB12339BB2A6
:101300009DF82D20FA54AB1DA9F80030064B23F8A8
:1013100018501FE7E0000020780700204606002054
:10132000A4570008860000209C0700207C070020AE
:10133000720700208D0300201403002044060020C3
:10134000022E7FF4FCA9424B97F801B083F800B05D
:10135000404B414800221A70404B01221A70404B0A
:101360001A68404B20211A6003F011F93E4A138895
:10137000002B3FF4E4A93D49DFF800A1D1F800902B
:10138000BAF80070DFF8F880013B138009F101031F
:101390005A4202F01F0203F01F0358BF53420B6072
:1013A000334B4FF496750BA81B88ADF82C30A52154
:1013B000FEF772FFB7FBF5F305FB13739BB2A52293
:1013C00008F803203146FEF767FF7B1C9BB2B3FB96
:1013D000F5F205FB12339BB2214608F80360FEF7D5
:1013E0005BFFBB1C9BB2B3FBF5F205FB12339BB258
:1013F000594608F80340FEF74FFFFB1C9BB2B3FBB6
:10140000F5F205FB12339BB208F803B03B1D9BB20B
:10141000B3FBF5F205FB12339BB29DF82C2008F8C4
:1014200003207B1D9BB2B3FBF5F205FB12339BB28D
:101430009DF82D2008F80320BB1DAAF800300D4BA5
:1014400023F819700C4B062203F8092086E600BF2A
:10145000010000200000002000040048F6020020E7
:101460008C0A0020EC020020E00000207807002019
:10147000A45700089C0700207C0700204406002099
:10148000460600202DE9F041234C2278002A35D170
:10149000224B1988002931D072B619880139198078
:1014A00062B61F4DDFF894C02968DFF894E04B1C4A
:1014B000584200F01F0003F01F0358BF43422B6047
:1014C000184B33F81170184B585C1849461E0A80A7
:1014D00013464FF496759E4212DA02B10880144BFF
:1014E0001448002207211A8003F08BFE0123237089
:1014F00072B6114A13880133138062B6BDE8F081D9
:10150000FA18B2FBF5F805FB18221EF802202CF899
:10151000132001330122DEE7380600207207002085
:10152000740700209C0700207C070020DC070020B7
:10153000DE07002000440040E0000020E00700201B
:10154000460600200B4B0C4A19681368CB1A012B76
:1015500010B50ED972B6094800230360084803602D
:101560000848202404800848038062B607481160B8
:10157000037010BD8C0A0020340600203C0A0020B5
:10158000400A0020E2000020380A00203106002036
:101590002DE9F04F3C4A138885B0002B71D03B49B0
:1015A0003B4FD1F800903E88DFF8F880DFF8F8B0C4
:1015B000013B138009F101035A4202F01F0203F0BC
:1015C0001F0358BF53420B60324B4FF496741B8875
:1015D000ADF80C30A52103A8FEF75EFEB6FBF4F3D0
:1015E00004FB13639BB2A5220A2108F80320FEF72F
:1015F00053FE731C9BB2B3FBF4F204FB12339BB299
:101600000A2206F1020A06F10C0508F803201FFA67
:101610008AFAADB21BF8011B019103A8FEF73CFE4C
:10162000BAFBF4F304FB13A30AF1010A9BB21FFAFD
:101630008AFA019908F803105545EBD1B5FBF4F38C
:1016400004FB1355ADB29DF80C3008F8053006F1D7
:101650000D039BB2B3FBF4F204FB12339BB29DF873
:101660000D2008F8032006F10E033B800A4B23F8F7
:1016700019600A4B0E2203F80920094A1388013326
:10168000138005B0BDE8F08FE0000020780700204F
:1016900044060020A45700089C0700207C07002077
:1016A0007207002046060020390600201FB50C4CAA
:1016B00040F2116003F0F6F8204603F0DDF9002354
:1016C000642269462046CDE9003302928DF80C3041
:1016D00003F026FA204603F0B3FA04B010BD00BFB1
:1016E0000044014010B50D4C40F2125003F0DAF8FE
:1016F00020464FF480730322002102F011FF2046A0
:10170000002202214FF4807302F0E8FE20464FF4DD
:101710008072BDE81040022102F03DBF0004004885
:1017200030B54FF4A06085B003F0BCF81B4B1C4AE9
:101730001A601C4B1C4C0FCB6D4685E80F002A46E7
:101740002046002103F09AFA00221146204603F0B9
:10175000C9FB20466022002103F09EFB08222046A0
:10176000002103F0CDFB2046012103F07DFA4FF468
:101770008071204603F074FA204603F061FA0122DA
:1017800011460A2003F040F8022002F0A3FD0221D6
:10179000084602F001FE05B030BD00BFBC000020CD
:1017A00034440140A8570008004401401FB54FF4DD
:1017B000E06003F077F84FF0804003F05DF9104BE4
:1017C000104A1B68B3FBF2F3013B0022B3F5803FE4
:1017D00028BF1346ADF8003069464FF6FE734FF050
:1017E0008040ADF80220019202938DF80C2003F0A6
:1017F00097F94FF0804003F023FA05B05DF804FB41
:10180000E800002000BD010507B540F2115003F0CB
:1018100049F80123032200214FF0904002F080FE9E
:101820000123194600224FF0904002F057FE01219B
:101830004FF0904002F0ADFE4FF4803300216A4635
:101840004FF08040CDE9003103F0A6FB4FF080401F
:1018500003F0F6F903B05DF804FB0000114A1378B9
:10186000FBB1114B93ED007AB5EEC07AF1EE10FAB0
:1018700017DD0E49D1ED007AF5EEC07AF1EE10FADF
:101880000FDDB4EEE77AF1EE10FA02D50023137003
:101890007047074A074912680A600749C3ED007A92
:1018A0000A607047B9000020100500200C050020D8
:1018B00014050020180500201C05002070B5022129
:1018C0004FF0804003F0C3F9002800F0C2807E4E44
:1018D00000214FF08040358803F0F3FB01230446DC
:1018E000032200214FF0904002F01AFE0123194616
:1018F00000224FF0904002F0F1FD01214FF09040A6
:1019000002F047FE02214FF0804003F0A6F972B6C4
:101910000123002202214FF0904002F0DFFD01235D
:10192000032200214FF0904002F0FAFD0122022133
:101930004FF0904002F02FFE4FF080435B6AB3F50A
:10194000803F28BF0023338062B6604B6048614906
:10195000614A1B7890ED006A91ED007A92ED003AB1
:10196000002B00F09780B4F5803F28BF0024A4B27C
:10197000A5426ED0B5EEC06AF1EE10FA69DD641BC7
:10198000A4B207EE904AF8EE677ADFED545A77EE8C
:10199000C66AB0EEE65AB4EEE55AF1EE10FA58D542
:1019A0004F4BDFED504AD3ED005A9FED4F4A4F4D5C
:1019B0004F4CDFED503A9FED505A66EEA66A66EE48
:1019C000A46AE5EE846AC6EE865AC3ED006ADFEDCE
:1019D0004B6A4B4B65EEA66AC3ED006ADFED496AC0
:1019E000F4EEE65AF1EE10FADFED476A04DDB4EEEC
:1019F000E76AF1EE10FA09D400232B70F4EEE35AF3
:101A0000F1EE10FA26D423786BB925E02B78013358
:101A1000DBB2642B2B70F1D1F4EEE35A0123F1EE2B
:101A200010FA237016D427EE857A384BA3EE267A67
:101A3000D3ED005A82ED007A37EEC77A27EE077AA7
:101A400027EE247AA5EE847A83ED007A304B1B785A
:101A5000CBB970BD0023237027EE267A2D4BDFED26
:101A60002E5AD3ED004AA7EE857A81ED007A37EE43
:101A7000C77A27EE077A27EE257ADFED285AA4EEFB
:101A8000A57A83ED007A66EE266AE7EE856AC0EDF8
:101A9000006ADEE7B4F5803F28BF0024DFED1F7A3F
:101AA000DFED1D6A641BA4B226EE277A07EE904A8A
:101AB000F8EE677AA7EEA67A80ED007A81ED007ADB
:101AC00082ED007AC5E700BF200500200505002053
:101AD0001C05002018050020140500200000E1442A
:101AE000080500200AD7233CA4707D3F0405002090
:101AF000060500200000484217B7D1380000C84250
:101B0000000500200000964372F97F3F0C0500207D
:101B1000B9000020100500206F12833A77BE7F3F86
:101B20001FB540F2017002F0BDFE114802F0A4FFA3
:101B3000104B114A1B68B3FBF2F3013B0022B3F5D3
:101B4000803F28BF1346ADF8003069464FF6FE735C
:101B50000748ADF80220019202938DF80C2002F0A4
:101B6000DFFF034803F06CF805B05DF804FB00BF2D
:101B700000040040E800002000BD010513B5134C2F
:101B800040F2125002F08EFE204602230322002172
:101B900002F0C6FC022300222046012102F09EFC36
:101BA0002046022102F0F5FC04F1784400234FF4B2
:101BB0008032CDE9002303216A46204603F0ECF988
:101BC000204603F03DF802B010BD00BF00040048FD
:101BD000114A1378FBB1114B93ED007AB5EEC07A40
:101BE000F1EE10FA17DD0E49D1ED007AF5EEC07A6C
:101BF000F1EE10FA0FDDB4EEE77AF1EE10FA02D54D
:101C0000002313707047074A074912680A600749A2
:101C1000C3ED007A0A607047B8000020EC04002091
:101C2000E8040020F0040020F4040020F804002060
:101C300070B57E48102103F00AF8002800F0BB8040
:101C40007B4E7A483588032103F03BFA0223044691
:101C500003227848002102F063FC02230022754829
:101C6000012102F03BFC7348022102F092FC6F4814
:101C7000102102F0F2FF72B6022319466D480022CD
:101C800002F02CFC02236B480322002102F048FCE6
:101C900068480222012102F07EFC4FF08043D3F815
:101CA0002434B3F5803F28BF0023338062B6624BF3
:101CB00062486349634A1B7890ED006A91ED007AAF
:101CC00092ED003A002B00F09780B4F5803F28BFDA
:101CD0000024A4B2A5426ED0B5EEC06AF1EE10FAAF
:101CE00069DD641BA4B207EE904AF8EE677ADFED77
:101CF000565A77EEC66AB0EEE65AB4EEE55AF1EE01
:101D000010FA58D5514BDFED524AD3ED005A9FEDF2
:101D1000514A514D514CDFED523A9FED525A66EE09
:101D2000A66A66EEA46AE5EE846AC6EE865AC3ED3C
:101D3000006ADFED4D6A4D4B65EEA66AC3ED006AA1
:101D4000DFED4B6AF4EEE65AF1EE10FADFED496A88
:101D500004DDB4EEE76AF1EE10FA09D400232B702B
:101D6000F4EEE35AF1EE10FA26D423786BB925E0AD
:101D70002B780133DBB2642B2B70F1D1F4EEE35AF4
:101D80000123F1EE10FA237016D427EE857A3A4B30
:101D9000A3EE267AD3ED005A82ED007A37EEC77AA9
:101DA00027EE077A27EE247AA5EE847A83ED007A6F
:101DB000324B1B78CBB970BD0023237027EE267AF7
:101DC0002F4BDFED305AD3ED004AA7EE857A81ED37
:101DD000007A37EEC77A27EE077A27EE257ADFED0D
:101DE0002A5AA4EEA57A83ED007A66EE266AE7EE1B
:101DF000856AC0ED006ADEE7B4F5803F28BF0024A5
:101E0000DFED217ADFED1F6A641BA4B226EE277A8C
:101E100007EE904AF8EE677AA7EEA67A80ED007A90
:101E200081ED007A82ED007AC5E700BF0004004032
:101E3000FC04002000040048E1040020F804002015
:101E4000F4040020F00400200000E144E404002039
:101E50000AD7233CA4707D3FE0040020E204002068
:101E60000000484217B7D1380000C842DC04002007
:101E70000000964372F97F3FE8040020B80000207C
:101E8000EC0400206F12833A77BE7F3F07B540F223
:101E9000115002F007FD0223032200214FF0904071
:101EA00002F03EFB0223002201214FF0904002F09D
:101EB00015FB02214FF0904002F06BFB00234FF422
:101EC0008032CDE9002301216A464FF0804003F0C3
:101ED00063F84FF0804002F0B3FE03B05DF804FBFE
:101EE000114A1378FBB1114B93ED007AB5EEC07A2D
:101EF000F1EE10FA17DD0E49D1ED007AF5EEC07A59
:101F0000F1EE10FA0FDDB4EEE77AF1EE10FA02D539
:101F1000002313707047074A074912680A6007498F
:101F2000C3ED007A0A607047B7000020C8040020A3
:101F3000C4040020CC040020D0040020D4040020DD
:101F400070B504214FF0804002F081FE002800F0BF
:101F5000C2807E4E01214FF08040358803F0B1F8F9
:101F600002230446032200214FF0904002F0D8FAE9
:101F70000223002201214FF0904002F0AFFA02212B
:101F80004FF0904002F005FB04214FF0804002F03A
:101F900064FE72B60223194600224FF0904002F010
:101FA0009DFA0223032200214FF0904002F0B8FA7C
:101FB000022211464FF0904002F0EDFA4FF08043BC
:101FC0005B6AB3F5803F28BF0023338062B6604B65
:101FD00060486149614A1B7890ED006A91ED007A92
:101FE00092ED003A002B00F09780B4F5803F28BFB7
:101FF0000024A4B2A5426ED0B5EEC06AF1EE10FA8C
:1020000069DD641BA4B207EE904AF8EE677ADFED53
:10201000545A77EEC66AB0EEE65AB4EEE55AF1EEDF
:1020200010FA58D54F4BDFED504AD3ED005A9FEDD3
:102030004F4A4F4D4F4CDFED503A9FED505A66EEF0
:10204000A66A66EEA46AE5EE846AC6EE865AC3ED19
:10205000006ADFED4B6A4B4B65EEA66AC3ED006A82
:10206000DFED496AF4EEE65AF1EE10FADFED476A69
:1020700004DDB4EEE76AF1EE10FA09D400232B7008
:10208000F4EEE35AF1EE10FA26D423786BB925E08A
:102090002B780133DBB2642B2B70F1D1F4EEE35AD1
:1020A0000123F1EE10FA237016D427EE857A384B0F
:1020B000A3EE267AD3ED005A82ED007A37EEC77A86
:1020C00027EE077A27EE247AA5EE847A83ED007A4C
:1020D000304B1B78CBB970BD0023237027EE267AD6
:1020E0002D4BDFED2E5AD3ED004AA7EE857A81ED18
:1020F000007A37EEC77A27EE077A27EE257ADFEDEA
:10210000285AA4EEA57A83ED007A66EE266AE7EEF9
:10211000856AC0ED006ADEE7B4F5803F28BF002481
:10212000DFED1F7ADFED1D6A641BA4B226EE277A6D
:1021300007EE904AF8EE677AA7EEA67A80ED007A6D
:1021400081ED007A82ED007AC5E700BFD804002057
:10215000BD040020D4040020D0040020CC040020C2
:102160000000E144C00400200AD7233CA4707D3F56
:10217000BC040020BE0400200000484217B7D1383C
:102180000000C842B80400200000964372F97F3F67
:10219000C4040020B7000020C80400206F12833A56
:1021A00077BE7F3F13B5134C40F2125002F07AFB1A
:1021B000204601230322002102F0B2F9012319462F
:1021C0000022204602F08AF92046012102F0E1F9BE
:1021D00004F1784400234FF48032CDE9002302213A
:1021E0006A46204602F0D8FE204602F029FD02B0E1
:1021F00010BD00BF00040048114A1378FBB1114B19
:1022000093ED007AB5EEC07AF1EE10FA17DD0E49C3
:10221000D1ED007AF5EEC07AF1EE10FA0FDDB4EEF2
:10222000E77AF1EE10FA02D5002313707047074ADF
:10223000074912680A600749C3ED007A0A607047CF
:10224000B6000020A4040020A0040020A804002060
:10225000AC040020B004002070B57E48082102F0D4
:10226000F6FC002800F0BB807B4E7A4835880221BE
:1022700002F027FF0123044603227848002102F0E0
:102280004FF9012319460022744802F027F97348D8
:10229000012102F07EF96F48082102F0DEFC72B6DF
:1022A0006E4801230022022102F018F901236B4835
:1022B0000322002102F034F901226848114602F09D
:1022C0006AF94FF08043D3F82434B3F5803F28BF38
:1022D0000023338062B6624B62486349634A1B78CD
:1022E00090ED006A91ED007A92ED003A002B00F03B
:1022F0009780B4F5803F28BF0024A4B2A5426ED0D9
:10230000B5EEC06AF1EE10FA69DD641BA4B207EE07
:10231000904AF8EE677ADFED565A77EEC66AB0EE6D
:10232000E65AB4EEE55AF1EE10FA58D5514BDFED0E
:10233000524AD3ED005A9FED514A514D514CDFEDB9
:10234000523A9FED525A66EEA66A66EEA46AE5EE30
:10235000846AC6EE865AC3ED006ADFED4D6A4D4BC6
:1023600065EEA66AC3ED006ADFED4B6AF4EEE65A4D
:10237000F1EE10FADFED496A04DDB4EEE76AF1EE42
:1023800010FA09D400232B70F4EEE35AF1EE10FAA0
:1023900026D423786BB925E02B780133DBB2642B8C
:1023A0002B70F1D1F4EEE35A0123F1EE10FA237011
:1023B00016D427EE857A3A4BA3EE267AD3ED005A4F
:1023C00082ED007A37EEC77A27EE077A27EE247A75
:1023D000A5EE847A83ED007A324B1B78CBB970BDC1
:1023E0000023237027EE267A2F4BDFED305AD3EDF2
:1023F000004AA7EE857A81ED007A37EEC77A27EE9C
:10240000077A27EE257ADFED2A5AA4EEA57A83ED26
:10241000007A66EE266AE7EE856AC0ED006ADEE7BE
:10242000B4F5803F28BF0024DFED217ADFED1F6A7D
:10243000641BA4B226EE277A07EE904AF8EE677A7C
:10244000A7EEA67A80ED007A81ED007A82ED007A1F
:10245000C5E700BF00040040B404002000040048A9
:1024600099040020B0040020AC040020A80400203F
:102470000000E1449C0400200AD7233CA4707D3F67
:10248000980400209A0400200000484217B7D13871
:102490000000C842940400200000964372F97F3F78
:1024A000A0040020B6000020A40400206F12833A8C
:1024B00077BE7F3F13B540F2115002F0F3F940238D
:1024C000032200214FF0904002F02AF80D4C4023E7
:1024D000002201214FF0904002F000F840214FF01F
:1024E000904002F056F84FF4803300216A462046AF
:1024F000CDE9003102F050FD204602F0A1FB02B010
:1025000010BD00BF00040040114A1378FBB1114B0D
:1025100093ED007AB5EEC07AF1EE10FA17DD0E49B0
:10252000D1ED007AF5EEC07AF1EE10FA0FDDB4EEDF
:10253000E77AF1EE10FA02D5002313707047074ACC
:10254000074912680A600749C3ED007A0A607047BC
:10255000B5000020800400207C04002084040020BA
:10256000880400208C04002070B58148022102F00C
:102570006EFB002800F0C1807E4E7D48358800212A
:1025800002F09FFD40230446032200214FF09040BB
:1025900001F0C6FF4023002201214FF0904001F0DE
:1025A0009DFF40214FF0904001F0F3FF7048022161
:1025B00002F053FB72B64023002202214FF09040FC
:1025C00001F08CFF4023032200214FF0904001F0E6
:1025D000A7FF402201214FF0904001F0DCFF4FF0B7
:1025E0008043D3F82434B3F5803F28BF00233380E1
:1025F00062B6614B61486249624A1B7890ED006A9D
:1026000091ED007A92ED003A002B00F09780B4F53E
:10261000803F28BF0024A4B2A5426ED0B5EEC06AA8
:10262000F1EE10FA69DD641BA4B207EE904AF8EEF1
:10263000677ADFED555A77EEC66AB0EEE65AB4EE29
:10264000E55AF1EE10FA58D5504BDFED514AD3ED73
:10265000005A9FED504A504D504CDFED513A9FEDDE
:10266000515A66EEA66A66EEA46AE5EE846AC6EE84
:10267000865AC3ED006ADFED4C6A4C4B65EEA66AE4
:10268000C3ED006ADFED4A6AF4EEE65AF1EE10FAA5
:10269000DFED486A04DDB4EEE76AF1EE10FA09D422
:1026A00000232B70F4EEE35AF1EE10FA26D42378CF
:1026B0006BB925E02B780133DBB2642B2B70F1D1A1
:1026C000F4EEE35A0123F1EE10FA237016D427EE4C
:1026D000857A394BA3EE267AD3ED005A82ED007A43
:1026E00037EEC77A27EE077A27EE247AA5EE847AAA
:1026F00083ED007A314B1B78CBB970BD002323707A
:1027000027EE267A2E4BDFED2F5AD3ED004AA7EEA7
:10271000857A81ED007A37EEC77A27EE077A27EEC1
:10272000257ADFED295AA4EEA57A83ED007A66EECC
:10273000266AE7EE856AC0ED006ADEE7B4F5803F01
:1027400028BF0024DFED207ADFED1E6A641BA4B2EF
:1027500026EE277A07EE904AF8EE677AA7EEA67A79
:1027600080ED007A81ED007A82ED007AC5E700BF46
:102770000004004090040020750400208C04002018
:1027800088040020840400200000E1447804002034
:102790000AD7233CA4707D3F7404002076040020F7
:1027A0000000484217B7D1380000C842700400202A
:1027B0000000964372F97F3F7C040020B5000020A2
:1027C000800400206F12833A77BE7F3F13B540F23A
:1027D000115002F067F88023032200214FF090404F
:1027E00001F09EFE8023002201214FF0904001F075
:1027F00075FE0A4C80214FF0904001F0CAFE002384
:102800004FF48032CDE9002301216A46204602F0D0
:10281000C3FB204602F014FA02B010BD00040040D1
:10282000114A1378FBB1114B93ED007AB5EEC07AE3
:10283000F1EE10FA17DD0E49D1ED007AF5EEC07A0F
:10284000F1EE10FA0FDDB4EEE77AF1EE10FA02D5F0
:10285000002313707047074A074912680A60074946
:10286000C3ED007A0A607047B40000205C040020C9
:102870005804002060040020640400206804002044
:1028800070B58148042102F0E2F9002800F0C1800F
:102890007E4E7D483588012102F013FC80230446DA
:1028A000032200214FF0904001F03AFE80230022E5
:1028B00001214FF0904001F011FE80214FF0904037
:1028C00001F067FE7048042102F0C7F972B6802358
:1028D000002202214FF0904001F000FE80230322ED
:1028E00000214FF0904001F01BFE802201214FF0AB
:1028F000904001F050FE4FF08043D3F82434B3F5FC
:10290000803F28BF0023338062B6614B6148624933
:10291000624A1B7890ED006A91ED007A92ED003AE0
:10292000002B00F09780B4F5803F28BF0024A4B2AC
:10293000A5426ED0B5EEC06AF1EE10FA69DD641BF7
:10294000A4B207EE904AF8EE677ADFED555A77EEBB
:10295000C66AB0EEE65AB4EEE55AF1EE10FA58D572
:10296000504BDFED514AD3ED005A9FED504A504D88
:10297000504CDFED513A9FED515A66EEA66A66EE75
:10298000A46AE5EE846AC6EE865AC3ED006ADFEDFE
:102990004C6A4C4B65EEA66AC3ED006ADFED4A6AED
:1029A000F4EEE65AF1EE10FADFED486A04DDB4EE1B
:1029B000E76AF1EE10FA09D400232B70F4EEE35A23
:1029C000F1EE10FA26D423786BB925E02B78013389
:1029D000DBB2642B2B70F1D1F4EEE35A0123F1EE5C
:1029E00010FA237016D427EE857A394BA3EE267A97
:1029F000D3ED005A82ED007A37EEC77A27EE077AD8
:102A000027EE247AA5EE847A83ED007A314B1B7889
:102A1000CBB970BD0023237027EE267A2E4BDFED55
:102A20002F5AD3ED004AA7EE857A81ED007A37EE72
:102A3000C77A27EE077A27EE257ADFED295AA4EE2A
:102A4000A57A83ED007A66EE266AE7EE856AC0ED28
:102A5000006ADEE7B4F5803F28BF0024DFED207A6E
:102A6000DFED1E6A641BA4B226EE277A07EE904AB9
:102A7000F8EE677AA7EEA67A80ED007A81ED007A0B
:102A800082ED007AC5E700BF000400406C0400201E
:102A90005104002068040020640400206004002029
:102AA0000000E144540400200AD7233CA4707D3F79
:102AB00050040020520400200000484217B7D138CB
:102AC0000000C8424C0400200000964372F97F3F8A
:102AD00058040020B40000205C0400206F12833AE8
:102AE00077BE7F3F1D4B1A781D4B197891421EBF50
:102AF0001A7000221A721B4A197B127891421EBF6B
:102B00001A7300221A75184A197E127891421EBF54
:102B10001A76002283F82020144A93F824101278A1
:102B200091421EBF83F82420002283F82C20104AF3
:102B300093F83010127891421EBF83F830200022A3
:102B400083F838200B4A93F83C10127891421EBF4C
:102B500083F83C20002283F84420704706050020BB
:102B600000040020E2040020BE0400209A0400209B
:102B700076040020520400202DE9F04F4B4BDFF883
:102B800054B193F800A00623BAFBF3F803FB18A88E
:102B90005FFA88F80C2303FB08F30BEB030285B004
:102BA000127A002A7AD1424D1BF80330AB70012211
:102BB0002A7042446A703F4A1388002B68D03E480E
:102BC000D0F80090013B138009F10103594201F054
:102BD0001F0103F01F0358BF4B420360374B1F8890
:102BE000374B4FF496741B88ADF80C3003A8A52121
:102BF000FDF752FBB7FBF4F104FB1171314B89B2C5
:102C0000A5265E540321FDF747FB791C89B2B1FB71
:102C1000F4F004FB10112B4B89B203202A46BE1C92
:102C20007D1D5854B6B2ADB212F8011B03A8CDE910
:102C30000012FDF731FBB6FBF4F004FB1060013627
:102C4000204B0099019A80B2B6B2B5421954EBD12B
:102C5000B5FBF4F104FB1155ADB29DF80C105955BC
:102C6000B91D89B2B1FBF4F004FB101189B2134A0B
:102C70009DF80D005854FB1D1380134B134A23F885
:102C80001970134B072103F80910138801331380BF
:102C90000C2303FB08BB01238BF80830034B0AF11C
:102CA000010A83F800A005B0BDE8F08F48040020B9
:102CB000FD030020E00000207807002044060020EB
:102CC000A4570008460600209C0700207207002039
:102CD0007C07002000040020024A137883F00103DF
:102CE000137070478C0300202DE9FF47DFF85481F3
:102CF000494F4A4CDFF850A118F8013BABBBA4F197
:102D00001C0501F089FB284601F0B2FB444B1B88EF
:102D1000ADF80C30B94659F8046B03A8C6F3074167
:102D2000FDF7BAFAC6F30721FDF7B6FAF1B2FDF7DF
:102D3000B3FA01F071FB28463146043501F0B4FBCB
:102D4000A542E8D19DF80C5001F066FB29462046CB
:102D500001F0AAFB9DF80D5001F05EFB2946201DF5
:102D600001F0A2FB012308F8013C04F580645445FE
:102D700007F11C07C0D12B4D2C78002C48D101F055
:102D80004BFB294801F074FB254B1B88ADF80C3038
:102D9000264BD3ED007A264BB7EE007AF4EEC77AD5
:102DA000F1EE10FA1E780ED89FED227A67EE877A40
:102DB000F5EEC07AF1EE10FAA2BFFCEEE77ACDEDA7
:102DC000017A9DF8044003A82146FDF765FA3146D3
:102DD000FDF762FA01F020FB2146134801F064FB85
:102DE00001F01AFB3146144801F05EFB9DF80C40DF
:102DF00001F012FB2146114801F056FB9DF80D40F1
:102E000001F00AFB0E48214601F04EFB01232B7016
:102E100004B0BDE8F08700BF1C0300201CC0000800
:102E2000A45700088100002000D000089000002076
:102E30009400002000007F4304D0000808D0000860
:102E40000CD00008820000201CD000082DE9F04FB3
:102E5000724B1B7885B0002B00F0D880704B714A04
:102E60001D681388002B00F0C5806F49DFF8D481FE
:102E7000D1F800B0013B13800BF101035A4202F07C
:102E80001F0203F01F0358BF53420B60674B1E889D
:102E9000674B4FF4967403A81B88ADF80C30A5213E
:102EA000FDF7FAF9B6FBF4F304FB13639BB2A5221A
:102EB000182108F80320FDF7EFF9731C9BB2B3FB50
:102EC000F4F204FB12339BB21822E02108F803202D
:102ED000FDF7E2F9691CB31CB1F5807F9BB228BFF6
:102EE0000021B3FBF4F204FB12339BB2CFB2E02219
:102EF000394608F80320FDF7CFF9F31C9BB2B3FB6A
:102F0000F4F204FB12339BB2012108F80370FDF7C1
:102F1000C3F9331D9BB2B3FBF4F204FB12339BB233
:102F2000012208F80320434A1C23771D06F11A09E1
:102F300003FB0522BFB21FFA89F952F804AB0192D4
:102F400003A8CAF307410091FDF7A6F9B7FBF4FC0B
:102F500004FB1C7C1FFA8CFC009908F80C10CAF3C7
:102F600007210091FDF798F907F1010C1FFA8CFC7D
:102F7000BCFBF4FE04FB1ECC1FFA8CFC009908F885
:102F80000C105FFA8AF10091FDF786F9BB1C9BB229
:102F90000337B3FBF4F004FB10339BB2BFB20099CC
:102FA00008F80310B945019AC7D1B9FBF4F304FB43
:102FB00013991FFA89F99DF80C3008F8093006F1C9
:102FC0001B039BB2B3FBF4F204FB12339BB29DF8DC
:102FD0000D2008F80320154B06F11C021A80164B31
:102FE00023F81B60154B1C2203F80B20144A13888E
:102FF00001331380022D0CDC01356B4203F0030317
:1030000005F0030558BF5D42054B1D6005B0BDE8E6
:10301000F08F024A00231370F8E700BF8000002001
:1030200018030020E000002078070020440600205C
:10303000A45700081C0300209C0700207C070020E8
:1030400072070020460600202DE9F347DFF8F480E0
:10305000344C354DB8F800A0ADF804A0A5F11C071C
:10306000A14657F8046B49F8046B01A8C6F3074161
:10307000FDF712F9C6F30721FDF70EF9F1B2FDF7DE
:103080000BF9BD42EDD19DF8040029686B689DF8ED
:103090000520884243D0254BA361C4E90033C4E92D
:1030A0000233C4E90433224B05F580659D4204F1E7
:1030B0001C04D1D1B8F80030ADF804301D4BD3E971
:1030C0000045B4F5807F28BF0024E4B2214601A862
:1030D000D3E90276FDF7E0F8B5F5807F28BF00253B
:1030E000EDB22946FDF7D8F89DF80430BB4213D164
:1030F0009DF80530B3420FD107EE904A9FED0E7A4E
:103100000E4BF8EE677A67EE877AC3ED007A6B1E96
:103110005D425D410A4B1D7002B0BDE8F0879A42E6
:10312000C1D0B8E71C0300201CC0000877777700E7
:103130001CD0000800D000088180803B9000002057
:1031400094000020A457000808B540F2115001F087
:10315000A9FB4FF48063032200214FF0904001F05F
:10316000DFF94FF48063002202214FF0904001F01C
:10317000B5F9BDE808404FF4806204214FF090405B
:1031800001F009BA08B540F2115001F08BFB4FF481
:103190000073032200214FF0904001F0C1F94FF479
:1031A0000073002202214FF0904001F097F9BDE832
:1031B00008404FF4007204214FF0904001F0EBB949
:1031C00010B50F4C40F2157001F06CFB20460D4914
:1031D000002201F011FA00231A461946204601F098
:1031E0008DFA204601F0A9FA00221146172001F0BD
:1031F0000BFBBDE8104001220021202001F004BBA0
:1032000000540040801A060010B5124B124C1A7878
:10321000124B1A70124A01231360124A8021117056
:10322000114A1370114B0022204640F209111A80F6
:1032300001F097FA20464FF4857101F092FA20468A
:103240004FF4847101F08DFA2046BDE8104001F082
:1032500079BA00BF0400002000540040060300209B
:1032600000030020070300200803002004030020BF
:1032700010B5124B124C1A78124B1A70124A0123D5
:103280001360124A80211170114A1370114B0022F1
:10329000204640F209111A8001F063FA20464FF4EB
:1032A000857101F05EFA20464FF4847101F059FAFD
:1032B0002046BDE8104001F045BA00BF02000020E2
:1032C00000540040060300200003002007030020F4
:1032D0000803002004030020134A002310B51370D4
:1032E000124A134C02211160124A80211170124AB5
:1032F0001370124A20464FF48061138001F009FADE
:10330000204640F2091101F02CFA20464FF4857155
:1033100001F027FA20464FF4847101F022FA20468A
:10332000BDE8104001F00EBAF702002000030020B3
:10333000005400400703002008030020040300207D
:103340002DE9F04F4F4B1B7885B0002B00F0968095
:103350004D4ADFED4E6AC22313704D4B1B885BBA9A
:103360009BB207EE903AB8EE677AF9EE087AE7EE8C
:10337000267A9FED487A67EE877AF5EEC07AF1EE0D
:1033800010FAA9BFFCEEE77A002317EE903A9BB241
:1033900053701B0A9370404A1388002B6ED03F492C
:1033A0003F4FD1F800903E88DFF80881DFF8D8B0B1
:1033B000013B138009F101035A4202F01F0203F09E
:1033C0001F0358BF53420B60364B4FF496741B8853
:1033D000ADF80C30A52103A8FCF75EFFB6FBF4F3B3
:1033E00004FB13639BB2A522032108F80320FCF71A
:1033F00053FF731C9BB2B3FBF4F204FB12339BB27A
:10340000032206F1020A751D08F803201FFA8AFA42
:10341000ADB21BF8011B019103A8FCF73DFFBAFBFD
:10342000F4F304FB13A30AF1010A9BB21FFA8AFA10
:10343000019908F803105545EBD1B5FBF4F304FBF3
:103440001355ADB29DF80C3008F80530B31D9BB292
:10345000B3FBF4F204FB12339BB29DF80D2008F885
:103460000320F31D3B80104B23F819600F4B0722FC
:1034700003F809200E4A13880133138005B0BDE814
:10348000F08F00BFF7020020F80200200000FA3A97
:10349000FB0200200000C842E00000207807002066
:1034A00044060020A45700089C0700207C07002049
:1034B000720700204606002010B5124B124C1A78F5
:1034C000124B1A70124A01231360124A80211170A4
:1034D000114A1370114B0022204640F209111A8044
:1034E00001F03FF920464FF4857101F03AF920468A
:1034F0004FF4847101F035F92046BDE8104001F029
:1035000021B900BF03000020005400400603002042
:10351000000300200703002008030020040300200C
:103520002DE9F04F4F4B1B7885B0002B00F09680B3
:103530004D4ADFED4E6AC02313704D4B1B885BBABA
:103540009BB207EE903AB8EE677ADFED4A7AE7EE83
:10355000267A9FED497A67EE877AF5EEC07AF1EE2A
:1035600010FAA9BFFCEEE77A002317EE903A9BB25F
:1035700053701B0A9370414A1388002B6ED0404948
:10358000404FD1F800903E88DFF80C81DFF8D8B0CA
:10359000013B138009F101035A4202F01F0203F0BC
:1035A0001F0358BF53420B60374B4FF496741B8870
:1035B000ADF80C30A52103A8FCF76EFEB6FBF4F3C2
:1035C00004FB13639BB2A522032108F80320FCF738
:1035D00063FE731C9BB2B3FBF4F204FB12339BB289
:1035E000032206F1020A751D08F803201FFA8AFA61
:1035F000ADB21BF8011B019103A8FCF74DFEBAFB0D
:10360000F4F304FB13A30AF1010A9BB21FFA8AFA2E
:10361000019908F803105545EBD1B5FBF4F304FB11
:103620001355ADB29DF80C3008F80530B31D9BB2B0
:10363000B3FBF4F204FB12339BB29DF80D2008F8A3
:103640000320F31D3B80114B23F81960104B072218
:1036500003F809200F4A13880133138005B0BDE831
:10366000F08F00BFF7020020F802002052B82F3B75
:10367000FB0200201F853BC20000C842E000002082
:103680007807002044060020A45700089C0700206B
:103690007C0700207207002046060020494B4A495B
:1036A0001B784A4870B5002B3DD001F06FF840B14F
:1036B0006FF00102464B45481978BDE8704001F0B3
:1036C00034B84449414801F061F828B141493F48C4
:1036D000BDE8704001F084B83F493C4801F056F81D
:1036E00060B13E4D3E4B2C881B68A34207DD3D4B2D
:1036F00036481978013401F02FF82C8070BD33481A
:1037000001F025F831484FF4847101F034F82F4866
:103710004FF4857101F02FF8BDE870402B4840F25E
:10372000091101F028B801F031F8044608B101226E
:10373000C0E7284925482A4E01F028F8054638B147
:103740003368012BC2D12148214600F0E2FFBDE7DA
:1037500025491E48346801F019F80028CED0022C03
:1037600016D11A48294600F0D4FF1C4D1748013CD9
:1037700034602C8800F0F2FF04F001031B4A1A4960
:10378000D054012C04BF1A4B1C7001342C809EE7CE
:10379000012CEAD10D4800F0DAFF29460B4800F071
:1037A000BEFF0A484FF4847100F0E5FF07484FF46C
:1037B000857100F0E0FF054840F2091100F0DBFFE1
:1037C000D3E700BF080300200901000500540040B2
:1037D0000703002009010105090107050403002072
:1037E000000300200603002009010605FB0200205B
:1037F000F702002010B50F4C0F49204600F0F0FFF3
:1038000020460E4900F0ECFF20460D4900F0E8FF8D
:1038100020460C4900F0E4FF20460B4900F0E0FF91
:1038200020460A4900F0DCFF20460949BDE8104067
:1038300000F0D6BF0054004008010A0508010F053A
:1038400008010E0508010B05080109050801080516
:1038500008010C0510B5094C40F2125001F022F895
:10386000204620230322002100F05AFE2046202378
:10387000BDE810400022012100F030BE00040048E5
:103880001B490B78F0B47BB11A4B1B4A1B681268BA
:103890009B1A1A4A1278934228D900230B70F0BC65
:1038A0001748202100F075BE1648174E1A460C2501
:1038B00005FB02F410F8017B345DABB90CB187F065
:1038C00001030132062A03F0010300F8014CEFD195
:1038D00063B101230B70074B09481A68064BF0BC13
:1038E00020211A6000F053BE0123EAE7F0BC7047C4
:1038F000F60200208C0A0020EC02002001000020CB
:1039000000040048F00200200004002037B5164CE7
:10391000237833BB00F080FD144800F0A9FD144B60
:103920001B88ADF80430134B1D7801A82946FCF71D
:10393000B3FC00F071FD29460C4800F0B5FD9DF880
:10394000045000F069FD29460B4800F0ADFD9DF8DC
:10395000055000F061FD0948294600F0A5FD01234E
:10396000237003B030BD00BF0000002000BC000881
:10397000A45700080100002004BC000808BC00088F
:10398000104B73B5D3F8004CD3F8046CD3F8085C33
:103990000D4BB4F5807F28BF0024E4B21B88ADF83E
:1039A0000430214601A8FCF777FC9DF80430B342AF
:1039B00005D19DF80530AB4204BF044B1C7002B02A
:1039C00070BD00BF00B00008A4570008010000202F
:1039D0002DE9F84FA54BDFEDA67A93F800C0A54B73
:1039E000A54D93F800E0A54BA54CD3ED005AA54B8F
:1039F0009FEDA56A1B68DFF8C882DFF8C892A3486C
:103A00001C2265EEA75A02FB03442F4600220C2617
:103A100055F8041BBCF1000F72D018F80230002BCF
:103A20006ED019F8023013B1BEF1000F6FD054F808
:103A30002230C3F3074A07EE10AAC3F3072ADBB20A
:103A400006EE90AA07EE903AB8EEC77AF8EEE66A6C
:103A5000F8EEE77A27EE257A66EEA56A67EEA57A94
:103A6000013206FB0101072A81ED007AC1ED016AEE
:103A7000C1ED027ACCD1DFF850C29CF80060002E74
:103A800000F0D080824D9FED836A2968782391FBF6
:103A9000F3F203FB1212804B03EB8203D3ED006AB7
:103AA000FCEEE67A4FF03C0E17EE903A9BB2B3FB79
:103AB000FEF40EFB1433B7EE007A9BB237EE667A53
:103AC00007EE903A27EE267AF8EE677A4FF006086E
:103AD00067EE867A36EEC76AB4FBF8F267EE867A4E
:103AE00008FB124292B237EE276AFAB1531E76EE05
:103AF000E77A032B00F28E80DFE803F08F107F88D7
:103B0000B0EE467AF0EE466AF0EE467AA8E79FED10
:103B10005E7AF0EE476AF0EE477AA1E7F0EE667A59
:103B2000F0EE476AB0EE467AB0EE676A782904D1C3
:103B30005A4B1B780BB98CF8003001312960DFF843
:103B40008CC15749DFF8888100220C244FF07E5B3E
:103B500004FB02F35CF8049B18F803A08E460025D2
:103B60004D4566DB0132062A01F11001F0D14D4BC3
:103B7000464A9FED4D7A00201C46D2ED017A67EE51
:103B8000877A0130FCEEE77A072817EE901AD2ED1B
:103B9000007A197067EE877A02F10C02FCEEE77A80
:103BA00003F1030317EE901A52ED017A03F8021C99
:103BB00067EE877AFCEEE77A17EE901A03F8011C9D
:103BC000DBD13A4B21783A4C01221A80394A3A4BE0
:103BD00002EBC10052F831201A60426837485A603F
:103BE0000021E36001F031F82146022000F090FB53
:103BF000BDE8F84F022000F077BBB0EE676AF0EE48
:103C0000667AF0EE476AB0EE677A8FE7F0EE667A92
:103C1000F0EE466AB0EE476AF5E7B0EE666AF0EE9F
:103C2000676A83E79FED187AB0EE476AF0EE476A5D
:103C300085E75EF8043B57F82330BAF1000F09D04E
:103C400004FB0303C3F800B0C3F804B0C3F808B022
:103C5000013585E7002EFBD004FB0303C3ED006AAA
:103C600083ED016A83ED027AF2E700BF9400002041
:103C70008180803B8C030020980000209000002071
:103C80001C03002014030020000000009403002007
:103C90000C0300208988883CD057000810030020BE
:103CA00008000020E803002000007F4322050020D8
:103CB000BC000020B0590008240500200044014049
:103CC000860000208D0300200500002068000020F1
:103CD00000040020B34BDFEDB47A93F800C0B34B7F
:103CE0009FEDB36A2DE9F74F93F800E0B14BB24D69
:103CF000D3ED005AB14BB24C1B68DFF8FC82DFF801
:103D0000FC92B0481C2265EEA75A02FB03442F46E2
:103D100000220C2655F8041BBCF1000F72D018F8D5
:103D20000230002B6ED019F8023013B1BEF1000F33
:103D30006FD054F82230C3F3074A07EE10AAC3F33A
:103D4000072ADBB206EE90AA07EE903AB8EEC77AE1
:103D5000F8EEE66AF8EEE77A27EE257A66EEA56ACF
:103D600067EEA57A013206FB0101072A81ED007A90
:103D7000C1ED016AC1ED027ACCD1DFF884C29CF8B2
:103D80000060002E00F0E5808F4D9FED906A29685D
:103D9000782391FBF3F203FB12128D4B03EB8203AA
:103DA000D3ED006AFCEEE67A4FF03C0E17EE903A47
:103DB0009BB2B3FBFEF40EFB1433B7EE007A9BB25A
:103DC00037EE667A07EE903A27EE267AF8EE677AB3
:103DD0004FF0060867EE867A36EEC76AB4FBF8F253
:103DE00067EE867A08FB124292B237EE276AFAB182
:103DF000531E76EEE77A032B00F2A380DFE803F090
:103E0000A410949DB0EE467AF0EE466AF0EE467A43
:103E1000A8E79FED677AF0EE476AF0EE477AA1E7F0
:103E2000F0EE667AF0EE476AB0EE467AB0EE676A78
:103E3000782904D1674B1B780BB98CF8003001311D
:103E40002960DFF8C0C16449DFF8BC8100220C247E
:103E50004FF07E5B04FB02F35CF8049B18F803A0B0
:103E60008E4600254D457BDB0132062A01F110010B
:103E7000F0D15A4B5349DFED5A7A002216461F46BD
:103E800091ED017A93F8008093F801E093F802C075
:103E900027EE277ABCEEC77A8DED017A91ED007A94
:103EA0009DF804501D7027EE277AA845BCEEC77A0E
:103EB0008DED017A91ED027A9DF804405C7027EE59
:103EC000277ABCEEC77A8DED017A9DF804009870D0
:103ED00062D1A64560D1844518BF01220136072E64
:103EE00003F1030301F10C01CAD1002A56D03D4B66
:103EF00039783D4C01221A803C4A3D4B02EBC1000F
:103F000052F831201A6042683A485A600021E36052
:103F100000F09BFE2146022000F0FAF9022003B0D7
:103F2000BDE8F04F00F0E0B9B0EE676AF0EE667AF7
:103F3000F0EE476AB0EE677A7AE7F0EE667AF0EE76
:103F4000466AB0EE476AF5E7B0EE666AF0EE676A79
:103F50006EE79FED177AB0EE476AF0EE476A70E7BA
:103F60005EF8043B57F82330BAF1000F09D004FB88
:103F70000303C3F800B0C3F804B0C3F808B00135B8
:103F800070E7002EFBD004FB0303C3ED006A83ED52
:103F9000016A83ED027AF2E701229FE703B0BDE8F0
:103FA000F08F00BF940000208180803B8C030020B4
:103FB0000000000090000020980000201403002062
:103FC0001C030020940300200C0300208988883CF7
:103FD000D05700081003002008000020E80300204C
:103FE00000007F4322050020BC000020B0590008DB
:103FF0002405002000440140860000208D0300209D
:10400000050000206800002000040020022170B597
:10401000084600F0CBF908B3114D0121022000F051
:10402000F9F92C88142C19D80E4A0F4B115D0F4A40
:104030000F4E02EBC10052F831201A6042680D4861
:104040005A600021F36000F000FE3146022000F0CB
:104050005FF90134022000F047F92C8070BD00BFE9
:1040600022050020E803002024050020B0590008A4
:10407000BC0000200044014008B5FCF783F8FCF7C1
:104080009BF8FCF7C7F8FCF7E0F8FCF7F9F8FCF749
:10409000EBF9FDF70BFBFDF725FBFDF741FBFDF70A
:1040A00085FBFDF7B1FBFDF73BFDFDF767FDFDF778
:1040B000EDFEFEF777F8FEF7FDF9FEF787FBFEF75A
:1040C000C3FFFFF741F8FFF75DF8FFF779F8FFF757
:1040D000C1FBFFF755FCBDE80840FFF779BC0000C5
:1040E0002DE9F04F002589B0CDE90655CDE90455FD
:1040F000CDE90255CDE90055A9462E46A8462F46E2
:10410000AA466A4B1C6842F20F73A4EB0A029A4259
:1041100002D9FDF73DFAA246E11B41F287329142F6
:10412000A4EB080318D8B3F5FA7F3DD3FDF796FB4F
:10413000FDF74EFDFDF7D4FEFEF75EF8FEF7E4F95D
:10414000FEF76EFBA31B092B02D9FEF7CBFC26461C
:10415000FEF7C2FDA0462DE0554ADFF868B1554F85
:104160000120B3F5FA7F107014D3FDF777FB524BA3
:104170001870FDF72DFD8BF80000FDF7B1FE3870CB
:10418000FEF73AF84D4B1870FEF7BEF94C4B274638
:104190001870D5E7484B38701870484B8BF8000002
:1041A0001870474B27461870A31B092B02D9FEF73E
:1041B00099FC2646009BA4EB030BBBF57A7F02D348
:1041C000FEF792FD0094019BE31A312B02D9FEF712
:1041D0003DFE0194029BE21A43F697239A4202D9CC
:1041E000FFF712F80294039BE21A43F6A6239A42C1
:1041F00004D9FFF73DF8A4F10F030393049BE21ADF
:1042000043F6C4239A4204D9FFF766F8A4F12D03BC
:104210000493059BE21A43F6C5239A4204D9FFF79B
:104220008FF8A4F12E030593069BE21A44F294231F
:104230009A4204D9FFF740F9A4F2FD730693079B55
:10424000E21A44F2E9239A4204D9FFF745F8A4F6AA
:1042500052030793A4EB090244F2EA239A4203D9DA
:10426000FFF75EF9A4F65309BBF57A7F01D3FFF798
:104270004DFB631B202B02D9FFF72CFD2546FCF7D5
:1042800041F9FDF7FFF8FDF75DF9FDF717FBFDF7C5
:10429000CFFCFDF755FEFDF7DFFFFEF765F9FEF7F2
:1042A000EFFAFEF769FCFFF7EBFA2AE78C0A002029
:1042B0000505002099040020E10400207504002079
:1042C00051040020BD04002008B5FFF7D5FEFFF71C
:1042D00007FF00001423034A5843835823F02003A8
:1042E00083507047080002401423034A5843835800
:1042F00043F0010383507047080002401423034A2F
:104300005843835823F0010383507047080002404C
:1043100038B50446FFF7F2FF142303FB04F0184BF3
:104320000A68C2500433CA68C250083B0A8BC250A4
:10433000043B0D694A68C4582A43CD6924F47C546F
:104340002A432243C2500A7A012AC2580CBF42F0C3
:10435000400222F04002C2500A7D012AC2580CBF1E
:1043600042F0800222F08002C2504A7D22B9C25837
:1043700022F01002C25038BDC25842F01002F9E7D4
:1043800010000240034B80005A688140114359607D
:10439000704700BF000002401423034A584383586B
:1043A0000B438350704700BF08000240042913D01C
:1043B00008291DD0022927D1144B82001B68914087
:1043C00019401423124A4343985800F00200D9B10F
:1043D000003818BF012070470C4B82001B689140C9
:1043E000194014230A4A4343985800F00400EEE7AA
:1043F000064B82001B689140194014235843044B1C
:10440000C05800F00800E2E70020704700000240BA
:1044100008000240FFF7B6BF044B1A69120641BFFD
:10442000034A5A6002F188325A6070470020024005
:1044300023016745074BDA68D10707D4DA68D2064B
:1044400006D4D868C0F38000400070470120704750
:10445000032070470020024010B50446FFF7EAFF32
:10446000012804F1FF3402D1002CF7D1042010BD43
:1044700038B505464FF47020FFF7EEFF88B9094CB8
:10448000236943F0020323616561236943F040031C
:1044900023614FF47020FFF7DFFF236923F002034D
:1044A000236138BD0020024070B505464FF47020EE
:1044B0000E46FFF7D1FF68B9074C236943F00103AB
:1044C00023614FF470202E60FFF7C6FF236923F0AD
:1044D0000103236170BD00BF002002402DE9F043BD
:1044E0000568C46800264FF0010E4FF003080EFA6D
:1044F00006F71F420DD0770008FA07FC01FA07F90A
:1045000025EA0C0524EA0C0402FA07F749EA050536
:104510003C430136102EEAD10560C460BDE8F0834B
:1045200001294168F0B50CBF194399434FF6FF7458
:104530004160A242816815D1C46B002201274FF06F
:10454000030C07FA02F61E421CBF55000CFA05F5D3
:1045500002F101021CBF29433443102AF1D18160CA
:10456000C463F0BD002401274FF0030C07FA04F5E3
:104570001D4207D065000CFA05F621EA060102FA91
:1045800005F529430134102CF0D18160E9E7816100
:10459000704781627047F0B5066A456A00234FF0A4
:1045A000010C4FF00F0E0CFA03F4144207D09C00DC
:1045B0000EFA04F726EA070601FA04F4264301334B
:1045C000082BF0D100234FF0010C4FF00F0E03F138
:1045D00008040CFA04F4144207D09C000EFA04F705
:1045E00025EA070501FA04F425430133082BEED12F
:1045F00006624562F0BD000070B5044602200D461B
:10460000164600F06FF9394A3949B0FBF1F1904292
:1046100094BF0B463F23626822F03F021A43626058
:10462000344A954216D801313E290DD93F232362E1
:104630006D00B0FBF5F5042DE36938BF0425C5F323
:104640000B051D43E56170BD022901D80223EEE789
:104650002162EDE7284A95424FF47A7124D84FF44D
:1046600096725343B3FBF1F301332362A6B9E269B7
:1046700022F4804205EB4503B0FBF3F3E261C3F3A0
:104680000B020AB943F00103E26942F40042E2611D
:10469000E2691343E361D6E7E26919236B4342F40D
:1046A0008042B0FBF3F3E9E778225343B3FBF1F325
:1046B0000133236296B9E36923F4804305EB450592
:1046C000B0FBF5F0E361E36943F40043E361E369C0
:1046D0000343E3610123C4F89030B4E719235D4339
:1046E000E369B0FBF5F043F48043EBE7BF4DC10352
:1046F00040420F00A0860100801A060010B5046831
:10470000C3F3090324F002040C43134304608360E1
:1047100010BD036823F480630B4303607047036894
:1047200023F400630B430360704702320CBF21F097
:10473000010141F0010101617047036843F0010389
:1047400003607047036843F4807303607047036835
:1047500043F4007303607047016170470069C0B2A1
:1047600070478A0910B501F01F01145801238B40CE
:104770002343135010BD10B58C090122235801F0BA
:104780001F018A4023EA0203235010BDC1F389139D
:1047900030B501F01F0244681D58012303FA02F2EC
:1047A0002A408D0D2D58C1F3044003FA00F00B4B45
:1047B00021F48031994200EA050007D152B114F486
:1047C000806409D0003818BF012030BD0028FCD01B
:1047D000101EF8E71046F8E72046F6E7090106053F
:1047E000084B994210B502D14369836910BD8C0D05
:1047F00001222358C1F304418A4023EA02032350D3
:10480000F4E700BF0901010510B51D4CE36803F48E
:10481000E063B3F5A06F08D020D8B3F5407F26D071
:10482000B3F5806F26D0174BE36002231C46C4F11A
:104830000404A140C3F104040F23E3401340124ACF
:104840000B431B011118DBB281F80033410901232E
:1048500000F01F00834042F8213010BDB3F5C06F57
:104860000BD0B3F5E06FDED104230024DFE7002393
:104870000424DCE701230324D9E703230124D6E73A
:1048800000ED00E00005FA0500E100E021F06041E4
:10489000034B21F07F0101439960BFF34F8F7047B5
:1048A00000ED00E0830903F1804303F5043300F0D9
:1048B0001F001968012282400A431A607047830969
:1048C00003F1804303F5043300F01F001A6801214F
:1048D000814022EA01021A607047FFF7E3BFFFF749
:1048E000EEBF0000F0B55D4B89B0054604AC03F1A6
:1048F00010061F4618685968224603C20833B3429F
:104900001446F7D1716838696B4603C303C3544931
:104910004B68C3F38103022B44D14A684868CB6AD1
:104920000601C2F383424FEAD37334D4002B30D153
:1049300002324B68C86ADC0332D5CB6A400003F010
:104940000F0354BF474848480133B0FBF3F35A43C1
:104950004B68C3F3031320336B4413F8104C4B68BC
:10496000C3F3022320336B4422FA04F413F8206CBF
:104970004B68C3F3C22320336B4413F8183C24FA6A
:1049800003F0062D10D8DFE805F064121410174666
:104990004F002132CDE70BB91132CAE73132C8E7F7
:1049A000324BD4E72F4AD3E7002009B0F0BD2046B0
:1049B000FBE724FA06F0F8E70B6BDA0507D40B6B7C
:1049C0002B4813F4803F2B4B08BF1846EDE74A688D
:1049D0000B6BC2F38132022A4FEAD3730FD0032A42
:1049E00014D0012A06D00BB94008DEE70320B4FB3F
:1049F000F0F0DAE70BB98008D7E70520F7E71BB935
:104A00000623B0FBF3F0D0E70720F0E70BB9C008AE
:104A1000CBE70920EBE70B6B13F0400F48F21200D5
:104A200018BF4FF40040C0E70B6B9B07BDD00B6B6A
:104A300003F00303012B0CD00B6B03F00303022BD9
:104A400009D00B6B074803F00303032B18BF0020AA
:104A5000ABE71046A9E74FF40040A6E7B8570008B7
:104A60000010024000127A00006CDC0200093D00D8
:104A7000003FAB01809FD50008B5274B98421ED060
:104A80000BD8A3F5943398422AD003F5E05398420B
:104A90002DD0B0F1804F1CD008BD204B98422DD0B6
:104AA00003F58063984230D0A3F500639842F3D1B8
:104AB0004FF44470FFF711FF4FF4447005E040F2EB
:104AC0000B30FFF70AFF40F20B30BDE80840FFF75C
:104AD00006BF4FF48060FFF700FF4FF48060F4E7FB
:104AE00040F20140FFF7F9FE40F20140EDE74FF4DC
:104AF0008160FFF7F2FE4FF48160E6E740F211308B
:104B0000FFF7EBFE40F21130DFE740F21230FFF723
:104B1000E4FE40F21230D8E7002C0140004401408E
:104B20000B8810B58362424B98421BD020F48063FF
:104B3000B3F1804F16D08B68C3623E4B98423CD095
:104B400003F5903398424FD03B4A904255D002F53E
:104B5000806290425ED0A3F5A053984228D10B7B8F
:104B6000036325E0036823F07003036002684B8849
:104B70001343036002688B88134303608B68C3622E
:104B80002B4B984222D0B0F1804F16D0A3F594332E
:104B90009842D2D14FF08043D3F8002422F44072DF
:104BA000C3F80024D3F80044CA882243C3F8002481
:104BB000436943F00103436110BD036823F440736C
:104BC00003600268CB8813430360F1E71B4BD3F803
:104BD000002C22F44072C3F8002CD3F8004CCA8891
:104BE0002243C3F8002CBAE7036823F44073036040
:104BF0000268CB8813430360B1E7D3F8002422F4A2
:104C00004072C3F80024D3F80044CA882243C3F892
:104C10000024A4E7D3F8002822F44072C3F8002847
:104C2000D3F80048CA882243C3F8002897E700BF9A
:104C3000002C0140002000400044014000200140C1
:104C4000036843F0010303607047416270470369E2
:104C50000B4214BF012000207047C9430161704717
:104C6000C3681943C1607047436C01290CBF43F40A
:104C7000004323F40043436470470000032900F21B
:104C80000381DFE811F0040047009A00DF00036AA7
:104C900023F001030362836923F003038361036A42
:104CA00011680B430362036A23F002030362016A83
:104CB000D3880B430362754B98420AD020F480617D
:104CC00003F5A053994204D003F50063984240F0E5
:104CD000DB80036A23F004030362016A93880B43B9
:104CE0000362036A23F008030362016A13890B431A
:104CF0000362436823F480734360416853890B4324
:104D00004360436823F400734360416893890B4315
:104D100043607047036A23F010030362836923F43E
:104D200040738361036A116843EA01130362036AF3
:104D3000D18823F020030362036A43EA011303626C
:104D4000524B98422DD1036A918823F040030362AD
:104D5000036A43EA01130362036A118923F08003A3
:104D60000362036A43EA01130362494B5089D3F893
:104D7000041C928921F48061C3F8041CD3F8041C3C
:104D800041EA8001C3F8041CD3F8041C21F400613B
:104D9000C3F8041CD3F8041C41EA8202C3F8042CB3
:104DA00070473C4B98426FD14368528923F480632B
:104DB0004360436843EA8203AAE7036A23F48073EB
:104DC0000362C36923F00303C361036A116843EA02
:104DD00001230362036AD18823F400730362036A28
:104DE00043EA01230362294B98424DD1036A91881B
:104DF00023F480630362036A43EA01230362036AC4
:104E0000118923F400630362036A43EA0123036206
:104E10001F4B5089D3F8041C928921F48051C3F8A8
:104E2000041CD3F8041C41EA0011C3F8041CD3F895
:104E3000041C21F40051C3F8041CD3F8041C41EAFB
:104E40000212ABE7036A23F480530362C36923F4BD
:104E50004073C361036A116843EA01330362036A62
:104E6000D18823F400530362036A43EA01330362E7
:104E7000064B984208D15968528921F48041596003
:104E8000596841EA82125A60704700BF002C014005
:104E9000002001400040014003291AD8DFE801F05A
:104EA000020A121A836923F0700383618369134332
:104EB00083617047836923F4E0438361836943EA34
:104EC0000223F5E7C36923F07003C361C369134389
:104ED000C3617047C36923F4E043C361C36943EA14
:104EE0000223F5E703290AD8DFE801F002040608E7
:104EF0004263704782637047C263704702647047C1
:104F000003291AD8DFE801F0020A121A836923F094
:104F1000080383618369134383617047836923F4C2
:104F200000638361836943EA0223F5E7C36923F0E1
:104F30000803C361C3691343C3617047C36923F4A2
:104F40000063C361C36943EA0223F5E703291AD862
:104F5000DFE801F0020A121A836923F00C0383616F
:104F60008369134383617047836923F440638361DA
:104F7000836943EA0223F5E7C36923F00C03C361A5
:104F8000C3691343C3617047C36923F44063C361BA
:104F9000C36943EA0223F5E710B4032924D8DFE804
:104FA00001F002284B6D036A23F001030362036AD8
:104FB00023F00A030362046A1388234303628369AC
:104FC00023F00303836184695388234383618369E6
:104FD000D48823F0F0038361836943EA0413836177
:104FE000036A43F00103036292885DF8044BFFF704
:104FF000ADBF036A148823F010030362036A23F031
:10500000A0030362036A43EA0413036283695488BA
:1050100023F440738361836943EA042383618369D2
:10502000D48823F470438361836943EA0433836142
:10503000036A43F01003D6E7036A148823F48073ED
:105040000362036A23F420630362036A43EA0423CE
:105050000362C36923F00303C361C4695388234314
:10506000C361C369D48823F0F003C361C36943EA11
:105070000413C361036A43F48073B4E7036A1488BA
:1050800023F480530362036A23F420430362036A18
:1050900043EA04330362C369548823F44073C36151
:1050A000C36943EA0423C361C369D48823F470430A
:1050B000C361C36943EA0433C361036A43F48053A1
:1050C00091E703290BD8DFE801F002040608406BE2
:1050D0007047806B7047C06B7047006C7047002052
:1050E0007047000008B50C4B98420DD003F574438F
:1050F000984210D140F20E30FFF7EFFB40F20E3035
:10510000BDE80840FFF7EBBB40F21140FFF7E5FBBD
:1051100040F21140F4E708BD0044004038B5134B9D
:10512000984204460D4618D003F57443984216D1B0
:105130000620FFF7D7FB226812044FEA550310D56B
:1051400003EB4003B3FBF5F1C1F3420321F00F0180
:105150000904090C0B43E36038BD0220E9E7002095
:10516000E9E70344B3FBF5F39BB2F4E700440040E6
:10517000036823F001030360036823F4C063036042
:1051800003680B4303607047036823F00103036067
:10519000036823F48053036003680B430360704784
:1051A000036823F001030360436823F44053436022
:1051B00043680B4343607047036843F00103036097
:1051C0007047036823F00803036003680B43036020
:1051D0007047036823F00403036003680B43036014
:1051E0007047C1F3080181627047406AC0F308004C
:1051F0007047026A01F01F0101238B4013430362D1
:1052000070478A0910B501F01F01145801238B4023
:105210002343135010BD10B58C090122235801F00F
:105220001F018A4023EA0203235010BDC1F38913F2
:1052300010B51C588B0D1A58C1F30440012303FA12
:1052400000F0104006D001F01F018B40234214BF34
:105250000120002010BD0000084B994206D1D0F873
:10526000D03023F40043C0F8D0307047026AC1F355
:10527000044101238B4013430362704709340F3408
:10528000DFF830D0002103E00B4B5B584350043172
:105290000A480B4B42189A42F6D30A4A02E000230E
:1052A00042F8043B084B9A42F9D300F011F8FFF79B
:1052B0000BF87047EC020020C063000800000020DB
:1052C000EC000020EC020020900A0020FEE7000025
:1052D0007E4BDA6902F00602062A82B047D0DA690C
:1052E000900444D57A4A7B4959605A6099609A6023
:1052F0001A6942F020021A611A6942F040021A61EA
:10530000DA68D107FCD41A6922F020021A611A69FE
:1053100042F010021A61DA6912F0060F6E4A40F08C
:10532000C780A5231380694B6B4AD969090A01F02C
:10533000DF015180D969C1F307419180D969090E14
:10534000D180196AC9B21181196AC1F3072151814B
:10535000DA68D207FCD41A6922F010021A611A69BD
:1053600022F400721A611A6942F080021A615B4AE3
:10537000D2F8883043F47003C2F88830584B1A686A
:1053800042F001021A601A689007FCD55A6842F090
:1053900080025A6000220192019A4F2A40F29080C6
:1053A0005A6842F090025A6000220192019A4F2AF4
:1053B00040F289805A6822F003025A601A6822F08B
:1053C000867222F480321A605968464A0A405A604E
:1053D0005A6822F0084222F474125A60DA6A22F003
:1053E000404222F00F02DA621A6B22F4817222F03C
:1053F00001021A631A6B22F480321A631A6B22F0CC
:1054000000421A635A6B22F001025A63D3F8C0209B
:1054100022F48032C3F8C02000229A60C3F8CC2066
:105420001A6842F480321A604FF4006219688903E6
:1054300001D4013AFAD11A68900333D55A685A60F8
:105440005A6842F400525A605A6842F480625A60C4
:105450005A6822F0036222F470225A60DA6A22F05B
:10546000404222F00F02DA625A6842F0016242F4CE
:1054700080325A60DA6A42F00102DA62DA6ADA628B
:105480001A6842F080721A601A689101FCD55A6855
:1054900022F003025A605A6842F002025A605A68C7
:1054A0001207FCD500214FF0006002B0FFF7EEB903
:1054B000DB6903F00603022B7FF435AFBB2331E732
:1054C000019A013267E7019A01326EE7002002403B
:1054D000AB89EFCD2301674500F8FF1F00ED00E029
:1054E000001002400C00FF082DE9F047089D0C4613
:1054F000002B4ED194468C458646B2FA82F262D990
:105500004AB1C2F12003914020FA03F30CFA02FCE5
:10551000194300FA02FE4FEA1C471FFA8CF6B1FB52
:10552000F7F44FEA1E4307FB141143EA014304FB5F
:1055300006F199420AD91CEB030304F1FF3080F015
:105540001381994240F21081023C6344591A1FFAB8
:105550008EF3B1FBF7F007FB101143EA014300FBA8
:1055600006F69E420AD91CEB030300F1FF3180F0DE
:10557000FD809E4240F2FA80634402389B1B40EA61
:10558000044000211DB1D3400022C5E90032BDE82E
:10559000F0878B4205D90DB1C5E90001002108460D
:1055A000F5E7B3FA83F1002946D1A34202D3904232
:1055B000C0F0F180861A64EB03030120002DE6D0D1
:1055C000C5E90063E3E7002A40F09180A1EB0C04F9
:1055D0004FEA1C481FFA8CF70121B4FBF8F64FEA9A
:1055E0001E4308FB164443EA044307FB06F09842B7
:1055F00008D91CEB030306F1FF3402D2984200F2F3
:10560000CE8026461C1A1FFA8EF3B4FBF8F008FB76
:10561000104443EA044300FB07F79F4208D91CEB00
:10562000030300F1FF3402D29F4200F2B180204612
:10563000DB1B40EA0640A5E7C1F120068B4022FAB9
:1056400006F71F4320FA06FC04FA01F343EA0C03B1
:10565000F44000FA01F8380C4FEA1349B4FBF0FEAD
:105660001FFA87FC00FB1E4449EA04440EFB0CF9B8
:10567000A14502FA01F20AD93C190EF1FF3A80F075
:105680008580A14540F28280AEF1020E3C44A4EB3D
:1056900009041FFA83F9B4FBF0F300FB134449EA51
:1056A000044403FB0CFCA44507D93C1903F1FF306B
:1056B00068D2A44566D9023B3C4443EA0E40A0FBB5
:1056C0000293A4EB0C049C42CE469C4652D34FD08E
:1056D00055B1B8EB0E0364EB0C0404FA06F6CB40AC
:1056E000CC401E43C5E900640021BDE8F087C2F14B
:1056F000200320FA03F10CFA02FC24FA03F394408D
:105700000C434FEA1C4800FA02FE1FFA8CF7B3FB69
:10571000F8F008FB1031230C43EA014300FB07F1CA
:10572000994208D91CEB030300F1FF362CD29942B1
:105730002AD9023863445B1AA4B2B3FBF8F108FB20
:10574000113344EA034401FB07F3A34208D91CEBDD
:10575000040401F1FF3613D2A34211D90239644483
:10576000E41A41EA004138E70446EFE6084605E757
:10577000C845ADD2B9EB020E63EB070C0138A7E7C1
:105780003146EDE7034698E73046D4E7D6467EE754
:10579000634402384CE70646234608460EE7023EBD
:1057A00063442FE7FFFF000001000000000000003D
:1057B00000000001000000000000000000000000E8
:1057C00001020304060708090000000001020304A7
:1057D000000000000B71D63C3B5E563D2AAFA03D59
:1057E0000513D63DA9A8053E5C30203EF39B3A3E0A
:1057F000CEE6543E4E0C6F3EEE83843E766A913E7A
:105800007A379E3EBCE8AA3E017CB73E16EFC33E07
:10581000C93FD03EF46BDC3E7271E83E284EF43E48
:105820000000003F78C2053F776D0B3F0000113F3D
:105830001879163FCAD71B3F241B213F3B42263F06
:10584000254C2B3F0138303FF304353F22B2393F1E
:10585000BE3E3E3FF8A9423F0AF3463F35194B3F53
:10586000BD1B4F3FEFF9523F1EB3563FA1465A3F73
:10587000D8B35D3F29FA603F0219643FD50F673FF7
:105880001EDE693F5E836C3F20FF6E3FF450713F28
:105890007178733F3675753FEA46773F3CED783F48
:1058A000E2677A3F98B67B3F25D97C3F55CF7D3F55
:1058B000FD987E3FF9357F3F2FA67F3F8BE97F3FE5
:1058C0000000803F8BE97F3F2FA67F3FF9357F3F68
:1058D000FD987E3F55CF7D3F24D97C3F98B67B3FD6
:1058E000E1677A3F3CED783FEA46773F3575753F93
:1058F0007078733FF450713F21FF6E3F5E836C3FC1
:105900001DDE693FD40F673F0019643F29FA603FED
:10591000D7B35D3F9F465A3F1DB3563FEEF9523F06
:10592000BB1B4F3F34194B3F08F3463FF5A9423F9D
:10593000BD3E3E3F23B2393FF304353F0038303F90
:10594000254C2B3F3A42263F221B213FC7D71B3F06
:105950001779163FFEFF103F736D0B3F79C2053F6D
:105960000100003F264EF43E6D71E83EF46BDC3ED4
:10597000C73FD03E10EFC33E007CB73EB8E8AA3E1A
:1059800073379E3E746A913EEA83843E4E0C6F3EAE
:10599000C8E6543EF89B3A3E5A30203EA1A8053E48
:1059A0000913D63D22AFA03D135E563D8C70D63C08
:1059B0001919191919191919191919191919194B25
:1059C0001919191919194B191919191919194B4BB1
:1059D00019191919194B191919191919194B194BA1
:1059E00019191919194B4B1919191919194B4B4B2D
:1059F000191919194B191919191919194B19194B81
:105A0000191919194B194B19191919194B194B4B0C
:105A1000191919194B4B1919191919194B4B194BFC
:105A2000191919194B4B4B19191919194B4B4B4B88
:105A30001919194B191919191919194B1919194B40
:105A40001919194B19194B191919194B19194B4BCC
:105A50001919194B194B19191919194B194B194BBC
:105A60001919194B194B4B191919194B194B4B4B48
:105A70001919194B4B1919191919194B4B19194B9C
:105A80001919194B4B194B191919194B4B194B4B28
:105A90001919194B4B4B19191919194B4B4B194B18
:105AA0001919194B4B4B4B191919194B4B4B4B4BA4
:105AB00019194B191919191919194B191919194BC0
:105AC00019194B1919194B1919194B1919194B4B4C
:105AD00019194B19194B191919194B19194B194B3C
