:020000040800F2
:10000000D4020020F53A0008413B0008413B0008BB
:10001000413B0008413B0008413B00080000000054
:10002000000000000000000000000000413B00084C
:10003000413B000800000000413B0008E1010008CE
:1000400000000000413B0008413B0008413B000824
:10005000413B0008413B0008413B0008413B000890
:10006000413B0008413B0008B52A0008413B00081D
:10007000413B0008413B0008413B0008413B000870
:10008000413B0008413B000800000000413B0008E4
:10009000413B0008413B0008413B0008F9250008AE
:1000A000413B0008413B0008413B0008413B000840
:1000B000F102000800000000413B000800000000C1
:1000C0005127000800000000413B0008413B0008A8
:1000D000413B00080000000000000000000000009C
:1000E0000000000000000000413B0008000000008C
:1000F0000000000000000000000000000000000000
:10010000413B00080000000000000000413B0008E7
:1001100000000000000000000000000000000000DF
:1001200000000000000000000000000000000000CF
:1001300000000000000000000000000000000000BF
:10014000000000000000000000000000413B00082B
:1001500053B94AB9002908BF00281CBF4FF0FF312E
:100160004FF0FF3000F00CB8ADF1080C6DE904CE93
:1001700003F0F4FDDDF804E0DDE9022304B070478C
:10018000704700BF4FF0E023054A5A61054AF0214D
:1001900082F8231000229A6107221A61704700BF7B
:1001A0001E48010000ED00E030B50B4D85B04FF466
:1001B000C26003F07FF8284603F066F9074B0FCBC7
:1001C0006C4684E80F002146284603F0B1F9284622
:1001D00003F03EFA05B030BD004001401840000871
:1001E000024A136801331360704700BF0C0B0020F4
:1001F000F8B5144B6FF03A02D3F8E017D3F8AC0718
:10020000D3F8B067D3F8B4774FF6FF73FFF7A0FFCA
:10021000384614461D466FF03A024FF6FF733146DA
:10022000FFF796FF084862406B400021013100F85B
:10023000012B06294FEA122242EA03624FEA1323F6
:10024000F4D1F8BD00F0FF1F040B002008B540F208
:10025000115003F02FF80823032200214FF09040A3
:1002600002F060FE0823002202214FF0904002F0CD
:1002700037FEBDE80840082201214FF0904002F00F
:1002800092BE08B540F2115003F014F80423032283
:1002900000214FF0904002F045FE0423002202218D
:1002A0004FF0904002F01CFEBDE8084004220121FE
:1002B0004FF0904002F077BE08B500221C20114696
:1002C00002F0AAFFBDE8084040F2117002F0F2BF50
:1002D000037810B55940044C044B5A5C4378615C78
:1002E00042704B40037010BD344B0008344A000884
:1002F000F8B54149414803F0D3FB002855D03E49A9
:100300003E4803F0E3FB40F201713C4803F0A3FBDD
:1003100040F202710646394803F09DFB40F203713A
:100320000746364803F097FB4FF4E0610546334833
:1003300003F091FB3E43044640F201712F4803F065
:1003400092FB35432D4840F2027103F08CFB2C43A5
:100350002A4840F2037103F086FBE4B227484FF4C9
:10036000E06103F080FB04BB244803F070FB244BE6
:100370001A68244B1A60244A1368B3B12349013B1D
:1003800013600B884FF49674B3FBF4F204FB123243
:1003900092B21F4CB0F5807F28BF0020A0541D4AA8
:1003A00001330B801368013313601B49134803F0BA
:1003B00077FBC0B118491148184D03F087FB184B63
:1003C0002C881B88A3420FD94FF49672B4FBF2F32A
:1003D00002FB13439BB2134A084832F8131001344E
:1003E00003F031FB2C80F8BD0448072103F04DFBDE
:1003F0000D4B00221A70F6E7050005070044004087
:100400000C0B0020CC050020CC0000207A07002037
:100410007C0700207407002007000707AA080020B7
:10042000A8080020AC080020D00500201C4B10B507
:100430001A46F02102F8011B1A491B4C08688988EA
:10044000C3F801009180194A1278DA71184A2046DF
:100450001178527819725A7203F076FA2046042104
:1004600003F0E9FA2046082103F0DDFA20460521D1
:1004700003F001FB20464FF4E13103F081FA2046FE
:10048000002103F0B3FA2046002103F0BBFA204616
:10049000002103F09FFA2046BDE8104003F0BEBAE9
:1004A000D1050020040B002000440040D2000020B1
:1004B000D00000202DE9F04F814A13688FB0002B47
:1004C0002CD0013B13607F4B1B88029302994FF4A1
:1004D0009672B3FBF2F302FB13139BB27A4A7B4989
:1004E000D55C0B78EBB9A52D10D101220A707849A3
:1004F00078480A7078490B7078490B70784B294618
:100500001A70FF2303704370FFF7E2FE029B6D4AEF
:1005100001331380734A1368013313600FB0BDE8D1
:10052000F08F012BF2D16A4E3378012B0BD16B4B3C
:1005300068481D702946FFF7CBFE15B903233370B9
:10054000E4E70223FBE7022B15D1634966480B78E9
:10055000FF22B3FBF2F21A4402F0FF020133DCB2D5
:1005600085540C705B482946FFF7B2FE5B4B1B7845
:10057000A342CBD1E2E7032B08D1564B1B78AB4209
:100580001EBF574B00221A700423D8E7042BBDD19D
:10059000524B534A1C7812784E4B5B78002A00F07D
:1005A0008A809D4240F08780002C00F084804E4D70
:1005B0002E78002E40F0AE80022C7CD14B4A13687E
:1005C000002B75D0013B1360494B4A4AB3F80080B9
:1005D000DFF838B1128AADF834204FF496770DA8C1
:1005E000A521BBF800A0DFF82891FFF771FEB8FB4A
:1005F000F7F207FB128292B2A52109F802102146F8
:10060000FFF766FE08F1010292B2B2FBF7F107FBB9
:10061000112292B209F802406C78374A651E69428D
:10062000694111703146FFF753FE08F1020292B2A0
:10063000B2FBF7F107FB112292B2214609F80260E2
:10064000FFF746FE08F1030292B2B2FBF7F107FB97
:10065000112292B209F8024008F1040292B2B2FBF0
:10066000F7F107FB112292B29DF8341009F802103D
:1006700008F1050292B2B2FBF7F107FB112292B228
:100680009DF835101A4B09F8021008F106021A807D
:100690000AF01F03194A22F81380194A06210AF1A9
:1006A000010AD154ABF800A0164A13680133136055
:1006B000154B00221A70054B00221A7026E700BF66
:1006C00074070020780700207C070020CB0500205D
:1006D000C7000020C5000020CA050020C905002071
:1006E000C4000020CC000020CA040020C800002064
:1006F000DC050020184000086C00002034070020B2
:10070000140700200C0700205500002012070020CD
:10071000DE050020E32E00F2F880DF2E00F2EC80F0
:100720000A2E00F02D86D02EC5D1022CC3D1DFF8C1
:1007300014936F78D9F80030DFF80CB3002F40F035
:100740001783B44A1770002B6AD0B34AB34916888E
:10075000098AADF83410013BC9F80030B04BDFF81E
:10076000D482B3F800A04FF496750DA8A521FFF729
:10077000AFFDB6FBF5F105FB116189B24FF0A50C99
:1007800008F801C02146FFF7A3FD711C89B2B1FB37
:10079000F5FC05FB1C1189B208F801403946FFF74A
:1007A00097FDB11C89B2B1FBF5F405FB141189B2B8
:1007B00008F801703946FFF78BFDF11C89B2B1FBD7
:1007C000F5F005FB101189B2934A08F80170311D4C
:1007D00089B2B1FBF5F005FB101189B29DF8340028
:1007E00008F80100711D89B2B1FBF5F005FB10118D
:1007F00089B29DF8350008F80100B11D11800AF09A
:100800001F028849864B21F81260874906208854C8
:10081000864A0AF1010AA3F800A0136801331360A5
:10082000834BCBF80030D9F80030002B3FF440AFB9
:10083000013BC9F80030DFF8E091784BB9F800507F
:10084000DFF8DC811B8AB8F80070ADF834304FF463
:1008500096740DA8A521FFF73BFDB5FBF4F304FB4F
:100860001353744E9BB2A5220221F254FFF730FDC0
:100870006B1C9BB2B3FBF4F204FB12339BB202225B
:10088000D021F254FFF724FDAB1C9BB2B3FBF4F272
:1008900004FB12339BB2D0220121F254FFF718FD62
:1008A000EB1C9BB2B3FBF4F204FB12339BB20122AC
:1008B000F2542B1D9BB2B3FBF4F204FB12339BB238
:1008C0009DF83420F2546B1D9BB2B3FBF4F204FB91
:1008D00012339BB29DF83520F254AB1D514AA9F852
:1008E000003007F01F03062122F813504E4A01374B
:1008F000D154A8F80070D7E6E13E022E00F29E82A5
:10090000DFE816F0B6034C04B304F42E00F09E802A
:10091000FA2E7FF4D0AE022C7FF4CDAE95F8019084
:10092000454BB9F1000918BF4FF0010983F8009059
:10093000424B00221A60424B01221A70414A13684E
:10094000002B3FF4B8AE013B1360334B334A1F8892
:10095000DFF8CCB0128ABBF800A0ADF834204FF419
:1009600096750DA8A521FFF7B3FCB7FBF5F205FBC3
:100970001272DFF8C08092B2A52108F80210214659
:10098000FFF7A6FC7A1C92B2B2FBF5F105FB11222F
:1009900092B2314608F80240FFF79AFCBA1C92B2B4
:1009A000B2FBF5F105FB112292B2494608F802604C
:1009B000FFF78EFCFA1C92B2B2FBF5F105FB112297
:1009C00092B2154B08F802903A1D92B2B2FBF5F1C3
:1009D00005FB112292B29DF8341008F802107A1D1E
:1009E00092B2B2FBF5F105FB112292B29DF83510DF
:1009F00008F80210BA1D1A800AF01F03094A22F8EB
:100A00001370094A06210AF1010AD154ABF800A07B
:100A1000BEE300BF6C000020DC0500201840000889
:100A20001207002034070020140700200C070020C4
:100A30008180803BDE050020EC020020E8020020DF
:100A400003000020C800002068000020B84BB94E09
:100A500000221A721A7583F8202083F82C2033683C
:100A6000002B69D0DFF8FCA2DFF8FC92BAF8005046
:100A7000B9F80080B04F013B3360B04B4FF496742F
:100A80000DA81B8AADF83430A521FFF721FCB5FB7A
:100A9000F4F304FB13539BB2A5220221FA54FFF78F
:100AA00017FC6B1C9BB2B3FBF4F204FB12339BB23A
:100AB00002220A21FA54FFF70BFCAB1C9BB2B3FBDA
:100AC000F4F204FB12339BB20A22FA549C4B93F8C3
:100AD00000B05946FFF7FCFBEB1C9BB2B3FBF4F2F2
:100AE00004FB12339BB2062107F803B02B1D9BB207
:100AF000B3FBF4F204FB12339BB29DF83420FA549A
:100B00006B1D9BB2B3FBF4F204FB12339BB29DF856
:100B10003520FA54AB1D8B4AAAF8003008F01F03A9
:100B200008F1010822F81350874AA9F80080D1542F
:100B3000864A136801331360854B00241C60854B83
:100B400001221A703368002B00F08880013BDFF827
:100B500014923360794BB9F80050DFF80C821B8A8D
:100B6000ADF834304FF4967B0DA8A521B8F800708D
:100B7000DFF8C4A1FFF7ACFBB5FBFBF30BFB135392
:100B80009BB2A52202210AF80320FFF7A1FB6B1CF0
:100B90009BB2B3FBFBF20BFB12339BB20222D021C0
:100BA0000AF80320FFF794FBAB1C9BB2B3FBFBF2EC
:100BB0000BFB12339BB2D0220AF80320664BD3ED15
:100BC000007AB7EE007AF4EEC77AF1EE10FA0ED89A
:100BD0009FED627A67EE877AF5EEC07AF1EE10FA51
:100BE000A2BFFCEEE77ACDED017A9DF804402146E4
:100BF0000DA8FFF76DFBEB1C4FF496729BB2B3FB95
:100C0000F2F102FB11339BB20AF803402B1D9BB299
:100C1000B3FBF2F102FB11339BB29DF834100AF8DA
:100C200003106B1D9BB2B3FBF2F102FB11339BB2BD
:100C30009DF835200AF80320AB1D424AA9F8003080
:100C400007F01F03062122F813503F4AD1543F4AB0
:100C5000136801370133A8F8007013603368002B64
:100C60003FF429ADDFF8FC90DFF8FC80B9F80050C4
:100C7000B8F80070013B3360304B2F4E1B8AADF843
:100C800034304FF496740DA8A521FFF721FBB5FB76
:100C9000F4F304FB13539BB2A5220221F254FFF795
:100CA00017FB6B1C9BB2B3FBF4F204FB12339BB239
:100CB00002220021F254FFF70BFBAB1C9BB2B3FBEB
:100CC000F4F204FB12339BB20022F254244B93F84B
:100CD00000A05146FFF7FCFAEB1C9BB2B3FBF4F209
:100CE00004FB12339BB2062106F803A02B1D9BB216
:100CF000B3FBF4F204FB12339BB29DF83420F254A0
:100D00006B1D9BB2B3FBF4F204FB12339BB29DF854
:100D10003520F254AB1D0B4AA9F8003007F01F0331
:100D2000013722F81350084AA8F80070D1542FE276
:100D30008C040020C8000020DE05002018400008B8
:100D4000A100002034070020140700200C07002019
:100D5000F4020020540000206800002000007F43BF
:100D60006C000020DC050020120700208180803B01
:100D700007EE907A1FED037AF8EE677A67EE877ACE
:100D8000CBED007A002B3FF493AC013BC9F8003067
:100D9000AC4BAD4AB3F80080DFF8B4B2128AADF8BC
:100DA00034204FF496750DA8A521BBF800A0DFF8FC
:100DB000A492FFF78DFAB8FBF5F205FB128292B20E
:100DC000A52109F802102146FFF782FA08F1010275
:100DD00092B2B2FBF5F105FB112292B2314609F84D
:100DE0000240FFF775FA08F1020292B2B2FBF5F188
:100DF00005FB112292B2394609F80260FFF768FA42
:100E000008F1030292B2B2FBF5F105FB112292B296
:100E100009F8027008F1040292B2B2FBF5F105FB89
:100E2000112292B29DF8341009F8021008F105025F
:100E300092B2B2FBF5F105FB112220E4052C7FF6FE
:100E40003AACE71EFFB20320B7FBF0F303EB43031A
:100E5000FF1A17F0FF077FF42EAC95F80180AD78EC
:100E600008F1FF33DBB2834203933FF624AC6B1EE1
:100E7000DBB20B2B01933FF61EAC74490A68002AC3
:100E800000F0A480C3F10C03DBB2A4F102095FFA05
:100E900089F9B9FBF0F9994528BF99466C4B6D4C1F
:100EA0001B880593674B1E88674B013A4FF4967A6F
:100EB0000DA81B8A0A6009F1010BA521ADF8343099
:100EC0000BEB4B0BFFF704FAB6FBFAF30AFB1363C9
:100ED0009BB25FFA8BFBA5225946E254FFF7F8F963
:100EE000731C9BB2B3FBFAF20AFB12339BB2E021F4
:100EF00004F803B0FFF7ECF9B31C9BB2B3FBFAF2B2
:100F00000AFB12339BB2E0224146E254FFF7E0F9BC
:100F1000F31C9BB2B3FBFAF20AFB12339BB22946D5
:100F200004F80380FFF7D4F9331D9BB2B3FBFAF248
:100F30000AFB12339BB2E5540C23B9FBF3F203FB1B
:100F400012995FFA89FA0AF1FF320992039ADFF8DF
:100F50001C91751D5A43ADB23C460A924FF49678E7
:100F60006F1CB5FBF8F208FB125292B2BFB20692A8
:100F7000B7FBF8F208FB1277BAB20792AA1C92B23A
:100F80000892099A03359442ADB225DD314B06999A
:100F90009DF834205A5407999DF835205A54294910
:100FA0000AEB4A03F21D1A440A80059A2A4902F004
:100FB0001F02073321F8126028498B54059B244AED
:100FC00001331380264A136801331360254B0399BC
:100FD00000225A54FFF76FBB99F805200492019A3A
:100FE00099F804B099F803101A4F0B91A218B2FBAC
:100FF000F3F003FB10220A9B4FEA0B201A44049BD8
:1010000040EA01401843184B43F822000DA8FFF7AF
:101010005FF9069B0B99F9545946FFF759F9079B5D
:10102000049907F803B0FFF753F9089BB3FBF8F1F5
:1010300008FB113189B2049B7B54013409F1030987
:101040000C238BE7DC05002018400008C8000020B6
:1010500012070020DE0500203407002014070020BE
:101060000C07002056000020F8020020CA040020CF
:10107000032C7FF420ABB74A1368002B3FF41BAB63
:10108000013BDFF8F4B21360B34BBBF80060DFF84C
:10109000ECA21B8AADF834304FF496770DA8A52149
:1010A000BAF80090DFF8CC82FFF712F9B6FBF7F33D
:1010B00007FB13639BB2A522214608F80320FFF724
:1010C00007F9731C9BB2B3FBF7F207FB12339BB219
:1010D000E12108F80340FFF7FBF8B31C9BB2B3FB18
:1010E000F7F207FB12339BB2E12208F8032000213C
:1010F0009A4A0B46580718D1611C0592CAB205EBF3
:10110000E3013444497801920DA8A4B204930391F9
:10111000FFF7DEF8B4FBF7F007FB1044A4B2039925
:1011200008F80410DDE90432019C013301F00100EC
:101130000C2B02F8010B4FEA5101DBD1A3194FF43C
:1011400096729BB2B3FBF2F102FB11339BB29DF896
:10115000341008F80310631C56FA83F39BB2B3FBF8
:10116000F2F102FB11339BB29DF8352008F8032001
:10117000023456FA84F3ABF80030794A09F01F03C1
:1011800009F1010922F81360764AD454AAF80090B4
:10119000754A136801331360FFF78DBA032C7FF48F
:1011A0008AAA6C4A1368002B3FF485AA013BDFF83A
:1011B000C8B11360684BBBF80060DFF8C0A11B8AA0
:1011C000ADF834304FF496770DA8A521BAF8009009
:1011D000DFF8A081FFF77CF8B6FBF7F307FB13639A
:1011E0009BB2A522214608F80320FFF771F8731C73
:1011F0009BB2B3FBF7F207FB12339BB2E22108F874
:101200000340FFF765F8B31C9BB2B3FBF7F207FB93
:1012100012339BB2E22208F803200021534A0B4606
:10122000580718D1611C0592CAB205EBE30134449A
:10123000497801920DA8A4B204930391FFF748F8EE
:10124000B4FBF7F007FB1044A4B2039908F80410AC
:10125000DDE90432019C013301F001000C2B02F89E
:10126000010B4FEA5101DBD168E7022C7FF423AA7E
:1012700095F8019009F1FF33DBB2032B3FF61BAA6F
:101280003B4A1360334A1368002B3FF414AADFF87B
:10129000E8B0DFF8E8A0BBF80060BAF80080354F8E
:1012A000013B13602C4B4FF496750DA81B8AADF8CB
:1012B0003430A521FFF70CF8B6FBF5F305FB1363FB
:1012C0009BB2A5222146FA54FFF702F8731C9BB289
:1012D000B3FBF5F205FB12339BB2E321FC54FEF79E
:1012E000F7FFB31C9BB2B3FBF5F205FB12339BB2C5
:1012F000E3224946FA54FEF7EBFFF31C9BB2B3FB23
:10130000F5F205FB12339BB2062107F80390331D5B
:101310009BB2B3FBF5F205FB12339BB29DF8342070
:10132000FA54731D9BB2B3FBF5F205FB12339BB26B
:101330009DF83520FA54B31D094AABF8003008F087
:101340001F0308F1010822F81360064AAAF800807A
:10135000D1541DE7C8000020184000085A000020A2
:1013600034070020140700200C070020B9030020D8
:10137000F0020020DE050020DC050020120700201E
:10138000022C7FF498A93F4B95F801A083F800A0A8
:101390003D4B00221A703D4B01221A703C4B1A68DB
:1013A0003C4B21464FF090401A6001F0F2FD3A4A62
:1013B0001368002B3FF47FA9013B1360374B384A79
:1013C0001F88DFF8E8B0128ABBF80090ADF834202F
:1013D0004FF496750DA8A521FEF77AFFB7FBF5F23D
:1013E00005FB1272DFF8C88092B2A52108F802103E
:1013F0002146FEF76DFF7A1C92B2B2FBF5F105FBB8
:10140000112292B2314608F80240FEF761FFBA1C81
:1014100092B2B2FBF5F105FB112292B2514608F8E7
:101420000260FEF755FFFA1C92B2B2FBF5F105FB24
:10143000112292B2194B08F802A03A1D92B2B2FBE7
:10144000F5F105FB112292B29DF8341008F8021054
:101450007A1D92B2B2FBF5F105FB112292B29DF812
:10146000351008F80210BA1D1A8009F01F030D4A42
:1014700022F813700C4A062109F10109D154ABF886
:10148000009085E6A1000020A00000208404002038
:101490000C0B00207C040020C8000020DC0500208C
:1014A000184000083407002014070020120700200D
:1014B000DE0500202DE9F0471E4E33785BBB1E4948
:1014C0000A6842B31D4DDFF890802C88DFF88C90BD
:1014D000013A0A6004F01F02194931F812E0194973
:1014E000885C194900F1FF3C0B801A464FF496774F
:1014F000944512DA03B10880144B154800220721E5
:101500001A8002F0B8FA134A01231C44337013689E
:101510002C8001331360BDE8F0870EEB0203B3FBB0
:10152000F7FA07FB1A3319F8033028F812300132A2
:101530000123DDE7D00500200C0700201007002064
:101540003407002014070020A8080020AA08002063
:1015500000440040C8000020AC080020DE05002048
:101560000B4B0C4A19681368CB1A012B10B50DD917
:1015700009481160002303800848038008484FF49D
:1015800096740460074803600748037010BD00BFED
:101590000C0B0020CC050020780700207A070020E3
:1015A000CC00002074070020CB0500202DE9F04F6F
:1015B0003C4A136885B0002B70D0013BDFF8FC90EB
:1015C0001360394BB9F80060DFF8F4801B8AADF87E
:1015D0000C304FF49674A52103A8B8F80070DFF81A
:1015E000E4A0FEF775FEB6FBF4F304FB13639BB2B5
:1015F000A5220A210AF80320FEF76AFE731C9BB29B
:10160000B3FBF4F204FB12339BB20A220AF8032064
:1016100006F1020B06F10C05244A1FFA8BFBADB252
:1016200012F8011B03A8CDE90012FEF751FEBBFB27
:10163000F4F304FB13B30BF1010B9BB21FFA8BFB0A
:1016400000990AF803105D45019AE9D1B5FBF4F35E
:1016500004FB1355ADB29DF80C300AF8053006F1C5
:101660000D039BB2B3FBF4F204FB12339BB29DF863
:101670000D200AF8032006F10E030D4AA9F80030E8
:1016800007F01F030E2122F813600A4AD1540A4AB8
:10169000136801370133A8F80070136005B0BDE886
:1016A000F08F00BFC800002018400008D1050020BE
:1016B00034070020140700200C070020DC05002060
:1016C00012070020DE0500201FB50C4C40F211600F
:1016D00001F0F0FD204601F0D7FE002364226946A8
:1016E0002046CDE9003302928DF80C3001F020FF46
:1016F000204601F0ADFF04B010BD00BF0044014022
:1017000008B540F2115001F0D5FD4023032200211D
:101710004FF0904001F006FC4023002202214FF0E0
:10172000904001F0DDFBBDE80840402205214FF06C
:10173000904001F038BC000030B54FF4A06085B097
:1017400001F0B8FD1B4B1C4A1A601C4B1C4C0FCB04
:101750006D4685E80F002A462046002101F08CFFE7
:1017600000221146204602F0BBF8204660220021EC
:1017700002F090F808222046002102F0BFF820462F
:10178000012101F070FF4FF48071204601F067FFE6
:10179000204601F05DFF012211460A2001F03CFDC8
:1017A000022001F099FA0221084601F0F7FA05B08B
:1017B00030BD00BFA4000020344401402C4000088C
:1017C0000044014010B50A4C40F2125001F072FD85
:1017D00020464FF480730322002101F0A3FB204632
:1017E0004FF48073BDE810400122002101F078BB66
:1017F0000004004810B540F2115001F05BFD4FF4B9
:101800000043032200214FF0904001F08BFBBDE824
:1018100010404FF40043012200214FF0904001F0AE
:101820005FBB000010B5094C40F2125001F042FDC0
:10183000204620230322002101F074FB20462023B0
:10184000BDE810400122002101F04ABB000400481D
:1018500010B5094C40F2125001F02CFD2046102327
:101860000322002101F05EFB20461023BDE810405A
:101870000122002101F034BB00040048F8B5264CD9
:10188000264D27482E6827784FF4807101F085FB9C
:10189000B0FA80F0400987421CBF002320704FF44B
:1018A00000414FF0904018BF2372277B18BF66603D
:1018B0002E6801F072FBB0FA80F0400987421CBF2D
:1018C000002320734FF0200115481CBF23752661AB
:1018D000277E2E6801F061FBB0FA80F04009874254
:1018E0001CBF002320764FF010010D481CBFE6619D
:1018F00084F820302D6894F8246001F04EFBB0FA93
:1019000080F0400986421FBF002384F82400A562AE
:1019100084F82C30F8BD00BF8C0400200C0B002094
:10192000000400482DE9F04F484BDFF844911B7844
:1019300087B003F0030801930C2303FB08F309EBC2
:101940000301097A00297AD1414D19F80330AB70AF
:1019500001212970414469703E490B68002B68D011
:10196000013B0B603C4BDFF80CB1B3F800A03B4BE4
:101970001F883B4B4FF496741B8AADF8143005A8B2
:10198000A521FEF7A5FCB7FBF4F104FB117189B2A8
:10199000A5260BF801600321FEF79AFC791C89B299
:1019A000B1FBF4F004FB101189B203202B46BE1CDE
:1019B0007D1D0BF80100B6B2ADB213F8011B05A8EE
:1019C000CDE90213FEF784FCB6FBF4F004FB1060D3
:1019D000013680B2B6B202990BF80010B542039BF3
:1019E000EBD1B5FBF4F104FB1155ADB29DF8141029
:1019F0000BF80510B91D89B2B1FBF4F004FB10110E
:101A000089B2164A9DF815000BF80100FB1D154917
:101A100013800AF01F03072021F813701249C854DD
:101A20000D4B12490AF1010AA3F800A00B6801331B
:101A30000B600C2303FB0899012389F80830019BF4
:101A4000024A0133137007B0BDE8F08F850400200F
:101A500086040020C800002012070020DC050020BA
:101A60001840000834070020140700200C0700204D
:101A70008C040020DE05002010B540F2115001F06A
:101A800019FC0223032200214FF0904001F04AFA92
:101A9000BDE810400223002201214FF0904001F0E8
:101AA0001FBA00001C490B78F0B483B11B4B1C4AD1
:101AB0001B6812689B1A1B4A127893422AD900238A
:101AC0000B70F0BC02214FF0904001F064BA164850
:101AD000164E1A460C2505FB02F410F8017B345D06
:101AE000B3B90CB187F001030132042A03F00103FA
:101AF00000F8014CEFD16BB101230B70074B1A6852
:101B0000074BF0BC02214FF090401A6001F041BA3F
:101B10000123E9E7F0BC7047840400200C0B00208F
:101B20007C040020A1000020800400208C04002000
:101B300037B5164C237833BB01F070F9144801F027
:101B400099F9144B1B8AADF80430134B1D7801A88A
:101B50002946FEF7BDFB01F061F929460C4801F06A
:101B6000A5F99DF8045001F059F929460B4801F0F8
:101B70009DF99DF8055001F051F90948294601F0F9
:101B800095F90123237003B030BD00BFA0000020F1
:101B900000BC000818400008A100002004BC000898
:101BA00008BC0008104B73B5D3F8004CD3F8046C94
:101BB000D3F8085C0D4BB4F5807F28BF0024E4B255
:101BC0001B8AADF80430214601A8FEF781FB9DF881
:101BD0000430B34205D19DF80530AB4204BF044B3D
:101BE0001C7002B070BD00BF00B0000818400008B3
:101BF000A100002010B540F2115001F05BFB4FF442
:101C00008073032200214FF0904001F08BF9BDE872
:101C100010404FF48073002201214FF0904001F0FA
:101C20005FB94FF480714FF0904001F0B2B94FF4BA
:101C300080714FF0904001F0AEB90000024A137875
:101C400083F0010313707047B80300202DE9FF47AC
:101C5000DFF85881494F4A4CDFF854A118F8013B8E
:101C6000ABBBA4F1300501F0D9F8284601F002F928
:101C7000444B1B88ADF80C30B94659F8046B03A8E7
:101C8000C6F30741FEF724FBC6F30721FEF720FB4E
:101C9000F1B2FEF71DFB01F0C1F8284631460435CC
:101CA00001F004F9A542E8D19DF80C5001F0B6F816
:101CB0002946204601F0FAF89DF80D5001F0AEF8E3
:101CC0002946201D01F0F2F8012308F8013C04F533
:101CD0008064544507F13007C0D12B4D2C78002C7F
:101CE00048D101F09BF8294801F0C4F8284B1B8A21
:101CF000ADF80C30274BD3ED007A274BB7EE007AC6
:101D0000F4EEC77AF1EE10FA1E780ED89FED237A22
:101D100067EE877AF5EEC07AF1EE10FAA2BFFCEE1C
:101D2000E77ACDED017A9DF8044003A82146FEF73D
:101D3000CFFA3146FEF7CCFA01F070F8214613488D
:101D400001F0B4F801F06AF83146154801F0AEF838
:101D50009DF80C4001F062F82146124801F0A6F807
:101D60009DF80D4001F05AF80F48214601F09EF809
:101D700001232B7004B0BDE8F08700BFF8020020FB
:101D800030C00008284000085500002000D000089E
:101D900018400008680000206C00002000007F430D
:101DA00004D0000808D000080CD00008560000201D
:101DB00030D000082DE9F04F704B1B7885B0002B18
:101DC00000F0D4806E4B6F4A1D681368002B00F042
:101DD000C180013B13606C4BDFF8C881B3F800A0F1
:101DE0006A4B1E886A4B4FF4967403A81B8AADF8A1
:101DF0000C30A521FEF76CFAB6FBF4F304FB136379
:101E00009BB2A522272108F80320FEF761FA731C74
:101E10009BB2B3FBF4F204FB12339BB22722E02106
:101E200008F80320FEF754FA691CB31CB1F5807F53
:101E30009BB228BF0021B3FBF4F204FB12339BB228
:101E4000CFB2E022394608F80320FEF741FAF31C2E
:101E50009BB2B3FBF4F204FB12339BB2012108F8EE
:101E60000370FEF735FA331D9BB2B3FBF4F204FBAB
:101E700012339BB2012208F80320464A3023771D13
:101E800006F1290903FB0522BFB21FFA89F952F8AE
:101E900004BB019203A8CBF307410091FEF718FAA7
:101EA000B7FBF4FC04FB1C7C1FFA8CFC009908F8BF
:101EB0000C10CBF307210091FEF70AFA07F1010C91
:101EC0001FFA8CFCBCFBF4FE04FB1ECC1FFA8CFC3E
:101ED000009908F80C105FFA8BF10091FEF7F8F901
:101EE000BB1C9BB20337B3FBF4F004FB10339BB273
:101EF000BFB2009908F80310B945019AC7D1B9FBE0
:101F0000F4F304FB13991FFA89F99DF80C3008F8D3
:101F1000093006F12A039BB2B3FBF4F204FB12333F
:101F20009BB29DF80D2008F80320184B06F12B02F8
:101F30001A800AF01F03184A22F81360174A2B214F
:101F4000D154114B164A0AF1010AA3F800A01368F4
:101F500001331360022D0CDC01356B4203F00303E7
:101F600005F0030558BF5D42054B1D6005B0BDE897
:101F7000F08F024A00231370F8E700BF54000020DE
:101F8000F4020020C800002012070020DC05002019
:101F900018400008F8020020340700201407002031
:101FA0000C070020DE050020364B2DE9F347364DA7
:101FB000364CB3F800A0DFF8F090ADF804A0A4F11F
:101FC0003007A84657F8046B48F8046B01A8C6F31D
:101FD0000741FEF77DF9C6F30721FEF779F9F1B263
:101FE000FEF776F9A742EDD19DF8040021686368F9
:101FF0009DF80520884208D025492A460023013350
:102000000C2B42F8041BFAD101E09A42F4D104F5FA
:1020100080644C4505F13005CFD11E4B1B8AADF8CD
:1020200004301D4BD3E90045B4F5807F28BF002460
:10203000E4B2214601A8D3E90276FEF749F9B5F5E5
:10204000807F28BF0025EDB22946FEF741F99DF8B3
:102050000430BB4213D19DF80530B3420FD107EED7
:10206000904A9FED0E7A0E4BF8EE677A67EE877A0C
:10207000C3ED007A6B1E5D425D410A4B1D7002B0DC
:10208000BDE8F08728400008F802002030C00008B2
:10209000777777001840000800D000088180803BE7
:1020A000680000206C00002030D0000808B540F225
:1020B000115001F0FFF84FF48063032200214FF02C
:1020C000904000F02FFF4FF48063002202214FF078
:1020D000904000F005FFBDE808404FF48062042105
:1020E0004FF0904000F05FBF08B540F2115001F092
:1020F000E1F84FF40073032200214FF0904000F00C
:1021000011FF4FF40073002202214FF0904000F0C5
:10211000E7FEBDE808404FF4007204214FF0904004
:1021200000F041BF10B50F4C40F2157001F0C2F83D
:1021300020460D49002200F067FF00231A46194689
:10214000204600F0E3FF204600F0FFFF002211468A
:10215000172001F061F8BDE8104001220021202085
:1021600001F05AB800540040801A060010B5124B16
:10217000124C1A78124B1A70124A01231360124A39
:1021800080211170114A1370114B0022204640F239
:1021900009111A8000F0EDFF20464FF4857100F020
:1021A000E8FF20464FF4847100F0E3FF2046BDE8CD
:1021B000104000F0CFBF00BF0200002000540040DC
:1021C000E2020020DC020020E3020020E402002002
:1021D000E002002010B5124B124C1A78124B1A7004
:1021E000124A01231360124A80211170114A1370A0
:1021F000114B0022204640F209111A8000F0B9FF6D
:1022000020464FF4857100F0B4FF20464FF48471EE
:1022100000F0AFFF2046BDE8104000F09BBF00BFBC
:102220000000002000540040E2020020DC020020F8
:10223000E3020020E4020020E0020020134A002311
:1022400010B51370124A134C02211160124A8021FA
:102250001170124A1370124A20464FF480611380A5
:1022600000F05FFF204640F2091100F082FF204697
:102270004FF4857100F07DFF20464FF4847100F02B
:1022800078FF2046BDE8104000F064BFD402002073
:10229000DC02002000540040E3020020E4020020A1
:1022A000E00200202DE9F04F4E4B1B7885B0002B4B
:1022B00000F095804C4ADFED4D6AC22313704C4B01
:1022C0001B885BBA9BB207EE903AB8EE677AF9EEDC
:1022D000087AE7EE267A9FED477A67EE877AF5EE81
:1022E000C07AF1EE10FAA9BFFCEEE77A002317EEF0
:1022F000903A9BB253701B0A93703F4A1368002BAD
:102300006DD0013BDFF8049113603C4BB9F80060DD
:10231000DFF8FC801B8AADF80C304FF49674A521D1
:1023200003A8B8F80070DFF8ECA0FDF7D1FFB6FB0A
:10233000F4F304FB13639BB2A52203210AF80320E4
:10234000FDF7C6FF731C9BB2B3FBF4F204FB123320
:102350009BB203220AF8032006F1020B751D224AE4
:102360001FFA8BFBADB212F8011B03A8CDE90012D6
:10237000FDF7AEFFBBFBF4F304FB13B30BF1010B52
:102380009BB21FFA8BFB00990AF803105D45019A76
:10239000E9D1B5FBF4F304FB1355ADB29DF80C3055
:1023A0000AF80530B31D9BB2B3FBF4F204FB123301
:1023B0009BB29DF80D200AF80320F31D104AA9F8DE
:1023C000003007F01F03072122F813600D4AD15493
:1023D0000D4A136801370133A8F80070136005B087
:1023E000BDE8F08FD4020020D50200200000FA3AA8
:1023F000D80200200000C842C80000201840000891
:1024000034070020140700200C070020DC05002002
:1024100012070020DE05002010B5124B124C1A786E
:10242000124B1A70124A01231360124A8021117054
:10243000114A1370114B0022204640F209111A80F4
:1024400000F097FE20464FF4857100F092FE204682
:102450004FF4847100F08DFE2046BDE8104000F07E
:1024600079BE00BF0100002000540040E2020020BD
:10247000DC020020E3020020E4020020E002002051
:102480002DE9F04F4E4B1B7885B0002B00F0958066
:102490004C4ADFED4D6AC02313704C4B1B885BBA6E
:1024A0009BB207EE903AB8EE677ADFED497AE7EE35
:1024B000267A9FED487A67EE877AF5EEC07AF1EEDC
:1024C00010FAA9BFFCEEE77A002317EE903A9BB210
:1024D00053701B0A9370404A1368002B6DD0013B68
:1024E000DFF8089113603D4BB9F80060DFF8008118
:1024F0001B8AADF80C304FF49674A52103A8B8F8E8
:102500000070DFF8F0A0FDF7E3FEB6FBF4F304FB88
:1025100013639BB2A52203210AF80320FDF7D8FE1E
:10252000731C9BB2B3FBF4F204FB12339BB2032285
:102530000AF8032006F1020B751D224A1FFA8BFBD5
:10254000ADB212F8011B03A8CDE90012FDF7C0FEE1
:10255000BBFBF4F304FB13B30BF1010B9BB21FFAAB
:102560008BFB00990AF803105D45019AE9D1B5FB90
:10257000F4F304FB1355ADB29DF80C300AF80530A6
:10258000B31D9BB2B3FBF4F204FB12339BB29DF874
:102590000D200AF80320F31D114AA9F8003007F0B6
:1025A0001F03072122F813600E4AD1540E4A136804
:1025B00001370133A8F80070136005B0BDE8F08F53
:1025C000D4020020D502002052B82F3BD8020020B0
:1025D0001F853BC20000C842C80000201840000808
:1025E00034070020140700200C070020DC05002021
:1025F00012070020DE050020494B4A491B784A4853
:1026000070B5002B3DD000F0C9FD40B16FF0010264
:10261000464B45481978BDE8704000F08EBD4449EE
:10262000414800F0BBFD28B141493F48BDE870403A
:1026300000F0DEBD3F493C4800F0B0FD60B13E4DCA
:102640003E4B2C881B68A34207DD3D4B364819786A
:10265000013400F089FD2C8070BD334800F07FFD0F
:1026600031484FF4847100F08EFD2F484FF485718E
:1026700000F089FDBDE870402B4840F2091100F0E0
:1026800082BD00F08BFD044608B10122C0E7284955
:1026900025482A4E00F082FD054638B13368012BEB
:1026A000C2D12148214600F03CFDBDE725491E4826
:1026B000346800F073FD0028CED0022C16D11A48E1
:1026C000294600F02EFD1C4D1748013C34602C8833
:1026D00000F04CFD04F001031B4A1A49D054012CB0
:1026E00004BF1A4B1C7001342C809EE7012CEAD1E8
:1026F0000D4800F034FD29460B4800F018FD0A484B
:102700004FF4847100F03FFD07484FF4857100F0ED
:102710003AFD054840F2091100F035FDD3E700BF4E
:10272000E40200200901000500540040E3020020FB
:102730000901010509010705E0020020DC02002073
:10274000E202002009010605D8020020D402002080
:1027500010B50F4C0F49204600F04AFD20460E49A7
:1027600000F046FD20460D4900F042FD20460C4990
:1027700000F03EFD20460B4900F03AFD20460A4994
:1027800000F036FD20460949BDE8104000F030BD9C
:102790000054004008010A0508010F0508010E0554
:1027A00008010B05080109050801080508010C05C9
:1027B0002DE9F84FA54BDFEDA67A93F800C0A54BA5
:1027C000A54D93F800E0A54BA54CD3ED005AA54BC1
:1027D0009FEDA56A1B68DFF8C882DFF8C892A3489E
:1027E000302265EEA75A02FB03442F4600220C2636
:1027F00055F8041BBCF1000F72D018F80230002B02
:102800006ED019F8023013B1BEF1000F6FD054F83A
:102810002230C3F3074A07EE10AAC3F3072ADBB23C
:1028200006EE90AA07EE903AB8EEC77AF8EEE66A9E
:10283000F8EEE77A27EE257A66EEA56A67EEA57AC6
:10284000013206FB01010C2A81ED007AC1ED016A1B
:10285000C1ED027ACCD1DFF850C29CF80060002EA6
:1028600000F0D080824D9FED836A2968782391FB28
:10287000F3F203FB1212804B03EB8203D3ED006AE9
:10288000FCEEE67A4FF03C0E17EE903A9BB2B3FBAB
:10289000FEF40EFB1433B7EE007A9BB237EE667A85
:1028A00007EE903A27EE267AF8EE677A4FF00608A0
:1028B00067EE867A36EEC76AB4FBF8F267EE867A80
:1028C00008FB124292B237EE276AFAB1531E76EE37
:1028D000E77A032B00F28E80DFE803F08F107F8809
:1028E000B0EE467AF0EE466AF0EE467AA8E79FED43
:1028F0005E7AF0EE476AF0EE477AA1E7F0EE667A8C
:10290000F0EE476AB0EE467AB0EE676A782904D1F5
:102910005A4B1B780BB98CF8003001312960DFF875
:102920008CC15749DFF8888100220C244FF07E5B70
:1029300004FB02F35CF8049B18F803A08E46002504
:102940004D4566DB0132042A01F11001F0D14D4BF7
:10295000464A9FED4D7A00201C46D2ED017A67EE83
:10296000877A0130FCEEE77A0C2817EE901AD2ED48
:10297000007A197067EE877A02F10C02FCEEE77AB2
:1029800003F1030317EE901A52ED017A03F8021CCB
:1029900067EE877AFCEEE77A17EE901A03F8011CCF
:1029A000DBD13A4B21783A4C01221A80394A3A4B12
:1029B00002EBC10052F831201A60426837485A6071
:1029C0000021E36000F049FE2146022000F0A2F958
:1029D000BDE8F84F022000F089B9B0EE676AF0EE6A
:1029E000667AF0EE476AB0EE677A8FE7F0EE667AC5
:1029F000F0EE466AB0EE476AF5E7B0EE666AF0EED2
:102A0000676A83E79FED187AB0EE476AF0EE476A8F
:102A100085E75EF8043B57F82330BAF1000F09D080
:102A200004FB0303C3F800B0C3F804B0C3F808B054
:102A3000013585E7002EFBD004FB0303C3ED006ADC
:102A400083ED016A83ED027AF2E700BF6C0000209B
:102A50008180803BB80300207000002068000020C7
:102A6000F8020020F002002000000000C80300204F
:102A7000E80200208988883C54400008EC020020CD
:102A8000040000205804002000007F43BC04002004
:102A9000A400002034420008BE040020004401408D
:102AA0005A000020B9030020030000204400002049
:102AB0008C040020022170B5084600F079F908B3B3
:102AC000114D0121022000F0A7F92C88232C19D8E0
:102AD0000E4A0F4B115D0F4A0F4E02EBC10052F828
:102AE00031201A6042680D485A600021F36000F0FE
:102AF000B4FD3146022000F00DF90134022000F04F
:102B0000F5F82C8070BD00BFBC04002058040020E4
:102B1000BE04002034420008A4000020004401400C
:102B200008B5FDF72FFBFDF73FFBFDF761FBFDF758
:102B30008DFBFDF7A6FBFDF7BFFBFDF777FCFEF76E
:102B4000C3FDFEF7DDFDFEF7F7FDFEF73BFEFEF7EA
:102B500051FEFEF767FEFEF77BFEFEF78DFFFFF7E7
:102B600021F8FFF747F8FFF75CF8FFF71DFAFFF7CA
:102B70009DFAFFF7B9FAFFF7D5FABDE80840FFF76D
:102B800017BE00002DE9F04F002589B0CDE90555AD
:102B9000CDE90355CDE90155AA46A946A8460095B9
:102BA0002E462F46484B1C68A4EB070BBBF57A7FDB
:102BB000A4EB06037AD2092B02D9FEF75FFE264664
:102BC000009B41F28732E31A934202D9FFF72FF8B4
:102BD0000094019BE31AB3F5FA7F02D3FFF72EF8B6
:102BE0000194BBF57A7F01D3FFF730F8029BE31A1B
:102BF000312B02D9FFF7DEF80294039B43F69722AC
:102C0000E31A934202D9FFF7B1FA0394049BE21A44
:102C100043F6A6239A4204D9FFF7DCFAA4F10F0386
:102C20000493059BE21A43F6C4239A4204D9FFF7A2
:102C300005FBA4F12D030593069BE21A43F6C52379
:102C40009A4204D9FFF72EFBA4F12E030693A4EBBE
:102C5000080244F294239A4203D9FFF7DDFBA4F261
:102C6000FD78A4EB090244F2E9239A4203D9FFF765
:102C7000E5FAA4F65209A4EB0A0244F2EA239A42C6
:102C800003D9FFF7FDFBA4F6530A631B202B02D9DF
:102C9000FFF78EFD2546FDF70DFCFEF70BFCFEF75A
:102CA0005FFCFEF73FFEFEF7FDFE7BE70793FEF7B6
:102CB0007DFC079B092B02D9FEF7E0FD2646FEF7B7
:102CC00037FF27467CE700BF0C0B002008B5FFF755
:102CD00027FFFFF757FF00001423034A5843835888
:102CE00023F0200383507047080002401423034A56
:102CF0005843835843F00103835070470800024053
:102D00001423034A5843835823F001038350704728
:102D10000800024038B50446FFF7F2FF142303FB16
:102D200004F0184B0A68C2500433CA68C250083B0A
:102D30000A8BC250043B0D694A68C4582A43CD69C6
:102D400024F47C542A432243C2500A7A012AC258EE
:102D50000CBF42F0400222F04002C2500A7D012A1C
:102D6000C2580CBF42F0800222F08002C2504A7D5D
:102D700022B9C25822F01002C25038BDC25842F0E7
:102D80001002F9E710000240034B80005A688140AE
:102D900011435960704700BF000002401423034AEA
:102DA000584383580B438350704700BF08000240CC
:102DB000042913D008291DD0022927D1144B8200E1
:102DC0001B68914019401423124A4343985800F05D
:102DD0000200D9B1003818BF012070470C4B8200A7
:102DE0001B689140194014230A4A4343985800F045
:102DF0000400EEE7064B82001B6891401940142343
:102E00005843044BC05800F00800E2E70020704728
:102E10000000024008000240FFF7B6BF044B1A69E9
:102E2000120641BF034A5A6002F188325A60704765
:102E30000020024023016745074BDA68D10707D419
:102E4000DA68D20606D4D868C0F380004000704724
:102E500001207047032070470020024010B504464F
:102E6000FFF7EAFF012804F1FF3402D1002CF7D16B
:102E7000042010BD38B505464FF47020FFF7EEFF73
:102E800088B9094C236943F0020323616561236912
:102E900043F0400323614FF47020FFF7DFFF236905
:102EA00023F00203236138BD0020024070B50546BF
:102EB0004FF470200E46FFF7D1FF68B9074C236925
:102EC00043F0010323614FF470202E60FFF7C6FF2B
:102ED000236923F00103236170BD00BF002002407D
:102EE0002DE9F0430568C46800264FF0010E4FF04D
:102EF00003080EFA06F71F420DD0770008FA07FC08
:102F000001FA07F925EA0C0524EA0C0402FA07F78E
:102F100049EA05053C430136102EEAD10560C4603C
:102F2000BDE8F08301294168F0B50CBF194399430E
:102F30004FF6FF744160A242816815D1C46B002234
:102F400001274FF0030C07FA02F61E421CBF550082
:102F50000CFA05F502F101021CBF29433443102A83
:102F6000F1D18160C463F0BD002401274FF0030C50
:102F700007FA04F51D4207D065000CFA05F621EAB0
:102F8000060102FA05F529430134102CF0D18160C5
:102F9000E9E7816170478162704703690B4214BFA2
:102FA000012000207047F0B5066A456A00234FF003
:102FB000010C4FF00F0E0CFA03F4144207D09C00E2
:102FC0000EFA04F726EA070601FA04F42643013351
:102FD000082BF0D100234FF0010C4FF00F0E03F13E
:102FE00008040CFA04F4144207D09C000EFA04F70B
:102FF00025EA070501FA04F425430133082BEED135
:1030000006624562F0BD000070B5044602200D4620
:10301000164600F06FF9394A3949B0FBF1F1904298
:1030200094BF0B463F23626822F03F021A4362605E
:10303000344A954216D801313E290DD93F232362E7
:103040006D00B0FBF5F5042DE36938BF0425C5F329
:103050000B051D43E56170BD022901D80223EEE78F
:103060002162EDE7284A95424FF47A7124D84FF453
:1030700096725343B3FBF1F301332362A6B9E269BD
:1030800022F4804205EB4503B0FBF3F3E261C3F3A6
:103090000B020AB943F00103E26942F40042E26123
:1030A000E2691343E361D6E7E26919236B4342F413
:1030B0008042B0FBF3F3E9E778225343B3FBF1F32B
:1030C0000133236296B9E36923F4804305EB450598
:1030D000B0FBF5F0E361E36943F40043E361E369C6
:1030E0000343E3610123C4F89030B4E719235D433F
:1030F000E369B0FBF5F043F48043EBE7BF4DC10358
:1031000040420F00A0860100801A060010B5046836
:10311000C3F3090324F002040C43134304608360E7
:1031200010BD036823F480630B430360704703689A
:1031300023F400630B430360704702320CBF21F09D
:10314000010141F0010101617047036843F001038F
:1031500003607047036843F480730360704703683B
:1031600043F4007303607047016170470069C0B2A7
:1031700070478A0910B501F01F01145801238B40D4
:103180002343135010BD10B58C090122235801F0C0
:103190001F018A4023EA0203235010BDC1F38913A3
:1031A00030B501F01F0244681D58012303FA02F2F2
:1031B0002A408D0D2D58C1F3044003FA00F00B4B4B
:1031C00021F48031994200EA050007D152B114F48C
:1031D000806409D0003818BF012030BD0028FCD021
:1031E000101EF8E71046F8E72046F6E70901060545
:1031F000084B994210B502D14369836910BD8C0D0B
:1032000001222358C1F304418A4023EA02032350D8
:10321000F4E700BF0901010510B51D4CE36803F494
:10322000E063B3F5A06F08D020D8B3F5407F26D077
:10323000B3F5806F26D0174BE36002231C46C4F120
:103240000404A140C3F104040F23E3401340124AD5
:103250000B431B011118DBB281F800334109012334
:1032600000F01F00834042F8213010BDB3F5C06F5D
:103270000BD0B3F5E06FDED104230024DFE7002399
:103280000424DCE701230324D9E703230124D6E740
:1032900000ED00E00005FA0500E100E021F06041EA
:1032A000034B21F07F0101439960BFF34F8F7047BB
:1032B00000ED00E0830903F1804303F5043300F0DF
:1032C0001F001968012282400A431A60704783096F
:1032D00003F1804303F5043300F01F001A68012155
:1032E000814022EA01021A607047FFF7E3BFFFF74F
:1032F000EEBF0000F0B55D4B89B0054604AC03F1AC
:1033000010061F4618685968224603C20833B342A4
:103310001446F7D1716838696B4603C303C3544937
:103320004B68C3F38103022B44D14A684868CB6AD7
:103330000601C2F383424FEAD37334D4002B30D159
:1033400002324B68C86ADC0332D5CB6A400003F016
:103350000F0354BF474848480133B0FBF3F35A43C7
:103360004B68C3F3031320336B4413F8104C4B68C2
:10337000C3F3022320336B4422FA04F413F8206CC5
:103380004B68C3F3C22320336B4413F8183C24FA70
:1033900003F0062D10D8DFE805F06412141017466C
:1033A0004F002132CDE70BB91132CAE73132C8E7FD
:1033B000324BD4E72F4AD3E7002009B0F0BD2046B6
:1033C000FBE724FA06F0F8E70B6BDA0507D40B6B82
:1033D0002B4813F4803F2B4B08BF1846EDE74A6893
:1033E0000B6BC2F38132022A4FEAD3730FD0032A48
:1033F00014D0012A06D00BB94008DEE70320B4FB45
:10340000F0F0DAE70BB98008D7E70520F7E71BB93A
:103410000623B0FBF3F0D0E70720F0E70BB9C008B4
:10342000CBE70920EBE70B6B13F0400F48F21200DB
:1034300018BF4FF40040C0E70B6B9B07BDD00B6B70
:1034400003F00303012B0CD00B6B03F00303022BDF
:1034500009D00B6B074803F00303032B18BF0020B0
:10346000ABE71046A9E74FF40040A6E73C40000850
:103470000010024000127A00006CDC0200093D00DE
:10348000003FAB01809FD50008B5274B98421ED066
:103490000BD8A3F5943398422AD003F5E053984211
:1034A0002DD0B0F1804F1CD008BD204B98422DD0BC
:1034B00003F58063984230D0A3F500639842F3D1BE
:1034C0004FF44470FFF711FF4FF4447005E040F2F1
:1034D0000B30FFF70AFF40F20B30BDE80840FFF762
:1034E00006BF4FF48060FFF700FF4FF48060F4E701
:1034F00040F20140FFF7F9FE40F20140EDE74FF4E2
:103500008160FFF7F2FE4FF48160E6E740F2113090
:10351000FFF7EBFE40F21130DFE740F21230FFF729
:10352000E4FE40F21230D8E7002C01400044014094
:103530000B8810B58362424B98421BD020F4806305
:10354000B3F1804F16D08B68C3623E4B98423CD09B
:1035500003F5903398424FD03B4A904255D002F544
:10356000806290425ED0A3F5A053984228D10B7B95
:10357000036325E0036823F07003036002684B884F
:103580001343036002688B88134303608B68C36234
:103590002B4B984222D0B0F1804F16D0A3F5943334
:1035A0009842D2D14FF08043D3F8002422F44072E5
:1035B000C3F80024D3F80044CA882243C3F8002487
:1035C000436943F00103436110BD036823F4407372
:1035D00003600268CB8813430360F1E71B4BD3F809
:1035E000002C22F44072C3F8002CD3F8004CCA8897
:1035F0002243C3F8002CBAE7036823F44073036046
:103600000268CB8813430360B1E7D3F8002422F4A7
:103610004072C3F80024D3F80044CA882243C3F898
:103620000024A4E7D3F8002822F44072C3F800284D
:10363000D3F80048CA882243C3F8002897E700BFA0
:10364000002C0140002000400044014000200140C7
:10365000036843F001030360704741627047C36829
:103660001943C1607047436C01290CBF43F4004308
:1036700023F4004343647047032900F20381DFE829
:1036800011F0040047009A00DF00036A23F00103F1
:103690000362836923F003038361036A11680B43A8
:1036A0000362036A23F002030362016AD3880B43B7
:1036B0000362754B98420AD020F4806103F5A05351
:1036C000994204D003F50063984240F0DB80036A1E
:1036D00023F004030362016A93880B430362036AC5
:1036E00023F008030362016A13890B4303624368F2
:1036F00023F480734360416853890B4343604368FC
:1037000023F400734360416893890B43436070471F
:10371000036A23F010030362836923F44073836117
:10372000036A116843EA01130362036AD18823F034
:1037300020030362036A43EA01130362524B984277
:103740002DD1036A918823F040030362036A43EAA0
:1037500001130362036A118923F080030362036A81
:1037600043EA01130362494B5089D3F8041C928940
:1037700021F48061C3F8041CD3F8041C41EA8001E1
:10378000C3F8041CD3F8041C21F40061C3F8041C22
:10379000D3F8041C41EA8202C3F8042C70473C4B66
:1037A00098426FD14368528923F480634360436831
:1037B00043EA8203AAE7036A23F480730362C369BE
:1037C00023F00303C361036A116843EA0123036220
:1037D000036AD18823F400730362036A43EA012376
:1037E0000362294B98424DD1036A918823F4806388
:1037F0000362036A43EA01230362036A118923F423
:1038000000630362036A43EA012303621F4B50898A
:10381000D3F8041C928921F48051C3F8041CD3F816
:10382000041C41EA0011C3F8041CD3F8041C21F461
:103830000051C3F8041CD3F8041C41EA0212ABE7A0
:10384000036A23F480530362C36923F44073C361A2
:10385000036A116843EA01330362036AD18823F4DF
:1038600000530362036A43EA01330362064B984242
:1038700008D15968528921F480415960596841EA58
:1038800082125A60704700BF002C014000200140A6
:103890000040014003291AD8DFE801F0020A121A99
:1038A000836923F0700383618369134383617047E5
:1038B000836923F4E0438361836943EA0223F5E7E4
:1038C000C36923F07003C361C3691343C3617047C5
:1038D000C36923F4E043C361C36943EA0223F5E704
:1038E00003290AD8DFE801F00204060842637047A2
:1038F00082637047C26370470264704703291AD815
:10390000DFE801F0020A121A836923F008038361D9
:103910008369134383617047836923F40063836180
:10392000836943EA0223F5E7C36923F00803C3610F
:10393000C3691343C3617047C36923F40063C36160
:10394000C36943EA0223F5E708B50C4B98420DD052
:1039500003F57443984210D140F20E30FFF7C5FCD6
:1039600040F20E30BDE80840FFF7C1BC40F2114004
:10397000FFF7BBFC40F21140F4E708BD00440040F3
:1039800038B5134B984204460D4618D003F57443DE
:10399000984216D10620FFF7ADFC226812044FEAC8
:1039A000550310D503EB4003B3FBF5F1C1F342031C
:1039B00021F00F010904090C0B43E36038BD02201C
:1039C000E9E70020E9E70344B3FBF5F39BB2F4E732
:1039D00000440040036823F001030360036823F4FC
:1039E000C063036003680B4303607047036823F000
:1039F00001030360036823F48053036003680B43EF
:103A000003607047036823F001030360436823F4F5
:103A10004053436043680B4343607047036843F07F
:103A2000010303607047036823F008030360036821
:103A30000B4303607047036823F0040303600368CB
:103A40000B4303607047C1F3080181627047406A0D
:103A5000C0F3080070478B0901F01F011858C840D7
:103A600000F001007047026A01F01F0101238B4042
:103A70001343036270478A0910B501F01F011458FF
:103A800001238B402343135010BD10B58C09012234
:103A9000235801F01F018A4023EA0203235010BD7E
:103AA000C1F3891310B51C588B0D1A58C1F304408B
:103AB000012303FA00F0104006D001F01F018B40F3
:103AC000234214BF0120002010BD0000084B994282
:103AD00006D1D0F8D03023F40043C0F8D03070477E
:103AE000026AC1F3044101238B4013430362704710
:103AF00009340F34DFF830D0002103E00B4B5B5862
:103B0000435004310A480B4B42189A42F6D30A4AF2
:103B100002E0002342F8043B084B9A42F9D300F03C
:103B200011F8FFF7D3F87047D4020020444C000886
:103B300000000020D4000020D4020020100B002040
:103B4000FEE700007E4BDA6902F00602062A82B028
:103B500047D0DA69900444D57A4A7B4959605A6063
:103B600099609A601A6942F020021A611A6942F05B
:103B700040021A61DA68D107FCD41A6922F02002E7
:103B80001A611A6942F010021A61DA6912F0060F1E
:103B90006E4A40F0C780A5231380694B6B4AD969F0
:103BA000090A01F0DF015180D969C1F30741918011
:103BB000D969090ED180196AC9B21181196AC1F394
:103BC00007215181DA68D207FCD41A6922F0100269
:103BD0001A611A6922F400721A611A6942F08002AD
:103BE0001A615B4AD2F8883043F47003C2F8883017
:103BF000584B1A6842F001021A601A689007FCD507
:103C00005A6842F080025A6000220192019A4F2ABB
:103C100040F290805A6842F090025A60002201926D
:103C2000019A4F2A40F289805A6822F003025A60B2
:103C30001A6822F0867222F480321A605968464A65
:103C40000A405A605A6822F0084222F474125A60FC
:103C5000DA6A22F0404222F00F02DA621A6B22F492
:103C6000817222F001021A631A6B22F480321A6305
:103C70001A6B22F000421A635A6B22F001025A6357
:103C8000D3F8C02022F48032C3F8C02000229A600A
:103C9000C3F8CC201A6842F480321A604FF40062F4
:103CA0001968890301D4013AFAD11A68900333D50F
:103CB0005A685A605A6842F400525A605A6842F48C
:103CC00080625A605A6822F0036222F470225A60BD
:103CD000DA6A22F0404222F00F02DA625A6842F0B9
:103CE000016242F480325A60DA6A42F00102DA621A
:103CF000DA6ADA621A6842F080721A601A68910110
:103D0000FCD55A6822F003025A605A6842F0020257
:103D10005A605A681207FCD500214FF0006002B0CB
:103D2000FFF7BCBADB6903F00603022B7FF435AF63
:103D3000BB2331E7019A013267E7019A01326EE74E
:103D400000200240AB89EFCD2301674500F8FF1F3B
:103D500000ED00E0001002400C00FF082DE9F047E4
:103D6000089D0C46002B4ED194468C458646B2FAEF
:103D700082F262D94AB1C2F12003914020FA03F3E2
:103D80000CFA02FC194300FA02FE4FEA1C471FFA24
:103D90008CF6B1FBF7F44FEA1E4307FB141143EA1C
:103DA000014304FB06F199420AD91CEB030304F119
:103DB000FF3080F01381994240F21081023C63444D
:103DC000591A1FFA8EF3B1FBF7F007FB101143EA03
:103DD000014300FB06F69E420AD91CEB030300F1E7
:103DE000FF3180F0FD809E4240F2FA806344023849
:103DF0009B1B40EA044000211DB1D3400022C5E9CD
:103E00000032BDE8F0878B4205D90DB1C5E900014C
:103E100000210846F5E7B3FA83F1002946D1A34211
:103E200002D39042C0F0F180861A64EB03030120B4
:103E3000002DE6D0C5E90063E3E7002A40F0918059
:103E4000A1EB0C044FEA1C481FFA8CF70121B4FBCC
:103E5000F8F64FEA1E4308FB164443EA044307FB07
:103E600006F0984208D91CEB030306F1FF3402D296
:103E7000984200F2CE8026461C1A1FFA8EF3B4FB3D
:103E8000F8F008FB104443EA044300FB07F79F42A5
:103E900008D91CEB030300F1FF3402D29F4200F269
:103EA000B1802046DB1B40EA0640A5E7C1F12006B1
:103EB0008B4022FA06F71F4320FA06FC04FA01F3AE
:103EC00043EA0C03F44000FA01F8380C4FEA1349B6
:103ED000B4FBF0FE1FFA87FC00FB1E4449EA0444D1
:103EE0000EFB0CF9A14502FA01F20AD93C190EF1B8
:103EF000FF3A80F08580A14540F28280AEF1020E4B
:103F00003C44A4EB09041FFA83F9B4FBF0F300FB73
:103F1000134449EA044403FB0CFCA44507D93C19AB
:103F200003F1FF3068D2A44566D9023B3C4443EA22
:103F30000E40A0FB0293A4EB0C049C42CE469C4690
:103F400052D34FD055B1B8EB0E0364EB0C0404FA16
:103F500006F6CB40CC401E43C5E900640021BDE815
:103F6000F087C2F1200320FA03F10CFA02FC24FAD4
:103F700003F394400C434FEA1C4800FA02FE1FFA78
:103F80008CF7B3FBF8F008FB1031230C43EA014334
:103F900000FB07F1994208D91CEB030300F1FF363F
:103FA0002CD299422AD9023863445B1AA4B2B3FBDB
:103FB000F8F108FB113344EA034401FB07F3A34281
:103FC00008D91CEB040401F1FF3613D2A34211D926
:103FD00002396444E41A41EA004138E70446EFE656
:103FE000084605E7C845ADD2B9EB020E63EB070CF6
:103FF0000138A7E73146EDE7034698E73046D4E7B6
:10400000D6467EE7634402384CE706462346084618
:104010000EE7023E63442FE753000000000000005B
:10402000FFFF000000000000FFFF00000100000093
:10403000000000000000000100000000000000007F
:104040000000000001020304060708090000000048
:1040500001020304000000000B71D63C3B5E563D9C
:104060002AAFA03D0513D63DA9A8053E5C30203EF1
:10407000F39B3A3ECEE6543E4E0C6F3EEE83843EBA
:10408000766A913E7A379E3EBCE8AA3E017CB73EF6
:1040900016EFC33EC93FD03EF46BDC3E7271E83E82
:1040A000284EF43E0000003F78C2053F776D0B3F7D
:1040B0000000113F1879163FCAD71B3F241B213F30
:1040C0003B42263F254C2B3F0138303FF304353F20
:1040D00022B2393FBE3E3E3FF8A9423F0AF3463F77
:1040E00035194B3FBD1B4F3FEFF9523F1EB3563FB3
:1040F000A1465A3FD8B35D3F29FA603F0219643F99
:10410000D50F673F1EDE693F5E836C3F20FF6E3F29
:10411000F450713F7178733F3675753FEA46773FCB
:104120003CED783FE2677A3F98B67B3F25D97C3FEC
:1041300055CF7D3FFD987E3FF9357F3F2FA67F3FCE
:104140008BE97F3F0000803F8BE97F3F2FA67F3FB9
:10415000F9357F3FFD987E3F55CF7D3F24D97C3F89
:1041600098B67B3FE1677A3F3CED783FEA46773F80
:104170003575753F7078733FF450713F21FF6E3F86
:104180005E836C3F1DDE693FD40F673F0019643FBB
:1041900029FA603FD7B35D3F9F465A3F1DB3563F54
:1041A000EEF9523FBB1B4F3F34194B3F08F3463FDC
:1041B000F5A9423FBD3E3E3F23B2393FF304353FB0
:1041C0000038303F254C2B3F3A42263F221B213FEF
:1041D000C7D71B3F1779163FFEFF103F736D0B3F8C
:1041E00079C2053F0100003F264EF43E6D71E83E66
:1041F000F46BDC3EC73FD03E10EFC33E007CB73EC1
:10420000B8E8AA3E73379E3E746A913EEA83843EC4
:104210004E0C6F3EC8E6543EF89B3A3E5A30203E64
:10422000A1A8053E0913D63D22AFA03D135E563D21
:104230008C70D63C19191919191919191919191944
:104240001919194B1919191919194B19191919197A
:1042500019194B4B19191919194B19191919191938
:10426000194B194B19191919194B4B1919191919F6
:10427000194B4B4B191919194B19191919191919E6
:104280004B19194B191919194B194B1919191919D6
:104290004B194B4B191919194B4B19191919191994
:1042A0004B4B194B191919194B4B4B191919191952
:1042B0004B4B4B4B1919194B191919191919194B42
:1042C0001919194B1919194B19194B191919194B96
:1042D00019194B4B1919194B194B19191919194B54
:1042E000194B194B1919194B194B4B191919194B12
:1042F000194B4B4B1919194B4B1919191919194B02
:104300004B19194B1919194B4B194B191919194BF1
:104310004B194B4B1919194B4B4B19191919194BAF
:104320004B4B194B1919194B4B4B4B191919194B6D
:104330004B4B4B4B19194B191919191919194B19C1
:104340001919194B19194B1919194B1919194B1915
:1043500019194B4B19194B19194B191919194B19D3
:10436000194B194B19194B19194B4B1919194B1991
:10437000194B4B4B19194B194B19191919194B1981
:104380004B19194B19194B194B194B1919194B1971
:104390004B194B4B19194B194B4B191919194B192F
:1043A0004B4B194B19194B194B4B4B1919194B19ED
:1043B0004B4B4B4B19194B4B1919191919194B4BDD
:1043C0001919194B19194B4B19194B1919194B4B31
:1043D00019194B4B19194B4B194B191919194B4BEF
:1043E000194B194B19194B4B194B4B1919194B4BAD
:1043F000194B4B4B19194B4B4B19191919194B4B9D
:104400004B19194B19194B4B4B194B1919194B4B8C
:104410004B194B4B19194B4B4B4B191919194B4B4A
:104420004B4B194B19194B4B4B4B4B1919194B4B08
:104430004B4B4B4B194B191919191919194B1919C0
:104440001919194B194B191919194B19194B191914
:1044500019194B4B194B1919194B1919194B1919D2
:10446000194B194B194B1919194B4B19194B191990
:10447000194B4B4B194B19194B191919194B191980
:104480004B19194B194B19194B194B19194B191970
:104490004B194B4B194B19194B4B1919194B19192E
:1044A0004B4B194B194B19194B4B4B19194B1919EC
:1044B0004B4B4B4B194B194B19191919194B194BDC
:1044C0001919194B194B194B19194B19194B194B30
:1044D00019194B4B194B194B194B1919194B194BEE
:1044E000194B194B194B194B194B4B19194B194BAC
:1044F000194B4B4B194B194B4B191919194B194B9C
:104500004B19194B194B194B4B194B19194B194B8B
:104510004B194B4B194B194B4B4B1919194B194B49
:104520004B4B194B194B194B4B4B4B19194B194B07
:104530004B4B4B4B194B4B1919191919194B4B195B
:104540001919194B194B4B1919194B19194B4B19AF
:1045500019194B4B194B4B19194B1919194B4B196D
:10456000194B194B194B4B19194B4B19194B4B192B
:10457000194B4B4B194B4B194B191919194B4B191B
:104580004B19194B194B4B194B194B19194B4B190B
:104590004B194B4B194B4B194B4B1919194B4B19C9
:1045A0004B4B194B194B4B194B4B4B19194B4B1987
:1045B0004B4B4B4B194B4B4B19191919194B4B4B77
:1045C0001919194B194B4B4B19194B19194B4B4BCB
:1045D00019194B4B194B4B4B194B1919194B4B4B89
:1045E000194B194B194B4B4B194B4B19194B4B4B47
:1045F000194B4B4B194B4B4B4B191919194B4B4B37
:104600004B19194B194B4B4B4B194B19194B4B4B26
:104610004B194B4B194B4B4B4B4B1919194B4B4BE4
:104620004B4B194B194B4B4B4B4B4B19194B4B4BA2
:104630004B4B4B4B4B191919191919194B191919BE
:104640001919194B4B19191919194B194B19191912
:1046500019194B4B4B191919194B19194B191919D0
:10466000194B194B4B191919194B4B194B1919198E
:10467000194B4B4B4B1919194B1919194B1919197E
:104680004B19194B4B1919194B194B194B1919196E
:104690004B194B4B4B1919194B4B19194B1919192C
:1046A0004B4B194B4B1919194B4B4B194B191919EA
:1046B0004B4B4B4B4B19194B191919194B19194BDA
:1046C0001919194B4B19194B19194B194B19194B2E
:1046D00019194B4B4B19194B194B19194B19194BEC
:1046E000194B194B4B19194B194B4B194B19194BAA
:1046F000194B4B4B4B19194B4B1919194B19194B9A
:104700004B19194B4B19194B4B194B194B19194B89
:104710004B194B4B4B19194B4B4B19194B19194B47
:104720004B4B194B4B19194B4B4B4B194B19194B05
:104730004B4B4B4B4B194B19191919194B194B1959
:104740001919194B4B194B1919194B194B194B19AD
:1047500019194B4B4B194B19194B19194B194B196B
:10476000194B194B4B194B19194B4B194B194B1929
:10477000194B4B4B4B194B194B1919194B194B1919
:104780004B19194B4B194B194B194B194B194B1909
:104790004B194B4B4B194B194B4B19194B194B19C7
:1047A0004B4B194B4B194B194B4B4B194B194B1985
:1047B0004B4B4B4B4B194B4B191919194B194B4B75
:1047C0001919194B4B194B4B19194B194B194B4BC9
:1047D00019194B4B4B194B4B194B19194B194B4B87
:1047E000194B194B4B194B4B194B4B194B194B4B45
:1047F000194B4B4B4B194B4B4B1919194B194B4B35
:104800004B19194B4B194B4B4B194B194B194B4B24
:104810004B194B4B4B194B4B4B4B19194B194B4BE2
:104820004B4B194B4B194B4B4B4B4B194B194B4BA0
:104830004B4B4B4B4B4B1919191919194B4B191958
:104840001919194B4B4B191919194B194B4B1919AC
:1048500019194B4B4B4B1919194B19194B4B19196A
:10486000194B194B4B4B1919194B4B194B4B191928
:10487000194B4B4B4B4B19194B1919194B4B191918
:104880004B19194B4B4B19194B194B194B4B191908
:104890004B194B4B4B4B19194B4B19194B4B1919C6
:1048A0004B4B194B4B4B19194B4B4B194B4B191984
:1048B0004B4B4B4B4B4B194B191919194B4B194B74
:1048C0001919194B4B4B194B19194B194B4B194BC8
:1048D00019194B4B4B4B194B194B19194B4B194B86
:1048E000194B194B4B4B194B194B4B194B4B194B44
:1048F000194B4B4B4B4B194B4B1919194B4B194B34
:104900004B19194B4B4B194B4B194B194B4B194B23
:104910004B194B4B4B4B194B4B4B19194B4B194BE1
:104920004B4B194B4B4B194B4B4B4B194B4B194B9F
:104930004B4B4B4B4B4B4B19191919194B4B4B19F3
:104940001919194B4B4B4B1919194B194B4B4B1947
:1049500019194B4B4B4B4B19194B19194B4B4B1905
:10496000194B194B4B4B4B19194B4B194B4B4B19C3
:10497000194B4B4B4B4B4B194B1919194B4B4B19B3
:104980004B19194B4B4B4B194B194B194B4B4B19A3
:104990004B194B4B4B4B4B194B4B19194B4B4B1961
:1049A0004B4B194B4B4B4B194B4B4B194B4B4B191F
:1049B0004B4B4B4B4B4B4B4B191919194B4B4B4B0F
:1049C0001919194B4B4B4B4B19194B194B4B4B4B63
:1049D00019194B4B4B4B4B4B194B19194B4B4B4B21
:1049E000194B194B4B4B4B4B194B4B194B4B4B4BDF
:1049F000194B4B4B4B4B4B4B4B1919194B4B4B4BCF
:104A00004B19194B4B4B4B4B4B194B194B4B4B4BBE
:104A10004B194B4B4B4B4B4B4B4B19194B4B4B4B7C
:104A20004B4B194B4B4B4B4B4B4B4B194B4B4B4B3A
:104A30004B4B4B4B00C0C101C30302C2C60607C7A4
:104A400005C5C404CC0C0DCD0FCFCE0E0ACACB0BBE
:104A5000C90908C8D81819D91BDBDA1A1EDEDF1FEE
:104A6000DD1D1CDC14D4D515D71716D6D21213D3DE
:104A700011D1D010F03031F133F3F23236F6F7378E
:104A8000F53534F43CFCFD3DFF3F3EFEFA3A3BFB7E
:104A900039F9F83828E8E929EB2B2AEAEE2E2FEF2E
:104AA0002DEDEC2CE42425E527E7E62622E2E3239E
:104AB000E12120E0A06061A163A3A26266A6A767CE
:104AC000A56564A46CACAD6DAF6F6EAEAA6A6BAB3E
:104AD00069A9A86878B8B979BB7B7ABABE7E7FBF6E
:104AE0007DBDBC7CB47475B577B7B67672B2B3735E
:104AF000B17170B05090915193535292965657970E
:104B0000559594549C5C5D9D5F9F9E5E5A9A9B5BFD
:104B100099595898884849894B8B8A4A4E8E8F4FAD
:104B20008D4D4C8C4484854587474686824243831D
:104B30004181804000C1814001C0804101C080416D
:104B400000C1814001C0804100C1814000C181405D
:104B500001C0804101C0804100C1814000C181404D
:104B600001C0804100C1814001C0804101C080413D
:104B700000C1814001C0804100C1814000C181402D
:104B800001C0804100C1814001C0804101C080411D
:104B900000C1814000C1814001C0804101C080410D
:104BA00000C1814001C0804100C1814000C18140FD
:104BB00001C0804101C0804100C1814000C18140ED
:104BC00001C0804100C1814001C0804101C08041DD
:104BD00000C1814000C1814001C0804101C08041CD
:104BE00000C1814001C0804100C1814000C18140BD
:104BF00001C0804100C1814001C0804101C08041AD
:104C000000C1814001C0804100C1814000C181409C
:104C100001C0804101C0804100C1814000C181408C
:104C200001C0804100C1814001C0804101C080417C
:044C300000C18140FE
:044C3400F8B500BF10
:044C3800F8B500BF0C
:084C3C0020F1FF7F01000000E0
:104C4400F5F3FE0100000000010000000000000078
:104C5400000000000200000003000000000000004B
:104C64000000000004000000050000000000000037
:104C74000000000006000000070000000000000023
:104C8400000000000200000002000000020000001A
:104C94000200000001010101010101010101010102
:104CA40001010000000000000000803E010000003F
:104CB4000A0000000B0000000000000001000000DA
:104CC40007000000060000000500000004000000CA
:104CD40008000000090000000200000003000000BA
:104CE400016400000000000000010000000000005A
:104CF4000000000000000000010100000C000000A2
:104D04000000000001FFFF01200000002C01000052
:044D1400040635005C
:0400000508003AF5C0
:00000001FF
