:020000040800F2
:1000000004030020F5500008415100084151000848
:100010004151000841510008415100080000000012
:100020000000000000000000000000004151000836
:10003000415100080000000041510008A9010008DA
:1000400000000000415100084151000841510008E2
:100050004151000841510008415100084151000838
:100060004151000841510008753E00084151000807
:100070004151000841510008415100084151000818
:1000800041510008415100080000000041510008A2
:10009000415100084151000841510008BD3300089A
:1000A00041510008415100084151000841510008E8
:1000B000B9020008000000004151000800000000E3
:1000C00015350008000000004151000841510008AA
:1000D0004151000800000000000000000000000086
:1000E0000000000000000000415100080000000076
:1000F0000000000000000000000000000000000000
:1001000041510008000000000000000041510008BB
:1001100000000000000000000000000000000000DF
:1001200000000000000000000000000000000000CF
:1001300000000000000000000000000000000000BF
:100140000000000000000000000000004151000815
:1001500053B94AB9002908BF00281CBF4FF0FF312E
:100160004FF0FF3000F00CB8ADF1080C6DE904CE93
:1001700005F0F4F8DDF804E0DDE9022304B070478F
:10018000704700BF4FF0E023054A5A61054AF0214D
:1001900082F8231000229A6107221A61704700BF7B
:1001A0001E48010000ED00E0024A136801331360AD
:1001B000704700BF1C0B0020F8B5144B6FF03A02DB
:1001C000D3F8E017D3F8AC07D3F8B067D3F8B47717
:1001D0004FF6FF73FFF7BCFF384614461D466FF01D
:1001E0003A024FF6FF733146FFF7B2FF084862400C
:1001F0006B400021013100F8012B06294FEA122241
:1002000042EA03624FEA1323F4D1F8BD00F0FF1F66
:10021000140B002008B540F2115004F07DFA0823B9
:10022000032200214FF0904004F0B4F8082300228C
:1002300002214FF0904004F08BF8BDE808400822FE
:1002400001214FF0904004F0E0B808B540F21150A1
:1002500004F062FA0423032200214FF0904004F0DE
:1002600099F80423002202214FF0904004F070F826
:10027000BDE80840042201214FF0904004F0C5B8C9
:1002800008B500221C20114604F0F8F9BDE808402A
:1002900040F2117004F040BA037810B55940044C94
:1002A000044B5A5C4378615C42704B40037010BD54
:1002B0002461000824600008F8B55749574804F045
:1002C000EFFE064640B1554840F2017104F0CBFE06
:1002D0005149524804F0FAFE5149504804F0E0FEFA
:1002E000074640B14D4840F2027104F0BCFE4C4953
:1002F0004A4804F0EBFE4B49484804F0D1FE05465D
:1003000040B1464840F2037104F0ADFE4549434810
:1003100004F0DCFE4449414804F0C2FE044640B10A
:100320003E484FF4E06104F09EFE3F493B4804F034
:10033000CDFE3E49394804F0B3FEB8B1374840F22B
:10034000037104F090FE3949344804F0BFFE72B6E0
:10035000374A00231360374A1360374A202111803F
:10036000364A138062B6364A137005E03E43354381
:100370002C43E4B2002CEAD13249284804F090FE24
:1003800008B32D4A1388D3B12A4924480C68013B8D
:100390001380631C5A4202F01F0203F01F0358BF70
:1003A00053420B6004F05BFE274B23F81400274BED
:1003B0001A68274B1A60214A138801331380214998
:1003C000164804F083FE2349144804F069FE10B374
:1003D000214D224B2C881B88A34214D94FF49672CE
:1003E000B4FBF2F302FB13439BB21D4A0B4832F8F5
:1003F0001310013404F02FFE2C80BDE8F84015499D
:10040000064804F063BE0548072104F03EFE154B84
:1004100000221A70F1E7F8BD000201070044004015
:100420000002020700020307080000070500030797
:10043000CC0A0020D00A0020FA000020C80A0020C0
:10044000C106002005000507D40A00201C0B00206F
:10045000C4060020070007076E0800206C08002073
:1004600070080020C8060020214B10B51A46F02164
:1004700002F8011B1F49204C08688988C3F8010055
:1004800091801E4A1278DA711D4A204611785278FE
:1004900019725A7204F060FD2046042104F0D3FD65
:1004A0002046082104F0C7FD2046052104F0E3FDA5
:1004B00020464FF4007104F0DEFD2046082104F0D0
:1004C000DAFD20464FF4E13104F062FD20460021C0
:1004D00004F094FD2046002104F09CFD20460021FC
:1004E00004F080FD2046BDE8104004F09FBD00BF31
:1004F000C9060020140B002000440040FE0000202C
:10050000FC0000202DE9F04F8F4B1A888DB0002A97
:100510002ED072B61A88013A1A8062B68B480168EA
:100520004B1C5A4202F01F0203F01F0358BF5342F4
:100530000360874B33F8114086490B78DBB9A52C53
:1005400010D101220A70844984480A7084490B70D2
:1005500084490B70844B21461A70FF23037043704B
:10056000FFF79AFE72B6814A13880133138062B690
:100570000DB0BDE8F08F012BF4D1774E3378012B0D
:1005800013D1FF2C774B07D9002174481970FFF75E
:1005900083FE03233370E5E7E1B270481970FFF77B
:1005A0007BFE002CF5D00223F4E7022B19D16C4816
:1005B0000378B4F5807F28BF0024FF22B3FBF2F25A
:1005C0001A440133DDB2E1B202F0FF02684C05705B
:1005D0006248A154FFF760FE624B1B78AB42C1D169
:1005E000D7E7032B0CD15D4BB4F5807F1B7828BF78
:1005F00000249C421EBF5C4B00221A700423C9E7F2
:10060000042BAFD1574B584A1D781278534B5B7867
:10061000002A00F09480B4F5807F28BF00249C421B
:1006200040F08D80002D00F08A80514F3C78002CE6
:1006300040F0B480022D40F082804E4A1388002B97
:100640007AD04D49DFF84CB1D1F800A0BBF800805A
:10065000DFF84491013B13800AF101035A4202F092
:100660001F0203F01F0358BF53420B60434B4FF46C
:1006700096760BA81B88ADF82C30A521FFF70CFE51
:10068000B8FBF6F306FB13839BB2A522294609F8B3
:100690000320FFF701FE08F101039BB2B3FBF6F262
:1006A00006FB12339BB2214609F803507D786B1E7E
:1006B0005A425A41324B1A70FFF7EEFD08F102031D
:1006C0009BB2B3FBF6F206FB12339BB2294609F844
:1006D0000340FFF7E1FD08F103039BB2B3FBF6F221
:1006E00006FB12339BB209F8035008F104039BB2D6
:1006F000B3FBF6F206FB12339BB29DF82C2009F8EF
:10070000032008F105039BB2B3FBF6F206FB12339C
:100710009BB29DF82D2009F8032008F10603ABF8E1
:100720000030184B23F81A80174B062203F80A20D2
:10073000164A138801331380154B00221A70054B9B
:1007400000221A700EE700BFC80A0020CC0A002061
:10075000D40A0020C1060020F7000020F500002088
:10076000C0060020BF060020F4000020FA00002090
:10077000C0050020F80000200808002018560008D6
:10078000980000202C0800200C08002002080020FF
:1007900081000020D4060020D6060020E32C00F2C1
:1007A000FC80DF2C00F2F0800A2C00F0F185D02CC8
:1007B000C5D1022DC3D197F80180854FDFF844924F
:1007C0003B889FED847AB8F1000F40F0B982824AED
:1007D00082F80080002B6CD08049DFF818A2D1F895
:1007E00000B0013B3B800BF101035A4202F01F02B3
:1007F00003F01F0358BF5342794A0B60794B1688A8
:100800001B88ADF82C304FF496740BA8A521FFF788
:1008100043FDB6FBF4F304FB13639BB2A5210AF876
:1008200003102946FFF738FD731C9BB2B3FBF4F1AC
:1008300004FB11339BB241460AF80350FFF72CFD2D
:10084000B31C9BB2B3FBF4F104FB11339BB24146E2
:100850000AF80380FFF720FDF31C9BB2B3FBF4F111
:1008600004FB11339BB25E4A0AF80380331D9BB22E
:10087000B3FBF4F104FB11339BB29DF82C100AF882
:100880000310731D9BB2B3FBF4F104FB11339BB255
:100890009DF82D100AF80310B31D1380524B23F856
:1008A0001B60524B062203F80B20514A1388013378
:1008B00013803B8889ED007A002B3FF43DAF474918
:1008C000DFF81C814B4EB8F80050013B3B800F68AD
:1008D0007B1C5A4202F01F0203F01F0358BF534211
:1008E0000B60404B4FF496740BA81B88ADF82C306E
:1008F000A521FFF7D1FCB5FBF4F304FB13539BB226
:10090000A5220221F254FFF7C7FC6B1C9BB2B3FB7C
:10091000F4F204FB12339BB20222D021F254FFF70F
:10092000BBFCAB1C9BB2B3FBF4F204FB12339BB2D7
:10093000D0220121F254FFF7AFFCEB1C9BB2B3FBBA
:10094000F4F204FB12339BB20122F2542B1D9BB232
:10095000B3FBF4F204FB12339BB29DF82C20F2544B
:100960006B1D9BB2B3FBF4F204FB12339BB29DF8F8
:100970002D20F254AB1DA8F800301B4B23F8175064
:100980001A4B0622DA55D3E6E13C022C00F24B82E8
:10099000DFE814F06603FF036F04F42C34D0FA2C64
:1009A0007FF4CDAE022D7FF4CAAE97F801B0124BA2
:1009B000BBF1000B18BF4FF0010B83F800B00F4BD9
:1009C00000221A600E4B01221A7000F0F7BC00BF23
:1009D000F80000208180803B98000020080800205B
:1009E000D4060020185600082C0800200C0800200F
:1009F00002080020D606002028030020240300203F
:100A00000500002094000020BE4BBF4E00221A7249
:100A10001A7583F8202083F82C2083F8382083F877
:100A200044203388002B6DD0B849DFF80493D1F807
:100A30000080B9F80050B64F013B338008F1010344
:100A40005A4202F01F0203F01F0358BF53420B60CB
:100A5000B04B4FF496740BA81B88ADF82C30A52131
:100A6000FFF71AFCB5FBF4F304FB13539BB2A5226A
:100A70000221FA54FFF710FC6B1C9BB2B3FBF4F29B
:100A800004FB12339BB202220A21FA54FFF704FC42
:100A9000AB1C9BB2B3FBF4F204FB12339BB20A22F1
:100AA000FA549D4B93F800A05146FFF7F5FBEB1C61
:100AB0009BB2B3FBF4F204FB12339BB207F803A022
:100AC0002B1D9BB2B3FBF4F204FB12339BB29DF8D7
:100AD0002C20FA546B1D9BB2B3FBF4F204FB1233CF
:100AE0009BB29DF82D20FA54AB1DA9F800308B4B1A
:100AF00023F818508A4B062203F80820894A1388E5
:100B000001331380884B00241C60884B01221A702B
:100B10003388002B00F08A807C49854FD1F8009003
:100B20003D88DFF8EC81013B338009EB0203E21AD8
:100B300002F01F0203F01F0358BF53420B60754BB6
:100B40004FF4967A1B88ADF82C300BA8A521FFF73F
:100B5000A3FBB5FBFAF30AFB13539BB2A5220221B8
:100B600008F80320FFF798FB6B1C9BB2B3FBFAF26B
:100B70000AFB12339BB20222D02108F80320FFF7B0
:100B80008BFBAB1C9BB2B3FBFAF20AFB12339BB29A
:100B9000D02208F80320674BD3ED007AB7EE007A35
:100BA000F4EEC77AF1EE10FA0ED89FED637A67EE95
:100BB000877AF5EEC07AF1EE10FAA2BFFCEEE77A82
:100BC000CDED007A9DF8004021460BA8FFF764FBAD
:100BD000EB1C4FF496729BB2B3FBF2F102FB1133A4
:100BE0009BB208F803402B1D9BB2B3FBF2F102FB52
:100BF00011339BB29DF82C1008F803106B1D9BB2AB
:100C0000B3FBF2F102FB11339BB29DF82D2008F8E3
:100C10000320AB1D3B80414B23F81950404B06226B
:100C200003F809203F4A1388013313803388002BCF
:100C30003FF485AD3549DFF8F8800F68B8F800500B
:100C4000013B33807B1C5A4202F01F0203F01F035A
:100C500058BF53420B602F4B2D4E1B88ADF82C30E4
:100C60004FF496740BA8A521FFF716FBB5FBF4F320
:100C700004FB13539BB2A5220221F254FFF70CFB95
:100C80006B1C9BB2B3FBF4F204FB12339BB2022247
:100C90000021F254FFF700FBAB1C9BB2B3FBF4F254
:100CA00004FB12339BB20022F254244B93F80090C1
:100CB0004946FFF7F1FAEB1C9BB2B3FBF4F204FBDD
:100CC00012339BB206F803902B1D9BB2B3FBF4F2D8
:100CD00004FB12339BB29DF82C20F2546B1D9BB287
:100CE000B3FBF4F204FB12339BB29DF82D20F254B7
:100CF000AB1DA8F80030094B23F81750084B06220B
:100D0000DA5540E2C0040020F80000200808002066
:100D1000D606002018560008010000202C080020EC
:100D20000C08002002080020300300208000002072
:100D3000D40600209400002000007F43980000208B
:100D400007EE908AF8EE677A67EE877AC9ED007A47
:100D5000002B3FF4F1ACB749DFF8E8B2D1F800A0BE
:100D6000DFF8E492013B3B800AF101035A4202F0B2
:100D70001F0203F01F0358BF53420B60AE4BBBF87A
:100D800000701B88ADF82C304FF496760BA8A52187
:100D9000FFF782FAB7FBF6F306FB13739BB2A522AB
:100DA000294609F80320FFF777FA7B1C9BB2B3FBB7
:100DB000F6F206FB12339BB2214609F80350FFF707
:100DC0006BFABB1C9BB2B3FBF6F206FB12339BB271
:100DD000414609F80340FFF75FFAFB1C9BB2B3FBE7
:100DE000F6F206FB12339BB209F803803B1D9BB25F
:100DF000B3FBF6F206FB12339BB29DF82C2009F8E8
:100E000003207B1D9BB2B3FBF6F206FB12339BB2B1
:100E10009DF82D2009F80320BB1DABF80030874B4F
:100E200023F81A7080E4052D7FF689ACEC1EE4B23D
:100E30000320B4FBF0F303EB4303E41A14F0FF04C4
:100E40007FF47DAC97F80180BF7808F1FF33DBB207
:100E5000834203933FF673AC7B1EDBB20B2B0093F4
:100E60003FF66DAC76490A88002A00F0A680013A68
:100E7000C3F10C030A80DBB26E49A5F102095FFAE7
:100E800089F9B9FBF0F9994528BF99460B68019398
:100E900001335A4202F01F0203F01F0358BF5342AE
:100EA0000B60684B684D1E88634B4FF4967A0BA815
:100EB0001B88ADF82C30A52109F1010BFFF7ECF9E7
:100EC000B6FBFAF30BEB4B0B0AFB13639BB25FFA17
:100ED0008BFBA5225946EA54FFF7DEF9731C9BB23F
:100EE000B3FBFAF20AFB12339BB2E02105F803B020
:100EF000FFF7D2F9B31C9BB2B3FBFAF20AFB123331
:100F00009BB2E0224146EA54FFF7C6F9F31C9BB2BC
:100F1000B3FBFAF20AFB12339BB2394605F80380A1
:100F2000FFF7BAF9331D9BB2B3FBFAF20AFB123397
:100F30009BB2EF540C23B9FBF3F203FB12995FFA57
:100F400089FA0AF1FF320792039ADFF81091751DB2
:100F50005A43ADB208924FF496786F1CB5FBF8F285
:100F600008FB125292B2BFB20492B7FBF8F208FB30
:100F70001277BAB20592AA1C92B20692079A03356A
:100F8000A242ADB21FDA304B04999DF82C205A547E
:100F900005999DF82D205A542A490AEB4A03F21D5F
:100FA0001A440A80254A019922F81160274A07331A
:100FB0005354274A138801331380264B0399002288
:100FC0005A54FFF7BCBB99F805200292009A99F891
:100FD00004B099F803101C4F0991A218B2FBF3F06A
:100FE00003FB1022089B4FEA0B201A44029B40EAA5
:100FF00001401843184B43F822000BA8FFF74CF9A7
:10100000049B0999F9545946FFF746F9059B029943
:1010100007F803B0FFF740F9069BB3FBF8F108FBB4
:10102000113189B2029B7B54013409F103090C236D
:1010300091E700BF08080020185600082C0800207F
:10104000F8000020D4060020D60600200C0800205E
:10105000020800208200002034030020C005002088
:10106000032D7FF46CABBF4A1388002B3FF467ABB2
:10107000BD49BE4ED1F800903488DFF81083013BA3
:10108000138009F101035A4202F01F0203F01F030B
:1010900058BF53420B60B64B4FF4967A1B88ADF89D
:1010A0002C300BA8A521FFF7F7F8B4FBFAF30AFBE5
:1010B00013439BB2A522294608F80320FFF7ECF85A
:1010C000631C9BB2B3FBFAF20AFB12339BB2E12121
:1010D00008F80350FFF7E0F8A31C9BB2B3FBFAF249
:1010E0000AFB12339BB2E12208F803200021A14A37
:1010F0008B461BF0070F17D107EBEB016B1C254448
:1011000049780292DBB20BA8ADB201930091FFF7D0
:10111000C3F8B5FBFAF00AFB1055ADB2019B00997C
:10112000029A08F805101D460BF1010B01F00103AE
:10113000BBF10C0F02F8013B4FEA5101D9D12B1939
:101140004FF496729BB2B3FBF2F102FB11339BB2E8
:101150009DF82C1008F803106B1C54FA83F39BB213
:10116000B3FBF2F102FB11339BB29DF82D2008F87E
:101170000320023554FA85F333807F4B23F819405E
:101180007E4B03F809507E4A138801331380FFF722
:10119000D6BA032D7FF4D3AA724A1388002B3FF4EA
:1011A000CEAA7149714ED1F800903488DFF8DC8105
:1011B000013B138009F101035A4202F01F0203F0C0
:1011C0001F0358BF53420B60694B4FF4967A1B883C
:1011D000ADF82C300BA8A521FFF75EF8B4FBFAF3AD
:1011E0000AFB13439BB2A522294608F80320FFF708
:1011F00053F8631C9BB2B3FBFAF20AFB12339BB2A7
:10120000E22108F80350FFF747F8A31C9BB2B3FB99
:10121000FAF20AFB12339BB2E22208F80320002103
:10122000584A8B461BF0070F17D107EBEB016B1CDD
:10123000254449780292DBB20BA8ADB2019300912C
:10124000FFF72AF8B5FBFAF00AFB1055ADB2019B87
:101250000099029A08F805101D460BF1010B01F0E8
:101260000103BBF10C0F02F8013B4FEA5101D9D148
:1012700065E7022D7FF463AA97F801A00AF1FF3316
:10128000DBB2032B3FF65BAA3F4A1360354A138853
:10129000002B3FF454AA3449DFF8D090D1F80080F5
:1012A000B9F80060394F013B138008F101035A423D
:1012B00002F01F0203F01F0358BF53420B602C4B78
:1012C0004FF496740BA81B88ADF82C30A521FEF7BF
:1012D000E3FFB6FBF4F304FB13639BB2A52229469C
:1012E000FA54FEF7D9FF731C9BB2B3FBF4F204FB74
:1012F00012339BB2E321FD54FEF7CEFFB31C9BB229
:10130000B3FBF4F204FB12339BB2E3225146FA54CE
:10131000FEF7C2FFF31C9BB2B3FBF4F204FB1233E3
:101320009BB207F803A0331D9BB2B3FBF4F204FB9E
:1013300012339BB29DF82C20FA54731D9BB2B3FB61
:10134000F4F204FB12339BB29DF82D20FA54B31D26
:10135000A9F80030084B23F81860084B062203F860
:10136000082010E7F800002008080020D40600201C
:1013700018560008860000202C0800200C080020C9
:1013800002080020F50300202C030020D6060020D0
:10139000022D7FF4D4A9424B97F801B083F800B036
:1013A000404B414800221A70404B01221A70404BBA
:1013B0001A68404B20211A6003F023F83E4A138834
:1013C000002B3FF4BCA93D49DFF800A1D1F8009003
:1013D000BAF80070DFF8F880013B138009F10103CF
:1013E0005A4202F01F0203F01F0358BF53420B6022
:1013F000334B4FF496760BA81B88ADF82C30A52103
:10140000FEF74AFFB7FBF6F306FB13739BB2A52268
:1014100008F803202946FEF73FFF7B1C9BB2B3FB75
:10142000F6F206FB12339BB2214608F80350FEF792
:1014300033FFBB1C9BB2B3FBF6F206FB12339BB22D
:10144000594608F80340FEF727FFFB1C9BB2B3FB8D
:10145000F6F206FB12339BB208F803B03B1D9BB2B9
:10146000B3FBF6F206FB12339BB29DF82C2008F872
:1014700003207B1D9BB2B3FBF6F206FB12339BB23B
:101480009DF82D2008F80320BB1DAAF800300D4B55
:1014900023F819700C4B062203F8092073E600BFED
:1014A0000100002000000020000400480E0300207E
:1014B0001C0B002004030020F80000200808002076
:1014C000185600082C0800200C080020D406002024
:1014D000D60600202DE9F041234C2278002A35D190
:1014E000224B1988002931D072B619880139198028
:1014F00062B61F4DDFF894C02968DFF894E04B1CFA
:10150000584200F01F0003F01F0358BF43422B60F6
:10151000184B33F81170184B585C1849461E0A8056
:1015200013464FF496759E4212DA02B10880144BAE
:101530001448002207211A8003F09DFD0123237027
:1015400072B6114A13880133138062B6BDE8F08188
:10155000FA18B2FBF5F805FB18221EF802202CF849
:10156000132001330122DEE7C80600200208002014
:10157000040800202C0800200C0800206C08002023
:101580006E08002000440040F80000207008002091
:10159000D60600200B4B0C4A19681368CB1A012B96
:1015A00010B50ED972B609480023036008480360DD
:1015B0000848202404800848038062B60748116068
:1015C000037010BD1C0B0020C4060020CC0A0020B4
:1015D000D00A0020FA000020C80A0020C10600201E
:1015E0002DE9F04F3C4A138885B0002B71D03B4960
:1015F0003B4FD1F800903E88DFF8F880DFF8F8B074
:10160000013B138009F101035A4202F01F0203F06B
:101610001F0358BF53420B60324B4FF496741B8824
:10162000ADF80C30A52103A8FEF736FEB6FBF4F3A7
:1016300004FB13639BB2A5220A2108F80320FEF7DE
:101640002BFE731C9BB2B3FBF4F204FB12339BB270
:101650000A2206F1020A06F10C0508F803201FFA17
:101660008AFAADB21BF8011B019103A8FEF714FE24
:10167000BAFBF4F304FB13A30AF1010A9BB21FFAAD
:101680008AFA019908F803105545EBD1B5FBF4F33C
:1016900004FB1355ADB29DF80C3008F8053006F187
:1016A0000D039BB2B3FBF4F204FB12339BB29DF823
:1016B0000D2008F8032006F10E033B800A4B23F8A7
:1016C00019600A4B0E2203F80920094A13880133D6
:1016D000138005B0BDE8F08FF80000200808002056
:1016E000D4060020185600082C0800200C08002002
:1016F00002080020D6060020C90600201FB50C4CA9
:1017000040F2116003F008F8204603F0EFF80023E0
:10171000642269462046CDE9003302928DF80C30F0
:1017200003F038F9204603F0C5F904B010BD00BF3E
:101730000044014010B50D4C40F2125002F0ECFF95
:1017400020464FF480730322002102F023FE20463E
:10175000002202214FF4807302F0FAFD20464FF47C
:101760008072BDE81040022102F04FBE0004004824
:1017700030B54FF4A06085B002F0CEFF1B4B1C4A81
:101780001A601C4B1C4C0FCB6D4685E80F002A4697
:101790002046002103F0ACF900221146204603F058
:1017A000DBFA20466022002103F0B0FA082220462E
:1017B000002103F0DFFA2046012103F08FF94FF4F6
:1017C0008071204603F086F9204603F073F9012268
:1017D00011460A2002F052FF022002F0B5FC02215D
:1017E000084602F013FD05B030BD00BFD400002054
:1017F000344401401C560008004401401FB54FF41A
:10180000E06002F089FF4FF0804003F06FF8104B6A
:10181000104A1B68B3FBF2F3013B0022B3F5803F93
:1018200028BF1346ADF8003069464FF6FE734FF0FF
:101830008040ADF80220019202938DF80C2003F055
:10184000A9F84FF0804003F035F905B05DF804FBCE
:101850000001002000BD010507B540F2115002F063
:101860005BFF0123032200214FF0904002F092FD24
:101870000123194600224FF0904002F069FD01213A
:101880004FF0904002F0BFFD4FF4803300216A46D4
:101890004FF08040CDE9003103F0B8FA4FF08040BE
:1018A00003F008F903B05DF804FB0000074B93ED6B
:1018B000007A074BD3ED007A064BB4EEE77AF1EEEF
:1018C00010FACCBF012200221A707047A805002030
:1018D000A4050020D100002070B502214FF0804007
:1018E00003F0EFF8002800F0BE806C4E00214FF0AE
:1018F0008040358803F01FFB0123044603220021AA
:101900004FF0904002F046FD0123194600224FF0AF
:10191000904002F01DFD01214FF0904002F073FD58
:1019200002214FF0804003F0D2F872B6012300226A
:1019300002214FF0904002F00BFD01230322002111
:101940004FF0904002F026FD012202214FF090401E
:1019500002F05BFD4FF080435B6AB3F5803F28BF28
:101960000023338062B64E4B4E484F494F4A1B7896
:10197000D0ED007A91ED006AD2ED004A002B73D0D1
:10198000B4F5803F28BF0024A4B2A5426BD0F5EE89
:10199000C07AF1EE10FA66DD641BA4B207EE104ABD
:1019A000B8EE477A424B9FED435A93ED004A424DC1
:1019B000424C77EE675A65EEA56AF0EEE55A66EEA0
:1019C000856A9FED3F5AE4EE056AC3ED006A3D4B20
:1019D000C3ED005AC6EEA75ADFED3B6AF4EEE65AB5
:1019E000F1EE10FA04DDF4EEC77AF1EE10FA22D42B
:1019F00000232B70DFED356A354D9FED365AF4EE3E
:101A0000E65AF1EE10FADFED345A1DD52B7801338A
:101A1000DBB2642B2B7019D10023237066EE056AAC
:101A2000E7EE256AC1ED006A67EE857AE7EE257A72
:101A3000C0ED007A17E02B780133DBB2642B2B70FA
:101A400004BF01232370D5E700232B702378002BDC
:101A5000E4D067EE256A214BE4EE856A1B78C2ED7F
:101A6000006A002BE0D170BDB4F5803F28BF002490
:101A70009FED1B7ADFED1B6A641BA4B267EE877AC9
:101A800007EE104AB8EE477AE7EE267AC0ED007A04
:101A9000C1ED007AC2ED007AE5E700BFB005002095
:101AA0009E050020AC050020A8050020A40500200C
:101AB000A00500200AD7233C9D0500209F0500209B
:101AC000A4707D3F98050020CDCCCC3ECDCC4C3EC3
:101AD0009C05002072F97F3F17B7D138D100002054
:101AE00077BE7F3F6F12833A1FB540F2017002F05C
:101AF00013FE114802F0FAFE104B114A1B68B3FBAB
:101B0000F2F3013B0022B3F5803F28BF1346ADF846
:101B1000003069464FF6FE730748ADF80220019287
:101B200002938DF80C2002F035FF034802F0C2FF4B
:101B300005B05DF804FB00BF000400400001002078
:101B400000BD010513B5134C40F2125002F0E4FD44
:101B5000204602230322002102F01CFC0223002263
:101B60002046012102F0F4FB2046022102F04BFC4A
:101B700004F1784400234FF48032CDE9002303219F
:101B80006A46204603F042F9204602F093FF02B075
:101B900010BD00BF00040048074B93ED007A074BCF
:101BA000D3ED007A064BB4EEE77AF1EE10FACCBF33
:101BB000012200221A7070478C0500208805002041
:101BC000D000002070B56C48102102F07AFF002888
:101BD00000F0B780694E68483588032103F0ABF9FF
:101BE0000223044603226648002102F0D3FB0223AD
:101BF00000226348012102F0ABFB6148022102F0A0
:101C000002FC5D48102102F062FF72B60223194601
:101C10005B48002202F09CFB02235948032200216A
:101C200002F0B8FB56480222012102F0EEFB4FF011
:101C30008043D3F82434B3F5803F28BF002333809A
:101C400062B6504B50485149514A1B78D0ED007A4A
:101C500091ED006AD2ED004A002B73D0B4F5803FBD
:101C600028BF0024A4B2A5426BD0F5EEC07AF1EEF5
:101C700010FA66DD641BA4B207EE104AB8EE477A8C
:101C8000444B9FED455A93ED004A444D444C77EE4A
:101C9000675A65EEA56AF0EEE55A66EE856A9FED35
:101CA000415AE4EE056AC3ED006A3F4BC3ED005AAA
:101CB000C6EEA75ADFED3D6AF4EEE65AF1EE10FAF1
:101CC00004DDF4EEC77AF1EE10FA22D400232B7073
:101CD000DFED376A374D9FED385AF4EEE65AF1EEF4
:101CE00010FADFED365A1DD52B780133DBB2642BA9
:101CF0002B7019D10023237066EE056AE7EE256A82
:101D0000C1ED006A67EE857AE7EE257AC0ED007ACC
:101D100017E02B780133DBB2642B2B7004BF012357
:101D20002370D5E700232B702378002BE4D067EED7
:101D3000256A234BE4EE856A1B78C2ED006A002B0E
:101D4000E0D170BDB4F5803F28BF00249FED1D7A1F
:101D5000DFED1D6A641BA4B267EE877A07EE104AB6
:101D6000B8EE477AE7EE267AC0ED007AC1ED007A48
:101D7000C2ED007AE5E700BF0004004094050020B2
:101D80000004004882050020900500208C050020FA
:101D900088050020840500200AD7233C8105002007
:101DA00083050020A4707D3F7C050020CDCCCC3E77
:101DB000CDCC4C3E8005002072F97F3F17B7D1385B
:101DC000D000002077BE7F3F6F12833A07B540F204
:101DD000115002F0A1FC0223032200214FF0904099
:101DE00002F0D8FA0223002201214FF0904002F0C5
:101DF000AFFA02214FF0904002F005FB00234FF4B0
:101E00008032CDE9002301216A464FF0804002F084
:101E1000FDFF4FF0804002F04DFE03B05DF804FB83
:101E2000074B93ED007A074BD3ED007A064BB4EEE7
:101E3000E77AF1EE10FACCBF012200221A70704747
:101E4000700500206C050020CF00002070B5042133
:101E50004FF0804002F035FE002800F0BE806C4E4E
:101E600001214FF08040358803F065F802230446D5
:101E7000032200214FF0904002F08CFA022300224E
:101E800001214FF0904002F063FA02214FF09040A0
:101E900002F0B9FA04214FF0804002F018FE72B649
:101EA0000223194600224FF0904002F051FA02231B
:101EB000032200214FF0904002F06CFA02221146FA
:101EC0004FF0904002F0A1FA4FF080435B6AB3F507
:101ED000803F28BF0023338062B64E4B4E484F49A7
:101EE0004F4A1B78D0ED007A91ED006AD2ED004A9E
:101EF000002B73D0B4F5803F28BF0024A4B2A542C4
:101F00006BD0F5EEC07AF1EE10FA66DD641BA4B278
:101F100007EE104AB8EE477A424B9FED435A93EDD5
:101F2000004A424D424C77EE675A65EEA56AF0EEE4
:101F3000E55A66EE856A9FED3F5AE4EE056AC3ED09
:101F4000006A3D4BC3ED005AC6EEA75ADFED3B6A6F
:101F5000F4EEE65AF1EE10FA04DDF4EEC77AF1EE93
:101F600010FA22D400232B70DFED356A354D9FED3A
:101F7000365AF4EEE65AF1EE10FADFED345A1DD57A
:101F80002B780133DBB2642B2B7019D10023237023
:101F900066EE056AE7EE256AC1ED006A67EE857AAE
:101FA000E7EE257AC0ED007A17E02B780133DBB23B
:101FB000642B2B7004BF01232370D5E700232B7003
:101FC0002378002BE4D067EE256A214BE4EE856A86
:101FD0001B78C2ED006A002BE0D170BDB4F5803FE4
:101FE00028BF00249FED1B7ADFED1B6A641BA4B29F
:101FF00067EE877A07EE104AB8EE477AE7EE267A60
:10200000C0ED007AC1ED007AC2ED007AE5E700BFCD
:10201000780500206605002074050020700500206A
:102020006C050020680500200AD7233C65050020C8
:1020300067050020A4707D3F60050020CDCCCC3E1C
:10204000CDCC4C3E6405002072F97F3F17B7D138E4
:10205000CF00002077BE7F3F6F12833A13B5134C39
:1020600040F2125002F058FB2046012303220021C7
:1020700002F090F9012319460022204602F068F987
:102080002046012102F0BFF904F1784400234FF407
:102090008032CDE9002302216A46204602F0B6FED6
:1020A000204602F007FD02B010BD00BF000400484A
:1020B000074B93ED007A074BD3ED007A064BB4EE55
:1020C000E77AF1EE10FACCBF012200221A707047B5
:1020D0005405002050050020CE00002070B56C484B
:1020E000082102F0EEFC002800F0B780694E684835
:1020F0003588022102F01FFF0123044603226648AF
:10210000002102F047F9012319460022624802F03B
:102110001FF96148012102F076F95D48082102F0BB
:10212000D6FC72B65C4801230022022102F010F9AD
:10213000012359480322002102F02CF901225648BC
:10214000114602F062F94FF08043D3F82434B3F51E
:10215000803F28BF0023338062B6504B504851491E
:10216000514A1B78D0ED007A91ED006AD2ED004A19
:10217000002B73D0B4F5803F28BF0024A4B2A54241
:102180006BD0F5EEC07AF1EE10FA66DD641BA4B2F6
:1021900007EE104AB8EE477A444B9FED455A93ED4F
:1021A000004A444D444C77EE675A65EEA56AF0EE5E
:1021B000E55A66EE856A9FED415AE4EE056AC3ED85
:1021C000006A3F4BC3ED005AC6EEA75ADFED3D6AE9
:1021D000F4EEE65AF1EE10FA04DDF4EEC77AF1EE11
:1021E00010FA22D400232B70DFED376A374D9FEDB4
:1021F000385AF4EEE65AF1EE10FADFED365A1DD5F4
:102200002B780133DBB2642B2B7019D100232370A0
:1022100066EE056AE7EE256AC1ED006A67EE857A2B
:10222000E7EE257AC0ED007A17E02B780133DBB2B8
:10223000642B2B7004BF01232370D5E700232B7080
:102240002378002BE4D067EE256A234BE4EE856A01
:102250001B78C2ED006A002BE0D170BDB4F5803F61
:1022600028BF00249FED1D7ADFED1D6A641BA4B218
:1022700067EE877A07EE104AB8EE477AE7EE267ADD
:10228000C0ED007AC1ED007AC2ED007AE5E700BF4B
:10229000000400405C050020000400484A050020BE
:1022A0005805002054050020500500204C05002052
:1022B0000AD7233C490500204B050020A4707D3F30
:1022C00044050020CDCCCC3ECDCC4C3E4805002072
:1022D00072F97F3F17B7D138CE00002077BE7F3F1D
:1022E0006F12833A13B540F2115002F015FA4023F1
:1022F000032200214FF0904002F04CF80D4C402397
:10230000002201214FF0904002F022F840214FF0CE
:10231000904002F078F84FF4803300216A4620465E
:10232000CDE9003102F072FD204602F0C3FB02B09D
:1023300010BD00BF00040040074B93ED007A074B2F
:10234000D3ED007A064BB4EEE77AF1EE10FACCBF8B
:10235000012200221A707047380500203405002041
:10236000CD00002070B56F48022102F0AAFB0028C2
:1023700000F0BD806C4E6B483588002102F0DBFD1B
:1023800040230446032200214FF0904002F002F85F
:102390004023002201214FF0904001F0D9FF40215D
:1023A0004FF0904002F02FF85E48022102F08FFBC0
:1023B00072B64023002202214FF0904001F0C8FF86
:1023C0004023032200214FF0904001F0E3FF402220
:1023D00001214FF0904002F018F84FF08043D3F8FD
:1023E0002434B3F5803F28BF0023338062B64F4BBF
:1023F0004F485049504A1B78D0ED007A91ED006A61
:10240000D2ED004A002B73D0B4F5803F28BF0024E2
:10241000A4B2A5426BD0F5EEC07AF1EE10FA66DDFB
:10242000641BA4B207EE104AB8EE477A434B9FED07
:10243000445A93ED004A434D434C77EE675A65EE9C
:10244000A56AF0EEE55A66EE856A9FED405AE4EE25
:10245000056AC3ED006A3E4BC3ED005AC6EEA75AAB
:10246000DFED3C6AF4EEE65AF1EE10FA04DDF4EE2C
:10247000C77AF1EE10FA22D400232B70DFED366A12
:10248000364D9FED375AF4EEE65AF1EE10FADFEDD5
:10249000355A1DD52B780133DBB2642B2B7019D143
:1024A0000023237066EE056AE7EE256AC1ED006A37
:1024B00067EE857AE7EE257AC0ED007A17E02B7893
:1024C0000133DBB2642B2B7004BF01232370D5E7EB
:1024D00000232B702378002BE4D067EE256A224B73
:1024E000E4EE856A1B78C2ED006A002BE0D170BD76
:1024F000B4F5803F28BF00249FED1C7ADFED1C6AF5
:10250000641BA4B267EE877A07EE104AB8EE477AEA
:10251000E7EE267AC0ED007AC1ED007AC2ED007ACE
:10252000E5E700BF00040040400500202E05002024
:102530003C0500203805002034050020300500202F
:102540000AD7233C2D0500202F050020A4707D3FD5
:1025500028050020CDCCCC3ECDCC4C3E2C05002017
:1025600072F97F3F17B7D138CD00002077BE7F3F8B
:102570006F12833A13B540F2115002F0CDF8802368
:10258000032200214FF0904001F004FF802300223D
:1025900001214FF0904001F0DBFE0A4C80214FF00A
:1025A000904001F030FF00234FF48032CDE900234A
:1025B00001216A46204602F029FC204602F07AFA00
:1025C00002B010BD00040040074B93ED007A074BAA
:1025D000D3ED007A064BB4EEE77AF1EE10FACCBFF9
:1025E000012200221A7070471C05002018050020E7
:1025F000CC00002070B56F48042102F062FA002878
:1026000000F0BD806C4E6B483588012102F093FCD0
:1026100080230446032200214FF0904001F0BAFECF
:102620008023002201214FF0904001F091FE802193
:102630004FF0904001F0E7FE5E48042102F047FAB7
:1026400072B68023002202214FF0904001F080FEFC
:102650008023032200214FF0904001F09BFE802256
:1026600001214FF0904001F0D0FE4FF08043D3F8AD
:102670002434B3F5803F28BF0023338062B64F4B2C
:102680004F485049504A1B78D0ED007A91ED006ACE
:10269000D2ED004A002B73D0B4F5803F28BF002450
:1026A000A4B2A5426BD0F5EEC07AF1EE10FA66DD69
:1026B000641BA4B207EE104AB8EE477A434B9FED75
:1026C000445A93ED004A434D434C77EE675A65EE0A
:1026D000A56AF0EEE55A66EE856A9FED405AE4EE93
:1026E000056AC3ED006A3E4BC3ED005AC6EEA75A19
:1026F000DFED3C6AF4EEE65AF1EE10FA04DDF4EE9A
:10270000C77AF1EE10FA22D400232B70DFED366A7F
:10271000364D9FED375AF4EEE65AF1EE10FADFED42
:10272000355A1DD52B780133DBB2642B2B7019D1B0
:102730000023237066EE056AE7EE256AC1ED006AA4
:1027400067EE857AE7EE257AC0ED007A17E02B7800
:102750000133DBB2642B2B7004BF01232370D5E758
:1027600000232B702378002BE4D067EE256A224BE0
:10277000E4EE856A1B78C2ED006A002BE0D170BDE3
:10278000B4F5803F28BF00249FED1C7ADFED1C6A62
:10279000641BA4B267EE877A07EE104AB8EE477A58
:1027A000E7EE267AC0ED007AC1ED007AC2ED007A3C
:1027B000E5E700BF000400402405002012050020CA
:1027C000200500201C05002018050020140500200D
:1027D0000AD7233C1105002013050020A4707D3F7B
:1027E0000C050020CDCCCC3ECDCC4C3E10050020BD
:1027F00072F97F3F17B7D138CC00002077BE7F3FFA
:102800006F12833A1D4B1A781D4B197891421EBFE7
:102810001A7000221A721B4A197B127891421EBF4D
:102820001A7300221A75184A197E127891421EBF37
:102830001A76002283F82020144A93F82410127884
:1028400091421EBF83F82420002283F82C20104AD6
:1028500093F83010127891421EBF83F83020002286
:1028600083F838200B4A93F83C10127891421EBF2F
:1028700083F83C20002283F8442070479F05002005
:10288000C004002083050020670500204B050020C0
:102890002F050020130500202DE9F04F4B4BDFF8EA
:1028A00054B193F800A00623BAFBF3F803FB18A871
:1028B0005FFA88F80C2303FB08F30BEB030285B0E7
:1028C000127A002A7AD1424D1BF80330AB700122F4
:1028D0002A7042446A703F4A1388002B68D03E48F1
:1028E000D0F80090013B138009F10103594201F037
:1028F0001F0103F01F0358BF4B420360374B1F8873
:10290000374B4FF496741B88ADF80C3003A8A52103
:10291000FDF7C2FCB7FBF4F104FB1171314B89B236
:10292000A5265E540321FDF7B7FC791C89B2B1FBE3
:10293000F4F004FB10112B4B89B203202A46BE1C75
:102940007D1D5854B6B2ADB212F8011B03A8CDE9F3
:102950000012FDF7A1FCB6FBF4F004FB1060013699
:10296000204B0099019A80B2B6B2B5421954EBD10E
:10297000B5FBF4F104FB1155ADB29DF80C1059559F
:10298000B91D89B2B1FBF4F004FB101189B2134AEE
:102990009DF80D005854FB1D1380134B134A23F868
:1029A0001970134B072103F80910138801331380A2
:1029B0000C2303FB08BB01238BF80830034B0AF1FF
:1029C000010A83F800A005B0BDE8F08F08050020DB
:1029D000BA040020F800002008080020D4060020D7
:1029E00018560008D60600202C08002002080020F7
:1029F0000C080020C0040020024A137883F0010371
:102A000013707047F40300202DE9FF47DFF854816D
:102A1000494F4A4CDFF850A118F8013BABBBA4F179
:102A2000300501F033FC284601F05CFC444B1B8868
:102A3000ADF80C30B94659F8046B03A8C6F307414A
:102A4000FDF72AFCC6F30721FDF726FCF1B2FDF7DE
:102A500023FC01F01BFC28463146043501F05EFCE6
:102A6000A542E8D19DF80C5001F010FC2946204603
:102A700001F054FC9DF80D5001F008FC2946201D82
:102A800001F04CFC012308F8013C04F58064544536
:102A900007F13007C0D12B4D2C78002C48D101F024
:102AA000F5FB294801F01EFC254B1B88ADF80C30C6
:102AB000264BD3ED007A264BB7EE007AF4EEC77AB8
:102AC000F1EE10FA1E780ED89FED227A67EE877A23
:102AD000F5EEC07AF1EE10FAA2BFFCEEE77ACDED8A
:102AE000017A9DF8044003A82146FDF7D5FB314645
:102AF000FDF7D2FB01F0CAFB2146134801F00EFCA2
:102B000001F0C4FB3146144801F008FC9DF80C406C
:102B100001F0BCFB2146114801F000FC9DF80D407E
:102B200001F0B4FB0E48214601F0F8FB01232B70A5
:102B300004B0BDE8F08700BF3403002030C00008B7
:102B4000185600088100002000D0000894000020E2
:102B50009800002000007F4304D0000808D000083F
:102B60000CD000088200002030D000082DE9F04F82
:102B7000724B1B7885B0002B00F0D880704B714AE7
:102B80001D681388002B00F0C5806F49DFF8D481E1
:102B9000D1F800B0013B13800BF101035A4202F05F
:102BA0001F0203F01F0358BF53420B60674B1E8880
:102BB000674B4FF4967403A81B88ADF80C30A52121
:102BC000FDF76AFBB6FBF4F304FB13639BB2A5228B
:102BD000272108F80320FDF75FFB731C9BB2B3FBB2
:102BE000F4F204FB12339BB22722E02108F8032001
:102BF000FDF752FB691CB31CB1F5807F9BB228BF67
:102C00000021B3FBF4F204FB12339BB2CFB2E022FB
:102C1000394608F80320FDF73FFBF31C9BB2B3FBDA
:102C2000F4F204FB12339BB2012108F80370FDF7A4
:102C300033FB331D9BB2B3FBF4F204FB12339BB2A4
:102C4000012208F80320434A3023771D06F12909A1
:102C500003FB0522BFB21FFA89F952F804AB0192B7
:102C600003A8CAF307410091FDF716FBB7FBF4FC7C
:102C700004FB1C7C1FFA8CFC009908F80C10CAF3AA
:102C800007210091FDF708FB07F1010C1FFA8CFCEE
:102C9000BCFBF4FE04FB1ECC1FFA8CFC009908F868
:102CA0000C105FFA8AF10091FDF7F6FABB1C9BB29B
:102CB0000337B3FBF4F004FB10339BB2BFB20099AF
:102CC00008F80310B945019AC7D1B9FBF4F304FB26
:102CD00013991FFA89F99DF80C3008F8093006F1AC
:102CE0002A039BB2B3FBF4F204FB12339BB29DF8B0
:102CF0000D2008F80320154B06F12B021A80164B05
:102D000023F81B60154B2B2203F80B20144A138861
:102D100001331380022D0CDC01356B4203F00303F9
:102D200005F0030558BF5D42054B1D6005B0BDE8C9
:102D3000F08F024A00231370F8E700BF80000020E4
:102D400030030020F800002008080020D4060020EE
:102D500018560008340300202C0800200C0800201E
:102D600002080020D60600202DE9F347DFF8F480A2
:102D7000344D354CB8F800A0ADF804A0A4F13007EC
:102D8000A94657F8046B49F8046B01A8C6F307413C
:102D9000FDF782FAC6F30721FDF77EFAF1B2FDF7DF
:102DA0007BFAA742EDD19DF80400216863689DF885
:102DB0000520884208D025492A46002301330C2BE0
:102DC00042F8041BFAD101E09A42F4D1204B04F5F9
:102DD00080649C4205F13005CED1B8F80030ADF8E2
:102DE00004301C4BD3E90045B4F5807F28BF002494
:102DF000E4B2214601A8D3E90276FDF74DFAB5F514
:102E0000807F28BF0025EDB22946FDF745FA9DF8E1
:102E10000430BB4213D19DF80530B3420FD107EE09
:102E2000904A9FED0D7A0D4BF8EE677A67EE877A40
:102E3000C3ED007A6B1E5D425D41094B1D7002B00F
:102E4000BDE8F0873403002030C0000877777700B2
:102E500030D0000800D000088180803B9400002022
:102E6000980000201856000808B540F2115001F0F3
:102E700053FC4FF48063032200214FF0904001F097
:102E800089FA4FF48063002202214FF0904001F054
:102E90005FFABDE808404FF4806204214FF0904093
:102EA00001F0B3BA08B540F2115001F035FC4FF40F
:102EB0000073032200214FF0904001F06BFA4FF4B1
:102EC0000073002202214FF0904001F041FABDE86A
:102ED00008404FF4007204214FF0904001F095BA81
:102EE00010B50F4C40F2157001F016FC20460D494C
:102EF000002201F0BBFA00231A461946204601F0D1
:102F000037FB204601F053FB00221146172001F049
:102F1000B5FBBDE8104001220021202001F0AEBB2E
:102F200000540040801A060010B5124B124C1A785B
:102F3000124B1A70124A01231360124A8021117039
:102F4000114A1370114B0022204640F209111A80D9
:102F500001F041FB20464FF4857101F03CFB204617
:102F60004FF4847101F037FB2046BDE8104001F0BA
:102F700023BB00BF04000020005400401E030020BB
:102F8000180300201F030020200300201C03002042
:102F900010B5124B124C1A78124B1A70124A0123B8
:102FA0001360124A80211170114A1370114B0022D4
:102FB000204640F209111A8001F00DFB20464FF423
:102FC000857101F008FB20464FF4847101F003FB8A
:102FD0002046BDE8104001F0EFBA00BF020000201B
:102FE000005400401E030020180300201F0300208F
:102FF000200300201C030020134A002310B5137087
:10300000124A134C02211160124A80211170124A97
:103010001370124A20464FF48061138001F0B3FA16
:10302000204640F2091101F0D6FA20464FF485718E
:1030300001F0D1FA20464FF4847101F0CCFA204619
:10304000BDE8104001F0B8BA0F03002018030020BB
:10305000005400401F030020200300201C03002018
:103060002DE9F04F4F4B1B7885B0002B00F0968078
:103070004D4ADFED4E6AC22313704D4B1B885BBA7D
:103080009BB207EE903AB8EE677AF9EE087AE7EE6F
:10309000267A9FED487A67EE877AF5EEC07AF1EEF0
:1030A00010FAA9BFFCEEE77A002317EE903A9BB224
:1030B00053701B0A9370404A1388002B6ED03F490F
:1030C0003F4FD1F800903E88DFF80881DFF8D8B094
:1030D000013B138009F101035A4202F01F0203F081
:1030E0001F0358BF53420B60364B4FF496741B8836
:1030F000ADF80C30A52103A8FDF7CEF8B6FBF4F32C
:1031000004FB13639BB2A522032108F80320FDF7FB
:10311000C3F8731C9BB2B3FBF4F204FB12339BB2F3
:10312000032206F1020A751D08F803201FFA8AFA25
:10313000ADB21BF8011B019103A8FDF7ADF8BAFB76
:10314000F4F304FB13A30AF1010A9BB21FFA8AFAF3
:10315000019908F803105545EBD1B5FBF4F304FBD6
:103160001355ADB29DF80C3008F80530B31D9BB275
:10317000B3FBF4F204FB12339BB29DF80D2008F868
:103180000320F31D3B80104B23F819600F4B0722DF
:1031900003F809200E4A13880133138005B0BDE8F7
:1031A000F08F00BF0F030020100300200000FA3A48
:1031B000130300200000C842F80000200808002087
:1031C000D4060020185600082C0800200C08002007
:1031D00002080020D606002010B5124B124C1A78B7
:1031E000124B1A70124A01231360124A8021117087
:1031F000114A1370114B0022204640F209111A8027
:1032000001F0E9F920464FF4857101F0E4F9204618
:103210004FF4847101F0DFF92046BDE8104001F061
:10322000CBB900BF03000020005400401E03002063
:10323000180300201F030020200300201C0300208F
:103240002DE9F04F4F4B1B7885B0002B00F0968096
:103250004D4ADFED4E6AC02313704D4B1B885BBA9D
:103260009BB207EE903AB8EE677ADFED4A7AE7EE66
:10327000267A9FED497A67EE877AF5EEC07AF1EE0D
:1032800010FAA9BFFCEEE77A002317EE903A9BB242
:1032900053701B0A9370414A1388002B6ED040492B
:1032A000404FD1F800903E88DFF80C81DFF8D8B0AD
:1032B000013B138009F101035A4202F01F0203F09F
:1032C0001F0358BF53420B60374B4FF496741B8853
:1032D000ADF80C30A52103A8FCF7DEFFB6FBF4F334
:1032E00004FB13639BB2A522032108F80320FCF71B
:1032F000D3FF731C9BB2B3FBF4F204FB12339BB2FB
:10330000032206F1020A751D08F803201FFA8AFA43
:10331000ADB21BF8011B019103A8FCF7BDFFBAFB7E
:10332000F4F304FB13A30AF1010A9BB21FFA8AFA11
:10333000019908F803105545EBD1B5FBF4F304FBF4
:103340001355ADB29DF80C3008F80530B31D9BB293
:10335000B3FBF4F204FB12339BB29DF80D2008F886
:103360000320F31D3B80114B23F81960104B0722FB
:1033700003F809200F4A13880133138005B0BDE814
:10338000F08F00BF0F0300201003002052B82F3B26
:10339000130300201F853BC20000C842F800002034
:1033A00008080020D4060020185600082C08002029
:1033B0000C08002002080020D6060020494B4A498C
:1033C0001B784A4870B5002B3DD001F019F940B187
:1033D0006FF00102464B45481978BDE8704001F096
:1033E000DEB84449414801F00BF928B141493F4852
:1033F000BDE8704001F02EB93F493C4801F000F9AA
:1034000060B13E4D3E4B2C881B68A34207DD3D4B0F
:1034100036481978013401F0D9F82C8070BD334852
:1034200001F0CFF831484FF4847101F0DEF82F48F5
:103430004FF4857101F0D9F8BDE870402B4840F297
:10344000091101F0D2B801F0DBF8044608B10122FD
:10345000C0E7284925482A4E01F0D2F8054638B180
:103460003368012BC2D12148214601F08CF8BDE719
:1034700025491E48346801F0C3F80028CED0022C3C
:1034800016D11A48294601F07EF81C4D1748013C18
:1034900034602C8801F09CF804F001031B4A1A499F
:1034A000D054012C04BF1A4B1C7001342C809EE7B1
:1034B000012CEAD10D4801F084F829460B4801F0AF
:1034C00068F80A484FF4847101F08FF807484FF408
:1034D000857101F08AF8054840F2091101F085F87C
:1034E000D3E700BF2003002009010005005400407D
:1034F0001F03002009010105090107051C03002025
:10350000180300201E0300200901060513030020F4
:103510000F03002010B50F4C0F49204601F09AF818
:1035200020460E4901F096F820460D4901F092F828
:1035300020460C4901F08EF820460B4901F08AF82C
:1035400020460A4901F086F820460949BDE81040A6
:1035500001F080B80054004008010A0508010F0579
:1035600008010E0508010B050801090508010805F9
:1035700008010C0510B5094C40F2125001F0CCF8CE
:10358000204620230322002100F004FF20462023B0
:10359000BDE810400022012100F0DABE000400481E
:1035A0001B490B78F0B47BB11A4B1B4A1B6812689D
:1035B0009B1A1A4A1278934228D900230B70F0BC48
:1035C0001748202100F01FBF1648174E1A460C2539
:1035D00005FB02F410F8017B345DABB90CB187F048
:1035E00001030132062A03F0010300F8014CEFD178
:1035F00063B101230B70074B09481A68064BF0BCF6
:1036000020211A6000F0FDBE0123EAE7F0BC7047FC
:103610000E0300201C0B00200403002001000020EA
:103620000004004808030020C004002037B5164CF1
:10363000237833BB00F02AFE144800F053FE144BED
:103640001B88ADF80430134B1D7801A82946FCF700
:1036500023FE00F01BFE29460C4800F05FFE9DF89B
:10366000045000F013FE29460B4800F057FE9DF869
:10367000055000F00BFE0948294600F04FFE0123DB
:10368000237003B030BD00BF0000002000BC000864
:10369000185600080100002004BC000808BC0008FF
:1036A000104B73B5D3F8004CD3F8046CD3F8085C16
:1036B0000D4BB4F5807F28BF0024E4B21B88ADF821
:1036C0000430214601A8FCF7E7FD9DF80430B34221
:1036D00005D19DF80530AB4204BF044B1C7002B00D
:1036E00070BD00BF00B0000818560008010000209F
:1036F0002DE9F743DFF83891454D0023F42289F88E
:10370000002089F801301A4619460C24012604FBD2
:1037100001F0285C20B106FA01F31A43D2B2034645
:1037200001310629F3D10BB189F80120394A1388F8
:10373000002B69D03849DFF8FC800F68B8F80050DA
:10374000364E013B13807B1C5A4202F01F0203F0ED
:103750001F0358BF53420B60314B4FF4967401A8BE
:103760001B88ADF80430A521FCF796FDB5FBF4F3FA
:1037700004FB13539BB2A5220221F254FCF78CFDEB
:103780006B1C9BB2B3FBF4F204FB12339BB202221C
:10379000F421F254FCF780FDAB1C9BB299F8019028
:1037A000B3FBF4F204FB12339BB2F4224946F25409
:1037B000FCF772FDEB1C9BB2B3FBF4F204FB12337B
:1037C0009BB206F803902B1D9BB2B3FBF4F204FBF3
:1037D00012339BB29DF80420F2546B1D9BB2B3FBD5
:1037E000F4F204FB12339BB29DF80520F254AB1D9A
:1037F000A8F800300B4B23F817500B4B0622DA5574
:103800000A4A13880133138003B0BDE8F08300BF78
:10381000C0040020F800002008080020D606002080
:10382000185600082C0800200C0800200208002070
:1038300094040020D40600202DE9F84FA54BDFEDBD
:10384000A67A93F800C0A54BA54D93F800E0A54BD0
:10385000A54CD3ED005AA54B9FEDA56A1B68DFF878
:10386000C882DFF8C892A348302265EEA75A02FB4F
:1038700003442F4600220C2655F8041BBCF1000F10
:1038800072D018F80230002B6ED019F8023013B144
:10389000BEF1000F6FD054F82230C3F3074A07EE91
:1038A00010AAC3F3072ADBB206EE90AA07EE903AFD
:1038B000B8EEC77AF8EEE66AF8EEE77A27EE257AF0
:1038C00066EEA56A67EEA57A013206FB01010C2AB5
:1038D00081ED007AC1ED016AC1ED027ACCD1DFF849
:1038E00050C29CF80060002E00F0D080824D9FED09
:1038F000836A2968782391FBF3F203FB1212804B51
:1039000003EB8203D3ED006AFCEEE67A4FF03C0E47
:1039100017EE903A9BB2B3FBFEF40EFB1433B7EEF6
:10392000007A9BB237EE667A07EE903A27EE267A57
:10393000F8EE677A4FF0060867EE867A36EEC76AC9
:10394000B4FBF8F267EE867A08FB124292B237EEC9
:10395000276AFAB1531E76EEE77A032B00F28E80C7
:10396000DFE803F08F107F88B0EE467AF0EE466A0B
:10397000F0EE467AA8E79FED5E7AF0EE476AF0EE49
:10398000477AA1E7F0EE667AF0EE476AB0EE467A43
:10399000B0EE676A782904D15A4B1B780BB98CF8C2
:1039A000003001312960DFF88CC15749DFF8888188
:1039B00000220C244FF07E5B04FB02F35CF8049BB6
:1039C00018F803A08E4600254D4566DB0132062A15
:1039D00001F11001F0D14D4B464A9FED4D7A002088
:1039E0001C46D2ED017A67EE877A0130FCEEE77A69
:1039F0000C2817EE901AD2ED007A197067EE877ACC
:103A000002F10C02FCEEE77A03F1030317EE901AC1
:103A100052ED017A03F8021C67EE877AFCEEE77A32
:103A200017EE901A03F8011CDBD13A4B21783A4C7F
:103A300001221A80394A3A4B02EBC10052F8312078
:103A40001A60426837485A600021E36001F037F895
:103A50002146022000F096FBBDE8F84F022000F05E
:103A60007DBBB0EE676AF0EE667AF0EE476AB0EEC4
:103A7000677A8FE7F0EE667AF0EE466AB0EE476A54
:103A8000F5E7B0EE666AF0EE676A83E79FED187AB5
:103A9000B0EE476AF0EE476A85E75EF8043B57F8F8
:103AA0002330BAF1000F09D004FB0303C3F800B0C0
:103AB000C3F804B0C3F808B0013585E7002EFBD089
:103AC00004FB0303C3ED006A83ED016A83ED027A10
:103AD000F2E700BF980000208180803BF4030020C3
:103AE0009C00002094000020340300202C030020C0
:103AF0000000000004040020240300208988883C82
:103B000044560008280300200800002096040020E6
:103B100000007F43B2050020D40000202458000894
:103B2000B40500200044014086000020F503002079
:103B30000500002068000020C0040020B34BDFED2A
:103B4000B47A93F800C0B34B9FEDB36A2DE9F74FF9
:103B500093F800E0B14BB24DD3ED005AB14BB24CEB
:103B60001B68DFF8FC82DFF8FC92B048302265EE7B
:103B7000A75A02FB03442F4600220C2655F8041BCB
:103B8000BCF1000F72D018F80230002B6ED019F87B
:103B9000023013B1BEF1000F6FD054F82230C3F3DE
:103BA000074A07EE10AAC3F3072ADBB206EE90AA73
:103BB00007EE903AB8EEC77AF8EEE66AF8EEE77AE2
:103BC00027EE257A66EEA56A67EEA57A013206FB36
:103BD00001010C2A81ED007AC1ED016AC1ED027A82
:103BE000CCD1DFF884C29CF80060002E00F0E580A4
:103BF0008F4D9FED906A2968782391FBF3F203FBC8
:103C000012128D4B03EB8203D3ED006AFCEEE67AD1
:103C10004FF03C0E17EE903A9BB2B3FBFEF40EFB56
:103C20001433B7EE007A9BB237EE667A07EE903A1D
:103C300027EE267AF8EE677A4FF0060867EE867A66
:103C400036EEC76AB4FBF8F267EE867A08FB1242DA
:103C500092B237EE276AFAB1531E76EEE77A032B5B
:103C600000F2A380DFE803F0A410949DB0EE467A42
:103C7000F0EE466AF0EE467AA8E79FED677AF0EE3E
:103C8000476AF0EE477AA1E7F0EE667AF0EE476A0F
:103C9000B0EE467AB0EE676A782904D1674B1B789C
:103CA0000BB98CF8003001312960DFF8C0C16449DC
:103CB000DFF8BC8100220C244FF07E5B04FB02F392
:103CC0005CF8049B18F803A08E4600254D457BDB6D
:103CD0000132062A01F11001F0D15A4B5349DFEDB0
:103CE0005A7A002216461F4691ED017A93F8008019
:103CF00093F801E093F802C027EE277ABCEEC77A6A
:103D00008DED017A91ED007A9DF804501D7027EE3B
:103D1000277AA845BCEEC77A8DED017A91ED027A3B
:103D20009DF804405C7027EE277ABCEEC77A8DEDD3
:103D3000017A9DF80400987062D1A64560D184454F
:103D400018BF012201360C2E03F1030301F10C010F
:103D5000CAD1002A56D03D4B39783D4C01221A80F9
:103D60003C4A3D4B02EBC10052F831201A604268D8
:103D70003A485A600021E36000F0A1FE214602208B
:103D800000F000FA022003B0BDE8F04F00F0E6B901
:103D9000B0EE676AF0EE667AF0EE476AB0EE677AE8
:103DA0007AE7F0EE667AF0EE466AB0EE476AF5E73B
:103DB000B0EE666AF0EE676A6EE79FED177AB0EED6
:103DC000476AF0EE476A70E75EF8043B57F8233025
:103DD000BAF1000F09D004FB0303C3F800B0C3F825
:103DE00004B0C3F808B0013570E7002EFBD004FB27
:103DF0000303C3ED006A83ED016A83ED027AF2E703
:103E000001229FE703B0BDE8F08F00BF98000020BB
:103E10008180803BF403002000000000940000201B
:103E20009C0000202C030020340300200404002008
:103E3000240300208988883C445600082803002079
:103E4000080000209604002000007F43B2050020F7
:103E5000D400002024580008B4050020004401408C
:103E600086000020F50300200500002068000020E7
:103E7000C0040020022170B5084600F0D1F908B353
:103E8000114D0121022000F0FFF92C88232C19D8B4
:103E90000E4A0F4B115D0F4A0F4E02EBC10052F854
:103EA00031201A6042680D485A600021F36000F02A
:103EB00006FE3146022000F065F90134022000F0D0
:103EC0004DF92C8070BD00BFB20500209604002083
:103ED000B405002024580008D4000020004401400C
:103EE00008B5FCF74FF9FCF767F9FCF793F9FCF715
:103EF000ACF9FCF7C5F9FCF7B7FAFDF7FFFBFDF7E6
:103F000019FCFDF735FCFDF779FCFDF7A5FCFDF785
:103F1000EBFDFDF717FEFDF759FFFEF79FF8FEF7E3
:103F2000E1F9FEF727FBFEF71FFFFEF79DFFFEF707
:103F3000B9FFFEF7D5FFFFF71DFBFFF7B1FBBDE8AB
:103F40000840FFF779BC00002DE9F04F00258BB049
:103F5000CDE90855CDE90655CDE90455CDE9025521
:103F6000A9462E46A8462F4601956D4B1C68019B1D
:103F7000E21A42F20F739A4202D9FDF731FB019423
:103F8000A4EB070A41F287329245A4EB080318D844
:103F9000B3F5FA7F3CD3FDF789FCFDF7FDFDFDF796
:103FA0003FFFFEF785F8FEF7C7F9FEF70DFBA31BF1
:103FB000092B02D9FEF726FC2646FEF71DFDA0467A
:103FC0002CE0584ADFF870B1574F58480121B3F53B
:103FD000FA7F117013D3FDF769FC8BF80010FDF721
:103FE000DBFD3970FDF71CFF0170FEF761F8504BE7
:103FF0001970FEF7A1F94F4B27461970D5E74C4BC6
:10400000397019704B4B8BF80010017019702746EE
:10401000A31B092B02D9FEF7F5FB2646029BA4EB56
:10402000030BBBF57A7F02D3FEF7EEFC0294039BF1
:10403000E31A312B02D9FEF799FD0394049BE21A8F
:1040400043F697239A4202D9FEF76EFF0494059B2C
:10405000E21A43F6A6239A4204D9FEF799FFA4F187
:104060000F030593069BE21A43F6C4239A4204D930
:10407000FEF7C2FFA4F12D030693079BE21A43F655
:10408000C5239A4204D9FEF7EBFFA4F12E03079350
:10409000089BE21A44F294239A4204D9FFF79CF851
:1040A000A4F2FD730893099BE21A44F2E9239A42B1
:1040B00004D9FEF7A1FFA4F652030993A4EB090269
:1040C00044F2EA239A4203D9FFF7BAF8A4F6530957
:1040D000BBF57A7F01D3FFF7A9FA41F287339A45FE
:1040E00001D9FFF705FB631B202B02D9FFF726FD43
:1040F0002546FCF707FAFDF7EDF9FDF74BFAFDF75A
:10410000EBFBFDF75FFDFDF7A1FEFDF7E7FFFEF717
:1041100029F9FEF76FFAFEF7BFFBFFF741FA24E734
:104120001C0B00209E050020660500204A0500208B
:104130002E050020120500208205002008B5FFF79B
:10414000CFFEFFF701FF00001423034A58438358B2
:1041500023F0200383507047080002401423034AD1
:104160005843835843F001038350704708000240CE
:104170001423034A5843835823F0010383507047A4
:104180000800024038B50446FFF7F2FF142303FB92
:1041900004F0184B0A68C2500433CA68C250083B86
:1041A0000A8BC250043B0D694A68C4582A43CD6942
:1041B00024F47C542A432243C2500A7A012AC2586A
:1041C0000CBF42F0400222F04002C2500A7D012A98
:1041D000C2580CBF42F0800222F08002C2504A7DD9
:1041E00022B9C25822F01002C25038BDC25842F063
:1041F0001002F9E710000240034B80005A6881402A
:1042000011435960704700BF000002401423034A65
:10421000584383580B438350704700BF0800024047
:10422000042913D008291DD0022927D1144B82005C
:104230001B68914019401423124A4343985800F0D8
:104240000200D9B1003818BF012070470C4B820022
:104250001B689140194014230A4A4343985800F0C0
:104260000400EEE7064B82001B68914019401423BE
:104270005843044BC05800F00800E2E700207047A4
:104280000000024008000240FFF7B6BF044B1A6965
:10429000120641BF034A5A6002F188325A607047E1
:1042A0000020024023016745074BDA68D10707D495
:1042B000DA68D20606D4D868C0F3800040007047A0
:1042C00001207047032070470020024010B50446CB
:1042D000FFF7EAFF012804F1FF3402D1002CF7D1E7
:1042E000042010BD38B505464FF47020FFF7EEFFEF
:1042F00088B9094C236943F002032361656123698E
:1043000043F0400323614FF47020FFF7DFFF236980
:1043100023F00203236138BD0020024070B505463A
:104320004FF470200E46FFF7D1FF68B9074C2369A0
:1043300043F0010323614FF470202E60FFF7C6FFA6
:10434000236923F00103236170BD00BF00200240F8
:104350002DE9F0430568C46800264FF0010E4FF0C8
:1043600003080EFA06F71F420DD0770008FA07FC83
:1043700001FA07F925EA0C0524EA0C0402FA07F70A
:1043800049EA05053C430136102EEAD10560C460B8
:10439000BDE8F08301294168F0B50CBF194399438A
:1043A0004FF6FF744160A242816815D1C46B0022B0
:1043B00001274FF0030C07FA02F61E421CBF5500FE
:1043C0000CFA05F502F101021CBF29433443102AFF
:1043D000F1D18160C463F0BD002401274FF0030CCC
:1043E00007FA04F51D4207D065000CFA05F621EA2C
:1043F000060102FA05F529430134102CF0D1816041
:10440000E9E78161704781627047F0B5066A456AE5
:1044100000234FF0010C4FF00F0E0CFA03F414427E
:1044200007D09C000EFA04F726EA070601FA04F406
:1044300026430133082BF0D100234FF0010C4FF03D
:104440000F0E03F108040CFA04F4144207D09C0088
:104450000EFA04F725EA070501FA04F425430133AF
:10446000082BEED106624562F0BD000070B504462F
:1044700002200D46164600F06FF9394A3949B0FB63
:10448000F1F1904294BF0B463F23626822F03F0255
:104490001A436260344A954216D801313E290DD93B
:1044A0003F2323626D00B0FBF5F5042DE36938BFAF
:1044B0000425C5F30B051D43E56170BD022901D834
:1044C0000223EEE72162EDE7284A95424FF47A7124
:1044D00024D84FF496725343B3FBF1F301332362B4
:1044E000A6B9E26922F4804205EB4503B0FBF3F381
:1044F000E261C3F30B020AB943F00103E26942F43B
:104500000042E261E2691343E361D6E7E2691923FD
:104510006B4342F48042B0FBF3F3E9E77822534364
:10452000B3FBF1F30133236296B9E36923F48043CB
:1045300005EB4505B0FBF5F0E361E36943F40043A7
:10454000E361E3690343E3610123C4F89030B4E716
:1045500019235D43E369B0FBF5F043F48043EBE7D7
:10456000BF4DC10340420F00A0860100801A060023
:1045700010B50468C3F3090324F002040C43134389
:104580000460836010BD036823F480630B43036001
:104590007047036823F400630B43036070470232E3
:1045A0000CBF21F0010141F0010101617047036876
:1045B00043F0010303607047036843F480730360B2
:1045C0007047036843F400730360704701617047EC
:1045D0000069C0B270478A0910B501F01F01145874
:1045E00001238B402343135010BD10B58C090122C9
:1045F000235801F01F018A4023EA0203235010BD13
:10460000C1F3891330B501F01F0244681D5801231E
:1046100003FA02F22A408D0D2D58C1F3044003FA2B
:1046200000F00B4B21F48031994200EA050007D1DC
:1046300052B114F4806409D0003818BF012030BD95
:104640000028FCD0101EF8E71046F8E72046F6E7F1
:1046500009010605084B994210B502D143698369E7
:1046600010BD8C0D01222358C1F304418A4023EA76
:1046700002032350F4E700BF0901010510B51D4CEA
:10468000E36803F4E063B3F5A06F08D020D8B3F576
:10469000407F26D0B3F5806F26D0174BE36002230E
:1046A0001C46C4F10404A140C3F104040F23E340F9
:1046B0001340124A0B431B011118DBB281F800337F
:1046C0004109012300F01F00834042F8213010BD52
:1046D000B3F5C06F0BD0B3F5E06FDED10423002437
:1046E000DFE700230424DCE701230324D9E70323C5
:1046F0000124D6E700ED00E00005FA0500E100E046
:1047000021F06041034B21F07F0101439960BFF329
:104710004F8F704700ED00E0830903F1804303F5FC
:10472000043300F01F001968012282400A431A6016
:104730007047830903F1804303F5043300F01F0041
:104740001A680121814022EA01021A607047FFF7CE
:10475000E3BFFFF7EEBF0000F0B55D4B89B0054643
:1047600004AC03F110061F4618685968224603C2BC
:104770000833B3421446F7D1716838696B4603C3F6
:1047800003C354494B68C3F38103022B44D14A68E5
:104790004868CB6A0601C2F383424FEAD37334D42C
:1047A000002B30D102324B68C86ADC0332D5CB6AA9
:1047B000400003F00F0354BF474848480133B0FBA3
:1047C000F3F35A434B68C3F3031320336B4413F8DA
:1047D000104C4B68C3F3022320336B4422FA04F4D9
:1047E00013F8206C4B68C3F3C22320336B4413F8D7
:1047F000183C24FA03F0062D10D8DFE805F0641207
:10480000141017464F002132CDE70BB91132CAE719
:104810003132C8E7324BD4E72F4AD3E7002009B042
:10482000F0BD2046FBE724FA06F0F8E70B6BDA054B
:1048300007D40B6B2B4813F4803F2B4B08BF184653
:10484000EDE74A680B6BC2F38132022A4FEAD37359
:104850000FD0032A14D0012A06D00BB94008DEE796
:104860000320B4FBF0F0DAE70BB98008D7E70520A6
:10487000F7E71BB90623B0FBF3F0D0E70720F0E71A
:104880000BB9C008CBE70920EBE70B6B13F0400F27
:1048900048F2120018BF4FF40040C0E70B6B9B07B3
:1048A000BDD00B6B03F00303012B0CD00B6B03F09B
:1048B0000303022B09D00B6B074803F00303032B00
:1048C00018BF0020ABE71046A9E74FF40040A6E769
:1048D0002C5600080010024000127A00006CDC0226
:1048E00000093D00003FAB01809FD50008B5274B74
:1048F00098421ED00BD8A3F5943398422AD003F5E2
:10490000E05398422DD0B0F1804F1CD008BD204B11
:1049100098422DD003F58063984230D0A3F5006310
:104920009842F3D14FF44470FFF711FF4FF44470F5
:1049300005E040F20B30FFF70AFF40F20B30BDE814
:104940000840FFF706BF4FF48060FFF700FF4FF409
:104950008060F4E740F20140FFF7F9FE40F20140C9
:10496000EDE74FF48160FFF7F2FE4FF48160E6E778
:1049700040F21130FFF7EBFE40F21130DFE740F27A
:104980001230FFF7E4FE40F21230D8E7002C01406D
:10499000004401400B8810B58362424B98421BD003
:1049A00020F48063B3F1804F16D08B68C3623E4B16
:1049B00098423CD003F5903398424FD03B4A904206
:1049C00055D002F5806290425ED0A3F5A053984284
:1049D00028D10B7B036325E0036823F07003036099
:1049E00002684B881343036002688B88134303609B
:1049F0008B68C3622B4B984222D0B0F1804F16D007
:104A0000A3F594339842D2D14FF08043D3F80024D9
:104A100022F44072C3F80024D3F80044CA88224329
:104A2000C3F80024436943F00103436110BD0368E8
:104A300023F4407303600268CB8813430360F1E7FB
:104A40001B4BD3F8002C22F44072C3F8002CD3F88F
:104A5000004CCA882243C3F8002CBAE7036823F449
:104A6000407303600268CB8813430360B1E7D3F857
:104A7000002422F44072C3F80024D3F80044CA880A
:104A80002243C3F80024A4E7D3F8002822F440729C
:104A9000C3F80028D3F80048CA882243C3F8002886
:104AA00097E700BF002C0140002000400044014077
:104AB00000200140036843F0010303607047416236
:104AC000704703690B4214BF012000207047C9439F
:104AD00001617047C3681943C1607047436C012985
:104AE0000CBF43F4004323F40043436470470000C9
:104AF000032900F20381DFE811F0040047009A0067
:104B0000DF00036A23F001030362836923F00303D8
:104B10008361036A11680B430362036A23F0020393
:104B20000362016AD3880B430362754B98420AD033
:104B300020F4806103F5A053994204D003F500638B
:104B4000984240F0DB80036A23F004030362016AA9
:104B500093880B430362036A23F008030362016A2C
:104B600013890B430362436823F4807343604168F5
:104B700053890B434360436823F4007343604168E7
:104B800093890B4343607047036A23F01003036269
:104B9000836923F440738361036A116843EA011354
:104BA0000362036AD18823F020030362036A43EAA5
:104BB00001130362524B98422DD1036A918823F06E
:104BC00040030362036A43EA01130362036A118923
:104BD00023F080030362036A43EA01130362494B33
:104BE0005089D3F8041C928921F48061C3F8041C15
:104BF000D3F8041C41EA8001C3F8041CD3F8041C58
:104C000021F40061C3F8041CD3F8041C41EA8202B9
:104C1000C3F8042C70473C4B98426FD143685289CB
:104C200023F480634360436843EA8203AAE7036A8C
:104C300023F480730362C36923F00303C361036A2F
:104C4000116843EA01230362036AD18823F40073E5
:104C50000362036A43EA01230362294B98424DD160
:104C6000036A918823F480630362036A43EA0123A1
:104C70000362036A118923F400630362036A43EA4F
:104C8000012303621F4B5089D3F8041C928921F43D
:104C90008051C3F8041CD3F8041C41EA0011C3F886
:104CA000041CD3F8041C21F40051C3F8041CD3F8ED
:104CB000041C41EA0212ABE7036A23F48053036247
:104CC000C36923F44073C361036A116843EA013383
:104CD0000362036AD18823F400530362036A43EA40
:104CE00001330362064B984208D15968528921F476
:104CF00080415960596841EA82125A60704700BF8A
:104D0000002C0140002001400040014003291AD836
:104D1000DFE801F0020A121A836923F0700383614D
:104D20008369134383617047836923F4E04383619C
:104D3000836943EA0223F5E7C36923F07003C36183
:104D4000C3691343C3617047C36923F4E043C3617C
:104D5000C36943EA0223F5E703290AD8DFE801F033
:104D6000020406084263704782637047C26370475B
:104D70000264704703291AD8DFE801F0020A121A08
:104D8000836923F008038361836913438361704758
:104D9000836923F400638361836943EA0223F5E7AF
:104DA000C36923F00803C361C3691343C361704738
:104DB000C36923F40063C361C36943EA0223F5E7CF
:104DC00003291AD8DFE801F0020A121A836923F0D6
:104DD0000C0383618369134383617047836923F400
:104DE00040638361836943EA0223F5E7C36923F0E3
:104DF0000C03C361C3691343C3617047C36923F4E0
:104E00004063C361C36943EA0223F5E710B4032991
:104E100024D8DFE801F002284B6D036A23F0010378
:104E20000362036A23F00A030362046A13882343BC
:104E30000362836923F003038361846953882343F6
:104E400083618369D48823F0F0038361836943EA33
:104E500004138361036A43F00103036292885DF8DF
:104E6000044BFFF7ADBF036A148823F010030362FD
:104E7000036A23F0A0030362036A43EA0413036294
:104E80008369548823F440738361836943EA04236C
:104E900083618369D48823F470438361836943EA1F
:104EA00004338361036A43F01003D6E7036A14886E
:104EB00023F480730362036A23F420630362036AAA
:104EC00043EA04230362C36923F00303C361C46993
:104ED00053882343C361C369D48823F0F003C361BB
:104EE000C36943EA0413C361036A43F48073B4E7FC
:104EF000036A148823F480530362036A23F4204373
:104F00000362036A43EA04330362C369548823F4E7
:104F10004073C361C36943EA0423C361C369D4888E
:104F200023F47043C361C36943EA0433C361036A72
:104F300043F4805391E703290BD8DFE801F0020422
:104F40000608406B7047806B7047C06B7047006C01
:104F5000704700207047000008B50C4B98420DD0F8
:104F600003F57443984210D140F20E30FFF7EFFB87
:104F700040F20E30BDE80840FFF7EBBB40F21140B5
:104F8000FFF7E5FB40F21140F4E708BD00440040A4
:104F900038B5134B984204460D4618D003F57443B8
:104FA000984216D10620FFF7D7FB226812044FEA79
:104FB000550310D503EB4003B3FBF5F1C1F34203F6
:104FC00021F00F010904090C0B43E36038BD0220F6
:104FD000E9E70020E9E70344B3FBF5F39BB2F4E70C
:104FE00000440040036823F001030360036823F4D6
:104FF000C063036003680B4303607047036823F0DA
:1050000001030360036823F48053036003680B43C8
:1050100003607047036823F001030360436823F4CF
:105020004053436043680B4343607047036843F059
:10503000010303607047036823F0080303600368FB
:105040000B4303607047036823F0040303600368A5
:105050000B4303607047C1F3080181627047406AE7
:10506000C0F308007047026A01F01F0101238B4062
:105070001343036270478A0910B501F01F011458E9
:1050800001238B402343135010BD10B58C0901221E
:10509000235801F01F018A4023EA0203235010BD68
:1050A000C1F3891310B51C588B0D1A58C1F3044075
:1050B000012303FA00F0104006D001F01F018B40DD
:1050C000234214BF0120002010BD0000084B99426C
:1050D00006D1D0F8D03023F40043C0F8D030704768
:1050E000026AC1F3044101238B40134303627047FA
:1050F00009340F34DFF830D0002103E00B4B5B584C
:10510000435004310A480B4B42189A42F6D30A4ADC
:1051100002E0002342F8043B084B9A42F9D300F026
:1051200011F8FFF70BF87047040300203462000801
:10513000000000200401002004030020200B0020B8
:10514000FEE700007E4BDA6902F00602062A82B012
:1051500047D0DA69900444D57A4A7B4959605A604D
:1051600099609A601A6942F020021A611A6942F045
:1051700040021A61DA68D107FCD41A6922F02002D1
:105180001A611A6942F010021A61DA6912F0060F08
:105190006E4A40F0C780A5231380694B6B4AD969DA
:1051A000090A01F0DF015180D969C1F307419180FB
:1051B000D969090ED180196AC9B21181196AC1F37E
:1051C00007215181DA68D207FCD41A6922F0100253
:1051D0001A611A6922F400721A611A6942F0800297
:1051E0001A615B4AD2F8883043F47003C2F8883001
:1051F000584B1A6842F001021A601A689007FCD5F1
:105200005A6842F080025A6000220192019A4F2AA5
:1052100040F290805A6842F090025A600022019257
:10522000019A4F2A40F289805A6822F003025A609C
:105230001A6822F0867222F480321A605968464A4F
:105240000A405A605A6822F0084222F474125A60E6
:10525000DA6A22F0404222F00F02DA621A6B22F47C
:10526000817222F001021A631A6B22F480321A63EF
:105270001A6B22F000421A635A6B22F001025A6341
:10528000D3F8C02022F48032C3F8C02000229A60F4
:10529000C3F8CC201A6842F480321A604FF40062DE
:1052A0001968890301D4013AFAD11A68900333D5F9
:1052B0005A685A605A6842F400525A605A6842F476
:1052C00080625A605A6822F0036222F470225A60A7
:1052D000DA6A22F0404222F00F02DA625A6842F0A3
:1052E000016242F480325A60DA6A42F00102DA6204
:1052F000DA6ADA621A6842F080721A601A689101FA
:10530000FCD55A6822F003025A605A6842F0020241
:105310005A605A681207FCD500214FF0006002B0B5
:10532000FFF7EEB9DB6903F00603022B7FF435AF1C
:10533000BB2331E7019A013267E7019A01326EE738
:1053400000200240AB89EFCD2301674500F8FF1F25
:1053500000ED00E0001002400C00FF082DE9F047CE
:10536000089D0C46002B4ED194468C458646B2FAD9
:1053700082F262D94AB1C2F12003914020FA03F3CC
:105380000CFA02FC194300FA02FE4FEA1C471FFA0E
:105390008CF6B1FBF7F44FEA1E4307FB141143EA06
:1053A000014304FB06F199420AD91CEB030304F103
:1053B000FF3080F01381994240F21081023C634437
:1053C000591A1FFA8EF3B1FBF7F007FB101143EAED
:1053D000014300FB06F69E420AD91CEB030300F1D1
:1053E000FF3180F0FD809E4240F2FA806344023833
:1053F0009B1B40EA044000211DB1D3400022C5E9B7
:105400000032BDE8F0878B4205D90DB1C5E9000136
:1054100000210846F5E7B3FA83F1002946D1A342FB
:1054200002D39042C0F0F180861A64EB030301209E
:10543000002DE6D0C5E90063E3E7002A40F0918043
:10544000A1EB0C044FEA1C481FFA8CF70121B4FBB6
:10545000F8F64FEA1E4308FB164443EA044307FBF1
:1054600006F0984208D91CEB030306F1FF3402D280
:10547000984200F2CE8026461C1A1FFA8EF3B4FB27
:10548000F8F008FB104443EA044300FB07F79F428F
:1054900008D91CEB030300F1FF3402D29F4200F253
:1054A000B1802046DB1B40EA0640A5E7C1F120069B
:1054B0008B4022FA06F71F4320FA06FC04FA01F398
:1054C00043EA0C03F44000FA01F8380C4FEA1349A0
:1054D000B4FBF0FE1FFA87FC00FB1E4449EA0444BB
:1054E0000EFB0CF9A14502FA01F20AD93C190EF1A2
:1054F000FF3A80F08580A14540F28280AEF1020E35
:105500003C44A4EB09041FFA83F9B4FBF0F300FB5D
:10551000134449EA044403FB0CFCA44507D93C1995
:1055200003F1FF3068D2A44566D9023B3C4443EA0C
:105530000E40A0FB0293A4EB0C049C42CE469C467A
:1055400052D34FD055B1B8EB0E0364EB0C0404FA00
:1055500006F6CB40CC401E43C5E900640021BDE8FF
:10556000F087C2F1200320FA03F10CFA02FC24FABE
:1055700003F394400C434FEA1C4800FA02FE1FFA62
:105580008CF7B3FBF8F008FB1031230C43EA01431E
:1055900000FB07F1994208D91CEB030300F1FF3629
:1055A0002CD299422AD9023863445B1AA4B2B3FBC5
:1055B000F8F108FB113344EA034401FB07F3A3426B
:1055C00008D91CEB040401F1FF3613D2A34211D910
:1055D00002396444E41A41EA004138E70446EFE640
:1055E000084605E7C845ADD2B9EB020E63EB070CE0
:1055F0000138A7E73146EDE7034698E73046D4E7A0
:10560000D6467EE7634402384CE706462346084602
:105610000EE7023E63442FE7FFFF00000100000099
:105620000000000000000001000000000000000079
:105630000000000001020304060708090000000042
:1056400001020304000000000B71D63C3B5E563D96
:105650002AAFA03D0513D63DA9A8053E5C30203EEB
:10566000F39B3A3ECEE6543E4E0C6F3EEE83843EB4
:10567000766A913E7A379E3EBCE8AA3E017CB73EF0
:1056800016EFC33EC93FD03EF46BDC3E7271E83E7C
:10569000284EF43E0000003F78C2053F776D0B3F77
:1056A0000000113F1879163FCAD71B3F241B213F2A
:1056B0003B42263F254C2B3F0138303FF304353F1A
:1056C00022B2393FBE3E3E3FF8A9423F0AF3463F71
:1056D00035194B3FBD1B4F3FEFF9523F1EB3563FAD
:1056E000A1465A3FD8B35D3F29FA603F0219643F93
:1056F000D50F673F1EDE693F5E836C3F20FF6E3F24
:10570000F450713F7178733F3675753FEA46773FC5
:105710003CED783FE2677A3F98B67B3F25D97C3FE6
:1057200055CF7D3FFD987E3FF9357F3F2FA67F3FC8
:105730008BE97F3F0000803F8BE97F3F2FA67F3FB3
:10574000F9357F3FFD987E3F55CF7D3F24D97C3F83
:1057500098B67B3FE1677A3F3CED783FEA46773F7A
:105760003575753F7078733FF450713F21FF6E3F80
:105770005E836C3F1DDE693FD40F673F0019643FB5
:1057800029FA603FD7B35D3F9F465A3F1DB3563F4E
:10579000EEF9523FBB1B4F3F34194B3F08F3463FD6
:1057A000F5A9423FBD3E3E3F23B2393FF304353FAA
:1057B0000038303F254C2B3F3A42263F221B213FE9
:1057C000C7D71B3F1779163FFEFF103F736D0B3F86
:1057D00079C2053F0100003F264EF43E6D71E83E60
:1057E000F46BDC3EC73FD03E10EFC33E007CB73EBB
:1057F000B8E8AA3E73379E3E746A913EEA83843EBF
:105800004E0C6F3EC8E6543EF89B3A3E5A30203E5E
:10581000A1A8053E0913D63D22AFA03D135E563D1B
:105820008C70D63C1919191919191919191919193E
:105830001919194B1919191919194B191919191974
:1058400019194B4B19191919194B19191919191932
:10585000194B194B19191919194B4B1919191919F0
:10586000194B4B4B191919194B19191919191919E0
:105870004B19194B191919194B194B1919191919D0
:105880004B194B4B191919194B4B1919191919198E
:105890004B4B194B191919194B4B4B19191919194C
:1058A0004B4B4B4B1919194B191919191919194B3C
:1058B0001919194B1919194B19194B191919194B90
:1058C00019194B4B1919194B194B19191919194B4E
:1058D000194B194B1919194B194B4B191919194B0C
:1058E000194B4B4B1919194B4B1919191919194BFC
:1058F0004B19194B1919194B4B194B191919194BEC
:105900004B194B4B1919194B4B4B19191919194BA9
:105910004B4B194B1919194B4B4B4B191919194B67
:105920004B4B4B4B19194B191919191919194B19BB
:105930001919194B19194B1919194B1919194B190F
:1059400019194B4B19194B19194B191919194B19CD
:10595000194B194B19194B19194B4B1919194B198B
:10596000194B4B4B19194B194B19191919194B197B
:105970004B19194B19194B194B194B1919194B196B
:105980004B194B4B19194B194B4B191919194B1929
:105990004B4B194B19194B194B4B4B1919194B19E7
:1059A0004B4B4B4B19194B4B1919191919194B4BD7
:1059B0001919194B19194B4B19194B1919194B4B2B
:1059C00019194B4B19194B4B194B191919194B4BE9
:1059D000194B194B19194B4B194B4B1919194B4BA7
:1059E000194B4B4B19194B4B4B19191919194B4B97
:1059F0004B19194B19194B4B4B194B1919194B4B87
:105A00004B194B4B19194B4B4B4B191919194B4B44
:105A10004B4B194B19194B4B4B4B4B1919194B4B02
:105A20004B4B4B4B194B191919191919194B1919BA
:105A30001919194B194B191919194B19194B19190E
:105A400019194B4B194B1919194B1919194B1919CC
:105A5000194B194B194B1919194B4B19194B19198A
:105A6000194B4B4B194B19194B191919194B19197A
:105A70004B19194B194B19194B194B19194B19196A
:105A80004B194B4B194B19194B4B1919194B191928
:105A90004B4B194B194B19194B4B4B19194B1919E6
:105AA0004B4B4B4B194B194B19191919194B194BD6
:105AB0001919194B194B194B19194B19194B194B2A
:105AC00019194B4B194B194B194B1919194B194BE8
:105AD000194B194B194B194B194B4B19194B194BA6
